:020000040000fa
:04005c009804000004
:020000040000fa
:04007c0098040000e4
:020000040000fa
:04000c009804000054
:020000040000fa
:0400b40098040000ac
:020000040000fa
:0400b00098040000b0
:020000040000fa
:04014000980400001f
:020000040000fa
:040108009804000057
:020000040000fa
:04010400980400005b
:020000040000fa
:04014400980400001b
:020000040000fa
:0400700098040000f0
:020000040000fa
:0400740098040000ec
:020000040000fa
:04013400980400002b
:020000040000fa
:04011400980400004b
:020000040000fa
:040118009804000047
:020000040000fa
:040038009804000028
:020000040000fa
:040208009804000056
:020000040000fa
:04020c009804000052
:020000040000fa
:04023000980400002e
:020000040000fa
:04023400980400002a
:020000040000fa
:040238009804000026
:020000040000fa
:040060009804000000
:020000040000fa
:0400880098040000d8
:020000040000fa
:0400b80098040000a8
:020000040000fa
:0400e0009804000080
:020000040000fa
:04011c009804000043
:020000040000fa
:040138009804000027
:020000040000fa
:04013c009804000023
:020000040000fa
:04020000980400005e
:020000040000fa
:04020400980400005a
:020000040000fa
:04001c009804000044
:020000040000fa
:040010009804000050
:020000040000fa
:04021c009804000042
:020000040000fa
:04022400980400003a
:020000040000fa
:04022c009804000032
:020000040000fa
:04024400980400001a
:020000040000fa
:04024c009804000012
:020000040000fa
:04025400980400000a
:020000040000fa
:04025c009804000002
:020000040000fa
:04002c009804000034
:020000040000fa
:04003c009804000024
:020000040000fa
:0400bc0098040000a4
:020000040000fa
:0400c00098040000a0
:020000040000fa
:0400c400980400009c
:020000040000fa
:0400c8009804000098
:020000040000fa
:0400800098040000e0
:020000040000fa
:0400840098040000dc
:020000040000fa
:04019c0098040000c3
:020000040000fa
:0402600098040000fe
:020000040000fa
:040028009804000038
:020000040000fa
:04009c0098040000c4
:020000040000fa
:0400fc009804000064
:020000040000fa
:04010000980400005f
:020000040000fa
:0401b80098040000a7
:020000040000fa
:0401bc0098040000a3
:020000040000fa
:0401c000980400009f
:020000040000fa
:0401c400980400009b
:020000040000fa
:0401c8009804000097
:020000040000fa
:0401cc009804000093
:020000040000fa
:0401d000980400008f
:020000040000fa
:0401d400980400008b
:020000040000fa
:0401d8009804000087
:020000040000fa
:0401dc009804000083
:020000040000fa
:0401e000980400007f
:020000040000fa
:0401e400980400007b
:020000040000fa
:0401e8009804000077
:020000040000fa
:0401ec009804000073
:020000040000fa
:0401f000980400006f
:020000040000fa
:0401f400980400006b
:020000040000fa
:0401f8009804000067
:020000040000fa
:0401fc009804000063
:020000040000fa
:04023c009804000022
:020000040000fa
:04012400980400003b
:020000040000fa
:040128009804000037
:020000040000fa
:040148009804000017
:020000040000fa
:04015000980400000f
:020000040000fa
:040158009804000007
:020000040000fa
:04015c009804000003
:020000040000fa
:0401600098040000ff
:020000040000fa
:0401640098040000fb
:020000040000fa
:0401680098040000f7
:020000040000fa
:0401780098040000e7
:020000040000fa
:04017c0098040000e3
:020000040000fa
:0402640098040000fa
:020000040000fa
:04006c0098040000f4
:020000040000fa
:0400f0009804000070
:020000040000fa
:040018009804000048
:020000040000fa
:0400640098040000fc
:020000040000fa
:040218009804000046
:020000040000fa
:04022000980400003e
:020000040000fa
:040228009804000036
:020000040000fa
:04024000980400001e
:020000040000fa
:040248009804000016
:020000040000fa
:04025000980400000e
:020000040000fa
:040258009804000006
:020000040000fa
:040030009804000030
:020000040000fa
:040040009804000020
:020000040000fa
:04008c0098040000d4
:020000040000fa
:0400900098040000d0
:020000040000fa
:0400cc009804000094
:020000040000fa
:0400d0009804000090
:020000040000fa
:0400d400980400008c
:020000040000fa
:0400d8009804000088
:020000040000fa
:0401980098040000c7
:020000040000fa
:040008009804000058
:020000040000fa
:0400dc009804000084
:020000040000fa
:0401a00098040000bf
:020000040000fa
:0401a40098040000bb
:020000040000fa
:0401a80098040000b7
:020000040000fa
:0401ac0098040000b3
:020000040000fa
:0401b00098040000af
:020000040000fa
:0401b40098040000ab
:020000040000fa
:04014c009804000013
:020000040000fa
:04010c009804000053
:020000040000fa
:04011000980400004f
:020000040000fa
:04015400980400000b
:020000040000fa
:04012000980400003f
:020000040000fa
:04002400980400003c
:020000040000fa
:0400680098040000f8
:020000040000fa
:04004c009804000014
:020000040000fa
:040050009804000010
:020000040000fa
:0400a80098040000b8
:020000040000fa
:0400ac0098040000b4
:020000040000fa
:0401900098040000cf
:020000040000fa
:0401940098040000cb
:020000040000fa
:04021000980400004e
:020000040000fa
:04021400980400004a
:020000040000fa
:040020009804000040
:020000040000fa
:04001400980400004c
:020000040000fa
:04003400980400002c
:020000040000fa
:04004400980400001c
:020000040000fa
:040048009804000018
:020000040000fa
:0400940098040000cc
:020000040000fa
:0400980098040000c8
:020000040000fa
:0400e400980400007c
:020000040000fa
:0400e8009804000078
:020000040000fa
:0400f400980400006c
:020000040000fa
:0400f8009804000068
:020000040000fa
:04012c009804000033
:020000040000fa
:040058009804000008
:020000040000fa
:04013000980400002f
:020000040000fa
:0400a40098040000bc
:020000040000fa
:04016c0098040000f3
:020000040000fa
:0401700098040000ef
:020000040000fa
:0401740098040000eb
:020000040000fa
:0401840098040000db
:020000040000fa
:0401880098040000d7
:020000040000fa
:04018c0098040000d3
:020000040000fa
:0401800098040000df
:020000040000fa
:080000000002040000000000f2
:020000040000fa
:100400004f5b22000eff27000e0188000000000055
:10041000000020000000e000020032000001200087
:100420002002880014000700b80107000000e00067
:1004300003003a00e0d6240001002000020037004b
:100440000000200001002000810f70000100320038
:100450000f000700000020000000e0000200320052
:100460000000020000000000ee6402000000000036
:100470000040da000000fe00c01220000000e00092
:1004800002003200002020009001880000000600d9
:10049000a1028800800478000000eb001f003700f4
:1004a000e284440054a0b4009905ba00e2844400f8
:1004b00054a0b4009906ba00e284440054a0b400e9
:1004c0000006eb00476fde00fd07b200ae018800ba
:1004d000636ce10003003a000ad801000000eb0061
:1004e0000e003700606ce10008003a00004deb00a0
:1004f0000a05e800020039003420ec000af0a000f0
:100500008b05e900f9ff3e00040037006168e10057
:10051000010032000086eb000b00070019c7ba008b
:100520000e04e0001905ba0003003a000a00e000da
:10053000dbff3a0000000600fe07b200ae028800b2
:100540008a047800f5ff37000cd0a300e20f4d00bd
:100550001c00390089027800354dba000a05e80010
:10056000020039003420ec000af0a0008b05e900fd
:100570000f003200254dba000a05e80002003900dc
:100580003420ec000af0a0008b05e90008003200de
:100590000c00e0000600320015cdba000a05e800a4
:1005a000020039003420ec000af0a0008b05e900bd
:1005b0008984e80054a0b4000b00e000e2ff3a0098
:1005c000000006009902ba00055d78008b05e9007d
:1005d000f7ff3200c82ade00055d78008b05e900d0
:1005e000f3ff32000c00e000f1ff320019ddba0029
:1005f000eeff3700fa1004000000000014110400a0
:10060000000000004211040000000000961a0400df
:1006100000000000341c0400000000005e260400fe
:10062000000000000000040000000000809fbe00e9
:10063000829fbe001882ab00010032001a30ef002a
:100640001842ab0006003a0018a2ab0004003a00c2
:10065000801080001ef0b7001782a800420037000b
:100660001842ab0014003a0018a2ab00120032008e
:100670001a10e20005003a00801080001ff0b70059
:1006800010002000d0808800090037001fd0bf0074
:10069000821080008080fb00834e22008180410018
:1006a000824878000040e8001ff0b7001a30ef00e1
:1006b0001782a8002c0037001842ab00140032004b
:1006c00018a2ab0012003a00801080001ef0b700a4
:1006d000f1012100914078000180fb00824e220050
:1006e000000041001040780020f0b7008140e80091
:1006f00081417800f2012100034978000080fb006d
:10070000901088001a30ef001782a80016003700fa
:100710001842ab001400320018a2ab0012003200e5
:100720001802e20010003500801080001ef0b700b3
:10073000f1012100914078000180fb00824e2200ef
:10074000000041001040780020f0b7008140e80030
:1007500081417800f2012100034978000080fb000c
:10076000901088001782a8000628a9004f01be003b
:100770004f00be00004006003600f800809fbe001b
:10078000829fbe00849fbe00869fbe00e1002000c5
:100790000000eb005d2907000004a20000f0b70094
:1007a000c208d50000c0ea006100600000004000ff
:1007b000114680000110a1008100700011468800e0
:1007c00010002000802f07004f03be004f02be0024
:1007d0004f01be004f00be003600f9000040060089
:1007e000809fbe00829fbe00849fbe002202ab009d
:1007f00020003200f301280004fe2f0080818000d9
:1008000080109000351180000101400005497800fa
:100810008100e800011098008181800001109000a3
:100820000300600003003b000000e90000007200cc
:100830000000e8008010980011119000020068008c
:1008400000f0a7000000ea000000e9004f00de0011
:10085000020040000300600003003b000000e900cc
:10086000000072000000e800901098002202ab0027
:10087000e2ff3a000168a9004f02be004f01be002e
:100880004f00be0000400600809fbe00829fbe0059
:10089000849fbe003202ab0020003200f30128002a
:1008a00004fe2f009081800080109000b511800020
:1008b00001014000054978008100e800011098001e
:1008c00091818000011090000300600003003b0054
:1008d0000000e900000072000000e80080109800ad
:1008e000111190000200680000f0a7000000ea006b
:1008f0000000e9004f00de0002004000030060003d
:1009000003003b000000e900000072000000e80066
:10091000901098003202ab00e2ff3a0003c8a90031
:100920004f02be004f01be004f00be000040060057
:100930000040da000000fe000a00fa00110020006a
:10094000b1bf9f00c0bf9f006a805700f910070029
:100950004fb897000080fa00000006000a00fa0075
:10096000e20f500034003e00802d8100e10f500066
:1009700003003200e20f500011003a000c00370073
:10098000032220000300e00001003a000040da00ea
:100990002002e200020035002822ef0021e2a80038
:1009a0002342ab000d003a002342a8000b003700a1
:1009b000032320000300e00001003a000040da00b9
:1009c0003002e200020035003822ef0031e2a800d8
:1009d0003342ab0001003a003342a80082017800a4
:1009e0000b0037003102fb00e10f500004003a0019
:1009f0002322ab00feff3a002411880003003700d9
:100a00003322ab00feff3a00a41188008301e90005
:100a10000300e000f3ff3a00e10f500003003a004a
:100a20002302ab00feff32000b0037003302ab00a5
:100a3000feff32000800370033002000b3bf9f00e4
:100a4000c0bf9f00d1bf9f00e2bf9f006a805700d8
:100a5000ba1007006fb99700020078000080fa0012
:100a6000000006000a00fa0051002000b1bf9f00fc
:100a7000c0bf9f006a805700b21007005fb89700a0
:100a80000080fa0000000600889fbe008004780005
:100a9000902d81000000e00004003a000e000700e5
:100aa0000084eb000000e00008003500982d810074
:100ab0000900e000050032000900440006000700bc
:100ac0000000e00001003d000084eb000800780019
:100ad0004f04be0000000600800078000100e00026
:100ae00003003a0000002000902d8900000005005e
:100af0000080eb0002002000828f500002003e00c8
:100b0000912d89000000eb000000060000000500a8
:100b100003f0a200889fbe008a9fbe008c1f780051
:100b20005a010700610133006450e1004f003200b8
:100b30006420e1005200320003826c0007003b0099
:100b40000905d0000306d000820f54000c065d009a
:100b500002003900020032008901780003067800a3
:100b60008582550004003d000003fd008103fd0067
:100b70008502ea008b854200840f720002003b0070
:100b800060001000e08018006011b8000005eb0064
:100b90007a28e1000a00390006007800c75ddd0010
:100ba000f707b200878075002d0037008281710041
:100bb0000a017800610560008180d1000080d300c7
:100bc0008502e900f9ff3b000604400087844800e5
:100bd00002003b0060041400e0841c000988a300ac
:100be000070032008a817100828171006101640016
:100bf0008904d1000884d3008b05e8001700370072
:100c00000978a30013003a000b00e0001300340041
:100c10008b05e9000804440089844c000a447400f0
:100c20000978a3000d003a000b00e0000700340033
:100c30008b05e9000804440089844c0001003a0057
:100c40000b0020000978a300f7ff32000001eb0041
:100c500002003700828171000a017800d00007008d
:100c60000cf0a70001f0a000190137006420e1009a
:100c700002003a00838f6c00190133000801be00a6
:100c80000200be0012013700889fbe008a9fbe008e
:100c90008c1f7800fd0007000401330003866c0000
:100ca0006450e1002e0032006420e1003300320085
:100cb0006150e1002f0032006120e100310032007c
:100cc00085855500eb07b0000900200008042000ce
:100cd000050037000804440089844c000a003100f4
:100ce0000603430087834b000001530081815b00b2
:100cf000f8ff33000203be000800a000080444000f
:100d000089844c00f6ff3900c639dd008301730089
:100d100001003200130020008904d1000884d300b0
:100d20000998a300050032000800a7000300a000f6
:100d30008904d1000884d3008b05e8008904d10020
:100d40000884d3000001eb000281d2009400070068
:100d500001f0a1000cf0a70001f0a000dc003700ba
:100d60006420e100de0032000801be000200be0087
:100d7000f7ff37006120e100d90032006000b800c1
:100d8000f3ff37000000200001f82700f0ff3700d4
:100d900014002000e4033700f4ff2f00e2033700c3
:100da0000001be00a40007000470a70003f0a1002a
:100db0006509b100160032000d0035006828e10019
:100dc00006003500f0ff2f00f1ff27000300e000d0
:100dd00013003b0001002800000005000000400057
:100de000818048008502e900fcff3a0008003700d6
:100df000f88f420002003c008000eb00000005007c
:100e00008100d1000080d3008502e800fcff3a0099
:100e10000300e00002003b0060001000e0801800ca
:100e2000000006000001be00830007000470a70058
:100e300003f0a10003f8a30013003a006509b10014
:100e400010003200090035006928e1000200350079
:100e500001002800000005000000400081804800db
:100e60008502e900fcff3a0000000600f88f42000e
:100e7000050035008100d1000080d3008502e80024
:100e8000fcff3a00000006008000eb0000000500b7
:100e9000881f7800030478000300e00007003d008d
:100ea00060001000e080180060011900e081190066
:100eb00002003b0001f02d0003003700070007008f
:100ec00008f0a70001f0a0004f0478000000060021
:100ed0004f89de0082017800edff3700889fbe0059
:100ee0008a9fbe00008270000402710004827100bb
:100ef000260032000004be000200be006011b800ef
:100f00006b092000950220000182cf000a00390001
:100f10000541b1000082cf00070039000541b10052
:100f20000982cf00040039000541b1000882cf00da
:100f3000010039000541b1000542520012003200a3
:100f40000a003b0082817100610164008100d100d0
:100f50000080d3008984d3000884d3008b05e80087
:100f60000442e800f7ff3a00070037000804440095
:100f700089844c0000004800818048008b05e9000e
:100f80000442e900f9ff3a00050007004f05be00e2
:100f90004f04be00000006006011b800cfff37000c
:100fa00081002000618055000b003d000b002000f7
:100fb00061fe2f000100e1001d00340082817100fc
:100fc000610164008904d1000884d3000000e800b6
:100fd000faff3a0071002000610064000300700015
:100fe000020060000900320061044400e0844c000b
:100ff0000988a500050032008b05e8006808e100bb
:1010000002003a008904d1000884d300f20f2000c6
:101010000258e10005003d00c75ddd00f907b200a0
:101020008980750008007800000006000bf8270092
:101030008b00780000000500c70ade00f107b2004f
:10104000f50fb20008003200e1cf4200020032008a
:101050000170a00024000500810f70000100320023
:101060000408050044000500810f700002003a00ea
:10107000140005008502e9000000400081c048001e
:10108000fcff3b000170a000240005000004be002e
:10109000e9ff07000003be000405be000200be0019
:1010a000e5ff0700844f7500000006000200be0047
:1010b0006450e100050036006420e10002003600c3
:1010c0000968a30001003a000800be000160a0000a
:1010d0004f0678004f05be004f04be00000006001a
:1010e000f0ff2f00f1ff2700f9ff3700889fbe00b7
:1010f0008a9fbe008c1f7800e4ff0700ebff3300df
:1011000003866c006450e100240032006420e1009a
:10111000270032006150e100220032006120e1002e
:10112000210032008b854200eb07b1000134b8008a
:10113000003ab8000804420089844a00013ab80025
:101140000030b8008880400009014a0004003300e4
:101150000000400081804800020149008b05e90041
:10116000c909dd0083017000010032001300200076
:10117000c814de004814dd004709de001200b2008a
:10118000c808de000884700085ff070001f0a10098
:101190000cf0a70001f0a000cdff37006120e100b6
:1011a000cfff32000801be000200be00f7ff37008b
:1011b0006150e100fcff3a00c9ff37000c00fa0063
:1011c000889fbe008a9fbe008c9fbe00afff0700b5
:1011d0000206be00840578000200be000200200066
:1011e000aa02070005003a008b02b300120020009b
:1011f000a602070001003a00f8856d000c01be0050
:10120000c60007000800be009b0032000b08a300c8
:101210009e003a000df0a7000be0a00009f0a70027
:101220000bf0a00009f0a1000801be00bb00070000
:101230000bf0a6009500320001003c000bd0a0008e
:101240008acf7500b20033006000b8006250e10040
:1012500099003900a1003e000b28a300a2003a002b
:101260000bf8a300060032000b58a300a7003200c1
:101270000801be00a90007000800be00940032006b
:101280000800be00120207000004be000505780039
:101290000bf0a7000b30a6000bf0a1005b07980035
:1012a000324f200053f32300b9fe070005003d0034
:1012b0000800be0012002000b60207000004be00b5
:1012c0000a05e9004a0798006150b90000ff0700cd
:1012d000008fbe000c01be0084ff0700b0fe0700b7
:1012e000300798000100e00002003d00600010009f
:1012f000e0801800f2ff2700820f5000e08f5800b6
:1013000064003e000c00be00a5fe07002007980008
:10131000f2072000820f5000e08f580005003c00cb
:1013200012f82f00f3ff2f00820f5000838f580018
:1013300009003d000a00e0000300320001003c000b
:101340000201ea00020578006000b800200798005a
:101350003a079800190037003e0090006100b9007c
:10136000dbfe0700809fbe000c00be004109dd00cf
:101370004811de007208b100440207000005be00fb
:101380001e01be0059ff07004f01be00e0fd07002f
:10139000809fbe000c00be000a01be00dcfd0700fd
:1013a0001e01be0051ff07004f01be00d9fd07001e
:1013b0008221270013f323004cff07000005be0025
:1013c0002e0090006100b900c1fe070001f0a200ec
:1013d0000c01be00cffd07000006be000800be00e5
:1013e0008e0207000c01be0040ff07000a01be008c
:1013f000c8fd0700809fbe004a0007002e05900030
:101400000af0a7000a05ea00050037000800be0040
:101410000801be0035ff07000004be000c00be003e
:101420000801be000a00a70030ff07000006be004a
:101430000a05d100f5ff3a005e01900002e0a60027
:10144000030037000001be00360007000efe070053
:101450000004be004f00be00aa0107000801be0044
:1014600022ff07003e0190004a020700de059000bf
:101470000bf0a70001f0a2004f06be004f05be0012
:101480004f04be000080fa0000000600250007009f
:10149000f9ff3700270007006000b8000bd0a70055
:1014a0000bc0a0000be0a7000bc0a2000bc0a70060
:1014b00001f82700f0ff37000df8a300020032000a
:1014c0001e000700190007000bf8a300eaff320016
:1014d0000b30a70001f0a200e7ff37000df8a300d2
:1014e000f9ff3a00f7ff37000801be000b000700c4
:1014f000e6ff320001003c000df0a2006000b800e1
:101500000df0a70009000700dbff37000b00070004
:10151000f1ff2700f0ff2f00d7ff37000100070081
:101520001bfe370001f823000000050001f827002a
:1015300000000500200220000100370010022000fa
:10154000c081880000000600889fbe008a9fbe0000
:101550008c1f78000004be00b7fe07000478a300cb
:1015600026003a006120e1002500320009f8a300be
:1015700025003a006420e10021003200f507b100a7
:101580000508a300020032000000400081804800ee
:101590006044b8000310200002002000000040005a
:1015a000818048000805440089854c000a054100f7
:1015b0008b8549000a0550008b85580003003300d5
:1015c0000a00be0002047400838474008301d10009
:1015d0000281d300830f7100f0ff3a008904d1002b
:1015e0000884d3006001490082017800c1adde00ab
:1015f000fb07b0006afe0700b5fe37000960a000d7
:101600000800be00b2fe370012022000c28188002e
:10161000f0ff2f00f1ff2700adfe3700889fbe00ce
:101620008a9fbe0030044200b0844a0030054b005f
:1016300090854b006000b1000898be000a90be0083
:101640000440e10005c8e10006d0e10007d8e10050
:1016500002003100680040001008e8004f05be009d
:101660004f04be0000000600889fbe008a9fbe0097
:10167000100478009004900020059000b0059000c0
:101680000418540005985c0006185d0007985d007a
:10169000110020000440e10005c8e10006d0e1008f
:1016a00007d8e100010039008000eb00108810002d
:1016b0004f05be004f04be00000006001200fa00f5
:1016c000889fbe008a9fbe008c9fbe00e0b79f002f
:1016d000f1b79f0082bf9f0093bf9f000605be0029
:1016e0000404be000000eb00d0b79f00c0b79f000d
:1016f000b0b79f00a0b79f0090b79f00000678008a
:101700005fb19700cfb09700820141003fb09700d2
:101710000200e00004003d00370007007e80570013
:10172000beff070003003700330007007e8057002c
:10173000cdff0700dfb697000d00e0000c0035007c
:101740006fb29700ffb297000fbb97009fbb970047
:1017500010002000010020006011b800000272009b
:101760008182720002037300838373001b000700f1
:101770000c06e80001042000810f5600e0ff3a004b
:101780000d00e00004003d000802be000a03be0098
:101790007e805700a1ff07005fa897000000e000cf
:1017a00005003a001fb29700afb297003fb3970011
:1017b000cfb39700090007006fb09700ffb0970004
:1017c0000fb997009fb997004f06be004f05be00a6
:1017d0004f04be000080fa00000006000100070070
:1017e00000000600a4b79f00b5b79f00c6b79f00d2
:1017f000d7b79f00000006004f09de00828171000c
:10180000b3b79f004f01de008180400082807000ee
:10181000a1b79f008fb097004f09de000000400085
:101820000200700090b79f007fa897004f01de0074
:10183000818040008280700081b79f000d0007000a
:101840004f3ade000000400004007000f0af9f003f
:10185000080007000402420085824a0006034b008c
:1018600087834b00dfff07000802be000a03be00ab
:10187000000006002fb29700bfb297004fb3970049
:10188000dfb3970000000600881f780018002000d2
:10189000881f780089ff07008f87e9004f047800d0
:1018a00000000600801feb0084ff07008f87e9001f
:1018b00000000600889fbe008a9fbe00e00f500017
:1018c000e08f5800e00f5900e08f59000c003d00f8
:1018d0006044b8006055b8000000540081805c008e
:1018e00002015d0083815d001800200015000700e3
:1018f00008003d00180007000004eb000500370059
:101900000004eb000f00070002003d00120007007a
:1019100018002000dcff07000800e000060032008d
:101920006022b8006033b8000000520081805a0085
:1019300002015b0083815b004f05be004f04be00c7
:1019400000000600e00f5200e08f5a00e00f5b003d
:10195000e08f5b00000006006044b8006055b800ee
:101960000402540085825c0006035d0087835d00ed
:1019700000000600889fbe008a9fbe008c1f780072
:10198000e00f5000e08f5800e00f5900e08f590041
:101990000d003d006044b8006055b80000005400e0
:1019a00081805c0002015d0083815d001c002000dd
:1019b0000820e10009a8e1000ab0e1000bb8e1004d
:1019c0000d003d00080037000006eb00e00f52005c
:1019d000e08f5a00e00f5b00e08f5b0006003d00e7
:1019e0006044b8006055b8000402540085825c0071
:1019f00006035d0087835d00aaff07000c00e0007e
:101a0000060032006022b8006033b80000005200c7
:101a100081805a0002015b0083815b004f067800e1
:101a20004f05be004f04be0000000600889fbe00a8
:101a30008a9fbe008c1f78000006eb00e00f50006c
:101a4000e08f5800e00f5900e08f590007003d007b
:101a50006044b8006055b8000000540081805c000c
:101a600002015d0083815d001c002000e00f520038
:101a7000e08f5a00e00f5b00e08f5b0007003d0045
:101a80006044b8006055b8000402540085825c00d0
:101a900006035d0087835d000c00a200360107008d
:101aa0000c00e000060032006022b8006033b8008d
:101ab0000000520081805a0002015b0083815b00bc
:101ac0004f0678004f05be004f04be000000060020
:101ad0000003be0058fd07006220e1000200320052
:101ae0000600be0005000500e507b100f107b200e1
:101af00004f023008480700007f0a70001f0a0002c
:101b000024000500889fbe008a9fbe008c9fbe00f7
:101b10000004be0048fd07000800be006420e1008c
:101b200048003e005500320072212700132b24008c
:101b300099fc070047003c000800be00c2ec2800ea
:101b4000e32c2c0092fc0700470035000800be0083
:101b500001f0a10002002000033823008cfc0700e4
:101b6000430035000800be00b2a32a0083fb230017
:101b70005efd07000200200003f0230001f0a70033
:101b800003f0a000e3fb070085fc07000005be0092
:101b9000cffc070001f0a2000006be0002002800f2
:101ba00013f3230051fd07000801be00d9fb070015
:101bb000809fbe000c00be0032082800e3952b0079
:101bc0004afd07004f01be00d2fb07000006be0021
:101bd0000001be0045fd0700809fbe004241250078
:101be00083b8230041fd07000200200003e8230022
:101bf000c8fb07000c01be003cfd07000006be004c
:101c00004f00be00f2f92b00c3d4230037fd0700bc
:101c10000200200003f02300befb07000c01be0001
:101c2000bbfb07000001be000c00be0016fc070055
:101c30000200200003f02300b6fb0700610145000d
:101c4000540007004f06be004f05be004f04be0003
:101c50000000060001f827000000200022022000fa
:101c6000c2818800f7ff37006000b800fbff370033
:101c700001f8230000002000f2ff370009f8a3005c
:101c8000f0ff32006000b800eeff3700889fbe0012
:101c90008a9fbe000003be00e7fc070085057800b0
:101ca00082815200020020006220e10004003a001c
:101cb000f307b100040035007718e1000400350097
:101cc0000600be00140037006000b8000f003700a7
:101cd000f50f2000faff2f008502d1000a85d300fe
:101ce0008301e900fcff3b00818462000004650081
:101cf000890f7400f2ff32008582ea000a85ea004b
:101d00008184620000046500a5fc070007f0a700bd
:101d100001f0a0000081eb000200e0004f05be00d2
:101d20004f04be0000000600889fbe008a9fbe00d0
:101d3000841f7800d5fc07004f00780011003300a5
:101d4000f0ff2f00838f6c0006003b000405650048
:101d50000a00a7000800370009f0a60010002000c4
:101d600008003700820f5400838f5c0003003900a5
:101d70001000200001003e000000200009f0a70034
:101d80000000ea004f05be004f04be000000e00066
:101d9000000006000003be00a7fc07006220e1006f
:101da000020032000600be0000000600850241006d
:101db000e30f20000328e10005003c00a3fe2f00f4
:101dc0000328e10007003d00050020000100370066
:101dd000f50f200020022000c08188006000b800bc
:101de00008003700130020008381520005003d00e9
:101df0008100d1000080d3008301e800fcff3a009d
:101e000005002000c72add00f107b20085807000c0
:101e100007f0a70001f0a00000000600889fbe00a8
:101e20008a9fbe008c9fbe0029ff070085047800b2
:101e30000005be006420e10049003e006220e10090
:101e400003003200090035000bf8a3004400320003
:101e50000bf8a3000800320010022000c0818800a7
:101e6000f0ff2f00f1ff27003d00370001f82f00a1
:101e7000000020003a0037003d00070024fb070067
:101e80000006be000a00be00324f200053f32300bc
:101e9000c1fb0700060034000c00be003400070040
:101ea0001bfb07000006be000a00be000200370050
:101eb0008904e9000c00be002d0007008bfc070020
:101ec0002b00070013fb07000001be000c00be0042
:101ed0006dfb07000005be000001be0083fc07008b
:101ee0000006be00a2f32300430d2c0009fb0700ef
:101ef000809fbe000c00be00d2e32700d3f02b0071
:101f00007afc07004f01be005ffb07000006be0021
:101f10000a01be0075fc07000a01be00fdfa0700b9
:101f20000006be006148b900e9fb07000005be00dd
:101f300032082800e3952b006cfc07000c01be0062
:101f4000f4fa07000006be000a00be0002002800e6
:101f500013f3230065fc07000c01be00edfa070037
:101f60004f06be004f05be004f04be000000060035
:101f700003f0230002000500889fbe008a9fbe0078
:101f80008c9fbe000404b8000506b8008904460012
:101f900060854e000606b8000a054600e0854e0042
:101fa0000706b8008b054600040eb80089044600f9
:101fb0000a854e00e0854d00050eb8000a05460072
:101fc0008b854e00060eb8008b0546000416b8003f
:101fd0000a0546008b854e000516b8008b054600a5
:101fe000041eb8008b0546000800be000a01be00b2
:101ff0004f06be004f05be004f04be0000000600a5
:10200000889fbe008088b9008004780009007800ad
:102010003d000700000478000800e00004003200e2
:10202000090178008000eb000800780060000700dc
:10203000080078004f04be0000000600889fbe0024
:1020400000047800312d81000100e0000200320020
:10205000010078000d003700412d8100805a2200d8
:1020600004003700910f5400250036000180e8007d
:10207000910090000100e000faff3a0010003700e4
:10208000920f54001e0036000280e8001001780014
:102090000200e000faff3a0011017800412d8100b2
:1020a000805a220004003700910f540014003600bb
:1020b0000180e80091009000828f5000faff3a0002
:1020c000592d8100888f5400010031008804780068
:1020d000090078003d0007000000e00004003a001d
:1020e000888f5400050032008904d100f5ff3700c5
:1020f00009187800b6060700d2ff37000000eb0091
:102100004f04be0000000600881f780063044000f2
:102110000800a1008000eb00800f54002100360071
:10212000e30f540001003e00480020000800780042
:10213000c2ff07008000eb000000e0001900320041
:10214000900078009101780064815100880f51005f
:1021500003003100110190000208780007003700e9
:102160000881400002087800910190001301980056
:102170001001780011091400880878001001780017
:102180000000eb000200e000040032009201900029
:102190000300e000010032000280e800302d8900d9
:1021a0008180e800010078004f04780000000600fc
:1021b0008001780002003700815978000201e900af
:1021c0000200e000fcff3a000000060080007800fa
:1021d0000000eb000100e000050034000100780081
:1021e00029fa0700e10f400001003a000000eb006f
:1021f00000000600889fbe00800478000203be0035
:10220000010478006149b800898fd2008381d2002f
:10221000080278000600be00cc0a070008804400cf
:102220004f04be0000000600881f780002047800fa
:1022300008017800b7060700080040004f04780046
:10224000000006000000fa00881f780000047800f3
:102250006a825700bfb9970008017800a10f2100da
:1022600040112100160007000000e00002003500c8
:1022700000044400004ceb004f0478000080fa009a
:1022800000000600889fbe00000478000203be0024
:10229000810478000802780089017800120020008b
:1022a0000600be00f7080700890f50000100320049
:1022b0000004eb00080078004f04be000000060098
:1022c0006800fa00889fbe008a9fbe0080047800e4
:1022d0000104780082057800030578008400780006
:1022e00000f92f000f004000e4080700d98f9f007d
:1022f000fb8f9f000000eb00a09f9f00e88f9f00d6
:102300009a84fb000904fb008904ea00cf4cde003c
:1023100050022000800f54000d003200e18f540065
:102320000b003a00090178008a0078007f88970046
:10233000df89970003000100f08f9f000000e0009c
:10234000950032002f9897000000e800a09f9f00a2
:102350000905450050022000800f5400040032009f
:102360000800e000e6ff3a002f9897008b00370046
:102370000000eb00809f9f00f0979f00e0979f0078
:10238000d0979f00c0979f00b0979f00070037002d
:10239000c1562200010050000000400001562200fa
:1023a000808040004f98970011007000c09f9f00f0
:1023b0000a04780008057800ba4478008900fb0018
:1023c000c05622005a0607000000e000f0ff3a0065
:1023d000a1c2b30081cf54000e003a008f8897004d
:1023e0000180e900808f9f0010007800b09f9f005f
:1023f0000000e00005003d000000ea00b09f9f00e3
:102400004f9897000020a000c09f9f000804e8009c
:1024100010003700b09f9f00880078000000eb009c
:1024200005003700f3ff2700830f50000200320041
:10243000ea00b9000000410001047800880078003b
:102440003101fb000203b100e90f5100f5ff360036
:10245000b09f9f00e0c2b300984f1000020032000e
:102460000080eb0019003700a0c2b300d84f100065
:1024700007003a008f8897000180e900808f9f0055
:1024800010007800909f9f000804e80010003700bb
:102490000000eb00909f9f00880078000500370047
:1024a000f3ff2700830f500002003200ea00b9005a
:1024b0000000410001047800880078003101fb0031
:1024c0000203b100e90f5100f5ff3600909f9f0015
:1024d000984478008900fb0080552200140607000c
:1024e0000000e000020032000804e80001003700ac
:1024f0008044eb00a97f9f0080c6b30080cf5400ca
:1025000006003a0098cf140010003a0066405000d0
:10251000a07f9f000804e8000c003700c0c6b3008d
:1025200080cf540009003a0098cf140007003a0009
:1025300067404000d84f100002003a006e40500043
:102540000100370010c7b300a07f9f001801fb00f7
:10255000c3fb2f008f81410001f92f008f804000c5
:1025600020f92f000f004000150007000000e000d8
:1025700009003a00c1fb2f008f80400020f92f0096
:102580000f004000630707000000e0000200350074
:102590000805e8005aff37000080eb004f05be0039
:1025a0004f04be000080fa0000000600030278001d
:1025b00082017800010178002114210040ff3700da
:1025c000889fbe008a1f780000047800824478004b
:1025d0000305780070c6b30080cf540021003c0092
:1025e00000c0e90080cf5400e6003d00724050007a
:1025f00080cf5400530132000d003c006c4050006d
:1026000080cf540085013c0000c0e90080cf540019
:10261000dc003d0050c2b30080cf54007c0132008a
:102620007c40400080cf54007c013a00d500370048
:1026300010c6b30080cf5400d200320004003c002a
:102640006940500080cf540074013a007300370095
:1026500030c6b30080cf5400180032000040e800bc
:102660000900370000c7b30080cf540027013200b3
:1026700008003c0000c0e90080cf5400f0003200a8
:1026800066003c006540500080cf540063013a0072
:102690001000370050c7b30080cf54005f003200f5
:1026a0006340400080cf54005c0032006540500021
:1026b00080cf540059013a00220137001181e9000e
:1026c000820878002808900000054500124d780027
:1026d0005801370008689000c2c6b300824f50000e
:1026e00008003a0011017800640051008008780069
:1026f00090009000100078004f89de008201780081
:102700001600370012c7b300824f500003003a0092
:10271000110278006800520005003700a2c6b3001d
:10272000824f500008003a00910278006880520001
:10273000800878009000900020019000b001900087
:1027400010007800050037001180e900800878004b
:1027500010007800cf80de006109b900009cbe0047
:102760000294be00086a900085c6b300854f5200ef
:102770000d00320025c6b300854f520004003a0018
:102780000000fb00cf80de006109b90008003700bf
:1027900045c7b300854f520003003200e6c2420035
:1027a000854f520004003a00cf80de006109b90075
:1027b000009cbe000294be001802780098029000af
:1027c00028039000b803900028089000e00f520002
:1027d000e08f5a00e00f5b00e08f5b0003003d00dc
:1027e00080004500d2c2b3000a003700b810900044
:1027f0000118a3000300320080004500b2c2b300fc
:10280000040037000108a300590032008000450091
:1028100002c2b30082487800530037000868900075
:10282000c2c6b300824f500009003a00110378007d
:102830006400530080087800100278009002900035
:102840006033b8000400be000601be001600370069
:1028500012c7b300824f500003003a009102780083
:102860006880520005003700a2c6b300824f5000b6
:1028700008003a00110378006800530080087800cf
:102880009000900020019000b001900010007800ae
:10289000050037001180e9008008780010007800fa
:1028a0008000eb006011b800009cbe000294be00e6
:1028b000086a900085c6b300854f52000d003200b3
:1028c00025c6b300854f520004003a000080fb008b
:1028d0008000eb006011b8000800370045c7b30066
:1028e000854f520003003200e6c24200854f52007d
:1028f00004003a008000eb006011b800009cbe00ac
:102900000294be00381090000038a3001800320076
:10291000180078009800900028019000b8019000fd
:10292000e00f5000e08f5800e00f5900e08f590091
:102930000f00320080c7b30080cf54000300320084
:1029400080c5b30080cf540009003a0028089000e9
:102950008000450002c3b300824878000000e80010
:1029600080004500894878000000e800200c9800ad
:1029700028089000000545007a04980089407800f6
:102980006d00370008699000c0c4b300804f51004b
:1029900008003a00910378006880530080087800ae
:1029a0009000900020019000b0019000100078008d
:1029b000060037001101780064005100800878009b
:1029c0009000900010007800e0090700009cbe0015
:1029d0000294be00b8009000280890000100e000ba
:1029e00003003d0080004500d2c2b3000a0037005a
:1029f000b81090000118a3000300320080004500c9
:102a0000b2c2b300040037000108a3000500320081
:102a10008000450002c2b300824878000000e80050
:102a2000200c980028089000000545007a049800c2
:102a30008900fb0008007800840007007f00370051
:102a400008699000c3c6b3001180e900834f5100ac
:102a5000220032000a003c00e4c15100834f5100c3
:102a60002500320083c1e800834f5100130032007b
:102a7000e8c15100834f51001e003a000a003700a0
:102a800043c7b300834f51001b003200e6c1410031
:102a9000834f510018003200e9c15100834f5100ab
:102aa00014003a0005003700800878001000780014
:102ab000286490000848780060003700800878009b
:102ac0001000780018129000cfa2de00612bb90030
:102ad0000498be000690be005800370080087800b9
:102ae0001000780018119000cf91de000288be001f
:102af000520037001180e90080087800100078004b
:102b000018149000080878004c0037001180e90084
:102b10008008780010007800cf80de006109b900dd
:102b2000009cbe000294be002808900000054500ed
:102b30007a04980081c7b30008007800b804070041
:102b40003e0037000869900050c6b300804f510026
:102b50001b003a00110278006400520080087800df
:102b60009000900010007800000c9800110c980064
:102b7000881190000300e00007003d008081eb0019
:102b80000001eb009a0807000001be0088089000d1
:102b900081005100080037000001eb009408070095
:102ba000008170000300320008099000820050008c
:102bb0000100370088109000410c98001f0037007a
:102bc0001180e90080087800100578007a049800e8
:102bd000881490000900e00004003d000a0078001d
:102be0005f040700800478000700370009017800bf
:102bf0008000eb000a0078003c0407000000e000c1
:102c0000010032008a045000490c98000b00370084
:102c100028089000000545000500370028089000ae
:102c2000000545000904e00001003a0059c2b30064
:102c3000094d78000000e800200c98000000eb002f
:102c40004f0578004f04be00000006002f04b000be
:102c5000889fbe008a9fbe008c9fbe008e1f78009a
:102c60000007780081f79f001e0478009e04900002
:102c70002e059000be0590000e1090000000e000b0
:102c800002003d0060002000001798008e007800d0
:102c900020fb2f000f00400037040700e20f500018
:102ca0000a003a0030002000400f9800b1c9b3007c
:102cb0000ff0970081404000c0462200e1cf500055
:102cc0000d003e00804622000b0037000000e000af
:102cd0000f00340030002000400f9800b1c9b3004d
:102ce0000ff197008140410040472200e1cf5000a2
:102cf00001003e0000472200fe009000b04878002e
:102d0000b06878001040780090409800f7003700d5
:102d10000000e00005003a0022fb2f000f014100f7
:102d2000001978008001eb00eb0037006022b8004a
:102d30006033b8000800be000a01be004b0807005f
:102d40000000e00001003d000bf0a20070592700d8
:102d50009f9897000088b900026a2800130020009d
:102d6000a6080700640650009c9f9f0015003b00ca
:102d700063061600c0ff2f00000666008c01ea0003
:102d8000939f9f008d4722000800be000a01be00ed
:102d9000090037000c08a300050032001d0278006e
:102da0009d0290002d039000bd039000360907009e
:102db0000c86d100e88646000c00e000f5ff3c00e0
:102dc0001a0037000c00e0001a003200c0ff2f008c
:102dd000000666009c9f9f008d4722006000b8009f
:102de0000200200003ff2300090037000c08a300a5
:102df000050032001d0278009d0290002d03900016
:102e0000bd039000200907000c86d100e88646002b
:102e10000c00e000f5ff3c000002be000203be0013
:102e20000800be000a01be001a0807000004be0028
:102e30000205be008e10900060c6b3000ff297002e
:102e4000804f5200040032006000200062c4b300d2
:102e5000824f520002003a009f9a97006a80420017
:102e600081004000f1b79f0001037800f30f530089
:102e70000200340037012000f7b79f0000c3b30001
:102e8000c0779f0056fb2f000f0343000e00780011
:102e9000a0b79f00060778003d0037000800be007d
:102ea0000a01be00c80807000006be007fb19700f7
:102eb00068015100f2b79f004240a9000c003400a5
:102ec000ed0807000002be000203be000800be00bd
:102ed0000a01be00620907006022b80046782d0092
:102ee00077192400e80807000004be000205be00b0
:102ef000e80047008e0020000802be000a03be0062
:102f0000b4b79f00c5b79f00d6b79f00e7b79f0033
:102f10000c01be00010478000c003700a400200062
:102f200005002000c0fd2f000f0040005a030700dd
:102f30006fa89700ffa897000fb197009fb1970067
:102f400005c3b300056441000001be00e00f51005d
:102f5000e08f5900030034000e07e900e10f47003d
:102f6000eeff3a00880078003fb49700cfb4970096
:102f70005fb59700efb597000200370000c3b300bc
:102f8000806078000e07e900fcff3b006887400086
:102f90007fb397000600e000070034006022b8000d
:102fa0006033b8000800be000a01be00b407070085
:102fb0000000e000b9ff3c000e0378002fb7970037
:102fc00051fb2f008f804000010353009f9b97000f
:102fd00067804300909f9f00020037000603e900ce
:102fe0000000e900010178008200780003c3b3000b
:102ff000b1cf1100f9ff3200909f9f008e11900019
:1030000061c6b3000ff29700814f520003003200f7
:1030100061c4b300814f520002003a000000e80092
:103020000a0037001000200051c6b3008ff297004d
:1030300081cf5200050032000540780050c4b20034
:103040000080fb000000e9004f00de00830140002b
:10305000868f510001003400860178000300e000f3
:103060001d00350000c3b300868f510006003d00ef
:10307000030241006940400041c3b30094cf1000f7
:1030800001003c00694050008300e90081004100dc
:1030900001003700840178000302e9000103780091
:1030a000a142780080cf5200faff320091c3b300f2
:1030b000814f500001003a00054be8000400e00099
:1030c00005003d000201e9008301e8001f9b970015
:1030d0000603e800969f9f008ff397008700fb0090
:1030e0001f9a97000e007800060007004f0778002f
:1030f0004f06be004f05be004f04be002f04b100b6
:1031000000000600f0874700889fbe008a9fbe002f
:103110008c9fbe008e1f78000004780081447800e8
:103120000205be00040678000b00e00002003c002f
:103130001b002000ca5a220060c6b30080cf540092
:103140000e00320060c4b30080cf54000b00320088
:1031500070c6b30080cf54000300320070c4b300c7
:1031600080cf540085003a00e40f4600830035000c
:1031700008109000800f560080003d000c06e8000b
:1031800060c6b30080cf54001000320060c4b300aa
:1031900080cf54000d003200381090000038a3009a
:1031a00004003a0008109000808f550001003d0097
:1031b0000b149800081090000c00500000149800a8
:1031c00002003b000000eb0000149800c8089000cb
:1031d000780090000c00e00028003c000100400056
:1031e00002c3b300024878008100e800410c980057
:1031f000081090000000e00003003c003810900030
:103200000038a30006003200780090000100400062
:10321000e2c2b300024878008100e800410c980047
:10322000081090008c00ea00810f500001003d0062
:103230000006ea008c00ea00510c980000064600e7
:103240000c1498008b0f5600010034000b06780018
:103250006c0c9800f8009000480890000080400036
:103260000c0178008a007800aa020700081090007c
:103270000c0650007c0c9800940037008c8f550091
:1032800019003d00010040000b0178008a00780021
:10329000a00207004808900000804500400c9800fc
:1032a0008b0556005b0c9800881090000100e00030
:1032b00003003c00b81090000138a3000700320062
:1032c000f800900000804000e1c2b300014878009f
:1032d000680890000000e800600c9800081090005a
:1032e000700c980079003700010040000c01780054
:1032f0008a00780087020700480890000000460016
:10330000400c98008c855500881090000100e0006a
:1033100003003c00b81090000138a3000600320002
:10332000f800900080804000e2c2b300824878003c
:103330000000e800400c980008109000808f5500b5
:103340000100340080057800f800900048089000e3
:10335000008040008c0045000b0178006d020700e2
:10336000480890000b004000400c980008109000a6
:103370008b0550005b0c9800540037004808900003
:10338000f8009000808040009a4878000000e80033
:10339000400c9800881090000100e00003003c0001
:1033a000b81090000138a30006003200f800900029
:1033b00080804000e2c2b300824878000000e8004c
:1033c000400c9800081090000000e000100034004d
:1033d0008b05e900808f55000100340080057800de
:1033e000f800900048089000008040008a00e80043
:1033f0000b01780047020700480890000b004000ce
:10340000400c9800081090008b0550005b0c980051
:10341000f8009000480890000080400009587800ab
:103420000007e8000c00e00004003500b1c2b30062
:10343000014878008e04780004003700d1c2b30040
:10344000014878008e0478000c06ea007d8557005c
:103450008006eb0009003700a20020008c007800f5
:1034600072805700cf0107007fb097008fb8970098
:10347000016d7800000678008d06e8000c00e00081
:10348000f5ff3c000d00e00009003a008e047800d2
:1034900000c3b300805c7800050037008d06e900aa
:1034a000fc8057000d80400001c3b30090dc400059
:1034b0000d00e000f9ff3c00f80090004808900083
:1034c0000080400080845400690c980038109000ff
:1034d00074006000f00f50000e003a00c808900021
:1034e0002808900000804000d808900001004000ab
:1034f000e808900001004000f8089000010040003a
:10350000a8109000810f500002003d000080500084
:10351000300c98004f0778004f06be004f05be00e4
:103520004f04be000f01b10000000600889fbe00de
:10353000000478000203be008104780008027800cd
:1035400089017800120020000600be004d0407002b
:10355000890f5000010032000004eb0008007800e1
:103560004f04be00000006006800fa00889fbe00fd
:103570008a9fbe00800478000104780082057800ec
:10358000030578008400780000f92f000f00400048
:103590003a040700d98f9f00fb8f9f000000eb00cb
:1035a000a09f9f00e88f9f009a84fb000904fb0006
:1035b0008904ea00cf4cde0050022000800f540046
:1035c0000d003200e18f54000b003a000901780031
:1035d0008a0078007f889700df8997000300010048
:1035e000f08f9f000000e000950032002f989700b8
:1035f0000000e800a09f9f00090545005002200040
:10360000800f5400040032000800e000e6ff3a009a
:103610002f9897008b0037000000eb00809f9f00e1
:10362000f0979f00e0979f00d0979f00c0979f0062
:10363000b0979f000700370061582200010050003a
:1036400000004000a1572200808040004f98970062
:1036500011007000c09f9f000a04780008057800e0
:10366000ba4478008900fb0060582200b0010700ce
:103670000000e000f0ff3a00a1c2b30081cf540087
:103680000e003a008f8897000180e900808f9f002c
:1036900010007800b09f9f000000e00005003d0092
:1036a0000000ea00b09f9f004f9897000020a00004
:1036b000c09f9f000804e80010003700b09f9f00e3
:1036c000880078000000eb0005003700f3ff2700ba
:1036d000830f500002003200ea00b90000004100f0
:1036e00001047800880078003101fb000203b1007a
:1036f000e90f5100f5ff3600b09f9f00e0c2b30014
:10370000984f1000020032000080eb0019003700d3
:10371000a0c2b300d84f100007003a008f8897006e
:103720000180e900808f9f0010007800909f9f002b
:103730000804e800100037000000eb00909f9f0095
:103740008800780005003700f3ff2700830f500042
:1037500002003200ea00b9000000410001047800d4
:10376000880078003101fb000203b100e90f51002d
:10377000f5ff3600909f9f00984478008900fb0079
:10378000205722006a0107000000e000020032001a
:103790000804e800010037008044eb00a97f9f0087
:1037a00080c6b30080cf540006003a0098cf1400c2
:1037b00010003a0066405000a07f9f000804e80017
:1037c0000c003700c0c6b30080cf540009003a0097
:1037d00098cf140007003a0067404000d84f10000f
:1037e00002003a006e4050000100370010c7b300dd
:1037f000a07f9f001801fb00c3fb2f008f814100b9
:1038000001f92f008f80400020f92f000f004000a9
:103810006bfb07000000e00009003a00c1fb2f002d
:103820008f80400020f92f000f004000b9020700f0
:103830000000e000020035000805e8005aff3700ec
:103840000080eb004f05be004f04be000080fa0070
:103850000000060003027800820178000101780070
:1038600061a9210040ff3700889fbe000004780056
:103870000203be0081047800080278008901780004
:10388000120020000600be007e030700890f5000d2
:10389000010032000004eb00080078004f04be0075
:1038a000000006006800fa00889fbe008a9fbe00e4
:1038b0008004780001047800820578000305780010
:1038c0008400780000f92f000f0040006b03070010
:1038d000d98f9f00fb8f9f000000eb00a09f9f00ef
:1038e000e88f9f009a84fb000904fb008904ea002a
:1038f000cf4cde0050022000800f54000d0032003b
:10390000e18f54000b003a00090178008a0078002a
:103910007f889700df89970003000100f08f9f00e8
:103920000000e000950032002f9897000000e800aa
:10393000a09f9f000905450050022000800f540001
:10394000040032000800e000e6ff3a002f989700dc
:103950008b0037000000eb00809f9f00f0979f00d6
:10396000e0979f00d0979f00c0979f00b0979f005f
:1039700007003700015a22000100500000004000fb
:1039800041592200808040004f989700110070003c
:10399000c09f9f000a04780008057800ba447800a8
:1039a0008900fb00005a2200e10007000000e0004f
:1039b000f0ff3a00a1c2b30081cf54000e003a00dc
:1039c0008f8897000180e900808f9f0010007800a9
:1039d000b09f9f000000e00005003d000000ea00ed
:1039e000b09f9f004f9897000020a000c09f9f00ad
:1039f0000804e80010003700b09f9f00880078009e
:103a00000000eb0005003700f3ff2700830f500094
:103a100002003200ea00b900000041000104780011
:103a2000880078003101fb000203b100e90f51006a
:103a3000f5ff3600b09f9f00e0c2b300984f100022
:103a4000020032000080eb0019003700a0c2b30072
:103a5000d84f100007003a008f8897000180e900d6
:103a6000808f9f0010007800909f9f000804e8005e
:103a7000100037000000eb00909f9f008800780046
:103a800005003700f3ff2700830f500002003200cb
:103a9000ea00b900000041000104780088007800c5
:103aa0003101fb000203b100e90f5100f5ff3600c0
:103ab000909f9f00984478008900fb00c058220026
:103ac0009b0007000000e000020032000804e8004c
:103ad000010037008044eb00a97f9f0080c6b3003f
:103ae00080cf540006003a0098cf140010003a002e
:103af00066405000a07f9f000804e8000c003700db
:103b0000c0c6b30080cf540009003a0098cf14001b
:103b100007003a0067404000d84f100002003a000a
:103b20006e4050000100370010c7b300a07f9f0017
:103b30001801fb00c3fb2f008f81410001f92f000a
:103b40008f80400020f92f000f0040009cfa0700f2
:103b50000000e00009003a00c1fb2f008f80400008
:103b600020f92f000f004000ea0107000000e000ec
:103b7000020035000805e8005aff37000080eb001e
:103b80004f05be004f04be000080fa000000060092
:103b900003027800820178000101780041c321000e
:103ba00040ff37008002780001037800110009000f
:103bb0000203d80080017800830a78008299b90056
:103bc0008200530091029800050078000000060072
:103bd0000000e0002f003200c0017800e38f5100a8
:103be0002c0036000308a3002a003a00412d810072
:103bf0000100e00002003200810f5000040031009b
:103c000011009800402d89001600370082007800ce
:103c1000110190000200e00002003200800f51000c
:103c2000faff39001102780084824000850f5000ad
:103c300018003900808f520003003a0083084200c8
:103c400001007800070037000200e00003003200a6
:103c500083014000830f51000e00390012009800cc
:103c600090009800900090000100e00009003200f0
:103c700010014000828f500006003a00625a220074
:103c80000009eb001001780011084100910090003c
:103c90001100980000000600881f78008a9fbe006f
:103ca0008c9fbe00000478000205be000406be0022
:103cb0000401be000a00be00d0040700008cbe0054
:103cc0000c01be00fb0507000005550081855d0065
:103cd0002a0498003b049800080078004f06be00b4
:103ce0004f05be004f0478000000060003003700b7
:103cf000b0cf1000050032000201e9008001780019
:103d00000200e000faff3a0000000500030078001e
:103d1000000006008001780002003700b1597800e9
:103d20000201e9000200e000fcff3a00000006008a
:103d3000020037000304e0000600320000017800b2
:103d400002007800b041780081cf5100f9ff3a00bd
:103d5000010037000001eb000200780000000600bf
:103d600080007800010178003104e000fdff3a0096
:103d70000000510000000600889fbe00000478008b
:103d8000e68440001900d0004500de00f27f2000ec
:103d9000820f500010003a00000ceb0099047800ec
:103da0006f816400200020001b003a002101900078
:103db0000200e00018003a00110190000200e0004b
:103dc00015003a00100020001100e000120032003f
:103dd00020002000100037000000e00004003a003e
:103de00001007800cf0207000000e00008003c005e
:103df000f20028001901610001fe2300810c71000e
:103e000021c02f00010c40000080eb0002003700b1
:103e1000000ceb000000eb004f04be0000000600a9
:103e2000fc874700889fbe008a9fbe008c9fbe0013
:103e30008e1f78000006780080c5b30080cf500048
:103e40000a0032007740400080cf50000a00320064
:103e50006940400080cf50000b00320070542200b7
:103e600080bf9f00ae0020000a003700625322008e
:103e700082bf9f00060037007354220083bf9f005b
:103e80008e002000030037007454220084bf9f007e
:103e90000e0120001c0278009c0290002c03900070
:103ea000bc0390000605be000404be0040c6b3007b
:103eb00080cf5000030032006540400080cf5000aa
:103ec0000b003a00e00f5200e08f5a00e00f5b0059
:103ed000e08f5b0006003d006000b8006011b80094
:103ee0000404500085845800060559008785590050
:103ef000e80f57000400320040002000f00f570088
:103f00003c003a000100370030002000e00f540070
:103f1000e08f5c00e00f5d00e08f5d0004003a0080
:103f20008c1090008d0120000100e000070032009d
:103f30008e00e900888060008fba9700818042007f
:103f400091407800f1ef9f007d0120008000780013
:103f50008100e900050033008b05d1000a85d300fc
:103f60008984d3000884d300f9ff3700089ebe007f
:103f70000a96be00130037008d06e9008e00e900a6
:103f8000848060000fb997008100410011417800e2
:103f900083fd2f008d81410082f779008001780038
:103fa0008301e900050033008783d1000683d30035
:103fb0008582d3000482d300f9ff3700049ebe003f
:103fc0000696be001c0278009c0290002c03900014
:103fd000bc039000e00f5200e08f5a00e00f5b003e
:103fe000e08f5b00930034000d00e000e2ff3c0036
:103ff000900037000c68900081c6b300814f5000dc
:104000000b00320006003c000004e0000800320013
:10401000e6c05000814f500052003a0004003700c3
:10402000c1c6b300814f50004e003a002300370054
:104030000800e00004003a000c1090008d01200000
:104040000000e00007003200110009000e84d800d3
:104050000fba97000100420010407800f0ef9f0077
:104060007d012000110009000e84d8000b003700ec
:10407000110009000e04d8008d06e9008e81b900f8
:10408000020454008fb897000884400098417800db
:1040900082fd2f000d014100837779000004780034
:1040a0000800e000020032000d00e000f0ff3c00dc
:1040b000cfc4de00614db90027003700e00f540087
:1040c000e08f5c0004003a000c1090008d0120008d
:1040d0000000e000080032006171b9000800be0075
:1040e000f10407000fba9700800042009140780069
:1040f000f1ef9f007d0120006171b9000800be0052
:10410000d90407000c0037006171b9000800be0037
:10411000ba0307008d06e90080f1b90002045400db
:104120008fba9700088442009841780082fd2f00e2
:104130000d014100837779000004be00e00f5000bc
:10414000e08f5800020032000d00e000eeff3c005e
:104150004fcdde008a057800089ebe000a96be009c
:1041600034003700e00f5400e08f5c00e00f5d008a
:10417000e08f5d0004003a000c1090008d012000db
:104180000000e0000a0032006172b900612bb90042
:104190000800be000a01be00c2f507000fba970072
:1041a0008000420091407800f1ef9f007d012000e7
:1041b0006172b900612bb9000800be000a01be009f
:1041c000b1f507000e0037006172b900612bb9002c
:1041d0000800be000a01be00b6f507008d06e90022
:1041e00080f2b900040454008fba9700088442009a
:1041f0009842780084fd2f000d02420085777a00f6
:10420000009ebe000296be001c0478009c04900034
:104210002c059000bc059000e00f5400e08f5c007e
:10422000e00f5d00e08f5d00020034000d00e00053
:10423000e5ff3c00e80f570010003a003c109000ea
:104240000038a3000d003200f78f560006003e0034
:1042500080fd2f000d004000ef40780000c3b30048
:1042600080cf50000500320002c3b30071fd2f0063
:104270008d8040008d06e90082f778007881160075
:10428000420e98007c00900083fd2f008f8141003a
:104290008d8041009ffe07004c0890008c1090001c
:1042a000810f500006003d0000805000300e980045
:1042b0003c1090000040a100301698000f0037001d
:1042c0000100e0000d003d00bc109000f480600093
:1042d000f08f500009003a002c119000ac089000bb
:1042e000810051003c099000828050000080500005
:1042f0004240a90001003400300e98004f077800ba
:104300004f06be004f05be004f04be00cf01b100f6
:10431000000006000400fa00889fbe008a9fbe00cd
:104320008c1f78000004780001067800a814900023
:10433000280890008084540038089000808454003d
:1043400048089000808454005808900080845400ed
:10435000680890008084540078089000808454009d
:104360000002220090bf9f0000032300a0bf9f0017
:10437000381090000028a30015003a000900e00062
:1043800013003400090578008a057800e20f550013
:10439000010036002b002000c80190000b017800be
:1043a000ee80570068009000030001006004980050
:1043b0000000e000aa003200181090000b0040003e
:1043c000101498000b0555004240a900eeff3c0078
:1043d000280990000200e0000c003400c8019000a1
:1043e0008c007800680090000300010060049800d1
:1043f0008080eb000000e0009a00320098109000ee
:10440000280890000080400010149800380d90009b
:104410000a00e000110034008a057800e20f550020
:10442000010036002b002000c80190000b0178002d
:10443000ec805700680090000300010060049800c1
:104440000000e00086003200181090000b004000d1
:10445000101498000b055500edff37000869900017
:10446000c808900050c6b300804f510008003a00c1
:104470000100e00015003400580290000809900087
:1044800098099000680090000400010007003700c0
:104490000100e0000d003400c80190000101780027
:1044a000f80090006800900003000100600498008c
:1044b0008080eb000000e0006a003200981090005d
:1044c000480890000080400010149800580d90009b
:1044d0000a00e000110034008a057800e20f550060
:1044e000010036002b002000c80190000b0178006d
:1044f000ec80570068009000030001006004980001
:104500000000e00056003200181090000b00400040
:10451000101498000b055500edff37000869900056
:104520006808900051c6b300814f51000d003a0059
:104530000000e0001c00340078019000c8089000e2
:10454000010141006111b800828fd2008381d20045
:10455000580290008000780068009000040001007c
:10456000090037000000e0000f00340078019000df
:10457000c808900081004100c80190000001780047
:104580006800900003000100600498008080eb0048
:104590000000e0003300320098109000680890009e
:1045a0000080400010149800780d90000a00e00090
:1045b000110034008a057800e20f55000100360032
:1045c0002b002000c80190000b017800ec80570000
:1045d0006800900003000100600498000000e00003
:1045e0001f003200181090000b00400010149800bb
:1045f0000b055500edff3700381090008000eb00f0
:104600000028a300170032000900e0001500340064
:1046100009057800e28f5400010036002a002000ce
:10462000c80190000a017800ee80570068009000f1
:1046300003000100600498000000e0000800320060
:10464000181090000a004000101498008a8454004a
:104650004240a900eeff3c008000eb000100370063
:104660008080eb00010078004f0678004f05be0007
:104670004f04be000080fa00000006000108780028
:1046800000000600e6874700889fbe008a9fbe00a4
:104690008c9fbe008e1f780082bf9f0004047800ac
:1046a0008299b900f2b79f000200e0005900320081
:1046b0000fb997000200e000570032000006be006c
:1046c0007fb79700c800900068009000808f50006e
:1046d0000400390008007800de0007000000e00058
:1046e0003b00350000402000180060000a00320046
:1046f0008e017800a20020000c00be00bc01070063
:104700000005be0000807500070032008c045500d3
:104710008904e800050037008e0478000a002000b4
:104720000b002000010037008e0478004801900043
:104730006800900002005000890f50000300310013
:10474000800478000a0020000b0020006111b800ee
:10475000828fd2008381d200090278000c00be0053
:104760007a0107000907570048009000090040003f
:10477000400498000a8575000400320008007800a3
:104780002c0007000000e00011003a000e00e000dd
:104790000f0032006148b800808fd2008180d200c3
:1047a0000000780000f0a1000c01d0008001d000d2
:1047b000030641004220a80081864e004200a90065
:1047c0004220ae004200a8000c86d300bdff370097
:1047d000008020001800600002003200080078000d
:1047e0001400070000c02000180060000200320022
:1047f00048009000600498007fb197000e075100b8
:104800000fb99700110009000287d80080017800d5
:10481000010037008001eb00030078004f077800ab
:104820004f06be004f05be004f04be006f00b10032
:1048300000000600889fbe00000478000800e00029
:1048400010003a008004eb00090478008800d000d2
:10485000403f220000804000100078000000e0008f
:1048600004003200f3ff07000000e00001003d00fb
:104870008084eb000804e800e80f5400f3ff3a00de
:104880002500370000002200180060008004eb00c3
:1048900021003200a80490000f00370009015100e8
:1048a000384090000000fb00890078002bf00700e2
:1048b0000000e00007003c00280090004004980041
:1048c00060049800500c98001890a0008084eb00c1
:1048d000110037008084440048019000828f54000a
:1048e000eeff3900280090004004980098007800fe
:1048f00002c020000281600001003a0038009000f0
:1049000001e8a300020032006004980001003700b3
:10491000500c98008004eb00090078004f04be00a2
:1049200000000600e60040001101780005002800a4
:10493000850261006f016100820878000200320088
:104940001200200011003700a0019000120020008a
:104950000300e0000d003a00900190000300e00029
:104960000a003a001000e00008003a003600370064
:10497000640340009608780080017800530b7800ab
:104980009009780004087800700151001102780045
:104990000400e000f6ff320013003700640240001c
:1049a000140378004f33de008381410083087300d5
:1049b00080017800d3037800cf3bde001403780039
:1049c00006034300068a73001302780004024200c3
:1049d000100378004f33de008609720090017800e2
:1049e000038841000201e90091017800ef8f510036
:1049f000eaff36001000370080017800530378008a
:104a00004f33dd001002d10004087300640240003f
:104a100094037800cf3bdd001303d1008689730037
:104a2000110378004f33dd009401d100030a7300b5
:104a30009108d1000201e80091017800ff8f510038
:104a4000edff3e00ef88610091887200020078005f
:104a500000000600889fbe008a1f780000047800ce
:104a6000c8009000680190000000eb00828f5000a9
:104a70003c00390018007800220029000201600083
:104a8000e20f510007003200012020000000e0008a
:104a90000100350001202400008c70000080eb0034
:104aa000300037000200260002006000820f500034
:104ab00009003a0038009000808f5000060039004d
:104ac000080078005bff0700800078000080eb00a2
:104ad0000100e00023003a001805780000c0200023
:104ae0000000650018003a00a80490006002200051
:104af00008004000808f540013003a00002020007e
:104b000081f50700200498000000e00005003a004d
:104b100029049800490498008904e80039049800a1
:104b2000080037000a60a0000a0c780040049800d2
:104b3000012020008080400031049800400c980043
:104b4000500c98000c0007002800900050049800ba
:104b5000380090006004980000002600180c7000d7
:104b60000000eb004f0578004f04be000000060077
:104b7000e065220062003700881f7800e85a2200b2
:104b80001804e00003003a00f9ff070020c0b3005a
:104b9000004c78004f04780000000600889fbe009b
:104ba000000478000800780022ff070080047800e5
:104bb000000420001800600002003200280090006d
:104bc00003fc07000000eb00200498003840900030
:104bd0000004e000050035000000fb0056ef070070
:104be0000000e000010032008084eb00181090000b
:104bf0000000e000080032009aef07000000e0002b
:104c0000010032008084eb0018109000f0fb0700d8
:104c10000000eb001014980000082000180060004d
:104c2000150032000001eb006000b8000202d00065
:104c3000433f220003024200940f140005003a0093
:104c40000000400081804800008041000008eb0027
:104c50000600370061004000e08048000201e800e3
:104c6000e80f5000e08f5800f0ff3a00080078008d
:104c7000d7fb07000e003700000c780000c0eb00e7
:104c80003044980060022000080040002004980092
:104c90004004980050049800400c9800600498006c
:104ca000500c98007004980076004400000c9800a6
:104cb000090078004f04be0000000600881f78003d
:104cc0000004eb006140b800e2ff2f00f3ff2f006b
:104cd000f801070022402200800041001100780006
:104ce0000000e00001003200acff07000804e8000b
:104cf000e80f5400f3ff3a004f047800000006006c
:104d0000010020000100e0000900320001008000e5
:104d10000100e000060032008100e9000100880087
:104d20008100d0000200800082804000800878006e
:104d30000000060000c0da000000060000c0da0033
:104d40000000060000c0da00000006003400f80091
:104d50003200f8000203be00820270008502720079
:104d600002f0a6008301e800a301880000f0a6007d
:104d70008100e800910188001500b2000c003200ab
:104d8000104978000402e900150032006101410079
:104d9000020039003420ec000200280061004000cd
:104da000f7ff39003220ec0000002800f4ff370044
:104db000100978000482e900090032006201410014
:104dc000020039003420ec0002002800620040009c
:104dd000f7ff39003220ec0000002800f4ff370014
:104de0003200f9003400f9000601be0000000600a0
:104df0000300e00009003200950180009101880065
:104e000000000000104278009501880000000000ba
:104e10000402fb00820f5200130032008301e900fc
:104e20009501800091018800000000001042780088
:104e300095018800000000000404e0000800320032
:104e4000000278001000b00000026a004260af006b
:104e500000f0a0000482d2000180b000e4ff37001f
:104e60000000200001002000000006008f1fd1007c
:104e7000150207008f87e9000000e000000006002f
:104e8000809feb00100207008f87e9000000e00020
:104e9000000006002800fa00889fbe008a9fbe001e
:104ea0008c9fbe0003866b008f0007006400e1004a
:104eb000440032006408e1004a0032006100e10071
:104ec000460032006108e10049003200ec0647006c
:104ed0006000b8003d02be003d03be00f4865700ee
:104ee0006011b8003d04be003d05be007d032000fa
:104ef0000b0037000000a0008d06e900130032000f
:104f00000402420085824a0006034b0087834b005f
:104f1000000040008180480002014900838149006f
:104f20000802520089825a000a035b008b835b00ef
:104f3000f0ff3b000802420089824a000a034b004e
:104f40008b834b008d06e900edff3a0084827200ee
:104f500086827200f707b200878272000100320079
:104f6000150020001e0490003e0b90000603540024
:104f7000e63fb0000368a300070032000000a7006e
:104f80000500a0008301d1000281d3008180d300fd
:104f90000080d3000603e8008301d1000281d30022
:104fa0008180d3000080d3000002eb000482d20095
:104fb0002100070003f0a1000cf0a70003f0a000ff
:104fc0005d003700640247006408e10057003200ca
:104fd0003400be003401be00f6ff37006108e10076
:104fe000520032006011b8006000b800f1ff3700d5
:104ff00003ff270002002000fbff3700839f6800ab
:105000000100e00002003d0060001000e080180098
:105010000300e00002003d0060011100e081190082
:10502000110107004f00e00002003b00600010008b
:10503000e080180000000600180020005700200043
:10504000080453000d003d000600200097fc2f00cf
:105050000740e1001e00340084827200610260009b
:105060008301d1000281d3008180d3000080d3006e
:105070000804e800f8ff3a004700200061046000df
:1050800005047400040464000d0032006100400057
:10509000e080480060014900e081490003b8a500b4
:1050a000070032000603e8006538e10004003a001a
:1050b0008301d1000281d3008180d3000080d3001e
:1050c000f87f20000830e100030035000803780075
:1050d0006000b8006011b8004433dd00f300b20096
:1050e0008301730000000600680447000294be00bc
:1050f0000094be00fc0447008694be008494be0069
:1051000009007800ba01070008007800b80107001c
:1051100099007800814f70000b003b000800be0032
:10512000920107004f00b10003003700f3ff270092
:10513000f2ff2f006110b9004f06be004f05be0000
:105140004f04be000080fa000000060081037800d2
:10515000b9ef07000001be006000b8000478a300aa
:1051600013003a006220e10015003e000d003900f6
:105170008301d1000281d3008180d3008301d1005b
:105180000281d3008180d3008301d1000281d3004a
:105190008180d3000538b000c42add00f300b200de
:1051a0008381720007f0a70003f0a0000000060052
:1051b000f3ff2700f2ff2f006110b900fbff37005b
:1051c00003ff2700f7ff37001400fa00889fbe0096
:1051d0008a9fbe008c9fbe000004be000205be0078
:1051e000680047000a90be000890be0080010700da
:1051f0000070a7000bf0a100304320009e02900039
:1052000080825200b0fe2f000028e10011003d0016
:10521000b0fc2f000028e100150034001e099000aa
:105220008e0890007e0090000501b0000201d100c0
:105230008180d3000080d3008502e800fbff3a00a4
:105240000b00e000bcff3b0060001000e080180095
:10525000b9ff3700f0ff2f00f1ff27000b00e0003f
:10526000b5ff3b000100280000002000b2ff37001e
:105270006000b800b0ff37004f89de00820178007f
:1052800082013700000000002800fa00889fbe005d
:105290008a9fbe008c9fbe0003866b0092ff0700b2
:1052a0000028a30064003a000128a30068003a0027
:1052b0000008a30062003a000108a30066003a005b
:1052c0001e009000be08900081064000ed3fb10036
:1052d000f4805700ee019000111ab8008e0990007a
:1052e000311bb8009e099000311cb800511db80058
:1052f000f485570046000700fe0190003a000700c1
:105300008b85e8003e0007008e09900040000700f2
:10531000ee019000340007008b85e800380007009c
:105320008e099000400007009e0990001b18b800ed
:10533000890440000a854800fe01900034000700ff
:105340008b85e80038000700ee0190003000070070
:105350008e0990001b18b800890440000a85480097
:105360000a98a30008003a000402420085824a001d
:1053700006034b0087834b0008044c0089844c00d3
:105380000a054d008d06e9008482720085027300d3
:105390004c3add0085027200010032001500200049
:1053a000443ade001400b2004538de00cb45dd0093
:1053b0000b007000c540de00cb4ddd008b8070001f
:1053c0004549de00cb55dd000b017100c551de0003
:1053d0000d03780018ff070003f0a1000cf0a700f0
:1053e00003f0a00054ff37001b18b80085024000ee
:1053f00006834800e0834b0060044c000700370040
:105400001b18b8000603400087834800faff3700e6
:105410001b18b8008703400008844800e0844c0053
:1054200060054d00000006001b18b800080440008d
:1054300089844800faff37000108a3003bff3a00c7
:105440005800be00000000005801be00e2ff370017
:105450000008a30035ff3a0009047800f8ff370080
:1054600007f0a2001a0037006022b80006022000f0
:105470000000d0008180d2000482d2008582d20058
:105480000000a0000202520083825a000300310093
:105490000202420083824a000000a1000603e900e4
:1054a000f3ff3a0000000600efff07000400be0013
:1054b00000000600020ab900001bb9000200b80093
:1054c000810042008100430000000600000000004f
:1054d0002800fa00889fbe008a9fbe008c9fbe00f5
:1054e00007067800878669000c003b0003047800fb
:1054f0008704780008f0a10009f0a100840f500093
:10550000858f5800860f5900890f5c000300330017
:105510000cf0a20001003a000cf0a100f2fe07001e
:105520006400e1005f003200780147006408e10098
:10553000610032006c014700748557003200be00e4
:105540001201be003a04be001a05be001e03900000
:10555000be0a90008503530006003d000004fd00d4
:105560008104fd000205fd008305fd008703ea00bc
:10557000050378000df8a300040032006004140055
:10558000e0841c0060051d00e0851d006022b8005d
:105590007d0320000d38e1008006eb000b00390090
:1055a0004433dd00f300b20083017300390037009b
:1055b000848272000d027800e10664008b85d100c0
:1055c0000a85d3008984d3000884d3008703e900c7
:1055d000f7ff3b0008004000898048000a014900ad
:1055e0008b81490004003b0060001000e08018003f
:1055f00060011900e08119000358a300090032007e
:105600008d82720084827200610260008301d10089
:105610000281d3008180d3000080d3000603e8001c
:105620001b0037000348a30017003a000600e00003
:10563000170034000603e9000d00a3000000480035
:105640008180480002014900838149000348a3008a
:105650000f003a000600e000090034000603e900ec
:105660000000400081804800020149008381490018
:1056700001003a000003eb000348a300f5ff3200ed
:105680006022b800020037008482720061826600e6
:1056900069fe070003f0a1000cf0a70003f0a000d2
:1056a000a5fe3700640147006408e10002003a00eb
:1056b0000df8a3009dfe3a0032007800b200780099
:1056c0001201be009cfe3700889fbe008a9fbe006c
:1056d0008c9fbe000404be000605be00809fbe0075
:1056e000829fbe0030000700040678000800be005c
:1056f0000a01be002c000700840678004f03be009c
:105700004f02be008d4f76007fb09700130033002c
:10571000f0ff2f008b8f6b0006003b000d0666002c
:105720000c00a7000a00370007f0a60010002000b8
:105730000a003700880f5200898f5a008a0f5b00d9
