:020000040000fa
:04005c002405000077
:020000040000fa
:04007c002405000057
:020000040000fa
:04000c0024050000c7
:020000040000fa
:0400b400240500001f
:020000040000fa
:0400b0002405000023
:020000040000fa
:040140002405000092
:020000040000fa
:0401080024050000ca
:020000040000fa
:0401040024050000ce
:020000040000fa
:04014400240500008e
:020000040000fa
:040070002405000063
:020000040000fa
:04007400240500005f
:020000040000fa
:04013400240500009e
:020000040000fa
:0401140024050000be
:020000040000fa
:0401180024050000ba
:020000040000fa
:04003800240500009b
:020000040000fa
:0402080024050000c9
:020000040000fa
:04020c0024050000c5
:020000040000fa
:0402300024050000a1
:020000040000fa
:04023400240500009d
:020000040000fa
:040238002405000099
:020000040000fa
:040060002405000073
:020000040000fa
:04008800240500004b
:020000040000fa
:0400b800240500001b
:020000040000fa
:0400e00024050000f3
:020000040000fa
:04011c0024050000b6
:020000040000fa
:04013800240500009a
:020000040000fa
:04013c002405000096
:020000040000fa
:0402000024050000d1
:020000040000fa
:0402040024050000cd
:020000040000fa
:04001c0024050000b7
:020000040000fa
:0400100024050000c3
:020000040000fa
:04021c0024050000b5
:020000040000fa
:0402240024050000ad
:020000040000fa
:04022c0024050000a5
:020000040000fa
:04024400240500008d
:020000040000fa
:04024c002405000085
:020000040000fa
:04025400240500007d
:020000040000fa
:04025c002405000075
:020000040000fa
:04002c0024050000a7
:020000040000fa
:04003c002405000097
:020000040000fa
:0400bc002405000017
:020000040000fa
:0400c0002405000013
:020000040000fa
:0400c400240500000f
:020000040000fa
:0400c800240500000b
:020000040000fa
:040080002405000053
:020000040000fa
:04008400240500004f
:020000040000fa
:04019c002405000036
:020000040000fa
:040260002405000071
:020000040000fa
:0400280024050000ab
:020000040000fa
:04009c002405000037
:020000040000fa
:0400fc0024050000d7
:020000040000fa
:0401000024050000d2
:020000040000fa
:0401b800240500001a
:020000040000fa
:0401bc002405000016
:020000040000fa
:0401c0002405000012
:020000040000fa
:0401c400240500000e
:020000040000fa
:0401c800240500000a
:020000040000fa
:0401cc002405000006
:020000040000fa
:0401d0002405000002
:020000040000fa
:0401d40024050000fe
:020000040000fa
:0401d80024050000fa
:020000040000fa
:0401dc0024050000f6
:020000040000fa
:0401e00024050000f2
:020000040000fa
:0401e40024050000ee
:020000040000fa
:0401e80024050000ea
:020000040000fa
:0401ec0024050000e6
:020000040000fa
:0401f00024050000e2
:020000040000fa
:0401f40024050000de
:020000040000fa
:0401f80024050000da
:020000040000fa
:0401fc0024050000d6
:020000040000fa
:04023c002405000095
:020000040000fa
:0401240024050000ae
:020000040000fa
:0401280024050000aa
:020000040000fa
:04014800240500008a
:020000040000fa
:040150002405000082
:020000040000fa
:04015800240500007a
:020000040000fa
:04015c002405000076
:020000040000fa
:040160002405000072
:020000040000fa
:04016400240500006e
:020000040000fa
:04016800240500006a
:020000040000fa
:04017800240500005a
:020000040000fa
:04017c002405000056
:020000040000fa
:04026400240500006d
:020000040000fa
:04006c002405000067
:020000040000fa
:0400f00024050000e3
:020000040000fa
:0400180024050000bb
:020000040000fa
:04006400240500006f
:020000040000fa
:0402180024050000b9
:020000040000fa
:0402200024050000b1
:020000040000fa
:0402280024050000a9
:020000040000fa
:040240002405000091
:020000040000fa
:040248002405000089
:020000040000fa
:040250002405000081
:020000040000fa
:040258002405000079
:020000040000fa
:0400300024050000a3
:020000040000fa
:040040002405000093
:020000040000fa
:04008c002405000047
:020000040000fa
:040090002405000043
:020000040000fa
:0400cc002405000007
:020000040000fa
:0400d0002405000003
:020000040000fa
:0400d40024050000ff
:020000040000fa
:0400d80024050000fb
:020000040000fa
:04019800240500003a
:020000040000fa
:0400080024050000cb
:020000040000fa
:0400dc0024050000f7
:020000040000fa
:0401a0002405000032
:020000040000fa
:0401a400240500002e
:020000040000fa
:0401a800240500002a
:020000040000fa
:0401ac002405000026
:020000040000fa
:0401b0002405000022
:020000040000fa
:0401b400240500001e
:020000040000fa
:04014c002405000086
:020000040000fa
:04010c0024050000c6
:020000040000fa
:0401100024050000c2
:020000040000fa
:04015400240500007e
:020000040000fa
:0401200024050000b2
:020000040000fa
:0400240024050000af
:020000040000fa
:04004c002405000087
:020000040000fa
:040050002405000083
:020000040000fa
:0400a800240500002b
:020000040000fa
:0400ac002405000027
:020000040000fa
:040190002405000042
:020000040000fa
:04019400240500003e
:020000040000fa
:0402100024050000c1
:020000040000fa
:0402140024050000bd
:020000040000fa
:0400200024050000b3
:020000040000fa
:0400140024050000bf
:020000040000fa
:04003400240500009f
:020000040000fa
:04004400240500008f
:020000040000fa
:04004800240500008b
:020000040000fa
:04009400240500003f
:020000040000fa
:04009800240500003b
:020000040000fa
:0400e40024050000ef
:020000040000fa
:0400e80024050000eb
:020000040000fa
:0400f40024050000df
:020000040000fa
:0400f80024050000db
:020000040000fa
:04012c0024050000a6
:020000040000fa
:04005800240500007b
:020000040000fa
:0401300024050000a2
:020000040000fa
:0400a400240500002f
:020000040000fa
:04016c002405000066
:020000040000fa
:040170002405000062
:020000040000fa
:04017400240500005e
:020000040000fa
:04018400240500004e
:020000040000fa
:04018800240500004a
:020000040000fa
:04018c002405000046
:020000040000fa
:040180002405000052
:020000040000fa
:080000000002040000000000f2
:020000040000fa
:10040000cf4422000eff27000e01880000000000ec
:10041000000020000000e000020032000001200087
:100420002002880014000700aa0107000000e00075
:1004300003003a0020e12300010020000200370001
:100440000000200001002000810f70000100320038
:100450000f000700000020000000e0000200320052
:100460000000020000000000225102000000000015
:100470000040da000000fe00e00d20000000e00077
:1004800002003200002020009001880000000600d9
:10049000a1028800800478000000eb001f003700f4
:1004a000e284440054a0b4009905ba00e2844400f8
:1004b00054a0b4009906ba00e284440054a0b400e9
:1004c0000006eb00476fde00fd07b200ae018800ba
:1004d000636ce10003003a000ad801000000eb0061
:1004e0000e003700606ce10008003a00004deb00a0
:1004f0000a05e800020039003420ec000af0a000f0
:100500008b05e900f9ff3e00040037006168e10057
:10051000010032000086eb000b00070019c7ba008b
:100520000e04e0001905ba0003003a000a00e000da
:10053000dbff3a0000000600fe07b200ae028800b2
:100540008a047800f5ff37000cd0a300e20f4d00bd
:100550001c00390089027800354dba000a05e80010
:10056000020039003420ec000af0a0008b05e900fd
:100570000f003200254dba000a05e80002003900dc
:100580003420ec000af0a0008b05e90008003200de
:100590000c00e0000600320015cdba000a05e800a4
:1005a000020039003420ec000af0a0008b05e900bd
:1005b0008984e80054a0b4000b00e000e2ff3a0098
:1005c000000006009902ba00055d78008b05e9007d
:1005d000f7ff3200c82ade00055d78008b05e900d0
:1005e000f3ff32000c00e000f1ff320019ddba0029
:1005f000eeff3700de10040000000000809fbe0008
:10060000829fbe000882ab00010032001830ef006c
:100610000842ab0006003a0008a2ab0004003a0012
:10062000001080001ef0b7000782a80041003700cc
:100630000842ab0014003a0008a2ab0012003200de
:100640001810e20005003a00001080001ff0b7000b
:1006500010002000c0808800090037001fd0bf00b4
:10066000021080008080fb00033e22008180410058
:10067000824878000040e8001ff0b7001830ef0013
:100680000782a8002b0037000842ab00130032009d
:1006900008a2ab0011003a00001080001ef0b70065
:1006a000f1012100914078000180fb00023e220010
:1006b000000041001040780020f0b7008140e800c1
:1006c00081417800f2012100034978000080fb009d
:1006d000101088000782a800160037000842ab00ff
:1006e0001400320008a2ab00120032000802e2003f
:1006f00010003500001080001ef0b700f10121004d
:10070000914078000180fb00023e22000000410081
:100710001040780020f0b7008140e8008141780067
:10072000f2012100034978000080fb0010108800ce
:100730000782a8000208a9004f01be004f00be00ba
:1007400000400600809fbe00829fbe001882ab0062
:10075000010032001a30ef001842ab0006003a00e8
:1007600018a2ab0004003a00801080001ef0b70011
:100770001782a800420037001842ab0014003a006c
:1007800018a2ab00120032001a10e20005003a0075
:10079000801080001ff0b70010002000d08088007b
:1007a000090037001fd0bf00821080008080fb004e
:1007b000433f220081804100824878000040e800e9
:1007c0001ff0b7001a30ef001782a8002c00370086
:1007d0001842ab001400320018a2ab0012003a001d
:1007e000801080001ef0b700f101210091407800d8
:1007f0000180fb00423f22000000410010407800d1
:1008000020f0b7008140e80081417800f20121002a
:10081000034978000080fb00901088001a30ef0038
:100820001782a800160037001842ab0014003200ef
:1008300018a2ab00120032001802e20010003500ce
:10084000801080001ef0b700f10121009140780077
:100850000180fb00423f2200000041001040780070
:1008600020f0b7008140e80081417800f2012100ca
:10087000034978000080fb00901088001782a800d0
:100880000628a9004f01be004f00be000040060030
:100890003600f800809fbe00829fbe00849fbe008d
:1008a000869fbe00e10020000000eb00161f07003d
:1008b0000004a20000f0b700c208d50000c0ea00a2
:1008c0006100600000004000114680000110a1009e
:1008d0008100700011468800100020004a250700a2
:1008e0004f03be004f02be004f01be004f00be00ce
:1008f0003600f90000400600809fbe00829fbe00c7
:10090000849fbe002202ab0020003200f3012800c9
:1009100004fe2f003081800080109000351180008f
:1009200001014000054978008100e80001109800ad
:1009300031818000011090000300600003003b0043
:100940000000e900000072000000e800801098003c
:10095000111190000200680000f0a7000000ea00fa
:100960000000e9004f00de000200400003006000cc
:1009700003003b000000e900000072000000e800f6
:10098000901098002202ab00e2ff3a000168a90033
:100990004f02be004f01be004f00be0000400600e7
:1009a000809fbe00829fbe00849fbe003202ab00cb
:1009b00020003200f301280004fe2f004081800057
:1009c00080109000b51180000101400005497800b9
:1009d0008100e80001109800418180000110900022
:1009e0000300600003003b000000e900000072000b
:1009f0000000e800801098001111900002006800cb
:100a000000f0a7000000ea000000e9004f00de004f
:100a1000020040000300600003003b000000e9000a
:100a2000000072000000e800901098003202ab0055
:100a3000e2ff3a0003c8a9004f02be004f01be000a
:100a40004f00be00004006000040da000000fe003b
:100a5000889fbe0080047800502281000000e000e2
:100a600004003a000e0007000084eb000000e000e4
:100a700008003500582281000900e000050032001e
:100a800009004400060007000000e00001003d00ee
:100a90000084eb00080078004f04be000000060050
:100aa000800078000100e00003003a000000200010
:100ab00050228900000005000080eb0002002000a9
:100ac000828f500002003e00512289000000eb009e
:100ad000000006000000050003f0a200889fbe0091
:100ae0008a9fbe008c1f78005a0107006101330005
:100af0006450e1004f0032006420e10052003200f7
:100b000003826c0007003b000905d0000306d000fb
:100b1000820f54000c065d00020039000200320012
:100b200089017800030678008582550004003d00a5
:100b30000003fd008103fd008502ea008b85420071
:100b4000840f720002003b0060001000e08018007b
:100b50006011b8000005eb007a28e1000a003900b6
:100b600006007800c75ddd00f707b20087807500da
:100b70002d003700828171000a0178006105600054
:100b80008180d1000080d3008502e900f9ff3b009d
:100b9000060440008784480002003b006004140003
:100ba000e0841c000988a300070032008a817100dc
:100bb00082817100610164008904d1000884d3003e
:100bc0008b05e800170037000978a30013003a00ee
:100bd0000b00e000130034008b05e900080444001a
:100be00089844c000a4474000978a3000d003a007f
:100bf0000b00e000070034008b05e9000804440006
:100c000089844c0001003a000b0020000978a30001
:100c1000f7ff32000001eb00020037008281710013
:100c20000a017800d00007000cf0a70001f0a00036
:100c3000190137006420e10002003a00838f6c0044
:100c4000190133000801be000200be001201370086
:100c5000889fbe008a9fbe008c1f7800fd000700a1
:100c60000401330003866c006450e1002e00320062
:100c70006420e100330032006150e1002f003200b7
:100c80006120e1003100320085855500eb07b0009e
:100c90000900200008042000050037000804440073
:100ca00089844c000a0031000603430087834b000f
:100cb0000001530081815b00f8ff33000203be0096
:100cc0000800a0000804440089844c00f6ff3900a5
:100cd000c639dd00830173000100320013002000db
:100ce0008904d1000884d3000998a30005003200cc
:100cf0000800a7000300a0008904d1000884d300e5
:100d00008b05e8008904d1000884d3000001eb00c2
:100d10000281d2009400070001f0a1000cf0a700ae
:100d200001f0a000dc0037006420e100de003200aa
:100d30000801be000200be00f7ff37006120e1009d
:100d4000d90032006000b800f3ff37000000200037
:100d500001f82700f0ff370014002000e4033700fb
:100d6000f4ff2f00e20337000001be00a4000700db
:100d70000470a70003f0a1006509b100160032005d
:100d80000d0035006828e10006003500f0ff2f0057
:100d9000f1ff27000300e00013003b0001002800e2
:100da0000000050000004000818048008502e90045
:100db000fcff3a0008003700f88f420002003c00b8
:100dc0008000eb00000005008100d1000080d3000e
:100dd0008502e800fcff3a000300e00002003b004f
:100de00060001000e0801800000006000001be0056
:100df000830007000470a70003f0a10003f8a3001c
:100e000013003a006509b1001000320009003500f6
:100e10006928e100020035000100280000000500fb
:100e200000004000818048008502e900fcff3a0094
:100e300000000600f88f4200050035008100d10057
:100e40000080d3008502e800fcff3a0000000600a5
:100e50008000eb0000000500881f78000304780084
:100e60000300e00007003d0060001000e080180073
:100e700060011900e081190002003b0001f02d0023
:100e8000030037000700070008f0a70001f0a000ea
:100e90004f047800000006004f89de0082017800d0
:100ea000edff3700889fbe008a9fbe000082700061
:100eb0000402710004827100260032000004be00aa
:100ec0000200be006011b8006b09200095022000ee
:100ed0000182cf000a0039000541b1000082cf0035
:100ee000070039000541b1000982cf000400390034
:100ef0000541b1000882cf00010039000541b10071
:100f000005425200120032000a003b00828171004b
:100f1000610164008100d1000080d3008984d30086
:100f20000884d3008b05e8000442e800f7ff3a008c
:100f3000070037000804440089844c000000480082
:100f4000818048008b05e9000442e900f9ff3a007e
:100f5000050007004f05be004f04be00000006005c
:100f60006011b800cfff370081002000618055007c
:100f70000b003d000b00200061fe2f000100e1008e
:100f80001d00340082817100610164008904d10078
:100f90000884d3000000e800faff3a007100200046
:100fa000610064000300700002006000090032006c
:100fb00061044400e0844c000988a500050032006b
:100fc0008b05e8006808e10002003a008904d100be
:100fd0000884d300f20f20000258e10005003d0014
:100fe000c75ddd00f907b200898075000800780050
:100ff000000006000bf827008b00780000000500b9
:10100000c70ade00f107b200f50fb2000800320097
:10101000e1cf4200020032000170a0002400050070
:10102000810f700001003200040805004400050033
:10103000810f700002003a00140005008502e900eb
:101040000000400081c04800fcff3b000170a00090
:10105000240005000004be00e9ff07000003be00f5
:101060000405be000200be00e5ff0700844f7500c6
:10107000000006000200be006450e10005003600da
:101080006420e100020036000968a30001003a0074
:101090000800be000160a0004f0678004f05be00aa
:1010a0004f04be0000000600f0ff2f00f1ff2700f4
:1010b000f9ff3700889fbe008a9fbe008c1f780012
:1010c000e4ff0700ebff330003866c006450e1008f
:1010d000240032006420e100270032006150e1006a
:1010e000220032006120e100210032008b854200a5
:1010f000eb07b1000134b800003ab8000804420020
:1011000089844a00013ab8000030b8008880400065
:1011100009014a00040033000000400081804800bb
:10112000020149008b05e900c909dd008301700057
:101130000100320013002000c814de004814dd0056
:101140004709de001200b200c808de000884700003
:1011500085ff070001f0a1000cf0a70001f0a0003e
:10116000cdff37006120e100cfff32000801be0053
:101170000200be00f7ff37006150e100fcff3a00bb
:10118000c9ff37000c00fa00889fbe008a9fbe008e
:101190008c9fbe00afff07000206be0084057800ea
:1011a0000200be0002002000aa02070005003a006b
:1011b0008b02b30012002000a602070001003a00d3
:1011c000f8856d000c01be00c60007000800be00d7
:1011d0009b0032000b08a3009e003a000df0a70010
:1011e0000be0a00009f0a7000bf0a00009f0a1009f
:1011f0000801be00bb0007000bf0a60095003200fe
:1012000001003c000bd0a0008acf7500b200330073
:101210006000b8006250e10099003900a1003e0072
:101220000b28a300a2003a000bf8a300060032002e
:101230000b58a300a70032000801be00a900070058
:101240000800be00940032000800be001202070031
:101250000004be00050578000bf0a7000b30a600c7
:101260000bf0a1005b079800324f200053f32300de
:10127000b9fe070005003d000800be001200200076
:10128000b60207000004be000a05e9004a079800fc
:101290006150b90000ff0700008fbe000c01be00c6
:1012a00084ff0700b0fe0700300798000100e0004f
:1012b00002003d0060001000e0801800f2ff2700ef
:1012c000820f5000e08f580064003e000c00be000a
:1012d000a5fe070020079800f2072000820f5000ab
:1012e000e08f580005003c0012f82f00f3ff2f009c
:1012f000820f5000838f580009003d000a00e00073
:101300000300320001003c000201ea0002057800ff
:101310006000b800200798003a07980019003700cd
:101320003e0090006100b900dbfe0700809fbe0018
:101330000c00be004109dd004811de007208b1005a
:10134000440207000005be001e01be0059ff070051
:101350004f01be00e0fd0700809fbe000c00be00f4
:101360000a01be00dcfd07001e01be0051ff0700a0
:101370004f01be00d9fd07008221270013f323008f
:101380004cff07000005be002e0090006100b90070
:10139000c1fe070001f0a2000c01be00cffd070056
:1013a0000006be000800be008e0207000c01be0051
:1013b00040ff07000a01be00c8fd0700809fbe0075
:1013c0004a0007002e0590000af0a7000a05ea006f
:1013d000050037000800be000801be0035ff070009
:1013e0000004be000c00be000801be000a00a700f9
:1013f00030ff07000006be000a05d100f5ff3a00e5
:101400005e01900002e0a600030037000001be006c
:10141000360007000efe07000004be004f00be00ad
:10142000aa0107000801be0022ff07003e0190004c
:101430004a020700de0590000bf0a70001f0a200b1
:101440004f06be004f05be004f04be000080fa00ec
:101450000000060025000700f9ff370027000700fd
:101460006000b8000bd0a7000bc0a0000be0a700e5
:101470000bc0a2000bc0a70001f82700f0ff370047
:101480000df8a300020032001e000700190007003b
:101490000bf8a300eaff32000b30a70001f0a20016
:1014a000e7ff37000df8a300f9ff3a00f7ff370018
:1014b0000801be000b000700e6ff320001003c00ff
:1014c0000df0a2006000b8000df0a70009000700b1
:1014d000dbff37000b000700f1ff2700f0ff2f00b4
:1014e000d7ff3700010007001bfe370001f823007b
:1014f0000000050001f82700000005002002200080
:1015000001003700100220007081880000000600f2
:10151000889fbe008a9fbe008c1f78000004be001a
:10152000b7fe07000478a30026003a006120e1001e
:101530002500320009f8a30025003a006420e100ec
:1015400021003200f507b1000508a30002003200b7
:1015500000004000818048006044b8000310200073
:10156000020020000000400081804800080544007f
:1015700089854c000a0541008b8549000a05500009
:101580008b855800030033000a00be00020474007b
:10159000838474008301d1000281d300830f710022
:1015a000f0ff3a008904d1000884d30060014900ab
:1015b00082017800c1adde00fb07b0006afe0700c3
:1015c000b5fe37000960a0000800be00b2fe37007b
:1015d0001202200072818800f0ff2f00f1ff270027
:1015e000adfe3700889fbe008a9fbe0030044200d7
:1015f000b0844a0030054b0090854b006000b1007c
:101600000898be000a90be000440e10005c8e10051
:1016100006d0e10007d8e100020031006800400078
:101620001008e8004f05be004f04be000000060091
:10163000889fbe008a9fbe0010047800900490002e
:1016400020059000b00590000418540005985c0037
:1016500006185d0007985d00110020000440e100bd
:1016600005c8e10006d0e10007d8e100010039001b
:101670008000eb00108810004f05be004f04be0034
:10168000000006001200fa00889fbe008a9fbe007c
:101690008c9fbe00e0b79f00f1b79f0082bf9f0004
:1016a00093bf9f000605be000404be000000eb00cf
:1016b000d0b79f00c0b79f00b0b79f00a0b79f00f2
:1016c00090b79f00000678005fb19700cfb09700f9
:1016d000820141003fb097000200e00004003d009d
:1016e000370007007e805700beff07000300370069
:1016f000330007007e805700cdff0700dfb697005c
:101700000d00e0000c0035006fb29700ffb29700ab
:101710000fbb97009fbb9700100020000100200026
:101720006011b8000002720081827200020373002f
:10173000838373001b0007000c06e80001042000ef
:10174000810f5600e0ff3a000d00e00004003d006c
:101750000802be000a03be007e805700a1ff0700fa
:101760005fa897000000e00005003a001fb2970054
:10177000afb297003fb39700cfb3970009000700bf
:101780006fb09700ffb097000fb997009fb997000f
:101790004f06be004f05be004f04be000080fa0099
:1017a000000006000100070000000600a4b79f002b
:1017b000b5b79f00c6b79f00d7b79f0000000600cf
:1017c0004f09de0082817100b3b79f004f01de0038
:1017d0008180400082807000a1b79f008fb0970089
:1017e0004f09de00000040000200700090b79f002b
:1017f0007fa897004f01de0081804000828070004a
:1018000081b79f000d0007004f3ade000000400046
:1018100004007000f0af9f000800070004024200bf
:1018200085824a0006034b0087834b00dfff0700d9
:101830000802be000a03be00000006002fb2970097
:10184000bfb297004fb39700dfb3970000000600c8
:10185000881f780018002000881f780089ff070083
:101860008f87e9004f04780000000600801feb001e
:1018700084ff07008f87e90000000600889fbe00f4
:101880008a9fbe00e00f5000e08f5800e00f590023
:10189000e08f59000c003d006044b8006055b8006e
:1018a0000000540081805c0002015d0083815d00c6
:1018b000180020001500070008003d001800070070
:1018c0000004eb00050037000004eb000f000700e8
:1018d00002003d001200070018002000dcff070096
:1018e0000800e000060032006022b8006033b80053
:1018f0000000520081805a0002015b0083815b007e
:101900004f05be004f04be0000000600e00f52006d
:10191000e08f5a00e00f5b00e08f5b0000000600e4
:101920006044b8006055b8000402540085825c0031
:1019300006035d0087835d0000000600889fbe00ef
:101940008a9fbe008c1f7800e00f5000e08f580087
:10195000e00f5900e08f59000d003d006044b800d1
:101960006055b8000000540081805c0002015d00f9
:1019700083815d001c0020000820e10009a8e1002f
:101980000ab0e1000bb8e1000d003d00080037008f
:101990000006eb00e00f5200e08f5a00e00f5b0002
:1019a000e08f5b0006003d006044b8006055b80061
:1019b0000402540085825c0006035d0087835d009d
:1019c000aaff07000c00e000060032006022b80009
:1019d0006033b8000000520081805a0002015b00b1
:1019e00083815b004f0678004f05be004f04be00a8
:1019f00000000600889fbe008a9fbe008c1f7800f2
:101a00000006eb00e00f5000e08f5800e00f590097
:101a1000e08f590007003d006044b8006055b800f1
:101a20000000540081805c0002015d0083815d0044
:101a30001c002000e00f5200e08f5a00e00f5b0016
:101a4000e08f5b0007003d006044b8006055b800bf
:101a50000402540085825c0006035d0087835d00fc
:101a60000c00a200360107000c00e0000600320066
:101a70006022b8006033b8000000520081805a0034
:101a800002015b0083815b004f0678004f05be00ba
:101a90004f04be00000006000003be0058fd070012
:101aa0006220e100020032000600be0005000500d1
:101ab000e507b100f107b20004f023008480700054
:101ac00007f0a70001f0a00024000500889fbe00d9
:101ad0008a9fbe008c9fbe000004be0048fd070028
:101ae0000800be006420e10048003e0055003200be
:101af00072212700132b240099fc070047003c00ab
:101b00000800be00c2ec2800e32c2c0092fc070069
:101b1000470035000800be0001f0a10002002000cf
:101b2000033823008cfc0700430035000800be008a
:101b3000b2a32a0083fb23005efd07000200200001
:101b400003f0230001f0a70003f0a000e3fb07006f
:101b500085fc07000005be00cffc070001f0a200d5
:101b60000006be000200280013f3230051fd070009
:101b70000801be00d9fb0700809fbe000c00be001c
:101b800032082800e3952b004afd07004f01be00f4
:101b9000d2fb07000006be000001be0045fd0700a5
:101ba000809fbe004241250083b8230041fd07000d
:101bb0000200200003e82300c8fb07000c01be0060
:101bc0003cfd07000006be004f00be00f2f92b00ee
:101bd000c3d4230037fd07000200200003f02300d8
:101be000befb07000c01be00bbfb07000001be00ee
:101bf0000c00be0016fc07000200200003f02300ca
:101c0000b6fb070061014500540007004f06be0007
:101c10004f05be004f04be000000060001f827007b
:101c2000000020002202200072818800f7ff3700a8
:101c30006000b800fbff370001f82300000020001f
:101c4000f2ff370009f8a300f0ff32006000b8008f
:101c5000eeff3700889fbe008a9fbe000003be00d3
:101c6000e7fc070085057800828152000200200011
:101c70006220e10004003a00f307b10004003500df
:101c80007718e100040035000600be00140037009c
:101c90006000b8000f003700f50f2000faff2f009a
:101ca0008502d1000a85d3008301e900fcff3b00d7
:101cb0008184620000046500890f7400f2ff320025
:101cc0008582ea000a85ea008184620000046500da
:101cd000a5fc070007f0a70001f0a0000081eb00c1
:101ce0000200e0004f05be004f04be0000000600e9
:101cf000889fbe008a9fbe00841f7800d5fc070025
:101d00004f00780011003300f0ff2f00838f6c002c
:101d100006003b00040565000a00a7000800370024
:101d200009f0a6001000200008003700820f5400c0
:101d3000838f5c00030039001000200001003e008a
:101d40000000200009f0a7000000ea004f05be00d7
:101d50004f04be000000e000000006000003be00cb
:101d6000a7fc07006220e100020032000600be006e
:101d70000000060085024100e30f20000328e10077
:101d800005003c00a3fe2f000328e10007003d00f2
:101d90000500200001003700f50f20002002200080
:101da000708188006000b800080037001300200030
:101db0008381520005003d008100d1000080d300e6
:101dc0008301e800fcff3a0005002000c72add007f
:101dd000f107b2008580700007f0a70001f0a000b5
:101de00000000600889fbe008a9fbe008c9fbe0038
:101df00029ff0700850478000005be006420e1008b
:101e000049003e006220e100030032000900350075
:101e10000bf8a300440032000bf8a30008003200c6
:101e20001002200070818800f0ff2f00f1ff2700d2
:101e30003d00370001f82f00000020003a00370075
:101e40003d00070024fb07000006be000a00be009c
:101e5000324f200053f32300c1fb0700060034007b
:101e60000c00be00340007001bfb07000006be008c
:101e70000a00be00020037008904e9000c00be0021
:101e80002d0007008bfc07002b00070013fb070049
:101e90000001be000c00be006dfb07000005be0087
:101ea0000001be0083fc07000006be00a2f3230071
:101eb000430d2c0009fb0700809fbe000c00be00f4
:101ec000d2e32700d3f02b007afc07004f01be00bd
:101ed0005ffb07000006be000a01be0075fc07009c
:101ee0000a01be00fdfa07000006be006148b90005
:101ef000e9fb07000005be0032082800e3952b002f
:101f00006cfc07000c01be00f4fa07000006be00de
:101f10000a00be000200280013f3230065fc07003e
:101f20000c01be00edfa07004f06be004f05be00d3
:101f30004f04be000000060003f02300020005006d
:101f4000889fbe008a9fbe008c9fbe000404b8001c
:101f50000506b8008904460060854e000606b800f4
:101f60000a054600e0854e000706b8008b054600ce
:101f7000040eb800890446000a854e00e0854d0035
:101f8000050eb8000a0546008b854e00060eb80007
:101f90008b0546000416b8000a0546008b854e00e6
:101fa0000516b8008b054600041eb8008b054600d8
:101fb0000800be000a01be004f06be004f05be006d
:101fc0004f04be0000000600889fbe008088b90054
:101fd00080047800090078003d00070000047800c4
:101fe0000800e00004003200090178008000eb00e6
:101ff0000800780060000700080078004f04be0069
:1020000000000600889fbe000004780021228100a5
:102010000100e00002003200010078000d003700ee
:10202000312281006044220004003700910f5400e7
:10203000250036000180e800910090000100e000da
:10204000faff3a0010003700920f54001e003600cd
:102050000280e800100178000200e000faff3a0078
:102060001101780031228100604422000400370011
:10207000910f5400140036000180e8009100900098
:10208000828f5000faff3a0049228100888f540065
:102090000100310088047800090078003d00070045
:1020a0000000e00004003a00888f54000500320070
:1020b0008904d100f5ff37000918780044020700b1
:1020c000d2ff37000000eb004f04be000000060006
:1020d000881f7800630440000800a1008000eb0026
:1020e000800f540021003600e30f540001003e0031
:1020f0004800200008007800c2ff07008000eb00c5
:102100000000e00019003200900078009101780092
:1021100064815100880f51000300310011019000cb
:1021200002087800070037000881400002087800a4
:10213000910190001301980010017800110914001a
:1021400088087800100178000000eb000200e00031
:1021500004003200920190000300e0000100320010
:102160000280e800202289008180e80001007800d8
:102170004f0478000000060080017800020037005c
:10218000815978000201e9000200e000fcff3a00fa
:1021900000000600800078000000eb000100e00075
:1021a000050034000100780029fa0700e10f400023
:1021b00001003a000000eb0000000600881f7800d4
:1021c00002047800080178003d0207000800400082
:1021d0004f047800000006000000fa00881f780015
:1021e00000047800ea8157003fb997008800780022
:1021f000e00d2100070007000000e00002003500ac
:1022000000044400004ceb004f0478000080fa000a
:10221000000006006200fa00889fbe008a1f780056
:1022200000057800810478000204780083007800bb
:1022300080f92f000f004000330407009a979f0099
:10224000a9979f000000eb00b09f9f001885fb003e
:102250008a04fb000a05ea004f55de005002200008
:10226000808f54000d003200e10f55000b003a0042
:102270000a017800880078002f9097009f919700be
:1022800003000100a0979f000000e0008e003200d4
:102290003f9897000000e800b09f9f000a044400a8
:1022a00050022000808f5400040032000900e0003a
:1022b000e6ff3a003f989700840037000000eb00eb
:1022c000909f9f00809f9f00f0979f00e0979f0046
:1022d000d0979f00c0979f0007003700e14322007e
:1022e0000100500000004000214322008080400097
:1022f0005f98970011007000d09f9f0088047800bd
:1023000009047800384578008a00fb00e043220089
:10231000f20107000000e000f0ff3a00a1c2b300a4
:10232000814f55000e003a00cf8897000180e900e8
:10233000c08f9f0010007800c09f9f000000e00049
:1023400005003d000000ea00c09f9f005f989700d5
:102350000020a000d09f9f000904e8000f00370074
:10236000c09f9f000000eb0005003700f2ff270030
:10237000820f500002003200ea00b90000804000e5
:102380000904780088047800b900fb000103b1005b
:10239000e98f5000f5ff3600c09f9f00e0c2b300f8
:1023a000984f1000020032000080eb001900370047
:1023b000a0c2b300d84f100007003a00cf889700a2
:1023c0000180e900c08f9f0010007800a09f9f004f
:1023d0000804e800100037000000eb00a09f9f00f9
:1023e0008800780005003700f3ff2700830f5000b6
:1023f00002003200ea00b900000041000104780048
:10240000880078003101fb000203b100e90f5100a0
:10241000f5ff3600a09f9f00984478008900fb00dc
:10242000a0422200ad0107000000e00002003200df
:102430000804e800010037008044eb00c97f9f00da
:1024400080c6b30080cf540004003a0098cf140037
:102450000a003a006640500006003700c0c6b300cc
:1024600080cf540005003a0098cf140003003a00d2
:1024700065404000c07f9f000804e8001801fb0091
:10248000e3fb2f008f81410081f92f008f804000f6
:10249000a0f92f000f004000100007000000e0002e
:1024a00009003a00e1fb2f008f804000a0f92f00c7
:1024b0000f004000d80207000000e00002003500d5
:1024c0000804e80061ff37000080eb004f0578004a
:1024d0004f04be000080fa0000000600889fbe0086
:1024e0008a1f78000004780001007800824078009c
:1024f000e2c6b30082cf5000d100320015003c008c
:102500006b41510082cf5000240032000a003c0091
:102510007041510082cf50000a01320065414100f4
:1025200082cf50007200320050c2b30080cf500002
:102530001b013a001701370042c6b30082cf50009a
:102540001c0032006541410082cf500014013a0066
:102550001800370032c7b30082cf5000f9003200b4
:1025600007003c006441510082cf500060003200ff
:102570000241e80082cf500009013a00e300370031
:1025800052c7b30082cf500059003200634141006e
:1025900082cf500002013a00550037009080e900d8
:1025a000010878007800900080814100914978000e
:1025b0000101370028619000c4c6b300844f510068
:1025c00008003a0010027800640152000208780006
:1025d00012027800920290004fabde008603780072
:1025e0001300370014c7b300844f510003003200ba
:1025f000a4c6b300844f510008003a0010027800ce
:1026000068015200020878001202780092029000dd
:1026100022039000b2039000050037001081e9000a
:102620000208780012027800cfa2de00612bb90008
:10263000049cbe000694be002860900082c6b300d1
:10264000824f50000d00320022c6b300824f50006e
:1026500004003a000402fb00cfa2de00612bb900a7
:102660000800370042c7b300824f50000300320019
:1026700066414100824f500004003a00cfa2de00c4
:10268000612bb900049cbe000694be0018027800bd
:102690009802900028039000b80390007800900002
:1026a000e00f5200e08f5a00e00f5b00e08f5b000c
:1026b00003003d0000814100d4c2b3000a0037008e
:1026c000081190000218a3000300320000814100ad
:1026d000b4c2b300040037000208a3005400320063
:1026e0000081410004c2b300044978004e00370065
:1026f00028619000c4c6b300844f510007003a001f
:10270000100278006401520002087800120278007a
:10271000920290006033b8001300370014c7b30072
:10272000844f510003003200a4c6b300844f51000f
:1027300008003a0010027800680152000208780090
:10274000120278009202900022039000b2039000df
:10275000050037001081e9000208780012027800b5
:102760008002eb006033b800049cbe000694be00fb
:102770002860900082c6b300824f50000d003200e6
:1027800022c6b300824f500004003a000482fb00ce
:102790008002eb006033b8000800370042c7b30086
:1027a000824f50000300320066414100824f5000ca
:1027b00004003a008002eb006033b800049cbe00c5
:1027c0000694be00081090000038a30018003200e4
:1027d000180278009802900028039000b803900037
:1027e000e00f5200e08f5a00e00f5b00e08f5b00cb
:1027f0000f00320080c7b30080cf500003003200ca
:1028000080c5b30080cf500009003a0078009000e6
:102810000081410004c3b300044978000000e800cf
:1028200000814100014978000000e8007004980030
:102830007800900080814100630498003e003700da
:1028400028619000c3c6b3009080e900834f510017
:10285000220032000a003c00e4c15100834f5100c5
:102860002500320083c1e800834f5100130032007d
:10287000e8c15100834f51001e003a000a003700a2
:1028800043c7b300834f51001b003200e6c1410033
:10289000834f510018003200e9c15100834f5100ad
:1028a00014003a0005003700010878001100780094
:1028b000485c900008487800410037000108780023
:1028c00011007800680a9000cfa2de00612bb900e9
:1028d0000498be000690be00390037000108780059
:1028e0001100780068099000cf91de000288be00d8
:1028f000330037009080e90001087800110078006b
:10290000680c9000080878002d0037009080e900de
:102910000108780011027800cfa2de00612bb90017
:10292000049cbe000694be007800900080814100a7
:102930006304980081c7b30008007800790007009d
:102940001f0037009080e900010878001105780029
:102950006a049800d80c90000900e00004003d00d3
:102960000a0078006900070080047800070037003b
:10297000090178008000eb000a007800460007009b
:102980000000e000010032008a045000190c980099
:102990000b0037007800900080814100050037006f
:1029a00078009000808141000104e00001003a00bd
:1029b00051c2b300814978000000e800700498001b
:1029c0000000eb004f0578004f04be000000060039
:1029d0000000e0002f003200c0017800e38f5100ba
:1029e0002c0036000308a3002a003a00312281009f
:1029f0000100e00002003200810f500004003100ad
:102a000011009800302289001600370082007800fb
:102a1000110190000200e00002003200800f51001e
:102a2000faff39001102780084824000850f5000bf
:102a300018003900808f520003003a0083084200da
:102a400001007800070037000200e00003003200b8
:102a500083014000830f51000e00390012009800de
:102a600090009800900090000100e0000900320002
:102a700010014000828f500006003a0042442200bc
:102a80000009eb001001780011084100910090004e
:102a9000110098000000060003003700b0cf1000be
:102aa000050032000201e900800178000200e00028
:102ab000faff3a000000050003007800000006005d
:102ac0008001780002003700b15978000201e90066
:102ad0000200e000fcff3a000000060002003700a0
:102ae0000304e000060032000001780002007800d4
:102af000b041780081cf5100f9ff3a000100370062
:102b00000001eb0002007800000006008000780061
:102b1000010178003104e000fdff3a00000051009f
:102b200000000600fc874700889fbe008a9fbe0009
:102b30008c9fbe008e1f78000006780080c5b30011
:102b400080cf50000a0032007740400080cf500014
:102b50000a0032006940400080cf50000b00320074
:102b60009041220080bf9f00ae0020000a00370085
:102b70008240220082bf9f0006003700934122005e
:102b800083bf9f008e002000030037009441220085
:102b900084bf9f000e0120001c0278009c02900060
:102ba0002c039000bc0390000605be000404be0088
:102bb00040c6b30080cf50000300320065404000a3
:102bc00080cf50000b003a00e00f5200e08f5a0017
:102bd000e00f5b00e08f5b0006003d006000b80086
:102be0006011b8000404500085845800060559009f
:102bf00087855900e80f570004003200400020008c
:102c0000f00f57003c003a00010037003000200070
:102c1000e00f5400e08f5c00e00f5d00e08f5d008e
:102c200004003a00dc0890008d0120000100e00063
:102c3000070032008e00e900888060008fba97009c
:102c40008180420091407800f1ef9f007d012000db
:102c5000800078008100e900050033008b05d10079
:102c60000a85d3008984d3000884d300f9ff370094
:102c7000089ebe000a96be00130037008d06e900cc
:102c80008e00e900848060000fb997008100410048
:102c90001141780083fd2f008d81410082f779007a
:102ca000800178008301e900050033008783d100ab
:102cb0000683d3008582d3000482d300f9ff370056
:102cc000049ebe000696be001c0278009c02900086
:102cd0002c039000bc039000e00f5200e08f5a00dc
:102ce000e00f5b00e08f5b00930034000d00e0001c
:102cf000e2ff3c00900037002c60900081c6b300da
:102d0000814f50000b00320006003c000004e00040
:102d100008003200e6c05000814f500052003a00d7
:102d200004003700c1c6b300814f50004e003a0086
:102d3000230037000800e00004003a005c0890001f
:102d40008d0120000000e0000700320011000900a2
:102d50000e84d8000fba970001004200104078009e
:102d6000f0ef9f007d012000110009000e84d800c3
:102d70000b003700110009000e04d8008d06e90091
:102d80008e81b900020454008fb897000884400077
:102d90009841780082fd2f000d0141008377790072
:102da000000478000800e000020032000d00e0009e
:102db000f0ff3c00cfc4de00614db90027003700b2
:102dc000e00f5400e08f5c0004003a005c089000c3
:102dd0008d0120000000e000080032006171b900a0
:102de0000800be00690107000fba9700800042008a
:102df00091407800f1ef9f007d0120006171b900e2
:102e00000800be00510107000c0037006171b900d5
:102e10000800be003e0107008d06e90080f1b90000
:102e2000020454008fba9700088442009841780049
:102e300082fd2f000d014100837779000004be0060
:102e4000e00f5000e08f5800020032000d00e0005b
:102e5000eeff3c004fcdde008a057800089ebe00e4
:102e60000a96be0034003700e00f5400e08f5c008b
:102e7000e00f5d00e08f5d0004003a005c08900008
:102e80008d0120000000e0000a0032006172b900ec
:102e9000612bb9000800be000a01be0073fa0700ea
:102ea0000fba97008000420091407800f1ef9f0038
:102eb0007d0120006172b900612bb9000800be00dd
:102ec0000a01be0062fa07000e0037006172b90005
:102ed000612bb9000800be000a01be0067fa0700b6
:102ee0008d06e90080f2b900040454008fba9700ff
:102ef000088442009842780084fd2f000d024200b1
:102f000085777a00009ebe000296be001c04780001
:102f10009c0490002c059000bc059000e00f54002c
:102f2000e08f5c00e00f5d00e08f5d000200340088
:102f30000d00e000e5ff3c00e80f570010003a00ec
:102f40000c1090000038a3000d003200f78f5600df
:102f500006003e0080fd2f000d004000ef4078008d
:102f600000c3b30080cf50000500320002c3b3009d
:102f700071fd2f008d8040008d06e90082f77800fa
:102f800078811600120e98006c00900083fd2f00cf
:102f90008f8141008d804100c9fe07001c08900010
:102fa000dc089000810f500006003d0000805000ba
:102fb000000e98000c1090000040a1000016980030
:102fc0000f0037000100e0000d003d008c10900064
:102fd000f4806000f08f500009003a007c099000f6
:102fe000fc009000810051000c099000828050008c
:102ff000008050004240a90001003400000e9800fb
:103000004f0778004f06be004f05be004f04be00bc
:10301000cf01b100000006000400fa00889fbe0046
:103020008a9fbe008c1f780000047800010678009b
:10303000f80d9000780090008085550008089000f9
:10304000808555001808900080855500280890005c
:10305000808555003808900080855500480890000c
:10306000808555000002220090bf9f0000032300ce
:10307000a0bf9f00081090000028a30015003a0090
:103080000b00e000130034000b0578008a04780080
:10309000e20f55000100360029002000c801900011
:1030a00009017800ee8057005800900003000100ed
:1030b000500498000000e0008c0032006808900086
:1030c00009004000600c9800090555004240a90025
:1030d000eeff3c00780190000200e0000c0034009c
:1030e000c80190008c007800580090000300010097
:1030f000500498008080eb000000e0007c0032006b
:10310000e80890007800900000804000600c980073
:10311000880c90000900e0001100340009057800d7
:10312000e28f5400010036002a002000c801900000
:103130000a017800ec80570058009000030001005d
:10314000500498000000e000680032006808900019
:103150000a004000600c98008a845400edff37009c
:10316000180990000200e0000c003400c801900033
:10317000e8009000580090000300010050049800ff
:103180008080eb000000e00059003200e808900069
:103190001808900000804000600c9800a80c900077
:1031a0000900e0001100340009057800e28f5400a6
:1031b000010036002a002000c80190000a017800b2
:1031c000ec80570058009000030001005004980064
:1031d0000000e00045003200680890000a0040004e
:1031e000600c98008a845400edff37003809900085
:1031f0000200e0000e003400e80090001808900083
:1032000080804000c8019000580090000300010039
:10321000500498008080eb000000e0003400320091
:10322000e80890003808900000804000600c98008a
:10323000c80c90000900e000110034000905780076
:10324000e28f5400010036002a002000c8019000df
:103250000a017800ec80570058009000030001003c
:10326000500498000000e000200032006808900040
:103270000a004000600c98008a845400edff37007b
:10328000081090008000eb000028a3001800320016
:103290000b00e000160034008b047800090578006c
:1032a000e28f5400010036002a002000c80190007f
:1032b0000a017800ee8057005800900003000100da
:1032c000500498000000e0000800320068089000f8
:1032d0000a004000600c98008a8454004240a90013
:1032e000eeff3c008000eb00010037008080eb0027
:1032f000010078004f0678004f05be004f04be0065
:103300000080fa00000006000108780000000600b6
:10331000839f68000100e00002003d006000100093
:10332000e08018000300e00002003d006001110091
:10333000e0811900050007004f00e00002003b009b
:1033400060001000e0801800000006006022b80055
:10335000060220000000d0008180d2000482d2004a
:103360008582d2000000a0000202520083825a002f
:10337000030031000202420083824a000000a100e3
:103380000603e900f3ff3a0000000600efff070024
:083390000400be00000006006d
:020000040000fa
:0200000401f009
:04000800cfff000026
:020000040000fa
:04006800fe02000094
:020000040000fa
:0400ec00a20300006b
:020000040000fa
:040078004804000038
:020000040000fa
:040054007c04000028
:020000040000fa
:0400a000d004000088
:020000040000fa
:0200000401f009
:04002000cfffff000f
:020000040000fa
:0200000401f009
:04001c00dfffff0003
:020000040000fa
:0200000401f009
:04001800efffff00f7
:020000040000fa
:0200000401f009
:040014007fffff006b
:020000040000fa
:0200000401f009
:04001000beffff0030
:020000040000fa
:0200000401f009
:04000c00fbffff00f7
:020000040000fa
:103398002a2a00002a450000727200006f7200009d
:1033a800206900006e200000667500006e63000052
:1033b800746900006f6e00003a2000002573000059
:1033c8003a250000303200005820000065720000e5
:1033d80072760000616c00003d3000007825000026
:1033e800582a00002a2a0000200d00000a000000c8
:1033f8006932000063200000002d00002d2d000020
:103408002d2d00002d2d00002d2d00002d2d00004c
:103418002d2d00002d2d00002d2d00002d2d00003c
:103428002d2d00002d2d00002d2d00002d2d00002c
:103438002d2d00002d2d00002d2d00002d2d00001c
:103448002d2d00002d2d00002d2d00002d2d00000c
:103458002d2d00002d2d00002d2d00002d2d0000fc
:103468002d2d00002d2d00002d0a00000048000021
:1034780049440000204400006573000063720000a6
:1034880069700000746f0000720a000000520000aa
:10349800657000006f720000742000004465000031
:1034a8007363000072690000707400006f7200009e
:1034b8002000000047520000502000007265000004
:1034c800706f0000727400000a000000455200008e
:1034d800524f0000520a00000053000045540000fb
:1034e8005f520000505400005f4600004149000050
:1034f8004c00000053450000545f0000525000008b
:10350800543200005f460000414900004c000000b2
:1035180025640000005600005257000072000000a9
:10352800565200005264000000000000486f00007e
:103538006c610000206d0000756e0000646f000073
:0c354800212100000a0d0000000000001e
:020000040000fa
:10355400e34f50004a00320004003e00e14f5000a7
:10356400250032003c003e000b003700e74f5000be
:103574007a00320003003e00e44f5000d3003a00ca
:103584005e003700e84f50008c003200e94f5000d5
:10359400ce003a00b6003700f00321001080fb0093
:1035a400808040000100e8009081fb00c819dd0024
:1035b4001181fb0020f1210002887100638040002a
:1035c4009081fb00c819dd000180e8001081fb0038
:1035d40040f1210002887100658040001081fb00e9
:1035e4004811dd00e48040009180fb0060f121007f
:1035f40001087100b5003700600421001080fb0051
:10360400808040000100e8009081fb00c819dd00c3
:103614001181fb00e0f12100028871006380400009
:103624009081fb00c819dd000180e8001081fb00d7
:1036340000f2210002887100658040001081fb00c7
:103644004811dd00e48040009180fb0020f221005d
:10365400010871009d003700d00421001080fb0098
:10366400808040000100e8001081fb004811dd006b
:103674009180fb00a0f22100010871009300370043
:10368400400521001080fb00808040000100e8001c
:103694009081fb00c819dd001181fb0080f321003b
:1036a40002887100638040009081fb00c819dd002e
:1036b4000180e8001081fb00a0f321000288710062
:1036c400658040009081fb00c819dd0064804000e3
:1036d4001081fb00c0f32100028871006780400064
:1036e4001081fb004811dd00e68040009180fb0062
:1036f400e0f321000108710074003700b0052100d7
:103704001080fb00808040000100e8009081fb00f5
:10371400c819dd001181fb0000f42100028871004a
:10372400638040009081fb00c819dd000180e8003f
:103734001081fb0020f421000288710065804000a4
:103744001081fb004811dd00e48040009180fb0003
:1037540040f42100010871005c00370000072100db
:103764001080fb00808040000100e8009081fb0095
:10377400c819dd001181fb0080f12100028871006d
:10378400638040009081fb00c819dd000180e800df
:103794001081fb00a0f121000288710065804000c7
:1037a4001081fb004811dd00e48040009180fb00a3
:1037b400c0f12100010871004400370070072100a6
:1037c4001080fb00808040000100e8009081fb0035
:1037d400c819dd001181fb00c0f2210002887100cc
:1037e400638040009081fb00c819dd000180e8007f
:1037f4001081fb00e0f22100028871006580400026
:103804009081fb00c819dd00648040001081fb003a
:1038140000f3210002887100678040009081fb0062
:10382400c819dd00668040001081fb0020f32100f0
:1038340002887100698040009081fb00c819dd0096
:10384400688040001081fb0040f321000288710071
:103854006b8040001081fb004811dd00ea804000cd
:103864009180fb0060f3210001087100170037000c
:10387400e00721001080fb00808040000100e80088
:103884009081fb00c819dd001181fb0040f221008a
:1038940002887100638040009081fb00c819dd003c
:1038a4000180e8001081fb0060f2210002887100b1
:1038b400658040001081fb004811dd00e480400079
:1038c4009180fb0080f221000108710000000600d5
:1038d4004000fa00821f7800811f7800801f780062
:1038e400c09c2900801f780080fb2f000f0040003f
:1038f40038fa070081fb2f008f80400060382200d7
:1039040039160700e88757000080fa000000060017
:10391400889fbe008a9fbe008c9fbe0080057800f1
:1039240001047800024678001dc0b3008004eb0057
:103934000a012100190037000804e90007003200d9
:10394400898045008904e8000a00780023100700f4
:103954000a0078005b1007000600370089804500e4
:103964008904e8000a0078001c1007000a007800a7
:10397400681007000c04e00008003200e28f5400d5
:1039840006003a001b4490004844dd001b80fb0005
:10399400080470000884e900884678000800e00004
:1039a400e5ff3a000d04e00004003a001202200092
:1039b4008000eb00c09f2900c5ff07004f06be0032
:1039c4004f05be004f04be0000000600889fbe00e5
:1039d4008a9fbe008c9fbe008e1f780080447800b2
:1039e4000144780002057800030678008406780014
:1039f4008545780020c2b30061c9b300814f5400eb
:103a04006c003e0000012100d20e070020808800d7
:103a14000410e20004003200120220008000eb00d7
:103a2400c09f2900aaff0700e2cf54002000320003
:103a3400e3cf54002c003200e1cf54005a003a0086
:103a4400000121006d100700208088000410e200ae
:103a540004003200120220008000eb00c09f290005
:103a64009bff07000804e0004f0032008a0478003e
:103a74001b022000cc9f2900b940780000012100de
:103a8400420f0700208088000410e2000400320086
:103a94000b0178008000eb000c0078008cff07001d
:103aa4000ac05400884f5000f3ff39003e0037002d
:103ab4000001210055100700208088000410e20056
:103ac40004003200120220008000eb00c09f290095
:103ad4007fff07000b4178008c0078000d00780010
:103ae4008bff07003000370000012100431007005e
:103af400208088000410e20004003200120220003a
:103b04008000eb00c09f290071ff07000804e0005b
:103b14000f0032008a0478001e022000b9407800a9
:103b240000012100190f0700208088000410e20022
:103b3400040032000e0178008000eb00c09f2900d1
:103b440063ff07000ac05400804f5400f3ff3e0097
:103b540000012100fb0e0700208088000410e20011
:103b640004003200120220008000eb00c09f2900f4
:103b740057ff07000001210024100700208088005f
:103b84000410e20004003200120220008000eb0066
:103b9400c09f29004eff07000b4178008c0078007d
:103ba4000d0078005aff0700000121007b0e07007a
:103bb4000040eb004f0778004f06be004f05be00e3
:103bc4004f04be00000006002800fa00889fbe00d3
:103bd400004478008104780030c3b300f1c3b3001b
:103be400814f54002a003e000050e20022003200bf
:103bf4000150e20020003a0015c0b30044fd2f003c
:103c04000f024200330020000001eb008040eb0073
:103c140020c0b3006dff07008040780010c3b300dc
:103c24000104e0001a003a00efd1970036f7800053
:103c3400a20321008000eb00150020000140780061
:103c440092cf510008003a0064824000042add004b
:103c5400060262000400320041fd2f008f80400004
:103c64003bfe0700040037008100e80067014100c3
:103c7400ec8f5000f1ff3a000884fb000804440074
:103c840060ee210008044000980c78000040eb002e
:103c94004f04be000080fa0000000600889fbe00aa
:103ca4008a9fbe008c9fbe008e1f7800000578009e
:103cb400f1ff2f00e00821005300090001587800ab
:103cc400248780008a0078000040eb000bccb3000e
:103cd400c8cbb300c7cab300c9cdb3005cc5b30039
:103ce400d00037000041eb0016cab300914f130017
:103cf4001e003a000101e8000183e8001204e0001c
:103d040015003a008606e80052c8b300964f110029
:103d140014003a000083fb00e731b900e5082100f4
:103d2400028142001d49780063814000b24278005c
:103d340082007800e9cf5200fcff3a00e733b90073
:103d4400f2082100060141001149780012c0b300b5
:103d54008042eb0005003700860078000041eb004c
:103d6400020037008d0078000041eb0091cf150070
:103d740019003a0001037800d64678008bcf56002c
:103d8400ad0032000603e8005ec8b3008ecf5600d3
:103d940010003a008086fb00e769b900e5082100bd
:103da40002814200164978000181e800b24278009d
:103db40082007800e9cf5200fcff3a00e769b900bd
:103dc400f508210002814200314978008042eb006d
:103dd4005c003700860078000204e00090003200a6
:103de40058003700a2c0b300914f110053003a00ad
:103df4009ec0b300d14f170006003a000101e8004d
:103e04008180e8003ec0b300924f170001003a00e1
:103e14008542e80062c1b300914f110006003a00e8
:103e24000101e8008180e8003ec0b300924f170012
:103e340001003a008542e80092c1b300914f11009d
:103e440006003a000101e8008180e8003ec0b300aa
:103e5400924f170001003a008542e80012c0b300f7
:103e6400914f110006003a000101e8008180e8004a
:103e74002ec0b300924f170001003a008542e800bb
:103e8400e2c0b300914f110007003a000101e800bd
:103e94008180e8003ec0b300924f170002003a0050
:103ea400854e78008542e80051417800084741007a
:103eb400e14f570001003e008542e80007474100fa
:103ec400e14f570001003e008542e800744751006d
:103ed400e14f570010003e000083fb00e731b900ba
:103ee4008206780012092100028146000549780003
:103ef40001017800b2427800820078008ccf520031
:103f0400fcff3a00e733b900220921000201430013
:103f1400114978001300370009474100e14f570069
:103f240001003e008542e80006414100e14f510096
:103f340009003e008542e800070037008100e800e0
:103f440005003700c6ccb30072c0b3000440bc0007
:103f54000d0921008d06410003815000820f52009b
:103f6400a0ff31008042eb0028003700a6c0b30058
:103f7400914f130024003a001ec0b300d14f170024
:103f840006003a000101e8008180e80026c0b30081
:103f9400924f130001003a008542e8002ec0b3009e
:103fa400914f170019003a000101e8008180e800f0
:103fb400924f170015003a008542e800b14178009d
:103fc400010178008bcf5100fcff3a008086fb0092
:103fd400e76bb90086017800310921008180410036
:103fe400e3c84200b2417800820078008ccf5100cf
:103ff400fcff3a00e76bb9004209210002014300cb
:1040040011497800040037008100e8000381500062
:10401400820f5200d5ff31000040e8000100370054
:104024008100e8008a0178000a815000840f510061
:104034002cff360001003700860078008380500092
:10404400400e21001001e80050c1b300828f5000df
:1040540060003e00e10821000000eb0011417800ff
:10406400e14f4100040032008001e8000281fb00be
:10407400828f510056003a000000e800e7804000bb
:10408400ec0f5000f5ff3a00faff2f00a9032100be
:10409400530009008a5c7800f008210045052000df
:1040a4008082420034c7b300ad03210068c8b30066
:1040b4007c86460082ee2100a7c8b300e7055600bf
:1040c40066c7b300800178009040780084cf500028
:1040d40006003a00ae032100e10450000600090086
:1040e400395f78001200a0001300370086cf50001b
:1040f40007003a001a042100610750000600090075
:104104003e5d78007a00b1001210a0001200370062
:104114003ec8b3008ecf500007003a008904210046
:104124006105500006000900ba5c78007900b1000e
:104134001220a0001000370087cf500006003a007c
:104144006187510006000900be5d78007b00b10064
:104154001230a0001900370088cf500006003a0042
:10416400e180510006000900315e78007c00b10056
:104174001240a00011003700ffcf40000f003a00aa
:1041840071002100914078000187fb006707470018
:10419400e775b9000a0778000e874600e1845100ec
:1041a40006000900395f78007e00b1008140e80014
:1041b400014778007a0021000e4d78006700400026
:1041c400850f5000bfff3a000040eb0001003700ac
:1041d40040c1b3004f0778004f06be004f05be0034
:1041e4004f04be00000006002800fa00889fbe00ad
:1041f4008a9fbe00e14f500003003200e24f50009e
:1042040094003a006a00370010c0b30080d79f00c2
:104214000040eb0090d79f0080427800440f2100bb
:10422400e301200002fd2f000f01410021c0b30073
:1042340030c0b300e5fd07008045780011a02900d7
:1042440060382200e8130700b1a329006038220077
:10425400e51307003a0f21006a044500693822007b
:10426400da40780009007800cb130700880f550066
:10427400fbff3a0011a0290060382200da1307007e
:10428400100120000b04e00073003a00500f2100dd
:104294009080fb00c808dd000000e9001080fb00ee
:1042a400810070001187880010012000fe8f5000eb
:1042b40069003a00900f21009080fb00c808dd00df
:1042c4000000e9001080fb000100700020878800d6
:1042d4000001e90010012000b1da2000810f510033
:1042e4005d003e00a00f21001081fb004811dd009d
:1042f4000000e8009080fb00600e210001087100be
:10430400501021001081fb004811dd000000e9007d
:104314009080fb00a00e21000108710070102100a4
:104324001081fb004811dd000000e9009080fb00d3
:10433400c00e210001087100901021009080fb0044
:10434400c808dd000000e9001080fb008100700057
:1043540071878800000120003f003200b010210066
:104364001081fb004811dd000000e9001080fb0013
:1043740002017000828788000001200036003200ac
:10438400d01021009081fb00c819dd000000e90075
:104394001080fb00030070009087880092fa880068
:1043a400a1fa8800b0fa88000000eb002a00370068
:1043b40030878000c800de0081d79f0090d79f001f
:1043c4008042eb00241121002387800002fd2f008e
:1043d4000f01410021c0b30030c0b3007bfd0700d2
:1043e4008045780011a02900603822007e13070060
:1043f400b1a42900603822007b1307009a4f2100e2
:104404007404450069382200da4078000900780015
:1044140061130700880f5500fbff3a0011a0290023
:104424006038220070130700200120000b04e00014
:1044340009003a002011210018fe0700804078008e
:10444400400120000104e00003003a000000eb00fa
:10445400010037000000eb004f05be004f04be0012
:104464000080fa00000006000200fa00881f7800ad
:1044740000447800a0c3b300e34f540001003e00a1
:104484000040e900e74f5400010036000040e80016
:10449400e4805700ccfd0700630464004244dd005f
:1044a4006fb897000804de006f446400e74f5400bf
:1044b40008003e000880fb008000eb00a7f2070024
:1044c4000001be0000002000011224002cf30700ac
:1044d400020037000000200001f823006841540066
:1044e400e74f510008003e000880fb0070005000b8
:1044f400cf80de0067f207000001be00000020004c
:10450400011224001ef307004f0478000080fa0013
:10451400000006009600fa00810178008242e9005a
:1045240091c1b300e4c8b30084cf520036003e000a
:104534001342780051878000a1ef9e00c808de0076
:10454400b1ef9e00ee4f52000a003a00e040b30083
:10455400c0ef9e0030c0b300d0ef9e0060878000a3
:10456400e0ef9e004800de00f0ef9e008301e800cb
:104574000a003700a340900000c07000c0ef9e0006
:1045840030c0b300d0ef9e0060878000e0ef9e0053
:104594004800de00f0ef9e000241e80061c0b30075
:1045a4000204e0000d0032000302e8000240e900ca
:1045b4000080fb0000024200014078008080fb0084
:1045c400b34278006109b10085f778000040e80043
:1045d400848f5100f9ff3a00e64041008042eb002d
:1045e4000002eb0084017800a2f62f000f014100c5
:1045f40010c0b300f5fc0700804078000104e0001f
:104604000100320091c1b300014078000080fa003b
:10461400000006009600fa00889fbe008a9fbe0034
:104624008c1f780000467800810478005087800051
:1046340080e79e004800de0090e79e001940760067
:10464400a0e79e0020c0b300b0e79e006087800012
:10465400c0e79e004800de00d0e79e0015c0b3000e
:10466400090278003300200002f62f000f014100f8
:1046740061c0b30003407800d4fc07008045780093
:1046840011a0290060382200d7120700e1a52900f3
:1046940060382200d41207000004eb006a382200bc
:1046a400b94078000a007800bb1207000804e8004b
:1046b400fe0f5400faff3a0011a0290060382200ce
:1046c400c91207000b04e00008003200a1a629006b
:1046d40060382200c4120700cbc1b30000c3b3008a
:1046e400804f560001003a00dbc1b3000b40780054
:1046f4004f0678004f05be004f04be000080fa004c
:10470400000006002800fa00889fbe008a9fbe00b1
:104714008005780002447800e3cf50005600320050
:1047240005003e00e1cf500009003200e2cf500006
:10473400d4003a003a003700e5cf50006e00320052
:1047440062003900e7cf5000ce003a00bf003700c6
:104754005087800080d79f004800de0090d79f00dc
:104764000040eb00a0d79f0010c0b300b0d79f005b
:104774008042eb000b0278008001eb0002fd2f0069
:104784000f01410041c0b30090fc07008040780055
:1047940080c1b3000104e000bb003a000050e20015
:1047a400bd003200060037000800be00b516070041
:1047b4000a05e900020032000050e200faff32006c
:1047c40080c1b3000050e200af0032008042eb0031
:1047d4000b0278002300200002fd2f000f0141008e
:1047e400854078000340780078fc0700804078001a
:1047f40080c1b3000104e000a3003a001b04e00000
:10480400030032009b4090000104e0009e003a0047
:1048140060ee21001030a1000040eb009a00370048
:104824005087800080d79f004800de0090d79f000b
:104834000040eb00a0d79f0080c0b300b0d79f001a
:104844008042eb000b0278008001eb0002fd2f0098
:104854000f01410041c0b30010c0b3005bfc07006e
:1048640080407800a0c1b3000104e00086003a0053
:104874000040eb00840037005087800080d79f0001
:104884004800de0090d79f0010c0b300a0d79f005f
:1048940081c0b300b1d79f008042eb000b027800c7
:1048a4008001eb0002fd2f000f01410041c0b30065
:1048b40046fc070080407800b0c1b3000104e0006a
:1048c40071003a000040eb006f003700884d78001b
:1048d4000041eb008b00780000c1b3004dff0700de
:1048e40080407800d0c1b3000104e00066003a00c3
:1048f4000040eb0064003700884d78000041eb0075
:104904008b00780000c3b30042ff070080407800aa
:10491400d0c1b3000104e0005b003a00ab4090005a
:104924008140e900ebcf500057003e00a003210076
:10493400904f140008003200670140008000eb0033
:1049440010c0b3008100e80081017800924f140088
:1049540038003a00020037008001eb000040eb0011
:104964008080fb0081804000e719b9000281e800e3
:10497400b4032100020242001482fb00a5ee2100d0
:104984008182420004824500670342001683fb00d3
:104994004833dd00660242001482fb00840a73007f
:1049a400a4032100020142001281fb00e4ef210074
:1049b4008100420082854500648145001282fb002b
:1049c4004822dd00e38545001b81fb00820872005c
:1049d40081f52100e34f5000010036008180e8009a
:1049e400e74f5000010036008180e800630060005a
:1049f4004202dd00f20020000411dd000281ea0021
:104a04001101610082087800e71bb900000421004d
:104a140000004300904178000040eb000304e000f4
:104a2400190032008381fb00041add008408710040
:104a3400150037000040e80067014100ec4f5000ca
:104a4400c0ff3a000040eb000f0037001b41780024
:104a54008240e90070c1b300e3cf40000a003e0089
:104a64008b00780079404000aafe0700804078005f
:104a740070c1b3000104e00003003a000040eb0001
:104a8400010037000040eb004f05be004f04be009c
:104a94000080fa000000060000502300c10020003e
:104aa400f81507001a03200008502300c90020004d
:104ab40041ff3700cf05b000889fbe008a1f7800f1
:104ac4008e1f7800f0b79f000105780081bf9f001a
:104ad40092bf9f00a3bf9f00b4bf9f00efec97005d
:104ae400030478000941780051c0b300e0f92f00b5
:104af4000f00400003ff07008040780070c1b3003e
:104b04000104e0003e003a0060fc2f0000804700f2
:104b1400e1f92f0081804700130009003118780063
:104b240020c0b300a0cf9f00ffe99700b3cf9f0040
:104b34006ff097000004e00003003200d8cf9f001c
:104b44004844de00e8cf9f002ff097000004e00007
:104b540003003200bad79f004855de00cad79f0031
:104b64000044eb00084578000941780071c0b300a7
:104b740060fc2f000f004000e2fe070009417800ae
:104b840051c0b300e0f92f000f004000ddfe070024
:104b94006f5997000204e000150032006fc09700bf
:104ba400804f51000e003a00eef92f000f07470026
:104bb40061fc2f008f8040000a407800030037001a
:104bc400de417800d1cf510003003a000040e800f4
:104bd400804f5100faff3e00824f50000400320023
:104be4000844e800e34f5400dfff3a0003003700b5
:104bf4000040eb00e34f540001003a0070c1b300e1
:104c04004f0778004f0578004f04be00cf05b10070
:104c140000000600cf02b000889fbe008a9fbe003d
:104c24008c9fbe008e1f7800004478000105780038
:104c340030c3b300f1c3b300814f5400d1013e002f
:104c44000040e900e14f5400ce01320076415400a7
:104c5400f7c05000814f5100ca01360060ee2100b8
:104c64009000780011808800648060008044eb002c
:104c74009c0132000886fb000c06460060ee210011
:104c84000c06400022c0b300100321000248780043
:104c94004203210009497800640141000949780070
:104ca4000804e000cc003a004df621000a38a300c5
:104cb4001900320012c0b300824078000000eb00fb
:104cc40090fe07000004e0000e003a0020f82f00d8
:104cd4000d004000420009000018eb006008b1001c
:104ce400e6804600f2f92f00110161000250a00095
:104cf4008208780090007800658870000940780088
:104d0400a0013700a0f621000106200010887000e1
:104d140080c1b3009b0137000a08a30020003200c1
:104d24000108a3001e003a00003025007100200095
:104d34005415070012c0b30021c0b3000000eb00fb
:104d440070fe07000004e0000e003a0060ee21004f
:104d5400900078000110a1000100a0000108780073
:104d64004008b000f1c72f00908060000180a000cf
:104d74000108780000bc2e00210120004115070025
:104d840007003700a0f62100f1c72f0090806000d3
:104d94000130b30001087800e0c1b30079013700a5
:104da4000a18a3000a00320090ff2f0000006500db
:104db400e70f50000400360060ee21001010a1003f
:104dc4000040eb006f0137000230ab0006003200f8
:104dd400ae0321008004eb000041eb0088f79f0044
:104de4000a0678002100370012c0b30031c0b300b6
:104df4000000eb0043fe07000004e0000f003a004f
:104e0400a0f62100f1c72f00908060000170a0007f
:104e1400010878004008b100900078000110a0005b
:104e24000100a10001087800005c2500b102200007
:104e3400141507000040eb0052013700a0f62100d2
:104e4400f1c72f00908060000128b30001087800aa
:104e5400b0c1b3004b013700e74f540001003a00e2
:104e64008d86e8008904e800670747000944780054
:104e7400e4c0440064854400140020000a25dd00d9
:104e84008a0578000c00650003003a001480800055
:104e94008a01620047003200ebcf50000300360065
:104ea400e440540091f79f000100370091f79f0000
:104eb4000000e0001e003200148080000b0062003d
:104ec40012c0b3003b003a00000321001e487800e2
:104ed4008081800091818000a2818000b381800064
:104ee400c4818000f3fe070032c0b3000004e00078
:104ef40001003a0012c0b3009ff097000180fb004c
:104f040064005000000040008280fb008008dd0047
:104f1400330020000018dd000080ea001d0060005e
:104f2400808e700064ee2100148a75002100370021
:104f3400108080008b05600012c0b3001d00320099
:104f4400010321009e48780030c0b3000102e8004c
:104f5400004a78008081800091818000a2818000d5
:104f6400b3818000c4818000d2fe070032c0b30048
:104f74000004e00001003a0022c0b3009ff0970053
:104f84000180fb0064005000000040008280fb00b0
:104f94008008dd00330020000018dd000080ea00f6
:104fa4001d006000808e70000a85ea0064ee210016
:104fb400140a6500e98f5400a7ff3a000ff4970024
:104fc4000c05780070c1b3008044eb00e34f51003e
:104fd4009f003a00eb00370008c0e900e94f500099
:104fe4004a003e006bf621000881fb000281e800c4
:104ff400130020000219dd008100610029c0b30004
:10500400894f54000d003a000100e0000b0032000b
:1050140072c0b3000440bc00a103210082804000a0
:10502400914678008880fb008180e900e38f50007e
:105034000600340088447800080037008944e800fa
:10504400eccf5400eeff3a00d4003700e300b9007f
:1050540064474000884478000a0037000980fb0058
:1050640066005000e40f500004003e008b85e80009
:10507400e348b9007247500002003700e485450058
:105084000047eb00000321000d48780011c0b30075
:1050940064004000014878008a0078009a81880002
:1050a40080818000a2818000b3818000c48180005f
:1050b40080fe07000004e0000a0032000e87fb00b7
:1050c400700020000e00dd000080ea001b0060007c
:1050d400510020000e0fdd008e0d700070c1b30072
:1050e400a80037000a0e78000e87fb00700020002d
:1050f4000e00dd000080ea001b00600011002000ab
:105104000e0fdd008e0d7000020037008044eb00ae
:1051140080c6eb006c405400e94f50004c003e0048
:105124006bf621008880fb00e8805000120020000c
:105134008110dd0002f82f000b0141009280600015
:10514400c9c0b300894f54000d003a000100e000cb
:105154000b00320072c0b3000440bc00a103210064
:1051640082804000914678008880fb00ec805000eb
:10517400e38f5000060034008844780008003700ac
:105184008944e800f6cf5400eeff3a0004003700eb
:10519400e300b90064474000884478000b003700fe
:1051a4000980fb0070005000e40f500005003e0031
:1051b4008b85e800e349b90000cdb3000047410006
:1051c40002003700e48545000047eb00000321009e
:1051d4000d48780011c0b300680040000148780011
:1051e400ba8188008081800091818000a281800042
:1051f4008a017800c48180002efe07000004e000cc
:105204000a0032000e87fb00700020000e00dd0053
:105214000080ea001b006000610020000e0fdd002a
:105224008e0d700070c1b300560037000a0e78006e
:105234000e87fb00700020000e00dd000080ea00f5
:105244001b006000210020000e0fdd008e0d700099
:1052540010ccb30000404400e34f500021003e0056
:1052640046f621000000eb008044eb0033002000f0
:10527400f4c3b30005c4b3008685e8008018dd00dc
:105284000a81600013003a00844f540007003a007a
:105294001601780082836000818f53000d003a006c
:1052a4008783ea00028b63000a003700854f5400ad
:1052b40008003a00e1cf540006003e001b017800cc
:1052c40082836000818f530002003a008783ea00e2
:1052d400828d63008944e8000080e800e8cf540030
:1052e400e6ff3a000040eb000050e20025003200e7
:1052f4000150e20023003a0015c0b30084fc2f00e3
:105304000f024200330020000001eb0080407800cf
:1053140020c0b300adf907008040780010c3b3008b
:105324000104e00017003a002fc997008984fb00ac
:10533400e4844400130020008919dd0060ee21009c
:1053440090816100a10321000040eb00914f5100c6
:1053540007003a000300e0000500320081fc2f0042
:105364008f8040007af807000040eb00050037000a
:105374000040e800e7804000ec4f5000f3ff3a00a3
:105384000040eb004f0778004f06be004f05be00fb
:105394004f04be00cf02b1000000060080c6eb003f
:1053a4002eff37002800fa00889fbe008a1f78006d
:1053b4000041eb003100200001007800be0c070022
:1053c4008001eb0004002500358c240002c4b300e6
:1053d40083007800000121001f080700510020000d
:1053e400100020002512070060ee21004200090091
:1053f4000018eb0010c0b3007bfb07000000e000c6
:1054040005003200a0f62100900078007888700032
:1054140010c1b3003400370012c0b30021c0b30080
:1054240020fd2f000f004000b6fc070060ee2100b5
:105434001030a00012c0b3008240780020fd2f007d
:105444000f004000affc07000004e000050032003c
:10545400a0f62100900078007888700080c1b30025
:105464002100370020c0b3005ffb07000000e0000c
:1054740005003200a0f621009000780078887000c2
:1054840020c1b30018003700a8032100b90520008b
:10549400888444005ac0b300184178000240e900ef
:1054a400e34f400004003e008a40780020fd2f00b6
:1054b4000f00400093fc070067044400890f540068
:1054c400f5ff3a00a0f6210071fe2f0090806000e5
:1054d4000130a000010878004008b1009000780075
:1054e400658870000040eb004f0578004f04be0053
:1054f4000080fa0000000600881f7800000478008d
:1055040010c4b3000800e0002c003200e0c0b30077
:10551400004c780022c1b300124498000041eb0013
:10552400224498003044980010c0b30040449800ce
:105534005144980052c0b3008800780000c3b300ff
:10554400f4fb07008040780070c1b3000104e00060
:105554001a003a00e0c0b300004c78000041eb00b0
:105564008800780000c3b3002afc0700804078005c
:1055740060c1b3000104e00010003a0098489000b4
:105584000040eb00e1cf50000c00320028489000ae
:1055940022c3b3000440bc00e1082e000100410016
:1055a400c1f621000100400031000900305c7800a0
:1055b4002803b1002003b10010c4b3004f047800e5
:1055c400000006009600fa00881f780000047800a6
:1055d40020c4b3000800e0008d0032000810ec0085
:1055e40040808800e2c0b30082ef9e00f1c8b3009f
:1055f40091ef9e008040eb00a1ef9e00b2ef9e0071
:1056040032c0b300c2ef9e00d0ef9e004801de001e
:10561400e2ef9e00f1ef9e0081f79e0011f72f004c
:10562400818047007f000900b85878000808b1005d
:1056340092c8b300e10f50002b003a0040c6b300fb
:10564400a0f79f0060c0b300b0f79f0038509000ef
:105654000080fb008000eb0050808800618088009f
:10566400480add00c802de00850272004802dd003f
