:020000040000fa
:04005c00c2050000d9
:020000040000fa
:04007c00c2050000b9
:020000040000fa
:04000c00c205000029
:020000040000fa
:0400b400c205000081
:020000040000fa
:0400b000c205000085
:020000040000fa
:04014000c2050000f4
:020000040000fa
:04010800c20500002c
:020000040000fa
:04010400c205000030
:020000040000fa
:04014400c2050000f0
:020000040000fa
:04007000c2050000c5
:020000040000fa
:04007400c2050000c1
:020000040000fa
:04013400c205000000
:020000040000fa
:04011400c205000020
:020000040000fa
:04011800c20500001c
:020000040000fa
:04003800c2050000fd
:020000040000fa
:04020800c20500002b
:020000040000fa
:04020c00c205000027
:020000040000fa
:04023000c205000003
:020000040000fa
:04023400c2050000ff
:020000040000fa
:04023800c2050000fb
:020000040000fa
:04006000c2050000d5
:020000040000fa
:04008800c2050000ad
:020000040000fa
:0400b800c20500007d
:020000040000fa
:0400e000c205000055
:020000040000fa
:04011c00c205000018
:020000040000fa
:04013800c2050000fc
:020000040000fa
:04013c00c2050000f8
:020000040000fa
:04020000c205000033
:020000040000fa
:04020400c20500002f
:020000040000fa
:04001c00c205000019
:020000040000fa
:04001000c205000025
:020000040000fa
:04021c00c205000017
:020000040000fa
:04022400c20500000f
:020000040000fa
:04022c00c205000007
:020000040000fa
:04024400c2050000ef
:020000040000fa
:04024c00c2050000e7
:020000040000fa
:04025400c2050000df
:020000040000fa
:04025c00c2050000d7
:020000040000fa
:04002c00c205000009
:020000040000fa
:04003c00c2050000f9
:020000040000fa
:0400bc00c205000079
:020000040000fa
:0400c000c205000075
:020000040000fa
:0400c400c205000071
:020000040000fa
:0400c800c20500006d
:020000040000fa
:04008000c2050000b5
:020000040000fa
:04008400c2050000b1
:020000040000fa
:04019c00c205000098
:020000040000fa
:04026000c2050000d3
:020000040000fa
:04002800c20500000d
:020000040000fa
:04007800c2050000bd
:020000040000fa
:04009c00c205000099
:020000040000fa
:0400fc00c205000039
:020000040000fa
:04010000c205000034
:020000040000fa
:0401b800c20500007c
:020000040000fa
:0401bc00c205000078
:020000040000fa
:0401c000c205000074
:020000040000fa
:0401c400c205000070
:020000040000fa
:0401c800c20500006c
:020000040000fa
:0401cc00c205000068
:020000040000fa
:0401d000c205000064
:020000040000fa
:0401d400c205000060
:020000040000fa
:0401d800c20500005c
:020000040000fa
:0401dc00c205000058
:020000040000fa
:0401e000c205000054
:020000040000fa
:0401e400c205000050
:020000040000fa
:0401e800c20500004c
:020000040000fa
:0401ec00c205000048
:020000040000fa
:0401f000c205000044
:020000040000fa
:0401f400c205000040
:020000040000fa
:0401f800c20500003c
:020000040000fa
:0401fc00c205000038
:020000040000fa
:04023c00c2050000f7
:020000040000fa
:04012400c205000010
:020000040000fa
:04012800c20500000c
:020000040000fa
:04014800c2050000ec
:020000040000fa
:04015000c2050000e4
:020000040000fa
:04015800c2050000dc
:020000040000fa
:04015c00c2050000d8
:020000040000fa
:04016000c2050000d4
:020000040000fa
:04016400c2050000d0
:020000040000fa
:04016800c2050000cc
:020000040000fa
:04017800c2050000bc
:020000040000fa
:04017c00c2050000b8
:020000040000fa
:04026400c2050000cf
:020000040000fa
:04006c00c2050000c9
:020000040000fa
:0400f000c205000045
:020000040000fa
:04001800c20500001d
:020000040000fa
:04006400c2050000d1
:020000040000fa
:04021800c20500001b
:020000040000fa
:04022000c205000013
:020000040000fa
:04022800c20500000b
:020000040000fa
:04024000c2050000f3
:020000040000fa
:04024800c2050000eb
:020000040000fa
:04025000c2050000e3
:020000040000fa
:04025800c2050000db
:020000040000fa
:04003000c205000005
:020000040000fa
:04004000c2050000f5
:020000040000fa
:04008c00c2050000a9
:020000040000fa
:04009000c2050000a5
:020000040000fa
:0400cc00c205000069
:020000040000fa
:0400d000c205000065
:020000040000fa
:0400d400c205000061
:020000040000fa
:0400d800c20500005d
:020000040000fa
:04019800c20500009c
:020000040000fa
:04000800c20500002d
:020000040000fa
:0400dc00c205000059
:020000040000fa
:0401a000c205000094
:020000040000fa
:0401a400c205000090
:020000040000fa
:0401a800c20500008c
:020000040000fa
:0401ac00c205000088
:020000040000fa
:0401b000c205000084
:020000040000fa
:0401b400c205000080
:020000040000fa
:04014c00c2050000e8
:020000040000fa
:04010c00c205000028
:020000040000fa
:04011000c205000024
:020000040000fa
:04015400c2050000e0
:020000040000fa
:04012000c205000014
:020000040000fa
:04002400c205000011
:020000040000fa
:04004c00c2050000e9
:020000040000fa
:04005000c2050000e5
:020000040000fa
:0400a800c20500008d
:020000040000fa
:0400ac00c205000089
:020000040000fa
:04019000c2050000a4
:020000040000fa
:04019400c2050000a0
:020000040000fa
:04021000c205000023
:020000040000fa
:04021400c20500001f
:020000040000fa
:04002000c205000015
:020000040000fa
:04001400c205000021
:020000040000fa
:04003400c205000001
:020000040000fa
:04009400c2050000a1
:020000040000fa
:04009800c20500009d
:020000040000fa
:0400e400c205000051
:020000040000fa
:0400e800c20500004d
:020000040000fa
:0400f400c205000041
:020000040000fa
:0400f800c20500003d
:020000040000fa
:04012c00c205000008
:020000040000fa
:04005800c2050000dd
:020000040000fa
:04013000c205000004
:020000040000fa
:0400a400c205000091
:020000040000fa
:04016c00c2050000c8
:020000040000fa
:04017000c2050000c4
:020000040000fa
:04017400c2050000c0
:020000040000fa
:04018400c2050000b0
:020000040000fa
:04018800c2050000ac
:020000040000fa
:04018c00c2050000a8
:020000040000fa
:04018000c2050000b4
:020000040000fa
:080000000002040000000000f2
:020000040000fa
:100400006f3121000eff27000e0188000000000060
:10041000000020000000e000020032000001200087
:100420002002880014000700f90107000000e00026
:1004300003003a00602c2400010020000200370075
:100440000000200001002000810f70000100320038
:100450000f000700000020000000e0000200320052
:1004600000000200000000006433020000000000f1
:100470000040da000000fe00c00020000000e000a4
:1004800002003200002020009001880000000600d9
:10049000a1028800800478000000eb001f003700f4
:1004a000e284440054a0b4009905ba00e2844400f8
:1004b00054a0b4009906ba00e284440054a0b400e9
:1004c0000006eb00476fde00fd07b200ae018800ba
:1004d000636ce10003003a000ad801000000eb0061
:1004e0000e003700606ce10008003a00004deb00a0
:1004f0000a05e800020039003420ec000af0a000f0
:100500008b05e900f9ff3e00040037006168e10057
:10051000010032000086eb000b00070019c7ba008b
:100520000e04e0001905ba0003003a000a00e000da
:10053000dbff3a0000000600fe07b200ae028800b2
:100540008a047800f5ff37000cd0a300e20f4d00bd
:100550001c00390089027800354dba000a05e80010
:10056000020039003420ec000af0a0008b05e900fd
:100570000f003200254dba000a05e80002003900dc
:100580003420ec000af0a0008b05e90008003200de
:100590000c00e0000600320015cdba000a05e800a4
:1005a000020039003420ec000af0a0008b05e900bd
:1005b0008984e80054a0b4000b00e000e2ff3a0098
:1005c000000006009902ba00055d78008b05e9007d
:1005d000f7ff3200c82ade00055d78008b05e900d0
:1005e000f3ff32000c00e000f1ff320019ddba0029
:1005f000eeff370052130400000000003600f80040
:10060000809fbe00829fbe00849fbe00869fbe006a
:10061000889fbe008a9fbe00402021004b1d07001e
:100620000004e0003700320040202100641d070074
:100630000205be000004be00841620000500200054
:100640006033b80090050700d602070002002000c2
:100650004333240051020700b2fd2000930424001c
:100660006703070090818800a1818800841620001c
:10067000050020006033b8000800be000a01be007b
:100680005105070084162000050020006033b800e3
:100690007d050700c3020700020020004333240049
:1006a0003e020700b2fd200093042400540307001b
:1006b000b0818800c181880004a42f0015002000ab
:1006c0006033b8000800be000a01be003e05070006
:1006d00084162000050020006033b8006a0507007a
:1006e000b002070002002000433324002b02070061
:1006f000b2fd20009304240041030700d08188004c
:10070000e1818800889fbe008a9fbe00f0be29005c
:10071000801f7800e0092100e9070700e1092100b6
:10072000e01d2100b81c0700a00221008a1c070060
:10073000ea8757004f05be004f04be004f03be00be
:100740004f02be004f01be004f00be003600f90050
:10075000004006003600f800809fbe00829fbe0069
:10076000849fbe00869fbe000080800011808000b4
:1007700061004000e080480000808800118088000f
:10078000e0022100741c07004f03be004f02be00b0
:100790004f01be004f00be003600f90000400600c9
:1007a000809fbe00829fbe000882ab000100320025
:1007b0007e30ef000842ab0006003a0008a2ab0012
:1007c00004003a000010800084f0b7000782a800ff
:1007d000410037000842ab0014003a0008a2ab0009
:1007e000120032007e10e20005003a000010800086
:1007f00085f0b70010002000f08388000900370062
:1008000085d0bf00021080008080fb00e32821001b
:1008100081804100824878000040e80085f0b70000
:100820007e30ef000782a8002b0037000842ab00a3
:100830001300320008a2ab0011003a000010800043
:1008400084f0b70051082100914078000180fb003e
:10085000e2282100000041001040780086f0b70037
:100860008140e80081417800520821000349780066
:100870000080fb00101088000782a80016003700d7
:100880000842ab001400320008a2ab001200320094
:100890000802e200100035000010800084f0b7006c
:1008a00051082100914078000180fb00e2282100de
:1008b000000041001040780086f0b7008140e80059
:1008c0008141780052082100034978000080fb0034
:1008d000101088000782a8000208a9004f01be007e
:1008e0004f00be0000400600809fbe00829fbe00f9
:1008f0001882ab00010032008030ef001842ab00dc
:1009000006003a0018a2ab0004003a0080108000f4
:1009100084f0b7001782a800420037001842ab00ed
:1009200014003a0018a2ab00120032008010e2005e
:1009300005003a008010800085f0b700100020000c
:10094000008488000900370085d0bf008210800035
:100950008080fb00232a21008180410082487800aa
:100960000040e80085f0b7008030ef001782a80053
:100970002c0037001842ab001400320018a2ab0064
:1009800012003a008010800084f0b7005108210066
:10099000914078000180fb00222a210000004100e4
:1009a0001040780086f0b7008140e800814178006f
:1009b00052082100034978000080fb009010880055
:1009c0008030ef001782a800160037001842ab00f5
:1009d0001400320018a2ab00120032001802e2002c
:1009e000100035008010800084f0b700510821000d
:1009f000914078000180fb00222a21000000410084
:100a00001040780086f0b7008140e800814178000e
:100a100052082100034978000080fb0090108800f4
:100a20001782a8000628a9004f01be004f00be0093
:100a300000400600809fbe00829fbe00849fbe00d3
:100a40002202ab0020003200f301280004fe2f0038
:100a5000a0848000801090003511800001014000ca
:100a6000054978008100e80001109800a184800009
:100a7000011090000300600003003b000000e9004b
:100a8000000072000000e800801098001111900032
:100a90000200680000f0a7000000ea000000e90082
:100aa0004f00de00020040000300600003003b0036
:100ab0000000e900000072000000e80090109800bb
:100ac0002202ab00e2ff3a000168a9004f02be001b
:100ad0004f01be004f00be0000400600809fbe00d8
:100ae000829fbe00849fbe003202ab002000320015
:100af000f301280004fe2f00b084800080109000d5
:100b00003511800001014000054978008100e800ae
:100b100001109800b1848000011090000300600073
:100b200003003b000000e900000072000000e80044
:100b300080109800111190000200680000f0a700da
:100b40000000ea000000e9004f00de000200400063
:100b50000300600003003b000000e9000000720099
:100b60000000e800901098003202ab00e2ff3a006b
:100b700003c8a9004f02be004f01be004f00be00d7
:100b8000004006000040da000000fe00889fbe0022
:100b900080047800a09880000000e00004003a0083
:100ba0000e0007000084eb000000e00008003500a4
:100bb000a89880000900e000050032000900440008
:100bc000060007000000e00001003d000084eb008b
:100bd000080078004f04be00000006008000780086
:100be0000100e00003003a0000002000a098880007
:100bf000000005000080eb0002002000828f500002
:100c000002003e00a19888000000eb0000000600f2
:100c10000000050003f0a200889fbe008a9fbe006e
:100c20008c1f7800de010700e50133006450e1000d
:100c30004f0032006420e1005200320003826c0059
:100c400007003b000905d0000306d000820f5400c6
:100c50000c065d00020039000200320089017800b4
:100c6000030678008582550004003d000003fd0066
:100c70008103fd008502ea008b854200840f72002b
:100c800002003b0060001000e08018006011b80016
:100c90000005eb007a28e1000a0039000600780020
:100ca000c75ddd00f707b200878075002d003700b3
:100cb000828171000a017800610560008180d100a5
:100cc0000080d3008502e900f9ff3b0006044000e4
:100cd0008784480002003b0060041400e0841c008c
:100ce0000988a300070032008a81710082817100a7
:100cf000610164008904d1000884d3008b05e800f9
:100d0000170037000978a30013003a000b00e00039
:100d1000130034008b05e9000804440089844c006a
:100d20000a4474000978a3000d003a000b00e000ab
:100d3000070034008b05e9000804440089844c0056
:100d400001003a000b0020000978a300f7ff3200f1
:100d50000001eb0002003700828171000a01780077
:100d6000540107000cf0a70001f0a0009d0137001e
:100d70006420e10002003a00838f6c009d01330083
:100d80000801be000200be00960137000001eb0022
:100d900021043700889fbe008a9fbe008c1f780008
:100da0007f0107001002200002003b00e084880061
:100db000830137008a0062006408e10002003a0003
:100dc000e08488008b0137006108e100fcff3200fd
:100dd0000800be00030478007000070001f0a100c5
:100de0000900070008f0a600040037000001be005b
:100df00091042400b0fd200086ff070009f0a70041
:100e000001f0a20077013700889fbe008a9fbe00d4
:100e10008c9fbe000004be004c0107000800be000d
:100e2000890678006420e1000800390004003200df
:100e30000160a00012022000e28488005300370005
:100e400091fc2300b0fd20004e0037000006eb00af
:100e500009f0a10003f82300020020000800be00f2
:100e6000900007000600340001f823000000200075
:100e70000801be00490007000004be002c0020004d
:100e80000800be0093e82300320a23008500070013
:100e9000120034000801be00d1fd2300703d2b007c
:100ea0005dff07000005be00b3f32300f27a2600c1
:100eb0000800be005201070003f8230002002000d2
:100ec00054ff07000801be0053ff07000a01be00df
:100ed000320007000004be000c06e8000800be0057
:100ee00001f0a10002002000039823006d0007001c
:100ef0000800be00160035000801be0040010700d2
:100f00000005be0032cd2c0043fb230042ff07004a
:100f1000809fbe001269280003d52b000a00be0086
:100f200037010700620f210013ef2b003aff070083
:100f30000a01be00320107004f01be001700070082
:100f40000801be002e0107000801be0032ff0700a5
:100f50000c00e0000b0032000c10a70001f0a20012
:100f6000b2fd200093fc23006260e1000400320027
:100f700022a9200063f023000c10a70063f82300cf
:100f800025ff07000df0a70001f0a2004f06be00ec
:100f90004f05be004f04be0000000600889fbe0043
:100fa0008a9fbe008c1f7800fd00070004013300fb
:100fb00003866c006450e1002e0032006420e100e2
:100fc000330032006150e1002f0032006120e10067
:100fd0003100320085855500eb07b0000900200084
:100fe00008042000050037000804440089844c00f0
:100ff0000a0031000603430087834b0000015300c1
:1010000081815b00f8ff33000203be000800a000ee
:101010000804440089844c00f6ff3900c639dd001d
:101020008301730001003200130020008904d10005
:101030000884d3000998a300050032000800a70027
:101040000300a0008904d1000884d3008b05e800c8
:101050008904d1000884d3000001eb000281d20092
:101060009400070001f0a1000cf0a70001f0a0001f
:10107000dc0037006420e100de0032000801be0021
:101080000200be00f7ff37006120e100d900320006
:101090006000b800f3ff37000000200001f82700cf
:1010a000f0ff3700140020004b043700f4ff2f003e
:1010b000490437000001be00a40007000470a70027
:1010c00003f0a1006509b100160032000d003500e3
:1010d0006828e10006003500f0ff2f00f1ff27002f
:1010e0000300e00013003b000100280000000500a1
:1010f00000004000818048008502e900fcff3a00c2
:1011000008003700f88f420002003c008000eb002e
:10111000000005008100d1000080d3008502e800b6
:10112000fcff3a000300e00002003b0060001000fa
:10113000e0801800000006000001be0083000700e8
:101140000470a70003f0a10003f8a30013003a0005
:101150006509b10010003200090035006928e1007e
:1011600002003500010028000000050000004000da
:10117000818048008502e900fcff3a00000006007b
:10118000f88f4200050035008100d1000080d300b7
:101190008502e800fcff3a00000006008000eb003a
:1011a00000000500881f7800030478000300e000b9
:1011b00007003d0060001000e08018006001190089
:1011c000e081190002003b0001f02d000300370010
:1011d0000700070008f0a70001f0a0004f04780006
:1011e000000006004f89de0082017800edff370025
:1011f000889fbe008a9fbe000082700004027100ba
:1012000004827100260032000004be000200be000d
:101210006011b8006b092000950220000182cf0008
:101220000a0039000541b1000082cf0007003900f3
:101230000541b1000982cf00040039000541b10029
:101240000882cf00010039000541b100054252007b
:10125000120032000a003b008281710061016400cb
:101260008100d1000080d3008984d3000884d3009a
:101270008b05e8000442e800f7ff3a00070037005a
:101280000804440089844c00000048008180480024
:101290008b05e9000442e900f9ff3a000500070068
:1012a0004f05be004f04be00000006006011b800ec
:1012b000cfff370081002000618055000b003d000a
:1012c0000b00200061fe2f000100e1001d00340032
:1012d00082817100610164008904d1000884d30017
:1012e0000000e800faff3a0071002000610064008d
:1012f0000300700002006000090032006104440035
:10130000e0844c000988a500050032008b05e80048
:101310006808e10002003a008904d1000884d30083
:10132000f20f20000258e10005003d00c75ddd001e
:10133000f907b200898075000800780000000600f7
:101340000bf827008b00780000000500c70ade00bc
:10135000f107b200f50fb20008003200e1cf420001
:10136000020032000170a00024000500810f70000f
:10137000010032000408050044000500810f7000e0
:1013800002003a00140005008502e9000000400058
:1013900081c04800fcff3b000170a0002400050054
:1013a0000004be00e9ff07000003be000405be0004
:1013b0000200be00e5ff0700844f75000000060034
:1013c0000200be006450e100050036006420e10028
:1013d000020036000968a30001003a000800be00c0
:1013e0000160a0004f0678004f05be004f04be000c
:1013f00000000600f0ff2f00f1ff2700f9ff370083
:10140000889fbe008a9fbe008c1f7800e4ff070003
:10141000ebff330003866c006450e10024003200cf
:101420006420e100270032006150e1002200320018
:101430006120e100210032008b854200eb07b10002
:101440000134b800003ab8000804420089844a0018
:10145000013ab8000030b8008880400009014a0015
:101460000400330000004000818048000201490070
:101470008b05e900c909dd0083017000010032001d
:1014800013002000c814de004814dd004709de0008
:101490001200b200c808de000884700085ff070053
:1014a00001f0a1000cf0a70001f0a000cdff370073
:1014b0006120e100cfff32000801be000200be0043
:1014c000f7ff37006150e100fcff3a00c9ff370029
:1014d0000c00fa00889fbe008a9fbe008c9fbe0051
:1014e000afff07000206be00840578000200be00c0
:1014f000020020001103070005003a008b02b30030
:10150000120020000d03070001003a00f8856d006d
:101510000c01be00c60007000800be009b003200a0
:101520000b08a3009e003a000df0a7000be0a000fe
:1015300009f0a7000bf0a00009f0a1000801be000f
:10154000bb0007000bf0a6009500320001003c0034
:101550000bd0a0008acf7500b20033006000b80045
:101560006250e10099003900a1003e000b28a30061
:10157000a2003a000bf8a300060032000b58a300ab
:10158000a70032000801be00a90007000800be0045
:10159000940032000800be00120207000004be00e2
:1015a000050578000bf0a7000b30a6000bf0a1009a
:1015b0005b079800324f200053f32300b9fe070069
:1015c00005003d000800be00120020001d030700ba
:1015d0000004be000a05e9004a0798006150b900fe
:1015e00000ff0700008fbe000c01be0084ff070053
:1015f000b0fe0700300798000100e00002003d0047
:1016000060001000e0801800f2ff2700820f5000f9
:10161000e08f580064003e000c00be00a5fe0700ed
:1016200020079800f2072000820f5000e08f58003a
:1016300005003c0012f82f00f3ff2f00820f50002e
:10164000838f580009003d000a00e00003003200cb
:1016500001003c000201ea00020578006000b800c9
:10166000200798003a079800190037003e009000c4
:101670006100b900dbfe0700809fbe000c00be00c9
:101680004109dd004811de007208b100ab0207001d
:101690000005be001e01be0059ff07004f01be003d
:1016a0005cfd0700809fbe000c00be000a01be006a
:1016b00058fd07001e01be0051ff07004f01be008c
:1016c00055fd07008221270013f323004cff07007c
:1016d0000005be002e0090006100b900c1fe0700a9
:1016e00001f0a2000c01be004bfd07000006be0089
:1016f0000800be00f50207000c01be0040ff070015
:101700000a01be0044fd0700809fbe004a0007009a
:101710002e0590000af0a7000a05ea000500370030
:101720000800be000801be0035ff07000004be002f
:101730000c00be000801be000a00a70030ff070031
:101740000006be000a05d100f5ff3a005e019000d8
:1017500002e0a600030037000001be0036000700cb
:101760000efe07000004be004f00be00110207007d
:101770000801be0022ff07003e019000b1020700f1
:10178000de0590000bf0a70001f0a2004f06be009e
:101790004f05be004f04be000080fa0000000600a6
:1017a00025000700f9ff3700270007006000b80098
:1017b0000bd0a7000bc0a0000be0a7000bc0a2003d
:1017c0000bc0a70001f82700f0ff37000df8a300b9
:1017d000020032001e000700190007000bf8a300ea
:1017e000eaff32000b30a70001f0a200e7ff37004c
:1017f0000df8a300f9ff3a00f7ff37000801be001b
:101800000b000700e6ff320001003c000df0a200d3
:101810006000b8000df0a70009000700dbff3700eb
:101820000b000700f1ff2700f0ff2f00d7ff370064
:10183000010007001bfe370001f82300000005002f
:1018400001f82700000005002002200001003700f9
:1018500010022000e084880000000600889fbe007f
:101860008a9fbe008c1f78000004be00b7fe0700f0
:101870000478a30026003a006120e1002500320030
:1018800009f8a30025003a006420e100210032009d
:10189000f507b1000508a300020032000000400077
:1018a000818048006044b80003102000020020003e
:1018b00000004000818048000805440089854c00f4
:1018c0000a0541008b8549000a0550008b855800a8
:1018d000030033000a00be00020474008384740015
:1018e0008301d1000281d300830f7100f0ff3a0021
:1018f0008904d1000884d300600149008201780086
:10190000c1adde00fb07b0006afe0700b5fe370080
:101910000960a0000800be00b2fe370012022000dd
:10192000e2848800f0ff2f00f1ff2700adfe3700b2
:10193000889fbe008a9fbe0030044200b0844a00e7
:1019400030054b0090854b006000b1000898be0048
:101950000a90be000440e10005c8e10006d0e100a5
:1019600007d8e10002003100680040001008e800dc
:101970004f05be004f04be0000000600889fbe0059
:101980008a9fbe001004780090049000200590000b
:10199000b00590000418540005985c0006185d001e
:1019a00007985d00110020000440e10005c8e10037
:1019b00006d0e10007d8e100010039008000eb000b
:1019c000108810004f05be004f04be000000060046
:1019d0001200fa00889fbe008a9fbe008c9fbe0046
:1019e000e0b79f00f1b79f0082bf9f0093bf9f00a9
:1019f0000605be000404be000000eb00d0b79f0047
:101a0000c0b79f00b0b79f00a0b79f0090b79f00de
:101a1000000678005fb19700cfb0970082014100c7
:101a20003fb097000200e00004003d0037000700cf
:101a30007e805700beff0700030037003300070019
:101a40007e805700cdff0700dfb697000d00e00055
:101a50000c0035006fb29700ffb297000fbb9700e4
:101a60009fbb970010002000010020006011b8000b
:101a7000000272008182720002037300838373008c
:101a80001b0007000c06e80001042000810f56002f
:101a9000e0ff3a000d00e00004003d000802be0037
:101aa0000a03be007e805700a1ff07005fa89700d1
:101ab0000000e00005003a001fb29700afb29700a7
:101ac0003fb39700cfb39700090007006fb09700ae
:101ad000ffb097000fb997009fb997004f06be005f
:101ae0004f05be004f04be000080fa000000060053
:101af0000100070000000600a4b79f00b5b79f00d3
:101b0000c6b79f00d7b79f00000006004f09de0050
:101b100082817100b3b79f004f01de0081804000d9
:101b200082807000a1b79f008fb097004f09de0040
:101b3000000040000200700090b79f007fa897004f
:101b40004f01de00818040008280700081b79f00dd
:101b50000d0007004f3ade00000040000400700056
:101b6000f0af9f00080007000402420085824a008f
:101b700006034b0087834b00dfff07000802be000f
:101b80000a03be00000006002fb29700bfb2970004
:101b90004fb39700dfb3970000000600881f78005e
:101ba00018002000881f780089ff07008f87e90050
:101bb0004f04780000000600801feb0084ff070040
:101bc0008f87e90000000600889fbe008a9fbe0044
:101bd000e00f5000e08f5800e00f5900e08f5900ef
:101be0000c003d006044b8006055b800000054008f
:101bf00081805c0002015d0083815d00180020008f
:101c00001500070008003d00180007000004eb0065
:101c1000050037000004eb000f00070002003d0044
:101c20001200070018002000dcff07000800e00099
:101c3000060032006022b8006033b8000000520095
:101c400081805a0002015b0083815b004f05be006a
:101c50004f04be0000000600e00f5200e08f5a0063
:101c6000e00f5b00e08f5b00000006006044b800fe
:101c70006055b8000402540085825c0006035d00d4
:101c800087835d0000000600889fbe008a9fbe001b
:101c90008c1f7800e00f5000e08f5800e00f5900d3
:101ca000e08f59000d003d006044b8006055b80059
:101cb0000000540081805c0002015d0083815d00b2
:101cc0001c0020000820e10009a8e1000ab0e100a2
:101cd0000bb8e1000d003d00080037000006eb00e6
:101ce000e00f5200e08f5a00e00f5b00e08f5b00d6
:101cf00006003d006044b8006055b800040254007e
:101d000085825c0006035d0087835d00aaff0700f3
:101d10000c00e000060032006022b8006033b8001a
:101d20000000520081805a0002015b0083815b0049
:101d30004f0678004f05be004f04be0000000600ad
:101d4000889fbe008a9fbe008c1f78000006eb00b3
:101d5000e00f5000e08f5800e00f5900e08f59006d
:101d600007003d006044b8006055b8000000540012
:101d700081805c0002015d0083815d001c00200009
:101d8000e00f5200e08f5a00e00f5b00e08f5b0035
:101d900007003d006044b8006055b80004025400dc
:101da00085825c0006035d0087835d000c00a20055
:101db0009d0107000c00e000060032006022b80020
:101dc0006033b8000000520081805a0002015b00bd
:101dd00083815b004f0678004f05be004f04be00b4
:101de000000006000003be0058fd07006220e1006d
:101df000020032000600be0005000500e507b10044
:101e0000f107b20004f023008480700007f0a700ff
:101e100001f0a00024000500889fbe008a9fbe003c
:101e20008c9fbe000206780001f0a7000cf0a00015
:101e30000004be0045fd07000800be006420e1006c
:101e40000700390002003a00f1ff2700f0ff2f00e1
:101e50000160a00012022000e284880051003700d7
:101e600009f0a1000800be000200200003f82300d2
:101e70008efc0700f4ff3c000800be0002002000ba
:101e80000398230087fc07000800be0030003500df
:101e90000200200003f0230084fc070005003c0042
:101ea0000800be000801be0055fd07000005be0089
:101eb0000e0037000c10a2000000200001f82300e3
:101ec0000801be0053fb07000200200003f02300be
:101ed0004bfd07000005be0060fe07000200200069
:101ee00003002c0046fd07000004be000a00be00ef
:101ef000b2d02800130b2c0047fb07000a01be00dc
:101f00003ffd0700020f2500330b240042fb0700b2
:101f1000809fbe000a00be005206220013f02b0074
:101f200037fd0700b2662100f3f623003afb0700f5
:101f30000a01be0032fd07004f01be0017fc07007a
:101f40000801be002efd07000801be0032fb07009d
:101f50000c00a70007003700b2fd200093fc23000f
:101f60000c10a7002cfb07000cf0a70001f0a2004a
:101f70000c0037000cf0a7000200370001f0a200af
:101f800004003700b2fd2000930424000c10a600ca
:101f900003003700b2fd200093fc23000c10a700c3
:101fa0001dfb07004f06be004f05be004f04be00dc
:101fb00000000600889fbe008a9fbe008c9fbe0066
:101fc0000004be00e1fc07000800be006420e10040
:101fd00048003e005500320072212700132b2400d8
:101fe00032fc070047003c000800be00c2ec28009d
:101ff000e32c2c002bfc0700470035000800be0036
:1020000001f0a100020020000338230025fc070096
:10201000430035000800be00b2a32a0083fb230062
:10202000f7fc07000200200003f0230001f0a700e6
:1020300003f0a000f8fa07001efc07000005be0030
:1020400068fc070001f0a2000006be0002002800a4
:1020500013f32300eafc07000801be00eefa0700b4
:10206000809fbe000c00be0032082800e3952b00c4
:10207000e3fc07004f01be00e7fa07000006be00c0
:102080000001be00defc0700809fbe00424125002b
:1020900083b82300dafc07000200200003e82300d5
:1020a000ddfa07000c01be00d5fc07000006be00eb
:1020b0004f00be00f2f92b00c3d42300d0fc070070
:1020c0000200200003f02300d3fa07000c01be0039
:1020d000d0fa07000001be000c00be00affb0700f5
:1020e0000200200003f02300cbfa07006101450045
:1020f000540007004f06be004f05be004f04be004f
:102100000000060001f82700000020002202200045
:10211000e2848800f7ff37006000b800fbff37005b
:1021200001f8230000002000f2ff370009f8a300a7
:10213000f0ff32006000b800eeff3700889fbe005d
:102140008a9fbe000003be0080fc07008505780062
:1021500082815200020020006220e10004003a0067
:10216000f307b100040035007718e10004003500e2
:102170000600be00140037006000b8000f003700f2
:10218000f50f2000faff2f008502d1000a85d30049
:102190008301e900fcff3b008184620000046500cc
:1021a000890f7400f2ff32008582ea000a85ea0096
:1021b00081846200000465003efc070007f0a70070
:1021c00001f0a0000081eb000200e0004f05be001e
:1021d0004f04be0000000600889fbe008a9fbe001c
:1021e000841f78006efc07004f0078001100330058
:1021f000f0ff2f00838f6c0006003b000405650094
:102200000a00a7000800370009f0a600100020000f
:1022100008003700820f5400838f5c0003003900f0
:102220001000200001003e000000200009f0a7007f
:102230000000ea004f05be004f04be000000e000b1
:10224000000006000003be0040fc07006220e10021
:10225000020032000600be000000060085024100b8
:10226000e30f20000328e10005003c00a3fe2f003f
:102270000328e10007003d000500200001003700b1
:10228000f50f200020022000e08488006000b800e4
:1022900008003700130020008381520005003d0034
:1022a0008100d1000080d3008301e800fcff3a00e8
:1022b00005002000c72add00f107b200858070000c
:1022c00007f0a70001f0a00000000600889fbe00f4
:1022d0008a9fbe008c9fbe00c2fe07008504780066
:1022e0000005be006420e10049003e006220e100dc
:1022f00003003200090035000bf8a300440032004f
:102300000bf8a3000800320010022000e0848800cf
:10231000f0ff2f00f1ff27003d00370001f82f00ec
:10232000000020003a0037003d00070039fa07009e
:102330000006be000a00be00324f200053f3230007
:102340005afb0700060034000c00be0034000700f2
:1023500030fa07000006be000a00be000200370087
:102360008904e9000c00be002d00070024fc0700d2
:102370002b00070028fa07000001be000c00be0079
:1023800006fb07000005be000001be001cfc0700a4
:102390000006be00a2f32300430d2c001efa070026
:1023a000809fbe000c00be00d2e32700d3f02b00bc
:1023b00013fc07004f01be00f8fa07000006be003c
:1023c0000a01be000efc07000a01be0012fa070057
:1023d0000006be006148b90082fb07000005be0090
:1023e00032082800e3952b0005fc07000c01be0015
:1023f00009fa07000006be000a00be00020028001d
:1024000013f32300fefb07000c01be0002fa0700d5
:102410004f06be004f05be004f04be000000060080
:1024200003f0230002000500889fbe008a9fbe00c3
:102430008c9fbe000404b8000506b800890446005d
:1024400060854e000606b8000a054600e0854e008d
:102450000706b8008b054600040eb8008904460044
:102460000a854e00e0854d00050eb8000a054600bd
:102470008b854e00060eb8008b0546000416b8008a
:102480000a0546008b854e000516b8008b054600f0
:10249000041eb8008b0546000800be000a01be00fd
:1024a0004f06be004f05be004f04be0000000600f0
:1024b000889fbe008088b9008004780009007800f9
:1024c0003d000700000478000800e000040032002e
:1024d000090178008000eb00080078006000070028
:1024e000080078004f04be0000000600889fbe0070
:1024f00000047800719880000100e00002003200c2
:10250000010078000d003700819880000031210023
:1025100004003700910f5400250036000180e800c8
:10252000910090000100e000faff3a00100037002f
:10253000920f54001e0036000280e800100178005f
:102540000200e000faff3a00110178008198800053
:102550000031210004003700910f540014003600b0
:102560000180e80091009000828f5000faff3a004d
:1025700099988000888f5400010031008804780009
:10258000090078003d0007000000e00004003a0068
:10259000888f5400050032008904d100f5ff370010
:1025a0000918780029020700d2ff37000000eb006d
:1025b0004f04be0000000600881f7800630440003e
:1025c0000800a1008000eb00800f540021003600bd
:1025d000e30f540001003e0048002000080078008e
:1025e000c2ff07008000eb000000e000190032008d
:1025f000900078009101780064815100880f5100ab
:102600000300310011019000020878000700370034
:1026100008814000020878009101900013019800a1
:102620001001780011091400880878001001780062
:102630000000eb000200e000040032009201900074
:102640000300e000010032000280e800709888007a
:102650008180e800010078004f0478000000060047
:102660008001780002003700815978000201e900fa
:102670000200e000fcff3a00000006008000780045
:102680000000eb000100e0000500340001007800cc
:102690003ef90700e10f400001003a000000eb00a6
:1026a00000000600881f7800020478000801780006
:1026b00018020700080040004f04780000000600e0
:1026c0000000fa00881f780000047800ea815700b3
:1026d0003fb99700880078002035210007000700e7
:1026e0000000e0000200350000044400004ceb0054
:1026f0004f0478000080fa00000006006200fa0033
:10270000889fbe008a1f7800000578008104780049
:10271000020478008300780080f92f000f00400049
:10272000080407009a979f00a9979f000000eb00fc
:10273000b09f9f001885fb008a04fb000a05ea0091
:102740004f55de0050022000808f54000d003200f3
:10275000e10f55000b003a000a017800880078006c
:102760002f9097009f91970003000100a0979f0072
:102770000000e0008e0032003f9897000000e80063
:10278000b09f9f000a04440050022000808f540034
:10279000040032000900e000e6ff3a003f9897008d
:1027a000840037000000eb00909f9f00809f9f00f7
:1027b000f0979f00e0979f00d0979f00c0979f00e1
:1027c0000700370081302100010050000000400068
:1027d000c12f2100808040005f9897001100700099
:1027e000d09f9f008804780009047800384578005d
:1027f0008a00fb0080302100cd0107000000e000ce
:10280000f0ff3a00a1c2b300814f55000e003a001c
:10281000cf8897000180e900c08f9f0010007800ea
:10282000c09f9f000000e00005003d000000ea009e
:10283000c09f9f005f9897000020a000d09f9f003e
:102840000904e8000f003700c09f9f000000eb0064
:1028500005003700f2ff2700820f5000020032000f
:10286000ea00b9000080400009047800880478007c
:10287000b900fb000103b100e98f5000f5ff3600fd
:10288000c09f9f00e0c2b300984f100002003200ca
:102890000080eb0019003700a0c2b300d84f100031
:1028a00007003a00cf8897000180e900c08f9f00a1
:1028b00010007800a09f9f000804e8001000370077
:1028c0000000eb00a09f9f00880078000500370003
:1028d000f3ff2700830f500002003200ea00b90026
:1028e0000000410001047800880078003101fb00fd
:1028f0000203b100e90f5100f5ff3600a09f9f00d1
:10290000984478008900fb00402f210088010700cf
:102910000000e000020032000804e8000100370077
:102920008044eb00c97f9f0080c6b30080cf540075
:1029300004003a0098cf14000a003a0066405000a4
:1029400006003700c0c6b30080cf540005003a002f
:1029500098cf140003003a0065404000c07f9f00fc
:102960000804e8001801fb00e3fb2f008f81410001
:1029700081f92f008f804000a0f92f000f00400048
:10298000100007000000e00009003a00e1fb2f0002
:102990008f804000a0f92f000f004000ad0207001b
:1029a0000000e000020035000804e80061ff370085
:1029b0000080eb004f0578004f04be000080fa0055
:1029c00000000600889fbe008a9fbe00e4c6b300d8
:1029d000844f5100ce00320010003c006b42520088
:1029e000844f51001800320005003c0054c2b3006f
:1029f000844f51000601320084c5b3000f00370038
:102a000044c6b300844f51001500320065424200b5
:102a1000844f510001013a001100370004c7b30090
:102a2000844f5100ed0032005f00350065424200e6
:102a3000844f51005c00320063424200844f5100d9
:102a4000f6003a00580037001181e900820878004a
:102a5000f00090008181410092497800f500370034
:102a600020629000c5c6b300854f520008003a00ae
:102a700091027800648252008408780094029000e9
:102a8000140278004fabde00860378001600370092
:102a900015c7b300854f520003003a0011047800b7
:102aa0006802540005003700a5c6b300854f5200e8
:102ab00008003a0091047800688254008408780085
:102ac0009402900024039000b40390001402780054
:102ad000050037001182e9008408780014027800ac
:102ae000cfa2de00612bb9000498be000690be00a4
:102af000a060900088c6b30088cf50000d0032005f
:102b000028c6b30088cf500004003a000402fb003e
:102b1000cfa2de00612bb9000800370048c7b30020
:102b200088cf5000030032006644440088cf500034
:102b300004003a00cfa2de00612bb9000498be0069
:102b40000690be00100278009002900020039000d2
:102b5000b0039000f0009000e00f5200e08f5a00a8
:102b6000e00f5b00e08f5b0003003d00018241004d
:102b7000d5c2b3000a003700001290000418a30069
:102b80000300320001824100b5c2b30004003700e7
:102b90000408a300590032000182410005c2b300bd
:102ba000054a78005300370020629000c5c6b30084
:102bb000854f520009003a00110578006402550063
:102bc0008408780014047800940490006055b800dc
:102bd0000802be000a03be001600370015c7b30086
:102be000854f520003003a00910478006882540037
:102bf00005003700a5c6b300854f520008003a0013
:102c0000110578006802550084087800940290004d
:102c100024039000b40390001402780005003700ec
:102c20001182e90084087800140278008002eb0029
:102c30006033b8000498be000690be00a06090000b
:102c400088c6b30088cf50000d00320028c6b300fc
:102c500088cf500004003a000482fb008002eb00a1
:102c60006033b8000800370048c7b30088cf500071
:102c7000030032006644440088cf500004003a004c
:102c80008002eb006033b8000498be000690be00de
:102c9000801090000138a300180032001002780064
:102ca0009002900020039000b0039000e00f5200cb
:102cb000e08f5a00e00f5b00e08f5b000f003200f6
:102cc00081c7b300814f51000300320081c5b300ba
:102cd000814f510009003a00f0009000018241004c
:102ce00005c3b300054a78008100e8000182410075
:102cf000024a78008100e80071009800f00090001e
:102d00008181410063009800824078003e003700d6
:102d1000a0619000c4c6b3001181e90084cf5100c6
:102d2000220032000a003c006442520084cf51006d
:102d30002500320004c2e80084cf510013003200a5
:102d40006842520084cf51001e003a000a0037004a
:102d500044c7b30084cf51001b00320066424200da
:102d600084cf5100180032006942520084cf5100d4
:102d700014003a00050037008208780092007800bd
:102d800040589000804878002c0037008208780076
:102d900092007800600a9000cfa2de00612bb9009b
:102da0008498be008690be00240037008208780018
:102db0009200780060099000cf91de008288be000a
:102dc0001e0037001181e900820878009200780027
:102dd0006008900080087800180037001181e90031
:102de0008208780012027800cfa2de00612bb900c1
:102df0000498be000690be00f00090008181410062
:102e00006300980081c7b300550007000b0037002e
:102e1000f00090008181410005003700f000900033
:102e2000818141000204e00001003a0052c2b30077
:102e3000824978008100e800710098000000eb00f2
:102e40004f05be004f04be00000006000000e00079
:102e50002f003200c0017800e38f51002c003600b3
:102e60000308a3002a003a00819880000100e000d6
:102e700002003200810f5000040031001100980060
:102e800080988800160037008200780011019000b9
:102e90000200e00002003200800f5100faff39000a
:102ea0001102780084824000850f5000180039001c
:102eb000808f520003003a0083084200010078002e
:102ec000070037000200e0000300320083014000e9
:102ed000830f51000e0039001200980090009800f6
:102ee000900090000100e000090032001001400055
:102ef000828f500006003a00e23021000009eb000a
:102f00001001780011084100910090001100980014
:102f1000000006008001780002003700b1597800f7
:102f20000201e9000200e000fcff3a000000060098
:102f3000020037000304e0000600320000017800c0
:102f400002007800b041780081cf5100f9ff3a00cb
:102f5000010037000001eb000200780000000600cd
:102f6000fc874700889fbe008a9fbe008c9fbe00e2
:102f70008e1f78000006780080c5b30080cf500017
:102f80000a0032007740400080cf50000a00320033
:102f90006940400080cf50000b003200702c2100af
:102fa00080bf9f00ae0020000a003700622b210086
:102fb00082bf9f0006003700732c210083bf9f0053
:102fc0008e00200003003700742c210084bf9f0076
:102fd0000e0120001c0278009c0290002c0390003f
:102fe000bc0390000605be000404be0040c6b3004a
:102ff00080cf5000030032006540400080cf500079
:103000000b003a00e00f5200e08f5a00e00f5b0027
:10301000e08f5b0006003d006000b8006011b80062
:10302000040450008584580006055900878559001e
:10303000e80f57000400320040002000f00f570056
:103040003c003a000100370030002000e00f54003f
:10305000e08f5c00e00f5d00e08f5d0004003a004f
:10306000dc0890008d0120000100e0000700320024
:103070008e00e900888060008fba9700818042004e
:1030800091407800f1ef9f007d01200080007800e2
:103090008100e900050033008b05d1000a85d300cb
:1030a0008984d3000884d300f9ff3700089ebe004e
:1030b0000a96be00130037008d06e9008e00e90075
:1030c000848060000fb997008100410011417800b1
:1030d00083fd2f008d81410082f779008001780007
:1030e0008301e900050033008783d1000683d30004
:1030f0008582d3000482d300f9ff3700049ebe000e
:103100000696be001c0278009c0290002c039000e2
:10311000bc039000e00f5200e08f5a00e00f5b000c
:10312000e08f5b00930034000d00e000e2ff3c0004
:10313000900037002c60900081c6b300814f500092
:103140000b00320006003c000004e00008003200e2
:10315000e6c05000814f500052003a000400370092
:10316000c1c6b300814f50004e003a002300370023
:103170000800e00004003a005c0890008d01200087
:103180000000e00007003200110009000e84d800a2
:103190000fba97000100420010407800f0ef9f0046
:1031a0007d012000110009000e84d8000b003700bb
:1031b000110009000e04d8008d06e9008e81b900c7
:1031c000020454008fb897000884400098417800aa
:1031d00082fd2f000d014100837779000004780003
:1031e0000800e000020032000d00e000f0ff3c00ab
:1031f000cfc4de00614db90027003700e00f540056
:10320000e08f5c0004003a005c0890008d01200013
:103210000000e000080032006171b9000800be0043
:10322000690107000fba97008000420091407800c2
:10323000f1ef9f007d0120006171b9000800be0020
:10324000510107000c0037006171b9000800be0091
:103250003e0107008d06e90080f1b9000204540028
:103260008fba9700088442009841780082fd2f00b1
:103270000d014100837779000004be00e00f50008b
:10328000e08f5800020032000d00e000eeff3c002d
:103290004fcdde008a057800089ebe000a96be006b
:1032a00034003700e00f5400e08f5c00e00f5d0059
:1032b000e08f5d0004003a005c0890008d01200062
:1032c0000000e0000a0032006172b900612bb90011
:1032d0000800be000a01be0037fa07000fba9700c7
:1032e0008000420091407800f1ef9f007d012000b6
:1032f0006172b900612bb9000800be000a01be006e
:1033000026fa07000e0037006172b900612bb90080
:103310000800be000a01be002bfa07008d06e90076
:1033200080f2b900040454008fba97000884420068
:103330009842780084fd2f000d02420085777a00c4
:10334000009ebe000296be001c0478009c04900003
:103350002c059000bc059000e00f5400e08f5c004d
:10336000e00f5d00e08f5d00020034000d00e00022
:10337000e5ff3c00e80f570010003a000c109000e9
:103380000038a3000d003200f78f560006003e0003
:1033900080fd2f000d004000ef40780000c3b30017
:1033a00080cf50000500320002c3b30071fd2f0032
:1033b0008d8040008d06e90082f778007881160044
:1033c000120e98006c00900083fd2f008f81410049
:1033d0008d804100cffe07001c089000dc089000a3
:1033e000810f500006003d0000805000000e980044
:1033f0000c1090000040a100001698000f0037004c
:103400000100e0000d003d008c109000f480600091
:10341000f08f500009003a007c099000fc009000f9
:10342000810051000c099000828050000080500003
:103430004240a90001003400000e98004f077800b8
:103440004f06be004f05be004f04be00cf01b100c5
:10345000000006000400fa00889fbe008a9fbe009c
:103460008c1f78000004780001067800f80d9000a9
:1034700078009000808555000808900080855500f0
:103480001808900080855500280890008085550018
:1034900038089000808555004808900080855500c8
:1034a0000002220090bf9f0000032300a0bf9f00e6
:1034b000081090000028a30015003a000b00e0005f
:1034c000130034000b0578008a047800e20f5500e1
:1034d0000100360029002000c80190000901780091
:1034e000ee8057005800900003000100500498003f
:1034f0000000e0008c0032006808900009004000e5
:10350000600c9800090555004240a900eeff3c0000
:10351000780190000200e0000c003400c801900027
:103520008c007800580090000300010050049800bf
:103530008080eb000000e0007c003200e808900092
:103540007800900000804000600c9800880c90008b
:103550000900e0001100340009057800e28f5400f2
:10356000010036002a002000c80190000a017800fe
:10357000ec805700580090000300010050049800b0
:103580000000e00068003200680890000a00400077
:10359000600c98008a845400edff370018099000f1
:1035a0000200e0000c003400c8019000e800900028
:1035b0005800900003000100500498008080eb0048
:1035c0000000e00059003200e80890001808900060
:1035d00000804000600c9800a80c90000900e000fa
:1035e0001100340009057800e28f54000100360014
:1035f0002a002000c80190000a017800ec805700e2
:103600005800900003000100500498000000e00002
:1036100045003200680890000a004000600c9800e5
:103620008a845400edff3700380990000200e00062
:103630000e003400e80090001808900080804000e0
:10364000c801900058009000030001005004980049
:103650008080eb000000e00034003200e8089000b9
:103660003808900000804000600c9800c80c900062
:103670000900e0001100340009057800e28f5400d1
:10368000010036002a002000c80190000a017800dd
:10369000ec8057005800900003000100500498008f
:1036a0000000e00020003200680890000a0040009e
:1036b000600c98008a845400edff370008109000d9
:1036c0008000eb000028a300180032000b00e0008f
:1036d000160034008b04780009057800e28f54004e
:1036e000010036002a002000c80190000a0178007d
:1036f000ee8057005800900003000100500498002d
:103700000000e00008003200680890000a00400055
:10371000600c98008a8454004240a900eeff3c00ef
:103720008000eb00010037008080eb000100780092
:103730004f0678004f05be004f04be000080fa001f
:10374000000006000108780000000600839f680062
:103750000100e00002003d0060001000e080180061
:103760000300e00002003d0060011100e08119004b
:10377000050007004f00e00002003b006000100061
:10378000e0801800000006006022b8000602200059
:103790000000d0008180d2000482d2008582d20055
:1037a0000000a0000202520083825a000300310090
:1037b0000202420083824a000000a1000603e900e1
:1037c000f3ff3a0000000600efff07000400be0010
:0437d00000000600ef
:020000040000fa
:0200000401f009
:04000800cfff000026
:020000040000fa
:04004400fe020000b8
:020000040000fa
:04004800aa03000007
:020000040000fa
:04006800d0030000c1
:020000040000fa
:0400ec007404000098
:020000040000fa
:040054001a05000089
:020000040000fa
:0400a0006e050000e9
:020000040000fa
:0200000401f009
:04002000cfffff000f
:020000040000fa
:0200000401f009
:04001c00dfffff0003
:020000040000fa
:0200000401f009
:04001800efffff00f7
:020000040000fa
:0200000401f009
:040014007fffff006b
:020000040000fa
:0200000401f009
:04001000beffff0030
:020000040000fa
:0200000401f009
:04000c00fbffff00f7
:020000040000fa
:1037d400696e000069740000002500006c6c000034
:0837e400640a0000000000006f
:020000040000fa
:1037ec00889fbe008181d1000081d300f89d250007
:1037fc0079f325000204540083845c00020020004d
:10380c0003f02300fbf607000801be00f9f60700e1
:10381c000001be000800be00f6f607000001be0065
:10382c000000200001fc2300f7f407000001be009b
:10383c000800be00eff607004f04be0000000600b3
:10384c002000fa00889fbe008a9fbe008c9fbe009d
:10385c000004be00a2b79f00b3b79f0084b79f00bf
:10386c0095b79f000605be001cc0b3006011b800e0
:10387c000600be0008f607000000e0000100320060
:10388c000046eb000c04e000140032001cc0b30036
:10389c006011b8005fa09700efa09700fef507003d
:1038ac000000e000010032000046eb000c04e000d8
:1038bc000a0032001cc0b3006011b8003fa0970092
:1038cc00cfa09700f4f507000000e00001003200e3
:1038dc000046eb000c04e0000a013a000a01be00ad
:1038ec000a00be00c3f607000006be005fa19700e9
:1038fc00efa197000200be00bef607000001be005b
:10390c000c00be00c1f407000006be003fa19700ea
:10391c00cfa197000200be00b6f607000001be0062
:10392c000c00be00b9f40700adff07000006be0096
:10393c000001be000a00be00aef60700e0af9f001b
:10394c00f1af9f000c01be005fa09700efa09700a5
:10395c00a8f60700c0b79f00d1b79f000c01be00ae
:10396c003fa09700cfa09700a2f607000005be006d
:10397c001083800021838000528380006383800049
:10398c00648480007584800084bf9f0095bf9f0075
:10399c003483800045838000e4b79f00f5b79f0017
:1039ac0094f607000006be006fb19700ffb19700b8
:1039bc000fb897009fb897008ef607000001be0065
:1039cc000c00be0090f4070080bf9f0091bf9f00c9
:1039dc0060848000718480001283800023838000c7
:1039ec003483800045838000e4b79f00f5b79f00c7
:1039fc005483800065838000c4af9f00d5af9f00c7
:103a0c007cf607000006be004fa99700dfa99700bf
:103a1c006fb09700ffb0970076f607000001be006c
:103a2c000c00be0079f40700e0b79f00f1b79f00cf
:103a3c0060848000718480006284800073848000c4
:103a4c005483800065838000c4af9f00d5af9f0076
:103a5c005483800065838000a4af9f00b5af9f00a6
:103a6c0064f607000200200003f0230066f4070050
:103a7c000006be002fa99700bfa997004fa897007a
:103a8c00dfa897005bf607000001be000c00be002b
:103a9c005ef407000001be00c0af9f00d1af9f00d5
:103aac004fb09700dfb0970052f607000006be003b
:103abc006fb19700ffb197000a00be004df60700ea
:103acc000001be000c00be004ff40700a0af9f0029
:103adc00b1af9f000fb997009fb997000a00be00c5
:103aec0044f607000005be004fa99700dfa9970018
:103afc006fa89700ffa897003ef607000001be00d4
:103b0c000a00be0040f407000006be006fb197002b
:103b1c00ffb197006fa89700ffa8970035f6070034
:103b2c000005be000fb997009fb997004fb09700e2
:103b3c00dfb097002ff607000001be000a00be00a0
:103b4c0031f407000005be00f08280000183800084
:103b5c006011b80052f507000000e0004500340089
:103b6c00f082800001838000728380008383800058
:103b7c00c2b79f00d3b79f002fa99700bfa997008a
:103b8c001cf60700a2702d0033ca230019f607009b
:103b9c004fb19700dfb197001cf4070070838800c9
:103bac0081838800f08280000183800094838000f0
:103bbc00a5838000c4b79f00d5b79f000c01be0041
:103bcc000cf60700a2702d0033ca230009f607007b
:103bdc004fb19700dfb197000cf407009083880079
:103bec00a1838800f082800001838000b283800072
:103bfc00c3838000c2b79f00d3b79f000a01be00e9
:103c0c00fcf50700a2702d0033ca2300f9f507005c
:103c1c004fb19700dfb19700fcf30700b083880029
:103c2c00c183880072838000838380000800be00fb
:103c3c00f6f307000004be0092838000a38380008b
:103c4c002fb09700bfb09700f0f30700a0b79f000c
:103c5c00b1b79f00b2838000c38380000fb0970080
:103c6c009fb09700e9f3070080b79f0091b79f00c2
:103c7c00070037006000b8007083880081838800db
:103c8c0090838800a1838800b0838800c18388005a
:103c9c0040848000518480002fa99700bfa9970011
:103cac00d4f507000001be000800be00d7f30700e2
:103cbc000004be0040848000518480000c01be00d2
:103ccc00ccf507000001be002fb09700bfb09700e5
:103cdc00cef30700a0b79f00b1b79f0040848000cf
:103cec00518480000a01be00c2f507000001be002d
:103cfc000fb097009fb09700c4f3070080b79f00e8
:103d0c0091b79f00a2702d0033c223000800be00a3
:103d1c00b8f507000006be00a2702d0033c22300c8
:103d2c002fb09700bfb09700b2f507000005be009a
:103d3c00a2702d0033c223000fb097009fb09700e4
:103d4c00acf507000004be0064848000758480001c
:103d5c00a4b79f00b5b79f0010838000218380001b
:103d6c0080b79f0091b79f0032838000438380000f
:103d7c00c2b79f00d3b79f00548380006583800037
:103d8c0084bf9f0095bf9f00608480007184800079
:103d9c00e0af9f00f1af9f000fb097009fb097006e
:103dac0001f0a2000c01be0092f50700e0b79f00e5
:103dbc00f1b79f000a01be004fb09700dfb097002b
:103dcc008cf507000001be006fb09700ffb09700a4
:103ddc008df30700e0b79f00f1b79f000801be000c
:103dec000fb897009fb8970082f507000001be003e
:103dfc006fb09700ffb0970083f307006fa997008f
:103e0c00ffa9970081f30700608488007184880003
:103e1c00508380006183800080bf9f0091bf9f0012
:103e2c001283800023838000e2af9f00f3af9f00da
:103e3c000c01be002fb09700bfb097006df50700c6
:103e4c00e0b79f00f1b79f000801be004fb097008c
:103e5c00dfb0970067f507000001be006fb0970058
:103e6c00ffb0970069f30700e0b79f00f1b79f0020
:103e7c000a01be000fb897009fb897005df50700c8
:103e8c000001be006fb09700ffb097005ef3070013
:103e9c006fa99700ffa997005cf3070010838800b7
:103eac0021838800548380006583800084bf9f0039
:103ebc0095bf9f003083800041838000e0af9f005e
:103ecc00f1af9f000a01be002fb09700bfb0970062
:103edc0048f50700e0b79f00f1b79f000801be004e
:103eec000fb097009fb0970042f507000001be008d
:103efc006fb09700ffb0970043f30700e0b79f0047
:103f0c00f1b79f000c01be000fb897009fb8970047
:103f1c0038f507000001be006fb09700ffb09700a6
:103f2c003af307006fa99700ffa9970037f3070032
:103f3c003083880041838800508380006183800037
:103f4c0080bf9f0091bf9f000801be002fb097005b
:103f5c00bfb0970027f507000004be000a01be00a1
:103f6c000fb097009fb0970022f507000001be002c
:103f7c000800be0025f307000004be000c01be00c3
:103f8c004fb09700dfb097001af507000001be0094
:103f9c000800be001cf307000fb997009fb99700eb
:103fac001af30700508388006183880060848000c6
:103fbc007184800062848000738480001c83800084
:103fcc002d8380001a8380002b8380003483800033
:103fdc0045838000a4b79f00b5b79f003483800051
:103fec004583800084b79f0095b79f005483800061
:103ffc0065838000c4b79f00d5b79f0054838000b1
:10400c006583800084bf9f0095bf9f00f9f4070073
:10401c000004be000a01be000c00be00f5f407004f
:10402c000001be000800be00f8f207000004be004c
:10403c000fb197009fb197002fb09700bfb09700ba
:10404c00ecf407000001be000800be00eff2070010
:10405c000004be000fb997009fb997004fb09700ae
:10406c00dfb09700e3f407000001be000800be00bb
:10407c00e6f20700dafd07000004be006084800051
:10408c00718480000801be00daf4070060848800a7
:10409c007184880010838000218380000801be0099
:1040ac00d4f40700108388002183880030838000bb
:1040bc00418380000801be00cef4070030838800e5
:1040cc004183880050838000618380000801be001a
:1040dc00c8f4070050838800618388004f06be0037
:1040ec004f05be004f04be000080fa000000060021
:1040fc005c00fa00889fbe008a9fbe008c9fbe00a9
:10410c0080b79f0091b79f00e2af9f00f3af9f0075
:10411c0084bf9f0095bf9f000604be007f8697005a
:10412c008f8e97006011b8003f809700cf8097006a
:10413c00d9f307000000e0001a003a006011b80043
:10414c001f809700af809700d3f307000000e000ba
:10415c0014003a006011b8007f3897008f809700e8
:10416c00cdf307000000e0000e003a005f829700dc
:10417c00ef829700849fbe008c9fbe000803be0098
:10418c004fb29700dfb297002fa99700bfa99700f5
:10419c004fa89700dfa89700a9fd0700e8875700f4
:1041ac003e0337001ac0b3006011b8000800be000f
:1041bc00b9f307000000e000010032000045eb00fd
:1041cc000a04e000130032001ac0b3006011b800fa
:1041dc000c00be00b0f307000000e000010032004c
:1041ec000045eb000a04e0000a0032001ac0b300dc
:1041fc006011b8005f809700ef809700a6f307006e
:10420c000000e000010032000045eb000a04e00071
:10421c002b023a000801be000800be0075f407002e
:10422c000005be000c01be000c00be0071f40700be
:10423c000001be000a00be0074f207000005be00bb
:10424c005f819700ef8197000200be0069f40700c0
:10425c000001be000a00be006cf2070060fd070002
:10426c000005be000001be000800be0061f407009e
:10427c0080a79f0091a79f000a01be000c00be0002
:10428c005cf40700e09f9f00f19f9f000a01be00b5
:10429c005f809700ef80970056f40700c09f9f0047
:1042ac00d19f9f003f819700cf8197000200be00f5
:1042bc0050f407000004be001f819700af819700e7
:1042cc000200be004bf407000001be000800be0057
:1042dc004ef207000004be007f3997008f819700d3
:1042ec000200be0043f407000001be000800be003f
:1042fc0046f207003afd07000004be000001be00b4
:10430c003f809700cf8097003af40700e0b79f00fa
:10431c00f1b79f000801be001f809700af80970087
:10432c0034f40700c0b79f00d1b79f000801be004e
:10433c007f3897008f8097002ef40700a0b79f005e
:10434c00b1b79f006084800071848000a0979f00ab
:10435c00b1979f00628480007384800082979f00d5
:10436c0093979f006084800071848000128380008a
:10437c00238380001ff4070080af9f0091af9f0044
:10438c0060848000718480003283800043838000cd
:10439c0018f40700c0af9f00d1af9f00608480006d
:1043ac0071848000528380006383800011f40700c5
:1043bc000006be001083800021838000e08f9f00e8
:1043cc00f18f9f001283800023838000c28f9f0097
:1043dc00d38f9f0010838000218380003283800064
:1043ec004383800003f407000004be0010838000a8
:1043fc00218380005283800063838000fdf30700db
:10440c00c0a79f00d1a79f0030838000418380000c
:10441c003283800043838000f6f30700a0a79f003f
:10442c00b1a79f00308380004183800052838000bd
:10443c0063838000eff30700a09f9f00b19f9f0054
:10444c0050838000618380005283800063838000ee
:10445c00e8f30700e0a79f00f1a79f002fa19700aa
:10446c00bfa197000000200001f02300e6f1070037
:10447c006fa19700ffa19700e3f10700809f9f00b9
:10448c00919f9f000c01be000800be00def10700ea
:10449c00e0979f00f1979f004fa99700dfa9970025
:1044ac004fa09700dfa09700d8f10700c0979f009e
:1044bc00d1979f006fb19700ffb197000f989700ad
:1044cc009f989700cbf307000005be004fb19700f3
:1044dc00dfb197006f909700ff909700c5f307002e
:1044ec000001be000a00be00c8f107000005be00b6
:1044fc002fb19700bfb197004f909700df909700b6
:10450c00bcf307000001be000a00be00bff10700ab
:10451c000001be00bdf10700a0af9f00b1af9f002e
:10452c004f899700df8997006f889700ff88970065
:10453c00b0f307000001be000000200001f02300d2
:10454c00b1f107000005be000c01be000800be0062
:10455c00aef107006fb19700ffb19700a5f307000c
:10456c000004be006fa19700ffa197000a00be00d7
:10457c00a5f107004fb19700dfb197009df307003d
:10458c000001be000800be00a0f107000004be0040
:10459c000fa997009fa997002f989700bf98970095
:1045ac0099f107002fb19700bfb1970091f3070065
:1045bc000001be000800be0094f107000001be001f
:1045cc0092f107000004be002fa99700bfa9970025
:1045dc000200be0087f307000006be000801be0003
:1045ec000800be0083f307000001be000c00be00f3
:1045fc0086f1070096f40700a0af9f00b1af9f00b3
:10460c004fa99700dfa997004fa09700dfa0970054
:10461c007df107000004be00c0af9f00d1af9f002a
:10462c000fa997009fa997002f989700bf98970004
:10463c0076f1070080af9f0091af9f002fa19700ec
:10464c00bfa197000a00be006ff107000006be0074
:10465c006fb19700ffb197000800be0065f307002b
:10466c000004be004fb19700dfb197000fa8970070
:10467c009fa897005ff307000001be000800be0072
:10468c0062f107000004be002fb19700bfb1970084
:10469c000c00be0057f307000001be000800be006e
:1046ac005af107000001be0058f107000004be00db
:1046bc000f9197009f9197002f909700bf909700b4
:1046cc004cf307000200200003f023004ef107001a
:1046dc006fa19700ffa197004cf10700e0a79f0086
:1046ec00f1a79f002fa99700bfa997000f989700db
:1046fc009f9897003ff307000005be000801be001d
:10470c004fa89700dfa897003af307000001be00fe
:10471c000a00be003df10700c0a79f00d1a79f0073
:10472c002fa99700bfa997006f909700ff90970053
:10473c0030f307000005be000801be000fa897006b
:10474c009fa897002bf307000001be000a00be00d3
:10475c002ef10700a0a79f00b1a79f002fa99700db
:10476c00bfa997004f909700df90970021f30700a7
:10477c000005be000801be000c00be001df30700c2
:10478c000001be000a00be0020f107000006be00ba
:10479c006fa19700ffa197006f989700ff98970063
:1047ac0014f307000004be000fa997009fa99700ff
:1047bc004f989700df9897000ef307000001be009a
:1047cc000800be0010f107000005be000c01be0081
:1047dc004fb09700dfb0970006f307000004be004f
:1047ec002fa19700bfa197002fb09700bfb09700e3
:1047fc0000f307000001be000800be0002f1070034
:10480c000001be000a00be0000f10700a0af9f002f
:10481c00b1af9f004fa99700dfa997004f98970061
:10482c00df989700f3f207000004be006fa1970019
:10483c00ffa197000fa097009fa09700edf2070033
:10484c000001be000800be00eff007000005be002e
:10485c004fa19700dfa197002fb09700bfb0970032
:10486c00e4f207000004be000c01be006fb097001c
:10487c00ffb09700dff207000001be000800be0089
:10488c00e1f007000001be000a00be00dff00700e7
:10489c000006be000fa997009fa997000fa09700d4
:1048ac009fa09700d3f207000004be004fa9970009
:1048bc00dfa997006f989700ff989700cdf207003b
:1048cc000001be000800be00cff007000005be00ce
:1048dc002fa19700bfa197006fb09700ffb0970072
:1048ec00c4f207000004be004fa19700dfa197009f
:1048fc004fb09700dfb09700bef207000001be007a
:10490c000800be00c0f007000001be000a00be0097
:10491c00bef007000004be00f0828000018380001e
:10492c006011b800def107000000e0003e0034002a
:10493c00f0828000018380007a8380008b8380006a
:10494c002fa99700bfa99700aaf20700a2702d000b
:10495c0033ca2300a7f207000a01be00abf0070020
:10496c007083880081838800f0828000018380003e
:10497c009a838000ab8380000c01be009df207007f
:10498c00a2702d0033ca23009af207000a01be0060
:10499c009ef0070090838800a1838800f08280003d
:1049ac0001838000ba838000cb8380000801be00a5
:1049bc0090f20700a2702d0033ca23008df207007d
:1049cc000a01be0091f00700b0838800c183880003
:1049dc0072838000838380000fb097009fb0970094
:1049ec008af0070080b79f0091b79f0092838000e8
:1049fc00a38380006fa89700ffa8970083f007009f
:104a0c00e0af9f00f1af9f00b2838000c3838000b2
:104a1c000fb897009fb897007cf0070080bf9f00ed
:104a2c0091bf9f00070037006000b80070838800ba
:104a3c008183880090838800a1838800b0838800dc
:104a4c00c183880040848000518480002fa9970086
:104a5c00bfa9970067f207000001be000fb09700d6
:104a6c009fb0970069f0070080b79f0091b79f0037
:104a7c0040848000518480000c01be005df2070070
:104a8c000001be006fa89700ffa897005ff0070019
:104a9c00e0af9f00f1af9f00408480005184800004
:104aac000801be0053f207000001be000fb89700ca
:104abc009fb8970055f0070080bf9f0091bf9f00e3
:104acc00a2702d0033c223000fb097009fb0970047
:104adc0048f207000006be00a2702d0033c223006e
:104aec006fa89700ffa8970042f207000005be00d0
:104afc00a2702d0033c223000fb897009fb8970007
:104b0c003cf207000004be006084800071848000c9
:104b1c00e0b79f00f1b79f001283800023838000d1
:104b2c00c2b79f00d3b79f003483800045838000b9
:104b3c00a4b79f00b5b79f005083800061838000ad
:104b4c0080b79f0091b79f006284800073848000bf
:104b5c00e2af9f00f3af9f004fb09700dfb097001c
:104b6c0001f0a2000c01be0022f2070080bf9f00e2
:104b7c0091bf9f000a01be002fb09700bfb09700f5
:104b8c001cf207000001be000fb897009fb89700f9
:104b9c001df0070080bf9f0091bf9f000801be0061
:104bac000fb097009fb0970012f207000001be00f3
:104bbc000fb897009fb8970013f007006fa99700e4
:104bcc00ffa9970011f007006084880071848800a9
:104bdc00548380006583800084b79f0095b79f0045
:104bec001083800021838000e0af9f00f1af9f0015
:104bfc000c01be006fb09700ffb09700fdf10700ed
:104c0c0080bf9f0091bf9f000801be002fb097008e
:104c1c00bfb09700f7f107000001be000fb8970076
:104c2c009fb89700f9ef070080bf9f0091bf9f00ce
:104c3c000a01be000fb097009fb09700edf107007e
:104c4c000001be000fb897009fb89700eeef070069
:104c5c006fa99700ffa99700ecef0700108388005d
:104c6c0021838800508380006183800080b79f007f
:104c7c0091b79f003283800043838000e2af9f0096
:104c8c00f3af9f000a01be006fb09700ffb0970012
:104c9c00d8f1070080bf9f0091bf9f000801be00a4
:104cac004fb09700dfb09700d2f107000001be00b3
:104cbc000fb897009fb89700d3ef070080bf9f00f5
:104ccc0091bf9f000c01be000fb097009fb09700e2
:104cdc00c8f107000001be000fb897009fb89700fd
:104cec00caef07006fa99700ffa99700c7ef07004d
:104cfc003083880041838800548380006583800062
:104d0c0084b79f0095b79f000801be006fb0970055
:104d1c00ffb09700b7f107000004be000a01be0007
:104d2c004fb09700dfb09700b2f107000001be0052
:104d3c000800be00b5ef07000004be000c01be0069
:104d4c002fb09700bfb09700aaf107000001be007a
:104d5c000800be00acef07000fb197009fb19700a1
:104d6c00aaef07005083880061838800608480006c
:104d7c007184800062848000738480001c838000b6
:104d8c002d8380001a8380002b8380003883800061
:104d9c0049838000e8b79f00f9b79f0034838000f7
:104dac0045838000c4b79f00d5b79f00588380000f
:104dbc0069838000a8b79f00b9b79f005483800017
:104dcc006583800084b79f0095b79f0089f1070029
:104ddc000004be000a01be000c00be0085f10700f5
:104dec000001be000800be0088ef07000004be00f2
:104dfc004fb19700dfb197006fb09700ffb09700ed
:104e0c007cf107000001be000800be007fef070028
:104e1c000004be000fb197009fb197002fb0970010
:104e2c00bfb0970073f107000001be000800be0080
:104e3c0076ef07006afa07000004be006084800069
:104e4c00718480000801be006af10700608488004c
:104e5c007184880010838000218380000801be00cb
:104e6c0064f1070010838800218388003083800060
:104e7c00418380000801be005ef10700308388008a
:104e8c004183880050838000618380000801be004c
:104e9c0058f1070050838800618388004f06be00dc
:104eac004f05be004f04be000080fa000000060053
:104ebc00802d210062848000738480000288be00f3
:104ecc001283800023838000e2968800f39688008a
:104edc0032838000438380000297880013978800f8
:104eec005283800063838000229788003397880068
:104efc00000006001000fa00889fbe008a9fbe00ca
:104f0c008c9fbe00608480007184800080bf9f00f5
:104f1c0091bf9f001083800021838000e0b79f0029
:104f2c00f1b79f003083800041838000c0b79f00a1
:104f3c00d1b79f005083800061838000a0b79f0091
:104f4c00b1b79f0010838000218380001283800002
:104f5c00238380003c8380004d8380003a83800053
:104f6c004b83800023f107000004be000a01be0041
:104f7c000c00be001ff107000001be000800be00bf
:104f8c0022ef07000001be0020ef07000001be0069
:104f9c000000200001f823001bef07000005be00f5
:104fac006fb19700ffb197000fb897009fb89700ab
:104fbc0010f107000004be002fb19700bfb197009d
:104fcc004fb09700dfb097000af107000001be0058
:104fdc000800be000def07000001be000bef07003c
:104fec000a01be0068ef07004097880051978800bf
:104ffc006084800071848000328380004383800051
:10500c005c8380006d8380001a8380002b8380007a
:10501c00f8f007000004be000a01be000c00be0040
:10502c00f4f007000001be000800be00f6ee070019
:10503c000001be00f5ee07000004be001af00700e8
:10504c0000f0a7000000ea000000e0000d003400b2
:10505c006011b8000800be000ff007000000e0006f
:10506c0003003d00b0fd200091fc2300020037003e
:10507c00b0fd200091fc2b00609788007197880090
:10508c00040037000800be003def07006097880061
:10509c0071978800608480007184800080bf9f00bd
:1050ac0091bf9f005083800061838000e0b79f0018
:1050bc00f1b79f001083800021838000c0b79f0050
:1050cc00d1b79f003083800041838000a0b79f0040
:1050dc00b1b79f0030838000418380003283800011
:1050ec00438380005c8380006d8380005a83800042
:1050fc006b838000bff007000004be000a01be00f5
:10510c000c00be00bbf007000001be000800be0092
:10511c00beee07000001be00bcee07000001be00a1
:10512c000000200001f82300b7ee07000005be00c8
:10513c006fb19700ffb197000fb897009fb8970019
:10514c00acf007000004be002fb19700bfb1970070
:10515c004fb09700dfb09700a6f007000001be002b
:10516c000800be00a9ee07000001be00a7ee070074
:10517c000a01be0004ef0700809788009197880011
:10518c00802e21004f06be004f05be004f04be000e
:10519c000080fa0000000600889fbe008a9fbe00b7
:1051ac008c1f7800ce0c0700c30c070040c7b3005f
:1051bc008d0c070070c5b3008b0c0700c30c0700e7
:1051cc00bd0c070080c8b300870c07000040eb0043
:1051dc00850c0700004478000040eb00820c0700af
:1051ec004800dd000884fb00000074008000eb0028
:1051fc0070918800819188000040eb007a0c0700c8
:10520c00004478000040eb00770c07004800dd00fc
:10521c000884fb0000007400cf80de0090918800b1
:10522c00a19188000040eb006f0c0700004478004f
:10523c000040eb006c0c07004800dd000884fb000c
:10524c0000007400cf80de00b0918800c19188000e
:10525c000040eb00640c0700004478000040eb00b9
:10526c00610c07004800dd000884fb00000074009e
:10527c008000eb006011b80064242100009abe008d
:10528c000292be00680442008c0420000406460012
:10529c008044eb00fa0f200009407800520c070004
:1052ac0080457800094078004f0c0700000065002d
:1052bc004800dd008b05fb008a85650000807500c9
:1052cc00cf80de006109b900009cbe00029cbe00cc
:1052dc008c0f5400f0ff3a007c0c07004f0678004e
:1052ec004f05be004f04be0000000600889fbe00a4
:1052fc008a9fbe00700c0700a0cfb3003a0c0700c9
:10530c000040eb00380c0700004478000040eb0034
:10531c00350c0700804478000040eb00320c07008d
:10532c0000457800690c07000880fb008000eb004a
:10533c004809dd00c801de00830171004801dd0071
:10534c000980fb008000eb0000007100818071007f
:10535c004409dd00cc01de00830171004401dd0055
:10536c000a85fb008005eb004c5add004450de0042
:10537c0000007200c4d8de00000071008180710052
:10538c004f05be004f04be0000000600889fbe0003
:10539c008a9fbe00480c070070cfb300120c0700a8
:1053ac000040eb00100c0700004478000040eb00bc
:1053bc000d0c0700804478000040eb000a0c07003d
:1053cc0000457800410c07000880fb008000eb00d2
:1053dc004809dd00c801de00830171004801dd00d1
:1053ec000980fb008000eb000000710081807100df
:1053fc004409dd00cc01de00830171004401dd00b5
:10540c000a85fb008005eb004c5add004450de00a1
:10541c0000007200c4d8de000000710081807100b1
:10542c004f05be004f04be0000000600881f780028
:10543c0076918000879180004c09dd004402de00eb
:10544c0004027100c48ade000602520087825a00f0
:10545c0084a9b900020141000422b8008502410070
:10546c00442cdd004c21de0002017400cca9de00ce
:10547c00682321009802780083aab90018049000d0
:10548c0082c4b900080242000229b800830142001c
:10549c00421cdd004e12de0004027400ce9ade00c7
:1054ac004d0cdd004301de0002017400c389de00f7
:1054bc000600430087804b0000005100818059009a
:1054cc0026232100960178008199b90016039000db
:1054dc0080b3b900060141000018b80081004100fa
:1054ec00450bdd004b01de0002017300cb89de00b1
:1054fc0004014100858149008284880093848800de
:10550c00e518b9006511b800830140000208b0002d
:10551c000380b000481cdd004810de000000740061
:10552c00c818de002cef070002002000832c24009a
:10553c0097ee07004f047800000006002f03b00020
:10554c00889fbe008a9fbe008c9fbe008e1f780075
:10555c000006be0008c02000e9ff2f00faff2f0054
:10556c00fbff2f00808480009184800008044000a1
:10557c008984480060054d00e0854d000802be009e
:10558c000a03be000800be000a01be00e9f10700d4
:10559c0090b79f00a1b79f00b2b79f00c3b79f0001
:1055ac00e12621001100780021019000b10190004a
:1055bc0091009000d0af9f00e1af9f00f2af9f0031
:1055cc0083b79f0065262100150278002503900003
:1055dc00b50390009502900094af9f00a5af9f007b
:1055ec00b6af9f00c7af9f00e125210011007800e6
:1055fc0021019000b101900091009000d0a79f0074
:10560c00e1a79f00f2a79f0083af9f00e224210037
:10561c00120278009202900022039000b2039000d4
:10562c000800be000a01be00c2f107000203be0062
:10563c000002be00cc3bdd004437de008703770060
:10564c004c33dd00442fde0006037700cc2add004e
:10565c004427de00850277004c22dd0094a79f00d2
