:020000040000fa
:04005c00920400000a
:020000040000fa
:04007c0092040000ea
:020000040000fa
:04000c00920400005a
:020000040000fa
:0400b40092040000b2
:020000040000fa
:0400b00092040000b6
:020000040000fa
:040140009204000025
:020000040000fa
:04010800920400005d
:020000040000fa
:040104009204000061
:020000040000fa
:040144009204000021
:020000040000fa
:0400700092040000f6
:020000040000fa
:0400740092040000f2
:020000040000fa
:040134009204000031
:020000040000fa
:040114009204000051
:020000040000fa
:04011800920400004d
:020000040000fa
:04003800920400002e
:020000040000fa
:04020800920400005c
:020000040000fa
:04020c009204000058
:020000040000fa
:040230009204000034
:020000040000fa
:040234009204000030
:020000040000fa
:04023800920400002c
:020000040000fa
:040060009204000006
:020000040000fa
:0400880092040000de
:020000040000fa
:0400b80092040000ae
:020000040000fa
:0400e0009204000086
:020000040000fa
:04011c009204000049
:020000040000fa
:04013800920400002d
:020000040000fa
:04013c009204000029
:020000040000fa
:040200009204000064
:020000040000fa
:040204009204000060
:020000040000fa
:04001c00920400004a
:020000040000fa
:040010009204000056
:020000040000fa
:04021c009204000048
:020000040000fa
:040224009204000040
:020000040000fa
:04022c009204000038
:020000040000fa
:040244009204000020
:020000040000fa
:04024c009204000018
:020000040000fa
:040254009204000010
:020000040000fa
:04025c009204000008
:020000040000fa
:04002c00920400003a
:020000040000fa
:04003c00920400002a
:020000040000fa
:0400bc0092040000aa
:020000040000fa
:0400c00092040000a6
:020000040000fa
:0400c40092040000a2
:020000040000fa
:0400c800920400009e
:020000040000fa
:0400800092040000e6
:020000040000fa
:0400840092040000e2
:020000040000fa
:04019c0092040000c9
:020000040000fa
:040260009204000004
:020000040000fa
:04002800920400003e
:020000040000fa
:0400780092040000ee
:020000040000fa
:04009c0092040000ca
:020000040000fa
:0400fc00920400006a
:020000040000fa
:040100009204000065
:020000040000fa
:0401b80092040000ad
:020000040000fa
:0401bc0092040000a9
:020000040000fa
:0401c00092040000a5
:020000040000fa
:0401c40092040000a1
:020000040000fa
:0401c800920400009d
:020000040000fa
:0401cc009204000099
:020000040000fa
:0401d0009204000095
:020000040000fa
:0401d4009204000091
:020000040000fa
:0401d800920400008d
:020000040000fa
:0401dc009204000089
:020000040000fa
:0401e0009204000085
:020000040000fa
:0401e4009204000081
:020000040000fa
:0401e800920400007d
:020000040000fa
:0401ec009204000079
:020000040000fa
:0401f0009204000075
:020000040000fa
:0401f4009204000071
:020000040000fa
:0401f800920400006d
:020000040000fa
:0401fc009204000069
:020000040000fa
:04023c009204000028
:020000040000fa
:040124009204000041
:020000040000fa
:04012800920400003d
:020000040000fa
:04014800920400001d
:020000040000fa
:040150009204000015
:020000040000fa
:04015800920400000d
:020000040000fa
:04015c009204000009
:020000040000fa
:040160009204000005
:020000040000fa
:040164009204000001
:020000040000fa
:0401680092040000fd
:020000040000fa
:0401780092040000ed
:020000040000fa
:04017c0092040000e9
:020000040000fa
:040264009204000000
:020000040000fa
:04006c0092040000fa
:020000040000fa
:0400f0009204000076
:020000040000fa
:04001800920400004e
:020000040000fa
:040064009204000002
:020000040000fa
:04021800920400004c
:020000040000fa
:040220009204000044
:020000040000fa
:04022800920400003c
:020000040000fa
:040240009204000024
:020000040000fa
:04024800920400001c
:020000040000fa
:040250009204000014
:020000040000fa
:04025800920400000c
:020000040000fa
:040030009204000036
:020000040000fa
:040040009204000026
:020000040000fa
:04008c0092040000da
:020000040000fa
:0400900092040000d6
:020000040000fa
:0400cc00920400009a
:020000040000fa
:0400d0009204000096
:020000040000fa
:0400d4009204000092
:020000040000fa
:0400d800920400008e
:020000040000fa
:0401980092040000cd
:020000040000fa
:04000800920400005e
:020000040000fa
:0400dc00920400008a
:020000040000fa
:0401a00092040000c5
:020000040000fa
:0401a40092040000c1
:020000040000fa
:0401a80092040000bd
:020000040000fa
:0401ac0092040000b9
:020000040000fa
:0401b00092040000b5
:020000040000fa
:0401b40092040000b1
:020000040000fa
:04014c009204000019
:020000040000fa
:04010c009204000059
:020000040000fa
:040110009204000055
:020000040000fa
:040154009204000011
:020000040000fa
:040120009204000045
:020000040000fa
:040024009204000042
:020000040000fa
:04004c00920400001a
:020000040000fa
:040050009204000016
:020000040000fa
:0400a80092040000be
:020000040000fa
:0400ac0092040000ba
:020000040000fa
:0401900092040000d5
:020000040000fa
:0401940092040000d1
:020000040000fa
:040210009204000054
:020000040000fa
:040214009204000050
:020000040000fa
:040020009204000046
:020000040000fa
:040014009204000052
:020000040000fa
:040034009204000032
:020000040000fa
:040044009204000022
:020000040000fa
:04004800920400001e
:020000040000fa
:0400940092040000d2
:020000040000fa
:0400980092040000ce
:020000040000fa
:0400e4009204000082
:020000040000fa
:0400e800920400007e
:020000040000fa
:0400f4009204000072
:020000040000fa
:0400f800920400006e
:020000040000fa
:04012c009204000039
:020000040000fa
:04005800920400000e
:020000040000fa
:040130009204000035
:020000040000fa
:0400a00092040000c6
:020000040000fa
:0400a40092040000c2
:020000040000fa
:04016c0092040000f9
:020000040000fa
:0401700092040000f5
:020000040000fa
:0401740092040000f1
:020000040000fa
:0401840092040000e1
:020000040000fa
:0401880092040000dd
:020000040000fa
:04018c0092040000d9
:020000040000fa
:0401800092040000e5
:020000040000fa
:080000000002040000000000f2
:020000040000fa
:10040000ef1521000eff27000e01880000000000fc
:10041000000020000000e000020032000001200087
:100420002002880014000700610107000000e000be
:1004300003003a006043230001002000020037005f
:100440000000200001002000810f70000100320038
:100450000f000700000020000000e0000200320052
:1004600000000200000000004a3502000000000009
:100470000040da000000fe00e00020000000e00084
:1004800002003200002020009001880000000600d9
:10049000a1028800800478000000eb001f003700f4
:1004a000e284440054a0b4009905ba00e2844400f8
:1004b00054a0b4009906ba00e284440054a0b400e9
:1004c0000006eb00476fde00fd07b200ae018800ba
:1004d000636ce10003003a000ad801000000eb0061
:1004e0000e003700606ce10008003a00004deb00a0
:1004f0000a05e800020039003420ec000af0a000f0
:100500008b05e900f9ff3e00040037006168e10057
:10051000010032000086eb000b00070019c7ba008b
:100520000e04e0001905ba0003003a000a00e000da
:10053000dbff3a0000000600fe07b200ae028800b2
:100540008a047800f5ff37000cd0a300e20f4d00bd
:100550001c00390089027800354dba000a05e80010
:10056000020039003420ec000af0a0008b05e900fd
:100570000f003200254dba000a05e80002003900dc
:100580003420ec000af0a0008b05e90008003200de
:100590000c00e0000600320015cdba000a05e800a4
:1005a000020039003420ec000af0a0008b05e900bd
:1005b0008984e80054a0b4000b00e000e2ff3a0098
:1005c000000006009902ba00055d78008b05e9007d
:1005d000f7ff3200c82ade00055d78008b05e900d0
:1005e000f3ff32000c00e000f1ff320019ddba0029
:1005f000eeff3700809fbe00829fbe000882ab00e6
:10060000010032001230ef000842ab0006003a0051
:1006100008a2ab0004003a000010800016f0b700fa
:100620000782a800410037000842ab0014003a00de
:1006300008a2ab00120032001210e20005003a00de
:100640000010800017f0b700100020009080880094
:100650000900370017d0bf00021080008080fb0027
:10066000a30f210081804100824878000040e8000b
:1006700017f0b7001230ef000782a8002b003700f8
:100680000842ab001300320008a2ab0011003a0090
:100690000010800016f0b700710121009140780031
:1006a0000180fb00a20f21000000410010407800f3
:1006b00018f0b7008140e800814178007201210004
:1006c000034978000080fb00101088000782a80012
:1006d000160037000842ab001400320008a2ab003d
:1006e000120032000802e200100035000010800005
:1006f00016f0b70071012100914078000180fb00e5
:10070000a20f2100000041001040780018f0b7004f
:100710008140e8008141780072012100034978009e
:100720000080fb00101088000782a8000208a900c2
:100730004f01be004f00be0000400600809fbe007b
:10074000829fbe001882ab00010032001430ef001f
:100750001842ab0006003a0018a2ab0004003a00b1
:100760008010800016f0b7001782a8004000370004
:100770001842ab0013003a0018a2ab00110032007f
:100780001410e20004003a008010800017f0b70057
:100790001230ec000900370017d0bf0002108000b3
:1007a0008080fb00e31021008180410082487800b6
:1007b0000040e80017f0b7001430ef001782a800df
:1007c0002b0037001842ab001300320018a2ab0018
:1007d00011003a008010800016f0b700710121006e
:1007e000914078000180fb00e210210000004100f0
:1007f0001040780018f0b7008140e800814178008f
:1008000072012100034978000080fb0090108800ed
:100810001782a800160037001842ab0014003200ff
:1008200018a2ab00120032001802e20010003500de
:100830008010800016f0b70071012100914078000f
:100840000180fb00e2102100000041001040780010
:1008500018f0b7008140e800814178007201210062
:10086000034978000080fb00901088001782a800e0
:100870000628a9004f01be004f00be000040060040
:10088000809fbe00829fbe00849fbe00861f7800ae
:100890002202ab001d003200f18080000081800048
:1008a000850a2100f201280006fe2f003411800085
:1008b00081814200844978008100e80082806000e4
:1008c00003003b008100e900810073008100e80023
:1008d0008081680003f0a7008301ea008301e9003a
:1008e000cf19de00008041000200600003003b00e1
:1008f0000000e900000073000000e8002202ab00e5
:10090000eaff3a00f1808800008188000168a900b0
:100910004f0378004f02be004f01be004f00be00e3
:10092000004006000040da000000fe00889fbe0084
:1009300080047800e08a80000000e00004003a00b3
:100940000e0007000084eb000000e0000800350006
:10095000e88a80000900e000050032000900440038
:10096000060007000000e00001003d000084eb00ed
:10097000080078004f04be000000060080007800e8
:100980000100e00003003a0000002000e08a880037
:10099000000005000080eb0002002000828f500064
:1009a00002003e00e18a88000000eb000000060023
:1009b0000000050003f0a200889fbe008a9fbe00d1
:1009c0008c1f78005a010700610133006450e10078
:1009d0004f0032006420e1005200320003826c00bc
:1009e00007003b000905d0000306d000820f540029
:1009f0000c065d0002003900020032008901780017
:100a0000030678008582550004003d000003fd00c8
:100a10008103fd008502ea008b854200840f72008d
:100a200002003b0060001000e08018006011b80078
:100a30000005eb007a28e1000a0039000600780082
:100a4000c75ddd00f707b200878075002d00370015
:100a5000828171000a017800610560008180d10007
:100a60000080d3008502e900f9ff3b000604400046
:100a70008784480002003b0060041400e0841c00ee
:100a80000988a300070032008a8171008281710009
:100a9000610164008904d1000884d3008b05e8005b
:100aa000170037000978a30013003a000b00e0009c
:100ab000130034008b05e9000804440089844c00cd
:100ac0000a4474000978a3000d003a000b00e0000e
:100ad000070034008b05e9000804440089844c00b9
:100ae00001003a000b0020000978a300f7ff320054
:100af0000001eb0002003700828171000a017800da
:100b0000d00007000cf0a70001f0a0001901370089
:100b10006420e10002003a00838f6c001901330069
:100b20000801be000200be0012013700889fbe000f
:100b30008a9fbe008c1f7800fd000700040133006f
:100b400003866c006450e1002e0032006420e10056
:100b5000330032006150e1002f0032006120e100db
:100b60003100320085855500eb07b00009002000f8
:100b700008042000050037000804440089844c0064
:100b80000a0031000603430087834b000001530035
:100b900081815b00f8ff33000203be000800a00063
:100ba0000804440089844c00f6ff3900c639dd0092
:100bb0008301730001003200130020008904d1007a
:100bc0000884d3000998a300050032000800a7009c
:100bd0000300a0008904d1000884d3008b05e8003d
:100be0008904d1000884d3000001eb000281d20007
:100bf0009400070001f0a1000cf0a70001f0a00094
:100c0000dc0037006420e100de0032000801be0095
:100c10000200be00f7ff37006120e100d90032007a
:100c20006000b800f3ff37000000200001f8270043
:100c3000f0ff370014002000e4033700f4ff2f001a
:100c4000e20337000001be00a40007000470a70003
:100c500003f0a1006509b100160032000d00350057
:100c60006828e10006003500f0ff2f00f1ff2700a3
:100c70000300e00013003b00010028000000050015
:100c800000004000818048008502e900fcff3a0036
:100c900008003700f88f420002003c008000eb00a3
:100ca000000005008100d1000080d3008502e8002b
:100cb000fcff3a000300e00002003b00600010006f
:100cc000e0801800000006000001be00830007005d
:100cd0000470a70003f0a10003f8a30013003a007a
:100ce0006509b10010003200090035006928e100f3
:100cf000020035000100280000000500000040004f
:100d0000818048008502e900fcff3a0000000600ef
:100d1000f88f4200050035008100d1000080d3002b
:100d20008502e800fcff3a00000006008000eb00ae
:100d300000000500881f7800030478000300e0002d
:100d400007003d0060001000e080180060011900fd
:100d5000e081190002003b0001f02d000300370084
:100d60000700070008f0a70001f0a0004f0478007a
:100d7000000006004f89de0082017800edff370099
:100d8000889fbe008a9fbe0000827000040271002e
:100d900004827100260032000004be000200be0082
:100da0006011b8006b092000950220000182cf007d
:100db0000a0039000541b1000082cf000700390068
:100dc0000541b1000982cf00040039000541b1009e
:100dd0000882cf00010039000541b10005425200f0
:100de000120032000a003b00828171006101640040
:100df0008100d1000080d3008984d3000884d3000f
:100e00008b05e8000442e800f7ff3a0007003700ce
:100e10000804440089844c00000048008180480098
:100e20008b05e9000442e900f9ff3a0005000700dc
:100e30004f05be004f04be00000006006011b80060
:100e4000cfff370081002000618055000b003d007e
:100e50000b00200061fe2f000100e1001d003400a6
:100e600082817100610164008904d1000884d3008b
:100e70000000e800faff3a00710020006100640001
:100e800003007000020060000900320061044400a9
:100e9000e0844c000988a500050032008b05e800bd
:100ea0006808e10002003a008904d1000884d300f8
:100eb000f20f20000258e10005003d00c75ddd0093
:100ec000f907b2008980750008007800000006006c
:100ed0000bf827008b00780000000500c70ade0031
:100ee000f107b200f50fb20008003200e1cf420076
:100ef000020032000170a00024000500810f700084
:100f0000010032000408050044000500810f700054
:100f100002003a00140005008502e90000004000cc
:100f200081c04800fcff3b000170a00024000500c8
:100f30000004be00e9ff07000003be000405be0078
:100f40000200be00e5ff0700844f750000000600a8
:100f50000200be006450e100050036006420e1009c
:100f6000020036000968a30001003a000800be0034
:100f70000160a0004f0678004f05be004f04be0080
:100f800000000600f0ff2f00f1ff2700f9ff3700f7
:100f9000889fbe008a9fbe008c1f7800e4ff070078
:100fa000ebff330003866c006450e1002400320044
:100fb0006420e100270032006150e100220032008d
:100fc0006120e100210032008b854200eb07b10077
:100fd0000134b800003ab8000804420089844a008d
:100fe000013ab8000030b8008880400009014a008a
:100ff00004003300000040008180480002014900e5
:101000008b05e900c909dd00830170000100320091
:1010100013002000c814de004814dd004709de007c
:101020001200b200c808de000884700085ff0700c7
:1010300001f0a1000cf0a70001f0a000cdff3700e7
:101040006120e100cfff32000801be000200be00b7
:10105000f7ff37006150e100fcff3a00c9ff37009d
:101060000c00fa00889fbe008a9fbe008c9fbe00c5
:10107000afff07000206be00840578000200be0034
:1010800002002000aa02070005003a008b02b3000c
:1010900012002000a602070001003a00f8856d004a
:1010a0000c01be00c60007000800be009b00320015
:1010b0000b08a3009e003a000df0a7000be0a00073
:1010c00009f0a7000bf0a00009f0a1000801be0084
:1010d000bb0007000bf0a6009500320001003c00a9
:1010e0000bd0a0008acf7500b20033006000b800ba
:1010f0006250e10099003900a1003e000b28a300d6
:10110000a2003a000bf8a300060032000b58a3001f
:10111000a70032000801be00a90007000800be00b9
:10112000940032000800be00120207000004be0056
:10113000050578000bf0a7000b30a6000bf0a1000e
:101140005b079800324f200053f32300b9fe0700dd
:1011500005003d000800be0012002000b602070096
:101160000004be000a05e9004a0798006150b90072
:1011700000ff0700008fbe000c01be0084ff0700c7
:10118000b0fe0700300798000100e00002003d00bb
:1011900060001000e0801800f2ff2700820f50006e
:1011a000e08f580064003e000c00be00a5fe070062
:1011b00020079800f2072000820f5000e08f5800af
:1011c00005003c0012f82f00f3ff2f00820f5000a3
:1011d000838f580009003d000a00e0000300320040
:1011e00001003c000201ea00020578006000b8003e
:1011f000200798003a079800190037003e00900039
:101200006100b900dbfe0700809fbe000c00be003d
:101210004109dd004811de007208b10044020700f8
:101220000005be001e01be0059ff07004f01be00b1
:10123000e0fd0700809fbe000c00be000a01be005a
:10124000dcfd07001e01be0051ff07004f01be007c
:10125000d9fd07008221270013f323004cff07006c
:101260000005be002e0090006100b900c1fe07001d
:1012700001f0a2000c01be00cffd07000006be0079
:101280000800be008e0207000c01be0040ff0700f0
:101290000a01be00c8fd0700809fbe004a0007008b
:1012a0002e0590000af0a7000a05ea0005003700a5
:1012b0000800be000801be0035ff07000004be00a4
:1012c0000c00be000801be000a00a70030ff0700a6
:1012d0000006be000a05d100f5ff3a005e0190004d
:1012e00002e0a600030037000001be003600070040
:1012f0000efe07000004be004f00be00aa0107005a
:101300000801be0022ff07003e0190004a020700cc
:10131000de0590000bf0a70001f0a2004f06be0012
:101320004f05be004f04be000080fa00000006001a
:1013300025000700f9ff3700270007006000b8000c
:101340000bd0a7000bc0a0000be0a7000bc0a200b1
:101350000bc0a70001f82700f0ff37000df8a3002d
:10136000020032001e000700190007000bf8a3005e
:10137000eaff32000b30a70001f0a200e7ff3700c0
:101380000df8a300f9ff3a00f7ff37000801be008f
:101390000b000700e6ff320001003c000df0a20048
:1013a0006000b8000df0a70009000700dbff370060
:1013b0000b000700f1ff2700f0ff2f00d7ff3700d9
:1013c000010007001bfe370001f8230000000500a4
:1013d00001f827000000050020022000010037006e
:1013e000100220007081880000000600889fbe0067
:1013f0008a9fbe008c1f78000004be00b7fe070065
:101400000478a30026003a006120e10025003200a4
:1014100009f8a30025003a006420e1002100320011
:10142000f507b1000508a3000200320000004000eb
:10143000818048006044b8000310200002002000b2
:1014400000004000818048000805440089854c0068
:101450000a0541008b8549000a0550008b8558001c
:10146000030033000a00be00020474008384740089
:101470008301d1000281d300830f7100f0ff3a0095
:101480008904d1000884d3006001490082017800fa
:10149000c1adde00fb07b0006afe0700b5fe3700f5
:1014a0000960a0000800be00b2fe37001202200052
:1014b00072818800f0ff2f00f1ff2700adfe37009a
:1014c000889fbe008a9fbe0030044200b0844a005c
:1014d00030054b0090854b006000b1000898be00bd
:1014e0000a90be000440e10005c8e10006d0e1001a
:1014f00007d8e10002003100680040001008e80051
:101500004f05be004f04be0000000600889fbe00cd
:101510008a9fbe001004780090049000200590007f
:10152000b00590000418540005985c0006185d0092
:1015300007985d00110020000440e10005c8e100ab
:1015400006d0e10007d8e100010039008000eb007f
:10155000108810004f05be004f04be0000000600ba
:101560001200fa00889fbe008a9fbe008c9fbe00ba
:10157000e0b79f00f1b79f0082bf9f0093bf9f001d
:101580000605be000404be000000eb00d0b79f00bb
:10159000c0b79f00b0b79f00a0b79f0090b79f0053
:1015a000000678005fb19700cfb09700820141003c
:1015b0003fb097000200e00004003d003700070044
:1015c0007e805700beff070003003700330007008e
:1015d0007e805700cdff0700dfb697000d00e000ca
:1015e0000c0035006fb29700ffb297000fbb970059
:1015f0009fbb970010002000010020006011b80080
:101600000002720081827200020373008383730000
:101610001b0007000c06e80001042000810f5600a3
:10162000e0ff3a000d00e00004003d000802be00ab
:101630000a03be007e805700a1ff07005fa8970045
:101640000000e00005003a001fb29700afb297001b
:101650003fb39700cfb39700090007006fb0970022
:10166000ffb097000fb997009fb997004f06be00d3
:101670004f05be004f04be000080fa0000000600c7
:101680000100070000000600a4b79f00b5b79f0047
:10169000c6b79f00d7b79f00000006004f09de00c5
:1016a00082817100b3b79f004f01de00818040004e
:1016b00082807000a1b79f008fb097004f09de00b5
:1016c000000040000200700090b79f007fa89700c4
:1016d0004f01de00818040008280700081b79f0052
:1016e0000d0007004f3ade000000400004007000cb
:1016f000f0af9f00080007000402420085824a0004
:1017000006034b0087834b00dfff07000802be0083
:101710000a03be00000006002fb29700bfb2970078
:101720004fb39700dfb3970000000600881f7800d2
:1017300018002000881f780089ff07008f87e900c4
:101740004f04780000000600801feb0084ff0700b4
:101750008f87e90000000600889fbe008a9fbe00b8
:10176000e00f5000e08f5800e00f5900e08f590063
:101770000c003d006044b8006055b8000000540003
:1017800081805c0002015d0083815d001800200003
:101790001500070008003d00180007000004eb00da
:1017a000050037000004eb000f00070002003d00b9
:1017b0001200070018002000dcff07000800e0000e
:1017c000060032006022b8006033b800000052000a
:1017d00081805a0002015b0083815b004f05be00df
:1017e0004f04be0000000600e00f5200e08f5a00d8
:1017f000e00f5b00e08f5b00000006006044b80073
:101800006055b8000402540085825c0006035d0048
:1018100087835d0000000600889fbe008a9fbe008f
:101820008c1f7800e00f5000e08f5800e00f590047
:10183000e08f59000d003d006044b8006055b800cd
:101840000000540081805c0002015d0083815d0026
:101850001c0020000820e10009a8e1000ab0e10016
:101860000bb8e1000d003d00080037000006eb005a
:10187000e00f5200e08f5a00e00f5b00e08f5b004a
:1018800006003d006044b8006055b80004025400f2
:1018900085825c0006035d0087835d00aaff070068
:1018a0000c00e000060032006022b8006033b8008f
:1018b0000000520081805a0002015b0083815b00be
:1018c0004f0678004f05be004f04be000000060022
:1018d000889fbe008a9fbe008c1f78000006eb0028
:1018e000e00f5000e08f5800e00f5900e08f5900e2
:1018f00007003d006044b8006055b8000000540087
:1019000081805c0002015d0083815d001c0020007d
:10191000e00f5200e08f5a00e00f5b00e08f5b00a9
:1019200007003d006044b8006055b8000402540050
:1019300085825c0006035d0087835d000c00a200c9
:10194000360107000c00e000060032006022b800fb
:101950006033b8000000520081805a0002015b0031
:1019600083815b004f0678004f05be004f04be0028
:10197000000006000003be0058fd07006220e100e1
:10198000020032000600be0005000500e507b100b8
:10199000f107b20004f023008480700007f0a70074
:1019a00001f0a00024000500889fbe008a9fbe00b1
:1019b0008c9fbe000004be0048fd07000800be006a
:1019c0006420e10048003e005500320072212700eb
:1019d000132b240099fc070047003c000800be00c0
:1019e000c2ec2800e32c2c0092fc070047003500d5
:1019f0000800be0001f0a10002002000033823000f
:101a00008cfc0700430035000800be00b2a32a008a
:101a100083fb23005efd07000200200003f023008b
:101a200001f0a70003f0a000e3fb070085fc07001e
:101a30000005be00cffc070001f0a2000006be00ba
:101a40000200280013f3230051fd07000801be0027
:101a5000d9fb0700809fbe000c00be0032082800a2
:101a6000e3952b004afd07004f01be00d2fb0700a3
:101a70000006be000001be0045fd0700809fbe00bd
:101a80004241250083b8230041fd070002002000e9
:101a900003e82300c8fb07000c01be003cfd070063
:101aa0000006be004f00be00f2f92b00c3d4230095
:101ab00037fd07000200200003f02300befb0700f3
:101ac0000c01be00bbfb07000001be000c00be0005
:101ad00016fc07000200200003f02300b6fb0700fd
:101ae00061014500540007004f06be004f05be00cf
:101af0004f04be000000060001f82700000020008f
:101b00002202200072818800f7ff37006000b800d1
:101b1000fbff370001f8230000002000f2ff370030
:101b200009f8a300f0ff32006000b800eeff3700b4
:101b3000889fbe008a9fbe000003be00e7fc07002e
:101b40008505780082815200020020006220e100b9
:101b500004003a00f307b100040035007718e100f3
:101b6000040035000600be00140037006000b80015
:101b70000f003700f50f2000faff2f008502d1007b
:101b80000a85d3008301e900fcff3b0081846200e9
:101b900000046500890f7400f2ff32008582ea00bc
:101ba0000a85ea008184620000046500a5fc070044
:101bb00007f0a70001f0a0000081eb000200e000a8
:101bc0004f05be004f04be0000000600889fbe0007
:101bd0008a9fbe00841f7800d5fc07004f00780064
:101be00011003300f0ff2f00838f6c0006003b00d4
:101bf000040565000a00a7000800370009f0a600e8
:101c00001000200008003700820f5400838f5c0012
:101c1000030039001000200001003e0000002000f9
:101c200009f0a7000000ea004f05be004f04be0007
:101c30000000e000000006000003be00a7fc070053
:101c40006220e100020032000600be000000060033
:101c500085024100e30f20000328e10005003c005d
:101c6000a3fe2f000328e10007003d00050020002f
:101c700001003700f50f200020022000708188004d
:101c80006000b80008003700130020008381520074
:101c900005003d008100d1000080d3008301e800f1
:101ca000fcff3a0005002000c72add00f107b20062
:101cb0008580700007f0a70001f0a000000006007a
:101cc000889fbe008a9fbe008c9fbe0029ff070030
:101cd000850478000005be006420e10049003e0054
:101ce0006220e10003003200090035000bf8a30078
:101cf000440032000bf8a30008003200100220005c
:101d000070818800f0ff2f00f1ff27003d003700b1
:101d100001f82f00000020003a0037003d000700c6
:101d200024fb07000006be000a00be00324f200060
:101d300053f32300c1fb0700060034000c00be0073
:101d4000340007001bfb07000006be000a00be00af
:101d5000020037008904e9000c00be002d000700d6
:101d60008bfc07002b00070013fb07000001be00df
:101d70000c00be006dfb07000005be000001be00a8
:101d800083fc07000006be00a2f32300430d2c00d5
:101d900009fb0700809fbe000c00be00d2e32700b5
:101da000d3f02b007afc07004f01be005ffb070059
:101db0000006be000a01be0075fc07000a01be0055
:101dc000fdfa07000006be006148b900e9fb070004
:101dd0000005be0032082800e3952b006cfc0700cc
:101de0000c01be00f4fa07000006be000a00be00a7
:101df0000200280013f3230065fc07000c01be005d
:101e0000edfa07004f06be004f05be004f04be00ae
:101e10000000060003f0230002000500889fbe00ba
:101e20008a9fbe008c9fbe000404b8000506b8005f
:101e30008904460060854e000606b8000a05460083
:101e4000e0854e000706b8008b054600040eb8007a
:101e5000890446000a854e00e0854d00050eb80055
:101e60000a0546008b854e00060eb8008b0546001d
:101e70000416b8000a0546008b854e000516b8000a
:101e80008b054600041eb8008b0546000800be0006
:101e90000a01be004f06be004f05be004f04be0043
:101ea00000000600889fbe008088b900800478008a
:101eb000090078003d000700000478000800e000f9
:101ec00004003200090178008000eb00080078006f
:101ed00060000700080078004f04be000000060004
:101ee000889fbe0000047800b18a80000100e000f5
:101ef00002003200010078000d003700c18a800026
:101f00008015210004003700910f54002500360091
:101f10000180e800910090000100e000faff3a0023
:101f200010003700920f54001e0036000280e800b7
:101f3000100178000200e000faff3a001101780079
:101f4000c18a80008015210004003700910f5400e1
:101f5000140036000180e80091009000828f50004c
:101f6000faff3a00d98a8000888f540001003100be
:101f700088047800090078003d0007000000e000b8
:101f800004003a00888f5400050032008904d10013
:101f9000f5ff3700091878003f000700d2ff37002f
:101fa0000000eb004f04be0000000600881f780010
:101fb000630440000800a1008000eb00800f540083
:101fc00021003600e30f540001003e0048002000cd
:101fd00008007800c2ff07008000eb000000e0006e
:101fe000190032009000780091017800648151005e
:101ff000880f5100030031001101900002087800a1
:102000000700370008814000020878009101900025
:102010001301980010017800110914008808780055
:10202000100178000000eb000200e0000400320024
:10203000920190000300e000010032000280e800fd
:10204000b08a88008180e800010078004f047800a1
:1020500000000600800178000200370081597800f6
:102060000201e9000200e000fcff3a000000060067
:10207000800078000000eb000100e0000500340063
:102080000100780029fa0700e10f400001003a0042
:102090000000eb00000006000000e0002f0032000e
:1020a000c0017800e38f51002c0036000308a30024
:1020b0002a003a00c18a80000100e00002003200dc
:1020c000810f50000400310011009800c08a880080
:1020d0001600370082007800110190000200e00035
:1020e00002003200800f5100faff3900110278001f
:1020f00084824000850f500018003900808f520004
:1021000003003a008308420001007800070037000e
:102110000200e0000300320083014000830f510001
:102120000e00390012009800900098009000900076
:102130000100e0000900320010014000828f5000d1
:1021400006003a00621521000009eb00100178003a
:102150001108410091009000110098000000060055
:020000040000fa
:0200000401f009
:04000800cfff000026
:020000040000fa
:04006800fa02000098
:020000040000fa
:0400ec009e0300006f
:020000040000fa
:040054004004000064
:020000040000fa
:0200000401f009
:04002000cfffff000f
:020000040000fa
:0200000401f009
:04001c00dfffff0003
:020000040000fa
:0200000401f009
:04001800efffff00f7
:020000040000fa
:0200000401f009
:040014007fffff006b
:020000040000fa
:0200000401f009
:04001000beffff0030
:020000040000fa
:0200000401f009
:04000c00fbffff00f7
:020000040000fa
:10216000c3b80000323f0000000000000000000083
:0c2170004e690000636500000a000000da
:020000040000fa
:10217c006c00fa00889fbe008a9fbe008c9fbe0038
:10218c000005be000206be0084b79f0095b79f00f5
:10219c00a6a79f00b7a79f00d0898000e189800087
:1021ac0080af9f0091af9f00f2898000038a80006e
:1021bc00a2af9f00b3af9f00108a8000218a8000dd
:1021cc00c0af9f00d1af9f00328a8000438a80004d
:1021dc00e2af9f00f3af9f000a01be000a00be00f1
:1021ec0068fb07000004be000c01be000c00be0022
:1021fc0064fb07000001be000800be00ebf90700fd
:10220c000004be000fb197009fb197000200be0002
:10221c005cfb07000001be000800be00e3f90700ec
:10222c006ffc07000004be006011b8007efa0700c6
:10223c000000e0007f0432003f399700cf3997004f
:10224c000200be004ffb0700c0b79f00d1b79f0034
:10225c001f399700af3997000200be0049fb0700f9
:10226c000001be004fb09700dfb09700cff9070018
:10227c00c0b79f00d1b79f007f3197008f3997006f
:10228c000200be003ffb07000001be004fb09700ec
:10229c00dfb09700c5f9070051fc0700c0b79f00dd
:1022ac00d1b79f006011b8005ffa07000000e00092
:1022bc00600432000fa997009fa997000200be008e
:1022cc00baf90700e0979f00f1979f002fa997009c
:1022dc00bfa997000200be00b4f90700a0979f00a9
:1022ec00b1979f004fa99700dfa997000200be008d
:1022fc00aef9070080979f0091979f006fa99700f8
:10230c00ffa997000200be00a8f90700808f9f006c
:10231c00918f9f000fa997009fa997000200be0004
:10232c0018fb0700e09f9f00f19f9f002fa99700cb
:10233c00bfa997000fa897009fa8970011fb070053
:10234c00c0979f00d1979f004fa99700dfa99700d6
:10235c000fa897009fa897000afb0700e0879f0033
:10236c00f1879f002fa99700bfa997000200be001c
:10237c0004fb070080a79f0091a79f006fa99700ff
:10238c00ffa997002fa89700bfa89700fdfa070098
:10239c00c09f9f00d19f9f004fa99700dfa9970076
:1023ac000200be00f7fa0700c0a79f00d1a79f004c
:1023bc006fa99700ffa997000200be00f1fa070071
:1023cc00a09f9f00b19f9f000801be00000020004d
:1023dc0001f82300d2f90700a08f9f00b18f9f0056
:1023ec004fb19700dfb197000000200001f82300e7
:1023fc00cbf907000004be000001be003f38970077
:10240c00cf389700dffa0700e0a79f00f1a79f00e5
:10241c000801be001f389700af389700d9fa0700a3
:10242c00c0b79f00d1b79f000801be007f30970056
:10243c008f389700d3fa0700a0b79f00b1b79f0061
:10244c006fa19700ffa197006f909700ff909700e6
:10245c00ccfa0700e0b79f00f1b79f004fb197008f
:10246c00dfb197006f909700ff909700c5fa0700b7
:10247c00809f9f00919f9f002fb19700bfb1970045
:10248c006f909700ff909700befa070080bf9f00e7
:10249c0091bf9f006fa19700ffa197002f9097000d
:1024ac00bf909700b7fa0700e08f9f00f18f9f0055
:1024bc006f999700ff9997006fa09700ffa0970066
:1024cc00b0fa07000004be006fa99700ffa997009f
:1024dc000f9897009f989700aafa07000001be007a
:1024ec000800be0030f907000004be004fa9970099
:1024fc00dfa997000fb897009fb89700a1fa0700c3
:10250c000001be000800be0028f907000004be0050
:10251c000fa197009fa197006fa09700ffa09700b5
:10252c0098fa07000001be000800be001ff9070062
:10253c000004be004fb19700dfb197002f909700b9
:10254c00bf9097008ffa07004fa99700dfa997005b
:10255c008cfa07000001be000800be0013f907004a
:10256c000004be002fb19700bfb197002f909700c9
:10257c00bf90970083fa07006fa99700ffa99700f7
:10258c0080fa07000001be000800be0007f9070032
:10259c000004be004fa19700dfa197006fa0970029
:1025ac00ffa0970077fa07000001be000800be00ec
:1025bc00fdf807000004be002f999700bf99970003
:1025cc006fa09700ffa097006efa07000001be00f5
:1025dc000800be00f4f80700c08f9f00d18f9f0049
:1025ec006fa99700ffa997006fb09700ffb09700f5
:1025fc0064fa07000004be006f999700ff999700da
:10260c004fb09700dfb097005efa07000001be00e4
:10261c000800be00e5f807000004be002fa99700d3
:10262c00bfa997000fb897009fb8970055fa0700fd
:10263c000001be000800be00dbf807000004be006d
:10264c004fa99700dfa997006f889700ff88970024
:10265c004cfa07000001be000800be00d3f80700ca
:10266c000004be000fa197009fa197004fb09700e8
:10267c00dfb0970043fa07000001be000800be005f
:10268c00c9f807000004be004fa19700dfa1970016
:10269c004fb09700dfb097003afa07000001be0078
:1026ac000800be00c1f807000004be002fb197005f
:1026bc00bfb197000f9097009f90970031fa0700d9
:1026cc006fa99700ffa997002efa07000001be0022
:1026dc000800be00b5f807000004be002f99970053
:1026ec00bf9997004fb09700dfb0970025fa07000d
:1026fc000001be000800be00abf807000004be00dd
:10270c004f899700df8997000200be001dfa070071
:10271c0080bf9f0091bf9f000801be000800be0053
:10272c0018fa07000001be000fb897009fb8970079
:10273c009ef807002afb070080bf9f0091bf9f00f7
:10274c006fb09700ffb0970001f0a2004fa997005f
:10275c00dfa997000bfa07000004be002fa9970011
:10276c00bfa997000f9897009f98970005fa07004c
:10277c000001be000800be008cf807000004be007b
:10278c006f999700ff9997002fb09700bfb09700f3
:10279c00fcf907000001be000800be0083f807002a
:1027ac000004be006fa99700ffa997006f889700df
:1027bc00ff889700f3f907000001be000800be0077
:1027cc007af807000004be000fa197009fa19700a4
:1027dc002fb09700bfb09700eaf907000001be00c8
:1027ec000800be0070f807000004be004fb197004f
:1027fc00dfb197000f9097009f909700e1f90700c9
:10280c006fa99700ffa99700def907000001be0031
:10281c000800be0065f807000004be004fa1970039
:10282c00dfa197002fb09700bfb09700d5f9070034
:10283c000001be000800be005bf807000004be00eb
:10284c002f999700bf9997002fb09700bfb09700b2
:10285c00ccf907000001be000800be0053f80700c9
:10286c000001be00e0b79f00f1b79f004ff80700d2
:10287c00e08f9f00f18f9f004f999700df99970091
:10288c000200be0049f807000004be006f919700db
:10289c00ff9197004fa89700dfa89700b9f90700a0
:1028ac000001be000800be003ff807000004be0097
:1028bc002f899700bf8997000a00be00b1f9070065
:1028cc000001be000800be0037f80700e09f9f0023
:1028dc00f19f9f004f919700df9197000200be007f
:1028ec0032f807000004be000f9197009f919700eb
:1028fc006fa89700ffa89700a2f907000001be007f
:10290c000800be0029f807000004be002f899700bc
:10291c00bf8997000c00be009af907000001be00a9
:10292c000800be0020f80700809f9f00919f9f0029
:10293c004fa99700dfa997006fb09700ffb09700e1
:10294c0090f90700c08f9f00d18f9f004fa1970077
:10295c00dfa197000000200001f0230012f807000f
:10296c002f999700bf9997000ff807000fb99700a0
:10297c009fb9970083f907000004be006f81970090
:10298c00ff8197004f989700df98970006f8070093
:10299c006fb19700ffb197007af907000001be00f4
:1029ac000800be0001f807006fa19700ffa1970077
:1029bc00fdf70700e0a79f00f1a79f000fb8970055
:1029cc009fb8970001f0a200a09f9f00b19f9f00ad
:1029dc002fa99700bfa997006fb09700ffb0970081
:1029ec0068f90700c0879f00d1879f004fa9970007
:1029fc00dfa997002fa89700bfa8970061f90700df
:102a0c000004be006fa99700ffa997000fa89700bc
:102a1c009fa897005bf907000001be000800be00ec
:102a2c00e1f707000fb997009fb9970055f9070018
:102a3c000004be006fa99700ffa997004fa897004c
:102a4c00dfa897004ff907000001be004f909700d8
:102a5c00df909700d5f707006fb19700ffb1970093
:102a6c0048f907000001be000800be00cff70700c0
:102a7c004fb19700dfb19700cbf70700c0b79f00ad
:102a8c00d1b79f004fa99700dfa997000fb8970007
:102a9c009fb897003bf907000005be004f999700bf
:102aac00df9997006f809700ff809700bff70700b2
:102abc000fb997009fb9970032f907000004be00c8
:102acc000fa197009fa197000000200001f02300a8
:102adc00b5f707004fa19700dfa19700b2f70700e9
:102aec006fb19700ffb1970026f907000001be00f7
:102afc000800be00adf707002fb19700bfb19700db
:102b0c00a9f707000006be000f9097009f90970052
:102b1c0001f0a2006f999700ff99970019f907002f
:102b2c000004be002f919700bf9197000f9897005b
:102b3c009f98970013f907000001be000800be0023
:102b4c009af707000004be006fa19700ffa1970041
:102b5c004f889700df8897000af907000001be0034
:102b6c000800be0090f707000004be006fa9970094
:102b7c00ffa997002f989700bf98970001f90700bd
:102b8c004f819700df81970088f707004fb19700be
:102b9c00dfb19700fbf807000001be000800be0083
:102bac0082f707000004be000c01be000a00be0044
:102bbc00f4f807000001be000800be007bf7070018
:102bcc00a0b79f00b1b79f000fa197009fa19700de
:102bdc000200be0075f707000001be0000002000d7
:102bec0001f8230070f707000004be004fa1970006
:102bfc00dfa197000200be006cf707000001be00c9
:102c0c000800be0068f707000004be002f8997007b
:102c1c00bf8997000fb097009fb09700d9f80700b5
:102c2c000001be000800be005ff70700c0a79f00b0
:102c3c00d1a79f006fa99700ffa997006fb09700cd
:102c4c00ffb09700cff8070080a79f0091a79f00c7
:102c5c000fa997009fa997006fb09700ffb097003e
:102c6c00c8f80700c09f9f00d19f9f006f999700e5
:102c7c00ff9997000f8897009f889700c1f807006d
:102c8c000004be000f9997009f9997006f909700d2
:102c9c00ff909700bbf807000001be000800be00c3
:102cac0042f707000004be000200200003082400c5
:102cbc002fa89700bfa89700b2f807004fa1970064
:102ccc00dfa19700aff807000001be000800be00ae
:102cdc0035f707000004be000fa197009fa19700d5
:102cec006fa09700ffa09700a6f807000001be0098
:102cfc000800be002df707000004be004f99970096
:102d0c00df9997000a00be0028f707000001be00fb
:102d1c004fb09700dfb097009af807000001be0093
:102d2c000800be0021f707000005be006fa9970040
:102d3c00ffa997000fb897009fb8970091f807006c
:102d4c000004be002fa99700bfa997006f889700b9
:102d5c00ff8897008bf807000001be000800be003a
:102d6c0011f707000001be000c00be0085f807003b
:102d7c000001be000a00be000cf7070080b79f00e0
:102d8c0091b79f000fb997009fb997000200be0042
:102d9c0006f707000001be0003f0a200e2b79f0097
:102dac00f3b79f002fa99700bfa997000fb8970002
:102dbc009fb8970073f80700c0979f00d1979f00aa
:102dcc006f919700ff91970003f0a2006f98970006
:102ddc00ff9897006bf807000004be000f9997004e
:102dec009f9997000f8897009f88970065f80700b8
:102dfc000001be000800be00ecf607000004be0097
:102e0c0002002000030824004fa89700dfa89700b9
:102e1c005cf807000001be004fa09700dfa09700f0
:102e2c0058f807000001be000800be00def60700df
:102e3c000004be004fa99700dfa997006fb0970060
:102e4c00ffb097004ff807004f999700df99970054
:102e5c00d5f607000001be006fa09700ffa09700f9
:102e6c0048f807000001be000800be00cff60700be
:102e7c000004be004f919700df9197000fa09700c0
:102e8c009fa09700c9f607000001be004fb0970045
:102e9c00dfb097003bf807000001be000800be0041
:102eac00c2f607000005be000fa997009fa9970066
:102ebc000fb897009fb8970032f807000004be00c7
:102ecc004fa99700dfa997006f889700ff8897009c
:102edc002cf807000001be000800be00b2f6070087
:102eec000001be000c00be0026f807000001be0069
:102efc000a00be00adf6070080bf9f0091bf9f0087
:102f0c006f999700ff9997002f909700bf909700ab
:102f1c001cf807000004be000f9997009f999700ba
:102f2c000f9097009f90970016f807000001be00c5
:102f3c000800be009df607000004be006fb19700ac
:102f4c00ffb197006fa89700ffa897000df8070036
:102f5c000001be004f809700df80970093f60700ba
:102f6c000001be006fa09700ffa0970005f80700b6
:102f7c000001be000800be008cf607000004be0075
:102f8c002f999700bf9997000fa897009fa89700bb
:102f9c00fcf707000001be004f889700df88970000
:102fac0082f607000001be004fb09700dfb097001b
:102fbc00f4f707000001be000800be007bf6070016
:102fcc000004be004f919700df9197000c00be00eb
:102fdc00ecf707000001be000800be0073f6070006
:102fec00e0b79f00f1b79f002fb19700bfb19700da
:102ffc000200be00e3f707000004be000fb197000b
:10300c009fb197000200be00def707000001be0072
:10301c000800be0065f607000004be000fb997005b
:10302c009fb997000200be00d6f707000001be0052
:10303c000800be005df607000004be006fb19700eb
:10304c00ffb197000200be00cef707000001be00e2
:10305c000800be0055f60700e1f807000001be00ad
:10306c000000200001f82300adf607000005be00ab
:10307c003c8180004d8180002fa89700bfa897004d
:10308c0001f0a2002fa19700bfa19700bdf7070088
:10309c000004be007f3997008f8197004fa89700de
:1030ac00dfa89700b7f707000001be000800be00bc
:1030bc003df607000004be005f399700ef3997001a
:1030cc006fa89700ffa89700aef707000001be009d
:1030dc000800be0034f607000200200003f02300b5
:1030ec00a8f707000004be000a01be002fb097002d
:1030fc00bfb09700a3f707000001be000c00be0094
:10310c00a0f707000001be000800be0026f607006d
:10311c005f319700ef3197009af707000fa99700de
:10312c009fa9970021f60700a0b79f00b1b79f0099
:10313c00c0b79f00d1b79f002fa19700bfa19700e8
:10314c000fa897009fa897008ef707000004be00f9
:10315c005f399700ef3997004fa89700dfa89700c9
:10316c0088f707000001be000800be000ff607003c
:10317c000004be007f3997008f8197006fa89700dd
:10318c00ffa897007ff707000001be000800be00f3
:10319c0005f607000200200003f0230079f7070072
:1031ac000004be000a01be000fb097009fb097004c
:1031bc0074f707000c01be0072f707000001be0097
:1031cc000800be00f8f507005f319700ef3197005b
:1031dc006cf707002fa99700bfa99700f3f507001c
:1031ec0080b79f0091b79f00c0a79f00d1a79f00f9
:1031fc007f3997008f8197000fa897009fa89700a1
:10320c0060f707000004be005f399700ef399700a4
:10321c002fa89700bfa897005af707000001be001f
:10322c000800be00e0f507000004be002fa19700c7
:10323c00bfa197006fa89700ffa8970051f7070050
:10324c000001be000800be00d8f5070002002000f7
:10325c0003f023004bf707000004be000a01be0078
:10326c000fb897009fb8970046f707000c01be00f7
:10327c0044f707000001be000800be00caf50700b5
:10328c005f319700ef3197003ef707004fa9970089
:10329c00dfa99700c5f5070080bf9f0091bf9f0075
:1032ac00e0a79f00f1a79f005f399700ef399700c7
:1032bc000fa897009fa8970032f707000004be00e4
:1032cc007f3997008f8197002fa89700bfa8970090
:1032dc002cf707000001be000800be00b3f5070084
:1032ec000004be002fa19700bfa197004fa8970024
:1032fc00dfa8970023f707000001be000800be00fe
:10330c00a9f507000200200003f023001df70700b9
:10331c000004be000a01be006fb09700ffb097001a
:10332c0018f707000c01be0016f707000001be00dd
:10333c000800be009cf507005f319700ef31970045
:10334c0010f707006fa99700ffa9970097f50700e2
:10335c000005be002fb19700bfb197000200be0060
:10336c0008f707000004be000fb197009fb197004b
:10337c000200be0003f707000001be000800be00fb
:10338c008af507000004be000fb997009fb997009b
:10339c000200be00fbf607000001be000800be00e4
:1033ac0082f507000004be000a01be000a00be0040
:1033bc00f4f607000001be000800be007bf5070014
:1033cc0007f807000001be000000200001f82300f0
:1033dc00d3f507000004be000001be004fb09700fb
:1033ec00dfb09700e7f60700d0898800e1898800f4
:1033fc000801be004fa09700dfa09700e1f6070080
:10340c00f0898800018a88000801be006fa097002f
:10341c00ffa09700dbf60700108a8800218a88003d
:10342c000801be000a00be00d6f60700308a8800ec
:10343c00418a88004f06be004f05be004f04be00f7
:10344c000080fa00000006006800fa00889fbe00a9
:10345c008a9fbe008c9fbe000005be000206be0007
:10346c0084bf9f0095bf9f00a6a79f00b7a79f0092
:10347c00d0898000e189800080af9f0091af9f00d0
:10348c00f2898000038a8000e2af9f00f3af9f00b7
:10349c00108a8000218a8000c0af9f00d1af9f00ae
:1034ac00328a8000438a8000a2af9f00b3af9f0096
:1034bc000a01be000a00be00b2f607000004be00fe
:1034cc000c01be000c00be00aef607000001be00f1
:1034dc000800be0035f507000004be000fb99700c8
:1034ec009fb997000200be00a6f607000001be00bf
:1034fc000800be002df50700b9f707000004be0058
:10350c006011b800c8f507000000e000be023200f0
:10351c005f399700ef3997000200be0099f607005b
:10352c00c0b79f00d1b79f003f399700cf399700a4
:10353c000200be0093f607000001be004fb09700da
:10354c00dfb0970019f50700c0b79f00d1b79f00f7
:10355c001f399700af3997000200be0089f60700ab
:10356c000001be004fb09700dfb097000ff50700c9
:10357c009bf70700c0b79f00d1b79f006011b80040
:10358c00a9f507000000e0009f0232006fa9970028
:10359c00ffa997000fa897009fa8970079f607003e
:1035ac00e09f9f00f19f9f004fa99700dfa9970014
:1035bc000fa897009fa8970072f60700c09f9f0066
:1035cc00d19f9f002fa99700bfa997000fa8970024
:1035dc009fa897006bf60700c0a79f00d1a79f007c
:1035ec006fa99700ffa997000200be0065f60700bf
:1035fc00809f9f00919f9f004fa99700dfa9970084
:10360c006fa89700ffa897005ef60700a09f9f0089
:10361c00b19f9f002fa99700bfa997006fa8970093
:10362c00ffa8970057f60700e0979f00f1979f00bf
:10363c004fa99700dfa997000200be0051f60700c2
:10364c00e0a79f00f1a79f002fa99700bfa99700a3
:10365c004fa89700dfa897004af60700c0979f0075
:10366c00d1979f002fa99700bfa997000200be0019
:10367c0044f6070080a79f0091a79f000801be0099
:10368c000000200001f8230025f507000004be000f
:10369c000001be000a00be003af60700a0979f008a
:1036ac00b1979f000801be000c00be0035f6070064
:1036bc0080979f0091979f000801be000fb897005c
:1036cc009fb897002ff60700e08f9f00f18f9f00a7
:1036dc004fb19700dfb197000000200001f82300e4
:1036ec000ff507000004be000001be005f38970014
:1036fc00ef38970023f6070080bf9f0091bf9f0013
:10370c000801be003f389700cf3897001df6070020
:10371c00a0b79f00b1b79f000801be001f389700eb
:10372c00af38970017f6070080b79f0091b79f003e
:10373c000fb997009fb997000200be009bf40700d9
:10374c000004be006fa19700ffa1970000002000ad
:10375c0001f0230094f407000fa197009fa197009c
:10376c0091f40700c08f9f00d18f9f002fb197005d
:10377c00bfb197000200be008cf407000005be002c
:10378c004fa19700dfa197002f989700bf98970043
:10379c0085f40700a08f9f00b18f9f000fb1970099
:1037ac009fb197000200be0080f407000006be0027
:1037bc004f999700df9997006f909700ff909700b3
:1037cc007af40700808f9f00918f9f004f8997009c
:1037dc00df8997000800be00eaf50700e0b79f00fc
:1037ec00f1b79f002f899700bf8997000a00be0090
:1037fc00e4f507000001be006fb09700ffb0970022
:10380c006af40700e0b79f00f1b79f000f8997009b
:10381c009f8997000c00be00daf507000001be007e
:10382c006fb09700ffb0970060f40700e0b79f00ff
:10383c00f1b79f000f9997009f9997000000200007
:10384c0001f0230058f40700e0879f00f1879f00e8
:10385c004fa19700dfa197002f989700bf98970072
:10386c0052f407000001be000800be00c5f50700b9
:10387c00c0b79f00d1b79f000fa197009fa19700e1
:10388c006f809700ff80970047f407000001be008f
:10389c000a00be00bbf507000001be004fb0970048
:1038ac00dfb0970041f40700c0b79f00d1b79f006d
:1038bc006f999700ff9997004f909700df909700b2
:1038cc0039f407000001be000c00be00adf5070086
:1038dc000001be004fb09700dfb0970033f4070033
:1038ec00c0b79f00d1b79f006fb19700ffb1970091
:1038fc000200be00a3f50700e0b79f00f1b79f00e0
:10390c004fb19700dfb197000200be009df5070094
:10391c000001be006fb09700ffb0970023f40700c2
:10392c00aff60700c0a79f00d1a79f004f99970043
:10393c00df9997006f909700ff9097001af407009b
:10394c00e0b79f00f1b79f006f999700ff99970020
:10395c004f909700df90970014f40700c0b79f00ba
:10396c00d1b79f006fa19700ffa197006f809700c0
:10397c00ff8097000cf40700e09f9f00f19f9f00d1
:10398c006fb19700ffb197000200be0007f407006b
:10399c00c09f9f00d19f9f004fb19700dfb1970050
:1039ac000200be0001f40700a09f9f00b19f9f0082
:1039bc000fa997009fa997000200be0071f50700a0
:1039cc000f9997009f999700f7f307006fa1970045
:1039dc00ffa19700f4f307000fa197009fa1970098
:1039ec00f2f3070080a79f0091a79f004fa19700bb
:1039fc00dfa197000200be00ecf30700e0a79f00d8
:103a0c00f1a79f006fb19700ffb197000800be00af
:103a1c005cf507000004be004fb19700dfb19700c2
:103a2c000a00be0057f507000001be000800be00ea
:103a3c00def307000004be006f999700ff99970012
:103a4c000c00be004ff507000001be000800be00d0
:103a5c00d6f307000001be00d4f307000004be003b
:103a6c006fa19700ffa197004f889700df88970000
:103a7c0044f507000005be000801be006fb09700ba
:103a8c00ffb097003ff507000001be000a00be0022
:103a9c00c6f30700c0a79f00d1a79f006fa1970096
:103aac00ffa197002f889700bf88970035f5070076
:103abc000005be000801be004fb09700dfb09700b4
:103acc0030f507000001be000a00be00b7f3070086
:103adc00c0b79f00d1b79f006fa19700ffa19700bf
:103aec000f8897009f88970026f507000005be00f9
:103afc000801be006f989700ff98970021f507000a
:103b0c000001be000a00be00a8f30700e0a79f005a
:103b1c00f1a79f006066b8005c8a88006d8a8800f7
:103b2c007c8a88008d8a88009c8a8800ad8a8800ef
:103b3c000fa197009fa197000f9097009f9097005f
:103b4c0010f507000004be002f999700bf9997004d
:103b5c006f889700ff8897000af507000001be00e8
:103b6c000800be0090f307000005be006fa197008f
:103b7c00ffa197002fb09700bfb0970001f5070089
:103b8c000004be004fb19700dfb197000fb0970053
:103b9c009fb09700fbf407000001be000800be00b8
:103bac0081f307000001be000a00be007ff307008e
:103bbc000200200003122400f2f407002fa197004a
:103bcc00bfa1970079f307000c01be0077f3070043
:103bdc00e0b79f00f1b79f004f999700df999700ce
:103bec006f889700ff889700e6f407000004be007a
:103bfc000fa197009fa197002f909700bf9097005f
:103c0c00e0f407000001be000800be0066f30700e8
:103c1c000005be004fa19700dfa197000fb09700e1
:103c2c009fb09700d7f407000004be006fa1970067
:103c3c00ffa197000fb897009fb89700d1f4070029
:103c4c000001be000800be0057f307000001be00d3
:103c5c000a00be0055f307000200200003122400e6
:103c6c00c8f407001f819700af8197004ff307003e
:103c7c000c01be004df3070080b79f0091b79f0069
:103c8c002f999700bf9997002f909700bf9097009e
:103c9c00bcf407000004be004f999700df99970011
:103cac000f9097009f909700b6f407000001be009c
:103cbc000800be003cf307000005be004fb19700a2
:103ccc00dfb197000fb897009fb89700adf40700cd
:103cdc000004be004fa19700dfa197002fb0970002
:103cec00bfb09700a7f407000001be000800be009b
:103cfc002df307000001be000a00be002bf30700e5
:103d0c0002002000031224009ef407007f39970064
:103d1c008f81970025f307000c01be0023f30700e9
:103d2c000005be000200200003f023007f30970046
:103d3c008f38970093f407000006be006fa8970019
:103d4c00ffa8970001f0a2006fb19700ffb1970098
:103d5c008cf407000004be000fb197009fb19700d0
:103d6c004fa89700dfa8970086f407000001be005b
:103d7c000800be000cf307000004be000a01be00e0
:103d8c002fa89700bfa897007ef407000001be0083
:103d9c000800be0004f307000c01be0079f4070014
:103dac000fa997009fa9970000f307000004be001d
:103dbc006fb19700ffb1970072f4070080bf9f00ae
:103dcc0091bf9f000a01be004fa89700dfa8970083
:103ddc006cf407000001be000fb897009fb8970065
:103dec00f2f2070080bf9f0091bf9f000fb19700b8
:103dfc009fb197002fa89700bfa8970061f4070008
:103e0c000001be000fb897009fb89700e6f20700bc
:103e1c000001be000c00be005af407000001be00f9
:103e2c006fa89700ffa89700e0f2070080bf9f00e3
:103e3c0091bf9f000fb197009fb197000800be0083
:103e4c0050f40700a0b79f00b1b79f000a01be0055
:103e5c006fa89700ffa897004af407000001be0066
:103e6c002fb09700bfb09700cff20700a0b79f000c
:103e7c00b1b79f006fb19700ffb197002fa89700c3
:103e8c00bfa897003ff407000001be002fb09700b9
:103e9c00bfb09700c5f207000001be000c00be00c9
:103eac0038f407000001be004fa89700dfa8970068
:103ebc00bef20700a0b79f00b1b79f000a01be0079
:103ecc000800be002ff407000005be000fb19700dc
:103edc009fb197006fa89700ffa8970029f40700df
:103eec000001be000a00be00b0f207000005be00d3
:103efc006fb19700ffb197004fa89700dfa897000c
:103f0c0020f407000001be000a00be00a6f2070064
:103f1c000001be000c00be001af407000001be0038
:103f2c002fa89700bfa89700a0f207000006be00bc
:103f3c000801be000800be0012f407000005be0018
:103f4c000fb997009fb997000200be000df407004f
:103f5c000001be000a00be0094f207000005be007e
:103f6c002fb19700bfb197000200be0005f4070007
:103f7c000001be000a00be008cf207000005be0066
:103f8c000c01be000c00be00fef307000001be00d9
:103f9c000a00be0085f2070011f507000001be0003
:103fac000000200001f82300ddf207000005be0030
:103fbc000001be000800be00f2f30700d0898800a3
:103fcc00e18988000a01be000fb897009fb89700de
:103fdc00ecf30700f0898800018a88000a01be0012
:103fec002fb09700bfb09700e6f30700108a880047
:103ffc00218a88000a01be000c00be00e1f3070014
:10400c00308a8800418a88004f06be004f05be00ea
:10401c004f04be000080fa0000000600a01321002f
:10402c0000000600889fbe008a9fbe008c1f78008f
:10403c009b0907009009070040c7b3005a09070005
:10404c0070c5b30058090700900907008a090700da
:10405c0080c8b300540907000040eb005209070068
:10406c00004478000040eb004f0907004800dd00d9
:10407c000884fb00000074008000eb00a081880025
:10408c00b18188000040eb0047090700004478002c
:10409c000040eb00440907004800dd000884fb00e9
:1040ac0000007400cf80de00c0818800d1818800c0
:1040bc000040eb003c090700004478000040eb0096
:1040cc00390907004800dd000884fb00000074007b
:1040dc00cf80de00e0818800f18188000040eb0099
:1040ec0031090700004478000040eb002e0907005e
:1040fc004800dd000884fb00000074008000eb0029
:10410c006011b800c4042100009abe000292be00e7
:10411c00680442008c042000040646008044eb0036
:10412c00fa0f2000094078001f090700804578002d
:10413c00094078001c090700000065004800dd00fc
:10414c008b05fb008a85650000807500cf80de0042
:10415c006109b900009cbe00029cbe008c0f54008b
:10416c00f0ff3a00490907004f0678004f05be00e2
:10417c004f04be0000000600889fbe008a9fbe0050
:10418c003d090700a0cfb300070907000040eb0072
:10419c0005090700004478000040eb000209070005
:1041ac00804478000040eb00ff08070000457800d1
:1041bc00360907000880fb008000eb004809dd0091
:1041cc00c801de00830171004801dd000980fb009d
:1041dc008000eb0000007100818071004409dd005b
:1041ec00cc01de00830171004401dd000a85fb0077
:1041fc008005eb004c5add004450de0000007200dc
:10420c00c4d8de0000007100818071004f05be0033
:10421c004f04be0000000600889fbe008a9fbe00af
:10422c001509070070cfb300df0807000040eb0052
:10423c00dd080700004478000040eb00da080700b6
:10424c00804478000040eb00d70807000045780058
:10425c000e0907000880fb008000eb004809dd0018
:10426c00c801de00830171004801dd000980fb00fc
:10427c008000eb0000007100818071004409dd00ba
:10428c00cc01de00830171004401dd000a85fb00d6
:10429c008005eb004c5add004450de00000072003b
:1042ac00c4d8de0000007100818071004f05be0093
:1042bc004f04be0000000600881f7800a681800015
:1042cc00b78180004c09dd004402de00040271005d
:1042dc00c48ade000602520087825a0084a9b90003
:1042ec00020141000422b80085024100442cdd008b
:1042fc004c21de0002017400cca9de00c8032100b1
:10430c009802780083aab9001804900082c4b900fe
:10431c00080242000229b80083014200421cdd0061
:10432c004e12de0004027400ce9ade004d0cdd004d
:10433c004301de0002017400c389de000600430065
:10434c0087804b00000051008180590086032100ba
:10435c00960178008199b9001603900080b3b900da
:10436c00060141000018b80081004100450bdd003a
:10437c004b01de0002017300cb89de000401410019
:10438c0085814900d2808800e3808800e518b90057
:10439c006511b800830140000208b0000380b00032
:1043ac00481cdd004810de0000007400c818de0058
:1043bc006df2070002002000832c2400d8f10700c6
:1043cc004f047800000006002f03b000889fbe0049
:1043dc008a9fbe008c9fbe008e1f78000006be0018
:1043ec0008c02000e9ff2f00faff2f00fbff2f0071
:1043fc00d0808000e180800008044000898448005f
:10440c0060054d00e0854d000802be000a03be00a9
:10441c000800be000a01be002af5070090b79f00f5
:10442c00a1b79f00b2b79f00c3b79f0041072100ff
:10443c001100780021019000b101900091009000d2
:10444c00d0af9f00e1af9f00f2af9f0083b79f00fa
:10445c00c50621001502780025039000b5039000d5
:10446c009502900094af9f00a5af9f00b6af9f0040
:10447c00c7af9f0041062100110078002101900078
:10448c00b101900091009000d0a79f00e1a79f0080
:10449c00f2a79f0083af9f00420521001202780013
:1044ac009202900022039000b20390000800be001c
:1044bc000a01be0003f507000203be000002be00a5
:1044cc00cc3bdd004437de00870377004c33dd0046
:1044dc00442fde0006037700cc2add004427de00e3
:1044ec00850277004c22dd0094a79f00a5a79f00b2
:1044fc00b6a79f00c7a79f006000b8000200280065
:10450c00030020000002420081824a0002034b009b
:10451c0083834b00d4b79f00e5b79f00f6b79f008d
:10452c0087bf9f00ce0521001e0278009e029000de
:10453c002e039000be0390001fb09700afb0970001
:10454c003fb19700cfb19700def407004800de00c2
:10455c00480add0000007200c808de004812dd00c9
:10456c00810072004811de00481add000201720061
:10457c00c899de005fb29700efb297007fb3970047
:10458c008fbb97000000420081804a0002014b0063
:10459c0083814b00700757001e0278009e0290002a
:1045ac002e039000be039000c6f407000203be0069
:1045bc000002be004132de004f3fdd0004027700f6
:1045cc00c1bade004fbbde00cfbbde00d4b79f000c
:1045dc00e5b79f00f6b79f0087bf9f006000b8004b
:1045ec00e00f5200e08f5a00e00f5b00e08f5b00a1
:1045fc00b200320000002000010120000c0050002d
:10460c008d8058004f89de00820178000203be00c5
:10461c000002be00cf33dd00412ede0087037600a2
:10462c004f2bdd004126de0006037600cf22dd0095
:10463c000002eb0094a79f00a5a79f00b6a79f00c0
:10464c00c7a79f001faa9700afaa97003fab970080
:10465c00cfab97000800be000a01be0099f407001a
:10466c000203be000002be00c133dd004f2fde008e
:10467c0087037700412bdd004f27de000603770010
:10468c00c122dd000002eb001fa09700afa0970035
:10469c003fa19700cfa197000402500085825800db
:1046ac0006035900878359005fa09700efa097007d
:1046bc007fa197008fa99700c309dd004d04de0090
:1046cc00830174004301dd006000b8000004520057
:1046dc0081845a0002055b0083855b005faa97000a
:1046ec00efaa97007fab97008fb397001fb097008e
:1046fc00afb097003fb19700cfb1970071f40700ae
:10470c000000540081805c0002015d0083815d002b
:10471c0054c32000050020006033b80069f4070082
:10472c005fb29700efb297007fb397008fbb9700f3
:10473c0006f407000205be000004be004d00de00ba
:10474c00430add0000007200cd08de004312dd00dc
:10475c00810072004d11de00431add00020172006f
:10476c00cd99de0090b79f00a1b79f00b2b79f0014
:10477c00c3b79f004c0821001c0278009c029000db
:10478c002c039000bc0390000800be000a01be0080
:10479c004cf407000203be000002be00432ade00f8
:1047ac004d37dd0004027700c332de004d3fdd00e3
:1047bc008502770043bbde00cfbbde00080442005d
:1047cc0089844a000a054b008b854b001fb2970069
:1047dc00afb297003fb39700cfb397000400be0071
:1047ec000601be0037f40700680646001c0278007c
:1047fc009c0290002c039000bc03900031f4070045
:10480c000203be000002be00492ade004737dd006d
:10481c0004027700c932de00473fdd0085027700d5
:10482c0049bbde00cfbbde000402440085824c0095
:10483c0006034d0087834d004822de004828dd002a
:10484c0004027000c82ade004830dd0085027000ca
:10485c004833de004838dd0006037000c8bbde00bc
:10486c007004560018007800980090002801900001
:10487c00b8019000c419dd004c16de0083017600ef
:10488c004411dd004c0ede0002017600c408dd0090
:10489c004c06de00810076004400dd000000420082
:1048ac0081804a0002014b0083814b001ef10700fe
:1048bc000200200003b82300b2f107004f07780074
:1048cc004f06be004f05be004f04be002f03b100c3
:1048dc00000006000204e0002b003200e30f500041
:1048ec001900320006003c00e10f50000e003200af
:1048fc0011003c000000e000070032005a003700b5
:10490c00e50f50001800320013003500e60f500080
:10491c0055003a0018003700100020000100dd009f
:10492c00042eb70050003700100020000100dd00fd
:10493c00142eb7004c003700100020000100dd00e1
:10494c00242eb70048003700100020000100dd00c5
:10495c00342eb70044003700100020000100dd00a9
:10496c00442eb70040003700100020000100dd008d
:10497c00542eb7003c003700100020000100dd0071
:10498c00642eb70038003700e30f50001f003200d0
:10499c0006003c00e10f50001000320015003c00f6
:1049ac000000e000070032002f003700e50f500038
:1049bc00220032001b003500e60f50002a003a009e
:1049cc0024003700100020000100dd000080ea0008
:1049dc00040eb60020708800230037001000200061
:1049ec000100dd000080ea00140eb600a070880003
:1049fc001d003700100020000100dd000080ea00df
:104a0c00240eb6002071880017003700100020001b
:104a1c000100dd000080ea00340eb600a0718800b1
:104a2c0011003700100020000100dd000080ea00ba
:104a3c00440eb600207288000b00370010002000d6
:104a4c000100dd000080ea00540eb600a072880060
:104a5c0005003700100020000100dd000080ea0096
:104a6c00640eb6002073880000000600e30f5000af
:104a7c001900320006003c00e10f50000e0032001d
:104a8c0011003c000000e00007003200210037005c
:104a9c00e50f50001800320013003500e60f5000ef
:104aac001c003a0018003700100020000100dd0047
:104abc0004aeb60017003700100020000100dd0026
:104acc0014aeb60013003700100020000100dd000a
:104adc0024aeb6000f003700100020000100dd00ee
:104aec0034aeb6000b003700100020000100dd00d2
:104afc0044aeb60007003700100020000100dd00b6
:104b0c0054aeb60003003700100020000100dd0099
:104b1c0064aeb60000000600e30f50001600320031
:104b2c0006003c00e10f50000d0032000f003c006d
:104b3c000000e000070032001a003700e50f5000bb
:104b4c00130032000f003500e60f500015003a003c
:104b5c001200370001007800042eb7001100370056
:104b6c0001007800142eb7000e0037000100780009
:104b7c00242eb7000b00370001007800342eb7004c
:104b8c000800370001007800442eb70005003700fc
:104b9c0001007800542eb7000200370001007800a5
:104bac00642eb70000000600e30f5000280032000e
:104bbc0006003c00e10f5000130032001b003c00cb
:104bcc000000e0000700320044003700e50f500001
:104bdc003100320027003500e60f50003f003a004c
:104bec0036003700120020000111dd00107080002b
:104bfc000201600002f0a7000201ea000201ea00d3
:104c0c004f11de0035003700120020000111dd00cd
:104c1c00907080000201600002f0a7000201ea001f
:104c2c000201ea004f11de002c00370012002000b8
:104c3c000111dd00107180000201600002f0a7007c
:104c4c000201ea000201ea004f11de0023003700e6
:104c5c00120020000111dd00907180000201600043
:104c6c0002f0a7000201ea000201ea004f11de0087
:104c7c001a003700120020000111dd0010728000b4
:104c8c000201600002f0a7000201ea000201ea0042
:104c9c004f11de0011003700120020000111dd0061
:104cac00907280000201600002f0a7000201ea008d
:104cbc000201ea004f11de0008003700120020004c
:104ccc000111dd00107380000201600002f0a700ea
:104cdc000201ea000201ea004f11de0002407800f6
:104cec0000000600e30f50001300320006003c00e9
:104cfc00e10f50000c0032000d003c000000e00001
:104d0c000700320013003700e50f50000e00320090
:104d1c000b003500e60f50000e003a000c00370077
:104d2c00117080000b003700917080000900370073
:104d3c001171800007003700917180000500370069
:104d4c00117280000300370091728000010037005f
:104d5c00117380000100780000000600e30f500082
:104d6c001c00320006003c00e10f50000f00320026
:104d7c0013003c000000e00007003200290037005f
:104d8c00e50f50001d00320017003500e60f5000f3
:104d9c0024003a001e003700037080000281fb00e3
:104dac008119de00030169001f0037008370800049
:104dbc000281fb008119de00030169001a00370033
:104dcc00037180000281fb008119de000301690080
:104ddc0015003700837180000281fb008119de0011
:104dec000301690010003700037280000281fb0090
:104dfc008119de00030169000b003700837280000b
:104e0c000281fb008119de000301690006003700f6
:104e1c00037380000281fb008119de00030169002d
:104e2c00010037000001eb000208a3002a00320049
:104e3c00e30f50001900320006003c00e10f500057
:104e4c000e00320011003c000000e00007003200b0
:104e5c0021003700e50f5000180032001300350018
:104e6c00e60f50001c003a0018003700100020001c
:104e7c000100dd0000aeb600170037001000200066
:104e8c000100dd0010aeb60013003700100020004a
:104e9c000100dd0020aeb6000f003700100020002e
:104eac000100dd0030aeb6000b0037001000200012
:104ebc000100dd0040aeb6000700370010002000f6
:104ecc000100dd0050aeb6000300370010002000da
:104edc000100dd0060aeb600000006001000780096
:104eec00010024000000e00003003200e10f50003c
:104efc001d003a000e0037000602ab00feff3a0020
:104f0c000642ab00fcff3a000662ab00faff3a0027
:104f1c000622ab00f8ff3a000682ab00f6ff3a001f
:104f2c004210800002806000f3ff3a000e00370050
:104f3c00000024001602ab00feff3a001642ab0044
:104f4c00fcff3a001662ab00faff3a001622ab00e7
:104f5c00f8ff3a001682ab00f6ff3a00c210800050
:104f6c0082006000f3ff3a0000000600889fbe003c
:104f7c008a9fbe000004be0002457800090c780030
:104f8c002a44980083457800334498000401be00fd
:104f9c000000200001f82300e1ee07001262290056
:104fac00b340230080ee07000268290083c124006f
:104fbc00f4ef070002002000030024007aee070043
:104fcc001def0700e1cf55000f003a000900e0008b
:104fdc0003003200e18f54000b003a00050037004b
:104fec008a80fb00511088002228a8002208a80003
:104ffc0006c2a8000a85fb00da1088002648a80023
:10500c002628a80016c2a800980078000100e0002d
:10501c0003003200e18f500010003a000800370006
:10502c000e50e2000d003a00201088000722a80064
:10503c0007e2a80010c0b3000ef0b700070037005d
:10504c000f50e20005003a00a01088001722a900ba
:10505c0017e2a80010c0b3000ff0b7004f05be0058
:10506c004f04be0000000600e30040000040eb00cf
:10507c0082c2b3008068780000c0e800824f500004
:10508c00fcff3a0000000600881f7800000478003e
:10509c000800780091ff0700180078000000e0007d
:1050ac0003003200e10f500004003a000200370008
:1050bc000602a800010037001602a8004f04780071
:1050cc0000000600881f78000004780008007800b3
:1050dc0082ff0700180078000000e0000300320097
:1050ec00e10f500004003a00020037000642a8000d
:1050fc00010037001642a8004f047800000006009b
:10510c00881f7800000478000800780073ff0700ff
:10511c00180078000000e00003003200e10f50009e
:10512c0004003a00020037000622a80001003700f4
:10513c001622a8004f04780000000600889fbe00cd
:10514c008a1f780000047800014578000800780078
:10515c0062ff0700180078000000e0000300320036
:10516c00e10f50001e003a000f0037000802ab00a0
:10517c00feff3a000a85fb001a1088008084eb00c1
:10518c0008e2ab0016003a000800780053ff070055
:10519c00010028004210800002806000fdff3a00f0
:1051ac008004eb000e0037001802ab00feff3a0043
:1051bc000a85fb009a1088008084eb0018e2ab0093
:1051cc0007003a000800780044ff0700010028009f
:1051dc00c210800002806000fdff3a008004eb00ea
:1051ec00090078004f0578004f04be00000006004f
:1051fc00889fbe000004be00994078000000eb00c0
:10520c000104e0001700320008007800cbff070013
:10521c00e10f400012003200180078000000e0009e
:10522c0003003200e10f500006003a000300370083
:10523c000802ab00feff3a00020037001802ab0078
:10524c00feff3a000800780024ff0700d9407800e0
:10525c000104e000ecff3a000000eb000100370015
:10526c00d0ff2f004f04be0000000600889fbe0038
:10527c00000478000800780018ff07001800780078
:10528c000000e00003003200e10f50000e003a0075
:10529c00080037000662a8000662ab00feff3a0069
:1052ac0008c2a9000822ab00feff320009108000e2
:1052bc00050037001662a8001662ab00feff3a002c
:1052cc0018c2a90089108000094078004f04be0064
:1052dc0000000600881f78000004780008007800a1
:1052ec00fefe0700180078000000e000030032000a
:1052fc00e10f500006003a000300370006a2a90097
:10530c000682a8000200370016a2a9001682a80087
:10531c004f04780000000600881f78000004780015
:10532c0008007800edfe0700180078000000e0008f
:10533c0003003200e10f500006003a000300370072
:10534c0006a2a8000682a8000200370016a2a80038
:10535c001682a8004f04780000000600889fbe004b
:10536c008a1f780080047800010578000204780018
:10537c000800e0000f00320009007800bbff0700b6
:10538c00005d78000804e90005003a000900780087
:10539c00e1ff070009007800d0fe07000500370088
:1053ac0009007800cbff070009007800cbfe07004e
:1053bc00f1ff37000000eb004f0578004f04be00f2
:1053cc0000000600100078000000e000030032002e
:1053dc00e10f500006003a00030037000802d50028
:1053ec00e1406000020037001802d500e140600087
:1053fc000140780000000600a040900081c04000f1
:10540c004eff070000000600a040900081c0400045
:10541c008140e80049ff07000000060005e1a900f3
:10542c00630060004400dd00f2fc2f0023088000c4
:10543c000301610002017000220888000421a90008
:10544c0004c1a9000021ef0002a1ef00e780600079
:10545c00cc08dd00f0ff28004008b600008070008a
:10546c00004288000068a9002068a80005e1a80097
:10547c000000060011e1a900630060004400dd009b
:10548c00f2fc2f0083088000030161000201700010
:10549c00820888001021a90010c1a9000621ef0084
:1054ac000ca1ef00e7806000cc08dd00f0ff2800c5
:1054bc004208b600008070001042880000e8a90085
:1054cc0020e8a80011e1a8000000060013e1a900e3
:1054dc00630060004400dd00f2fc2f0093088000a4
:1054ec000301610002017000920888001221a900da
:1054fc0012c1a9000a21ef000ea1ef00e7806000a5
:10550c0080ff2f004408b600008070002042880005
:10551c000108a9002108a80013e1a800000006005a
:10552c001fe1a900630060004400dd00f2fc2f00c5
:10553c00f30880000301610002017000f20888008a
:10554c001e21a9001ec1a9001421ef001aa1ef0011
:10555c00e7806000cc08dd00f0ff28004c08b600a6
:10556c0000807000604288000368a9002368a800ce
:10557c001fe1a8000000060021e1a9006300600003
:10558c004400dd00f2fc2f000309800003016100e0
:10559c0002017000020988002021a90020c1a90085
:1055ac001821ef001ca1ef00e780600080ff2f00a6
:1055bc004e08b60000807000704288000388a90075
:1055cc002388a80021e1a80000000600010878004b
:1055dc00e10f51000c00320003003c000200e0001f
:1055ec000600320010003700e20f510009003200b3
:1055fc00e30f51000c003a000900370014002000a2
:10560c001400980008003700840020001400980053
:10561c000500370004042000140098000200370035
:10562c000410200014009800e38f50001100320089
:10563c0005003c00e18f500008003200e28f500062
:10564c0014003a0008003700e48f50000c003200c0
:10565c00e58f50000f003a000c0037000200be002e
:10566c006eff07000b0037000200be0081ff070031
