:020000040000fa
:04005c001405000087
:020000040000fa
:04007c001405000067
:020000040000fa
:04000c0014050000d7
:020000040000fa
:0400b400140500002f
:020000040000fa
:0400b0001405000033
:020000040000fa
:0401400014050000a2
:020000040000fa
:0401080014050000da
:020000040000fa
:0401040014050000de
:020000040000fa
:04014400140500009e
:020000040000fa
:040070001405000073
:020000040000fa
:04007400140500006f
:020000040000fa
:0401340014050000ae
:020000040000fa
:0401140014050000ce
:020000040000fa
:0401180014050000ca
:020000040000fa
:0400380014050000ab
:020000040000fa
:0402080014050000d9
:020000040000fa
:04020c0014050000d5
:020000040000fa
:0402300014050000b1
:020000040000fa
:0402340014050000ad
:020000040000fa
:0402380014050000a9
:020000040000fa
:040060001405000083
:020000040000fa
:04008800140500005b
:020000040000fa
:0400b800140500002b
:020000040000fa
:0400e0001405000003
:020000040000fa
:04011c0014050000c6
:020000040000fa
:0401380014050000aa
:020000040000fa
:04013c0014050000a6
:020000040000fa
:0402000014050000e1
:020000040000fa
:0402040014050000dd
:020000040000fa
:04001c0014050000c7
:020000040000fa
:0400100014050000d3
:020000040000fa
:04021c0014050000c5
:020000040000fa
:0402240014050000bd
:020000040000fa
:04022c0014050000b5
:020000040000fa
:04024400140500009d
:020000040000fa
:04024c001405000095
:020000040000fa
:04025400140500008d
:020000040000fa
:04025c001405000085
:020000040000fa
:04002c0014050000b7
:020000040000fa
:04003c0014050000a7
:020000040000fa
:0400bc001405000027
:020000040000fa
:0400c0001405000023
:020000040000fa
:0400c400140500001f
:020000040000fa
:0400c800140500001b
:020000040000fa
:040080001405000063
:020000040000fa
:04008400140500005f
:020000040000fa
:04019c001405000046
:020000040000fa
:040260001405000081
:020000040000fa
:0400280014050000bb
:020000040000fa
:04009c001405000047
:020000040000fa
:0400fc0014050000e7
:020000040000fa
:0401000014050000e2
:020000040000fa
:0401b800140500002a
:020000040000fa
:0401bc001405000026
:020000040000fa
:0401c0001405000022
:020000040000fa
:0401c400140500001e
:020000040000fa
:0401c800140500001a
:020000040000fa
:0401cc001405000016
:020000040000fa
:0401d0001405000012
:020000040000fa
:0401d400140500000e
:020000040000fa
:0401d800140500000a
:020000040000fa
:0401dc001405000006
:020000040000fa
:0401e0001405000002
:020000040000fa
:0401e40014050000fe
:020000040000fa
:0401e80014050000fa
:020000040000fa
:0401ec0014050000f6
:020000040000fa
:0401f00014050000f2
:020000040000fa
:0401f40014050000ee
:020000040000fa
:0401f80014050000ea
:020000040000fa
:0401fc0014050000e6
:020000040000fa
:04023c0014050000a5
:020000040000fa
:0401240014050000be
:020000040000fa
:0401280014050000ba
:020000040000fa
:04014800140500009a
:020000040000fa
:040150001405000092
:020000040000fa
:04015800140500008a
:020000040000fa
:04015c001405000086
:020000040000fa
:040160001405000082
:020000040000fa
:04016400140500007e
:020000040000fa
:04016800140500007a
:020000040000fa
:04017800140500006a
:020000040000fa
:04017c001405000066
:020000040000fa
:04026400140500007d
:020000040000fa
:04006c001405000077
:020000040000fa
:0400f00014050000f3
:020000040000fa
:0400180014050000cb
:020000040000fa
:04006400140500007f
:020000040000fa
:0402180014050000c9
:020000040000fa
:0402200014050000c1
:020000040000fa
:0402280014050000b9
:020000040000fa
:0402400014050000a1
:020000040000fa
:040248001405000099
:020000040000fa
:040250001405000091
:020000040000fa
:040258001405000089
:020000040000fa
:0400300014050000b3
:020000040000fa
:0400400014050000a3
:020000040000fa
:04008c001405000057
:020000040000fa
:040090001405000053
:020000040000fa
:0400cc001405000017
:020000040000fa
:0400d0001405000013
:020000040000fa
:0400d400140500000f
:020000040000fa
:0400d800140500000b
:020000040000fa
:04019800140500004a
:020000040000fa
:0400080014050000db
:020000040000fa
:0400dc001405000007
:020000040000fa
:0401a0001405000042
:020000040000fa
:0401a400140500003e
:020000040000fa
:0401a800140500003a
:020000040000fa
:0401ac001405000036
:020000040000fa
:0401b0001405000032
:020000040000fa
:0401b400140500002e
:020000040000fa
:04014c001405000096
:020000040000fa
:04010c0014050000d6
:020000040000fa
:0401100014050000d2
:020000040000fa
:04015400140500008e
:020000040000fa
:0401200014050000c2
:020000040000fa
:0400240014050000bf
:020000040000fa
:04006800140500007b
:020000040000fa
:04004c001405000097
:020000040000fa
:040050001405000093
:020000040000fa
:0400a800140500003b
:020000040000fa
:0400ac001405000037
:020000040000fa
:040190001405000052
:020000040000fa
:04019400140500004e
:020000040000fa
:0402100014050000d1
:020000040000fa
:0402140014050000cd
:020000040000fa
:0400200014050000c3
:020000040000fa
:0400140014050000cf
:020000040000fa
:0400340014050000af
:020000040000fa
:04004800140500009b
:020000040000fa
:04009400140500004f
:020000040000fa
:04009800140500004b
:020000040000fa
:0400e40014050000ff
:020000040000fa
:0400e80014050000fb
:020000040000fa
:0400f40014050000ef
:020000040000fa
:0400f80014050000eb
:020000040000fa
:04012c0014050000b6
:020000040000fa
:04005800140500008b
:020000040000fa
:0401300014050000b2
:020000040000fa
:0400a400140500003f
:020000040000fa
:04016c001405000076
:020000040000fa
:040170001405000072
:020000040000fa
:04017400140500006e
:020000040000fa
:04018400140500005e
:020000040000fa
:04018800140500005a
:020000040000fa
:04018c001405000056
:020000040000fa
:040180001405000062
:020000040000fa
:080000000002040000000000f2
:020000040000fa
:10040000ef5825000eff27000e01880000000000b5
:10041000000020000000e000020032000001200087
:100420002002880014000700f60107000000e00029
:1004300003003a00c0ec2500010020000200370054
:100440000000200001002000810f70000100320038
:100450000f000700000020000000e0000200320052
:100460000000020000000000067b02000000000007
:100470000040da000000fe00a01620000000e000ae
:1004800002003200002020009001880000000600d9
:10049000a1028800800478000000eb001f003700f4
:1004a000e284440054a0b4009905ba00e2844400f8
:1004b00054a0b4009906ba00e284440054a0b400e9
:1004c0000006eb00476fde00fd07b200ae018800ba
:1004d000636ce10003003a000ad801000000eb0061
:1004e0000e003700606ce10008003a00004deb00a0
:1004f0000a05e800020039003420ec000af0a000f0
:100500008b05e900f9ff3e00040037006168e10057
:10051000010032000086eb000b00070019c7ba008b
:100520000e04e0001905ba0003003a000a00e000da
:10053000dbff3a0000000600fe07b200ae028800b2
:100540008a047800f5ff37000cd0a300e20f4d00bd
:100550001c00390089027800354dba000a05e80010
:10056000020039003420ec000af0a0008b05e900fd
:100570000f003200254dba000a05e80002003900dc
:100580003420ec000af0a0008b05e90008003200de
:100590000c00e0000600320015cdba000a05e800a4
:1005a000020039003420ec000af0a0008b05e900bd
:1005b0008984e80054a0b4000b00e000e2ff3a0098
:1005c000000006009902ba00055d78008b05e9007d
:1005d000f7ff3200c82ade00055d78008b05e900d0
:1005e000f3ff32000c00e000f1ff320019ddba0029
:1005f000eeff3700f2130400000000009015040025
:1006000000000000aa15040000000000d815040036
:10061000000000002c1f040000000000ca2004009d
:1006200000000000902a0400000000000000040008
:1006300000000000809fbe00829fbe001882ab00b9
:1006400001003200c830ef001842ab0006003a004b
:1006500018a2ab0004003a0080108000ccf0b70074
:100660001782a800420037001842ab0014003a007d
:1006700018a2ab0012003200c810e20005003a00d8
:1006800080108000cdf0b700100020004086880068
:1006900009003700cdd0bf00821080008080fb00b1
:1006a000c382220081804100824878000040e80037
:1006b000cdf0b700c830ef001782a8002c0037003b
:1006c0001842ab001400320018a2ab0012003a002e
:1006d00080108000ccf0b700d10c21009140780050
:1006e0000180fb00c282220000004100104078001f
:1006f000cef0b7008140e80081417800d20c2100a3
:10070000034978000080fb0090108800c830ef009b
:100710001782a800160037001842ab001400320000
:1007200018a2ab00120032001802e20010003500df
:1007300080108000ccf0b700d10c210091407800ef
:100740000180fb00c28222000000410010407800be
:10075000cef0b7008140e80081417800d20c210042
:10076000034978000080fb00901088001782a800e1
:100770000628a9004f01be004f00be000040060041
:100780003600f800809fbe00829fbe00849fbe009e
:10079000869fbe00e10020000000eb0090340700bf
:1007a0000004a2009af0b700c208d50000c0ea0019
:1007b0006100600000004000114680000110a100af
:1007c000810070001146880010002000123b0700d5
:1007d0004f03be004f02be004f01be004f00be00df
:1007e0003600f90000400600809fbe00829fbe00d8
:1007f000849fbe002202ab0020003200f3012800db
:1008000004fe2f00a086800080109000351180002b
:1008100001014000054978008100e80001109800be
:10082000a1868000011090000300600003003b00df
:100830000000e900000072000000e800801098004d
:10084000111190000200680000f0a7000000ea000b
:100850000000e9004f00de000200400003006000dd
:1008600003003b000000e900000072000000e80007
:10087000901098002202ab00e2ff3a000168a90044
:100880004f02be004f01be004f00be0000400600f8
:10089000809fbe00829fbe00849fbe003202ab00dc
:1008a00020003200f301280004fe2f00b0868000f3
:1008b00080109000b51180000101400005497800ca
:1008c0008100e80001109800b186800001109000be
:1008d0000300600003003b000000e900000072001c
:1008e0000000e800801098001111900002006800dc
:1008f00000f0a7000000ea000000e9004f00de0061
:10090000020040000300600003003b000000e9001b
:10091000000072000000e800901098003202ab0066
:10092000e2ff3a0003c8a9004f02be004f01be001b
:100930004f00be00004006003600f800809fbe0059
:10094000829fbe00849fbe00869fbe00209b220027
:10095000d4200700e097220049200700f04d8100d5
:10096000014e8100809fbe00d64d8100e74d810081
:10097000b44d8100c54d8100124e8100234e81008f
:1009800020012100e2250700325c2f00c311240062
:10099000104c8100214c8100b70207000002be000c
:1009a0000001eb0082007800a0012100a4260700ce
:1009b000325c2f00c3112400304c8100414c810077
:1009c000ad0207000002be000001eb001100200094
:1009d000a00121009a260700325c2f00c3112400d9
:1009e000504c8100614c8100a30207000002be0050
:1009f0000001eb0021002000a0012100902607004b
:100a0000072a0700a00b210013370700e4875700cf
:100a10004f03be004f02be004f01be004f00be009c
:100a20003600f900004006000040da000000fe0039
:100a30000a00fa0011002000b1bf9f00c0bf9f0054
:100a40006a805700d41207004fb897000080fa0060
:100a5000000006000a00fa00e20f500034003e00d9
:100a6000d0648100e10f500003003200e20f50001b
:100a700011003a000c003700032220000300e000c0
:100a800001003a000040da002002e20002003500d6
:100a90002822ef0021e2a8002342ab000d003a001b
:100aa0002342a8000b003700032320000300e000ce
:100ab00001003a000040da003002e2000200350096
:100ac0003822ef0031e2a8003342ab0001003a00c7
:100ad0003342a800820178000b0037003102fb008e
:100ae000e10f500004003a002322ab00feff3a0061
:100af00024118800030037003322ab00feff3a00c8
:100b0000a41188008301e9000300e000f3ff3a002c
:100b1000e10f500003003a002302ab00feff320059
:100b20000b0037003302ab00feff32000800370035
:100b300033002000b3bf9f00c0bf9f00d1bf9f0004
:100b4000e2bf9f006a805700951207006fb99700b7
:100b5000020078000080fa00000006000a00fa0097
:100b600051002000b1bf9f00c0bf9f006a805700a6
:100b70008d1207005fb897000080fa0000000600a1
:100b8000889fbe0080047800e06481000000e000df
:100b900004003a000e0007000084eb000000e000b3
:100ba00008003500e86481000900e000050032001b
:100bb00009004400060007000000e00001003d00bd
:100bc0000084eb00080078004f04be00000006001f
:100bd000800078000100e00003003a00e0c9220034
:100be000e0648900000005000080eb00e258250069
:100bf000828f500002003e00e16489000000eb009b
:100c0000000006000000050003f0a200889fbe005f
:100c10008a9fbe008c1f7800ff0107000602330088
:100c20006450e1004f0032006420e10052003200c5
:100c300003826c0007003b000905d0000306d000ca
:100c4000820f54000c065d000200390002003200e1
:100c500089017800030678008582550004003d0074
:100c60000003fd008103fd008502ea008b85420040
:100c7000840f720002003b0060001000e08018004a
:100c80006011b8000005eb007a28e1000a00390085
:100c900006007800c75ddd00f707b20087807500a9
:100ca0002d003700828171000a0178006105600023
:100cb0008180d1000080d3008502e900f9ff3b006c
:100cc000060440008784480002003b0060041400d2
:100cd000e0841c000988a300070032008a817100ab
:100ce00082817100610164008904d1000884d3000d
:100cf0008b05e800170037000978a30013003a00bd
:100d00000b00e000130034008b05e90008044400e8
:100d100089844c000a4474000978a3000d003a004d
:100d20000b00e000070034008b05e90008044400d4
:100d300089844c0001003a000b0020000978a300d0
:100d4000f7ff32000001eb000200370082817100e2
:100d50000a017800750107000cf0a70001f0a0005f
:100d6000be0137006420e10002003a00838f6c006e
:100d7000be0133000801be000200be00b70137000b
:100d80000001eb0042043700889fbe008a9fbe002e
:100d90008c1f7800a00107001002200002003b0019
:100da00000878800a40137008a0062006408e1001f
:100db00002003a0000878800ac0137006108e100ba
:100dc000fcff32000800be0003047800700007003a
:100dd00001f0a1000900070008f0a6000400370098
:100de0000001be0091042400b0fd200086ff070032
:100df00009f0a70001f0a20098013700889fbe000b
:100e00008a9fbe008c9fbe000004be006d010700db
:100e10000800be00890678006420e100080039005f
:100e2000040032000160a000120220000287880046
:100e30005300370091fc2300b0fd20004e00370026
:100e40000006eb0009f0a10003f8230002002000d7
:100e50000800be00900007000600340001f82300df
:100e6000000020000801be00490007000004be0089
:100e70002c0020000800be0093e82300320a230063
:100e800085000700120034000801be00d1fd2300d8
:100e9000703d2b005dff07000005be00b3f323008b
:100ea000f27a26000800be007301070003f8230051
:100eb0000200200054ff07000801be0053ff070096
:100ec0000a01be00320007000004be000c06e80064
:100ed0000800be0001f0a1000200200003982300da
:100ee0006d0007000800be00160035000801be00b6
:100ef000610107000005be0032cd2c0043fb23003a
:100f000042ff0700809fbe001269280003d52b0016
:100f10000a00be0058010700620f210013ef2b00ea
:100f20003aff07000a01be00530107004f01be004f
:100f3000170007000801be004f0107000801be00ae
:100f400032ff07000c00e0000b0032000c10a7007d
:100f500001f0a200b2fd200093fc23006260e100da
:100f60000400320022a9200063f023000c10a70027
:100f700063f8230025ff07000df0a70001f0a20091
:100f80004f06be004f05be004f04be000000060025
:100f9000889fbe008a9fbe008c1f78001e0107003c
:100fa0002501330003866c006450e1002e003200fe
:100fb0006420e100330032006150e1002f00320074
:100fc0006120e1003100320085855500eb07b0005b
:100fd0000900200008042000050037000804440030
:100fe00089844c000a0031000603430087834b00cc
:100ff0000001530081815b00f8ff33000203be0053
:101000000800a0000804440089844c00f6ff390061
:10101000c639dd0083017300010032001300200097
:101020008904d1000884d3000998a3000500320088
:101030000800a7000300a0008904d1000884d300a1
:101040008b05e8008904d1000884d3000001eb007f
:101050000281d200b500070001f0a1000cf0a7004a
:1010600001f0a000fd0037006420e100ff00320025
:101070000801be000200be00f7ff37006120e1005a
:10108000fa0032006000b800f3ff370000002000d3
:1010900001f82700f0ff3700140020006c0437002f
:1010a000f4ff2f006a0437000001be00c5000700ee
:1010b0000470a70003f0a1006509b100160032001a
:1010c0000d0035006828e10006003500f0ff2f0014
:1010d000f1ff27000300e00013003b00010028009f
:1010e0000000050000004000818048008502e90002
:1010f000fcff3a0008003700f88f420002003c0075
:101100008000eb00000005008100d1000080d300ca
:101110008502e800fcff3a000300e00002003b000b
:1011200060001000e0801800000006000003be0010
:10113000a40007006011b8000470a70007f0a10028
:1011400007f8a30017003a006509b1000d0032004e
:101150000d003500860220000628e100030035005e
:10116000030028006000b8000200050000004000f5
:101170008180480002014900838149008502e9001d
:10118000faff3a0000000600f88f42000500340024
:101190008100d1000080d3008502e800fcff3a0006
:1011a000000006006011b8008000eb0000000500a0
:1011b0000001be00830007000470a70003f0a10037
:1011c00003f8a30013003a006509b10010003200d3
:1011d000090035006928e1000200350001002800ff
:1011e0000000050000004000818048008502e90001
:1011f000fcff3a0000000600f88f420005003500b1
:101200008100d1000080d3008502e800fcff3a0095
:10121000000006008000eb0000000500881f780039
:10122000030478000300e00007003d0060001000a8
:10123000e080180060011900e081190002003b0005
:1012400001f02d00030037000700070008f0a70099
:1012500001f0a0004f047800000006004f89de0076
:1012600082017800edff3700889fbe008a9fbe0094
:1012700000827000040271000482710026003200b6
:101280000004be000200be006011b8006b0920001f
:10129000950220000182cf000a0039000541b1000b
:1012a0000082cf00070039000541b1000982cf005c
:1012b000040039000541b1000882cf000100390067
:1012c0000541b10005425200120032000a003b0005
:1012d00082817100610164008100d1000080d3002f
:1012e0008984d3000884d3008b05e8000442e80019
:1012f000f7ff3a00070037000804440089844c00d7
:1013000000004800818048008b05e9000442e900a4
:10131000f9ff3a00050007004f05be004f04be006c
:10132000000006006011b800cfff370081002000e8
:10133000618055000b003d000b00200061fe2f0076
:101340000100e1001d003400828171006101640030
:101350008904d1000884d3000000e800faff3a00b5
:101360007100200061006400030070000200600052
:101370000900320061044400e0844c000988a500a3
:10138000050032008b05e8006808e10002003a0021
:101390008904d1000884d300f20f20000258e10034
:1013a00005003d00c75ddd00f907b20089807500ca
:1013b00008007800000006000bf827008b0078007a
:1013c00000000500c70ade00f107b200f50fb20009
:1013d00008003200e1cf4200020032000170a0009c
:1013e00024000500810f7000010032000408050090
:1013f00044000500810f700002003a00140005004f
:101400008502e9000000400081c04800fcff3b006d
:101410000170a000240005000004be00e9ff0700e1
:101420000003be000405be000200be00e5ff070089
:10143000844f7500000006000200be006450e10009
:10144000050036006420e100020036000968a300b0
:1014500001003a000800be000160a0004f067800bd
:101460004f05be004f04be0000000600f0ff2f0035
:10147000f1ff2700f9ff3700889fbe008a9fbe005a
:101480008c1f7800e4ff0700ebff330003866c003d
:101490006450e100240032006420e10027003200a3
:1014a0006150e100220032006120e10021003200a1
:1014b0008b854200eb07b1000134b800003ab80058
:1014c0000804420089844a00013ab8000030b8009c
:1014d0008880400009014a000400330000004000f9
:1014e00081804800020149008b05e900c909dd003f
:1014f000830170000100320013002000c814de00d8
:101500004814dd004709de001200b200c808de0002
:101510000884700085ff070001f0a1000cf0a7000f
:1015200001f0a000cdff37006120e100cfff3200c5
:101530000801be000200be00f7ff37006150e10065
:10154000fcff3a00c9ff37000c00fa00889fbe007c
:101550008a9fbe008c9fbe00afff07000206be0040
:10156000840578000200be0002002000110307007d
:1015700005003a008b02b300120020000d030700a3
:1015800001003a00f8856d000c01be00c60007009e
:101590000800be009b0032000b08a3009e003a002a
:1015a0000df0a7000be0a00009f0a7000bf0a000d1
:1015b00009f0a1000801be00bb0007000bf0a60067
:1015c0009500320001003c000bd0a0008acf7500ce
:1015d000b20033006000b8006250e10099003900a9
:1015e000a1003e000b28a300a2003a000bf8a300c4
:1015f000060032000b58a300a70032000801be000d
:10160000a90007000800be00940032000800be00d8
:10161000120207000004be00050578000bf0a700c9
:101620000b30a6000bf0a1005b079800324f2000a2
:1016300053f3230098fe070005003d000800be009c
:10164000120020001d0307000004be000a05e90087
:101650004a0798006150b90000ff0700008fbe00e4
:101660000c01be0084ff07008ffe070030079800c2
:101670000100e00002003d0060001000e080180062
:10168000f2ff2700820f5000e08f580064003e00f8
:101690000c00be0084fe070020079800f20720001f
:1016a000820f5000e08f580005003c0012f82f0018
:1016b000f3ff2f00820f5000838f580009003d0078
:1016c0000a00e0000300320001003c000201ea00d1
:1016d000020578006000b800200798003a079800db
:1016e000190037003e0090006100b900dbfe0700e2
:1016f000809fbe000c00be004109dd004811de00e5
:101700007208b100ab0207000005be001e01be005a
:1017100059ff07004f01be003bfd0700809fbe0040
:101720000c00be000a01be0037fd07001e01be000e
:1017300051ff07004f01be0034fd07008221270042
:1017400013f323004cff07000005be002e0090009d
:101750006100b900c1fe070001f0a2000c01be004b
:101760002afd07000006be000800be00f5020700c3
:101770000c01be0040ff07000a01be0023fd070068
:10178000809fbe004a0007002e0590000af0a700c7
:101790000a05ea00050037000800be000801be0087
:1017a00035ff07000004be000c00be000801be00ab
:1017b0000a00a70030ff07000006be000a05d1009e
:1017c000f5ff3a005e01900002e0a600030037003a
:1017d0000001be0036000700edfd07000004be005a
:1017e0004f00be00110207000801be0022ff0700e3
:1017f0003e019000b1020700de0590000bf0a7004b
:1018000001f0a2004f06be004f05be004f04be000f
:101810000080fa000000060025000700f9ff3700ed
:10182000270007006000b8000bd0a7000bc0a00085
:101830000be0a7000bc0a2000bc0a70001f8270017
:10184000f0ff37000df8a300020032001e00070071
:10185000190007000bf8a300eaff32000b30a700c5
:1018600001f0a200e7ff37000df8a300f9ff3a00ee
:10187000f7ff37000801be000b000700e6ff32004b
:1018800001003c000df0a2006000b8000df0a700c0
:1018900009000700dbff37000b000700f1ff2700fe
:1018a000f0ff2f00d7ff370001000700fafd3700d7
:1018b00001f823000000050001f8270000000500e2
:1018c000200220000100370010022000008788005d
:1018d00000000600889fbe008a9fbe008c1f780013
:1018e0000004be00b7fe07000478a30026003a00fb
:1018f0006120e1002500320009f8a30025003a002c
:101900006420e10021003200f507b1000508a300c2
:101910000200320000004000818048006044b800ae
:1019200003102000020020000000400081804800d9
:101930000805440089854c000a0541008b85490053
:101940000a0550008b855800030033000a00be00d2
:1019500002047400838474008301d1000281d300e7
:10196000830f7100f0ff3a008904d1000884d3008e
:101970006001490082017800c1adde00fb07b000c4
:101980006afe0700b5fe37000960a0000800be002f
:10199000b2fe37001202200002878800f0ff2f00fd
:1019a000f1ff2700adfe3700889fbe008a9fbe0072
:1019b00030044200b0844a0030054b0090854b0053
:1019c0006000b1000898be000a90be000440e1002b
:1019d00005c8e10006d0e10007d8e10002003100af
:1019e000680040001008e8004f05be004f04be002c
:1019f00000000600889fbe008a9fbe001004780089
:101a00009004900020059000b00590000418540048
:101a100005985c0006185d0007985d001100200025
:101a20000440e10005c8e10006d0e10007d8e1006c
:101a3000010039008000eb00108810004f05be0047
:101a40004f04be00000006001200fa00889fbe008e
:101a50008a9fbe008c9fbe00e0b79f00f1b79f0039
:101a600082bf9f0093bf9f000605be000404be0016
:101a70000000eb00d0b79f00c0b79f00b0b79f0039
:101a8000a0b79f0090b79f00000678005fb1970055
:101a9000cfb09700820141003fb097000200e00004
:101aa00004003d00370007007e805700beff07009e
:101ab00003003700330007007e805700cdff07008a
:101ac000dfb697000d00e0000c0035006fb2970004
:101ad000ffb297000fbb97009fbb9700100020003c
:101ae000010020006011b8000002720081827200c3
:101af00002037300838373001b0007000c06e800d9
:101b000001042000810f5600e0ff3a000d00e000c4
:101b100004003d000802be000a03be007e8057009c
:101b2000a1ff07005fa897000000e00005003a0051
:101b30001fb29700afb297003fb39700cfb39700a3
:101b4000090007006fb09700ffb097000fb997002a
:101b50009fb997004f06be004f05be004f04be0060
:101b60000080fa00000006000100070000000600e7
:101b7000a4b79f00b5b79f00c6b79f00d7b79f0017
:101b8000000006004f09de0082817100b3b79f009c
:101b90004f01de008180400082807000a1b79f006d
:101ba0008fb097004f09de00000040000200700077
:101bb00090b79f007fa897004f01de008180400012
:101bc0008280700081b79f000d0007004f3ade0051
:101bd0000000400004007000f0af9f000800070004
:101be0000402420085824a0006034b0087834b00b3
:101bf000dfff07000802be000a03be000000060067
:101c00002fb29700bfb297004fb39700dfb3970092
:101c100000000600881f780018002000881f780048
:101c200089ff07008f87e9004f0478000000060055
:101c3000801feb0084ff07008f87e900000006008b
:101c4000889fbe008a9fbe00e00f5000e08f5800c2
:101c5000e00f5900e08f59000c003d006044b800cf
:101c60006055b8000000540081805c0002015d00f6
:101c700083815d00180020001500070008003d006a
:101c8000180007000004eb00050037000004eb001b
:101c90000f00070002003d0012000700180020009e
:101ca000dcff07000800e000060032006022b800f8
:101cb0006033b8000000520081805a0002015b00ce
:101cc00083815b004f05be004f04be00000006008c
:101cd000e00f5200e08f5a00e00f5b00e08f5b00e6
:101ce000000006006044b8006055b80004025400cb
:101cf00085825c0006035d0087835d0000000600ae
:101d0000889fbe008a9fbe008c1f7800e00f5000a5
:101d1000e08f5800e00f5900e08f59000d003d00a2
:101d20006044b8006055b8000000540081805c0039
:101d300002015d0083815d001c0020000820e1009d
:101d400009a8e1000ab0e1000bb8e1000d003d0078
:101d5000080037000006eb00e00f5200e08f5a0049
:101d6000e00f5b00e08f5b0006003d006044b800c0
:101d70006055b8000402540085825c0006035d00d3
:101d800087835d00aaff07000c00e0000600320018
:101d90006022b8006033b8000000520081805a0011
:101da00002015b0083815b004f0678004f05be0097
:101db0004f04be0000000600889fbe008a9fbe0040
:101dc0008c1f78000006eb00e00f5000e08f5800f9
:101dd000e00f5900e08f590007003d006044b80053
:101de0006055b8000000540081805c0002015d0075
:101df00083815d001c002000e00f5200e08f5a003c
:101e0000e00f5b00e08f5b0007003d006044b8001e
:101e10006055b8000402540085825c0006035d0032
:101e200087835d000c00a2009d0107000c00e0000c
:101e3000060032006022b8006033b8000000520093
:101e400081805a0002015b0083815b004f067800ad
:101e50004f05be004f04be00000006000003be0098
:101e600058fd07006220e100020032000600be00bb
:101e700005000500e507b100f107b20004f02300fa
:101e80008480700007f0a70001f0a0002400050086
:101e9000889fbe008a9fbe008c9fbe00020678000d
:101ea00001f0a7000cf0a0000004be0045fd0700f3
:101eb0000800be006420e1000700390002003a007b
:101ec000f1ff2700f0ff2f000160a00012022000a8
:101ed000028788005100370009f0a1000800be0009
:101ee0000200200003f823006dfc0700f4ff3c0013
:101ef0000800be00020020000398230066fc0700d3
:101f00000800be00300035000200200003f023006e
:101f100063fc070005003c000800be000801be008d
:101f200055fd07000005be000e0037000c10a20092
:101f30000000200001f823000801be0032fb07006a
:101f40000200200003f023004bfd07000005be0047
:101f500060fe07000200200003002c0046fd070081
:101f60000004be000a00be00b2d02800130b2c00f3
:101f700026fb07000a01be003ffd0700020f2500f7
:101f8000330b240021fb0700809fbe000a00be0027
:101f90005206220013f02b0037fd0700b266210025
:101fa000f3f6230019fb07000a01be0032fd07000b
:101fb0004f01be00f6fb07000801be002efd070022
:101fc0000801be0011fb07000c00a7000700370046
:101fd000b2fd200093fc23000c10a7000bfb0700b0
:101fe0000cf0a70001f0a2000c0037000cf0a700d5
:101ff0000200370001f0a20004003700b2fd20000b
:10200000930424000c10a60003003700b2fd20004a
:1020100093fc23000c10a700fcfa07004f06be003b
:102020004f05be004f04be0000000600889fbe00a2
:102030008a9fbe008c9fbe000004be00e1fc07002a
:102040000800be006420e10048003e005500320058
:1020500072212700132b240011fc070047003c00cd
:102060000800be00c2ec2800e32c2c000afc07008c
:10207000470035000800be0001f0a100020020006a
:102080000338230004fc0700430035000800be00ad
:10209000b2a32a0083fb2300f7fc07000200200004
:1020a00003f0230001f0a70003f0a000d7fa070017
:1020b000fdfb07000005be0068fc070001f0a20060
:1020c0000006be000200280013f32300eafc07000c
:1020d0000801be00cdfa0700809fbe000c00be00c4
:1020e00032082800e3952b00e3fc07004f01be00f7
:1020f000c6fa07000006be000001be00defc0700b5
:10210000809fbe004241250083b82300dafc07000f
:102110000200200003e82300bcfa07000c01be0007
:10212000d5fc07000006be004f00be00f2f92b00f0
:10213000c3d42300d0fc07000200200003f02300da
:10214000b2fa07000c01be00affa07000001be00a2
:102150000c00be008efb07000200200003f02300ed
:10216000aafa070061014500540007004f06be00af
:102170004f05be004f04be000000060001f8270016
:10218000000020002202200002878800f7ff3700ad
:102190006000b800fbff370001f8230000002000ba
:1021a000f2ff370009f8a300f0ff32006000b8002a
:1021b000eeff3700889fbe008a9fbe000003be006e
:1021c00080fc070085057800828152000200200013
:1021d0006220e10004003a00f307b100040035007a
:1021e0007718e100040035000600be001400370037
:1021f0006000b8000f003700f50f2000faff2f0035
:102200008502d1000a85d3008301e900fcff3b0071
:102210008184620000046500890f7400f2ff3200bf
:102220008582ea000a85ea00818462000004650074
:102230003efc070007f0a70001f0a0000081eb00c2
:102240000200e0004f05be004f04be000000060083
:10225000889fbe008a9fbe00841f78006efc070026
:102260004f00780011003300f0ff2f00838f6c00c7
:1022700006003b00040565000a00a70008003700bf
:1022800009f0a6001000200008003700820f54005b
:10229000838f5c00030039001000200001003e0025
:1022a0000000200009f0a7000000ea004f05be0072
:1022b0004f04be000000e000000006000003be0066
:1022c00040fc07006220e100020032000600be0070
:1022d0000000060085024100e30f20000328e10012
:1022e00005003c00a3fe2f000328e10007003d008d
:1022f0000500200001003700f50f2000200220001b
:10230000008788006000b800080037001300200034
:102310008381520005003d008100d1000080d30080
:102320008301e800fcff3a0005002000c72add0019
:10233000f107b2008580700007f0a70001f0a0004f
:1023400000000600889fbe008a9fbe008c9fbe00d2
:10235000c2fe0700850478000005be006420e1008d
:1023600049003e006220e100030032000900350010
:102370000bf8a300440032000bf8a3000800320061
:102380001002200000878800f0ff2f00f1ff2700d7
:102390003d00370001f82f00000020003a00370010
:1023a0003d00070018fa07000006be000a00be0044
:1023b000324f200053f3230039fb0700060034009e
:1023c0000c00be00340007000ffa07000006be0034
:1023d0000a00be00020037008904e9000c00be00bc
:1023e0002d00070024fc07002b00070007fa070058
:1023f0000001be000c00be00e5fa07000005be00ab
:102400000001be001cfc07000006be00a2f3230072
:10241000430d2c00fdf90700809fbe000c00be009c
:10242000d2e32700d3f02b0013fc07004f01be00be
:10243000d7fa07000006be000a01be000efc070026
:102440000a01be00f1f907000006be006148b900ac
:1024500082fb07000005be0032082800e3952b0030
:1024600005fc07000c01be00e8f907000006be00ed
:102470000a00be000200280013f32300fefb070041
:102480000c01be00e1f907004f06be004f05be007b
:102490004f04be000000060003f023000200050008
:1024a000889fbe008a9fbe008c9fbe000404b800b7
:1024b0000506b8008904460060854e000606b8008f
:1024c0000a054600e0854e000706b8008b05460069
:1024d000040eb800890446000a854e00e0854d00d0
:1024e000050eb8000a0546008b854e00060eb800a2
:1024f0008b0546000416b8000a0546008b854e0081
:102500000516b8008b054600041eb8008b05460072
:102510000800be000a01be004f06be004f05be0007
:102520004f04be0000000600889fbe008088b900ee
:1025300080047800090078006f000700000478002c
:102540000800e00004003200090178008000eb0080
:102550000800780092000700080078004f04be00d1
:10256000000006000000e0002f003200c0017800eb
:10257000e38f51002c0036000308a3002a003a0024
:10258000916481000100e00002003200810f5000e0
:102590000400310011009800906489001600370093
:1025a00082007800110190000200e0000200320079
:1025b000800f5100faff3900110278008482400038
:1025c000850f500018003900808f520003003a0038
:1025d0008308420001007800070037000200e00095
:1025e0000300320083014000830f51000e003900c8
:1025f0001200980090009800900090000100e00008
:102600000900320010014000828f500006003a009d
:1026100002c922000009eb001001780011084100f6
:10262000910090001100980000000600889fbe00f5
:1026300000047800816481000100e00002003200a3
:10264000010078000d0037009164810020c922004c
:1026500004003700910f5400250036000180e80087
:10266000910090000100e000faff3a0010003700ee
:10267000920f54001e0036000280e800100178001e
:102680000200e000faff3a00110178009164810035
:1026900020c9220004003700910f540014003600b6
:1026a0000180e80091009000828f5000faff3a000c
:1026b000a9648100888f54000100310088047800eb
:1026c000090078003d0007000000e00004003a0027
:1026d000888f5400050032008904d100f5ff3700cf
:1026e000091878009fff0700d2ff37000000eb00b9
:1026f0004f04be0000000600881f780063044000fd
:102700000800a1008000eb00800f5400210036007b
:10271000e30f540001003e0048002000080078004c
:10272000c2ff07008000eb000000e000190032004b
:10273000900078009101780064815100880f510069
:1027400003003100110190000208780007003700f3
:102750000881400002087800910190001301980060
:102760001001780011091400880878001001780021
:102770000000eb000200e000040032009201900033
:102780000300e000010032000280e800806489005c
:102790008180e800010078004f0478000000060006
:1027a0008001780002003700815978000201e900b9
:1027b0000200e000fcff3a00000006008000780004
:1027c0000000eb000100e00005003400010078008b
:1027d000ebf80700e10f400001003a000000eb00b9
:1027e00000000600889fbe00000478000203be00bf
:1027f0008104780008027800890178001200200026
:102800000600be00b8090700890f50000100320021
:102810000004eb00080078004f04be000000060032
:102820006800fa00889fbe008a9fbe00800478007e
:1028300001047800820578000305780084007800a0
:1028400000f92f000f004000a5090700d98f9f0055
:10285000fb8f9f000000eb00a09f9f00e88f9f0070
:102860009a84fb000904fb008904ea00cf4cde00d7
:1028700050022000800f54000d003200e18f540000
:102880000b003a00090178008a0078007f889700e1
:10289000df89970003000100f08f9f000000e00037
:1028a000950032002f9897000000e800a09f9f003d
:1028b0000905450050022000800f5400040032003a
:1028c0000800e000e6ff3a002f9897008b003700e1
:1028d0000000eb00809f9f00f0979f00e0979f0013
:1028e000d0979f00c0979f00b0979f0007003700c8
:1028f000c1c32200010050000000400001c32200bb
:10290000808040004f98970011007000c09f9f008a
:102910000a04780008057800ba4478008900fb00b2
:10292000c0c322001b0707000000e000f0ff3a00d0
:10293000a1c2b30081cf54000e003a008f889700e7
:102940000180e900808f9f0010007800b09f9f00f9
:102950000000e00005003d000000ea00b09f9f007d
:102960004f9897000020a000c09f9f000804e80037
:1029700010003700b09f9f00880078000000eb0037
:1029800005003700f3ff2700830f500002003200dc
:10299000ea00b900000041000104780088007800d6
:1029a0003101fb000203b100e90f5100f5ff3600d1
:1029b000b09f9f00e0c2b300984f100002003200a9
:1029c0000080eb0019003700a0c2b300d84f100000
:1029d00007003a008f8897000180e900808f9f00f0
:1029e00010007800909f9f000804e8001000370056
:1029f0000000eb00909f9f008800780005003700e2
:102a0000f3ff2700830f500002003200ea00b900f4
:102a10000000410001047800880078003101fb00cb
:102a20000203b100e90f5100f5ff3600909f9f00af
:102a3000984478008900fb0080c22200d506070078
:102a40000000e000020032000804e8000100370046
:102a50008044eb00a97f9f0080c6b30080cf540064
:102a600006003a0098cf140010003a00664050006b
:102a7000a07f9f000804e8000c003700c0c6b30028
:102a800080cf540009003a0098cf140007003a00a4
:102a900067404000d84f100002003a006e405000de
:102aa0000100370010c7b300a07f9f001801fb0092
:102ab000c3fb2f008f81410001f92f008f80400060
:102ac00020f92f000f004000080107000000e0007f
:102ad00009003a00c1fb2f008f80400020f92f0031
:102ae0000f004000240807000000e000020035004d
:102af0000805e8005aff37000080eb004f05be00d4
:102b00004f04be000080fa000000060003027800b7
:102b10008201780001017800213f210040ff370049
:102b2000889fbe00800478000203be000104780084
:102b30006149b800898fd2008381d20008027800f1
:102b40000600be009a0a0700088044004f04be0039
:102b500000000600881f7800020478000801780051
:102b600085060700080040004f04780000000600ba
:102b70000000fa00881f7800000478006a8257007d
:102b8000bfb997000801780001592100a05a21001f
:102b9000160007000000e0000200350000044400b9
:102ba000004ceb004f0478000080fa0000000600a3
:102bb000889fbe00000478000203be0081047800f4
:102bc0000802780089017800120020000600be008b
:102bd000c5080700890f5000010032000004eb0017
:102be000080078004f04be00000006006800fa00ec
:102bf000889fbe008a9fbe00800478000104780090
:102c000082057800030578008400780000f92f0021
:102c10000f004000b2080700d98f9f00fb8f9f0074
:102c20000000eb00a09f9f00e88f9f009a84fb00ac
:102c30000904fb008904ea00cf4cde0050022000aa
:102c4000800f54000d003200e18f54000b003a0059
:102c5000090178008a0078007f889700df89970053
:102c600003000100f08f9f000000e000950032009b
:102c70002f9897000000e800a09f9f0009054500dd
:102c800050022000800f5400040032000800e000d1
:102c9000e6ff3a002f9897008b0037000000eb000a
:102ca000809f9f00f0979f00e0979f00d0979f0024
:102cb000c0979f00b0979f000700370061c52200b2
:102cc0000100500000004000a1c4220080804000ac
:102cd0004f98970011007000c09f9f000a04780071
:102ce00008057800ba4478008900fb0060c522001e
:102cf000280607000000e000f0ff3a00a1c2b30080
:102d000081cf54000e003a008f8897000180e900bf
:102d1000808f9f0010007800b09f9f000000e000af
:102d200005003d000000ea00b09f9f004f9897000b
:102d30000020a000c09f9f000804e800100037009a
:102d4000b09f9f00880078000000eb00050037006e
:102d5000f3ff2700830f500002003200ea00b900a1
:102d60000000410001047800880078003101fb0078
:102d70000203b100e90f5100f5ff3600b09f9f003c
:102d8000e0c2b300984f1000020032000080eb0058
:102d900019003700a0c2b300d84f100007003a0056
:102da0008f8897000180e900808f9f0010007800d5
:102db000909f9f000804e800100037000000eb001f
:102dc000909f9f008800780005003700f3ff2700e0
:102dd000830f500002003200ea00b90000004100f9
:102de00001047800880078003101fb000203b10083
:102df000e90f5100f5ff3600909f9f00984478003e
:102e00008900fb0020c42200e20507000000e0006a
:102e1000020032000804e800010037008044eb00a3
:102e2000a97f9f0080c6b30080cf540006003a00ff
:102e300098cf140010003a0066405000a07f9f0019
:102e40000804e8000c003700c0c6b30080cf54006f
:102e500009003a0098cf140007003a00674040008c
:102e6000d84f100002003a006e40500001003700b9
:102e700010c7b300a07f9f001801fb00c3fb2f0009
:102e80008f81410001f92f008f80400020f92f0031
:102e90000f004000150007000000e00009003a00a4
:102ea000c1fb2f008f80400020f92f000f00400051
:102eb000310707000000e000020035000805e800c7
:102ec0005aff37000080eb004f05be004f04be00e4
:102ed0000080fa00000006000302780082017800fa
:102ee00001017800815d210040ff3700889fbe000e
:102ef0008a1f780000047800824478000305780077
:102f000070c6b30080cf540021003c0000c0e9002f
:102f100080cf5400e6003d007240500080cf540046
:102f2000530132000d003c006c40500080cf540033
:102f300085013c0000c0e90080cf5400dc003d006a
:102f400050c2b30080cf54007c0132007c4040006e
:102f500080cf54007c013a00d500370010c6b30082
:102f600080cf5400d200320004003c006940500081
:102f700080cf540074013a007300370030c6b300ac
:102f800080cf5400180032000040e80009003700ec
:102f900000c7b30080cf54002701320008003c0076
:102fa00000c0e90080cf5400f000320066003c0011
:102fb0006540500080cf540063013a001000370094
:102fc00050c7b30080cf54005f0032006340400020
:102fd00080cf54005c0032006540500080cf540028
:102fe00059013a00220137001181e9008208780076
:102ff0002808900000054500124d78005801370060
:1030000008689000c2c6b300824f500008003a0022
:103010001101780064005100800878009000900051
:10302000100078004f89de0082017800160037001a
:1030300012c7b300824f500003003a00110278001b
:103040006800520005003700a2c6b300824f50004e
:1030500008003a00910278006880520080087800e9
:103060009000900020019000b001900010007800c6
:10307000050037001180e900800878001000780012
:10308000cf80de006109b900009cbe000294be0042
:10309000086a900085c6b300854f52000d003200cb
:1030a00025c6b300854f520004003a000000fb0023
:1030b000cf80de006109b9000800370045c7b300c2
:1030c000854f520003003200e6c24200854f520095
:1030d00004003a00cf80de006109b900009cbe0008
:1030e0000294be0018027800980290002803900015
:1030f000b803900028089000e00f5200e08f5a00bb
:10310000e00f5b00e08f5b0003003d0080004500a6
:10311000d2c2b3000a003700b81090000118a30013
:103120000300320080004500b2c2b3000400370043
:103130000108a300590032008000450002c2b3001c
:10314000824878005300370008689000c2c6b30078
:10315000824f500009003a001103780064005300c8
:103160008008780010027800900290006033b80068
:103170000400be000601be001600370012c7b300ef
:10318000824f500003003a0091027800688052009c
:1031900005003700a2c6b300824f500008003a0075
:1031a00011037800680053008008780090009000b8
:1031b00020019000b0019000100078000500370059
:1031c0001180e90080087800100078008000eb0092
:1031d0006011b800009cbe000294be00086a900016
:1031e00085c6b300854f52000d00320025c6b300de
:1031f000854f520004003a000080fb008000eb0085
:103200006011b8000800370045c7b300854f520071
:1032100003003200e6c24200854f520004003a002b
:103220008000eb006011b800009cbe000294be005c
:10323000381090000038a300180032001800780001
:103240009800900028019000b8019000e00f500015
:10325000e08f5800e00f5900e08f59000f00320056
:1032600080c7b30080cf54000300320080c5b30094
:1032700080cf540009003a002808900080004500e3
:1032800002c3b300824878000000e80080004500d7
:10329000894878000000e800200c98002808900079
:1032a000000545007a049800894078006d003700d9
:1032b00008699000c0c4b300804f510008003a0074
:1032c0009103780068805300800878009000900097
:1032d00020019000b0019000100078000600370037
:1032e000110178006400510080087800900090007f
:1032f00010007800aa090700009cbe000294be00de
:10330000b8009000280890000100e00003003d0094
:1033100080004500d2c2b3000a003700b810900008
:103320000118a3000300320080004500b2c2b300c0
:10333000040037000108a3000500320080004500aa
:1033400002c2b300824878000000e800200c980018
:1033500028089000000545007a0498008900fb00c9
:1033600008007800840007007f003700086990009b
:10337000c3c6b3001180e900834f51002200320020
:103380000a003c00e4c15100834f51002500320087
:1033900083c1e800834f510013003200e8c151009f
:1033a000834f51001e003a000a00370043c7b300a4
:1033b000834f51001b003200e6c14100834f510092
:1033c00018003200e9c15100834f510014003a0047
:1033d000050037008008780010007800286490000d
:1033e00008487800600037008008780010007800f6
:1033f00018129000cfa2de00612bb9000498be0025
:103400000690be0058003700800878001000780051
:1034100018119000cf91de000288be0052003700e4
:103420001180e900800878001000780018149000de
:10343000080878004c0037001180e9008008780007
:1034400010007800cf80de006109b900009cbe004a
:103450000294be0028089000000545007a049800f8
:1034600081c7b30008007800860407003e003700db
:103470000869900050c6b300804f51001b003a000d
:1034800011027800640052008008780090009000db
:1034900010007800000c9800110c98008811900022
:1034a0000300e00007003d008081eb000001eb001d
:1034b000680807000001be008808900081005100e4
:1034c000080037000001eb0062080700008170006f
:1034d000030032000809900082005000010037000c
:1034e00088109000410c98001f0037001180e900ff
:1034f00080087800100578007a04980088149000fd
:103500000900e00004003d000a0078002d040700d7
:103510008004780007003700090178008000eb0084
:103520000a0078000a0407000000e00001003200f1
:103530008a045000490c98000b00370028089000be
:1035400000054500050037002808900000054500eb
:103550000904e00001003a0059c2b300094d7800a7
:103560000000e800200c98000000eb004f057800f8
:103570004f04be00000006002f04b000889fbe006c
:103580008a9fbe008c9fbe008e1f780000077800c7
:1035900081f79f001e0478009e0490002e05900085
:1035a000be0590000e1090000000e00002003d00fb
:1035b00060002000001798008e00780020fb2f008c
:1035c0000f00400005040700e20f50000a003a0017
:1035d00030002000400f9800b1c9b3000ff09700f1
:1035e0008140400020bb2200e1cf50000d003e0092
:1035f000e0ba22000b0037000000e0000f003400aa
:1036000030002000400f9800b1c9b3000ff19700bf
:1036100081404100a0bb2200e1cf500001003e00ec
:1036200060bb2200fe009000b0487800b0687800cf
:103630001040780090409800f70037000000e0004c
:1036400005003a0022fb2f000f014100001978000d
:103650008001eb00eb0037006022b8006033b80057
:103660000800be000a01be00150807000000e000c7
:1036700001003d000bf0a200705927009f989700b1
:103680000088b900026a28001300200070080700b3
:10369000640650009c9f9f0015003b0063061600c7
:1036a000c0ff2f00000666008c01ea00939f9f0078
:1036b000edbb22000800be000a01be000900370071
:1036c0000c08a300050032001d0278009d02900046
:1036d0002d039000bd039000ff0807000c86d10069
:1036e000e88646000c00e000f5ff3c001a003700b9
:1036f0000c00e0001a003200c0ff2f000006660038
:103700009c9f9f00edbb22006000b80002002000db
:1037100003ff2300090037000c08a3000500320056
:103720001d0278009d0290002d039000bd039000c3
:10373000e90807000c86d100e88646000c00e0008e
:10374000f5ff3c000002be000203be000800be0000
:103750000a01be00e40707000004be000205be0027
:103760008e10900060c6b3000ff29700804f520099
:10377000040032006000200062c4b300824f520097
:1037800002003a009f9a97006a8042008100400040
:10379000f1b79f0001037800f30f530002003400db
:1037a00037012000f7b79f0000c3b300c0779f0028
:1037b00056fb2f000f0343000e007800a0b79f00b8
:1037c000060778003d0037000800be000a01be0071
:1037d000920807000006be007fb197006801510003
:1037e000f2b79f004240a9000c003400b708070060
:1037f0000002be000203be000800be000a01be00b7
:103800002b0907006022b80046782d0077192400a4
:10381000b10807000004be000205be00e800470032
:103820008e0020000802be000a03be00b4b79f004d
:10383000c5b79f00d6b79f00e7b79f000c01be0039
:10384000010478000c003700a400200005002000cf
:10385000c0fd2f000f004000280307006fa897004d
:10386000ffa897000fb197009fb1970005c3b30061
:10387000056441000001be00e00f5100e08f5900d7
:10388000030034000e07e900e10f4700eeff3a00a5
:10389000880078003fb49700cfb497005fb59700d9
:1038a000efb597000200370000c3b30080607800d6
:1038b0000e07e900fcff3b00688740007fb39700dc
:1038c0000600e000070034006022b8006033b80052
:1038d0000800be000a01be007e0707000000e000ed
:1038e000b9ff3c000e0378002fb7970051fb2f0063
:1038f0008f804000010353009f9b97006780430027
:10390000909f9f00020037000603e9000000e900d5
:10391000010178008200780003c3b300b1cf110029
:10392000f9ff3200909f9f008e11900061c6b30096
:103930000ff29700814f52000300320061c4b300c0
:10394000814f520002003a000000e8000a003700f0
:103950001000200051c6b3008ff2970081cf5200b3
:10396000050032000540780050c4b2000080fb0022
:103970000000e9004f00de0083014000868f510007
:1039800001003400860178000300e0001d003500ce
:1039900000c3b300868f510006003d0003024100c2
:1039a0006940400041c3b30094cf100001003c00c7
:1039b000694050008300e9008100410001003700a8
:1039c000840178000302e90001037800a142780035
:1039d00080cf5200faff320091c3b300814f5000f4
:1039e00001003a00054be8000400e00005003d003e
:1039f0000201e9008301e8001f9b97000603e8002d
:103a0000969f9f008ff397008700fb001f9a9700f7
:103a10000e007800060007004f0778004f06be0032
:103a20004f05be004f04be002f04b1000000060089
:103a3000f0874700889fbe008a9fbe008c9fbe0013
:103a40008e1f780000047800814478000205be00d3
:103a5000040678000b00e00002003c001b00200080
:103a60006ac9220060c6b30080cf54000e00320045
:103a700060c4b30080cf54000b00320070c6b300a6
:103a800080cf54000300320070c4b30080cf5400d4
:103a900085003a00e40f46008300350008109000ce
:103aa000800f560080003d000c06e80060c6b300a1
:103ab00080cf54001000320060c4b30080cf5400a7
:103ac0000d003200381090000038a30004003a00c6
:103ad00008109000808f550001003d000b149800e5
:103ae000081090000c0050000014980002003b00e9
:103af0000000eb0000149800c808900078009000c7
:103b00000c00e00028003c000100400002c3b300ac
:103b1000024878008100e800410c980008109000ed
:103b20000000e00003003c00381090000038a300c3
:103b3000060032007800900001004000e2c2b300ad
:103b4000024878008100e800410c980008109000bd
:103b50008c00ea00810f500001003d000006ea00e1
:103b60008c00ea00510c9800000646000c149800e6
:103b70008b0f5600010034000b0678006c0c980087
:103b8000f800900048089000008040000c01780088
:103b90008a00780078020700081090000c06500098
:103ba0007c0c9800940037008c8f550019003d0064
:103bb000010040000b0178008a0078006e020700c7
:103bc0004808900000804500400c98008b05560086
:103bd0005b0c9800881090000100e00003003c009e
:103be000b81090000138a30007003200f8009000e0
:103bf00000804000e1c2b3000148780068089000ee
:103c00000000e800600c980008109000700c98000c
:103c100079003700010040000c0178008a0078002c
:103c2000550207004808900000004600400c98002c
:103c30008c855500881090000100e00003003c00d6
:103c4000b81090000138a30006003200f800900080
:103c500080804000e2c2b300824878000000e800a3
:103c6000400c980008109000808f5500010034002f
:103c700080057800f800900048089000008040001f
:103c80008c0045000b0178003b02070048089000bb
:103c90000b004000400c9800081090008b0550006d
:103ca0005b0c98005400370048089000f800900022
:103cb000808040009a4878000000e800400c98009e
:103cc000881090000100e00003003c00b810900054
:103cd0000138a30006003200f80090008080400008
:103ce000e2c2b300824878000000e800400c98006f
:103cf000081090000000e000100034008b05e9007f
:103d0000808f55000100340080057800f800900095
:103d100048089000008040008a00e8000b0178000d
:103d200015020700480890000b004000400c980066
:103d3000081090008b0550005b0c9800f800900074
:103d40004808900000804000095878000007e8000b
:103d50000c00e00004003500b1c2b3000148780057
:103d60008e04780004003700d1c2b3000148780007
:103d70008e0478000c06ea007d8557008006eb0073
:103d800009003700a20020008c00780072805700e4
:103d9000cf0107007fb097008fb89700016d7800c2
:103da000000678008d06e8000c00e000f5ff3c00fe
:103db0000d00e00009003a008e04780000c3b30053
:103dc000805c7800050037008d06e900fc80570014
:103dd0000d80400001c3b30090dc40000d00e00006
:103de000f9ff3c00f8009000480890000080400077
:103df00080845400690c98003810900074006000b2
:103e0000f00f50000e003a00c808900028089000fb
:103e100000804000d808900001004000e8089000b1
:103e200001004000f808900001004000a810900038
:103e3000810f500002003d0000805000300c9800bf
:103e40004f0778004f06be004f05be004f04be006e
:103e50000f01b10000000600889fbe00000478003a
:103e60000203be008104780008027800890178000e
:103e7000120020000600be001b040700890f50003e
:103e8000010032000004eb00080078004f04be007f
:103e9000000006006800fa00889fbe008a9fbe00ee
:103ea000800478000104780082057800030578001a
:103eb0008400780000f92f000f004000080407007c
:103ec000d98f9f00fb8f9f000000eb00a09f9f00f9
:103ed000e88f9f009a84fb000904fb008904ea0034
:103ee000cf4cde0050022000800f54000d00320045
:103ef000e18f54000b003a00090178008a00780035
:103f00007f889700df89970003000100f08f9f00f2
:103f10000000e000950032002f9897000000e800b4
:103f2000a09f9f000905450050022000800f54000b
:103f3000040032000800e000e6ff3a002f989700e6
:103f40008b0037000000eb00809f9f00f0979f00e0
:103f5000e0979f00d0979f00c0979f00b0979f0069
:103f60000700370001c72200010050000000400098
:103f700041c62200808040004f98970011007000d9
:103f8000c09f9f000a04780008057800ba447800b2
:103f90008900fb0000c722007e0107000000e0004e
:103fa000f0ff3a00a1c2b30081cf54000e003a00e6
:103fb0008f8897000180e900808f9f0010007800b3
:103fc000b09f9f000000e00005003d000000ea00f7
:103fd000b09f9f004f9897000020a000c09f9f00b7
:103fe0000804e80010003700b09f9f0088007800a8
:103ff0000000eb0005003700f3ff2700830f50009f
:1040000002003200ea00b90000004100010478001b
:10401000880078003101fb000203b100e90f510074
:10402000f5ff3600b09f9f00e0c2b300984f10002c
:10403000020032000080eb0019003700a0c2b3007c
:10404000d84f100007003a008f8897000180e900e0
:10405000808f9f0010007800909f9f000804e80068
:10406000100037000000eb00909f9f008800780050
:1040700005003700f3ff2700830f500002003200d5
:10408000ea00b900000041000104780088007800cf
:104090003101fb000203b100e90f5100f5ff3600ca
:1040a000909f9f00984478008900fb00c0c52200c3
:1040b000380107000000e000020032000804e800b8
:1040c000010037008044eb00a97f9f0080c6b30049
:1040d00080cf540006003a0098cf140010003a0038
:1040e00066405000a07f9f000804e8000c003700e5
:1040f000c0c6b30080cf540009003a0098cf140026
:1041000007003a0067404000d84f100002003a0014
:104110006e4050000100370010c7b300a07f9f0021
:104120001801fb00c3fb2f008f81410001f92f0014
:104130008f80400020f92f000f0040006bfb07002c
:104140000000e00009003a00c1fb2f008f80400012
:1041500020f92f000f004000870207000000e00058
:10416000020035000805e8005aff37000080eb0028
:104170004f05be004f04be000080fa00000006009c
:10418000030278008201780001017800c1f2210069
:1041900040ff3700889fbe00000478000203be0085
:1041a000810478000802780089017800120020005c
:1041b0000600be004c030700890f500001003200ca
:1041c0000004eb00080078004f04be000000060069
:1041d0006800fa00889fbe008a9fbe0080047800b5
:1041e00001047800820578000305780084007800d7
:1041f00000f92f000f00400039030700d98f9f00fe
:10420000fb8f9f000000eb00a09f9f00e88f9f00a6
:104210009a84fb000904fb008904ea00cf4cde000d
:1042200050022000800f54000d003200e18f540036
:104230000b003a00090178008a0078007f88970017
:10424000df89970003000100f08f9f000000e0006d
:10425000950032002f9897000000e800a09f9f0073
:104260000905450050022000800f54000400320070
:104270000800e000e6ff3a002f9897008b00370017
:104280000000eb00809f9f00f0979f00e0979f0049
:10429000d0979f00c0979f00b0979f0007003700fe
:1042a000a1c822000100500000004000e1c7220028
:1042b000808040004f98970011007000c09f9f00c1
:1042c0000a04780008057800ba4478008900fb00e9
:1042d000a0c82200af0007000000e000f0ff3a0095
:1042e000a1c2b30081cf54000e003a008f8897001e
:1042f0000180e900808f9f0010007800b09f9f0030
:104300000000e00005003d000000ea00b09f9f00b3
:104310004f9897000020a000c09f9f000804e8006d
:1043200010003700b09f9f00880078000000eb006d
:1043300005003700f3ff2700830f50000200320012
:10434000ea00b9000000410001047800880078000c
:104350003101fb000203b100e90f5100f5ff360007
:10436000b09f9f00e0c2b300984f100002003200df
:104370000080eb0019003700a0c2b300d84f100036
:1043800007003a008f8897000180e900808f9f0026
:1043900010007800909f9f000804e800100037008c
:1043a0000000eb00909f9f00880078000500370018
:1043b000f3ff2700830f500002003200ea00b9002b
:1043c0000000410001047800880078003101fb0002
:1043d0000203b100e90f5100f5ff3600909f9f00e6
:1043e000984478008900fb0060c72200690007003c
:1043f0000000e000020032000804e800010037007d
:104400008044eb00a97f9f0080c6b30080cf54009a
:1044100006003a0098cf140010003a0066405000a1
:10442000a07f9f000804e8000c003700c0c6b3005e
:1044300080cf540009003a0098cf140007003a00da
:1044400067404000d84f100002003a006e40500014
:104450000100370010c7b300a07f9f001801fb00c8
:10446000c3fb2f008f81410001f92f008f80400096
:1044700020f92f000f0040009cfa07000000e00028
:1044800009003a00c1fb2f008f80400020f92f0067
:104490000f004000b80107000000e00002003500f6
:1044a0000805e8005aff37000080eb004f05be000a
:1044b0004f04be000080fa000000060003027800ee
:1044c0008201780001017800a10c220040ff370032
:1044d0008002780001037800110009000203d8006f
:1044e00080017800830a78008299b9008200530025
:1044f000910298000500780000000600881f7800ef
:104500008a9fbe008c9fbe00000478000205be009a
:104510000406be000401be000a00be00cc04070071
:10452000008cbe000c01be00f6050700000555001a
:1045300081855d002a0498003b04980008007800fb
:104540004f06be004f05be004f0478000000060075
:1045500003003700b0cf1000050032000201e9006f
:10456000800178000200e000faff3a000000050038
:104570000300780000000600800178000200370088
:10458000b15978000201e9000200e000fcff3a00a6
:1045900000000600020037000304e00006003200bd
:1045a0000001780002007800b041780081cf51000e
:1045b000f9ff3a00010037000001eb00020078002b
:1045c0000000060080007800010178003104e0005e
:1045d000fdff3a000000510000000600889fbe0069
:1045e00000047800e68440001900d0004500de0099
:1045f000f27f2000820f500010003a00000ceb0008
:10460000990478006f816400200020001b003a00ac
:10461000210190000200e00018003a001101900012
:104620000200e00015003a00100020001100e00038
:104630001200320020002000100037000000e000cf
:1046400004003a0001007800cf0207000000e000fb
:1046500008003c00f20028001901610001fe23005f
:10466000810c710021c02f00010c40000080eb0084
:1046700002003700000ceb000000eb004f04be000e
:1046800000000600fc874700889fbe008a9fbe008e
:104690008c9fbe008e1f78000006780080c5b30096
:1046a00080cf50000a0032007740400080cf500099
:1046b0000a0032006940400080cf50000b003200f9
:1046c00070c1220080bf9f00ae0020000a003700aa
:1046d00062c0220082bf9f000600370073c1220023
:1046e00083bf9f008e0020000300370074c12200aa
:1046f00084bf9f000e0120001c0278009c029000e5
:104700002c039000bc0390000605be000404be000c
:1047100040c6b30080cf5000030032006540400027
:1047200080cf50000b003a00e00f5200e08f5a009b
:10473000e00f5b00e08f5b0006003d006000b8000a
:104740006011b80004045000858458000605590023
:1047500087855900e80f5700040032004000200010
:10476000f00f57003c003a000100370030002000f5
:10477000e00f5400e08f5c00e00f5d00e08f5d0013
:1047800004003a008c1090008d0120000100e00030
:10479000070032008e00e900888060008fba970021
:1047a0008180420091407800f1ef9f007d01200060
:1047b000800078008100e900050033008b05d100fe
:1047c0000a85d3008984d3000884d300f9ff370019
:1047d000089ebe000a96be00130037008d06e90051
:1047e0008e00e900848060000fb9970081004100cd
:1047f0001141780083fd2f008d81410082f77900ff
:10480000800178008301e900050033008783d1002f
:104810000683d3008582d3000482d300f9ff3700da
:10482000049ebe000696be001c0278009c0290000a
:104830002c039000bc039000e00f5200e08f5a0060
:10484000e00f5b00e08f5b00930034000d00e000a0
:10485000e2ff3c00900037000c68900081c6b30076
:10486000814f50000b00320006003c000004e000c5
:1048700008003200e6c05000814f500052003a005c
:1048800004003700c1c6b300814f50004e003a000b
:10489000230037000800e00004003a000c109000ec
:1048a0008d0120000000e000070032001100090027
:1048b0000e84d8000fba9700010042001040780023
:1048c000f0ef9f007d012000110009000e84d80048
:1048d0000b003700110009000e04d8008d06e90016
:1048e0008e81b900020454008fb8970008844000fc
:1048f0009841780082fd2f000d01410083777900f7
:10490000000478000800e000020032000d00e00022
:10491000f0ff3c00cfc4de00614db9002700370036
:10492000e00f5400e08f5c0004003a000c1090008f
:104930008d0120000000e000080032006171b90024
:104940000800be00ec0407000fba97008000420088
:1049500091407800f1ef9f007d0120006171b90066
:104960000800be00d40407000c0037006171b900d4
:104970000800be00b60307008d06e90080f1b9000b
:10498000020454008fba97000884420098417800ce
:1049900082fd2f000d014100837779000004be00e5
:1049a000e00f5000e08f5800020032000d00e000e0
:1049b000eeff3c004fcdde008a057800089ebe0069
:1049c0000a96be0034003700e00f5400e08f5c0010
:1049d000e00f5d00e08f5d0004003a000c109000d5
:1049e0008d0120000000e0000a0032006172b90071
:1049f000612bb9000800be000a01be008cf407005c
:104a00000fba97008000420091407800f1ef9f00bc
:104a10007d0120006172b900612bb9000800be0061
:104a20000a01be007bf407000e0037006172b90076
:104a3000612bb9000800be000a01be0080f4070027
:104a40008d06e90080f2b900040454008fba970083
:104a5000088442009842780084fd2f000d02420035
:104a600085777a00009ebe000296be001c04780086
:104a70009c0490002c059000bc059000e00f5400b1
:104a8000e08f5c00e00f5d00e08f5d00020034000d
:104a90000d00e000e5ff3c00e80f570010003a0071
:104aa0003c1090000038a3000d003200f78f560034
:104ab00006003e0080fd2f000d004000ef40780012
:104ac00000c3b30080cf50000500320002c3b30022
:104ad00071fd2f008d8040008d06e90082f778007f
:104ae00078811600420e98007c00900083fd2f0014
:104af0008f8141008d8041009ffe07004c0890008f
:104b00008c109000810f500006003d000080500086
:104b1000300e98003c1090000040a1003016980024
:104b20000f0037000100e0000d003d00bc109000b8
:104b3000f4806000f08f500009003a002c119000c2
:104b4000ac089000810051003c0990008280500028
:104b5000008050004240a90001003400300e98004f
:104b60004f0778004f06be004f05be004f04be0041
:104b7000cf01b100000006000400fa00889fbe00cb
:104b80008a9fbe008c1f7800000478000106780020
:104b9000a8149000280890008084540038089000e1
:104ba0008084540048089000808454005808900085
:104bb0008084540068089000808454007808900035
:104bc000808454000002220090bf9f000003230055
:104bd000a0bf9f00381090000028a30015003a00e5
:104be0000900e00013003400090578008a05780008
:104bf000e20f5500010036002b002000c801900094
:104c00000b017800ee80570068009000030001005f
:104c1000600498000000e000aa0032001810900024
:104c20000b004000101498000b0555004240a900ed
:104c3000eeff3c00280990000200e0000c00340068
:104c4000c80190008c00780068009000030001000b
:104c5000600498008080eb000000e0009a003200c1
:104c600098109000280890000080400010149800d0
:104c7000380d90000a00e000110034008a05780029
:104c8000e20f5500010036002b002000c801900003
:104c90000b017800ec8057006800900003000100d1
:104ca000600498000000e0008600320018109000b8
:104cb0000b004000101498000b055500edff370065
:104cc00008699000c808900050c6b300804f51009a
:104cd00008003a000100e00015003400580290007e
:104ce00008099000980990006800900004000100f5
:104cf000070037000100e0000d003400c8019000fb
:104d000001017800f80090006800900003000100a5
:104d1000600498008080eb000000e0006a00320030
:104d200098109000480890000080400010149800ef
:104d3000580d90000a00e000110034008a05780048
:104d4000e20f5500010036002b002000c801900042
:104d50000b017800ec805700680090000300010010
:104d6000600498000000e000560032001810900027
:104d70000b004000101498000b055500edff3700a4
:104d8000086990006808900051c6b300814f510037
:104d90000d003a000000e0001c0034007801900093
:104da000c8089000010141006111b800828fd20053
:104db0008381d20058029000800078006800900043
:104dc00004000100090037000000e0000f0034007b
:104dd00078019000c808900081004100c80190004f
:104de0000001780068009000030001006004980052
:104df0008080eb000000e00033003200981090004b
:104e0000680890000080400010149800780d900011
:104e10000a00e000110034008a057800e20f550016
:104e2000010036002b002000c80190000b01780023
:104e3000ec805700680090000300010060049800b7
:104e40000000e0001f003200181090000b0040002e
:104e5000101498000b055500edff37003810900036
:104e60008000eb000028a300170032000900e000da
:104e70001500340009057800e28f54000100360067
:104e80002a002000c80190000a017800ee80570037
:104e90006800900003000100600498000000e0003a
:104ea00008003200181090000a004000101498000a
:104eb0008a8454004240a900eeff3c008000eb00d1
:104ec000010037008080eb00010078004f06780079
:104ed0004f05be004f04be000080fa00000006002f
:104ee0000108780000000600e6874700889fbe00a2
:104ef0008a9fbe008c9fbe008e1f780082bf9f00dd
:104f0000040478008299b900f2b79f000200e00023
:104f1000590032000fb997000200e000570032003c
:104f20000006be007fb79700c800900068009000a0
:104f3000808f50000400390008007800de00070070
:104f40000000e0003b003500004020001800600039
:104f50000a0032008e017800a20020000c00be0082
:104f6000bc0107000005be0000807500070032008c
:104f70008c0455008904e800050037008e04780091
:104f80000a0020000b002000010037008e0478008a
:104f9000480190006800900002005000890f500006
:104fa00003003100800478000a0020000b0020007c
:104fb0006111b800828fd2008381d200090278008b
:104fc0000c00be007a010700090757004800900056
:104fd00009004000400498000a8575000400320072
:104fe000080078002c0007000000e00011003a00e3
:104ff0000e00e0000f0032006148b800808fd20040
:105000008180d2000000780000f0a1000c01d000e7
:105010008001d000030641004220a80081864e0096
:105020004200a9004220ae004200a8000c86d30036
:10503000bdff370000802000180060000200320031
:10504000080078001400070000c02000180060006d
:105050000200320048009000600498007fb1970081
:105060000e0751000fb99700110009000287d80000
:1050700080017800010037008001eb000300780018
:105080004f0778004f06be004f05be004f04be001c
:105090006f00b10000000600889fbe000004780089
:1050a0000800e00010003a008004eb0009047800da
:1050b0008800d00020ac2200008040001000780062
:1050c0000000e00004003200f3ff07000000e000f1
:1050d00001003d008084eb000804e800e80f540064
:1050e000f3ff3a002500370000002200180060009e
:1050f0008004eb0021003200a80490000f0037006c
:1051000009015100384090000000fb008900780040
:1051100050ee07000000e00007003c00280090006f
:105120004004980060049800500c98001890a0006b
:105130008084eb0011003700808444004801900017
:10514000828f5400eeff3900280090004004980040
:105150009800780002c020000281600001003a003f
:105160003800900001e8a3000200320060049800bb
:1051700001003700500c98008004eb000900780013
:105180004f04be0000000600e60040001101780058
:1051900005002800850261006f0161008208780027
:1051a000020032001200200011003700a001900020
:1051b000120020000300e0000d003a009001900072
:1051c0000300e0000a003a001000e00008003a0086
:1051d00036003700640340009608780080017800ac
:1051e000530b780090097800040878007001510092
:1051f000110278000400e000f6ff320013003700cf
:1052000064024000140378004f33de0083814100c4
:105210008308730080017800d3037800cf3bde0061
:105220001403780006034300068a73001302780013
:1052300004024200100378004f33de00860972003a
:1052400090017800038841000201e9009101780093
:10525000ef8f5100eaff3600100037008001780020
:10526000530378004f33dd001002d10004087300af
:105270006402400094037800cf3bdd001303d100ab
:1052800086897300110378004f33dd009401d1004b
:10529000030a73009108d1000201e800910178002f
:1052a000ff8f5100edff3e00ef8861009188720092
:1052b0000200780000000600889fbe008a1f780068
:1052c00000047800c8009000680190000000eb0026
:1052d000828f50003c00390018007800220029001d
:1052e00002016000e20f510007003200012020009f
:1052f0000000e0000100350001202400008c700057
:105300000080eb0030003700020026000200600041
:10531000820f500009003a0038009000808f500042
:1053200006003900080078005bff07008000780065
:105330000080eb000100e00023003a00180578002f
:1053400000c020000000650018003a00a80490008a
:105350006002200008004000808f540013003a00d3
:1053600000202000e4f40700200498000000e00082
:1053700005003a0029049800490498008904e800cf
:1053800039049800080037000a60a0000a0c780071
:1053900040049800012020008080400031049800e3
:1053a000400c9800500c98000c000700280090005a
:1053b0005004980038009000600498000000260017
:1053c000180c70000000eb004f0578004f04be0081
:1053d0000000060000a9220062003700881f780044
:1053e00088c922001804e00003003a00f9ff070012
:1053f00020c0b300004c78004f0478000000060085
:10540000889fbe00000478000800780022ff070093
:1054100080047800000420001800600002003200c0
:10542000280090004ff407000000eb0020049800d3
:10543000384090000004e000050035000000fb004b
:105440007bed07000000e000010032008084eb00eb
:10545000181090000000e00008003200bfed0700c7
:105460000000e000010032008084eb001810900082
:105470003cf407000000eb00101498000008200026
:1054800018006000150032000001eb006000b80059
:105490000202d00023ac220003024200940f140049
:1054a00005003a0000004000818048000080410073
:1054b0000008eb000600370061004000e080480073
:1054c0000201e800e80f5000e08f5800f0ff3a00ba
:1054d0000800780023f407000e003700000c780065
:1054e00000c0eb003044980060022000080040003b
:1054f000200498004004980050049800400c980044
:1055000060049800500c98007004980076004400e5
:10551000000c9800090078004f04be00000006004f
:10552000881f78000004eb006140b800e2ff2f0004
:10553000f3ff2f00f301070002ad220080004100bd
:10554000110078000000e00001003200acff07000d
:105550000804e800e80f5400f3ff3a004f04780015
:1055600000000600010020000100e00009003200f8
:10557000010080000100e000060032008100e90027
:10558000010088008100d00002008000828040007d
:10559000800878000000060000c0da000000060065
:1055a00000c0da000000060000c0da0000000600bb
:1055b0003400f8003200f8000203be0082027000de
:1055c0008502720002f0a6008301e800a3018800b2
:1055d00000f0a6008100e800910188001500b200eb
:1055e0000c003200104978000402e9001500320076
:1055f00061014100020039003420ec000200280063
:1056000061004000f7ff39003220ec000000280064
:10561000f4ff3700100978000482e9000900320025
:1056200062014100020039003420ec000200280031
:1056300062004000f7ff39003220ec000000280033
:10564000f4ff37003200f9003400f9000601be0013
:10565000000006000300e000070032009501800012
:1056600001d0fe001042780005d0fe000402fb00cd
:10567000820f5200110032008301e9009501800081
:1056800001d0fe001042780005d0fe000404e000c6
:1056900008003200000278001000b00000026a002a
:1056a0004260af0000f0a0000482d2000180b00090
:1056b000e8ff370000002000010020000000060085
:1056c0008f1fd100140207008f87e9000000e0005f
:1056d00000000600809feb000f0207008f87e900a3
:1056e0000000e000000006002800fa00889fbe00cd
:1056f0008a9fbe008c9fbe0003866b008f00070050
:105700006400e100440032006408e1004a00320015
:105710006100e100460032006108e100490032000a
:10572000ec0647006000b8003d02be003d03be002d
:10573000f48657006011b8003d04be003d05be0070
