:020000040800F2
:10000000000005202D7400085146000853460008E2
:1000100055460008574600085946000800000000F1
:100020000000000000000000000000005B46000827
:100030005D460008000000005F46000861460008B9
:100040007D7400087D7400087D7400087D740008CC
:100050007D7400087D7400087D7400087D740008BC
:100060007D7400087D7400087D7400087D740008AC
:100070007D7400087D7400087D7400087D7400089C
:100080007D7400087D7400087D7400087D7400088C
:100090007D7400087D7400087D7400087D7400087C
:1000A0007D7400087D7400087D7400087D7400086C
:1000B0007D7400087D7400087D7400087D7400085C
:1000C0007D7400087D7400087D7400087D7400084C
:1000D0007D7400087D7400087D7400087D7400083C
:1000E0007D7400087D7400087D7400087D7400082C
:1000F0007D7400087D7400087D7400087D7400081C
:100100007D7400087D7400087D7400087D7400080B
:100110007D7400087D7400087D7400087D740008FB
:100120007D7400087D7400087D7400087D740008EB
:100130007D7400087D7400087D7400087D740008DB
:100140007D7400087D7400087D7400087D740008CB
:100150007D7400087D7400087D7400087D740008BB
:100160007D7400087D7400087D7400087D740008AB
:100170007D7400087D7400087D7400080000000094
:100180007D7400087D7400087D7400087D7400088B
:100190007D7400087D7400087D7400087D7400087B
:1001A0007D7400087D7400087D7400087D7400086B
:1001B0007D7400087D7400087D740008694600089D
:0801C0007D7400087D74000845
:1001D00010B5054C237833B9044B13B10448AFF381
:1001E00000800123237010BD9C020020000000004D
:1001F000E8C4000808B5034B1BB103490348AFF33B
:10020000008008BD00000000A0020020E8C4000833
:10021000034613F8012B002AFBD1181A0138704746
:1002200001F0FF01102A2BDB10F0070F08D010F8A7
:10023000013B013A8B422DD010F0070F42B3F6D1AB
:10024000F0B441EA012141EA014122F007047FF0C4
:1002500000070023F0E80256083C85EA010586EA1B
:10026000010685FA47F5A3FA87F586FA47F6A5FA57
:1002700087F68EB9EED1F0BC01F0FF0102F0070263
:1002800032B110F8013B013A83EA010313B1F8D10E
:100290000020704701387047002D06BF35460338EF
:1002A000073815F0010F07D1013015F4807F02BF28
:1002B000013015F4C03F0130F0BC0138704700BF79
:1002C0004B1C012B98BF70472DE9F003911C9B0834
:1002D000B1F80480B1F802900A8831F802CC804469
:1002E000814402448444D9F80070D8F8006015684D
:1002F000DCF80040C9F80060C8F80070CCF8005085
:100300001460D9F80470D8F804605568DCF804402B
:10031000C9F80460C8F80470CCF80450546008317F
:10032000013BD5D1BDE8F00370474B1C012B98BFB2
:1003300070472DE9F003911C9B08B1F80480B1F8D7
:1003400002900A8831F802CC00EB580800EB5909FA
:1003500000EB520200EB5C0CD9F80070D8F800609A
:100360001568DCF80040C9F80060C8F80070CCF8E7
:10037000005014600831013BDFD1BDE8F003704745
:1003800081F0004102E000BF83F0004330B54FEA46
:1003900041044FEA430594EA050F08BF90EA020FB3
:1003A0001FBF54EA000C55EA020C7FEA645C7FEA46
:1003B000655C00F0E2804FEA5454D4EB5555B8BF69
:1003C0006D420CDD2C4480EA020281EA030382EADA
:1003D000000083EA010180EA020281EA0303362D6C
:1003E00088BF30BD11F0004F4FEA01314FF4801C3F
:1003F0004CEA113102D0404261EB410113F0004F51
:100400004FEA03334CEA133302D0524263EB430307
:1004100094EA050F00F0A780A4F10104D5F1200EA5
:100420000DDB02FA0EFC22FA05F2801841F1000100
:1004300003FA0EF2801843FA05F359410EE0A5F1D4
:1004400020050EF1200E012A03FA0EFC28BF4CF005
:10045000020C43FA05F3C01851EBE37101F00045BB
:1004600007D54FF0000EDCF1000C7EEB00006EEBC8
:100470000101B1F5801F1BD3B1F5001F0CD3490852
:100480005FEA30004FEA3C0C04F101044FEA4452A9
:1004900012F5800F80F09A80BCF1004F08BF5FEA30
:1004A000500C50F1000041EB045141EA050130BD10
:1004B0005FEA4C0C404141EB0101013C28BFB1F522
:1004C000801FE9D291F0000F04BF01460020B1FA6D
:1004D00081F308BF2033A3F10B03B3F120020CDA40
:1004E0000C3208DD02F1140CC2F10C0201FA0CF01E
:1004F00021FA02F10CE002F11402D8BFC2F1200C83
:1005000001FA02F120FA0CFCDCBF41EA0C01904038
:10051000E41AA2BF01EB0451294330BD6FEA040481
:100520001F3C1CDA0C340EDC04F11404C4F120026C
:1005300020FA04F001FA02F340EA030021FA04F37E
:1005400045EA030130BDC4F10C04C4F1200220FAD5
:1005500002F001FA04F340EA0300294630BD21FA13
:1005600004F0294630BD94F0000F83F4801306BFD9
:1005700081F480110134013D4EE77FEA645C18BFCD
:100580007FEA655C29D094EA050F08BF90EA020F64
:1005900005D054EA000C04BF1946104630BD91EA5C
:1005A000030F1EBF0021002030BD5FEA545C05D15F
:1005B0004000494128BF41F0004130BD14F580049E
:1005C0003CBF01F5801130BD01F0004545F0FE4112
:1005D00041F470014FF0000030BD7FEA645C1ABF47
:1005E000194610467FEA655C1CBF0B46024650EA7E
:1005F000013406BF52EA033591EA030F41F40021AA
:1006000030BD00BF90F0000F04BF0021704730B52F
:100610004FF4806404F132044FF000054FF0000104
:1006200050E700BF90F0000F04BF0021704730B5C5
:100630004FF4806404F1320410F0004548BF40429A
:100640004FF000013EE700BF42004FEAE2014FEAEF
:1006500031014FEA02701FBF12F07F4393F07F4FCA
:1006600081F06051704732F07F4208BF704793F0CD
:100670007F4F04BF41F40021704730B54FF46074E0
:1006800001F0004521F000411CE700BF50EA0102E3
:1006900008BF704730B54FF000050AE050EA01028C
:1006A00008BF704730B511F0004502D5404261EBFC
:1006B00041014FF4806404F132045FEA915C3FF43D
:1006C000D8AE4FF003025FEADC0C18BF03325FEADA
:1006D000DC0C18BF033202EBDC02C2F1200300FA8B
:1006E00003FC20FA02F001FA03FE40EA0E0021FAB0
:1006F00002F11444BDE600BF70B54FF0FF0C4CF49E
:10070000E06C1CEA11541DBF1CEA135594EA0C0F4F
:1007100095EA0C0F00F0DEF82C4481EA030621EA8A
:100720004C5123EA4C5350EA013518BF52EA0335C5
:1007300041F4801143F4801338D0A0FB02CE4FF077
:100740000005E1FB02E506F00042E0FB03E54FF0A7
:100750000006E1FB03569CF0000F18BF4EF0010E9F
:10076000A4F1FF04B6F5007F64F5407404D25FEA9B
:100770004E0E6D4146EB060642EAC62141EA55514E
:100780004FEAC52040EA5E504FEACE2EB4F1FD0C90
:1007900088BFBCF5E06F1ED8BEF1004F08BF5FEA0E
:1007A000500E50F1000041EB045170BD06F00046C0
:1007B00046EA010140EA020081EA0301B4EB5C046D
:1007C000C2BFD4EB0C0541EA045170BD41F4801165
:1007D0004FF0000E013C00F3AB8014F1360FDEBF8A
:1007E000002001F0004170BDC4F10004203C35DA66
:1007F0000C341BDC04F11404C4F1200500FA05F3E9
:1008000020FA04F001FA05F240EA020001F0004289
:1008100021F0004110EBD37021FA04F642EB0601FF
:100820005EEA430E08BF20EAD37070BDC4F10C0429
:10083000C4F1200500FA04F320FA05F001FA04F2ED
:1008400040EA020001F0004110EBD37041F10001D9
:100850005EEA430E08BF20EAD37070BDC4F12005E4
:1008600000FA05F24EEA020E20FA04F301FA05F24C
:1008700043EA020321FA04F001F0004121FA04F2F4
:1008800020EA020000EBD3705EEA430E08BF20EAC4
:10089000D37070BD94F0000F0FD101F000464000FE
:1008A00041EB010111F4801F08BF013CF7D041EA80
:1008B000060195F0000F18BF704703F00046520084
:1008C00043EB030313F4801F08BF013DF7D043EA55
:1008D0000603704794EA0C0F0CEA135518BF95EA0B
:1008E0000C0F0CD050EA410618BF52EA4306D1D192
:1008F00081EA030101F000414FF0000070BD50EAB1
:10090000410606BF1046194652EA430619D094EA3A
:100910000C0F02D150EA013613D195EA0C0F05D124
:1009200052EA03361CBF104619460AD181EA030178
:1009300001F0004141F0FE4141F470014FF0000030
:1009400070BD41F0FE4141F4780170BD70B54FF0CB
:10095000FF0C4CF4E06C1CEA11541DBF1CEA13554B
:1009600094EA0C0F95EA0C0F00F0A7F8A4EB05042D
:1009700081EA030E52EA03354FEA013100F0888024
:100980004FEA03334FF0805545EA131343EA1263ED
:100990004FEA022245EA111545EA10654FEA0026A2
:1009A0000EF000419D4208BF964244F1FD0404F55B
:1009B000407402D25B084FEA3202B61A65EB0305B7
:1009C0005B084FEA32024FF480104FF4002CB6EB74
:1009D000020E75EB030E22BFB61A754640EA0C00F4
:1009E0005B084FEA3202B6EB020E75EB030E22BF34
:1009F000B61A754640EA5C005B084FEA3202B6EB75
:100A0000020E75EB030E22BFB61A754640EA9C0033
:100A10005B084FEA3202B6EB020E75EB030E22BF03
:100A2000B61A754640EADC0055EA060E18D04FEAC1
:100A3000051545EA16754FEA06164FEAC30343EA61
:100A400052734FEAC2025FEA1C1CC0D111F4801F2E
:100A50000BD141EA00014FF000004FF0004CB6E727
:100A600011F4801F04BF01430020B4F1FD0C88BFC6
:100A7000BCF5E06F3FF6AFAEB5EB030C04BFB6EBD1
:100A8000020C5FEA500C50F1000041EB045170BDC4
:100A90000EF0004E4EEA113114EB5C04C2BFD4EBF1
:100AA0000C0541EA045170BD41F480114FF0000E75
:100AB000013C90E645EA060E8DE60CEA135594EAF1
:100AC0000C0F08BF95EA0C0F3FF43BAF94EA0C0FF4
:100AD0000AD150EA01347FF434AF95EA0C0F7FF469
:100AE00025AF104619462CE795EA0C0F06D152EABD
:100AF00003353FF4FDAE1046194622E750EA4106A1
:100B000018BF52EA43067FF4C5AE50EA41047FF4B1
:100B10000DAF52EA43057FF4EBAE12E74FF0FF3C16
:100B200006E000BF4FF0010C02E000BF4FF0010CE7
:100B30004DF804CD4FEA410C7FEA6C5C4FEA430C60
:100B400018BF7FEA6C5C1BD001B050EA410C0CBFAF
:100B500052EA430C91EA030F02BF90EA020F002011
:100B6000704710F1000F91EA030F58BF994208BF78
:100B700090422CBFD8176FEAE37040F00100704735
:100B80004FEA410C7FEA6C5C02D150EA013C07D18C
:100B90004FEA430C7FEA6C5CD6D152EA033CD3D0D7
:100BA0005DF8040B704700BF8446104662468C46D1
:100BB0001946634600E000BF01B5FFF7B7FF002804
:100BC00048BF10F1000F01BD4DF808EDFFF7F4FF2D
:100BD0000CBF012000205DF808FB00BF4DF808EDB8
:100BE000FFF7EAFF34BF012000205DF808FB00BFDB
:100BF0004DF808EDFFF7E0FF94BF012000205DF8FD
:100C000008FB00BF4DF808EDFFF7CEFF94BF0120B1
:100C100000205DF808FB00BF4DF808EDFFF7C4FFAA
:100C200034BF012000205DF808FB00BF4FEA410CF3
:100C30007FEA6C5C02D150EA013C0AD14FEA430CD6
:100C40007FEA6C5C02D152EA033C02D14FF0000013
:100C500070474FF0010070474FEA410212F5001251
:100C600015D211D56FF47873B3EB625212D94FEAF3
:100C7000C12343F0004343EA505311F0004F23FADD
:100C800002F018BF404270474FF00000704750EA32
:100C9000013005D111F0004008BF6FF000407047EF
:100CA0004FF00000704700BF4A0011D212F5001249
:100CB00011D20DD56FF47873B3EB62520ED44FEAB4
:100CC000C12343F0004343EA505323FA02F0704734
:100CD0004FF00000704750EA013002D14FF0FF3072
:100CE00070474FF0000070474FEA4102B2F1E04315
:100CF00024BFB3F5001CDCF1FE5C0DD901F0004C03
:100D00004FEAC0024CEA5070B2F1004F40EB830052
:100D100008BF20F00100704711F0804F21D113F17E
:100D20003872BCBF01F00040704741F480114FEAB7
:100D30005252C2F11802C2F1200C10FA0CF320FA40
:100D400002F018BF40F001004FEAC1234FEAD3235D
:100D500003FA0CFC40EA0C0023FA02F34FEA4303C7
:100D6000CCE77FEA625307D150EA01331EBF4FF050
:100D7000FE4040F44000704701F0004040F0FE406B
:100D800040F40000704700BF53B94AB9002908BFBA
:100D900000281CBF4FF0FF314FF0FF3000F074B956
:100DA000ADF1080C6DE904CE00F006F8DDF804E0C2
:100DB000DDE9022304B070472DE9F047089D0446A1
:100DC0008E46002B4DD18A42944669D9B2FA82F2FE
:100DD00052B101FA02F3C2F1200120FA01F10CFA3A
:100DE00002FC41EA030E94404FEA1C48210CBEFB72
:100DF000F8F61FFA8CF708FB16E341EA034306FBFB
:100E000007F199420AD91CEB030306F1FF3080F089
:100E10001F81994240F21C81023E63445B1AA4B2D6
:100E2000B3FBF8F008FB103344EA034400FB07F778
:100E3000A7420AD91CEB040400F1FF3380F00A81B9
:100E4000A74240F207816444023840EA0640E41BAE
:100E500000261DB1D4400023C5E900433146BDE85A
:100E6000F0878B4209D9002D00F0EF800026C5E9FC
:100E7000000130463146BDE8F087B3FA83F6002E14
:100E80004AD18B4202D3824200F2F980841A61EB8C
:100E9000030301209E46002DE0D0C5E9004EDDE7AA
:100EA00002B9FFDEB2FA82F2002A40F09280A1EB92
:100EB0000C014FEA1C471FFA8CFE0126200CB1FBE7
:100EC000F7F307FB131140EA01410EFB03F08842E0
:100ED00008D91CEB010103F1FF3802D2884200F26D
:100EE000CB804346091AA4B2B1FBF7F007FB1011FF
:100EF00044EA01440EFB00FEA64508D91CEB04049D
:100F000000F1FF3102D2A64500F2BB800846A4EBF7
:100F10000E0440EA03409CE7C6F12007B34022FAE2
:100F200007FC4CEA030C20FA07F401FA06F31C4311
:100F3000F9404FEA1C4900FA06F3B1FBF9F8200C1E
:100F40001FFA8CFE09FB181140EA014108FB0EF064
:100F5000884202FA06F20BD91CEB010108F1FF3AB4
:100F600080F08880884240F28580A8F102086144C0
:100F7000091AA4B2B1FBF9F009FB101144EA0141CE
:100F800000FB0EFE8E4508D91CEB010100F1FF3479
:100F90006CD28E456AD90238614440EA0840A0FB11
:100FA0000294A1EB0E01A142C846A64656D353D0E7
:100FB0005DB1B3EB080261EB0E0101FA07F722FA0B
:100FC00006F3F1401F43C5E9007100263146BDE834
:100FD000F087C2F12003D8400CFA02FC21FA03F397
:100FE000914001434FEA1C471FFA8CFEB3FBF7F018
:100FF00007FB10360B0C43EA064300FB0EF69E423D
:1010000004FA02F408D91CEB030300F1FF382FD2D5
:101010009E422DD9023863449B1B89B2B3FBF7F67D
:1010200007FB163341EA034106FB0EF38B4208D956
:101030001CEB010106F1FF3816D28B4214D9023E97
:101040006144C91A46EA004638E72E46284605E7B5
:101050000646E3E61846F8E64B45A9D2B9EB020886
:1010600064EB0C0E0138A3E74646EAE7204694E716
:101070004046D1E7D0467BE7023B614432E7304649
:1010800009E76444023842E7704700BF00000000EF
:101090002DE9F04F2DED068B87B08246B0EE408AE9
:1010A0000D46B0EE60AADA4CDA4B93E8030084E810
:1010B00003002046FFF7ACF8642382B22146D648ED
:1010C00005F0E3FDDAF87000281AFFF79BFACCA3CD
:1010D000D3E90023FFF73AFCFFF706FE0446CAF8FF
:1010E0007C00CAF87050DAF85000FFF7ADFA0646F7
:1010F0000F46DAED168A78EE887A17EE900AFFF737
:10110000A3FA0022C54BFFF7F7FA8046894620462E
:10111000FFF79AFA04460D4602460B4640464946FA
:10112000FFF7EAFA80468946DAF874B05846FFF7C6
:101130008BFA41EC190B42464B4630463946FFF7D5
:1011400025F9B0EE491AF0EE691A41EC100B09F0DE
:1011500093F8B0EE409AF0EE609A8BF00040FFF703
:1011600073FA41EC110BB0EE490AF0EE690A09F08E
:101170005BF851EC100BFFF7B7FDCAF8500078EEA2
:10118000687A17EE900AFFF75FFA06460F469EA3AD
:10119000D3E9002320462946FFF7F8F802460B461C
:1011A00030463946FFF7D2FBFFF79EFDCAF85C00D8
:1011B000CAED158A8AED168ADAF8806016F0100FEB
:1011C00029D0DAED267ADAED198A38EE687A67EEF8
:1011D000877ACAED177A9AED187A77EE877A17EE42
:1011E000900AFFF731FA00228C4BFFF785FA02468E
:1011F0000B4620462946FFF77FFA04460D4618EEB7
:10120000900AFFF721FA22462B46FFF7BFF8FFF7B7
:101210006BFDCAF8640016F0080F19D1DAF88030B7
:1012200013F0010F03D0F0EEC87A28EE278A13F0EE
:10123000020F4FD0DFED7A7AB4EEE7AAF1EE10FAA2
:101240000FD8DAED008A9AED059ADAED0AAA47E09E
:101250009AED170A0AF1840000F0C8F98AED170A1E
:10126000DCE7DFED707AB4EEE7AAF1EE10FA06D80B
:10127000DAED018A9AED069ADAED0BAA30E0DFED9D
:101280006A7AB4EEE7AAF1EE10FA06D8DAED028A2D
:101290009AED079ADAED0CAA22E0DFED647AB4EE5B
:1012A000E7AAF1EE10FA06D8DAED038A9AED089A69
:1012B000DAED0DAA14E0DFED5E7AB4EEE7AAF1EE06
:1012C00010FA00F29080DAED048A9AED099ADAEDCC
:1012D0000EAA05E0DAED008A9AED059ADAED0AAA7F
:1012E00013F0040F00F0A88028EE288AF0EEC88AD8
:1012F0009AED17AA2AEE099AF0EEC97A17EE900A2B
:10130000FFF7A2F941EC190B18EE900AFFF79CF9D0
:10131000B0EE491AF0EE691A41EC100B08F0ACFF80
:1013200055EC104B0022002310EE100A2946FFF75F
:1013300073FC20B1B5EEC0AAF1EE10FA5AD42046E3
:101340002946FFF7D1FC07EE900ADAED148A68EE21
:10135000AA8A38EE288A38EE278ADAF878402046BA
:10136000FFF772F941EC190B18EE100AFFF76CF950
:10137000B0EE491AF0EE691A41EC100B08F07CFF50
:10138000B0EE408AF0EE608A84F00040FFF75CF92E
:1013900041EC110BB0EE480AF0EE680A08F044FF89
:1013A00051EC100BFFF7A0FCCAF86800DAF86800EF
:1013B000CAF86C00FFF748F902460B46144C1D4969
:1013C000204606F0D1FD2046FEF722FF642382B2BC
:1013D0002146114805F059FC9AED1A0A07B0BDECF8
:1013E000068BBDE8F08FF7EE00AAB0EE6A9AF0EE39
:1013F0006A8A75E705F100431D46A0E7AFF3008058
:101400000000000080842E41956479E17FFDA53DB8
:10141000B802002000C50008E81B00200000E03FE3
:101420000000704200008C420000A0420000B44264
:101430000000C8421CC50008DAF86800FFF704F98C
:1014400006460F462C4C19EE100AFFF7FDF8CDE9C1
:1014500004011AEE900AFFF7F7F8CDE9020118EE41
:10146000900AFFF7F1F8CDE9000132463B462349E7
:10147000204606F079FD2046FEF7CAFE642382B2BC
:1014800021461F4805F001FC28EE288ADAED148A6F
:1014900068EEAA8A38EE288ADAED177A27EE899A5A
:1014A00038EE098ADAF878402046FFF7CDF841ECAB
:1014B000190B18EE100AFFF7C7F8B0EE491AF0EE54
:1014C000691A41EC100B08F0D7FEB0EE408AF0EE3E
:1014D000608A84F00040FFF7B7F841EC110BB0EEE2
:1014E000480AF0EE680A08F09FFE51EC100BFFF777
:1014F000FBFBCAF8680059E7B802002008C50008DD
:10150000E81B00200167002303654365836543668C
:10151000C3667047002310E000EB830C8CED000ADB
:1015200003F1040C00EB8C0CCCED010A03F10A0C66
:1015300000EB8C0C8CED001A0133042BECDDC0EDBC
:10154000261A002343660366C3660167C0ED1E2AA0
:10155000C0F8802080ED1D2A7047000008B50221E8
:10156000014804F017FD08BD0010024008B55220E4
:1015700000F088FEB5EE400AF1EE10FA03D0054BFC
:1015800000221A7008BD01F08BFC024B01221A7078
:10159000F8E700BFBC07002008B50122054906484E
:1015A00000F066FF01224FF47A71044800F060FFFA
:1015B00008BD00BF40420F005D1500086D15000812
:1015C000F0B583B004460D4616461F460421284652
:1015D00005F056FF20610123019300903B463246FF
:1015E000A9B220460AF0A4FA03B0F0BD00B585B058
:1015F0008DED010A012303AA01A90AF0A9FA9DEDC4
:10160000030A05B05DF804FB38B504460D46416099
:1016100080ED041AC0ED051AC0ED020A80ED030A40
:101620004FF07E5383610023836243620362C36190
:10163000836343630363C3620421284605F020FFEC
:1016400020600023E363A9B204F1440009F058FDCF
:1016500004F12C0304F11802012104F15C000AF0EA
:1016600071FB38BD0000000010B5044610EE100AF2
:10167000FEF7EAFF30A3D3E90023FFF73DF8FFF7B9
:1016800033FB05EE100AD4ED057A77EEA77A67EE04
:10169000857A25EE057A77EE877AD4ED026AF7EE41
:1016A000004AC4EEA65A94ED046AC4EE866A76EE49
:1016B000266A66EE856A27EEA54A24EE254AF1EEF3
:1016C000004A34EE244A76EEA66A66EEA56A36EE45
:1016D000A45A27EE256A26EE256A35EE065AC4EE90
:1016E000053AC4ED063A77EEA77A67EEA57A67EE7B
:1016F000A57AB2EE004A77EEC47A87EE853A84ED99
:10170000073AC4ED083A37EE077A67EE257A67EEB6
:10171000A57A77EEC47AF1EE677A87EE857A84ED62
:10172000097A74EEE66A36EE266AB1EE466AC6EECD
:10173000057AC4ED0A7A10BD182D4454FB211940D6
:101740002DE9F0432DED028B85B000AF044687ED07
:10175000010A012307F10C02391D5C300AF000FB7D
:10176000FA687A602368E16B481CE06303EB81034D
:101770001A60E26B63689A4207D097ED030A143748
:10178000BD46BDEC028BBDE8F083E8469B00073305
:1017900023F00703ADEB030D6946ADEB030D6E4679
:1017A000002308E0226802EB8302106801EB830249
:1017B000106001339BB262689342F3DB0023324630
:1017C00004F1440009F050FD00250DE04FEA6309E3
:1017D000B5EEC00AF1EE10FA1DDB08F067FE06EB6D
:1017E000890383ED000A023563689D4218DA06EB2F
:1017F000850393ED000A20EE000A6B1C06EB8303C1
:10180000D3ED007A67EEA77A30EE270A2B46002D3B
:10181000DCDA6B1CDAE706EB890300221A60E2E7E8
:10182000002210E0B7EE007A06EB8201D1ED007ADB
:1018300027EE277A07EE903AF8EEE77AC7EE276AA6
:10184000C1ED006A013263681946002B08DB4D10B8
:10185000B2EB610F06DA002AE4DDB0EE007AE3E7CE
:10186000591CF4E7D4ED037A07EE103AB8EEC78AB4
:1018700067EE887AD4ED028AC7EEA87A17EE900A4E
:10188000FEF7E2FE41EC100B08F048FD51EC100BA6
:10189000FFF7E2F99FED147A144B83ED007A00E034
:1018A0000130A84216DA06EB8003D3ED007AB4EEDD
:1018B000E77AF1EE10FAF3D507EE100AB8EEC77A20
:1018C00027EE287AC7EE086A084BC3ED006AB0EE2F
:1018D000677AE5E7054B93ED000A2046FFF7C4FE63
:1018E0000023E363C54648E700000000EC02002047
:1018F000F6EE007A60EE277A10EE103A074AA2EB75
:10190000630307EE103A67EE277A67EE277AB7EEA1
:10191000080A30EE670A27EE000A7047DF59375F82
:10192000F8B52DED068BF0EE408AB0EE609AB0EE81
:10193000418AF0EE61AAB0EE42AAF0EE629AF5EEAC
:10194000401AF1EE10FA14BF01230023B5EE402A2D
:10195000F1EE10FA18BF43F001032BB9F5EE402A5F
:10196000F1EE10FA00F0A7806AEEAA7A2AEE0A0ACF
:1019700077EE807A29EEA90A37EE800AFFF7B8FFE2
:101980006AEE80AA2AEE00AA69EE809A974890ED46
:10199000002A974BD3ED007A22EE272A954AD2ED02
:1019A000007A954991ED007A67EE877A32EE672AE0
:1019B000D2ED001AD0ED007A61EEA71AD1ED007ACF
:1019C00093ED007A67EE877A71EEA71AD2ED007A6E
:1019D00092ED007A67EE877AB6EE007A77EEC77AF4
:1019E00093ED007AD3ED006A27EE267A77EE877AB8
:1019F0006AEE276A29EEA17A36EEC77A69EE829AF4
:101A00006AEEA77A79EEE79A6AEEA1AA2AEE02AA0E
:101A10003AEECAAA794BD3ED007AF5EEC07AF1EE30
:101A200010FA40F3DB80D3ED006A66EE876A9FED23
:101A3000746A66EE866A7349D1ED007A77EEA66A1B
:101A4000C1ED006AD3ED006A66EEA96A66EE866AA9
:101A50006D4AD2ED007A77EEA66AC2ED006AD3ED48
:101A6000007A67EE8A7A67EE867A684BD3ED006A71
:101A700076EEA77AC3ED007AD1ED007A78EEA78AE8
:101A8000D2ED007A39EE279AD3ED007A38EE278A24
:101A90005F4BD3ED007A27EE877A78EE878AD3ED15
:101AA000007A67EEA99A39EE299AD3ED00AA2AEEB8
:101AB0008AAA38EE0A8ADFED577A68EEA78A29EEFD
:101AC000279A28EE271A4B4FD7ED006A474E96ED1E
:101AD000007A494D95ED000A67EE687A29EE006AB2
:101AE00077EEC67A424C94ED006A26EE016A77EEF4
:101AF000C67A97ED006A76EE277AC7ED007A68EE2F
:101B0000A67A21EE006A77EE867A94ED006A26EED8
:101B1000096A77EEC67A96ED006A76EE277AC6ED08
:101B2000007A69EE267A21EE076A77EEC67A94ED9E
:101B3000006A26EE286A77EE867A95ED006A76EEE0
:101B4000277AC5ED007A21EE261A29EE079A31EEA2
:101B5000091A68EE808A31EE681AD4ED007A31EE07
:101B6000271A84ED001AD7ED007A97ED000A67EE88
:101B7000807A96ED000A96ED007A20EE070A77EE5D
:101B8000807A95ED000A95ED007A20EE070A77EE4F
:101B9000807A94ED000A94ED007A20EE070A37EE81
:101BA000800AFFF7A5FED7ED007A67EE807AC7EDD1
:101BB000007AD6ED007A67EE807AC6ED007AD5ED30
:101BC000007A67EE807AC5ED007AD4ED007A27EED0
:101BD000800A84ED000ABDEC068BF8BD0023094A9B
:101BE0001360094A1360094A136051E7FC020020A0
:101BF0000403002000000020000300200803002050
:101C00006F12033BF0020020F4020020F8020020D3
:101C1000040000206F12833AF0B52DED108B87B0D1
:101C2000F0EE409AB0EE60AAB0EE418AF0EE618A22
:101C3000F0EE42BAB0EE62CAB0EE439AF0EE63AA9A
:101C4000B0EE44BAB5EE403AF1EE10FA0CBF012303
:101C50000023F5EE403AF1EE10FA03F0010318BF4D
:101C600000232BB1B5EE404AF1EE10FA00F00E82DF
:101C7000B4EE6A9AF1EE10FA80F10882B4EE4BBA33
:101C8000F1EE10FA80F10282F5EE408AF1EE10FAE0
:101C900014BF01230023F5EE40BAF1EE10FA18BF8D
:101CA00043F001032BB9B5EE40CAF1EE10FA00F093
:101CB000598168EEA87A2BEEAB0A77EE807A2CEE8B
:101CC0000C0A37EE800AFFF713FE68EE806ACDED4E
:101CD000026A6BEE805ACDED035A2CEE005A8DED60
:101CE000045A69EE097A2AEEAA0A77EE807A2BEE78
:101CF0000B0A37EE800AFFF7FBFD29EE009A6AEE29
:101D000080AA6BEE008AED4B93ED007AD3ED007A5A
:101D100067EE277ACDED057AD3ED00EAE849D1EDFB
:101D2000007A6EEEA7EA93ED00FAE64AD2ED007A69
:101D30002FEE27FA93ED007AE34BD3ED007A67EEAE
:101D4000277A91ED00CA91ED007A2CEE07CAD1ED09
:101D5000006A92ED007A66EE876AD1ED00BA93EDE3
:101D6000007A6BEE87BA92ED00EA92ED007A2EEEE1
:101D700007EA92ED00BA93ED007A2BEE07BAD3EDA5
:101D800000DA93ED007A6DEE87DAF6EE00FA7FEE78
:101D9000CECA7CEEEDCA2CEE897A36EEE7DA2DEE6D
:101DA0002A6A37EE067A3FEE2B6A8DED016A26EE3F
:101DB000286A37EE067A37EE077A77EEA67A67EE6C
:101DC000897A3FEECCCA7CEE6D6A66EEAA6A77EE3F
:101DD000A67A7BEE6E6A66EEA86A77EEA67A77EE52
:101DE000A77A27EE077A67EEA77A37EE277A17EEFB
:101DF000100AFEF729FC41EC100B08F01DFB51EC1A
:101E0000100BFEF771FF07EE100A7BEECFBA6BEEF8
:101E1000897A3EEE8BBA6BEE2A6A77EEA67A3CEEB2
:101E20004ECA2CEE28EA77EE8E7A77EEA77ADDEDB1
:101E3000054A74EEEFFA7FEEADDA6CEE87CA6BEE10
:101E4000A76A7CEEA6CA2DEE07DA6BEE276A3DEE96
:101E500026DA9DED016A26EE077A6CEE277A77EE98
:101E6000277ADDED035A65EEAD6A9DED045A2BEE3F
:101E7000057A76EEC76A2AEEA77A28EE8D6A37EEE3
:101E8000467A36EE877A6BEE852ADDED026A66EEDB
:101E9000ADDA72EEEDDA68EEAC8A69EE277A78EEAA
:101EA000E78A7DEEA88A2BEE26BA6BEEA5BA3BEE4A
:101EB0006BBA29EE0D9A6AEEACAA39EE6A9A3BEE3D
:101EC00009BA824BD3ED007AF5EEC07AF1EE10FA42
:101ED00040F3EB80D3ED006A66EE876A9FED7C6A83
:101EE00066EE866A7B49D1ED007A77EEA66AC1ED8F
:101EF000006AD3ED006A66EEA86A66EE866A764AE4
:101F0000D2ED007A77EEA66AC2ED006AD3ED007AD0
:101F100067EE8B7A67EE867A704BD3ED006A76EEC9
:101F2000A77AC3ED007AD1ED007A79EEA79AD2EDC7
:101F3000007A3AEE27AAD3ED007A38EE278A684B6A
:101F4000D3ED007A67EE877A79EEA79AD3ED007A1F
:101F500067EEA88A3AEE28AA93ED009A29EE0BBA0A
:101F600038EE0B8A9FED5F1A69EE819A2AEE01AA7C
:101F700028EE018A514F97ED001A514ED6ED000A16
:101F8000504D95ED000A60EEE97A2AEE007A77EE80
:101F9000C77A4D4C94ED007A27EE087A77EEC77A2F
:101FA00097ED007A77EE277AC7ED007A69EE817AAD
:101FB00028EE007A77EE877A94ED007A27EE0A7A97
:101FC00077EEC77A96ED007A77EE277AC6ED007A3B
:101FD0006AEE017A28EE207A77EEC77A94ED007ADD
:101FE00027EE297A77EE877A95ED007A77EE277AD1
:101FF000C5ED007A28EE018A2AEE20AA38EE0A8A78
:1020000069EE809A38EE698AD4ED009A38EE298A12
:1020100084ED008AD7ED007A97ED000A67EE807AAA
:1020200096ED000A96ED007A20EE070A77EE807AA8
:1020300095ED000A95ED007A20EE070A77EE807A9A
:1020400094ED000A94ED007A20EE070A37EE800A3C
:10205000FFF74EFCD7ED007A67EE807AC7ED007A85
:10206000D6ED007A67EE807AC6ED007AD5ED007A7B
:1020700067EE807AC5ED007AD4ED007A27EE800A0B
:1020800084ED000A07B0BDEC108BF0BDF0EE4C2AD9
:10209000B0EE6B2AF0EE681AB0EE481AF0EE4A0A7B
:1020A000B0EE690AFFF73CFCECE70023094A136035
:1020B000094A1360094A136041E700BF000000208D
:1020C000FC0200200003002004030020080300207D
:1020D0006F12033BF0020020F4020020F8020020FF
:1020E000040000206F12833A2DE9F0412DED048B9E
:1020F0000446DFF87081D8ED007A564D95ED007AF0
:1021000067EE877A544E96ED007A544FD7ED006A09
:1021100027EE267A77EE877A37EEA78AD5ED007A12
:1021200095ED007A67EE877A96ED007AD6ED006A33
:1021300027EE267A77EE877A77EEA77AF7EE008A8F
:1021400078EEE77A17EE900AFEF77EFA41EC190B6B
:1021500018EE100AFEF778FAB0EE491AF0EE691A96
:1021600041EC100B08F066F951EC100BFEF7BCFDCA
:102170002060D8ED007A96ED007A67EE877A97EDC9
:10218000007AD5ED006A27EE267A77EEC77A77EEE9
:10219000A77AB0EEE77AB4EEE87AF1EE10FA4BDB0C
:1021A000F5EEC07AF1EE10FA44D42D4B63602D4B5E
:1021B000D3ED007A294B93ED007A67EE877A254AB2
:1021C00092ED007A244AD2ED006A27EE267A77EE65
:1021D000877A37EEA78AD2ED007A92ED007A67EE21
:1021E000877A93ED007AD3ED006A27EE267A77EEB0
:1021F000877A77EEA77AB7EE007A77EE677A17EEEE
:10220000900AFEF721FA41EC190B18EE100AFEF7BE
:102210001BFAB0EE491AF0EE691A41EC100B08F007
:1022200009F951EC100BFEF75FFDA060BDEC048BCB
:10223000BDE8F0810C4BB9E717EE900AFEF704FAFF
:1022400041EC100B08F0BAF851EC100BFEF74CFD06
:102250006060ACE7FC0200200003002004030020C3
:10226000DB0FC93F00000020DB0FC9BF10EE103AA2
:102270000360704782B00368019300EE103A02B029
:102280007047000000B583B0002308E0084A02EB65
:102290008002D15C02AA1A4402F8041C0133032B09
:1022A000F4DD01A8FFF7E6FF03B05DF804FB00BF13
:1022B0000C03002010B582B0044601A8FFF7D6FF3A
:1022C000002308E002AA1A4412F8041C044A02EB94
:1022D0008402D1540133032BF4DD02B010BD00BFE2
:1022E0000C030020000000002DE9F84F2DED048BB9
:1022F000F0EE408AB0EE608AB4EEE00AF1EE10FA39
:102300003EDD30EE609A19EE100AFEF79DF9824626
:102310008B4618EE900AFEF797F906460F460246DE
:102320000B462FA1D1E90001FEF72EF88046894621
:1023300018EE100AFEF788F904460D4602460B46D1
:1023400040464946FEF722F802460B46504659469B
:10235000FEF762FC70B122A3D3E900233046394670
:10236000FEF712F822462B46FEF70EF8FEF7BCFCED
:1023700009EE100AB0EE490ABDEC048BBDE8F88FF7
:1023800070EEC07A17EE900AFEF75EF906460F4629
:1023900018EE100AFEF758F902460B4610A1D1E9D3
:1023A0000001FDF7F1FF04460D4618EE900AFEF716
:1023B0004BF922462B46FDF7E9FF04460D4602463F
:1023C0000B4630463946FEF727FC30B120462946F9
:1023D000FEF78AFC09EE100ACCE738EEC89AC9E786
:1023E000182D4454FB211940D0ED007A30EE670AD5
:1023F000B0EEC07AB4EEE07AF1EE10FA10DBF5EE52
:10240000C00AF1EE10FA04DDB5EEC00AF1EE10FAE2
:1024100010D4F5EEC00AF1EE10FA06D4B0EE600A60
:1024200037EE800A80ED000A7047B5EEC00AF1EE83
:1024300010FA02DDB1EE600AF2E7B0EE600AEFE7F3
:1024400008B5034B1B685B6A43600369984708BD86
:10245000041D0020054B1B685B6A42689B1A0068DC
:10246000834294BF00200120704700BF041D00205C
:1024700030B5094D2B68094C03EB830E04EB8E0C31
:1024800044F82E10CCF808200022CCF80C205A1C5E
:102490002A60CCF8100030BD900F0020C00700204B
:1024A000F8B532E00134224B1B68A34210DD04EB87
:1024B0008400204B03EB80008368C7681F44FFF74C
:1024C000C9FF0028EED0BE42ECDA25463E46E9E7D9
:1024D000002408E004EB8403164A02EB8303DA6865
:1024E0000132DA600134124B1B68A3420BDD04EBAE
:1024F0008403104800EB8300FFF7ACFF0028F1D005
:10250000A542E7D1EEE7002D04DA00244FF0FF35B5
:102510002646C8E7074CAE0005EB850004EB8000BB
:10252000FFF78EFF354404EB85040023E360ECE7FE
:10253000900F0020C00700202DE9F04F2DED028BF9
:1025400087B0DFF8B4B1DFF8B4A1DBED000A9AED93
:10255000000AFFF7C9FE5A4C2368596A9FED598A51
:10256000F0EE480A5848FEF793FD584E86ED000AF3
:10257000DFF88C91DFF88C81D9ED000A98ED000A24
:10258000FFF7B2FE2368596AF0EE480A5048FEF79A
:102590007FFD504D85ED000A4F4FD7ED000A4F4BA0
:1025A00093ED000AFFF7A0FE2368596AF0EE480A8F
:1025B0004B48FEF76DFDB1EE400A4A4C84ED000A2F
:1025C000DBED000A9AED000AFFF78EFE10EE10AA6E
:1025D000D9ED000A98ED000AFFF786FE10EE108A8A
:1025E000D7ED000A3D4B93ED000AFFF77DFE10EE9C
:1025F000109A3068FEF728F8CDE904013A4F2068B8
:10260000FEF722F8CDE902012868FEF71DF8CDE9B2
:102610000001DDE904233549384605F0A5FC3846BC
:10262000FDF7F6FDDFF8E0B0642382B23946584684
:1026300004F02BFB5046FEF707F8CDE904014846AD
:10264000FEF702F8CDE902014046FDF7FDFFCDE9B6
:102650000001DDE904232649384605F085FC3846AB
:10266000FDF7D6FD642382B23946584604F00DFBCF
:1026700096ED000A8220FFF71DFE95ED000A8420EA
:10268000FFF718FE94ED000A8620FFF713FE194BA2
:102690001B7823B907B0BDEC028BBDE8F08F084C66
:1026A0002368596A0848FEF72DFF2368596A0848CD
:1026B000FEF728FF2368596A0948FEF723FFE9E778
:1026C000041D00200000000098100020801200204F
:1026D000F40F0020DC110020FC1A0020001500205F
:1026E00060140020241300207C00002028C500086E
:1026F00044C50008BC070020F01A00203811002053
:10270000EC1A002094100020E81B002070B52DED7D
:10271000028B484D2B68596A474C484B93ED000A91
:10272000D4ED000AB1EE400A4548FEF7B1FC454B36
:1027300083ED000A2B68596A434B93ED000AD4EDF0
:10274000000AB1EE400A4148FEF7A2FC404B83ED7F
:10275000000A5220FFF796FDB0EE408A5E20FFF798
:1027600091FDF0EE400A3B4EB0EE480A3046FFF7CE
:102770003BFE2B68596A96ED000A374BD3ED007A81
:10278000DFED360A30EE670A3548FEF781FCB0EE21
:10279000408A4620FFF776FD38EE000A314B83ED84
:1027A000000ADFED310A2046FFF71EFE22682F4B9C
:1027B0001A604820FFF766FD9FED2D8A2D4BD3ED63
:1027C000007AF0EE480A30EE270A2B48FFF70CFE9D
:1027D0004A20FFF757FD294BD3ED007AF0EE480A67
:1027E00030EE270A2648FFF7FFFD4C20FFF74AFD91
:1027F000244BD3ED007A30EE270A234B83ED000AF9
:10280000224B1B7813B9BDEC028B70BD00232360F3
:1028100033602B68596A0A48FEF774FE2B68596AC0
:102820000A48FEF76FFE2B68596A0D48FEF76AFEEC
:10283000E9E700BF041D0020940F0020F41A0020D7
:1028400028130020B80F0020F81A0020C41300201D
:10285000C00F0020A0150020001B00200000000079
:10286000041500209C0F0020CDCC4C3E980F00207A
:102870008FC2753C341100203811002090100020C8
:1028800094100020FC14002000150020BC0700203C
:102890002DE9F04F2DED088B85B0F0EE40AA6A4B84
:1028A00093ED00BA8DED00BA684B1B680193684B3D
:1028B0001B680293674B1B6803934FF0000AB7EE47
:1028C000008A60E004AB03EB8A0353ED048A38EE20
:1028D000AAAADFED617A3AEE67AAF1EE687A77EE9E
:1028E000EA7A17EE900AFDF7AFFE41EC190B1AEEEB
:1028F000100AFDF7A9FEB0EE491AF0EE691A41EC94
:10290000100B07F091FC9FED4C1B07F08DFC51EC78
:10291000100BFEF7E9F9834618EE900AFDF794FED6
:1029200004460D46F0EEE87A17EE900AFDF78CFEAD
:1029300006460F465846FDF787FE02460B463046D0
:102940003946FDF721FD3EA3D3E90023FDF71EFD27
:1029500002460B4620462946FDF7F8FF804621F047
:10296000004918EE100AFDF76FFE49EC118B41EC9F
:10297000100B07F059FC51EC100BFEF7B5F908EEFF
:10298000100A0AF1010ABAF1030F9BDDCBEE087AB7
:1029900077EEAA7A17EE900AFDF756FE41EC100B7F
:1029A00007F04AFD51EC100BFEF79EF9264B18601C
:1029B000264C94ED007AC7EE087A77EEAA7A17EEE5
:1029C000900AFDF741FE41EC100B07F035FD51EC8C
:1029D000100BFEF789F920601D4C94ED007AC7EECC
:1029E000087A77EEAA7A17EE900AFDF72DFE41ECF1
:1029F000100B07F021FD51EC100BFEF775F920606C
:102A0000144C94ED007AC7EE087A77EEAA7A17EEA6
:102A1000900AFDF719FE41EC100B07F00DFD51EC8B
:102A2000100BFEF761F9206005B0BDEC088BBDE826
:102A3000F08F00BFAFF30080000000000000000036
:102A400048AFBC9AF2D77A3EA00F0020A40F002016
:102A5000A80F0020AC0F002000401C460000000022
:102A60002DE9F04F2DED048B87B0DD4B93ED007A0F
:102A7000DC4BD3ED007A9FEDD49B77EE677A17EEAF
:102A8000900AFDF7E1FDB0EE491AF0EE691A41EC4B
:102A9000100B07F0F1FB9FEDCE8BB0EE481AF0EE75
:102AA000681A07F0C1FB51EC100BFEF71DF9044644
:102AB000CD4D2860CD4B93ED007ACD4BD3ED007A10
:102AC00077EE677A17EE900AFDF7BEFDB0EE491A71
:102AD000F0EE691A41EC100B07F0CEFBB0EE481A8D
:102AE000F0EE681A07F0A0FB51EC100BFEF7FCF8B3
:102AF0008246DFF85093C9F80000BE4B93ED007A90
:102B0000BD4BD3ED007A77EE677A17EE900AFDF7AA
:102B10009BFDB0EE491AF0EE691A41EC100B07F07C
:102B2000ABFBB0EE481AF0EE681A07F07DFB51ECF3
:102B3000100BFEF7D9F88346DFF80C83C8F80000C5
:102B40002046FDF781FD06460F46AC4C5846FDF782
:102B50007BFDCDE902015046FDF776FDCDE9000190
:102B600032463B46A649204605F0FEF92046FDF7D1
:102B70004FFBDFF8D8A2642382B22146504604F00E
:102B800084F8A04E3368596A9FED9F8A9F4FF0EEFC
:102B9000480A95ED000A3846FEF77AFA9C4D85ED15
:102BA000000A3368596ADFF8A8B2F0EE480A99EDD6
:102BB000000A5846FEF76CFADFF8989289ED000A91
:102BC0003368596AF0EE480A98ED000A9148FEF71A
:102BD0005FFA10EE108A904E86ED000A2868FDF725
:102BE00033FDCDE904014046FDF72EFDCDE902019C
:102BF000D9F80000FDF728FDCDE90001DDE9042347
:102C00008649204605F0B0F92046FDF701FB642314
:102C100082B22146504604F038F897ED170A882012
:102C2000FFF748FB9BED170A8A20FFF743FB95ED62
:102C3000000A3A20FFF73EFB99ED000A3C20FFF71F
:102C400039FB96ED000A3E20FFF734FBDFF80882DF
:102C500098ED000A4420FFF72DFBD9ED006AD5ED71
:102C6000007A36EEE76A96ED007A36EE076A6C4F28
:102C700087ED006A36EEA76A36EE476A694E86ED42
:102C8000006A37EEE66A37EE066A674D85ED006A40
:102C9000F1EE677A77EEE67A77EEC77A634CC4EDA9
:102CA000007A98ED000A20EE000AFFF7F1FD97ED9B
:102CB000000A8C20FFF7FEFA96ED000A8E20FFF73F
:102CC000F9FA95ED000A9020FFF7F4FA94ED000A66
:102CD0009220FFF7EFFA564B1B78002B40F0C08094
:102CE0009FED3D9B4E4B1868FDF7AEFCB0EE491AC8
:102CF000F0EE691A41EC100B07F096FA9FED328B5B
:102D0000B0EE481AF0EE681A07F0B6FA51EC100B64
:102D1000FDF7EAFF00EE100A464800F0A1FA414B29
:102D20001868FDF791FCB0EE491AF0EE691A41EC13
:102D3000100B07F079FAB0EE481AF0EE681A07F0B7
:102D40009BFA51EC100BFDF7CFFF00EE100A3A484A
:102D500000F086FA344B1868FDF776FCB0EE491A9D
:102D6000F0EE691A41EC100B07F05EFAB0EE481A6B
:102D7000F0EE681A07F080FA51EC100BFDF7B4FF83
:102D800000EE100A2D4800F06BFA284B1868FDF78A
:102D90005BFCB0EE491AF0EE691A41EC100B07F03B
:102DA00043FAB0EE481AF0EE681A07F065FA51ECF3
:102DB000100BFDF799FF00EE100A214800F050FAC1
:102DC00007B0BDEC048B49E0000000000000594052
:102DD00000000000000059C00000000000000000DA
:102DE00080120020481A00207C120020DC110020F4
:102DF0004C1A002024130020501A00207C000020D0
:102E000058C50008041D002000000000E01100204B
:102E1000B40F002084120020BC0F002074C50008ED
:102E2000A00F0020A40F0020A80F0020AC0F00204E
:102E3000BC070020DC0F0020C40F0020D00F0020B2
:102E4000E80F0020D811002020130020E81B0020EC
:102E50003C110020B00F0020980F0020BDE8F08F3B
:102E600084ED008A85ED008A86ED008A87ED008A70
:102E7000084C2368596A0848FEF744FB2368596ADE
:102E80005846FEF73FFB2368596A0448FEF73AFBB1
:102E900026E700BF041D0020E0110020841200205E
:102EA00010B56220FFF7EEF9FDEEC07A17EE904AFA
:102EB0006420FFF7E7F9002CC0F29980BDEEC00A4C
:102EC00010EE103A052B7DD8DFE803F00326497C8D
:102ED0007C6C84B90A20FFF7D5F9454C84ED000AD3
:102EE0000C20FFF7CFF984ED0A0A0E20FFF7CAF98C
:102EF00084ED050A66E00A20FFF7C4F93D4C84ED35
:102F0000000A0C20FFF7BEF984ED0A0A0E20FFF735
:102F1000B9F984ED050A55E084B91020FFF7B2F93C
:102F2000354C84ED000A1220FFF7ACF984ED0A0A53
:102F30001420FFF7A7F984ED050A43E01020FFF7FE
:102F4000A1F92E4C84ED000A1220FFF79BF984EDC5
:102F50000A0A1420FFF796F984ED050A32E084B9D5
:102F60001620FFF78FF9264C84ED000A1820FFF792
:102F700089F984ED0A0A1A20FFF784F984ED050A1D
:102F800020E01620FFF77EF91E4C84ED000A182081
:102F9000FFF778F984ED0A0A1A20FFF773F984ED38
:102FA000050A0FE02820FFF76DF9174C84ED000AA1
:102FB0002A20FFF767F984ED0A0A2C20FFF762F94F
:102FC00084ED050A9A20FFF75DF90E4B83ED260A82
:102FD0000A4B83ED260A074B83ED260A084B83ED47
:102FE000260A054B83ED260A014B83ED260A10BD08
:102FF00098100020E0110020F40F00203C11002068
:1030000060140020841200200415002010B52DED5E
:10301000048B784C2368343300222146764800F034
:1030200041F92368383304222146744800F03AF904
:10303000734C23683C3308222146724800F032F971
:10304000236840330C2221466F4800F02BF9DFED56
:103050006F8A9FED6F8A0022F2EE0E2AB0EE682A88
:10306000F7EE001A1146B0EE481AF0EE480AB0EE3C
:10307000480A6848FEF74EFA9FED679A0022F0EE84
:10308000492AB0EE682AF7EE001A1146B0EE481A47
:10309000F0EE480AB0EE480A6048FEF73BFA00221C
:1030A000F0EE492AB0EE682AF7EE001A1146B0EEAB
:1030B000481AF0EE480AB0EE480A5948FEF72AFAD4
:1030C000584C2368596A9FED589ADFED589ADFED06
:1030D000588A0022F0EE492AB0EE692AF0EE681A0A
:1030E000B0EE481AF0EE480AB0EE480A5148FEF732
:1030F00011FA2368596A0022F0EE492AB0EE692AD3
:10310000F0EE681AB0EE481AF0EE480AB0EE480A3F
:103110004948FEF7FFF92368596A0022F0EE492A70
:10312000B0EE692AF0EE681AB0EE481AF0EE480ADE
:10313000B0EE480A4148FEF7EDF92368596ADFED21
:10314000409A0022F0EE692AB0EE492AF0EE681AA1
:10315000B0EE481AF0EE480AB0EE480A3948FEF7D9
:10316000D9F92368596A0022F0EE692AB0EE492A9B
:10317000F0EE681AB0EE481AF0EE480AB0EE480ACF
:103180003148FEF7C7F92368596A0022F0EE692A30
:10319000B0EE492AF0EE681AB0EE481AF0EE480A8E
:1031A000B0EE480A2948FEF7B5F9BFEE000A6220E2
:1031B000FFF780F8BFEE000A6420FFF77BF8B0EE5F
:1031C000680A9A20FFF776F801224FF47A712048B6
:1031D000FFF74EF901224FF4FA611E48FFF748F954
:1031E000012242F210711C48FFF742F9BDEC048B3A
:1031F00010BD00BF6C1C0020C40F0020D00F0020A9
:10320000B81C0020DC0F0020E80F00200050C3474E
:103210000000000004150020EC51B83D28130020E8
:10322000C4130020041D00200000A042C3F5483F45
:103230000000484298100020F40F00206014002085
:1032400000803B45E01100203C110020841200204A
:10325000612A0008392500080D2700080000000039
:1032600010B5044610EE100AFDF7EEF90AA3D3E9F3
:103270000023FDF741FA0022094BFDF767FB06A387
:10328000D3E90023FDF782F8A468FDF70DFD206067
:1032900010BD00BFAFF3008000000000006AC8400E
:1032A0000000594010B5044608461146206062608F
:1032B000A36001F061FE9FED030A2046FFF7D0FFF7
:1032C00010BD00BF00000000F8B505460E461746C9
:1032D000016042600421304604F0D2F8A860042165
:1032E00007FB06F004F0CCF8E860002308E007FBD9
:1032F00003F4EA6802EB8404AA6842F8234001332D
:10330000B342F4DBF8BD836853F8213003EB82034A
:1033100083ED000A7047836853F8213003EB820382
:1033200093ED000A704710B50446806804F0DCF89D
:10333000E06804F0D9F810BD2DE9F0412DED028BC5
:1033400006460F46904600253AE0B26852F824102F
:1033500001EB830CDCED007A52F8252002EB8302AE
:1033600092ED007A27EE267A77EEC77ACCED007AD6
:103370000133022BE9DDBA6852F82430D3ED007A2C
:1033800052F8252092ED007A67EE266A77EEE66A1B
:10339000C3ED006A0134022C11DCA542FAD02A46A2
:1033A00021463046FFF7B7FFB0EE408A2A4629464D
:1033B0003046FFF7B0FFC8EE006A0023D9E70135B9
:1033C000022D01DC0024E6E7002314E0BA6852F87D
:1033D0002320D2ED006AB26852F8232002EB830268
:1033E00092ED007AD8F8082052F82320C6EE877AAA
:1033F000C2ED007A0133022BE8DDBDEC028BBDE8A3
:10340000F081000070B5204C204600F029FC94EDBE
:10341000000A1E48FEF7EAF81D4E86ED000A94EDFC
:10342000010A1C48FEF7E2F81B4D85ED000A94EDF9
:10343000020A1A48FEF7DAF8194C84ED000A96EDF4
:10344000000A1848FEF77CF986ED000A95ED000A9F
:103450001548FEF775F985ED000A94ED000A13484A
:10346000FEF76EF984ED000A96ED000A7420FEF76F
:1034700021FF95ED000A7620FEF71CFF94ED000A6F
:103480007820FEF717FF70BD5C1A00205819002045
:10349000A41500206C190020A81500208019002018
:1034A000AC150020B0150020181600208016002052
:1034B00070B53D4D284600F029FC95ED070A3B48C4
:1034C000FEF794F83A4E86ED000A95ED080A394861
:1034D000FEF78CF8384C84ED000A95ED090A374860
:1034E000FEF784F8364D85ED000A96ED000A354862
:1034F000FEF77CF886ED000A94ED000A3248FEF7EC
:1035000075F884ED000A95ED000A3048FEF76EF874
:1035100085ED000A96ED000A2D48FEF711F986EDBB
:10352000000A94ED000A2B48FEF70AF984ED000A20
:1035300095ED000A2848FEF703F985ED000A94EDA1
:10354000000A2648FEF7FCF884ED000A2448FEF73E
:10355000F7F884ED000A95ED000A2248FEF7F0F82E
:10356000F0EE407A85ED000AD6ED006AB1EE047AFD
:1035700086EE870A86ED000A94ED006AC6EE076AB9
:10358000C4ED006AC7EE876AC5ED006A7C20FEF7CD
:1035900091FE94ED000A7E20FEF78CFE95ED000A68
:1035A0008020FEF787FE70BD5C1A00209419002071
:1035B000481A0020BC1900204C1A0020E4190020F1
:1035C000501A0020A8190020D0190020F819002056
:1035D000E8160020B8170020881800205017002097
:1035E00020180020F018002010B5074C204600F0ED
:1035F000D9FB626B054B1A60A26B054B1A60E26B3C
:10360000044B1A6010BD00BF5C1A0020541A002041
:10361000581A0020E81A00202DE970432DED0A8B7E
:1036200084B06F4B93ED000ADFED6E7A20EE270A2F
:103630006D4BD3ED000A60EEA70A6C4B93ED001AB8
:1036400021EE271A9FED6A3ADFED6A7AB0EE434A1F
:10365000F0EE433A684BD3ED002A684B93ED002A15
:10366000674BD3ED001A81EE271AC0EEA70A80EE51
:10367000270AFEF7D1FA01A8FEF736FD9DED01AA53
:10368000604E86ED00AA9DED02BA5F4D85ED00BA51
:10369000DDED03AA5D4CC4ED00AA5D4BD3F80080BC
:1036A0004046FCF7D1FF41EC190B7AEE4A7A17EE4F
:1036B000900AFCF7C9FF41EC110BB0EE490AF0EE9D
:1036C000690A06F0D9FDB0EE40CAF0EE60CA88F093
:1036D0000040FCF7B9FF41EC180B41EC110BB0EEC8
:1036E0004C0AF0EE6C0A06F09FFD59EC108B1AEEB6
:1036F000100AFCF7A9FF42464B46FCF747FEFDF7D0
:10370000F3FA0AEE100A30607BEE4B7A17EE900A5D
:10371000FCF79AFF41EC110BB0EE490AF0EE690A92
:1037200006F0AAFDB0EE481AF0EE681A06F07CFD2D
:1037300059EC108B1BEE100AFCF786FF42464B46F5
:10374000FCF724FEFDF7D0FA28607AEEEA7A17EE4D
:10375000900AFCF779FF41EC110BB0EE490AF0EE4C
:10376000690A06F089FDB0EE481AF0EE681A06F014
:103770005BFD59EC108B1AEE900AFCF765FF424690
:103780004B46FCF703FEFDF7AFFA2060B0EE4A0AA5
:103790002048FDF72BFF86ED000A95ED000A1E4834
:1037A000FDF724FF85ED000A94ED000A1B48FDF7A4
:1037B0001DFF84ED000A96ED000A2E20FEF77AFD2B
:1037C00095ED000A3020FEF775FD94ED000A3220D9
:1037D000FEF770FD04B0BDEC0A8BBDE8708300BF3E
:1037E000481A0020DB0F49404C1A0020501A0020D4
:1037F000000000000000B443AC150020A815002014
:10380000A4150020F01A0020EC1A0020FC1A002059
:10381000B0000020201A00200C1A0020341A0020CA
:103820002DE9F0412DED028B734E304600F06CF91E
:10383000724D734C2B46224604217248FDF7C0FEA0
:103840002B46224604217048FDF7BAFE2B4622463D
:1038500004216E48FDF7B4FEDFF820826C4F43462A
:103860003A4605216B48FDF7ABFE43463A46052133
:103870006948FDF7A5FE43463A4605216748FDF72E
:103880009FFE9FED678ADFED678AF2EE041AB7EEBE
:10389000001AF0EE480AB0EE680A40216248FDF7CF
:1038A000B3FEF2EE041AB7EE001AF0EE480AB0EEDC
:1038B000680A40215D48FDF7A7FEF2EE041AB7EE54
:1038C000001AF0EE480AB0EE680A40215848FDF7A9
:1038D0009BFEF1EE041AB7EE001AF0EE480AB0EEC5
:1038E000680A40215348FDF78FFEF1EE041AB7EE47
:1038F000001AF0EE480AB0EE680A40214E48FDF783
:1039000083FEF1EE041AB7EE001AF0EE480AB0EEAC
:10391000680A40214948FDF777FEDFF86481484F87
:1039200043463A4604214748FDF74AFE43463A4695
:1039300004214548FDF744FE43463A4604214348E6
:10394000FDF73EFEDFED428AF7EE001AB0EE611A97
:10395000F0EE480AB0EE680A40213E48FDF754FEFA
:10396000F7EE001AB0EE611AF0EE480AB0EE680AFF
:1039700040213948FDF748FEF7EE001AB0EE611A13
:10398000F0EE480AB0EE680A40213448FDF73CFEEC
:103990002B46224604213248FDF712FE2B462246D2
:1039A00004213048FDF70CFE2B46224604212E4808
:1039B000FDF706FE304600F039FB304600F078FB9C
:1039C00002224FF47A712948FEF752FD03224FF488
:1039D0007A712748FEF74CFD02220A212548FEF79E
:1039E00047FD02224FF4FA612348FEF741FDBDEC8A
:1039F000028BBDE8F08100BF5C1A00203C00002073
:103A00000800002094190020BC190020E4190020AF
:103A100018000020A8190020D0190020F819002053
:103A200000007A4400004842E8160020B817002041
:103A3000881800205017002020180020F0180020BF
:103A40002C000020581900206C190020801900203B
:103A500000002042B015002018160020801600201B
:103A6000201A00200C1A0020341A0020B13400085B
:103A700005340008E9350008193600085000002018
:103A8000680000202DE9F04184B0044616461D462A
:103A90008DF80F100C4F4FF47A78CDF80080012389
:103AA0000DF10F0200FA03F1384602F0BDFC61008F
:103AB000CDF8008033462A4641F00101384602F035
:103AC00071FD04B0BDE8F081501B002070B584B0DA
:103AD0008DF80F108DF80E2044000A4D42F210763A
:103AE000009601230DF10F022146284602F09CFCAE
:103AF000009601230DF10E022146284602F094FCA7
:103B000004B070BD501B002010B5044606221A21D7
:103B10006820FFF7DBFF1B2211466820FFF7D6FF66
:103B200018221C216820FFF7D1FF04221D216820E4
:103B3000FFF7CCFF022237216820FFF7C7FF4FF4C1
:103B40007A7002F0BDFA16220A210C20FFF7BEFFA0
:103B50004FF07E5363652365E364A36110BD0000ED
:103B600010B582B004466B4606223B216820FFF761
:103B700089FF9DF800309DF8012042EA032252425D
:103B800012B2144B1A809DF802109DF8033043EADC
:103B900001235B421BB210490B809DF804009DF885
:103BA000051041EA002109B20C48018007EE902A75
:103BB000F8EEE77AC4ED167A07EE903AF8EEE77A77
:103BC000C4ED177A07EE901AF8EEE77AC4ED187A8A
:103BD00002B010BD041B0020061B0020081B0020A3
:103BE00010B582B004466B46062243216820FFF7D9
:103BF00049FF9DF800309DF8012042EA032252421D
:103C000012B2144B1A809DF802109DF8033043EA5B
:103C100001235B421BB210490B809DF804009DF804
:103C2000051041EA002109B20C48018007EE902AF4
:103C3000F8EEE77AC4ED197A07EE903AF8EEE77AF3
:103C4000C4ED1A7A07EE901AF8EEE77AC4ED1B7A03
:103C500002B010BD0A1B00200C1B00200E1B002010
:103C600010B582B004466B4606223B216820FFF760
:103C700009FF9DF800209DF8013043EA02235B42D2
:103C80001BB21F4A13809DF802109DF8032042EAE0
:103C900001221C48524202809DF804109DF8052024
:103CA00042EA012218490A8094ED037A07EE903A1D
:103CB000F8EEE77A77EE877A94ED067AC7EE876AB0
:103CC000C4ED006AD4ED046AB0F9003007EE903A12
:103CD000F8EEE77A77EEA67AC7EE876AC4ED016A56
:103CE000D4ED056AB1F9003007EE903AF8EEE77AC4
:103CF00077EEA67AC7EE876AC4ED026A02B010BDFD
:103D0000041B0020061B0020081B002010B582B0F9
:103D100004466B46062243216820FFF7B3FE9DF858
:103D200000309DF8012042EA0322524212B21A4B9F
:103D30001A809DF802109DF8033043EA01235B428C
:103D40001BB216490B809DF804009DF8051041EA4E
:103D5000002109B21248018094ED0A7A07EE902AF8
:103D6000F8EEE77A77EE877AC4ED077A94ED0B7A6E
:103D700007EE903AF8EEE77A77EE877AC4ED087AA4
:103D800094ED0C7A07EE901AF8EEE77A77EE877AE0
:103D9000C4ED097A02B010BD0A1B00200C1B0020E4
:103DA0000E1B002010B582B004466B46072203218B
:103DB0000C20FFF767FE9DF803309DF8021041EAE2
:103DC0000321494209B2214B19809DF801309DF829
:103DD000002042EA0322524212B21D4B1A809DF883
:103DE00005009DF8043043EA00235B421BB21948EA
:103DF000038094ED107A07EE901AF8EEE77A77EEEA
:103E0000C77AD4ED136A87EEA67A84ED0D7A94ED25
:103E1000117A07EE902AF8EEE77A77EEC77AD4EDBA
:103E2000146A87EEA67A84ED0E7A94ED127A07EE84
:103E3000903AF8EEE77A77EEC77AD4ED156A87EE16
:103E4000A67A84ED0F7A02B010BD00BF101B0020CF
:103E5000121B0020141B0020F0B52DED088B87B03D
:103E600004460E46B0EE40BA17460023039304936F
:103E7000059300930193029300250CE0616E03917A
:103E8000A26E0492E36E05930091019202930220C8
:103E900002F016F90135B54274DA2046FFF7A0FEAC
:103EA000002DEBD0606EFCF7CFFB41EC1A0B0398B2
:103EB000FCF7CAFBB0EE4A1AF0EE6A1A41EC100B9E
:103EC00006F0B2F951EC100BFCF70EFF0390A06E58
:103ED000FCF7BAFB41EC190B0498FCF7B5FBB0EE0C
:103EE000491AF0EE691A41EC100B06F09DF951ECFD
:103EF000100BFCF7F9FE0490E06EFCF7A5FB41EC1B
:103F0000180B0598FCF7A0FBB0EE481AF0EE681A03
:103F100041EC100B06F088F951EC100BFCF7E4FEB5
:103F200005900098FCF790FBB0EE4A1AF0EE6A1A82
:103F300041EC100B06F0A0F951EC100BFCF7D4FE8D
:103F400000900198FCF780FBB0EE491AF0EE691A78
:103F500041EC100B06F090F951EC100BFCF7C4FE8D
:103F600001900298FCF770FBB0EE481AF0EE681A68
:103F700041EC100B06F080F951EC100BFCF7B4FE8D
:103F8000029084E79DED037ADDED006A37EE666A04
:103F9000DFED237A7BEE277AB4EEE76AF1EE10FAD2
:103FA00036D59DED046ADDED015A36EE655ADFED3A
:103FB0001D7A7BEE277AB4EEE75AF1EE10FA2CD593
:103FC0009DED055ADDED024A75EE647A9FED164AC5
:103FD0003BEE04BAF4EECB7AF1EE10FA01D40020F5
:103FE00017E09FB177EE267AB6EE007A67EEC77AD1
:103FF000C4ED0A7A76EE257A67EEC77AC4ED0B7ABD
:1040000075EE247A67EEC77AC4ED0C7A012000E0E1
:10401000002007B0BDEC088BF0BD0020F9E700BF21
:1040200000005C430000C8430000BE4310B50446D6
:104030009FED0B0A0420FEF73DF901229FED080ACF
:10404000C8212046FFF708FF0028F6D09FED050A9B
:104050000420FEF72FF90221034801F09BFF10BD59
:10406000000000000000C8420010024008B570EED9
:10407000611A61EEA11A30EEC22A22EE022A71EE16
:10408000821A71EE622A62EEA22A71EEA27A17EE0D
:10409000900AFCF7D9FA41EC100B06F0CDF951EC7F
:1040A000100BFCF721FE00EE100A08BD0000000016
:1040B0002DE9F04F2DED048BA3B006469FEDD40AF9
:1040C0000620FEF7F7F800210CE001EB4103134452
:1040D00022A800EB8303002043F8780C0132022A67
:1040E000F3DD0131052901DC0022F8E70322114646
:1040F0001EA8FFF7E9F8012203211AA8FFF7E4F848
:104100000122032116A8FFF7DFF8002301939B4645
:10411000984627E0019D002D60D15846FCF782FAB1
:104120009FEDB51B41EC100B06F0A6F851EC100BFF
:104130000022B84BFCF7E0FA0022B74BFCF706FC74
:10414000FCF7D2FD00EE100A0620FEF7B3F8BBF133
:10415000050FD4BF4FF0000905F00109B9F1000FB8
:1041600040F0AA80019B002B40F05E810022B3EE5C
:104170000E0A64213046FFF76FFE05460028F5D091
:104180003046FFF7EDFC0124052CC4DCA8EB04024B
:104190000632A24B83FB0213A3EBE27303EB430350
:1041A000A2EB430303EB430222A901EB820252ED8F
:1041B0001C2A12ED1D2A52ED1E1A96ED181AD6ED84
:1041C000170A96ED160AFFF751FFDFED957AB4EE68
:1041D000E70AF1EE10FA9DD40134D5E702219148A7
:1041E00001F0D8FEB26D08EB480322A901EB83036E
:1041F00043F8782CF26D43F8742C326E43F8702C2F
:1042000008F101030BF1010B844A82FB0328A8EBA0
:10421000E37808EB4808A3EB48087EE708EB0A02BE
:10422000511E7E4B83FB0104A4EBE17404EB4404B8
:10423000A1EB440404EB44042C4422A901EB8404C4
:1042400014ED1E0A83FB0213A3EBE27303EB43039B
:10425000A2EB430303EB43035F1922AB03EB870796
:1042600057ED1E7A30EE670A30EE000A2A460AF150
:10427000FF311EA8FFF747F857ED1E7A67EEA77AC1
:1042800014ED1E7A27EE077A77EEC77A38EE278A82
:104290000135022DC2DDB0EE480A00220AF1FF31DD
:1042A0001AA8FFF730F80AF1010ABAF1030F06DC89
:1042B00000259FED578AECE74FF0010AF5E716AAB3
:1042C0001AA91EA8FFF738F800259FED519A022D74
:1042D0001DDC08EB48042C4422AB03EB840414EDF2
:1042E0001E8A0022294616A8FFF715F838EE008A24
:1042F00054ED1E8A0022294616A8FFF70CF878EE26
:10430000808A28EE288A39EE089A0135DFE719EE0F
:10431000100AFCF799F93AA3D3E90023FCF716FB3E
:1043200037A3D3E90023FCF711FB41EC100B06F097
:1043300083F851EC100BFCF7D7FC09EE900A04252A
:1043400049E008EB0502354B83FB0213A3EBE27354
:1043500003EB4303A2EB430303EB4303DC1922AB60
:1043600003EB840414ED1E8A0022394616A8FEF7DA
:10437000D2FF38EE008A54ED1E8A0022394616A874
:10438000FEF7C9FF78EE808A28EE288A39EE089A6F
:104390000137022FD5DDC9EE297AC7EEA97A17EECB
:1043A000900AFCF751F941EC100B06F045F851EC7E
:1043B000100B13A3D3E90023FBF7E6FF029021F0D3
:1043C0000043039310A3D3E90023DDE90201FCF7C6
:1043D00023FC30B90135052D05DC00279FED0C9A33
:1043E000D7E7DDF80490B9F1000F3FF4BBAECDF88C
:1043F0000490B7E6AFF30080000000000000184012
:104400001F85EB51B89E2340333333333333D33FCF
:10441000000000000000594000001C40ABAAAA2A7E
:1044200000007A44001002400022114616A8FEF750
:1044300072FF86ED030A0022012116A8FEF76BFF2A
:1044400086ED040A0022022116A8FEF764FF86ED1D
:10445000050AC6ED069A1EA8FEF765FF1AA8FEF724
:1044600062FF16A8FEF75FFF23B0BDEC048BBDE82A
:10447000F08F00BF38B5114800F0F8FA104D6423F2
:104480000E221049284602F000FCFDF785F8FEF7E1
:10449000BDFDFFF7C5F90C4C01220C49204603F085
:1044A00063FD2046FBF7B4FE642382B22146284612
:1044B00002F0EBFBFDF7F4FF38BD00BF041D002048
:1044C000E81B002084C50008181B002094C50008C4
:1044D00072B6FEE710B5B4B03022002128A803F070
:1044E0000BF8002423942494259426942794842262
:1044F000214602A803F000F8264B1A6C42F08052C5
:104500001A641B6C03F080530093009B224B1A68C3
:1045100042F440421A601B6803F440430193019B3C
:104520000223289301222B9210222C922E932F9457
:1045300008223092C82231923293339328A800F097
:1045400013FEF8B901F030FDF0B90F2323930223D5
:104550002493002325934FF4A05326934FF48053C4
:104560002793062123A801F06BF878B90B4B02932F
:10457000002314931B931E9302A801F03DF938B950
:1045800034B010BDFFF7A4FFFFF7A2FFFFF7A0FFB5
:10459000FFF79EFF0038024000700040804002009C
:1045A00008B52A4BD3F8882042F47002C3F888205B
:1045B000BFF34F8FBFF36F8F0021C3F85012BFF3CB
:1045C0004F8FBFF36F8F5A6942F400325A61BFF3C5
:1045D0004F8FBFF36F8FC3F88410BFF34F8FD3F8A3
:1045E0008040C4F34E3000E01846C4F3C90243F6DD
:1045F000E07303EA401343EA82731449C1F860325E
:104600001346013A002BF2D1431E0028ECD1BFF330
:104610004F8F4B6943F480334B61BFF34F8FBFF330
:104620006F8F01F025FDFFF755FF02F0EDFB02F063
:104630002FFC02F059FC02F01FFD02F035FE02F0E3
:1046400093FE02F06BFDFFF715FFFCE700ED00E0C5
:10465000FEE7FEE7FEE7FEE7FEE7704770477047BC
:1046600008B501F01BFD08BD2E4B9B6913F0020F2E
:104670001AD02D4A1168B1F1FF3F10D02B480268C3
:10468000013202602A4800EB8101895C254A91626F
:1046900013F0080F02D0234B0822DA617047234A37
:1046A0001168204A9162F3E713F0040F16D01D4AF7
:1046B000526A5FFA82FC1C490968B1F1FF3F09D0D8
:1046C0001A48026801320260194800EB810101F8C2
:1046D00002C0DDE71449C1F800C0D9E713F0200F8C
:1046E00012D0124A1268B2F1FF3F05D04FF0FF32EC
:1046F0000E490A600C490A600A4A916941F00101B9
:1047000091612021D161C3E713F0100F03D0054A56
:104710001021D161BCE713F0080FB9D0014A08217C
:10472000D161B5E700600040B4000020B80000206F
:104730000C03002082B00A4B1A6C42F080521A64BB
:104740001A6C02F080520092009A5A6C42F4804235
:104750005A645B6C03F480430193019B02B0704781
:10476000003802400649CB6823F4E0631B041B0CAD
:10477000000200F4E0600343024A1A43CA60704733
:1047800000ED00E00000FA0500B5174BDB68C3F34D
:104790000223C3F1070CBCF1040F28BF4FF0040C37
:1047A00003F1040EBEF1060F14D9033B4FF0FF3E98
:1047B0000EFA0CFC21EA0C0199400EFA03F322EAEE
:1047C00003031943002807DB0901C9B2074B195439
:1047D0005DF804FB0023E9E700F00F000901C9B20E
:1047E000034B1954F4E700BF00ED00E000E400E0E3
:1047F00014ED00E0002807DB00F01F024009012350
:104800009340024A42F82030704700BF00E100E0C8
:104810000138B0F1807F0BD24FF0E0235861054A98
:10482000F02182F823100020986107221A61704756
:104830000120704700ED00E070B4036A23F001032B
:104840000362036A42688569124C2C400D68254357
:1048500023F002048B6823430F4C104EB04218BF64
:10486000A0420CBF0124002405D123F00803CE6828
:10487000334323F004032CB122F440724C691443F7
:104880008A692243426085614A684263036270BC60
:10489000704700BF8CFFFEFF000001400004014094
:1048A00070B4036A23F480730362036A4268C569C3
:1048B000144C2C400E68264323F400738C6843EAA2
:1048C0000423114C114DA84218BFA0420CBF012473
:1048D000002406D123F40063CD6843EA052323F4C2
:1048E00080633CB122F440524C6942EA04128C6964
:1048F00042EA04124260C6614A68C263036270BC45
:10490000704700BF8CFFFEFF000001400004014023
:1049100070B4036A23F480530362036A4468C56970
:104920000D4A2A400D6842EA052223F400538D689F
:1049300043EA0533094E0A4DA84218BFB04204D1DC
:1049400024F480444D6944EA85144460C2614A6895
:104950000264036270BC7047FF8CFFFE00000140E0
:104960000004014070B4036A23F480330362036AD5
:104970004468426D0D4D15400A682A4323F4003304
:104980008D6843EA05430A4E0A4DA84218BFB0425B
:1049900004D124F480344D6944EA0524446042651E
:1049A0004A688265036270BC704700BF8FFFFEFFDC
:1049B000000001400004014070B4036A23F4801336
:1049C0000362036A4468456D0D4A2A400D6842EA55
:1049D000052223F400138D6843EA0553094E0A4D5E
:1049E000A84218BFB04204D124F480244D6944EA9F
:1049F0008524446042654A68C265036270BC7047A2
:104A0000FF8FFFFE000001400004014010B4036A64
:104A1000046A24F001040462846924F0F00C4CEA76
:104A2000021223F00A030B43826103625DF8044B18
:104A3000704710B4046A24F0100404628469036AA5
:104A400024F4704C4CEA023223F0A00343EA011331
:104A5000826103625DF8044B7047836823F0700342
:104A60000B4343F0070383607047000090F83D302C
:104A7000DBB2012B35D1022380F83D3003681B4A9D
:104A8000B3F1804F18BF93421DD0A2F57C429342F0
:104A900019D002F58062934215D002F580629342EC
:104AA00011D002F5784293420DD002F57052934234
:104AB00009D0A2F59432934205D01A6842F001025F
:104AC0001A60002070479968094A0A40062A18BFF0
:104AD000B2F5803F07D01A6842F001021A60002048
:104AE0007047012070470020704700BF0000014060
:104AF000070001007047000030B503683B4A904250
:104B000014BF4FF0000E4FF0010EB0F1804F14BFF4
:104B100072464EF00102AAB9354CA04214BF0024DF
:104B20000124344DA8420DD064B904F1804404F549
:104B30008234A04214BF0024012405F50065A84278
:104B400000D01CB123F070034C682343002A33D1FA
:104B5000274A904214BF00220122264CA0422BD0AB
:104B600052BB02F1804202F58232904214BF002211
:104B7000012204F50064A0421ED0EAB91E4A904208
:104B800014BF0022012204F59A34A04214D09AB92D
:104B90001A4A904214BF0022012204F50064A04288
:104BA0000AD04AB9164A904214BF00220122A4F545
:104BB0009634A04200D022B123F4407CCB6843EA73
:104BC0000C0323F080034A69134303608A68C262BE
:104BD0000A6882620B4A904214BF73464EF001038A
:104BE0000BB10B6903630123436130BD0000014039
:104BF000000800400004004000440140001800404C
:104C0000002000400004014060B310B5044690F855
:104C10003D3013B3022384F83D30214651F8040B94
:104C2000FFF76AFF012384F8483084F83E3084F8A7
:104C30003F3084F8403084F8413084F8423084F8C2
:104C4000433084F8443084F8453084F8463084F8A2
:104C5000473084F83D30002010BD80F83C3002F031
:104C600095FAD7E70120704760B310B5044690F875
:104C70003D3013B3022384F83D30214651F8040B34
:104C8000FFF73AFF012384F8483084F83E3084F877
:104C90003F3084F8403084F8413084F8423084F862
:104CA000433084F8443084F8453084F8463084F842
:104CB000473084F83D30002010BD80F83C30FFF7CD
:104CC00019FFD7E70120704770B4036A23F010037F
:104CD0000362036A42688569144C2C400D6844EAFB
:104CE000052523F020038C6843EA0413104C114E71
:104CF000B04218BFA0420CBF0124002406D123F00B
:104D00008003CE6843EA061323F040033CB122F44B
:104D100040624C6942EA84028C6942EA8402426041
:104D200085614A688263036270BC7047FF8CFFFE36
:104D3000000001400004014038B590F83C30012BE0
:104D400000F08C8004460D46012380F83C30142A84
:104D50001ED8DFE802F00B1D1D1D211D1D1D351D78
:104D60001D1D481D1D1D5C1D1D1D6F000068FFF7EA
:104D700063FD2268936943F0080393612268936995
:104D800023F0040393612268936929690B439361BB
:104D9000002084F83C0038BD0068FFF795FF2268CA
:104DA000936943F4006393612268936923F48063F9
:104DB000936122689369296943EA01239361E7E7D4
:104DC0000068FFF76DFD2268D36943F00803D361E3
:104DD0002268D36923F00403D3612268D369296967
:104DE0000B43D361D4E70068FFF792FD2268D369D3
:104DF00043F40063D3612268D36923F48063D361F1
:104E00002268D369296943EA0123D361C0E70068B6
:104E1000FFF7A8FD2268536D43F00803536522682D
:104E2000536D23F0040353652268536D29690B43C6
:104E30005365ADE70068FFF7BFFD2268536D43F48B
:104E4000006353652268536D23F4806353652268C1
:104E5000536D296943EA0123536599E702209AE7D4
:104E600010B4846824F47F4C42EA03220A4342EAE5
:104E70000C0282605DF8044B7047000090F83C30F3
:104E8000012B64D010B50446012380F83C30022386
:104E900080F83D30026890682E4B034093600B68A9
:104EA000602B40D022D8402B47D00BD9502B0ED1AD
:104EB000CA6849682068FFF7A9FD50212068FFF7FC
:104EC000CCFD04E0202B0CD008D9302B09D00123D5
:104ED00084F83D30002084F83C0010BD0BB1102B4D
:104EE000F5D119462068FFF7B8FDF0E7702B0ED01A
:104EF000B3F5005FEBD1CB684A6889682068FFF79B
:104F0000AFFF2268936843F480439360DFE7CB6888
:104F10004A6889682068FFF7A3FF2268936843F016
:104F200077039360D3E7CA6849682068FFF781FD7B
:104F300060212068FFF791FDC9E7CA6849682068C9
:104F4000FFF764FD40212068FFF787FDBFE70220DF
:104F5000704700BF8800FEFF01F01F01012303FA24
:104F600001FC036A23EA0C030362036A02FA01F1FB
:104F70000B4303627047000010B504460846002941
:104F800042D194F83E30DBB2013B18BF0123002B25
:104F900040F08F80002862D1022384F83E30012245
:104FA00001462068FFF7D8FF23684449444A9342EA
:104FB00018BF8B4203D15A6C42F400425A642368F2
:104FC0003E4AB3F1804F18BF934264D0A2F57C42B1
:104FD000934260D002F5806293425CD002F5806219
:104FE000934258D002F57842934254D002F5705261
:104FF000934250D0A2F5943293424CD01A6842F0BA
:1050000001021A60002055E004290CD0082911D0B3
:105010000C2916D010291BD094F84330DBB2013B89
:1050200018BF0123B3E794F83F30DBB2013B18BF50
:105030000123ACE794F84030DBB2013B18BF0123F9
:10504000A5E794F84130DBB2013B18BF01239EE78E
:1050500094F84230DBB2013B18BF012397E70428E4
:1050600009D008280BD00C280DD010280FD002230F
:1050700084F8433093E7022384F83F308FE702231C
:1050800084F840308BE7022384F8413087E702231D
:1050900084F8423083E799680A4A0A40062A18BF12
:1050A000B2F5803F07D01A6842F001021A60002072
:1050B00000E0012010BD0020FCE700BF000001401F
:1050C000000401400700010090F83C30012B45D05E
:1050D00070B4012380F83C30022380F83D3003682F
:1050E0005A689C681E4E1F4DAB4218BFB34203D195
:1050F00022F470024D682A4322F070020D682A43A0
:105100005A600368164AB3F1804F18BF934217D014
:10511000A2F57C42934213D002F5806293420FD0F5
:1051200002F5806293420BD002F57842934207D099
:1051300002F57052934203D0A2F59432934204D107
:1051400024F080048A6814439C60012380F83D3079
:10515000002380F83C30184670BC7047022070472E
:105160000000014000040140002800F0FF8170B5FC
:1051700082B00446036813F0010F29D0954B9B6859
:1051800003F00C03042B1AD0924B9B6803F00C0322
:10519000082B0FD06368B3F5803F40D0002B54D16B
:1051A0008C4B1A6822F480321A601A6822F480222A
:1051B0001A6039E0874B5B6813F4800FEAD0854BA7
:1051C0001B6813F4003F03D06368002B00F0D0810C
:1051D000236813F0020F74D07E4B9B6813F00C0F02
:1051E0005ED07C4B9B6803F00C03082B53D0E36824
:1051F000002B00F08980774A136843F001031360A5
:1052000000F058FF0546734B1B6813F0020F72D174
:1052100000F050FF401B0228F5D90320ADE16D4A94
:10522000136843F48033136063682BB300F042FFCC
:105230000546684B1B6813F4003FC9D100F03AFFE4
:10524000401B6428F5D9032097E1B3F5A02F09D0BE
:10525000604B1A6822F480321A601A6822F48022A5
:105260001A60E1E75B4B1A6842F480221A601A6800
:1052700042F480321A60D7E700F01CFF0546554B18
:105280001B6813F4003FA3D000F014FF401B6428F8
:10529000F5D9032071E14F4B5B6813F4800FA6D161
:1052A0004C4B1B6813F0020F03D0E368012B40F056
:1052B0006181484A136823F0F803216943EAC10376
:1052C0001360236813F0080F46D0636983B3414A23
:1052D000536F43F00103536700F0ECFE05463D4B6E
:1052E0005B6F13F0020F37D100F0E4FE401B022881
:1052F000F5D9032041E1374A136823F0F803216907
:1053000043EAC1031360DCE7324A136823F0010368
:10531000136000F0CFFE05462E4B1B6813F0020F02
:10532000CFD000F0C7FE401B0228F5D9032024E1AE
:10533000284A536F23F00103536700F0BBFE054674
:10534000244B5B6F13F0020F06D000F0B3FE401B3E
:105350000228F5D9032010E1236813F0040F7DD053
:105360001C4B1B6C13F0805F1ED11A4B1A6C42F061
:1053700080521A641B6C03F080530193019B01253A
:10538000154B1B6813F4807F10D0A368012B25D028
:10539000002B3BD10F4B1A6F22F001021A671A6FD4
:1053A00022F004021A671EE00025E9E70A4A1368A2
:1053B00043F48073136000F07DFE0646064B1B68C5
:1053C00013F4807FE1D100F075FE801B6428F5D9CD
:1053D0000320D2E000380240007000406E4A136F94
:1053E00043F001031367A36833B300F063FE06467E
:1053F000694B1B6F13F0020F2FD100F05BFE801B77
:1054000041F288339842F3D90320B6E0052B09D046
:10541000614B1A6F22F001021A671A6F22F0040220
:105420001A67E0E75C4B1A6F42F004021A671A6FC2
:1054300042F001021A67D6E700F03CFE0646564BE2
:105440001B6F13F0020F08D000F034FE801B41F2F6
:1054500088339842F3D903208FE0FDB9A369002B6C
:1054600000F08A804C4A926802F00C02082A58D058
:10547000022B19D0484A136823F08073136000F0A0
:1054800019FE0446444B1B6813F0007F47D000F020
:1054900011FE001B0228F5D903206EE03E4A136C72
:1054A00023F080531364D9E73B4A136823F08073D9
:1054B000136000F0FFFD0546374B1B6813F0007FBB
:1054C00006D000F0F7FD401B0228F5D9032054E078
:1054D000E369226A1343626A43EA8213A26A5208AA
:1054E000013A43EA0243E26A43EA026343F00053AB
:1054F000294A5360136843F08073136000F0DAFDAB
:105500000446254B1B6813F0007F06D100F0D2FD46
:10551000001B0228F5D903202FE000202DE00020F9
:105520002BE01D4A5268012B29D002F48003E16967
:105530008B4226D102F03F03216A8B4223D1616A5C
:1055400047F6C0731340B3EB811F1ED102F4403104
:10555000A36A5B08013BB1EB034F18D102F0706204
:10556000E36AB2EB036F14D1002006E0012070471C
:10557000012002E0012000E0002002B070BD012007
:10558000FBE70120F9E70120F7E70120F5E701201B
:10559000F3E70120F1E700BF0038024008B5254BD2
:1055A0009B6803F00C03042B3FD0082B3FD1214B09
:1055B0005A6802F03F025B6813F4800F12D01D4B53
:1055C0005968C1F388111C480023A1FB0001FBF7B7
:1055D000DBFB184B5B68C3F3014301335B00B0FB9B
:1055E000F3F025E0134B5968C1F3881C4FEA4C11C6
:1055F000B1EB0C006EEB0E0E4FEA8E1343EA906394
:105600008101091A63EB0E03DB0043EA5173C90001
:1056100011EB0C0C43F10003990200234FEA8C209C
:1056200041EA9C51FBF7B0FBD3E7034800E0034895
:1056300008BD00BF0038024040787D010024F4001E
:10564000002800F0A08070B50D460446524B1B6840
:1056500003F00F038B420BD24F4A136823F00F0362
:105660000B431360136803F00F038B4240F08D80EF
:10567000236813F0020F17D013F0040F04D0474A29
:10568000936843F4E0539360236813F0080F04D049
:10569000424A936843F460439360404A936823F01E
:1056A000F003A1680B439360236813F0010F31D01E
:1056B0006368012B20D0022B25D0384A126812F0E3
:1056C000020F64D035498A6822F0030213438B60CD
:1056D00000F0F0FC0646314B9B6803F00C03626857
:1056E000B3EB820F16D000F0E5FC801B41F288334B
:1056F0009842F0D9032045E0284A126812F4003F8E
:10570000E0D101203EE0254A126812F0007FD9D195
:10571000012037E0204B1B6803F00F03AB420AD98E
:105720001D4A136823F00F032B431360136803F023
:105730000F03AB422DD1236813F0040F06D0174A94
:10574000936823F4E053E1680B439360236813F0FC
:10575000080F07D0114A936823F46043216943EA94
:10576000C1039360FFF71AFF0C4B9B68C3F303134D
:105770000B4AD35CD8400B4B18600B4B186800F0F9
:1057800051FC002070BD012070470120FAE7012084
:10579000F8E70120F6E700BF003C02400038024075
:1057A00098C50008C4000020C0000020014B186804
:1057B000704700BFC400002008B5FFF7F7FF044B97
:1057C0009B68C3F38223034AD35CD84008BD00BF63
:1057D00000380240A8C5000808B5FFF7E7FF044BF2
:1057E0009B68C3F34233034AD35CD84008BD00BF73
:1057F00000380240A8C50008F0B583B0044606682A
:1058000016F001060DD0A74B9A6822F400029A60A8
:105810009A68416B0A439A60436B002B00F0398110
:105820000026256815F4002511D09E4AD2F88C3048
:1058300023F44013E16B0B43C2F88C30E36BB3F5F8
:10584000801F00F02881002B00F0278100252368AD
:1058500013F4801F0FD0934AD2F88C3023F4400306
:10586000216C0B43C2F88C30236CB3F5800F00F031
:10587000168103B90125236813F0807F00D001262B
:1058800013F0200F40F01081236813F0100F0CD09C
:10589000844BD3F88C2022F08072C3F88C20D3F88C
:1058A0008C20A16B0A43C3F88C20236813F4804F2B
:1058B00008D07C4AD2F8903023F44033616E0B4319
:1058C000C2F89030236813F4004F08D0754AD2F81C
:1058D000903023F44023A16E0B43C2F8903023682C
:1058E00013F4803F08D06F4AD2F8903023F440136D
:1058F000E16E0B43C2F89030236813F4003F08D0E8
:10590000684AD2F8903023F44003216F0B43C2F869
:105910009030236813F0400F08D0624AD2F89030DC
:1059200023F00303616C0B43C2F89030236813F03B
:10593000800F08D05B4AD2F8903023F00C03A16CA2
:105940000B43C2F89030236813F4807F08D0554A87
:10595000D2F8903023F03003E16C0B43C2F8903062
:10596000236813F4007F08D04E4AD2F8903023F019
:10597000C003216D0B43C2F89030236813F4806F8D
:1059800008D0484AD2F8903023F44073616D0B433D
:10599000C2F89030236813F4006F08D0414AD2F85F
:1059A000903023F44063A16D0B43C2F8903023681C
:1059B00013F4805F08D03B4AD2F8903023F4405370
:1059C000E16D0B43C2F89030236813F4005F08D0F8
:1059D000344AD2F8903023F44043216E0B43C2F88E
:1059E0009030236813F4800F08D02E4AD2F89030FC
:1059F00023F08063A16F0B43C2F89030236813F447
:105A0000001F0DD0274AD2F8903023F00063E16FD9
:105A10000B43C2F89030E36FB3F1006F00F0AA803F
:105A2000236813F0080F00D0012513F4802F08D04D
:105A30001C4AD2F8903023F04073616F0B43C2F8D8
:105A40009030236813F4000F09D0164AD2F8903032
:105A500023F08053D4F880100B43C2F8903026B95D
:105A6000236813F0007F00F005810E4A136823F0CD
:105A70008063136000F01EFB06460A4B1B6813F0A0
:105A8000006F79D000F016FB801B6428F5D9032045
:105A9000F3E00126C5E60126D5E60125D7E6012675
:105AA000E7E600BF003802407F4B1A6C42F080529C
:105AB0001A641B6C03F080530193019B7B4A1368AB
:105AC00043F48073136000F0F5FA0746774B1B68C8
:105AD00013F4807F06D100F0EDFAC01B6428F5D9DD
