:020000040800F2
:1000000000000520E15D0008753100087731000827
:10001000793100087B3100087D31000800000000C4
:100020000000000000000000000000007F31000818
:10003000813100080000000083310008853100088C
:10004000315E0008315E0008315E0008315E000854
:10005000315E0008315E0008315E0008315E000844
:10006000315E0008315E0008315E0008315E000834
:10007000315E0008315E0008315E0008315E000824
:10008000315E0008315E0008315E0008315E000814
:10009000315E0008315E0008315E0008315E000804
:1000A000315E0008315E0008315E0008315E0008F4
:1000B000315E0008315E0008315E0008315E0008E4
:1000C000315E0008315E0008315E0008315E0008D4
:1000D000315E0008315E0008315E0008315E0008C4
:1000E000315E0008315E0008315E0008315E0008B4
:1000F000315E0008315E0008315E0008315E0008A4
:10010000315E0008315E0008315E0008315E000893
:10011000315E0008315E0008315E0008315E000883
:10012000315E0008315E0008315E0008315E000873
:10013000315E0008315E0008315E0008315E000863
:10014000315E0008315E0008315E0008315E000853
:10015000315E0008315E0008315E0008315E000843
:10016000315E0008315E0008315E0008315E000833
:10017000315E0008315E0008315E000800000000BA
:10018000315E0008315E0008315E0008315E000813
:10019000315E0008315E0008315E0008315E000803
:1001A000315E0008315E0008315E0008315E0008F3
:1001B000315E0008315E0008315E00088D310008B4
:0801C000315E0008315E000809
:1001D00010B5054C237833B9044B13B10448AFF381
:1001E00000800123237010BD0003002000000000E8
:1001F000E0AF000808B5034B1BB103490348AFF358
:10020000008008BD0000000004030020E0AF0008EB
:10021000034613F8012B002AFBD1181A0138704746
:1002200001F0FF01102A2BDB10F0070F08D010F8A7
:10023000013B013A8B422DD010F0070F42B3F6D1AB
:10024000F0B441EA012141EA014122F007047FF0C4
:1002500000070023F0E80256083C85EA010586EA1B
:10026000010685FA47F5A3FA87F586FA47F6A5FA57
:1002700087F68EB9EED1F0BC01F0FF0102F0070263
:1002800032B110F8013B013A83EA010313B1F8D10E
:100290000020704701387047002D06BF35460338EF
:1002A000073815F0010F07D1013015F4807F02BF28
:1002B000013015F4C03F0130F0BC0138704700BF79
:1002C0004B1C012B98BF70472DE9F003911C9B0834
:1002D000B1F80480B1F802900A8831F802CC804469
:1002E000814402448444D9F80070D8F8006015684D
:1002F000DCF80040C9F80060C8F80070CCF8005085
:100300001460D9F80470D8F804605568DCF804402B
:10031000C9F80460C8F80470CCF80450546008317F
:10032000013BD5D1BDE8F00370474B1C012B98BFB2
:1003300070472DE9F003911C9B08B1F80480B1F8D7
:1003400002900A8831F802CC00EB580800EB5909FA
:1003500000EB520200EB5C0CD9F80070D8F800609A
:100360001568DCF80040C9F80060C8F80070CCF8E7
:10037000005014600831013BDFD1BDE8F003704745
:1003800081F0004102E000BF83F0004330B54FEA46
:1003900041044FEA430594EA050F08BF90EA020FB3
:1003A0001FBF54EA000C55EA020C7FEA645C7FEA46
:1003B000655C00F0E2804FEA5454D4EB5555B8BF69
:1003C0006D420CDD2C4480EA020281EA030382EADA
:1003D000000083EA010180EA020281EA0303362D6C
:1003E00088BF30BD11F0004F4FEA01314FF4801C3F
:1003F0004CEA113102D0404261EB410113F0004F51
:100400004FEA03334CEA133302D0524263EB430307
:1004100094EA050F00F0A780A4F10104D5F1200EA5
:100420000DDB02FA0EFC22FA05F2801841F1000100
:1004300003FA0EF2801843FA05F359410EE0A5F1D4
:1004400020050EF1200E012A03FA0EFC28BF4CF005
:10045000020C43FA05F3C01851EBE37101F00045BB
:1004600007D54FF0000EDCF1000C7EEB00006EEBC8
:100470000101B1F5801F1BD3B1F5001F0CD3490852
:100480005FEA30004FEA3C0C04F101044FEA4452A9
:1004900012F5800F80F09A80BCF1004F08BF5FEA30
:1004A000500C50F1000041EB045141EA050130BD10
:1004B0005FEA4C0C404141EB0101013C28BFB1F522
:1004C000801FE9D291F0000F04BF01460020B1FA6D
:1004D00081F308BF2033A3F10B03B3F120020CDA40
:1004E0000C3208DD02F1140CC2F10C0201FA0CF01E
:1004F00021FA02F10CE002F11402D8BFC2F1200C83
:1005000001FA02F120FA0CFCDCBF41EA0C01904038
:10051000E41AA2BF01EB0451294330BD6FEA040481
:100520001F3C1CDA0C340EDC04F11404C4F120026C
:1005300020FA04F001FA02F340EA030021FA04F37E
:1005400045EA030130BDC4F10C04C4F1200220FAD5
:1005500002F001FA04F340EA0300294630BD21FA13
:1005600004F0294630BD94F0000F83F4801306BFD9
:1005700081F480110134013D4EE77FEA645C18BFCD
:100580007FEA655C29D094EA050F08BF90EA020F64
:1005900005D054EA000C04BF1946104630BD91EA5C
:1005A000030F1EBF0021002030BD5FEA545C05D15F
:1005B0004000494128BF41F0004130BD14F580049E
:1005C0003CBF01F5801130BD01F0004545F0FE4112
:1005D00041F470014FF0000030BD7FEA645C1ABF47
:1005E000194610467FEA655C1CBF0B46024650EA7E
:1005F000013406BF52EA033591EA030F41F40021AA
:1006000030BD00BF90F0000F04BF0021704730B52F
:100610004FF4806404F132044FF000054FF0000104
:1006200050E700BF90F0000F04BF0021704730B5C5
:100630004FF4806404F1320410F0004548BF40429A
:100640004FF000013EE700BF42004FEAE2014FEAEF
:1006500031014FEA02701FBF12F07F4393F07F4FCA
:1006600081F06051704732F07F4208BF704793F0CD
:100670007F4F04BF41F40021704730B54FF46074E0
:1006800001F0004521F000411CE700BF50EA0102E3
:1006900008BF704730B54FF000050AE050EA01028C
:1006A00008BF704730B511F0004502D5404261EBFC
:1006B00041014FF4806404F132045FEA915C3FF43D
:1006C000D8AE4FF003025FEADC0C18BF03325FEADA
:1006D000DC0C18BF033202EBDC02C2F1200300FA8B
:1006E00003FC20FA02F001FA03FE40EA0E0021FAB0
:1006F00002F11444BDE600BF70B54FF0FF0C4CF49E
:10070000E06C1CEA11541DBF1CEA135594EA0C0F4F
:1007100095EA0C0F00F0DEF82C4481EA030621EA8A
:100720004C5123EA4C5350EA013518BF52EA0335C5
:1007300041F4801143F4801338D0A0FB02CE4FF077
:100740000005E1FB02E506F00042E0FB03E54FF0A7
:100750000006E1FB03569CF0000F18BF4EF0010E9F
:10076000A4F1FF04B6F5007F64F5407404D25FEA9B
:100770004E0E6D4146EB060642EAC62141EA55514E
:100780004FEAC52040EA5E504FEACE2EB4F1FD0C90
:1007900088BFBCF5E06F1ED8BEF1004F08BF5FEA0E
:1007A000500E50F1000041EB045170BD06F00046C0
:1007B00046EA010140EA020081EA0301B4EB5C046D
:1007C000C2BFD4EB0C0541EA045170BD41F4801165
:1007D0004FF0000E013C00F3AB8014F1360FDEBF8A
:1007E000002001F0004170BDC4F10004203C35DA66
:1007F0000C341BDC04F11404C4F1200500FA05F3E9
:1008000020FA04F001FA05F240EA020001F0004289
:1008100021F0004110EBD37021FA04F642EB0601FF
:100820005EEA430E08BF20EAD37070BDC4F10C0429
:10083000C4F1200500FA04F320FA05F001FA04F2ED
:1008400040EA020001F0004110EBD37041F10001D9
:100850005EEA430E08BF20EAD37070BDC4F12005E4
:1008600000FA05F24EEA020E20FA04F301FA05F24C
:1008700043EA020321FA04F001F0004121FA04F2F4
:1008800020EA020000EBD3705EEA430E08BF20EAC4
:10089000D37070BD94F0000F0FD101F000464000FE
:1008A00041EB010111F4801F08BF013CF7D041EA80
:1008B000060195F0000F18BF704703F00046520084
:1008C00043EB030313F4801F08BF013DF7D043EA55
:1008D0000603704794EA0C0F0CEA135518BF95EA0B
:1008E0000C0F0CD050EA410618BF52EA4306D1D192
:1008F00081EA030101F000414FF0000070BD50EAB1
:10090000410606BF1046194652EA430619D094EA3A
:100910000C0F02D150EA013613D195EA0C0F05D124
:1009200052EA03361CBF104619460AD181EA030178
:1009300001F0004141F0FE4141F470014FF0000030
:1009400070BD41F0FE4141F4780170BD70B54FF0CB
:10095000FF0C4CF4E06C1CEA11541DBF1CEA13554B
:1009600094EA0C0F95EA0C0F00F0A7F8A4EB05042D
:1009700081EA030E52EA03354FEA013100F0888024
:100980004FEA03334FF0805545EA131343EA1263ED
:100990004FEA022245EA111545EA10654FEA0026A2
:1009A0000EF000419D4208BF964244F1FD0404F55B
:1009B000407402D25B084FEA3202B61A65EB0305B7
:1009C0005B084FEA32024FF480104FF4002CB6EB74
:1009D000020E75EB030E22BFB61A754640EA0C00F4
:1009E0005B084FEA3202B6EB020E75EB030E22BF34
:1009F000B61A754640EA5C005B084FEA3202B6EB75
:100A0000020E75EB030E22BFB61A754640EA9C0033
:100A10005B084FEA3202B6EB020E75EB030E22BF03
:100A2000B61A754640EADC0055EA060E18D04FEAC1
:100A3000051545EA16754FEA06164FEAC30343EA61
:100A400052734FEAC2025FEA1C1CC0D111F4801F2E
:100A50000BD141EA00014FF000004FF0004CB6E727
:100A600011F4801F04BF01430020B4F1FD0C88BFC6
:100A7000BCF5E06F3FF6AFAEB5EB030C04BFB6EBD1
:100A8000020C5FEA500C50F1000041EB045170BDC4
:100A90000EF0004E4EEA113114EB5C04C2BFD4EBF1
:100AA0000C0541EA045170BD41F480114FF0000E75
:100AB000013C90E645EA060E8DE60CEA135594EAF1
:100AC0000C0F08BF95EA0C0F3FF43BAF94EA0C0FF4
:100AD0000AD150EA01347FF434AF95EA0C0F7FF469
:100AE00025AF104619462CE795EA0C0F06D152EABD
:100AF00003353FF4FDAE1046194622E750EA4106A1
:100B000018BF52EA43067FF4C5AE50EA41047FF4B1
:100B10000DAF52EA43057FF4EBAE12E74FF0FF3C16
:100B200006E000BF4FF0010C02E000BF4FF0010CE7
:100B30004DF804CD4FEA410C7FEA6C5C4FEA430C60
:100B400018BF7FEA6C5C1BD001B050EA410C0CBFAF
:100B500052EA430C91EA030F02BF90EA020F002011
:100B6000704710F1000F91EA030F58BF994208BF78
:100B700090422CBFD8176FEAE37040F00100704735
:100B80004FEA410C7FEA6C5C02D150EA013C07D18C
:100B90004FEA430C7FEA6C5CD6D152EA033CD3D0D7
:100BA0005DF8040B704700BF8446104662468C46D1
:100BB0001946634600E000BF01B5FFF7B7FF002804
:100BC00048BF10F1000F01BD4DF808EDFFF7F4FF2D
:100BD0000CBF012000205DF808FB00BF4DF808EDB8
:100BE000FFF7EAFF34BF012000205DF808FB00BFDB
:100BF0004DF808EDFFF7E0FF94BF012000205DF8FD
:100C000008FB00BF4DF808EDFFF7CEFF94BF0120B1
:100C100000205DF808FB00BF4DF808EDFFF7C4FFAA
:100C200034BF012000205DF808FB00BF4FEA410CF3
:100C30007FEA6C5C02D150EA013C0AD14FEA430CD6
:100C40007FEA6C5C02D152EA033C02D14FF0000013
:100C500070474FF0010070474FEA410212F5001251
:100C600015D211D56FF47873B3EB625212D94FEAF3
:100C7000C12343F0004343EA505311F0004F23FADD
:100C800002F018BF404270474FF00000704750EA32
:100C9000013005D111F0004008BF6FF000407047EF
:100CA0004FF00000704700BF4FEA4102B2F1E0434D
:100CB00024BFB3F5001CDCF1FE5C0DD901F0004C43
:100CC0004FEAC0024CEA5070B2F1004F40EB830093
:100CD00008BF20F00100704711F0804F21D113F1BF
:100CE0003872BCBF01F00040704741F480114FEAF8
:100CF0005252C2F11802C2F1200C10FA0CF320FA81
:100D000002F018BF40F001004FEAC1234FEAD3239D
:100D100003FA0CFC40EA0C0023FA02F34FEA430307
:100D2000CCE77FEA625307D150EA01331EBF4FF090
:100D3000FE4040F44000704701F0004040F0FE40AB
:100D400040F40000704700BF53B94AB9002908BFFA
:100D500000281CBF4FF0FF314FF0FF3000F074B996
:100D6000ADF1080C6DE904CE00F006F8DDF804E002
:100D7000DDE9022304B070472DE9F047089D0446E1
:100D80008E46002B4DD18A42944669D9B2FA82F23E
:100D900052B101FA02F3C2F1200120FA01F10CFA7A
:100DA00002FC41EA030E94404FEA1C48210CBEFBB2
:100DB000F8F61FFA8CF708FB16E341EA034306FB3B
:100DC00007F199420AD91CEB030306F1FF3080F0CA
:100DD0001F81994240F21C81023E63445B1AA4B217
:100DE000B3FBF8F008FB103344EA034400FB07F7B9
:100DF000A7420AD91CEB040400F1FF3380F00A81FA
:100E0000A74240F207816444023840EA0640E41BEE
:100E100000261DB1D4400023C5E900433146BDE89A
:100E2000F0878B4209D9002D00F0EF800026C5E93C
:100E3000000130463146BDE8F087B3FA83F6002E54
:100E40004AD18B4202D3824200F2F980841A61EBCC
:100E5000030301209E46002DE0D0C5E9004EDDE7EA
:100E600002B9FFDEB2FA82F2002A40F09280A1EBD2
:100E70000C014FEA1C471FFA8CFE0126200CB1FB27
:100E8000F7F307FB131140EA01410EFB03F0884220
:100E900008D91CEB010103F1FF3802D2884200F2AD
:100EA000CB804346091AA4B2B1FBF7F007FB10113F
:100EB00044EA01440EFB00FEA64508D91CEB0404DD
:100EC00000F1FF3102D2A64500F2BB800846A4EB38
:100ED0000E0440EA03409CE7C6F12007B34022FA23
:100EE00007FC4CEA030C20FA07F401FA06F31C4352
:100EF000F9404FEA1C4900FA06F3B1FBF9F8200C5F
:100F00001FFA8CFE09FB181140EA014108FB0EF0A4
:100F1000884202FA06F20BD91CEB010108F1FF3AF4
:100F200080F08880884240F28580A8F10208614400
:100F3000091AA4B2B1FBF9F009FB101144EA01410E
:100F400000FB0EFE8E4508D91CEB010100F1FF34B9
:100F50006CD28E456AD90238614440EA0840A0FB51
:100F60000294A1EB0E01A142C846A64656D353D027
:100F70005DB1B3EB080261EB0E0101FA07F722FA4B
:100F800006F3F1401F43C5E9007100263146BDE874
:100F9000F087C2F12003D8400CFA02FC21FA03F3D7
:100FA000914001434FEA1C471FFA8CFEB3FBF7F058
:100FB00007FB10360B0C43EA064300FB0EF69E427D
:100FC00004FA02F408D91CEB030300F1FF382FD216
:100FD0009E422DD9023863449B1B89B2B3FBF7F6BE
:100FE00007FB163341EA034106FB0EF38B4208D997
:100FF0001CEB010106F1FF3816D28B4214D9023ED8
:101000006144C91A46EA004638E72E46284605E7F5
:101010000646E3E61846F8E64B45A9D2B9EB0208C6
:1010200064EB0C0E0138A3E74646EAE7204694E756
:101030004046D1E7D0467BE7023B614432E7304689
:1010400009E76444023842E7704700BF08B502214F
:10105000014803F079FC08BD00100240D0B582B011
:101060000E4B1868FFF7F0FA06460F460C4C0D4B76
:101070001868FFF7E9FACDE9000132463B460A4914
:10108000204605F04BFC2046FFF7C2F8642382B2ED
:101090002146064804F0D3FA02B0D0BD74140020F3
:1010A00000000020BC0F0020F8AF0008F41500205D
:1010B00008B501224FF47A71044800F0AFFE012216
:1010C0000349044800F0AAFE08BD00BF5D100008F7
:1010D00040420F004D100008F0B583B004460D46A5
:1010E00016461F460421284604F0A4FE2061012371
:1010F000019300903B463246A9B2204609F060FBBE
:1011000003B0F0BD00B585B08DED010A012303AA3F
:1011100001A909F065FB9DED030A05B05DF804FB2C
:1011200038B504460D46416080ED041AC0ED051A3D
:10113000C0ED020A80ED030A4FF07E538361002365
:10114000836243620362C361836343630363C36275
:101150000421284604F06EFE20600023E363A9B258
:1011600004F1440008F058FC04F12C0304F11802C7
:10117000012104F15C0009F02DFC38BD00000000E5
:1011800030B52DED048B89B0044610EE100AFFF740
:101190005BFA45A3D3E90023FFF7AEFAFFF784FD1E
:1011A00005EE100AD4ED057A77EEA77A67EE857A18
:1011B00025EE057A77EE877AD4ED026AF7EE004ADB
:1011C000C4EEA65A94ED046AC4EE866A76EE266AE8
:1011D00066EE856A27EEA54A24EE254AF1EE004A1E
:1011E00034EE244A76EEA66A66EEA56A36EEA45A76
:1011F00027EE256A26EE256A35EE065AC4EE053A34
:10120000C4ED063A77EEA77A67EEA57A67EEA57A7F
:10121000B2EE004A77EEC47A87EE858A84ED078ABB
:10122000C4ED083A37EE077A67EE257A67EEA57ABD
:1012300077EEC47AF1EE677AC7EE858AC4ED098A43
:1012400074EEE66A36EE266AB1EE466A86EE059AD6
:1012500084ED0A9A13EE900AFFF7F6F904460D465C
:1012600019EE100AFFF7F0F9CDE9060118EE900A21
:10127000FFF7EAF9CDE90401CDE9024518EE100ABD
:10128000FFF7E2F9CDE9000122462B460449054863
:1012900005F044FB09B0BDEC048B30BDAFF300801A
:1012A00004B0000834000020182D4454FB211940DC
:1012B0002DE9F04385B000AF044687ED010A012314
:1012C00007F10C02391D5C3009F0BEF8FA687A604B
:1012D0002368E16B481CE06303EB81031A60E26B57
:1012E00063689A4205D097ED030A1437BD46BDE8FE
:1012F000F083E8469B00073323F00703ADEB030DB3
:101300006946ADEB030D6E46002308E0226802EB50
:101310008302106801EB8302106001339BB26268A4
:101320009342F3DB0023324604F1440008F028FC2A
:1013300000250DE04FEA6309B5EEC00AF1EE10FAA0
:101340001DDB07F03FFD06EB890383ED000A023544
:1013500063689D4218DA06EB850393ED000A20EEE0
:10136000000A6B1C06EB8303D3ED007A67EEA77AC5
:1013700030EE270A2B46002DDCDA6B1CDAE706EB91
:10138000890300221A60E2E7002210E0B7EE007A3B
:1013900006EB8201D1ED007A27EE277A07EE903A2C
:1013A000F8EEE77AC7EE276AC1ED006A013263689A
:1013B0001946002B08DB4810B2EB610F06DA002A51
:1013C000E4DDB0EE007AE3E7591CF4E7D4ED036AFC
:1013D00007EE903AF8EEE77A66EEA76A94ED026AB5
:1013E00086EE867ABDEEC77A17EE103A9FED110AA7
:1013F000F0EE406A00E00133834213DA06EB830229
:1014000092ED007AF4EEC76AF1EE10FAF3D506EE2B
:10141000903AF8EEE66A66EE866A86EEA70AF0EE85
:10142000476AE8E72046FFF7ABFE0023E363C546C3
:1014300059E700BF00000000F6EE007A60EE277A60
:1014400010EE103A074AA2EB630307EE103A67EE7C
:10145000277A67EE277AB7EE080A30EE670A27EE9A
:10146000000A7047DF59375FF8B52DED068BF0EEB7
:10147000408AB0EE609AB0EE418AF0EE61AAB0EE1A
:1014800042AAF0EE629AF5EE401AF1EE10FA14BF9D
:1014900001230023B5EE402AF1EE10FA18BF43F005
:1014A00001032BB9F5EE402AF1EE10FA00F0A78007
:1014B0006AEEAA7A2AEE0A0A77EE807A29EEA90A5B
:1014C00037EE800AFFF7B8FF6AEE80AA2AEE00AA7C
:1014D00069EE809A974890ED002A974BD3ED007AF9
:1014E00022EE272A954AD2ED007A954991ED007AAD
:1014F00067EE877A32EE672AD2ED001AD0ED007AD5
:1015000061EEA71AD1ED007A93ED007A67EE877A43
:1015100071EEA71AD2ED007A92ED007A67EE877A23
:10152000B6EE007A77EEC77A93ED007AD3ED006AD3
:1015300027EE267A77EE877A6AEE276A29EEA17A75
:1015400036EEC77A69EE829A6AEEA77A79EEE79A62
:101550006AEEA1AA2AEE02AA3AEECAAA794BD3ED04
:10156000007AF5EEC07AF1EE10FA40F3DB80D3EDAD
:10157000006A66EE876A9FED746A66EE866A734952
:10158000D1ED007A77EEA66AC1ED006AD3ED006A6C
:1015900066EEA96A66EE866A6D4AD2ED007A77EE4B
:1015A000A66AC2ED006AD3ED007A67EE8A7A67EE2A
:1015B000867A684BD3ED006A76EEA77AC3ED007A9F
:1015C000D1ED007A78EEA78AD2ED007A39EE279A2B
:1015D000D3ED007A38EE278A5F4BD3ED007A27EE01
:1015E000877A78EE878AD3ED007A67EEA99A39EE8A
:1015F000299AD3ED00AA2AEE8AAA38EE0A8ADFEDEC
:10160000577A68EEA78A29EE279A28EE271A4B4FB9
:10161000D7ED006A474E96ED007A494D95ED000AE8
:1016200067EE687A29EE006A77EEC67A424C94ED4E
:10163000006A26EE016A77EEC67A97ED006A76EECA
:10164000277AC7ED007A68EEA67A21EE006A77EE77
:10165000867A94ED006A26EE096A77EEC67A96EDF0
:10166000006A76EE277AC6ED007A69EE267A21EED8
:10167000076A77EEC67A94ED006A26EE286A77EE5E
:10168000867A95ED006A76EE277AC5ED007A21EE2E
:10169000261A29EE079A31EE091A68EE808A31EE91
:1016A000681AD4ED007A31EE271A84ED001AD7EDCE
:1016B000007A97ED000A67EE807A96ED000A96EDC3
:1016C000007A20EE070A77EE807A95ED000A95ED14
:1016D000007A20EE070A77EE807A94ED000A94ED06
:1016E000007A20EE070A37EE800AFFF7A5FED7ED55
:1016F000007A67EE807AC7ED007AD6ED007A67EE61
:10170000807AC6ED007AD5ED007A67EE807AC5ED75
:10171000007AD4ED007A27EE800A84ED000ABDEC51
:10172000068BF8BD0023094A1360094A1360094A71
:10173000136051E7280300203003002098000020A8
:101740002C030020340300206F12033B1C030020F5
:1017500020030020240300209C0000206F12833A05
:10176000F0B52DED108B87B0F0EE409AB0EE60AA88
:10177000B0EE418AF0EE618AF0EE42BAB0EE62CA93
:10178000B0EE439AF0EE63AAB0EE44BAB5EE403A3A
:10179000F1EE10FA0CBF01230023F5EE403AF1EE12
:1017A00010FA03F0010318BF00232BB1B5EE404A35
:1017B000F1EE10FA00F00E82B4EE6A9AF1EE10FA31
:1017C00080F10882B4EE4BBAF1EE10FA80F1028299
:1017D000F5EE408AF1EE10FA14BF01230023F5EE76
:1017E00040BAF1EE10FA18BF43F001032BB9B5EE81
:1017F00040CAF1EE10FA00F0598168EEA87A2BEE9B
:10180000AB0A77EE807A2CEE0C0A37EE800AFFF7EF
:1018100013FE68EE806ACDED026A6BEE805ACDED64
:10182000035A2CEE005A8DED045A69EE097A2AEE1D
:10183000AA0A77EE807A2BEE0B0A37EE800AFFF7C2
:10184000FBFD29EE009A6AEE80AA6BEE008AED4B52
:1018500093ED007AD3ED007A67EE277ACDED057A25
:10186000D3ED00EAE849D1ED007A6EEEA7EA93EDF8
:1018700000FAE64AD2ED007A2FEE27FA93ED007ACD
:10188000E34BD3ED007A67EE277A91ED00CA91ED34
:10189000007A2CEE07CAD1ED006A92ED007A66EE6E
:1018A000876AD1ED00BA93ED007A6BEE87BA92EDBC
:1018B00000EA92ED007A2EEE07EA92ED00BA93ED7F
:1018C000007A2BEE07BAD3ED00DA93ED007A6DEED5
:1018D00087DAF6EE00FA7FEECECA7CEEEDCA2CEE89
:1018E000897A36EEE7DA2DEE2A6A37EE067A3FEE8F
:1018F0002B6A8DED016A26EE286A37EE067A37EEFE
:10190000077A77EEA67A67EE897A3FEECCCA7CEE4C
:101910006D6A66EEAA6A77EEA67A7BEE6E6A66EE6E
:10192000A86A77EEA67A77EEA77A27EE077A67EEAF
:10193000A77A37EE277A17EE100AFEF785FE41ECFC
:10194000100B07F005FA51EC100BFFF7ADF907EE9D
:10195000100A7BEECFBA6BEE897A3EEE8BBA6BEE55
:101960002A6A77EEA67A3CEE4ECA2CEE28EA77EE8B
:101970008E7A77EEA77ADDED054A74EEEFFA7FEE08
:10198000ADDA6CEE87CA6BEEA76A7CEEA6CA2DEEC6
:1019900007DA6BEE276A3DEE26DA9DED016A26EE48
:1019A000077A6CEE277A77EE277ADDED035A65EE3B
:1019B000AD6A9DED045A2BEE057A76EEC76A2AEEE3
:1019C000A77A28EE8D6A37EE467A36EE877A6BEE86
:1019D000852ADDED026A66EEADDA72EEEDDA68EECA
:1019E000AC8A69EE277A78EEE78A7DEEA88A2BEE3C
:1019F00026BA6BEEA5BA3BEE6BBA29EE0D9A6AEEEB
:101A0000ACAA39EE6A9A3BEE09BA824BD3ED007A62
:101A1000F5EEC07AF1EE10FA40F3EB80D3ED006AF8
:101A200066EE876A9FED7C6A66EE866A7B49D1ED39
:101A3000007A77EEA66AC1ED006AD3ED006A66EE21
:101A4000A86A66EE866A764AD2ED007A77EEA66AD2
:101A5000C2ED006AD3ED007A67EE8B7A67EE867A84
:101A6000704BD3ED006A76EEA77AC3ED007AD1ED24
:101A7000007A79EEA79AD2ED007A3AEE27AAD3ED52
:101A8000007A38EE278A684BD3ED007A67EE877AC2
:101A900079EEA79AD3ED007A67EEA88A3AEE28AAE3
:101AA00093ED009A29EE0BBA38EE0B8A9FED5F1A80
:101AB00069EE819A2AEE01AA28EE018A514F97ED2C
:101AC000001A514ED6ED000A504D95ED000A60EE19
:101AD000E97A2AEE007A77EEC77A4D4C94ED007AD7
:101AE00027EE087A77EEC77A97ED007A77EE277AB5
:101AF000C7ED007A69EE817A28EE007A77EE877A70
:101B000094ED007A27EE0A7A77EEC77A96ED007A9E
:101B100077EE277AC6ED007A6AEE017A28EE207A0F
:101B200077EEC77A94ED007A27EE297A77EE877AF6
:101B300095ED007A77EE277AC5ED007A28EE018AD6
:101B40002AEE20AA38EE0A8A69EE809A38EE698A6F
:101B5000D4ED009A38EE298A84ED008AD7ED007A18
:101B600097ED000A67EE807A96ED000A96ED007A0E
:101B700020EE070A77EE807A95ED000A95ED007A5F
:101B800020EE070A77EE807A94ED000A94ED007A51
:101B900020EE070A37EE800AFFF74EFCD7ED007AF9
:101BA00067EE807AC7ED007AD6ED007A67EE807A2C
:101BB000C6ED007AD5ED007A67EE807AC5ED007A41
:101BC000D4ED007A27EE800A84ED000A07B0BDEC60
:101BD000108BF0BDF0EE4C2AB0EE6B2AF0EE681AD6
:101BE000B0EE481AF0EE4A0AB0EE690AFFF73CFC84
:101BF000ECE70023094A1360094A1360094A13609D
:101C000041E700BF98000020280300202C0300209B
:101C100030030020340300206F12033B1C0300201C
:101C200020030020240300209C0000206F12833A30
:101C30002DE9F0412DED048B0446DFF87081D8EDDD
:101C4000007A564D95ED007A67EE877A544E96ED00
:101C5000007A544FD7ED006A27EE267A77EE877A1E
:101C600037EEA78AD5ED007A95ED007A67EE877A90
:101C700096ED007AD6ED006A27EE267A77EE877A1F
:101C800077EEA77AF7EE008A78EEE77A17EE900AF9
:101C9000FEF7DAFC41EC190B18EE100AFEF7D4FC43
:101CA000B0EE491AF0EE691A41EC100B07F04EF84D
:101CB00051EC100BFEF7F8FF2060D8ED007A96ED9E
:101CC000007A67EE877A97ED007AD5ED006A27EE05
:101CD000267A77EEC77A77EEA77AB0EEE77AB4EE97
:101CE000E87AF1EE10FA4BDBF5EEC07AF1EE10FA7D
:101CF00044D42D4B63602D4BD3ED007A294B93EDEB
:101D0000007A67EE877A254A92ED007A244AD2ED6E
:101D1000006A27EE267A77EE877A37EEA78AD2ED29
:101D2000007A92ED007A67EE877A93ED007AD3ED30
:101D3000006A27EE267A77EE877A77EEA77AB7EEF3
:101D4000007A77EE677A17EE900AFEF77DFC41EC99
:101D5000190B18EE100AFEF777FCB0EE491AF0EEF8
:101D6000691A41EC100B06F0F1FF51EC100BFEF775
:101D70009BFFA060BDEC048BBDE8F0810C4BB9E784
:101D800017EE900AFEF760FC41EC100B06F0A2FF84
:101D900051EC100BFEF788FF6060ACE728030020D1
:101DA0002C03002030030020DB0FC93F98000020E7
:101DB000DB0FC9BF10EE103A0360704710B582B058
:101DC000044601A8FFF7F6FF002308E002AA1A4420
:101DD00012F8041C044A02EB8402D1540133032B91
:101DE000F4DD02B010BD00BF3803002008B5034B7E
:101DF0001B685B6A43600369984708BD10170020A1
:101E0000054B1B685B6A42689B1A0068834294BF5B
:101E100000200120704700BF1017002030B5094D89
:101E20002B68094C03EB830E04EB8E0C44F82E1048
:101E3000CCF808200022CCF80C205A1C2A60CCF8E0
:101E4000100030BDB80F0020E8070020F8B532E0E0
:101E50000134224B1B68A34210DD04EB8400204BAD
:101E600003EB80008368C7681F44FFF7C9FF0028A1
:101E7000EED0BE42ECDA25463E46E9E7002408E013
:101E800004EB8403164A02EB8303DA680132DA605A
:101E90000134124B1B68A3420BDD04EB8403104892
:101EA00000EB8300FFF7ACFF0028F1D0A542E7D19B
:101EB000EEE7002D04DA00244FF0FF352646C8E790
:101EC000074CAE0005EB850004EB8000FFF78EFFAA
:101ED000354404EB85040023E360ECE7B80F0020F1
:101EE000E8070020F8B505460E4617460160426037
:101EF0000421304603F09EFFA860042107FB06F092
:101F000003F098FFE860002308E007FB03F4EA68A9
:101F100002EB8404AA6842F823400133B342F4DBA5
:101F2000F8BD836853F8213003EB820383ED000A88
:101F30007047836853F8213003EB820393ED000A66
:101F4000704710B50446806803F0A8FFE06803F00E
:101F5000A5FF10BD2DE9F0412DED028B06460F4681
:101F6000904600253AE0B26852F8241001EB830C49
:101F7000DCED007A52F8252002EB830292ED007A24
:101F800027EE267A77EEC77ACCED007A0133022B62
:101F9000E9DDBA6852F82430D3ED007A52F82520F2
:101FA00092ED007A67EE266A77EEE66AC3ED006A84
:101FB0000134022C11DCA542FAD02A4621463046D3
:101FC000FFF7B7FFB0EE408A2A4629463046FFF7B2
:101FD000B0FFC8EE006A0023D9E70135022D01DC0D
:101FE0000024E6E7002314E0BA6852F82320D2ED7B
:101FF000006AB26852F8232002EB830292ED007A65
:10200000D8F8082052F82320C6EE877AC2ED007A6D
:102010000133022BE8DDBDEC028BBDE8F08100004E
:1020200010B50E4C204600F0AFFB94ED000A0C48B2
:10203000FFF73EF90B4B83ED000A7420FFF7BEFE5D
:10204000094B93ED000A7620FFF7B8FE074B93ED9E
:10205000000A7820FFF7B2FE10BD00BF7414002004
:10206000C80F0020BC0F0020C00F0020C40F0020AC
:1020700038B51F4C204600F0DDFB94ED070A1D48E3
:10208000FFF740F81C4D85ED000A1C48FFF73AF8B1
:1020900085ED000A1A48FFF70BF91A4C84ED000A87
:1020A0001948FFF705F9F0EE407A84ED000AD5ED06
:1020B000006AB1EE047A86EE870A85ED000AC7EE63
:1020C000876AC4ED006A114DD5ED006AC6EE877AC5
:1020D000C5ED007A7C20FFF771FE94ED000A7E20AA
:1020E000FFF76CFE95ED000A8020FFF767FE38BD14
:1020F00074140020AC13002060140020C0130020D2
:1021000000110020641400206811002068140020D1
:1021100010B5074C204600F0D9FB626B054B1A60E6
:10212000A26B054B1A60E26B044B1A6010BD00BF36
:10213000741400206C14002070140020001500207E
:102140002DE970432DED088B84B06E4B93ED000AA2
:10215000DFED6D7A20EE270A6C4BD3ED000A60EEBE
:10216000A70A6B4B93ED001A21EE271A9FED693AEF
:10217000DFED697AB0EE434AF0EE433A674BD3EDB8
:10218000002A674B93ED002A664BD3ED001A81EECF
:10219000271AC0EEA70A80EE270AFFF7E1FA01A886
:1021A000FFF746FD604E96ED00BA604B1C68204676
:1021B000FEF74AFA41EC190BDDED017A77EECB7AA6
:1021C00017EE900AFEF740FA41EC110BB0EE490A07
:1021D000F0EE690A06F02CFDB0EE40AAF0EE60AA1F
:1021E00084F00040FEF730FA41EC180B41EC110B83
:1021F000B0EE4A0AF0EE6A0A06F0F2FC55EC104B1B
:102200001BEE100AFEF720FA22462B46FEF7BEF818
:10221000FEF74AFD0AEE100A3060454DD5ED00AAE2
:10222000DDED027A77EEEA7A17EE900AFEF70CFA05
:1022300041EC110BB0EE490AF0EE690A06F0F8FC29
:10224000B0EE481AF0EE681A06F0CAFC59EC108B92
:102250001AEE900AFEF7F8F942464B46FEF796F85A
:10226000FEF722FD2860334CD4ED00AADDED037AA1
:1022700077EEEA7A17EE900AFEF7E6F941EC110BD9
:10228000B0EE490AF0EE690A06F0D2FCB0EE481A48
:10229000F0EE681A06F0A4FC59EC108B1AEE900AC6
:1022A000FEF7D2F942464B46FEF770F8FEF7FCFC0B
:1022B0002060B0EE4A0A2048FEF724FF86ED000AAF
:1022C00095ED000A1D48FEF71DFF85ED000A94ED0F
:1022D000000A1B48FEF716FF84ED000A96ED000A7F
:1022E0002E20FFF76BFD95ED000A3020FFF766FD0D
:1022F00094ED000A3220FFF761FD04B0BDEC088BBD
:10230000BDE8708360140020DB0F49406414002096
:1023100068140020000000000000B443C40F002037
:10232000C00F0020BC0F0020081500201401002061
:10233000041500200C15002038140020241400205F
:102340004C1400202DE9F0412DED028B734E3046E8
:1023500000F06EF9724D734C2B46224604217248F0
:10236000FEF7BAFE2B46224604217048FEF7B4FE63
:102370002B46224604216E48FEF7AEFEDFF824828B
:102380006C4F43463A4605216B48FEF7A5FE43468F
:102390003A4605216948FEF79FFE43463A46052125
:1023A0006748FEF799FE9FED678ADFED678AF2EED8
:1023B000041AB7EE001AF0EE480AB0EE680A40219F
:1023C0006248FEF7ADFEF2EE041AB7EE001AF0EE28
:1023D000480AB0EE680A40215D48FEF7A1FEF2EE21
:1023E000041AB7EE001AF0EE480AB0EE680A40216F
:1023F0005848FEF795FEF1EE041AB7EE001AF0EE1B
:10240000480AB0EE680A40215348FEF789FEF1EE13
:10241000041AB7EE001AF0EE480AB0EE680A40213E
:102420004E48FEF77DFEF1EE041AB7EE001AF0EE0C
:10243000480AB0EE680A40214948FEF771FEDFF80D
:102440006881484F43463A4604214748FEF744FE18
:1024500043463A4604214548FEF73EFE43463A4687
:1024600004214348FEF738FEDFED428AF7EE001AFA
:10247000B0EE611AF0EE480AB0EE680A40213E481C
:10248000FEF74EFEF7EE001AB0EE611AF0EE480AC3
:10249000B0EE680A40213948FEF742FEF7EE001A16
:1024A000B0EE611AF0EE480AB0EE680A40213448F6
:1024B000FEF736FE2B46224604213248FEF70CFE7C
:1024C0002B46224604213048FEF706FE2B462246C4
:1024D00004212E48FEF700FE304600F03BFB30465C
:1024E00000F07AFB02224FF47A712948FFF796FC3C
:1024F00003224FF47A712748FFF790FC0222264905
:102500002648FFF78BFC02224FF4FA612448FFF7BC
:1025100085FCBDEC028BBDE8F08100BF7414002087
:10252000D4000020A0000020AC130020D413002011
:10253000FC130020B0000020C0130020E81300208E
:102540001014002000007A440000484200110020CE
:10255000D0110020A01200206811002038120020A5
:1025600008130020C40000207013002084130020F2
:102570009813002000002042C80F002030100020D7
:102580009810002038140020241400204C1400203F
:102590007120000821200008A086010011210008F8
:1025A00041210008E8000020000100202DE9F04151
:1025B00084B0044616461D468DF80F100C4F4FF49C
:1025C0007A78CDF8008001230DF10F0200FA03F1B3
:1025D000384602F003FC6100CDF8008033462A46FD
:1025E00041F00101384602F0B7FC04B0BDE8F081CB
:1025F0005C15002070B584B08DF80F108DF80E209A
:1026000044000A4D42F21076009601230DF10F02AC
:102610002146284602F0E2FB009601230DF10E024E
:102620002146284602F0DAFB04B070BD5C1500209C
:1026300010B5044606221A216820FFF7DBFF1B2293
:1026400011466820FFF7D6FF18221C216820FFF7EB
:10265000D1FF04221D216820FFF7CCFF0222372181
:102660006820FFF7C7FF4FF47A7002F003FA1622D2
:102670000A210C20FFF7BEFF4FF07E5363652365F0
:10268000E364A36110BD000010B582B004466B4640
:1026900006223B216820FFF789FF9DF800309DF856
:1026A000012042EA0322524212B2144B1A809DF8D2
:1026B00002109DF8033043EA01235B421BB210492C
:1026C0000B809DF804009DF8051041EA002109B235
:1026D0000C48018007EE902AF8EEE77AC4ED167AEE
:1026E00007EE903AF8EEE77AC4ED177A07EE901A03
:1026F000F8EEE77AC4ED187A02B010BD101500208C
:10270000121500201415002010B582B004466B4647
:10271000062243216820FFF749FF9DF800309DF80D
:10272000012042EA0322524212B2144B1A809DF851
:1027300002109DF8033043EA01235B421BB21049AB
:102740000B809DF804009DF8051041EA002109B2B4
:102750000C48018007EE902AF8EEE77AC4ED197A6A
:1027600007EE903AF8EEE77AC4ED1A7A07EE901A7F
:10277000F8EEE77AC4ED1B7A02B010BD1615002002
:10278000181500201A15002010B582B004466B46BB
:1027900006223B216820FFF709FF9DF800209DF8E5
:1027A000013043EA02235B421BB21F4A13809DF8AB
:1027B00002109DF8032042EA01221C485242028086
:1027C0009DF804109DF8052042EA012218490A806C
:1027D00094ED037A07EE903AF8EEE77A77EE877A8F
:1027E00094ED067AC7EE876AC4ED006AD4ED046AF8
:1027F000B0F9003007EE903AF8EEE77A77EEA67A75
:10280000C7EE876AC4ED016AD4ED056AB1F90030FC
:1028100007EE903AF8EEE77A77EEA67AC7EE876A87
:10282000C4ED026A02B010BD101500201215002080
:102830001415002010B582B004466B4606224321D1
:102840006820FFF7B3FE9DF800309DF8012042EAB2
:102850000322524212B21A4B1A809DF802109DF8C0
:10286000033043EA01235B421BB216490B809DF8FB
:1028700004009DF8051041EA002109B212480180C8
:1028800094ED0A7A07EE902AF8EEE77A77EE877AE7
:10289000C4ED077A94ED0B7A07EE903AF8EEE77AFA
:1028A00077EE877AC4ED087A94ED0C7A07EE901AE9
:1028B000F8EEE77A77EE877AC4ED097A02B010BDB8
:1028C00016150020181500201A15002010B582B02A
:1028D00004466B46072203210C20FFF767FE9DF894
:1028E00003309DF8021041EA0321494209B2214B0D
:1028F00019809DF801309DF8002042EA03225242DF
:1029000012B21D4B1A809DF805009DF8043043EA71
:1029100000235B421BB21948038094ED107A07EE46
:10292000901AF8EEE77A77EEC77AD4ED136A87EE5D
:10293000A67A84ED0D7A94ED117A07EE902AF8EEDE
:10294000E77A77EEC77AD4ED146A87EEA67A84ED3B
:102950000E7A94ED127A07EE903AF8EEE77A77EE77
:10296000C77AD4ED156A87EEA67A84ED0F7A02B0A5
:1029700010BD00BF1C1500201E15002020150020D2
:10298000F0B52DED088B87B004460E46B0EE40BA88
:102990001746002303930493059300930193029336
:1029A00000250CE0616E0391A26E0492E36E059324
:1029B000009101920293022002F05CF80135B542C9
:1029C00074DA2046FFF7A0FE002DEBD0606EFDF715
:1029D0003BFE41EC1A0B0398FDF736FEB0EE4A1AA7
:1029E000F0EE6A1A41EC100B06F0FAF851EC100BFD
:1029F000FEF75AF90390A06EFDF726FE41EC190B85
:102A00000498FDF721FEB0EE491AF0EE691A41EC88
:102A1000100B06F0E5F851EC100BFEF745F90490A9
:102A2000E06EFDF711FE41EC180B0598FDF70CFE6A
:102A3000B0EE481AF0EE681A41EC100B06F0D0F830
:102A400051EC100BFEF730F905900098FDF7FCFDF6
:102A5000B0EE4A1AF0EE6A1A41EC100B06F0E8F8F4
:102A600051EC100BFEF720F900900198FDF7ECFDFA
:102A7000B0EE491AF0EE691A41EC100B06F0D8F8E6
:102A800051EC100BFEF710F901900298FDF7DCFDF8
:102A9000B0EE481AF0EE681A41EC100B06F0C8F8D8
:102AA00051EC100BFEF700F9029084E79DED037ADC
:102AB000DDED006A37EE666ADFED237A7BEE277A7A
:102AC000B4EEE76AF1EE10FA36D59DED046ADDED5D
:102AD000015A36EE655ADFED1D7A7BEE277AB4EEA9
:102AE000E75AF1EE10FA2CD59DED055ADDED024ABC
:102AF00075EE647A9FED164A3BEE04BAF4EECB7A9B
:102B0000F1EE10FA01D4002017E09FB177EE267A9B
:102B1000B6EE007A67EEC77AC4ED0A7A76EE257AC9
:102B200067EEC77AC4ED0B7A75EE247A67EEC77A42
:102B3000C4ED0C7A012000E0002007B0BDEC088B4A
:102B4000F0BD0020F9E700BF00005C430000C8436F
:102B50000000BE4310B504469FED0B0A0420FFF7AA
:102B60002DF901229FED080AC8212046FFF708FF32
:102B70000028F6D09FED050A0420FFF71FF9022177
:102B8000034801F0E1FE10BD000000000000C84253
:102B90000010024008B570EE611A61EEA11A30EE25
:102BA000C22A22EE022A71EE821A71EE622A62EEC7
:102BB000A22A71EEA27A17EE900AFDF745FD41ECCC
:102BC000100B06F0C5F851EC100BFEF76DF800EE97
:102BD000100A08BD000000002DE9F04F2DED048B18
:102BE000A3B006469FEDD40A0620FFF7E7F80021C0
:102BF0000CE001EB4103134422A800EB8303002007
:102C000043F8780C0132022AF3DD0131052901DC99
:102C10000022F8E7032211461EA8FFF763F90122FC
:102C200003211AA8FFF75EF90122032116A8FFF776
:102C300059F9002301939B46984627E0019D002DFA
:102C400060D15846FDF7EEFC9FEDB51B41EC100B33
:102C500005F0EEFF51EC100B0022B84BFDF74CFDD8
:102C60000022B74BFDF772FEFEF71EF800EE100AC9
:102C70000620FFF7A3F8BBF1050FD4BF4FF0000902
:102C800005F00109B9F1000F40F0AA80019B002B6B
:102C900040F05E810022B3EE0E0A64213046FFF759
:102CA0006FFE05460028F5D03046FFF7EDFC012405
:102CB000052CC4DCA8EB04020632A24B83FB0213F2
:102CC000A3EBE27303EB4303A2EB430303EB4302E7
:102CD00022A901EB820252ED1C2A12ED1D2A52EDAF
:102CE0001E1A96ED181AD6ED170A96ED160AFFF77A
:102CF00051FFDFED957AB4EEE70AF1EE10FA9DD4BC
:102D00000134D5E70221914801F01EFEB26D08EBB7
:102D1000480322A901EB830343F8782CF26D43F8B2
:102D2000742C326E43F8702C08F101030BF1010B87
:102D3000844A82FB0328A8EBE37808EB4808A3EB5E
:102D400048087EE708EB0A02511E7E4B83FB010414
:102D5000A4EBE17404EB4404A1EB440404EB44044D
:102D60002C4422A901EB840414ED1E0A83FB0213F8
:102D7000A3EBE27303EB4303A2EB430303EB430335
:102D80005F1922AB03EB870757ED1E7A30EE670A17
:102D900030EE000A2A460AF1FF311EA8FFF7C1F8FB
:102DA00057ED1E7A67EEA77A14ED1E7A27EE077AA2
:102DB00077EEC77A38EE278A0135022DC2DDB0EEF4
:102DC000480A00220AF1FF311AA8FFF7AAF80AF10F
:102DD000010ABAF1030F06DC00259FED578AECE7E4
:102DE0004FF0010AF5E716AA1AA91EA8FFF7B2F8D4
:102DF00000259FED519A022D1DDC08EB48042C4460
:102E000022AB03EB840414ED1E8A0022294616A887
:102E1000FFF78FF838EE008A54ED1E8A002229460B
:102E200016A8FFF786F878EE808A28EE288A39EE11
:102E3000089A0135DFE719EE100AFDF705FC3AA301
:102E4000D3E90023FDF782FD37A3D3E90023FDF783
:102E50007DFD41EC100B05F07BFF51EC100BFDF7F5
:102E600023FF09EE900A042549E008EB0502354BE3
:102E700083FB0213A3EBE27303EB4303A2EB4303D5
:102E800003EB4303DC1922AB03EB840414ED1E8A2D
:102E90000022394616A8FFF74CF838EE008A54EDA8
:102EA0001E8A0022394616A8FFF743F878EE808A7A
:102EB00028EE288A39EE089A0137022FD5DDC9EEAF
:102EC000297AC7EEA97A17EE900AFDF7BDFB41EC0F
:102ED000100B05F03DFF51EC100B13A3D3E90023B9
:102EE000FDF752FA029021F00043039310A3D3E9B7
:102EF0000023DDE90201FDF78FFE30B90135052D14
:102F000005DC00279FED0C9AD7E7DDF80490B9F1B6
:102F1000000F3FF4BBAECDF80490B7E6AFF30080EE
:102F200000000000000018401F85EB51B89E2340B0
:102F3000333333333333D33F0000000000005940B4
:102F400000001C40ABAAAA2A00007A4400100240EC
:102F50000022114616A8FEF7ECFF86ED030A0022B8
:102F6000012116A8FEF7E5FF86ED040A00220221E2
:102F700016A8FEF7DEFF86ED050AC6ED069A1EA826
:102F8000FEF7DFFF1AA8FEF7DCFF16A8FEF7D9FF51
:102F900023B0BDEC048BBDE8F08F00BF38B51048FE
:102FA00000F0F6FA0F4D64230E220F49284602F076
:102FB00046FBFEF77DF8FFF7C5F90C4C01220C49E2
:102FC000204603F0ABFC2046FDF722F9642382B2D1
:102FD0002146284602F033FBFEF738FF38BD00BF1C
:102FE00010170020F415002014B00008241500204C
:102FF00024B0000872B6FEE710B5B4B0302200214C
:1030000028A802F053FF00242394249425942694A6
:1030100027948422214602A802F048FF264B1A6C0E
:1030200042F080521A641B6C03F080530093009BA3
:10303000224B1A6842F440421A601B6803F4404372
:103040000193019B0223289301222B9210222C92A0
:103050002E932F9408223092C822319232933393C8
:1030600028A800F05BFDF8B901F078FCF0B90F2357
:10307000239302232493002325934FF4A0532693F4
:103080004FF480532793062123A800F0B3FF78B9AB
:103090000B4B0293002314931B931E9302A801F081
:1030A00085F838B934B010BDFFF7A4FFFFF7A2FFD1
:1030B000FFF7A0FFFFF79EFF0038024000700040BE
:1030C0008040020008B52A4BD3F8882042F47002F1
:1030D000C3F88820BFF34F8FBFF36F8F0021C3F871
:1030E0005012BFF34F8FBFF36F8F5A6942F4003213
:1030F0005A61BFF34F8FBFF36F8FC3F88410BFF3D4
:103100004F8FD3F88040C4F34E3000E01846C4F32C
:10311000C90243F6E07303EA401343EA8273144999
:10312000C1F860321346013A002BF2D1431E002849
:10313000ECD1BFF34F8F4B6943F480334B61BFF346
:103140004F8FBFF36F8F01F06DFCFFF755FF02F05B
:1031500035FB02F077FB02F0A1FB02F067FC02F006
:103160007DFD02F0DBFD02F0B3FCFFF717FFFEE789
:1031700000ED00E0FEE7FEE7FEE7FEE7FEE7704752
:103180007047704708B501F063FC08BD2E4B9B6982
:1031900013F0020F1AD02D4A1168B1F1FF3F10D081
:1031A0002B480268013202602A4800EB8101895CE9
:1031B000254A916213F0080F02D0234B0822DA61EE
:1031C0007047234A1168204A9162F3E713F0040F15
:1031D00016D01D4A526A5FFA82FC1C490968B1F197
:1031E000FF3F09D01A48026801320260194800EB1B
:1031F000810101F802C0DDE71449C1F800C0D9E738
:1032000013F0200F12D0124A1268B2F1FF3F05D01E
:103210004FF0FF320E490A600C490A600A4A916970
:1032200041F0010191612021D161C3E713F0100F3A
:1032300003D0054A1021D161BCE713F0080FB9D0C3
:10324000014A0821D161B5E7006000401801002063
:103250001C0100203803002082B00A4B1A6C42F097
:1032600080521A641A6C02F080520092009A5A6CD2
:1032700042F480425A645B6C03F480430193019BE7
:1032800002B07047003802400649CB6823F4E0637F
:103290001B041B0C000200F4E0600343024A1A43C3
:1032A000CA60704700ED00E00000FA0500B5174B5A
:1032B000DB68C3F30223C3F1070CBCF1040F28BF82
:1032C0004FF0040C03F1040EBEF1060F14D9033BBA
:1032D0004FF0FF3E0EFA0CFC21EA0C0199400EFA69
:1032E00003F322EA03031943002807DB0901C9B2EB
:1032F000074B19545DF804FB0023E9E700F00F00C9
:103300000901C9B2034B1954F4E700BF00ED00E016
:1033100000E400E014ED00E0002807DB00F01F02ED
:10332000400901239340024A42F82030704700BF11
:1033300000E100E00138B0F1807F0BD24FF0E023D4
:103340005861054AF02182F8231000209861072275
:103350001A6170470120704700ED00E070B4036A05
:1033600023F001030362036A42688569124C2C4012
:103370000D68254323F002048B6823430F4C104E45
:10338000B04218BFA0420CBF0124002405D123F095
:103390000803CE68334323F004032CB122F44072B7
:1033A0004C6914438A692243426085614A684263DA
:1033B000036270BC704700BF8CFFFEFF000001403D
:1033C0000004014070B4036A23F480730362036A4B
:1033D0004268C569144C2C400E68264323F40073E0
:1033E0008C6843EA0423114C114DA84218BFA04237
:1033F0000CBF0124002406D123F40063CD6843EA06
:10340000052323F480633CB122F440524C6942EA24
:1034100004128C6942EA04124260C6614A68C263BF
:10342000036270BC704700BF8CFFFEFF00000140CC
:103430000004014070B4036A23F480530362036AFA
:103440004468C5690D4A2A400D6842EA052223F402
:1034500000538D6843EA0533094E0A4DA84218BF50
:10346000B04204D124F480444D6944EA8514446098
:10347000C2614A680264036270BC7047FF8CFFFE41
:10348000000001400004014070B4036A23F480335B
:103490000362036A4468426D0D4D15400A682A4371
:1034A00023F400338D6843EA05430A4E0A4DA842CF
:1034B00018BFB04204D124F480344D6944EA052495
:1034C000446042654A688265036270BC704700BF11
:1034D0008FFFFEFF000001400004014070B4036A4A
:1034E00023F480130362036A4468456D0D4A2A4041
:1034F0000D6842EA052223F400138D6843EA055360
:10350000094E0A4DA84218BFB04204D124F48024C9
:103510004D6944EA8524446042654A68C265036295
:1035200070BC7047FF8FFFFE0000014000040140A7
:1035300010B4036A046A24F001040462846924F06C
:10354000F00C4CEA021223F00A030B43826103627F
:103550005DF8044B704710B4046A24F01004046250
:103560008469036A24F4704C4CEA023223F0A0030D
:1035700043EA0113826103625DF8044B704783687C
:1035800023F070030B4343F0070383607047000090
:1035900090F83D30DBB2012B35D1022380F83D306D
:1035A00003681B4AB3F1804F18BF93421DD0A2F5A8
:1035B0007C42934219D002F58062934215D002F505
:1035C0008062934211D002F5784293420DD002F509
:1035D0007052934209D0A2F59432934205D01A68F2
:1035E00042F001021A60002070479968094A0A40B7
:1035F000062A18BFB2F5803F07D01A6842F00102D0
:103600001A6000207047012070470020704700BFFB
:1036100000000140070001007047000030B503685A
:103620003B4A904214BF4FF0000E4FF0010EB0F134
:10363000804F14BF72464EF00102AAB9354CA04229
:1036400014BF00240124344DA8420DD064B904F104
:10365000804404F58234A04214BF0024012405F5FF
:103660000065A84200D01CB123F070034C682343CE
:10367000002A33D1274A904214BF00220122264C4F
:10368000A0422BD052BB02F1804202F5823290421E
:1036900014BF0022012204F50064A0421ED0EAB942
:1036A0001E4A904214BF0022012204F59A34A0421F
:1036B00014D09AB91A4A904214BF0022012204F58C
:1036C0000064A0420AD04AB9164A904214BF0022B0
:1036D0000122A4F59634A04200D022B123F4407C0C
:1036E000CB6843EA0C0323F080034A691343036069
:1036F0008A68C2620A6882620B4A904214BF7346AB
:103700004EF001030BB10B6903630123436130BD2C
:103710000000014000080040000400400044014057
:1037200000180040002000400004014060B310B5C4
:10373000044690F83D3013B3022384F83D3021460F
:1037400051F8040BFFF76AFF012384F8483084F82E
:103750003E3084F83F3084F8403084F8413084F8BB
:10376000423084F8433084F8443084F8453084F89B
:10377000463084F8473084F83D30002010BD80F892
:103780003C3002F0DDF9D7E70120704760B310B597
:10379000044690F83D3013B3022384F83D302146AF
:1037A00051F8040BFFF73AFF012384F8483084F8FE
:1037B0003E3084F83F3084F8403084F8413084F85B
:1037C000423084F8433084F8443084F8453084F83B
:1037D000463084F8473084F83D30002010BD80F832
:1037E0003C30FFF719FFD7E70120704770B4036A38
:1037F00023F010030362036A42688569144C2C406D
:103800000D6844EA052523F020038C6843EA04137D
:10381000104C114EB04218BFA0420CBF012400242E
:1038200006D123F08003CE6843EA061323F0400359
:103830003CB122F440624C6942EA84028C6942EA5B
:103840008402426085614A688263036270BC70478B
:10385000FF8CFFFE000001400004014038B590F8E5
:103860003C30012B00F08C8004460D46012380F88B
:103870003C30142A1ED8DFE802F00B1D1D1D211D4F
:103880001D1D351D1D1D481D1D1D5C1D1D1D6F00B1
:103890000068FFF763FD2268936943F008039361B2
:1038A0002268936923F0040393612268936929696C
:1038B0000B439361002084F83C0038BD0068FFF79B
:1038C00095FF2268936943F40063936122689369CA
:1038D00023F48063936122689369296943EA012391
:1038E0009361E7E70068FFF76DFD2268D36943F055
:1038F0000803D3612268D36923F00403D3612268EB
:10390000D36929690B43D361D4E70068FFF792FDBF
:103910002268D36943F40063D3612268D36923F436
:103920008063D3612268D369296943EA0123D361A3
:10393000C0E70068FFF7A8FD2268536D43F0080355
:1039400053652268536D23F0040353652268536D59
:1039500029690B435365ADE70068FFF7BFFD226897
:10396000536D43F4006353652268536D23F4806301
:1039700053652268536D296943EA0123536599E72A
:1039800002209AE710B4846824F47F4C42EA0322B0
:103990000A4342EA0C0282605DF8044B7047000063
:1039A00090F83C30012B64D010B50446012380F818
:1039B0003C30022380F83D30026890682E4B034073
:1039C00093600B68602B40D022D8402B47D00BD996
:1039D000502B0ED1CA6849682068FFF7A9FD502115
:1039E0002068FFF7CCFD04E0202B0CD008D9302B49
:1039F00009D0012384F83D30002084F83C0010BD3C
:103A00000BB1102BF5D119462068FFF7B8FDF0E790
:103A1000702B0ED0B3F5005FEBD1CB684A68896894
:103A20002068FFF7AFFF2268936843F480439360F8
:103A3000DFE7CB684A6889682068FFF7A3FF226840
:103A4000936843F077039360D3E7CA6849682068B6
:103A5000FFF781FD60212068FFF791FDC9E7CA6883
:103A600049682068FFF764FD40212068FFF787FD63
:103A7000BFE70220704700BF8800FEFF90F83C308F
:103A8000012B45D070B4012380F83C30022380F82C
:103A90003D3003685A689C681E4E1F4DAB4218BFEC
:103AA000B34203D122F470024D682A4322F070021F
:103AB0000D682A435A600368164AB3F1804F18BF55
:103AC000934217D0A2F57C42934213D002F5806254
:103AD00093420FD002F5806293420BD002F57842F8
:103AE000934207D002F57052934203D0A2F594326C
:103AF000934204D124F080048A6814439C6001231B
:103B000080F83D30002380F83C30184670BC704788
:103B1000022070470000014000040140002800F02E
:103B2000FF8170B582B00446036813F0010F29D0FD
:103B3000954B9B6803F00C03042B1AD0924B9B68A7
:103B400003F00C03082B0FD06368B3F5803F40D01F
:103B5000002B54D18C4B1A6822F480321A601A68F8
:103B600022F480221A6039E0874B5B6813F4800FDF
:103B7000EAD0854B1B6813F4003F03D06368002B29
:103B800000F0D081236813F0020F74D07E4B9B6845
:103B900013F00C0F5ED07C4B9B6803F00C03082BDA
:103BA00053D0E368002B00F08980774A136843F014
:103BB0000103136000F058FF0546734B1B6813F0B8
:103BC000020F72D100F050FF401B0228F5D90320EC
:103BD000ADE16D4A136843F48033136063682BB31F
:103BE00000F042FF0546684B1B6813F4003FC9D143
:103BF00000F03AFF401B6428F5D9032097E1B3F5A4
:103C0000A02F09D0604B1A6822F480321A601A681B
:103C100022F480221A60E1E75B4B1A6842F48022AA
:103C20001A601A6842F480321A60D7E700F01CFF6D
:103C30000546554B1B6813F4003FA3D000F014FF5A
:103C4000401B6428F5D9032071E14F4B5B6813F4E6
:103C5000800FA6D14C4B1B6813F0020F03D0E36812
:103C6000012B40F06181484A136823F0F803216971
:103C700043EAC1031360236813F0080F46D0636959
:103C800083B3414A536F43F00103536700F0ECFEE6
:103C900005463D4B5B6F13F0020F37D100F0E4FE99
:103CA000401B0228F5D9032041E1374A136823F06D
:103CB000F803216943EAC1031360DCE7324A136861
:103CC00023F00103136000F0CFFE05462E4B1B6866
:103CD00013F0020FCFD000F0C7FE401B0228F5D929
:103CE000032024E1284A536F23F00103536700F0B7
:103CF000BBFE0546244B5B6F13F0020F06D000F0AD
:103D0000B3FE401B0228F5D9032010E1236813F00D
:103D1000040F7DD01C4B1B6C13F0805F1ED11A4B1F
:103D20001A6C42F080521A641B6C03F080530193AA
:103D3000019B0125154B1B6813F4807F10D0A368ED
:103D4000012B25D0002B3BD10F4B1A6F22F0010223
:103D50001A671A6F22F004021A671EE00025E9E7CD
:103D60000A4A136843F48073136000F07DFE064630
:103D7000064B1B6813F4807FE1D100F075FE801BB9
:103D80006428F5D90320D2E00038024000700040DA
:103D90006E4A136F43F001031367A36833B300F057
:103DA00063FE0646694B1B6F13F0020F2FD100F024
:103DB0005BFE801B41F288339842F3D90320B6E0C2
:103DC000052B09D0614B1A6F22F001021A671A6F96
:103DD00022F004021A67E0E75C4B1A6F42F004021B
:103DE0001A671A6F42F001021A67D6E700F03CFE2C
:103DF0000646564B1B6F13F0020F08D000F034FE3E
:103E0000801B41F288339842F3D903208FE0FDB93B
:103E1000A369002B00F08A804C4A926802F00C02E1
:103E2000082A58D0022B19D0484A136823F080730F
:103E3000136000F019FE0446444B1B6813F0007F2A
:103E400047D000F011FE001B0228F5D903206EE0D8
:103E50003E4A136C23F080531364D9E73B4A13683E
:103E600023F08073136000F0FFFD0546374B1B689D
:103E700013F0007F06D000F0F7FD401B0228F5D9B3
:103E8000032054E0E369226A1343626A43EA82131F
:103E9000A26A5208013A43EA0243E26A43EA026331
:103EA00043F00053294A5360136843F08073136052
:103EB00000F0DAFD0446254B1B6813F0007F06D1A5
:103EC00000F0D2FD001B0228F5D903202FE00020CE
:103ED0002DE000202BE01D4A5268012B29D002F46E
:103EE0008003E1698B4226D102F03F03216A8B42B5
:103EF00023D1616A47F6C0731340B3EB811F1ED113
:103F000002F44031A36A5B08013BB1EB034F18D1C7
:103F100002F07062E36AB2EB036F14D1002006E096
:103F200001207047012002E0012000E0002002B0E3
:103F300070BD0120FBE70120F9E70120F7E7012030
:103F4000F5E70120F3E70120F1E700BF0038024068
:103F500008B5254B9B6803F00C03042B3FD0082BBE
:103F60003FD1214B5A6802F03F025B6813F4800F87
:103F700012D01D4B5968C1F388111C480023A1FBC6
:103F80000001FCF7E1FE184B5B68C3F3014301330A
:103F90005B00B0FBF3F025E0134B5968C1F3881CBC
:103FA0004FEA4C11B1EB0C006EEB0E0E4FEA8E1384
:103FB00043EA90638101091A63EB0E03DB0043EAD5
:103FC0005173C90011EB0C0C43F10003990200235B
:103FD0004FEA8C2041EA9C51FCF7B6FED3E7034838
:103FE00000E0034808BD00BF0038024040787D0172
:103FF0000024F400002800F0A08070B50D460446AF
:10400000524B1B6803F00F038B420BD24F4A1368CD
:1040100023F00F030B431360136803F00F038B426D
:1040200040F08D80236813F0020F17D013F0040FB7
:1040300004D0474A936843F4E0539360236813F035
:10404000080F04D0424A936843F460439360404AA7
:10405000936823F0F003A1680B439360236813F087
:10406000010F31D06368012B20D0022B25D0384AB4
:10407000126812F0020F64D035498A6822F00302F8
:1040800013438B6000F0F0FC0646314B9B6803F055
:104090000C036268B3EB820F16D000F0E5FC801BC6
:1040A00041F288339842F0D9032045E0284A12684B
:1040B00012F4003FE0D101203EE0254A126812F0E0
:1040C000007FD9D1012037E0204B1B6803F00F039C
:1040D000AB420AD91D4A136823F00F032B43136028
:1040E000136803F00F03AB422DD1236813F0040FC4
:1040F00006D0174A936823F4E053E1680B439360BA
:10410000236813F0080F07D0114A936823F4604323
:10411000216943EAC1039360FFF71AFF0C4B9B68C8
:10412000C3F303130B4AD35CD8400B4B18600B4B03
:10413000186800F051FC002070BD0120704701207C
:10414000FAE70120F8E70120F6E700BF003C024053
:104150000038024028B00008280100202401002077
:10416000014B1868704700BF2801002008B5FFF711
:10417000F7FF044B9B68C3F38223034AD35CD84008
:1041800008BD00BF0038024038B0000808B5FFF78E
:10419000E7FF044B9B68C3F34233034AD35CD84028
:1041A00008BD00BF0038024038B00008F0B583B049
:1041B0000446066816F001060DD0A74B9A6822F453
:1041C00000029A609A68416B0A439A60436B002B25
:1041D00000F039810026256815F4002511D09E4A8B
:1041E000D2F88C3023F44013E16B0B43C2F88C30CF
:1041F000E36BB3F5801F00F02881002B00F02781CE
:104200000025236813F4801F0FD0934AD2F88C3016
:1042100023F44003216C0B43C2F88C30236CB3F5BC
:10422000800F00F0168103B90125236813F0807F09
:1042300000D0012613F0200F40F01081236813F006
:10424000100F0CD0844BD3F88C2022F08072C3F86E
:104250008C20D3F88C20A16B0A43C3F88C202368F0
:1042600013F4804F08D07C4AD2F8903023F44033C6
:10427000616E0B43C2F89030236813F4004F08D0EE
:10428000754AD2F8903023F44023A16E0B43C2F854
:104290009030236813F4803F08D06F4AD2F89030F2
:1042A00023F44013E16E0B43C2F89030236813F4FB
:1042B000003F08D0684AD2F8903023F44003216FC1
:1042C0000B43C2F89030236813F0400F08D0624AC5
:1042D000D2F8903023F00303616C0B43C2F89030A6
:1042E000236813F0800F08D05B4AD2F8903023F097
:1042F0000C03A16C0B43C2F89030236813F4807F49
:1043000008D0554AD2F8903023F03003E16C0B43CB
:10431000C2F89030236813F4007F08D04E4AD2F8D8
:10432000903023F0C003216D0B43C2F89030236816
:1043300013F4806F08D0484AD2F8903023F44073C9
:10434000616D0B43C2F89030236813F4006F08D0FE
:10435000414AD2F8903023F44063A16D0B43C2F878
:104360009030236813F4805F08D03B4AD2F8903035
:1043700023F44053E16D0B43C2F89030236813F4EB
:10438000005F08D0344AD2F8903023F44043216EC5
:104390000B43C2F89030236813F4800F08D02E4AE4
:1043A000D2F8903023F08063A16F0B43C2F89030B5
:1043B000236813F4001F0DD0274AD2F8903023F061
:1043C0000063E16F0B43C2F89030E36FB3F1006F0D
:1043D00000F0AA80236813F0080F00D0012513F421
:1043E000802F08D01C4AD2F8903023F04073616FC0
:1043F0000B43C2F89030236813F4000F09D0164A1B
:10440000D2F8903023F08053D4F880100B43C2F8D8
:10441000903026B9236813F0007F00F005810E4A22
:10442000136823F08063136000F01EFB06460A4BFE
:104430001B6813F0006F79D000F016FB801B642816
:10444000F5D90320F3E00126C5E60126D5E60125CE
:10445000D7E60126E7E600BF003802407F4B1A6C22
:1044600042F080521A641B6C03F080530193019B4D
:104470007B4A136843F48073136000F0F5FA074633
:10448000774B1B6813F4807F06D100F0EDFAC01B58
:104490006428F5D90320CAE0704B1B6F13F44073F6
:1044A00015D0226B02F440729A4210D06B4B1A6FF7
:1044B00022F44072196F41F480311967196F21F4A9
:1044C000803119671A671B6F13F0010F12D1236B2C
:1044D00003F44072B2F5407F1DD0604A936823F424
:1044E000F81393605D490B6F226BC2F30B02134309
:1044F0000B67A3E600F0B8FA0746584B1B6F13F0A2
:10450000020FE4D100F0B0FAC01B41F288339842A8
:10451000F3D903208BE05148826822F4F812514904
:1045200019400A438260DDE7012553E7236813F051
:10453000010F13D0636B8BB9484AD2F88430D2F89C
:104540008410606803F4403343EA801301F0706123
:104550000B43A16843EA0173C2F88430236813F463
:10456000002F03D0E26BB2F5801F06D013F4801F3A
:104570001ED0236CB3F5800F1AD1384AD2F884309C
:10458000D2F88410606803F4403343EA8013E06893
:1045900043EA006301F0E0410B43C2F88430D2F8F3
:1045A0008C3023F01F03616A01390B43C2F88C3051
:1045B000236813F0807F11D0284AD2F88400D2F803
:1045C0008410666823691B0443EA861300F0706058
:1045D000034301F0E0410B43C2F88430236813F039
:1045E000007F0DD0626823691B0443EA8213E268EE
:1045F00043EA0263A26843EA0273184AC2F88430AD
:10460000164A136843F08063136000F02DFA0646E3
:10461000124B1B6813F0006F06D100F025FA801BC7
:104620006428F5D9032002E0012D02D0002003B058
:10463000F0BD0A4A136823F08053136000F014FAA7
:104640000546064B1B6813F0005F0DD000F00CFA16
:10465000401B6428F5D90320E9E700BF0038024079
:1046600000700040FFFCFF0F236813F4002F01D0FF
:10467000E26B22B113F4801F1DD0236CDBB9354AE5
:10468000D2F88830D2F88810606903F4403343EAE6
:104690008013A06943EA006301F0E0410B43C2F8D4
:1046A0008830D2F88C3023F4F853A16A013943EAF8
:1046B0000123C2F88C30236813F4001F03D0E36F8A
:1046C000B3F1006F31D0236813F0080F19D0214ADD
:1046D000D2F88810D2F88830606903F4403343EA96
:1046E000801301F070610B43E16943EA0173C2F882
:1046F0008830D2F88C3023F44033E16A0B43C2F89F
:104700008C30144A136843F08053136000F0ACF906
:104710000446104B1B6813F0005F19D100F0A4F998
:10472000001B6428F5D9032081E70A4AD2F88800E3
:10473000D2F888106569236A1B0443EA851300F0E8
:104740007060034301F0E0410B43C2F88830BAE7E0
:1047500000206CE70038024000230F2B00F2E480B9
:10476000F0B583B03AE0092200E00022AA403243CB
:1047700002346E4D45F824206D4A14686FEA0C022D
:1047800024EA0C054E6816F4803F01D04CEA04057B
:10479000674C2560646802EA04054E6816F4003F21
:1047A00001D04CEA0405624C6560A46802EA040585
:1047B0004E6816F4801F01D04CEA04055C4CA560DD
:1047C000E46822404D6815F4001F01D04CEA040251
:1047D000574CE26001330F2B00F2A48001229A4073
:1047E0000C6804EA020C32EA0404F3D14C68651E3A
:1047F000112C18BF012D01D9122C12D185685E0031
:104800000324B44025EA0405CC68B4402C438460FA
:10481000456825EA02054C68C4F300129A402A4311
:104820004260C5684FEA430E032404FA0EF4E243E3
:1048300025EA04058C6804FA0EF42C43C4604C6825
:10484000122C18BF022C0FD1DD08083550F8257046
:1048500003F00704A6000F24B44027EA04070C69FC
:10486000B4403C4340F82540046814404A6802F0D4
:10487000030202FA0EF2224302604A6812F0805FDD
:10488000A8D02C4A546C44F480445464526C02F412
:1048900080420192019A9C08A51C244A52F8256086
:1048A00003F0030295000F22AA4026EA0206224ADC
:1048B00090423FF45AAF02F58062904222D002F556
:1048C0008062904220D002F5806290421ED002F5B4
:1048D000806290421CD002F5806290421AD002F5AC
:1048E0008062904218D002F58062904216D002F5A4
:1048F0008062904214D002F5806290423FF433AF60
:104900000A2233E7012231E702222FE703222DE7B3
:1049100004222BE7052229E7062227E7072225E7BD
:10492000082223E703B0F0BD704700BF0038014004
:10493000003C014000380240000002400AB18161A1
:104940007047090481617047436901EA030221EA63
:10495000030141EA024181617047000010B582B055
:104960001B4B1A6C42F080521A641B6C03F080538C
:104970000193019B174A136843F48033136000F0DE
:1049800073F80446134B5B6813F4803F08D100F0C2
:104990006BF8001BB0F57A7FF4D9032002B010BD8C
:1049A0000C4A136843F40033136000F05DF80446CA
:1049B000084B5B6813F4003F07D100F055F8001B6B
:1049C000B0F57A7FF4D90320E8E70020E6E700BFDE
:1049D000003802400070004010B504460E4B1878B5
:1049E0004FF47A73B3FBF0F30C4A1068B0FBF3F0AA
:1049F000FEF7A0FC68B90F2C01D901200AE00022C3
:104A000021464FF0FF30FEF751FC054B1C600020A3
:104A100000E0012010BD00BF20010020280100207F
:104A20002401002008B5094B1A6842F400721A608C
:104A30001A6842F480721A600320FEF725FC0020F9
:104A4000FFF7CAFFFEF708FC002008BD003C02404B
:104A5000034A1168034B1B780B441360704700BF77
:104A60005815002020010020014B1868704700BF36
:104A70005815002038B50446FFF7F6FF0546B4F197
:104A8000FF3F02D0044B1B781C44FFF7EDFF401B97
:104A9000A042FAD338BD00BF2001002003689A6904
:104AA00012F0020F01D000229A6203689A6912F094
:104AB000010F03D19A6942F001029A61704730B444
:104AC000029D046860684FEA555C0CF4806C4CF001
:104AD0007F7C4CF4583C4CF47F7C4CF0030C20EA77
:104AE0000C00C1F3090141EA024119432943014382
:104AF000616030BC7047F8B505460E46174603683E
:104B00009B6913F0100F01D10020F8BD2B689C6940
:104B100014F0200F17D1B6F1FF3FF7D0FFF7A4FF35
:104B2000C01BB04201D8002EF0D16B6C43F02003C3
:104B30006B64202385F84130002385F8423085F8E6
:104B400040300120E1E71022DA612B682024DC618B
:104B50002846FFF7A3FF2A68536823F0FF7323F466
:104B60008B3323F4FF7323F0010353606B6C43F02A
:104B700004036B6485F84140002385F8423085F8D2
:104B800040300120C1E770B504460D461646236843
:104B90009B6913F0020F1DD1324629462046FFF7CC
:104BA000AAFFC8B9B5F1FF3FF1D0FFF75DFF801B49
:104BB000A84201D8002DEAD1636C43F0200363645E
:104BC000202384F84130002384F8423084F84030B8
:104BD000012000E0002070BD0120FCE72DE9F0413C
:104BE0000646884617461D463468A46938EA040319
:104BF0000CBF4FF0010C4FF0000CBC4518D1B5F1C3
:104C0000FF3FF1D0FFF730FF069BC01AA84201D842
:104C1000002DE9D1736C43F020037364202386F8E0
:104C20004130002386F8423086F84030012000E011
:104C30000020BDE8F08170B505460C4616462B688D
:104C40009B6913F0200F1AD1324621462846FFF700
:104C500052FFB0B9FFF708FF801BA04201D8002C1B
:104C6000EDD16B6C43F020036B64202385F8413059
:104C7000002385F8423085F84030012070BD0020C7
:104C8000FCE70120FAE770B504460D461646236896
:104C90009B6913F0040F3ED1324629462046FFF7A8
:104CA0002AFF0146002838D123689A6912F0200FA4
:104CB00013D1FFF7D9FE801BA84201D8002DE6D101
:104CC000636C43F020036364202384F841300023A5
:104CD00084F840300121084670BD9A6912F0040F33
:104CE00002D0228D002AF6D12022DA6121684B6899
:104CF00023F0FF7323F48B3323F4FF7323F00103BA
:104D00004B600023636484F8412084F8423084F8C7
:104D100040300121DFE70021DDE70121DBE7000072
:104D2000002857D010B5044690F84130002B41D0F0
:104D3000242384F841302268136823F001031360B0
:104D40006368226823F0706313612268936823F418
:104D500000439360E368012B31D0A368226843F4D9
:104D600004439360E368022B2FD0226851681A4BEA
:104D70000B4353602268D36823F40043D360236954
:104D800062691343A169226843EA0123D360E3699E
:104D9000216A22680B4313602268136843F0010301
:104DA000136000206064202384F84130206384F87D
:104DB000420010BD80F8403000F0D0FDB8E7A36895
:104DC000226843F400439360CCE723684FF4006209
:104DD0005A60CAE701207047008000022DE9F047C1
:104DE00082B00F460A9E90F84110C9B2202940F0C7
:104DF000A38004469046994690F84030012B00F07D
:104E00009F804FF0010A80F840A0FFF72DFE054675
:104E10000090192352464FF400412046FFF7DEFE72
:104E2000002840F08F80212384F84130102384F83B
:104E3000423000236364C4F82480A4F82A9063639A
:104E4000638D9BB2FF2B0AD9FF222285414B009331
:104E50004FF0807339462046FFF731FE18E0628D2F
:104E600092B222853B4B00934FF00073D2B2394689
:104E70002046FFF724FE0BE0628D92B222850023CC
:104E800000934FF00073D2B239462046FFF717FE69
:104E9000638D9BB2002B33D02A4631462046FFF764
:104EA00072FE002850D1626A236812789A62636A9F
:104EB00001336362638D9BB2013B9BB26385238D9B
:104EC000013B9BB22385628D92B2002AE0D0002B79
:104ED000DED100953346002280212046FFF77EFE7A
:104EE000A0BB638D9BB2FF2BC6D9FF222285002376
:104EF00000934FF0807339462046FFF7E0FDC7E787
:104F00002A4631462046FFF796FE08BB236820223A
:104F1000DA6121684B6823F0FF7323F48B3323F4A9
:104F2000FF7323F001034B6084F84120002384F8D1
:104F3000423084F8403000E0022002B0BDE8F08743
:104F40000220FAE70120F8E70120F6E70120F4E764
:104F50000120F2E7002000802DE9F04782B00F46E3
:104F60000A9E90F84110C9B2202940F0A280044660
:104F70009046994690F84030012B00F09E804FF00B
:104F8000010A80F840A0FFF76FFD05460090192345
:104F900052464FF400412046FFF720FE002840F023
:104FA0008E80222384F84130102384F8423000237D
:104FB0006364C4F82480A4F82A906363638D9BB271
:104FC000FF2B0AD9FF222285414B00934FF08073BB
:104FD00039462046FFF773FD18E0628D92B22285B4
:104FE0003B4B00934FF00073D2B239462046FFF797
:104FF00066FD0BE0628D92B22285002300934FF094
:105000000073D2B239462046FFF759FD638D9BB23B
:10501000002B32D02A4631462046FFF734FE0028C6
:105020004FD123685A6A636A1A70636A01336362F4
:10503000228D013A92B22285638D9BB2013B9BB2D5
:105040006385638D9BB2002BE0D0002ADED10095F2
:10505000334680212046FFF7C1FDA0BB638D9BB284
:10506000FF2BC7D9FF222285002300934FF08073C6
:1050700039462046FFF723FDC8E72A463146204639
:10508000FFF7D9FD08BB23682022DA6121684B684D
:1050900023F0FF7323F48B3323F4FF7323F0010316
:1050A0004B6084F84120002384F8423084F840307B
:1050B00000E0022002B0BDE8F0870220FAE70120FC
:1050C000F8E70120F6E70120F4E70120F2E700BF4E
:1050D0000024008090F84130DBB2202B24D190F8DE
:1050E0004030012B22D0012380F84030242380F867
:1050F00041300268136823F00103136002681368EB
:1051000023F4805313600268136819431160026826
:10511000136843F001031360202380F8413000231B
:1051200080F84030184670470220704702207047D0
:1051300090F84130DBB2202B22D190F84030012B87
:1051400020D0012380F84030242380F841300268C9
:10515000136823F0010313600268136823F470637B
:1051600043EA012111600268136843F001031360F0
:10517000202380F84130002380F8403018467047E3
:105180000220704702207047034AD2F8883043F467
:105190007003C2F88830704700ED00E010B5044697
:1051A00083680269134342691343C2691343016868
:1051B0000868934A024013430B602268536823F443
:1051C0004053E1680B435360A269236A1A43216884
:1051D0008B6823F4306313438B602368894A9342BE
:1051E00019D0894A934229D0884A93423ED0884AAE
:1051F000934262D0874A934271D0874A934200F02B
:105200008380864A934200F09480854A934200F05E
:10521000A58010233AE0834BD3F8903003F00303CA
:10522000032B09D8DFE803F00204AE0601232DE0CA
:1052300004232BE0082329E0102327E0794BD3F83F
:10524000903003F00C030C2B0ED8DFE803F0070DB1
:105250000D0D090D0D0D9D0D0D0D0B00002315E01D
:10526000042313E0082311E010230FE06D4BD3F863
:10527000903003F03003202B00F0888019D8002BE9
:1052800000F08680102B40F085800423E069B0F5A3
:10529000004F00F0AB80082B00F20C81DFE813F028
:1052A000E800FB00E6000A01FE000A010A010A010B
:1052B0000101302B70D10823E8E75A4BD3F8903026
:1052C00003F0C003802B69D005D8002B68D0402B99
:1052D00068D10423DAE7C02B66D10823D6E7514B07
:1052E000D3F8903003F44073B3F5007F5ED006D856
:1052F000002B5DD0B3F5807F5CD10423C6E7B3F506
:10530000407F59D10823C1E7464BD3F8903003F4CE
:105310004063B3F5006F51D006D8002B50D0B3F5E1
:10532000806F4FD10423B1E7B3F5406F4CD1082310
:10533000ACE73C4BD3F8903003F44053B3F5005F37
:1053400044D006D8002B43D0B3F5805F42D104236C
:105350009CE7B3F5405F3FD1082397E7314BD3F883
:10536000903003F44043B3F5004F37D005D8BBB3BA
:10537000B3F5804F36D1042388E7B3F5404F33D1DE
:10538000082383E7022381E702237FE702237DE7E7
:1053900000237BE7102379E7102377E7022375E7E3
:1053A000002373E7102371E710236FE702236DE7F3
:1053B00000236BE7102369E7102367E7022365E703
:1053C000012363E7102361E710235FE702235DE712
:1053D00000235BE7102359E7102357E7022355E723
:1053E000002353E7102351E710234FE7082B5BD826
:1053F000DFE803F01A343A5A375A5A5A1E0000BFEF
:10540000F369FFEF001001400044004000480040F5
:10541000004C004000500040001401400078004063
:10542000007C004000380240FEF7A0FE00283DD07E
:105430006268530803EB4000B0FBF2F080B2A0F1C9
:1054400010024FF6EF739A4232D820F00F03C0F3E8
:10545000420018432368D860002030E0FEF796FE33
:10546000E4E7FEF775FDE1E71748E1E7164802E0DB
:10547000FEF77CFE00B3636800EB5300B0FBF3F073
:1054800080B2A0F110024FF6EF739A4216D823684B
:10549000D860002013E0FEF779FEEBE7FEF758FD39
:1054A000E8E74FF40040E6E7012008E0002006E0CE
:1054B000012004E0012002E0002000E001200023A0
:1054C0006366A36610BD00BF0024F400436A13F0B6
:1054D000010F06D00268536823F40033816A0B433E
:1054E0005360436A13F0020F06D00268536823F436
:1054F0008033C16A0B435360436A13F0040F06D034
:105500000268536823F48023016B0B435360436AA2
:1055100013F0080F06D00268536823F40043416B70
:105520000B435360436A13F0100F06D00268936870
:1055300023F48053816B0B439360436A13F0200F75
:1055400006D00268936823F40053C16B0B43936049
:10555000436A13F0400F0AD00268536823F48013A3
:10556000016C0B435360036CB3F5801F0BD0436A8F
:1055700013F0800F06D00268536823F40023816C77
:105580000B43536070470268536823F4C003416CB7
:105590000B435360EBE72DE9F84305460F461646EB
:1055A0009946DDF820802C68E46937EA04030CBFD3
:1055B0004FF0010C4FF0000CB4453DD1B8F1FF3F66
:1055C000F1D0FFF751FAA0EB0900404522D8B8F11D
:1055D000000F1FD02B681A6812F0040FE3D0DA69AD
:1055E00012F4006FDFD04FF400621A622A68136869
:1055F00023F4D07313602A68936823F00103936047
:105600002023AB67EB67C5F88030002385F8743042
:10561000032012E02A68136823F4D07313602A6809
:10562000936823F0010393602023AB67EB670023AB
:1056300085F87430032000E00020BDE8F8832DE9F0
:10564000F04182B01E46836F202B56D104460D4692
:105650009046002A18BF002953D090F87430012BCF
:1056600051D0012380F874300023C0F8803021230A
:105670008367FFF7F9F90746A4F85080A4F8528031
:10568000A368B3F5805F05D04FF00008002384F8CD
:10569000743012E0236913B14FF00008F6E7A84612
:1056A0000025F3E715F8012B23689A62B4F852201D
:1056B00092B2013A92B2A4F85220B4F852309BB29E
:1056C00083B100963B46002280212046FFF763FF0E
:1056D000D8B9002DE6D138F8023B2268C3F308039D
:1056E0009362E3E700963B46002240212046FFF705
:1056F00052FF60B92023A36700E0022002B0BDE89A
:10570000F0810120FAE70220F8E70320F6E7032002
:10571000F4E710B582B004460023C0F88030FFF7EC
:10572000A3F923681B6813F0080F08D12023A3678F
:10573000E3670020206684F8740002B010BD6FF0AB
:105740007E430093034600224FF400112046FFF7EA
:1057500022FF0028EAD00320EFE768B310B5044623
:10576000836F03B32423A3672268136823F0010324
:1057700013602046FFF712FD012813D0636ABBB9FE
:105780002268536823F4904353602268936823F09F
:105790002A0393602268136843F0010313602046D4
:1057A000FFF7B7FF10BD80F8743000F05DF9D9E75E
:1057B0002046FFF78BFEE3E70120704730B58BB042
:1057C0000024059406940794089409941B4B1A6BC3
:1057D00042F008021A631A6B02F008020192019A61
:1057E0001A6B42F004021A631A6B02F0040202926E
:1057F000029A1A6B42F002021A631A6B02F002025A
:105800000392039A1A6B42F010021A631B6B03F0A7
:1058100010030493049B0A4D224602212846FFF7F9
:105820008DF802230593012306930794032308931D
:1058300005A92846FEF790FF0BB030BD00380240A6
:105840000010024008B51248124B0360124B43602F
:10585000002383600122C260036143618361C361ED
:105860000362FFF75DFA50B900210948FFF732FCE7
:1058700040B900210648FFF75BFC30B908BDFDF7D1
:10588000B9FBF1E7FDF7B6FBF3E7FDF7B3FBF5E78F
:105890005C150020005400405919400000B58FB03D
:1058A00029482A4B03602A4B4360C02383600123AD
:1058B000C3600023036143618361C3610362FFF737
:1058C0002FFA002836D100211F48FFF703FC0028DB
:1058D00033D100211C48FFF72BFC002830D11B4B93
:1058E0001A6842F020021A601A6842F010021A6028
:1058F0001A6842F008021A601A6842F004021A603C
:105900001A6842F002021A609A6900229A61996943
:105910009A619A690F4901A801F000F801A8FAF705
:1059200077FC642382B201A90B48FFF788FE0FB011
:105930005DF804FBFDF75EFBC5E7FDF75BFBC8E721
:10594000FDF758FBCBE700BFA81500200060004022
:105950005919400040B00008F415002010B58AB075
:1059600000230593069307930893099303682A4A33
:10597000934204D0294A934223D00AB010BD284C48
:10598000236B43F002032363236B03F002030193B1
:10599000019BC0230593122306930123079303233E
:1059A00008930423099305A91E48FEF7D5FE236C2E
:1059B00043F400132364236C03F400130293029B4B
:1059C000DBE7174C236B43F008032363236B03F0DF
:1059D00008030393039B4FF440530593122306934C
:1059E00001230793032308930423099305A90E4871
:1059F000FEF7B2FE236C43F080732364236C03F044
:105A000080730493049B002211465F20FDF74EFC37
:105A10005F20FDF781FCB0E70054004000600040CB
:105A20000038024000040240000C024008B50B4858
:105A30000B4B03600B4B436000238360C360036127
:105A40000C2242618361C36103624362FFF785FEFA
:105A500000B908BDFDF7CEFAFBE700BFF415002042
:105A60000044004080841E0000B589B000230393E9
:105A700004930593069307930268134B9A4202D04E
:105A800009B05DF804FB03F5FA331A6C42F40032F6
:105A90001A641A6C02F400320192019A1A6B42F0F5
:105AA00008021A631B6B03F008030293029B602336
:105AB000039302230493032306930723079303A965
:105AC0000248FEF749FEDBE700440040000C0240BC
:105AD00000B589B0002304930593069307930193BF
