:020000040800F2
:1000000000000520917F0008A9510008AB510008AD
:10001000AD510008AF510008B151000800000000C8
:10002000000000000000000000000000B3510008C4
:10003000B551000800000000B7510008B951000890
:10004000E17F0008E17F0008E17F0008E17F000810
:10005000E17F0008E17F0008E17F0008E17F000800
:10006000E17F0008E17F0008E17F0008E17F0008F0
:10007000E17F0008E17F0008E17F0008E17F0008E0
:10008000E17F0008E17F0008E17F0008E17F0008D0
:10009000E17F0008E17F0008E17F0008E17F0008C0
:1000A000E17F0008E17F0008E17F0008E17F0008B0
:1000B000E17F0008E17F0008E17F0008E17F0008A0
:1000C000E17F0008E17F0008E17F0008E17F000890
:1000D000E17F0008E17F0008E17F0008E17F000880
:1000E000E17F0008E17F0008E17F0008E17F000870
:1000F000E17F0008E17F0008E17F0008E17F000860
:10010000E17F0008E17F0008E17F0008E17F00084F
:10011000E17F0008E17F0008E17F0008E17F00083F
:10012000E17F0008E17F0008E17F0008E17F00082F
:10013000E17F0008E17F0008E17F0008E17F00081F
:10014000E17F0008E17F0008E17F0008E17F00080F
:10015000E17F0008E17F0008E17F0008E17F0008FF
:10016000E17F0008E17F0008E17F0008E17F0008EF
:10017000E17F0008E17F0008E17F00080000000047
:10018000E17F0008E17F0008E17F0008E17F0008CF
:10019000E17F0008E17F0008E17F0008E17F0008BF
:1001A000E17F0008E17F0008E17F0008E17F0008AF
:1001B000E17F0008E17F0008E17F0008C1510008ED
:0801C000E17F0008E17F000867
:1001D00010B5054C237833B9044B13B10448AFF381
:1001E00000800123237010BD680200200000000081
:1001F0009CDF000808B5034B1BB103490348AFF36C
:10020000008008BD000000006C0200209CDF000898
:10021000034613F8012B002AFBD1181A0138704746
:1002200001F0FF01102A2BDB10F0070F08D010F8A7
:10023000013B013A8B422DD010F0070F42B3F6D1AB
:10024000F0B441EA012141EA014122F007047FF0C4
:1002500000070023F0E80256083C85EA010586EA1B
:10026000010685FA47F5A3FA87F586FA47F6A5FA57
:1002700087F68EB9EED1F0BC01F0FF0102F0070263
:1002800032B110F8013B013A83EA010313B1F8D10E
:100290000020704701387047002D06BF35460338EF
:1002A000073815F0010F07D1013015F4807F02BF28
:1002B000013015F4C03F0130F0BC0138704700BF79
:1002C0004B1C012B98BF70472DE9F003911C9B0834
:1002D000B1F80480B1F802900A8831F802CC804469
:1002E000814402448444D9F80070D8F8006015684D
:1002F000DCF80040C9F80060C8F80070CCF8005085
:100300001460D9F80470D8F804605568DCF804402B
:10031000C9F80460C8F80470CCF80450546008317F
:10032000013BD5D1BDE8F00370474B1C012B98BFB2
:1003300070472DE9F003911C9B08B1F80480B1F8D7
:1003400002900A8831F802CC00EB580800EB5909FA
:1003500000EB520200EB5C0CD9F80070D8F800609A
:100360001568DCF80040C9F80060C8F80070CCF8E7
:10037000005014600831013BDFD1BDE8F003704745
:1003800081F0004102E000BF83F0004330B54FEA46
:1003900041044FEA430594EA050F08BF90EA020FB3
:1003A0001FBF54EA000C55EA020C7FEA645C7FEA46
:1003B000655C00F0E2804FEA5454D4EB5555B8BF69
:1003C0006D420CDD2C4480EA020281EA030382EADA
:1003D000000083EA010180EA020281EA0303362D6C
:1003E00088BF30BD11F0004F4FEA01314FF4801C3F
:1003F0004CEA113102D0404261EB410113F0004F51
:100400004FEA03334CEA133302D0524263EB430307
:1004100094EA050F00F0A780A4F10104D5F1200EA5
:100420000DDB02FA0EFC22FA05F2801841F1000100
:1004300003FA0EF2801843FA05F359410EE0A5F1D4
:1004400020050EF1200E012A03FA0EFC28BF4CF005
:10045000020C43FA05F3C01851EBE37101F00045BB
:1004600007D54FF0000EDCF1000C7EEB00006EEBC8
:100470000101B1F5801F1BD3B1F5001F0CD3490852
:100480005FEA30004FEA3C0C04F101044FEA4452A9
:1004900012F5800F80F09A80BCF1004F08BF5FEA30
:1004A000500C50F1000041EB045141EA050130BD10
:1004B0005FEA4C0C404141EB0101013C28BFB1F522
:1004C000801FE9D291F0000F04BF01460020B1FA6D
:1004D00081F308BF2033A3F10B03B3F120020CDA40
:1004E0000C3208DD02F1140CC2F10C0201FA0CF01E
:1004F00021FA02F10CE002F11402D8BFC2F1200C83
:1005000001FA02F120FA0CFCDCBF41EA0C01904038
:10051000E41AA2BF01EB0451294330BD6FEA040481
:100520001F3C1CDA0C340EDC04F11404C4F120026C
:1005300020FA04F001FA02F340EA030021FA04F37E
:1005400045EA030130BDC4F10C04C4F1200220FAD5
:1005500002F001FA04F340EA0300294630BD21FA13
:1005600004F0294630BD94F0000F83F4801306BFD9
:1005700081F480110134013D4EE77FEA645C18BFCD
:100580007FEA655C29D094EA050F08BF90EA020F64
:1005900005D054EA000C04BF1946104630BD91EA5C
:1005A000030F1EBF0021002030BD5FEA545C05D15F
:1005B0004000494128BF41F0004130BD14F580049E
:1005C0003CBF01F5801130BD01F0004545F0FE4112
:1005D00041F470014FF0000030BD7FEA645C1ABF47
:1005E000194610467FEA655C1CBF0B46024650EA7E
:1005F000013406BF52EA033591EA030F41F40021AA
:1006000030BD00BF90F0000F04BF0021704730B52F
:100610004FF4806404F132044FF000054FF0000104
:1006200050E700BF90F0000F04BF0021704730B5C5
:100630004FF4806404F1320410F0004548BF40429A
:100640004FF000013EE700BF42004FEAE2014FEAEF
:1006500031014FEA02701FBF12F07F4393F07F4FCA
:1006600081F06051704732F07F4208BF704793F0CD
:100670007F4F04BF41F40021704730B54FF46074E0
:1006800001F0004521F000411CE700BF50EA0102E3
:1006900008BF704730B54FF000050AE050EA01028C
:1006A00008BF704730B511F0004502D5404261EBFC
:1006B00041014FF4806404F132045FEA915C3FF43D
:1006C000D8AE4FF003025FEADC0C18BF03325FEADA
:1006D000DC0C18BF033202EBDC02C2F1200300FA8B
:1006E00003FC20FA02F001FA03FE40EA0E0021FAB0
:1006F00002F11444BDE600BF70B54FF0FF0C4CF49E
:10070000E06C1CEA11541DBF1CEA135594EA0C0F4F
:1007100095EA0C0F00F0DEF82C4481EA030621EA8A
:100720004C5123EA4C5350EA013518BF52EA0335C5
:1007300041F4801143F4801338D0A0FB02CE4FF077
:100740000005E1FB02E506F00042E0FB03E54FF0A7
:100750000006E1FB03569CF0000F18BF4EF0010E9F
:10076000A4F1FF04B6F5007F64F5407404D25FEA9B
:100770004E0E6D4146EB060642EAC62141EA55514E
:100780004FEAC52040EA5E504FEACE2EB4F1FD0C90
:1007900088BFBCF5E06F1ED8BEF1004F08BF5FEA0E
:1007A000500E50F1000041EB045170BD06F00046C0
:1007B00046EA010140EA020081EA0301B4EB5C046D
:1007C000C2BFD4EB0C0541EA045170BD41F4801165
:1007D0004FF0000E013C00F3AB8014F1360FDEBF8A
:1007E000002001F0004170BDC4F10004203C35DA66
:1007F0000C341BDC04F11404C4F1200500FA05F3E9
:1008000020FA04F001FA05F240EA020001F0004289
:1008100021F0004110EBD37021FA04F642EB0601FF
:100820005EEA430E08BF20EAD37070BDC4F10C0429
:10083000C4F1200500FA04F320FA05F001FA04F2ED
:1008400040EA020001F0004110EBD37041F10001D9
:100850005EEA430E08BF20EAD37070BDC4F12005E4
:1008600000FA05F24EEA020E20FA04F301FA05F24C
:1008700043EA020321FA04F001F0004121FA04F2F4
:1008800020EA020000EBD3705EEA430E08BF20EAC4
:10089000D37070BD94F0000F0FD101F000464000FE
:1008A00041EB010111F4801F08BF013CF7D041EA80
:1008B000060195F0000F18BF704703F00046520084
:1008C00043EB030313F4801F08BF013DF7D043EA55
:1008D0000603704794EA0C0F0CEA135518BF95EA0B
:1008E0000C0F0CD050EA410618BF52EA4306D1D192
:1008F00081EA030101F000414FF0000070BD50EAB1
:10090000410606BF1046194652EA430619D094EA3A
:100910000C0F02D150EA013613D195EA0C0F05D124
:1009200052EA03361CBF104619460AD181EA030178
:1009300001F0004141F0FE4141F470014FF0000030
:1009400070BD41F0FE4141F4780170BD70B54FF0CB
:10095000FF0C4CF4E06C1CEA11541DBF1CEA13554B
:1009600094EA0C0F95EA0C0F00F0A7F8A4EB05042D
:1009700081EA030E52EA03354FEA013100F0888024
:100980004FEA03334FF0805545EA131343EA1263ED
:100990004FEA022245EA111545EA10654FEA0026A2
:1009A0000EF000419D4208BF964244F1FD0404F55B
:1009B000407402D25B084FEA3202B61A65EB0305B7
:1009C0005B084FEA32024FF480104FF4002CB6EB74
:1009D000020E75EB030E22BFB61A754640EA0C00F4
:1009E0005B084FEA3202B6EB020E75EB030E22BF34
:1009F000B61A754640EA5C005B084FEA3202B6EB75
:100A0000020E75EB030E22BFB61A754640EA9C0033
:100A10005B084FEA3202B6EB020E75EB030E22BF03
:100A2000B61A754640EADC0055EA060E18D04FEAC1
:100A3000051545EA16754FEA06164FEAC30343EA61
:100A400052734FEAC2025FEA1C1CC0D111F4801F2E
:100A50000BD141EA00014FF000004FF0004CB6E727
:100A600011F4801F04BF01430020B4F1FD0C88BFC6
:100A7000BCF5E06F3FF6AFAEB5EB030C04BFB6EBD1
:100A8000020C5FEA500C50F1000041EB045170BDC4
:100A90000EF0004E4EEA113114EB5C04C2BFD4EBF1
:100AA0000C0541EA045170BD41F480114FF0000E75
:100AB000013C90E645EA060E8DE60CEA135594EAF1
:100AC0000C0F08BF95EA0C0F3FF43BAF94EA0C0FF4
:100AD0000AD150EA01347FF434AF95EA0C0F7FF469
:100AE00025AF104619462CE795EA0C0F06D152EABD
:100AF00003353FF4FDAE1046194622E750EA4106A1
:100B000018BF52EA43067FF4C5AE50EA41047FF4B1
:100B10000DAF52EA43057FF4EBAE12E74FF0FF3C16
:100B200006E000BF4FF0010C02E000BF4FF0010CE7
:100B30004DF804CD4FEA410C7FEA6C5C4FEA430C60
:100B400018BF7FEA6C5C1BD001B050EA410C0CBFAF
:100B500052EA430C91EA030F02BF90EA020F002011
:100B6000704710F1000F91EA030F58BF994208BF78
:100B700090422CBFD8176FEAE37040F00100704735
:100B80004FEA410C7FEA6C5C02D150EA013C07D18C
:100B90004FEA430C7FEA6C5CD6D152EA033CD3D0D7
:100BA0005DF8040B704700BF8446104662468C46D1
:100BB0001946634600E000BF01B5FFF7B7FF002804
:100BC00048BF10F1000F01BD4DF808EDFFF7F4FF2D
:100BD0000CBF012000205DF808FB00BF4DF808EDB8
:100BE000FFF7EAFF34BF012000205DF808FB00BFDB
:100BF0004DF808EDFFF7E0FF94BF012000205DF8FD
:100C000008FB00BF4DF808EDFFF7CEFF94BF0120B1
:100C100000205DF808FB00BF4DF808EDFFF7C4FFAA
:100C200034BF012000205DF808FB00BF4FEA410CF3
:100C30007FEA6C5C02D150EA013C0AD14FEA430CD6
:100C40007FEA6C5C02D152EA033C02D14FF0000013
:100C500070474FF0010070474FEA410212F5001251
:100C600015D211D56FF47873B3EB625212D94FEAF3
:100C7000C12343F0004343EA505311F0004F23FADD
:100C800002F018BF404270474FF00000704750EA32
:100C9000013005D111F0004008BF6FF000407047EF
:100CA0004FF00000704700BF4A0011D212F5001249
:100CB00011D20DD56FF47873B3EB62520ED44FEAB4
:100CC000C12343F0004343EA505323FA02F0704734
:100CD0004FF00000704750EA013002D14FF0FF3072
:100CE00070474FF0000070474FEA4102B2F1E04315
:100CF00024BFB3F5001CDCF1FE5C0DD901F0004C03
:100D00004FEAC0024CEA5070B2F1004F40EB830052
:100D100008BF20F00100704711F0804F21D113F17E
:100D20003872BCBF01F00040704741F480114FEAB7
:100D30005252C2F11802C2F1200C10FA0CF320FA40
:100D400002F018BF40F001004FEAC1234FEAD3235D
:100D500003FA0CFC40EA0C0023FA02F34FEA4303C7
:100D6000CCE77FEA625307D150EA01331EBF4FF050
:100D7000FE4040F44000704701F0004040F0FE406B
:100D800040F40000704700BF53B94AB9002908BFBA
:100D900000281CBF4FF0FF314FF0FF3000F074B956
:100DA000ADF1080C6DE904CE00F006F8DDF804E0C2
:100DB000DDE9022304B070472DE9F047089D0446A1
:100DC0008E46002B4DD18A42944669D9B2FA82F2FE
:100DD00052B101FA02F3C2F1200120FA01F10CFA3A
:100DE00002FC41EA030E94404FEA1C48210CBEFB72
:100DF000F8F61FFA8CF708FB16E341EA034306FBFB
:100E000007F199420AD91CEB030306F1FF3080F089
:100E10001F81994240F21C81023E63445B1AA4B2D6
:100E2000B3FBF8F008FB103344EA034400FB07F778
:100E3000A7420AD91CEB040400F1FF3380F00A81B9
:100E4000A74240F207816444023840EA0640E41BAE
:100E500000261DB1D4400023C5E900433146BDE85A
:100E6000F0878B4209D9002D00F0EF800026C5E9FC
:100E7000000130463146BDE8F087B3FA83F6002E14
:100E80004AD18B4202D3824200F2F980841A61EB8C
:100E9000030301209E46002DE0D0C5E9004EDDE7AA
:100EA00002B9FFDEB2FA82F2002A40F09280A1EB92
:100EB0000C014FEA1C471FFA8CFE0126200CB1FBE7
:100EC000F7F307FB131140EA01410EFB03F08842E0
:100ED00008D91CEB010103F1FF3802D2884200F26D
:100EE000CB804346091AA4B2B1FBF7F007FB1011FF
:100EF00044EA01440EFB00FEA64508D91CEB04049D
:100F000000F1FF3102D2A64500F2BB800846A4EBF7
:100F10000E0440EA03409CE7C6F12007B34022FAE2
:100F200007FC4CEA030C20FA07F401FA06F31C4311
:100F3000F9404FEA1C4900FA06F3B1FBF9F8200C1E
:100F40001FFA8CFE09FB181140EA014108FB0EF064
:100F5000884202FA06F20BD91CEB010108F1FF3AB4
:100F600080F08880884240F28580A8F102086144C0
:100F7000091AA4B2B1FBF9F009FB101144EA0141CE
:100F800000FB0EFE8E4508D91CEB010100F1FF3479
:100F90006CD28E456AD90238614440EA0840A0FB11
:100FA0000294A1EB0E01A142C846A64656D353D0E7
:100FB0005DB1B3EB080261EB0E0101FA07F722FA0B
:100FC00006F3F1401F43C5E9007100263146BDE834
:100FD000F087C2F12003D8400CFA02FC21FA03F397
:100FE000914001434FEA1C471FFA8CFEB3FBF7F018
:100FF00007FB10360B0C43EA064300FB0EF69E423D
:1010000004FA02F408D91CEB030300F1FF382FD2D5
:101010009E422DD9023863449B1B89B2B3FBF7F67D
:1010200007FB163341EA034106FB0EF38B4208D956
:101030001CEB010106F1FF3816D28B4214D9023E97
:101040006144C91A46EA004638E72E46284605E7B5
:101050000646E3E61846F8E64B45A9D2B9EB020886
:1010600064EB0C0E0138A3E74646EAE7204694E716
:101070004046D1E7D0467BE7023B614432E7304649
:1010800009E76444023842E7704700BF00000000EF
:101090002DE9F84F2DED068B8246B0EE408A0D46C5
:1010A000B0EE60AA006F081AFFF7ACFAE4A3D3E928
:1010B0000023FFF74BFCFFF717FE0446CAF87C003D
:1010C000CAF87050DAF85000FFF7BEFA06460F462D
:1010D000DAED168A78EE887A17EE900AFFF7B4FAFE
:1010E0000022D14BFFF708FB804689462046FFF7D8
:1010F000ABFA04460D4602460B4640464946FFF70A
:10110000FBFA80468946DAF874B05846FFF79CFA35
:1011100041EC190B42464B4630463946FFF736F94B
:10112000B0EE491AF0EE691A41EC100B09F058FEC6
:10113000B0EE409AF0EE609A8BF00040FFF784FA30
:1011400041EC110BB0EE490AF0EE690A09F020FEFD
:1011500051EC100BFFF7C8FDCAF8500078EE687A22
:1011600017EE900AFFF770FA06460F46ACA3D3E9D4
:10117000002320462946FFF709F902460B46304670
:101180003946FFF7E3FBFFF7AFFDCAF85C00CAED95
:10119000158A8AED168ADAF8806016F0100F29D0C9
:1011A000DAED267ADAED198A38EE687A67EE877A10
:1011B000CAED177A9AED187A77EE877A17EE900AC9
:1011C000FFF742FA0022984BFFF796FA02460B46C9
:1011D00020462946FFF790FA04460D4618EE900A7D
:1011E000FFF732FA22462B46FFF7D0F8FFF77CFDD7
:1011F000CAF8640016F0080F19D1DAF8803013F03D
:10120000010F03D0F0EEC87A28EE278A13F0020F00
:101210004ED0DFED867AB4EEE7AAF1EE10FA0FD8E1
:101220009AED000ADAED057A9AED0AAA46E09AEDFF
:10123000170A0AF1840000F05FFC8AED170ADCE768
:10124000DFED7B7AB4EEE7AAF1EE10FA06D89AED5C
:10125000010ADAED067A9AED0BAA2FE0DFED757A36
:10126000B4EEE7AAF1EE10FA06D89AED020ADAED2A
:10127000077A9AED0CAA21E0DFED6F7AB4EEE7AAC7
:10128000F1EE10FA06D89AED030ADAED087A9AED33
:101290000DAA13E0DFED697AB4EEE7AAF1EE10FAD9
:1012A00079D89AED040ADAED097A9AED0EAA05E0EA
:1012B0009AED000ADAED057A9AED0AAA13F0040F06
:1012C00074D028EE008AF0EEC8AADAED178A68EE2C
:1012D000A77AF0EEE77A17EE900AFFF7B5F941EC3E
:1012E000190B1AEE900AFFF7AFF9B0EE491AF0EEBB
:1012F000691A41EC100B09F073FD55EC104B0022FC
:10130000002310EE100A2946FFF786FC20B1F5EE07
:10131000C08AF1EE10FA45D420462946FFF7E4FCD6
:1013200007EE900A9AED140A20EE0A0A38EE008AB7
:1013300038EE278ADAF878402046FFF785F941EC45
:10134000190B18EE100AFFF77FF9B0EE491AF0EE0C
:10135000691A41EC100B09F043FDB0EE408AF0EE43
:10136000608A84F00040FFF76FF941EC110BB0EE9A
:10137000480AF0EE680A09F00BFD51EC100BFFF77C
:10138000B3FCCAF868009AED1A0A8AED1B0ABDEC94
:10139000068BBDE8F88FB7EE00AAF0EE4A7AB0EE01
:1013A0004A0A8BE705F100431D46B5E728EE008A9F
:1013B0009AED140A20EE0A0A38EE008A9AED177A9E
:1013C00067EE277A38EE278ADAF878402046FFF76A
:1013D0003BF941EC190B18EE100AFFF735F9B0EEA6
:1013E000491AF0EE691A41EC100B09F0F9FCB0EE65
:1013F000408AF0EE608A84F00040FFF725F941EC66
:10140000110BB0EE480AF0EE680A09F0C1FC51EC8D
:10141000100BFFF769FCCAF86800B4E7AFF300806F
:10142000956479E17FFDA53D0000E03F000070423A
:1014300000008C420000A0420000B4420000C842FC
:101440000000000080842E4101670023036543658E
:1014500083654366C3667047002310E000EB830C8E
:101460008CED000A03F1040C00EB8C0CCCED010AAE
:1014700003F10A0C00EB8C0C8CED001A0133042BE9
:10148000ECDDC0ED261A002343660366C3660167E0
:10149000C0ED1E2AC0F8802080ED1D2A7047000094
:1014A00008B50221014805F025FB08BD00100240E7
:1014B00008B5522001F004FAB5EE400AF1EE10FA38
:1014C00003D0214B00221A7008BD01F07FFF942049
:1014D00001F0F6F9F7EE007AB4EE670AF1EE10FAD1
:1014E00017D0962001F0ECF9F7EE007AB4EE670A17
:1014F000F1EE10FA16D0982001F0E2F9F7EE007A3A
:10150000B4EE670AF1EE10FA15D00F4B01221A70F3
:10151000DAE70E4803F03EF99FED0D0A942001F042
:10152000E7F9DEE7094803F077F99FED090A96200D
:1015300001F0DEF9DFE7054803F052FB9FED040AF6
:10154000982001F0D5F9E0E778070020681A00201C
:101550000000000008B501220549064801F0DCFA48
:1015600001224FF47A71044801F0D6FA08BD00BF99
:10157000A0860100A1140008B11400084278037885
:1015800043EA02230B80C278837843EA02234B802C
:1015900090F904300B718279437943EA0223CB80BE
:1015A000027AC37943EA02230B8190F909300B7365
:1015B00090F90A304B73027BC37A43EA02234B82D1
:1015C000827B437B43EA02238B8290F90F308B733B
:1015D00090F91030CB73827C437C43EA02234B8129
:1015E00090F913300B7490F914304B74704700006D
:1015F00030B587B004460D4633221B21772001F019
:101600005FFA0A2005F00CFB00221C21772001F074
:1016100057FA0A2005F004FB00221D21772001F073
:101620004FFA0A2005F0FCFA6B461522312177208B
:1016300001F022FA09496846FFF7A0FF0023636022
:101640000021E16000220023C4E90623C4E9042349
:10165000C4E90823A160256007B030BD88020020DE
:1016600010B4264C23881B02C01A61EB0101638869
:10167000A3FB002C03FB01CC00FB01F1A0FB00034A
:1016800003EB410394F90410CC1701FB03F300FBB7
:101690000433A1FB001018444FEA8C4343EA923311
:1016A0009204521840EB030310461A46002B1ADB33
:1016B000D31712498A61CB61901843EB030180185C
:1016C00043EB0101C90041EA5071C000801843EBAF
:1016D00001031946002B0ADB800B40EA8140891385
:1016E0005DF8044B7047013843F10002E0E743F630
:1016F000FF72801843F10001EEE700BF880200206E
:101700002DE9F04F83B0AD4B9A69D3F81C8002FBF2
:1017100008F3A2FB024101EB430123460D460029D9
:10172000C0F21A819B0943EA8563AD1102FB05F5FE
:1017300003FB0855A2FB03363544AC46002DC0F22E
:101740000F811D0A45EA0C654FEA2C2C2E469B4B57
:1017500093F90F304FEAE37E03FB0CF705FB0E75A0
:10176000A3FB06373D44AB46002DC0F2FD805B096C
:10177000DFF848A29AF90E704FEAE77E07FB01F501
:1017800004FB0E55A7FB04E72F443D0145EA1E75F7
:1017900001954FEA0E173D46BAF814E0A2FB0E97EA
:1017A0000EFB0877BF0547EA99274FEA8959BAF82F
:1017B00012E04FEACE3E43EACB630EEB6B1B5B19A4
:1017C000019D4BEB050B13EB09094BEB07079AF94E
:1017D0000D50EB1705FB0CFC06FB03CCA5FB0656D6
:1017E0006644B646002EC0F2C3806D09734E96F96A
:1017F0000CC04FEAEC7A0CFB01F304FB0A33ACFBA0
:1018000004410B449B0043EA9473A400B6F908100A
:101810004FEAE17CB1F580414CF1FF3C02FB0CFC4E
:1018200001FB08CCA2FB011AD4444FEA4C5C4CEA01
:10183000D12C4905B6F90660B6F58046B60345EAEF
:10184000CE6506EB6E162D1946EB03036D1843EBC0
:101850000C031C46002BC0F28F80290E41EA0421A4
:1018600023160446A1FB005100FB0311534B93F9CF
:1018700010C04FEAEC7602FB06F60CFB0868A2FBF0
:101880000C624244B3F90A304FEAE3784FEA084861
:1018900048EA13481B049B1942EB0802A0FB0338DB
:1018A00000FB02821646002A6CDB5B0B43EAC64350
:1018B0007213A4FB033600FB02663246002E67DB80
:1018C0005B0A561243EAC252A0FB00EC3B4B93F971
:1018D00011304FEAE37803FB0CFC0EFB08CCA3FBB2
:1018E0000E3EF444E646BCF1000F57DB1B0C43EA06
:1018F0000E434FEA2E4EA4FB034300FB0E3023465B
:101900000446002851DBDB094FEAE41C43EA446348
:101910003846002F4DDB4FEA990949EA807919EBE7
:10192000050941EBA00019EB020240EB0600D218BA
:1019300040EB0C00931840EB00069B1840EB0606AA
:10194000F60046EA5376DB009A1840EB0600000AE0
:10195000002103B0BDE8F08F3F3341F10005E1E61F
:10196000FF3345F1000CECE61F3345F1000BFEE6BA
:101970001F3546F1000E38E76FF07F416D1843F1D7
:1019800000046AE741F6FF769B1942F100068CE7F6
:1019900040F2FF129B1846F1000291E74FF6FF7EDE
:1019A00013EB0E034CF1000EA0E77F3340F100046F
:1019B000A9E719F1030947F10000ACE7880200200C
:1019C00010B582B0044601AB03220721772001F055
:1019D00053F89DF806009DF805301B0243EA0043CA
:1019E0009DF804001843FFF73BFEC4E9040102B070
:1019F00010BD10B582B0044601AB0322042177204C
:101A000001F03AF89DF806009DF805301B0243EA04
:101A100000439DF804001843FFF772FEC4E9060175
:101A200002B010BD00000000D0B504464368002B92
:101A30003FD063680133226893FBF2F102FB11335C
:101A400063602046FFF7D5FF226A636A134303D120
:101A5000D4E90623C4E90823D4E90601FEF71EFEF3
:101A600006460F46D4E90801FEF718FE02460B466B
:101A700030463946FEF76AFF9FED0F1B41EC100B15
:101A800009F08EFA53EC102B00200F49FEF77CFC76
:101A90000BA3D3E90023FEF72FFEFFF725F907EE8E
:101AA000900AE06094ED027A77EE877AC4ED037ACB
:101AB000D0BDFFF785FFBCE7EBE2361AC05BC83F3D
:101AC0000000000040A5E5400000F03FF0B583B005
:101AD00004460D4616461F460421284606F082FAA3
:101AE00020610123019300903B463246A9B2204673
:101AF0000BF078FD03B0F0BD00B585B08DED010AA7
:101B0000012303AA01A90BF07DFD9DED030A05B099
:101B10005DF804FB38B504460D46416080ED041ABB
:101B2000C0ED051AC0ED020A80ED030A4FF07E53A6
:101B300083610023836243620362C36183634363FF
:101B40000363C3620421284606F04CFA2060002398
:101B5000E363A9B204F144000BF02CF804F12C0368
:101B600004F11802012104F15C000BF045FE38BDC0
:101B700010B5044610EE100AFEF766FD30A3D3E957
:101B80000023FEF7B9FDFFF7AFF805EE100AD4ED1C
:101B9000057A77EEA77A67EE857A25EE057A77EEF5
:101BA000877AD4ED026AF7EE004AC4EEA65A94EDA5
:101BB000046AC4EE866A76EE266A66EE856A27EEC9
:101BC000A54A24EE254AF1EE004A34EE244A76EE88
:101BD000A66A66EEA56A36EEA45A27EE256A26EEB8
:101BE000256A35EE065AC4EE053AC4ED063A77EE9C
:101BF000A77A67EEA57A67EEA57AB2EE004A77EE8D
:101C0000C47A87EE853A84ED073AC4ED083A37EE98
:101C1000077A67EE257A67EEA57A77EEC47AF1EE59
:101C2000677A87EE857A84ED097A74EEE66A36EE95
:101C3000266AB1EE466AC6EE057AC4ED0A7A10BD90
:101C4000182D4454FB2119402DE9F0432DED028B52
:101C500085B000AF044687ED010A012307F10C02AD
:101C6000391D5C300BF0D6FDFA687A602368E16BB1
:101C7000481CE06303EB81031A60E26B63689A42DD
:101C800007D097ED030A1437BD46BDEC028BBDE8C3
:101C9000F083E8469B00073323F00703ADEB030D09
:101CA0006946ADEB030D6E46002308E0226802EBA7
:101CB0008302106801EB8302106001339BB26268FB
:101CC0009342F3DB0023324604F144000BF026F884
:101CD00000250DE04FEA6309B5EEC00AF1EE10FAF7
:101CE0001DDB09F069FA06EB890383ED000A023572
:101CF00063689D4218DA06EB850393ED000A20EE37
:101D0000000A6B1C06EB8303D3ED007A67EEA77A1B
:101D100030EE270A2B46002DDCDA6B1CDAE706EBE7
:101D2000890300221A60E2E7002210E0B7EE007A91
:101D300006EB8201D1ED007A27EE277A07EE903A82
:101D4000F8EEE77AC7EE276AC1ED006A01326368F0
:101D50001946002B08DB4D10B2EB610F06DA002AA2
:101D6000E4DDB0EE007AE3E7591CF4E7D4ED037A42
:101D700007EE103AB8EEC78A67EE887AD4ED028A89
:101D8000C7EEA87A17EE900AFEF75EFC41EC100B46
:101D900009F078F851EC100BFEF75EFF9FED147A16
:101DA000144B83ED007A00E00130A84216DA06EB0E
:101DB0008003D3ED007AB4EEE77AF1EE10FAF3D5B2
:101DC00007EE100AB8EEC77A27EE287AC7EE086A3F
:101DD000084BC3ED006AB0EE677AE5E7054B93ED7B
:101DE000000A2046FFF7C4FE0023E363C54648E728
:101DF00000000000A802002080ED000AC0ED010AEA
:101E000080ED021A0023C36070470000000000004C
:101E1000D0B52DED028B044690ED038AD0ED007A0B
:101E200028EE278AD0ED017A67EE807A38EE278A8D
:101E300070EE487A17EE900AFEF706FC9FED1A1B2B
:101E400041EC100B08F0CCFF9FED191B08F0A0FF30
:101E500051EC100BFEF748FF07EE900AF0EEE76A30
:101E600094ED027AF4EEC76AF1EE10FA13DDFEF794
:101E7000EBFB0022104BFEF769FD06460F4618EEFD
:101E8000100AFEF7E1FB32463B46FEF77FFAFEF70B
:101E90002BFF08EE100A84ED038AB0EE480ABDEC71
:101EA000028BD0BDAFF30080000000000000F03FC7
:101EB000000000000000F0BF0000184038B50446E4
:101EC0000D460421284606F08DF8A0602560002309
:101ED00063600023E36038BD8368426803EB8203DC
:101EE00093ED007AD0ED037A77EEC77AC0ED037AEE
:101EF00083ED000A836841684A1C426003EB81035A
:101F000093ED000AD0ED037A30EE270A80ED030A44
:101F1000036892FBF3F103FB1122426007EE903A53
:101F2000F8EEE77A80EE270A70470000F6EE007AB6
:101F300060EE277A10EE103A074AA2EB630307EE31
:101F4000103A67EE277A67EE277AB7EE080A30EE86
:101F5000670A27EE000A7047DF59375FF8B52DEDA5
:101F6000068BF0EE408AB0EE609AB0EE418AF0EE59
:101F700061AAB0EE42AAF0EE629AF5EE401AF1EED6
:101F800010FA14BF01230023B5EE402AF1EE10FA37
:101F900018BF43F001032BB9F5EE402AF1EE10FA19
:101FA00000F0A7806AEEAA7A2AEE0A0A77EE807A13
:101FB00029EEA90A37EE800AFFF7B8FF6AEE80AA79
:101FC0002AEE00AA69EE809A974890ED002A974B76
:101FD000D3ED007A22EE272A954AD2ED007A954970
:101FE00091ED007A67EE877A32EE672AD2ED001A19
:101FF000D0ED007A61EEA71AD1ED007A93ED007A68
:1020000067EE877A71EEA71AD2ED007A92ED007A28
:1020100067EE877AB6EE007A77EEC77A93ED007AAC
:10202000D3ED006A27EE267A77EE877A6AEE276A82
:1020300029EEA17A36EEC77A69EE829A6AEEA77A1D
:1020400079EEE79A6AEEA1AA2AEE02AA3AEECAAAA5
:10205000794BD3ED007AF5EEC07AF1EE10FA40F349
:10206000DB80D3ED006A66EE876A9FED746A66EEE8
:10207000866A7349D1ED007A77EEA66AC1ED006AEF
:10208000D3ED006A66EEA96A66EE866A6D4AD2ED05
:10209000007A77EEA66AC2ED006AD3ED007A67EEA9
:1020A0008A7A67EE867A684BD3ED006A76EEA77A75
:1020B000C3ED007AD1ED007A78EEA78AD2ED007AEE
:1020C00039EE279AD3ED007A38EE278A5F4BD3EDAD
:1020D000007A27EE877A78EE878AD3ED007A67EE6A
:1020E000A99A39EE299AD3ED00AA2AEE8AAA38EEE7
:1020F0000A8ADFED577A68EEA78A29EE279A28EE3A
:10210000271A4B4FD7ED006A474E96ED007A494D9E
:1021100095ED000A67EE687A29EE006A77EEC67AD6
:10212000424C94ED006A26EE016A77EEC67A97ED8E
:10213000006A76EE277AC7ED007A68EEA67A21EE7D
:10214000006A77EE867A94ED006A26EE096A77EEE9
:10215000C67A96ED006A76EE277AC6ED007A69EEC9
:10216000267A21EE076A77EEC67A94ED006A26EEAB
:10217000286A77EE867A95ED006A76EE277AC5EDC5
:10218000007A21EE261A29EE079A31EE091A68EE36
:10219000808A31EE681AD4ED007A31EE271A84ED88
:1021A000001AD7ED007A97ED000A67EE807A96ED77
:1021B000000A96ED007A20EE070A77EE807A95ED18
:1021C000000A95ED007A20EE070A77EE807A94ED0A
:1021D000000A94ED007A20EE070A37EE800AFFF736
:1021E000A5FED7ED007A67EE807AC7ED007AD6EDCE
:1021F000007A67EE807AC6ED007AD5ED007A67EE58
:10220000807AC5ED007AD4ED007A27EE800A84ED5D
:10221000000ABDEC068BF8BD0023094A1360094A89
:102220001360094A136051E7B8020020C002002081
:1022300000000020BC020020C40200206F12033BFB
:10224000AC020020B0020020B402002004000020F4
:102250006F12833AF0B52DED108B87B0F0EE409AF7
:10226000B0EE60AAB0EE418AF0EE618AF0EE42BABA
:10227000B0EE62CAB0EE439AF0EE63AAB0EE44BA92
:10228000B5EE403AF1EE10FA0CBF01230023F5EE53
:10229000403AF1EE10FA03F0010318BF00232BB10E
:1022A000B5EE404AF1EE10FA00F00E82B4EE6A9AF2
:1022B000F1EE10FA80F10882B4EE4BBAF1EE10FAAA
:1022C00080F10282F5EE408AF1EE10FA14BF01238C
:1022D0000023F5EE40BAF1EE10FA18BF43F0010307
:1022E0002BB9B5EE40CAF1EE10FA00F0598168EE54
:1022F000A87A2BEEAB0A77EE807A2CEE0C0A37EE3A
:10230000800AFFF713FE68EE806ACDED026A6BEE7D
:10231000805ACDED035A2CEE005A8DED045A69EE29
:10232000097A2AEEAA0A77EE807A2BEE0B0A37EEAC
:10233000800AFFF7FBFD29EE009A6AEE80AA6BEE99
:10234000008AED4B93ED007AD3ED007A67EE277AA1
:10235000CDED057AD3ED00EAE849D1ED007A6EEED5
:10236000A7EA93ED00FAE64AD2ED007A2FEE27FABB
:1023700093ED007AE34BD3ED007A67EE277A91ED87
:1023800000CA91ED007A2CEE07CAD1ED006A92EDF9
:10239000007A66EE876AD1ED00BA93ED007A6BEEB3
:1023A00087BA92ED00EA92ED007A2EEE07EA92EDFE
:1023B00000BA93ED007A2BEE07BAD3ED00DA93ED75
:1023C000007A6DEE87DAF6EE00FA7FEECECA7CEE8A
:1023D000EDCA2CEE897A36EEE7DA2DEE2A6A37EE70
:1023E000067A3FEE2B6A8DED016A26EE286A37EEFB
:1023F000067A37EE077A77EEA67A67EE897A3FEEAD
:10240000CCCA7CEE6D6A66EEAA6A77EEA67A7BEE9F
:102410006E6A66EEA86A77EEA67A77EEA77A27EE5E
:10242000077A67EEA77A37EE277A17EE100AFEF7DB
:102430000BF941EC100B08F085FE51EC100BFEF788
:1024400053FC07EE100A7BEECFBA6BEE897A3EEEB4
:102450008BBA6BEE2A6A77EEA67A3CEE4ECA2CEE69
:1024600028EA77EE8E7A77EEA77ADDED054A74EEEC
:10247000EFFA7FEEADDA6CEE87CA6BEEA76A7CEE00
:10248000A6CA2DEE07DA6BEE276A3DEE26DA9DED41
:10249000016A26EE077A6CEE277A77EE277ADDED71
:1024A000035A65EEAD6A9DED045A2BEE057A76EE81
:1024B000C76A2AEEA77A28EE8D6A37EE467A36EE9C
:1024C000877A6BEE852ADDED026A66EEADDA72EE92
:1024D000EDDA68EEAC8A69EE277A78EEE78A7DEE6F
:1024E000A88A2BEE26BA6BEEA5BA3BEE6BBA29EEA4
:1024F0000D9A6AEEACAA39EE6A9A3BEE09BA824BA3
:10250000D3ED007AF5EEC07AF1EE10FA40F3EB80ED
:10251000D3ED006A66EE876A9FED7C6A66EE866A96
:102520007B49D1ED007A77EEA66AC1ED006AD3ED62
:10253000006A66EEA86A66EE866A764AD2ED007A8E
:1025400077EEA66AC2ED006AD3ED007A67EE8B7A69
:1025500067EE867A704BD3ED006A76EEA77AC3ED0C
:10256000007AD1ED007A79EEA79AD2ED007A3AEEB0
:1025700027AAD3ED007A38EE278A684BD3ED007A8C
:1025800067EE877A79EEA79AD3ED007A67EEA88A8C
:102590003AEE28AA93ED009A29EE0BBA38EE0B8A90
:1025A0009FED5F1A69EE819A2AEE01AA28EE018A50
:1025B000514F97ED001A514ED6ED000A504D95ED52
:1025C000000A60EEE97A2AEE007A77EEC77A4D4C7F
:1025D00094ED007A27EE087A77EEC77A97ED007AC5
:1025E00077EE277AC7ED007A69EE817A28EE007AD5
:1025F00077EE877A94ED007A27EE0A7A77EEC77A3B
:1026000096ED007A77EE277AC6ED007A6AEE017AC7
:1026100028EE207A77EEC77A94ED007A27EE297AB1
:1026200077EE877A95ED007A77EE277AC5ED007A16
:1026300028EE018A2AEE20AA38EE0A8A69EE809AEC
:1026400038EE698AD4ED009A38EE298A84ED008A42
:10265000D7ED007A97ED000A67EE807A96ED000AD2
:1026600096ED007A20EE070A77EE807A95ED000A63
:1026700095ED007A20EE070A77EE807A94ED000A55
:1026800094ED007A20EE070A37EE800AFFF74EFC41
:10269000D7ED007A67EE807AC7ED007AD6ED007A42
:1026A00067EE807AC6ED007AD5ED007A67EE807A23
:1026B000C5ED007AD4ED007A27EE800A84ED000A99
:1026C00007B0BDEC108BF0BDF0EE4C2AB0EE6B2ADB
:1026D000F0EE681AB0EE481AF0EE4A0AB0EE690A57
:1026E000FFF73CFCECE70023094A1360094A13603A
:1026F000094A136041E700BF00000020B802002033
:10270000BC020020C0020020C40200206F12033B64
:10271000AC020020B0020020B4020020040000201F
:102720006F12833A2DE9F0412DED048B0446DFF85A
:102730007081D8ED007A564D95ED007A67EE877A74
:10274000544E96ED007A544FD7ED006A27EE267A64
:1027500077EE877A37EEA78AD5ED007A95ED007A85
:1027600067EE877A96ED007AD6ED006A27EE267A34
:1027700077EE877A77EEA77AF7EE008A78EEE77A37
:1027800017EE900AFDF760FF41EC190B18EE100AE6
:10279000FDF75AFFB0EE491AF0EE691A41EC100B42
:1027A00008F0FCFB51EC100BFEF79EFA2060D8ED10
:1027B000007A96ED007A67EE877A97ED007AD5ED8C
:1027C000006A27EE267A77EEC77A77EEA77AB0EE20
:1027D000E77AB4EEE87AF1EE10FA4BDBF5EEC07A68
:1027E000F1EE10FA44D42D4B63602D4BD3ED007AFB
:1027F000294B93ED007A67EE877A254A92ED007AAD
:10280000244AD2ED006A27EE267A77EE877A37EEF1
:10281000A78AD2ED007A92ED007A67EE877A93ED7F
:10282000007AD3ED006A27EE267A77EE877A77EE84
:10283000A77AB7EE007A77EE677A17EE900AFDF77F
:1028400003FF41EC190B18EE100AFDF7FDFEB0EE88
:10285000491AF0EE691A41EC100B08F09FFB51EC9D
:10286000100BFEF741FAA060BDEC048BBDE8F081CF
:102870000C4BB9E717EE900AFDF7E6FE41EC100BA2
:1028800008F050FB51EC100BFEF72EFA6060ACE73D
:10289000B8020020BC020020C0020020DB0FC93FAC
:1028A00000000020DB0FC9BF10EE103A0360704734
:1028B00082B00368019300EE103A02B07047000046
:1028C00000B583B0002308E0084A02EB8002D15C27
:1028D00002AA1A4402F8041C0133032BF4DD01A8F8
:1028E000FFF7E6FF03B05DF804FB00BFC80200205D
:1028F00010B582B0044601A8FFF7D6FF002308E018
:1029000002AA1A4412F8041C044A02EB8402D154AD
:102910000133032BF4DD02B010BD00BFC80200205C
:102920002DE9F84F2DED048BF0EE408AB0EE608A71
:10293000B4EEE00AF1EE10FA3EDD30EE609A19EEE8
:10294000100AFDF781FE82468B4618EE900AFDF7CD
:102950007BFE06460F4602460B462FA1D1E9000139
:10296000FDF712FD8046894618EE100AFDF76CFE51
:1029700004460D4602460B4640464946FDF706FD15
:1029800002460B4650465946FEF746F970B122A35F
:10299000D3E9002330463946FDF7F6FC22462B46A4
:1029A000FDF7F2FCFEF7A0F909EE100AB0EE490AB5
:1029B000BDEC048BBDE8F88F70EEC07A17EE900A7C
:1029C000FDF742FE06460F4618EE100AFDF73CFEE4
:1029D00002460B4610A1D1E90001FDF7D5FC0446E3
:1029E0000D4618EE900AFDF72FFE22462B46FDF706
:1029F000CDFC04460D4602460B4630463946FEF7EE
:102A00000BF930B120462946FEF76EF909EE100A9F
:102A1000CCE738EEC89AC9E7182D4454FB21194079
:102A2000D0ED007A30EE670AB0EEC07AB4EEE07A0C
:102A3000F1EE10FA10DBF5EEC00AF1EE10FA04DD4B
:102A4000B5EEC00AF1EE10FA10D4F5EEC00AF1EEC0
:102A500010FA06D4B0EE600A37EE800A80ED000A64
:102A60007047B5EEC00AF1EE10FA02DDB1EE600A71
:102A7000F2E7B0EE600AEFE72DE9F04184B00446DA
:102A800016461D468DF80F100C4F4FF47A78CDF88E
:102A9000008001230DF10F0200FA03F1384604F023
:102AA00073FA6100CDF8008033462A4641F00101F7
:102AB000384604F027FB04B0BDE8F0812C1B002051
:102AC00000B585B08DF80C108DF80D2042F2107312
:102AD0000093022303AA4100024804F055FA05B00E
:102AE0005DF804FB2C1B002008B5034B1B685B6AD8
:102AF00043600369984708BDE01C0020054B1B6834
:102B00005B6A42689B1A0068834294BF00200120E0
:102B1000704700BFE01C002030B5094D2B68094C00
:102B200003EB830E04EB8E0C44F82E10CCF8082037
:102B30000022CCF80C205A1C2A60CCF8100030BDC2
:102B40004C0F00207C070020F8B532E00134224B06
:102B50001B68A34210DD04EB8400204B03EB8000D4
:102B60008368C7681F44FFF7C9FF0028EED0BE4244
:102B7000ECDA25463E46E9E7002408E004EB84034E
:102B8000164A02EB8303DA680132DA600134124B31
:102B90001B68A3420BDD04EB8403104800EB8300A9
:102BA000FFF7ACFF0028F1D0A542E7D1EEE7002DFA
:102BB00004DA00244FF0FF352646C8E7074CAE0084
:102BC00005EB850004EB8000FFF78EFF354404EB36
:102BD00085040023E360ECE74C0F00207C07002015
:102BE00070B52DED028B304BD3ED000A2F4B93EDDA
:102BF000000AFFF795FE2E4C2368596A9FED2D8A37
:102C0000F0EE480A2C48FEF743FA2C4E86ED000AF7
:102C10002B4BD3ED000A2B4B93ED000AFFF780FE00
:102C20002368596AF0EE480A2748FEF731FA274D23
:102C300085ED000A264BD3ED000A264B93ED000AE2
:102C4000FFF76EFE2368596AF0EE480A2248FEF745
:102C50001FFAB1EE400A214C84ED000A96ED000AFD
:102C60008220FFF745FE95ED000A8420FFF740FE25
:102C700094ED000A8620FFF73BFE194B1B7813B931
:102C8000BDEC028B70BD0A4C2368596A0A48FEF7F6
:102C9000DBFB2368596A0C48FEF7D6FB2368596AA8
:102CA0000D48FEF7D1FBEBE7FC1A0020F4100020E2
:102CB000E01C002000000000541000203C12002006
:102CC000F81A002050100020B00F002098110020AA
:102CD000081B0020BC1400201C140020E01200205F
:102CE0007807002070B52DED028B484D2B68596A8E
:102CF000474C484B93ED000AD4ED000AB1EE400A70
:102D00004548FEF7C5F9454B83ED000A2B68596A23
:102D1000434B93ED000AD4ED000AB1EE400A41485E
:102D2000FEF7B6F9404B83ED000A5220FFF7C8FDCD
:102D3000B0EE408A5E20FFF7C3FDF0EE400A3B4E46
:102D4000B0EE480A3046FFF76BFE2B68596A96EDE5
:102D5000000A374BD3ED007ADFED360A30EE670A12
:102D60003548FEF795F9B0EE408A4620FFF7A8FDFA
:102D700038EE000A314B83ED000ADFED310A2046C0
:102D8000FFF74EFE22682F4B1A604820FFF798FD90
:102D90009FED2D8A2D4BD3ED007AF0EE480A30EEF0
:102DA000270A2B48FFF73CFE4A20FFF789FD294BF5
:102DB000D3ED007AF0EE480A30EE270A2648FFF7F6
:102DC0002FFE4C20FFF77CFD244BD3ED007A30EE34
:102DD000270A234B83ED000A224B1B7813B9BDEC65
:102DE000028B70BD0023236033602B68596A0A4848
:102DF000FEF72AFB2B68596A0A48FEF725FB2B6869
:102E0000596A0D48FEF720FBE9E700BFE01C0020EF
:102E1000500F0020001B0020E4120020740F00203F
:102E2000041B0020801300207C0F00205C15002074
:102E30000C1B002000000000C0140020580F0020D0
:102E4000CDCC4C3E540F00208FC2753CF0100020BA
:102E5000F41000204C10002050100020B814002066
:102E6000BC140020780700202DE9F04F2DED088BD1
:102E700085B0F0EE40AA6A4B93ED00BA8DED00BA32
:102E8000684B1B680193684B1B680293674B1B6878
:102E900003934FF0000AB7EE008A60E004AB03EB47
:102EA0008A0353ED048A38EEAAAADFED617A3AEE7E
:102EB00067AAF1EE687A77EEEA7A17EE900AFDF7E4
:102EC000C3FB41EC190B1AEE100AFDF7BDFBB0EE87
:102ED000491AF0EE691A41EC100B07F059FF9FED0B
:102EE0004C1B07F055FF51EC100BFDF7FDFE834620
:102EF00018EE900AFDF7A8FB04460D46F0EEE87ABE
:102F000017EE900AFDF7A0FB06460F465846FDF760
:102F10009BFB02460B4630463946FDF735FA3EA389
:102F2000D3E90023FDF732FA02460B462046294634
:102F3000FDF70CFD804621F0004918EE100AFDF760
:102F400083FB49EC118B41EC100B07F021FF51EC96
:102F5000100BFDF7C9FE08EE100A0AF1010ABAF1DA
:102F6000030F9BDDCBEE087A77EEAA7A17EE900A74
:102F7000FDF76AFB41EC100B08F0E4F851EC100B84
:102F8000FDF7B2FE264B1860264C94ED007AC7EE92
:102F9000087A77EEAA7A17EE900AFDF755FB41EC16
:102FA000100B08F0CFF851EC100BFDF79DFE2060E0
:102FB0001D4C94ED007AC7EE087A77EEAA7A17EEE8
:102FC000900AFDF741FB41EC100B08F0BBF851EC07
:102FD000100BFDF789FE2060144C94ED007AC7EECB
:102FE000087A77EEAA7A17EE900AFDF72DFB41ECEE
:102FF000100B08F0A7F851EC100BFDF775FE2060E0
:1030000005B0BDEC088BBDE8F08F00BFAFF30080CA
:10301000000000000000000048AFBC9AF2D77A3EE2
:103020005C0F0020600F0020640F0020680F00205C
:1030300000401C46000000002DE9F8432DED068BF2
:10304000C74B93ED007AC74BD3ED007A9FEDBEAB33
:1030500077EE677A17EE900AFDF7F6FAB0EE4A1AA5
:10306000F0EE6A1A41EC100B07F0BAFE9FEDB89B28
:10307000B0EE491AF0EE691A07F08AFE51EC100B17
:10308000FDF732FE08EE100AB74B1860B74B93ED10
:10309000007AB74BD3ED007A77EE677A17EE900A95
:1030A000FDF7D2FAB0EE4A1AF0EE6A1A41EC100BB4
:1030B00007F096FEB0EE491AF0EE691A07F068FEC6
:1030C00051EC100BFDF710FEAA4E3060AA4B93EDA9
:1030D000007AAA4BD3ED007A77EE677A17EE900A62
:1030E000FDF7B2FAB0EE4A1AF0EE6A1A41EC100B94
:1030F00007F076FEB0EE491AF0EE691A07F048FEC6
:1031000051EC100BFDF7F0FDDFF8B892C9F80000A4
:103110009B4C2368596ADFED9B8ADFF8A482F0EEAE
:10312000680AB0EE480A4046FDF7B2FF964D85EDBD
:10313000000A2368596A954FF0EE680A96ED000A76
:103140003846FDF7A5FF924E86ED000A2368596ABE
:10315000F0EE680A99ED000A8E48FDF799FF8E4C53
:1031600084ED000A98ED170A8820FFF7C1FB97ED60
:10317000170A8A20FFF7BCFB95ED000A3A20FFF7FB
:10318000B7FB96ED000A3C20FFF7B2FB94ED000A76
:103190003E20FFF7ADFBDFF8308298ED000A4420B7
:1031A000FFF7A6FBD6ED006AD5ED007A36EEE76AAA
:1031B00094ED007A36EE076A784F87ED006A36EEB6
:1031C000A76A36EE476A764E86ED006A37EEE66A03
:1031D00037EE066A734D85ED006AF1EE677A77EE99
:1031E000E67A77EEC77A704CC4ED007A98ED000A63
:1031F00020EE000AFFF738FE97ED000A8C20FFF75B
:1032000077FB96ED000A8E20FFF772FB95ED000A22
:103210009020FFF76DFB94ED000A9220FFF768FB0A
:10322000624B1B78002B73D19FED4B9B5B4B186857
:10323000FDF70AFAB0EE491AF0EE691A41EC100BEC
:1032400007F0A6FD9FED408BB0EE481AF0EE681A2D
:1032500007F0C6FD51EC100BFDF746FD00EE100A1D
:10326000534800F091FA4E4B1868FDF7EDF9B0EEB7
:10327000491AF0EE691A41EC100B07F089FDB0EE27
:10328000481AF0EE681A07F0ABFD51EC100BFDF791
:103290002BFD00EE100A474800F076FA414B186803
:1032A000FDF7D2F9B0EE491AF0EE691A41EC100BB5
:1032B00007F06EFDB0EE481AF0EE681A07F090FDC8
:1032C00051EC100BFDF710FD00EE100A3A4800F02B
:1032D0005BFA354B1868FDF7B7F9B0EE491AF0EE16
:1032E000691A41EC100B07F053FDB0EE481AF0EEEE
:1032F000681A07F075FD51EC100BFDF7F5FC00EEB8
:10330000100A2E4800F040FABDEC068BBDE8F883A9
:10331000C4ED008AC5ED008AC6ED008AC7ED008ABB
:10332000174C2368596A2648FEF78EF82368596AB5
:103330001648FEF789F82368596A1648FEF784F89C
:1033400072E700BFAFF300800000000000005940AA
:1033500000000000000059C0000000000000000054
:103360003C120020181A002038120020981100206A
:103370001C1A002094110020E0120020201A0020C6
:10338000E01C002000000000700F0020F81000205A
:103390006C0F002040120020780F00205C0F0020EE
:1033A000600F0020640F0020680F002078070020C5
:1033B000980F0020800F00208C0F0020A40F002009
:1033C0009C110020DC120020540F002010B5622058
:1033D000FFF776FAFDEEC07A17EE904A6420FFF709
:1033E0006FFA002CC0F29980BDEEC00A10EE103AC0
:1033F000052B7DD8DFE803F00326497C7C6C84B97B
:103400000A20FFF75DFA454C84ED000A0C20FFF717
:1034100057FA84ED0A0A0E20FFF752FA84ED050AE6
:1034200066E00A20FFF74CFA3D4C84ED000A0C20C0
:10343000FFF746FA84ED0A0A0E20FFF741FA84ED01
:10344000050A55E084B91020FFF73AFA354C84EDAF
:10345000000A1220FFF734FA84ED0A0A1420FFF75D
:103460002FFA84ED050A43E01020FFF729FA2E4CCD
:1034700084ED000A1220FFF723FA84ED0A0A1420D3
:10348000FFF71EFA84ED050A32E084B91620FFF733
:1034900017FA264C84ED000A1820FFF711FA84ED84
:1034A0000A0A1A20FFF70CFA84ED050A20E016201C
:1034B000FFF706FA1E4C84ED000A1820FFF700FA09
:1034C00084ED0A0A1A20FFF7FBF984ED050A0FE0E4
:1034D0002820FFF7F5F9174C84ED000A2A20FFF7A2
:1034E000EFF984ED0A0A2C20FFF7EAF984ED050ACA
:1034F0009A20FFF7E5F90E4B83ED260A0A4B83ED80
:10350000260A074B83ED260A084B83ED260A054B56
:1035100083ED260A014B83ED260A10BD54100020CE
:103520009C110020B00F0020F81000201C14002077
:1035300040120020C014002010B52DED048B784CF3
:103540002368343300222146764800F03FF923688F
:10355000383304222146744800F038F9734C23684C
:103560003C3308222146724800F030F9236840338A
:103570000C2221466F4800F029F9DFED6F8A9FED9C
:103580006F8A0022F2EE0E2AB0EE682AF7EE001AD9
:103590001146B0EE481AF0EE480AB0EE480A684804
:1035A000FDF75AFF9FED679A0022F0EE492AB0EE30
:1035B000682AF7EE001A1146B0EE481AF0EE480AF3
:1035C000B0EE480A6048FDF747FF0022F0EE492AB6
:1035D000B0EE682AF7EE001A1146B0EE481AF0EE87
:1035E000480AB0EE480A5948FDF736FF584C2368A0
:1035F000596A9FED589ADFED589ADFED588A0022FC
:10360000F0EE492AB0EE692AF0EE681AB0EE481AD8
:10361000F0EE480AB0EE480A5148FDF71DFF236856
:10362000596A0022F0EE492AB0EE692AF0EE681AD3
:10363000B0EE481AF0EE480AB0EE480A4948FDF7E5
:103640000BFF2368596A0022F0EE492AB0EE692A7E
:10365000F0EE681AB0EE481AF0EE480AB0EE480AEA
:103660004148FDF7F9FE2368596ADFED409A0022D0
:10367000F0EE692AB0EE492AF0EE681AB0EE481A68
:10368000F0EE480AB0EE480A3948FDF7E5FE236837
:10369000596A0022F0EE692AB0EE492AF0EE681A63
:1036A000B0EE481AF0EE480AB0EE480A3148FDF78D
:1036B000D3FE2368596A0022F0EE692AB0EE492A47
:1036C000F0EE681AB0EE481AF0EE480AB0EE480A7A
:1036D0002948FDF7C1FEBFEE000A6220FFF708F996
:1036E000BFEE000A6420FFF703F9B0EE680A9A20E3
:1036F000FFF7FEF801224FF47A712048FFF70CFA29
:1037000001224FF4FA611E48FFF706FA012242F245
:1037100010711C48FFF700FABDEC048B10BD00BF10
:10372000481C0020800F00208C0F0020941C0020DB
:10373000980F0020A40F00200050C3470000000095
:10374000C0140020EC51B83DE4120020801300208A
:10375000E01C00200000A042C3F5483F00004842A2
:1037600054100020B00F00201C14002000803B45A6
:103770009C110020F8100020401200203930000871
:10378000E12B0008E52C000810B5044610EE100AE5
:10379000FCF75AFF0AA3D3E90023FCF7ADFF002290
:1037A000094BFDF7D3F806A3D3E90023FCF7EEFDA0
:1037B000A468FDF779FA206010BD00BFAFF3008068
:1037C00000000000006AC8400000594010B50446DF
:1037D0000846114620606260A36002F07DF99FED0B
:1037E000030A2046FFF7D0FF10BD00BF0000000015
:1037F000F8B505460E461746016042600421304682
:1038000004F0F0FBA860042107FB06F004F0EAFBDB
:10381000E860002308E007FB03F4EA6802EB840495
:10382000AA6842F823400133B342F4DBF8BD00003C
:1038300010B5864614464FF0000C27E08A6852F80F
:103840002C2002EB8302D2ED007AA26852F82320EA
:1038500002EB8002D2ED006A67EEA67A37EE277A95
:1038600001334A689A42E9DCDEF8083053F82C301C
:1038700003EB800383ED007A01306368834203DD4C
:1038800000239FED057AECE70CF1010C0B68634512
:1038900001DD0020F1E710BD0000000010B5044676
:1038A00008464FF0000E12E0826852F82E10A2680F
:1038B00052F8232002EB8E0201EB830CDCF800109F
:1038C0001160013342689A42EEDC0EF1010E03688A
:1038D000734501DD0023F5E710BD836853F82130FF
:1038E00003EB820383ED000A7047836853F82130AD
:1038F00003EB820393ED000A704710B5044680681D
:1039000004F0A4FBE06804F0A1FB10BD2DE9F04138
:103910002DED028B06460F46904600253AE0B26830
:1039200052F8241001EB830CDCED007A52F82520CC
:1039300002EB830292ED007A27EE267A77EEC77AC1
:10394000CCED007A0133022BE9DDBA6852F824305D
:10395000D3ED007A52F8252092ED007A67EE266AC0
:1039600077EEE66AC3ED006A0134022C11DCA54251
:10397000FAD02A4621463046FFF7B7FFB0EE408A1C
:103980002A4629463046FFF7B0FFC8EE006A0023FA
:10399000D9E70135022D01DC0024E6E7002314E01D
:1039A000BA6852F82320D2ED006AB26852F8232098
:1039B00002EB830292ED007AD8F8082052F8232017
:1039C000C6EE877AC2ED007A0133022BE8DDBDEC4A
:1039D000028BBDE8F0812DE9F04F83B005460191DF
:1039E00090461F460026B146B3461EE00BF1010B80
:1039F0004FF0000901346B68A34215DD464518BF3E
:103A0000BC42F7D009F1010A224631462846FFF7A9
:103A10006CFF4A4659460198FFF75FFF2B68013B50
:103A20005345E3D0D146E5E701362B68B34201DDCB
:103A30000024E0E703B0BDE8F08F0000F0B52DED05
:103A4000028B85B005460168436899420CD0002777
:103A500001290BD001390A466846FFF7C9FE002448
:103A60000126DFED198A23E00F46F1E70022114617
:103A70002846FFF73AFFF0EE408A1EE02346002278
:103A800069462846FFF7A7FF224600212846FFF790
:103A90002CFF07EE906AB8EEE78A28EE008A6846A7
:103AA000FFF7CCFF28EE008A78EE888A7642013450
:103AB000A742E3DC6846FFF720FFB0EE680A05B0D6
:103AC000BDEC028BF0BD00BF000000002DE9F0410D
:103AD0002DED028B84B007468846066843689E42F7
:103AE00009D1012E08D1B7EE000A00221146404646
:103AF000FFF7F3FE2DE00026711E0A466846FFF729
:103B000077FE00251EE09FED158A6846FFF796FFB9
:103B1000B8EEC88A28EE000A2A4621464046FFF73A
:103B2000DCFE0134A6420CDD23462A4669463846AF
:103B3000FFF751FF2B1913F0010FE4D19FED088A15
:103B4000E3E70135AE4201DD0024EBE76846FFF70D
:103B5000D4FE04B0BDEC028BBDE8F081FFFFFFFF97
:103B600001000000F0B52DED028B85B007460E4632
:103B70000846FFF763FFB5EE400AF1EE10FA04D1F4
:103B8000002005B0BDEC028BF0BDB0EE408A72683B
:103B900031686846FFF72CFE69463046FFF796FF0E
:103BA000002510E0224629466846FFF79EFE80EE7B
:103BB000080A224629463846FFF78FFE013473680B
:103BC000A342EFDC01353368AB4201DD0024F6E7A8
:103BD0006846FFF792FE0120D3E7000070B5204C45
:103BE000204600F0F1FB94ED000A1E48FDF784FF2B
:103BF0001D4E86ED000A94ED010A1C48FDF77CFF7E
:103C00001B4D85ED000A94ED020A1A48FDF774FF7A
:103C1000194C84ED000A96ED000A1848FEF714F8D6
:103C200086ED000A95ED000A1548FEF70DF885EDC2
:103C3000000A94ED000A1348FEF706F884ED000A26
:103C400096ED000A7420FEF753FE95ED000A7620EB
:103C5000FEF74EFE94ED000A7820FEF749FE70BD97
:103C6000681A002028190020641500203C19002043
:103C700068150020501900206C15002070150020D8
:103C8000D81500204016002070B53E4D284600F0A3
:103C9000F1FB95ED070A3C48FDF72EFF3B4E86ED04
:103CA000000A95ED080A3A48FDF726FF394C84EDE5
:103CB000000A95ED090A3848FDF71EFF374D85EDDE
:103CC000000A96ED000A3648FDF716FF86ED000A59
:103CD00094ED000A3348FDF70FFF84ED000A95EDDF
:103CE000000A3148FDF708FF85ED000A96ED000A4D
:103CF0002E48FDF7A9FF86ED000A94ED000A2C4836
:103D0000FDF7A2FF84ED000A95ED000A2948FDF7B2
:103D10009BFF85ED000A96ED000A2748FDF794FF0A
:103D200086ED000A94ED000A2448FDF78DFF84ED2E
:103D3000000A95ED000A2248FDF786FFF0EE407A72
:103D400085ED000AD6ED006AB1EE047A86EE870AA8
:103D500086ED000A94ED006AC6EE076AC4ED006ABB
:103D6000C7EE876AC5ED006A7C20FEF7C1FD94EDC1
:103D7000000A7E20FEF7BCFD95ED000A8020FEF7CC
:103D8000B7FD70BD681A002064190020181A0020C1
:103D90008C1900201C1A0020B4190020201A0020C1
:103DA00078190020A0190020C8190020A8160020AA
:103DB000781700204818002010170020E017002076
:103DC000B018002010B5074C204600F09FFB626B36
:103DD000054B1A60A26B054B1A60E26B044B1A602C
:103DE00010BD00BF681A0020341A0020381A0020C5
:103DF000F41A002070B584B02F4B93ED000ADFED6C
:103E00002F7A20EE270A2E4BD3ED000A60EEA70A88
:103E10002C4B93ED001A21EE271ADFED2B7A2B4B5A
:103E200093ED004A2A4BD3ED003A2A4B93ED003A2A
:103E3000294BD3ED002A294B93ED002A284BD3EDD3
:103E4000001A81EE271AC0EEA70A80EE270AFEF7B5
:103E500001FA01A8FEF766FC9DED010A214E86EDF0
:103E6000000A214D029B2B60204C039B23602048BD
:103E7000FDF742FE86ED000A95ED000A1D48FDF7AC
:103E80003BFE85ED000A94ED000A1B48FDF734FE69
:103E900084ED000A96ED000A2E20FEF729FD95ED2F
:103EA000000A3020FEF724FD94ED000A3220FEF7D0
:103EB0001FFD04B070BD00BF181A0020DB0F494081
:103EC0001C1A0020201A00200000B443F41A00201D
:103ED000341A0020381A00206C15002068150020C4
:103EE00064150020FC1A0020F81A0020081B00208E
:103EF000F0190020DC190020041A002010B50A4C2B
:103F00002046FDF791FD94ED030A0848FDF7E4FF14
:103F1000074C84ED000A0748FDF77AFF84ED000A9C
:103F20003820FEF7E5FC10BD401A0020241A0020BE
:103F300060150020181900202DE9F0412DED028BAD
:103F4000804E304600F052F97F4D804C2B46224681
:103F500004217F48FDF7BAFD2B46224604217D4807
:103F6000FDF7B4FD2B46224604217B48FDF7AEFD4C
:103F7000DFF87082794F43463A4605217848FDF7CD
:103F8000A5FD43463A4605217648FDF79FFD434689
:103F90003A4605217448FDF799FD9FED748ADFEDDF
:103FA000748AF2EE041AB7EE001AF0EE480AB0EE88
:103FB000680A40216F48FDF7ADFDF2EE041AB7EE36
:103FC000001AF0EE480AB0EE680A40216A48FDF790
:103FD000A1FDF2EE041AB7EE001AF0EE480AB0EEB8
:103FE000680A40216548FDF795FDF1EE041AB7EE29
:103FF000001AF0EE480AB0EE680A40216048FDF76A
:1040000089FDF1EE041AB7EE001AF0EE480AB0EEA0
:10401000680A40215B48FDF77DFDF1EE041AB7EE1A
:10402000001AF0EE480AB0EE680A40215648FDF743
:1040300071FDDFF8B481554F43463A460421544898
:10404000FDF744FD43463A4604215248FDF73EFD44
:1040500043463A4604215048FDF738FDDFED4F8ACC
:10406000F7EE001AB0EE611AF0EE480AB0EE680AF8
:1040700040214B48FDF74EFDF7EE001AB0EE611AF5
:10408000F0EE480AB0EE680A40214648FDF742FDCE
:10409000F7EE001AB0EE611AF0EE480AB0EE680AC8
:1040A00040214148FDF736FD2B46224604213F487A
:1040B000FDF70CFD2B46224604213D48FDF706FD89
:1040C0002B46224604213B48FDF700FD304600F018
:1040D00061FB304600F0A0FB304600F081FD0A2174
:1040E0003548FDF785FA19213448FDF7E7FEB6EEAD
:1040F000001ADFED330A9FED330A3348FDF77CFEEB
:1041000002224FF47A713148FEF706FD03224FF484
:104110007A712F48FEF700FD02222E492E48FEF745
:10412000FBFC02224FF4FA612C48FEF7F5FC032257
:1041300042F210712A48FEF7EFFCBDEC028BBDE89D
:10414000F08100BF681A00203C0000200800002019
:10415000641900208C190020B419002018000020D8
:1041600078190020A0190020C819002000007A4406
:1041700000004842A81600207817002048180020A8
:1041800010170020E0170020B01800202C0000209D
:10419000281900203C19002050190020000020425E
:1041A00070150020D815002040160020F0190020BE
:1041B000DC190020041A0020401A0020241A0020D4
:1041C000CDCCCC3E9A99193F18190020893C0008A3
:1041D000DD3B0008A0860100C53D0008F53D000854
:1041E000FD3E0008500000206800002010B5044685
:1041F00006221A216820FEF763FC1B221146682064
:10420000FEF75EFC18221C216820FEF759FC0422F0
:104210001D216820FEF754FC022237216820FEF79A
:104220004FFC4FF47A7002F0FBFC16220A210C209E
:10423000FEF746FC4FF07E5363652365E364A3619C
:1042400010BD000010B582B004466B4606223B212B
:104250006820FEF711FC9DF800309DF8012042EA2D
:104260000322524212B2144B1A809DF802109DF89C
:10427000033043EA01235B421BB210490B809DF8D7
:1042800004009DF8051041EA002109B20C480180A4
:1042900007EE902AF8EEE77AC4ED167A07EE903A28
:1042A000F8EEE77AC4ED177A07EE901AF8EEE77A9F
:1042B000C4ED187A02B010BD101B0020121B0020A4
:1042C000141B002010B582B004466B460622432121
:1042D0006820FEF7D1FB9DF800309DF8012042EAEE
:1042E0000322524212B2144B1A809DF802109DF81C
:1042F000033043EA01235B421BB210490B809DF857
:1043000004009DF8051041EA002109B20C48018023
:1043100007EE902AF8EEE77AC4ED197A07EE903AA4
:10432000F8EEE77AC4ED1A7A07EE901AF8EEE77A1B
:10433000C4ED1B7A02B010BD161B0020181B002014
:104340001A1B002010B582B004466B4607220321D9
:104350000C20FEF791FB9DF803309DF8021041EA16
:104360000321494209B2154B19809DF801309DF88F
:10437000002042EA0322524212B2114B1A809DF8E9
:1043800005009DF8043043EA00235B421BB20D4850
:10439000038007EE901AF8EEE77AC4ED1C7A07EE78
:1043A000902AF8EEE77AC4ED1D7A07EE903AF8EE1F
:1043B000E77AC4ED1E7A02B010BD00BF1C1B0020BE
:1043C0001E1B0020201B002010B582B004466B4647
:1043D00006223B216820FEF74FFB9DF800209DF848
:1043E000013043EA02235B421BB21F4A13809DF84F
:1043F00002109DF8032042EA01221C48524202802A
:104400009DF804109DF8052042EA012218490A800F
:1044100094ED037A07EE903AF8EEE77A77EE877A32
:1044200094ED067AC7EE876AC4ED006AD4ED046A9B
:10443000B0F9003007EE903AF8EEE77A77EEA67A18
:10444000C7EE876AC4ED016AD4ED056AB1F90030A0
:1044500007EE903AF8EEE77A77EEA67AC7EE876A2B
:10446000C4ED026A02B010BD101B0020121B002018
:10447000141B002010B582B004466B46062243216F
:104480006820FEF7F9FA9DF800309DF8012042EA15
:104490000322524212B21A4B1A809DF802109DF864
:1044A000033043EA01235B421BB216490B809DF89F
:1044B00004009DF8051041EA002109B2124801806C
:1044C00094ED0A7A07EE902AF8EEE77A77EE877A8B
:1044D000C4ED077A94ED0B7A07EE903AF8EEE77A9E
:1044E00077EE877AC4ED087A94ED0C7A07EE901A8D
:1044F000F8EEE77A77EE877AC4ED097A02B010BD5C
:10450000161B0020181B00201A1B002010B582B0BB
:1045100004466B46072203210C20FEF7ADFA9DF8F6
:1045200003309DF8021041EA0321494209B2214BB0
:1045300019809DF801309DF8002042EA0322524282
:1045400012B21D4B1A809DF805009DF8043043EA15
:1045500000235B421BB21948038094ED107A07EEEA
:10456000901AF8EEE77A77EEC77AD4ED136A87EE01
:10457000A67A84ED0D7A94ED117A07EE902AF8EE82
:10458000E77A77EEC77AD4ED146A87EEA67A84EDDF
:104590000E7A94ED127A07EE903AF8EEE77A77EE1B
:1045A000C77AD4ED156A87EEA67A84ED0F7A02B049
:1045B00010BD00BF1C1B00201E1B0020201B002064
:1045C000F0B52DED088B87B004460E46B0EE40BA2C
:1045D00017460023039304930593009301930293DA
:1045E00000250CE0616E0391A26E0492E36E0593C8
:1045F000009101920293022002F012FB0135B542B4
:1046000074DA2046FFF75EFE002DEBD0606EFCF7FB
:104610001BF841EC1A0B0398FCF716F8B0EE4A1A97
:10462000F0EE6A1A41EC100B06F0B2FB51EC100BE5
:10463000FCF75AFB0390A06EFCF706F841EC190B4F
:104640000498FCF701F8B0EE491AF0EE691A41EC53
:10465000100B06F09DFB51EC100BFCF745FB049092
:10466000E06EFBF7F1FF41EC180B0598FBF7ECFF50
:10467000B0EE481AF0EE681A41EC100B06F088FB19
:1046800051EC100BFCF730FB05900098FBF7DCFFBA
:10469000B0EE4A1AF0EE6A1A41EC100B06F0A0FBDD
:1046A00051EC100BFCF720FB00900198FBF7CCFFBE
:1046B000B0EE491AF0EE691A41EC100B06F090FBCF
:1046C00051EC100BFCF710FB01900298FBF7BCFFBC
:1046D000B0EE481AF0EE681A41EC100B06F080FBC1
:1046E00051EC100BFCF700FB029084E79DED037A80
:1046F000DDED006A37EE666ADFED237A7BEE277A1E
:10470000B4EEE76AF1EE10FA36D59DED046ADDED00
:10471000015A36EE655ADFED1D7A7BEE277AB4EE4C
:10472000E75AF1EE10FA2CD59DED055ADDED024A5F
:1047300075EE647A9FED164A3BEE04BAF4EECB7A3E
:10474000F1EE10FA01D4002017E09FB177EE267A3F
:10475000B6EE007A67EEC77AC4ED0A7A76EE257A6D
:1047600067EEC77AC4ED0B7A75EE247A67EEC77AE6
:10477000C4ED0C7A012000E0002007B0BDEC088BEE
:10478000F0BD0020F9E700BF00007A440040034577
:1047900000803B4510B504469FED0B0A0420FEF750
:1047A000A7F801229FED080AC8212046FFF708FF5D
:1047B0000028F6D09FED050A0420FEF799F80221A3
:1047C000034802F097F910BD000000000000C84245
:1047D0000010024008B570EE611A61EEA11A30EEC9
:1047E000C22A22EE022A71EE821A71EE622A62EE6B
:1047F000A22A71EEA27A17EE900AFBF725FF41EC90
:10480000100B06F09FFC51EC100BFCF76DFA00EE5C
:10481000100A08BD000000002DE9F04F2DED048BBB
:10482000A3B006469FEDD40A0620FEF761F80021EA
:104830000CE001EB4103134422A800EB83030020AA
:1048400043F8780C0132022AF3DD0131052901DC3D
:104850000022F8E7032211461EA8FEF7C9FF012235
:1048600003211AA8FEF7C4FF0122032116A8FEF7B0
:10487000BFFF002301939B46984627E0019D002D32
:1048800060D15846FBF7CEFE9FEDB51B41EC100BF7
:1048900006F0A6FA51EC100B0022B84BFBF72CFFE8
:1048A0000022B74BFCF752F8FCF71EFA00EE100A94
:1048B0000620FEF71DF8BBF1050FD4BF4FF000092D
:1048C00005F00109B9F1000F40F0AA80019B002B0F
:1048D00040F05E810022B3EE0E0A64213046FFF7FD
:1048E0006FFE05460028F5D03046FFF7ABFC0124EB
:1048F000052CC4DCA8EB04020632A24B83FB021396
:10490000A3EBE27303EB4303A2EB430303EB43028A
:1049100022A901EB820252ED1C2A12ED1D2A52ED52
:104920001E1A96ED181AD6ED170A96ED160AFFF71D
:1049300051FFDFED957AB4EEE70AF1EE10FA9DD45F
:104940000134D5E70221914802F0D4F8B26D08EBAA
:10495000480322A901EB830343F8782CF26D43F856
:10496000742C326E43F8702C08F101030BF1010B2B
:10497000844A82FB0328A8EBE37808EB4808A3EB02
:1049800048087EE708EB0A02511E7E4B83FB0104B8
:10499000A4EBE17404EB4404A1EB440404EB4404F1
:1049A0002C4422A901EB840414ED1E0A83FB02139C
:1049B000A3EBE27303EB4303A2EB430303EB4303D9
:1049C0005F1922AB03EB870757ED1E7A30EE670ABB
:1049D00030EE000A2A460AF1FF311EA8FEF77DFFDD
:1049E00057ED1E7A67EEA77A14ED1E7A27EE077A46
:1049F00077EEC77A38EE278A0135022DC2DDB0EE98
:104A0000480A00220AF1FF311AA8FEF766FF0AF1F0
:104A1000010ABAF1030F06DC00259FED578AECE787
:104A20004FF0010AF5E716AA1AA91EA8FEF76EFFB5
:104A300000259FED519A022D1DDC08EB48042C4403
:104A400022AB03EB840414ED1E8A0022294616A82B
:104A5000FEF74BFF38EE008A54ED1E8A00222946ED
:104A600016A8FEF742FF78EE808A28EE288A39EEF3
:104A7000089A0135DFE719EE100AFBF7E5FD3AA3C6
:104A8000D3E90023FBF762FF37A3D3E90023FBF749
:104A90005DFF41EC100B06F055FB51EC100BFCF7E1
:104AA00023F909EE900A042549E008EB0502354B8D
:104AB00083FB0213A3EBE27303EB4303A2EB430379
:104AC00003EB4303DC1922AB03EB840414ED1E8AD1
:104AD0000022394616A8FEF708FF38EE008A54ED8A
:104AE0001E8A0022394616A8FEF7FFFE78EE808A5D
:104AF00028EE288A39EE089A0137022FD5DDC9EE53
:104B0000297AC7EEA97A17EE900AFBF79DFD41ECD2
:104B1000100B06F017FB51EC100B13A3D3E9002385
:104B2000FBF732FC029021F00043039310A3D3E97A
:104B30000023DDE90201FCF76FF830B90135052DDE
:104B400005DC00279FED0C9AD7E7DDF80490B9F15A
:104B5000000F3FF4BBAECDF80490B7E6AFF3008092
:104B600000000000000018401F85EB51B89E234054
:104B7000333333333333D33F000000000000594058
:104B800000001C40ABAAAA2A0000484400100240C2
:104B90000022114616A8FEF7A8FE86ED030A0022A1
:104BA000012116A8FEF7A1FE86ED040A00220221CB
:104BB00016A8FEF79AFE86ED050AC6ED069A1EA80F
:104BC000FEF79BFE1AA8FEF798FE16A8FEF795FEC4
:104BD00023B0BDEC048BBDE8F08F00BF00000000E7
:104BE0002DE9F0472DED048BAAB000AF0646002456
:104BF0007C672E22214607F1780003F02FFA9FED03
:104C00005C0A0820FDF774FEADF5966D6D462146F1
:104C10000AE001EB4103134405EB83030020186015
:104C20000132022AF5DD0131632901DC0022F8E7B7
:104C30004FF0000AD046D1460CE00123002B4CD1A6
:104C400007EE908AB8EEE70A0820FDF751FEB8F1AA
:104C5000640F5FD0BAF1000F5FD1642001F0E0FF74
:104C60003046FFF76FFB96ED1C9ADFED457A29EE93
:104C7000279AD6ED1D8A68EEA78A96ED1E8A28EE41
:104C8000278A0124A045D8DBA9EB04026432394904
:104C900081FB0231D317C3EB6113642101FB1323A2
:104CA00003EB430205EB8202D2ED022A92ED012AC8
:104CB000D2ED001AB0EE481AF0EE680AB0EE490ADA
:104CC000FFF788FDDFED2C7AB4EEE70AF1EE10FA7B
:104CD00001D40134D6E75346B0E70221274801F05A
:104CE00009FF09EB490305EB830383ED009AC3ED4C
:104CF000018A83ED028A09F1010308F101081D4AC6
:104D000082FB03124FEAE379C9EB6219642202FBCA
:104D1000193995E74FF0010A9CE7062264217818BB
:104D2000FEF766FD6422062107F15400FEF760FDE0
:104D30000622114607F13400FEF75AFD64220621CF
:104D400007F12400FEF754FD06221146381DFEF738
:104D50004FFD0122642107F14400FEF749FD0122C5
:104D6000062107F11400FEF743FD00244DE000BFCB
:104D7000000000001F85EB51CCCC4C3E00100240DF
:104D80000AD7233C04EB440805EB880898ED000A99
:104D90000022214607F16400FEF79FFD98ED010A0D
:104DA0000122214607F16400FEF797FD98ED020A03
:104DB0000222214607F16400FEF78FFD98ED010AFB
:104DC00020EE400A0322214607F16400FEF785FD2C
:104DD00098ED020A20EE400A0422214607F1640001
:104DE000FEF77BFDB7EE000A0522214607F16400BD
:104DF000FEF773FD98ED000A20EE000A002221461E
:104E000007F14400FEF769FD0134632CBADD07F1B8
:104E1000640107F15400FEF741FD07F1640207F158
:104E2000540107F13400FEF703FD07F13401381D8A
:104E3000FEF798FE07F15402391D07F12400FEF732
:104E4000F7FC07F1440207F1240107F11400FEF713
:104E5000EFFC0022114607F11400FEF746FDF6EEC6
:104E6000007A60EE277AC6ED107A0022012107F160
:104E70001400FEF73AFDB0EE408A0022032107F14C
:104E80001400FEF732FD30EE000AC8EE007AC6EDDF
:104E9000117A0022022107F11400FEF726FDB0EE80
:104EA000408A0022042107F11400FEF71EFD30EEB7
:104EB000000AC8EE007AC6ED127A0022052107F139
:104EC0001400FEF712FD96ED106A26EE068A30EE0B
:104ED000088AD6ED116A66EEA67A38EE278A96ED34
:104EE000127A67EE077A38EE278A5FED5B7AC6EEB4
:104EF000275AC6ED105A86EEA76A86ED116AC7EEEC
:104F0000276AC6ED126A18EE100AFBF79DFB41EC0A
:104F1000100B06F017F951EC100B2FA3D3E9002367
:104F2000FBF714FDFBF7E0FEF0640022032107F11C
:104F30001400FEF7DAFCC8EE007A17EE900AFBF7D1
:104F400083FB41EC100B06F0FDF851EC100B22A393
:104F5000D3E90023FBF7FAFCFBF7C6FE306500221D
:104F6000042107F11400FEF7C0FCC8EE007A17EE2A
:104F7000900AFBF769FB41EC100B06F0E3F851ECEB
:104F8000100B15A3D3E90023FBF7E0FCFBF7ACFE05
:104F9000706507F16400FEF7B0FC07F15400FEF7FE
:104FA000ACFC07F13400FEF7A8FC07F12400FEF783
:104FB000A4FC381DFEF7A1FC07F14400FEF79DFCA0
:104FC00007F11400FEF799FCA837BD46BDEC048B31
:104FD000BDE8F087AFF3008000000040E17A843F35
:104FE00008B50D4800F0F2FA012202210B4801F049
:104FF0007BFD4FF47A7001F013FE64230E22084902
:10500000084802F0F2FBFCF7A5FAFEF795FAFEF766
:1050100093FFFDF799FD08BDE01C00200010024041
:10502000B8DF0008C41B002072B6FEE710B5B4B0AC
:105030003022002128A803F011F80024239424949E
:105040002594269427948422214602A803F006F88A
:10505000264B1A6C42F080521A641B6C03F080538A
:105060000093009B224B1A6842F440421A601B686E
:1050700003F440430193019B0223289301222B92C6
:1050800010222C922E932F9408223092C822319213
:105090003293339328A800F017FEF8B901F034FDDD
:1050A000F0B90F23239302232493002325934FF475
:1050B000A05326934FF480532793062123A801F091
:1050C0006FF878B90B4B0293002314931B931E9334
:1050D00002A801F041F938B934B010BDFFF7A4FFC0
:1050E000FFF7A2FFFFF7A0FFFFF79EFF0038024087
:1050F000007000408040020008B52A4BD3F8882099
:1051000042F47002C3F88820BFF34F8FBFF36F8F54
:105110000021C3F85012BFF34F8FBFF36F8F5A694E
:1051200042F400325A61BFF34F8FBFF36F8FC3F861
:105130008410BFF34F8FD3F88040C4F34E3000E0AB
:105140001846C4F3C90243F6E07303EA401343EA86
:1051500082731449C1F860321346013A002BF2D130
:10516000431E0028ECD1BFF34F8F4B6943F48033CB
:105170004B61BFF34F8FBFF36F8F01F029FDFFF736
:1051800055FF02F0F1FB02F033FC02F05DFC02F08F
:1051900021FD02F03BFE02F099FE02F06DFDFFF7EB
:1051A0001FFFFCE700ED00E0FEE7FEE7FEE7FEE79D
:1051B000FEE770477047704708B501F01FFD08BD56
:1051C0002F4B9B6913F0020F43D113F0040F1BD038
:1051D0002B4A516A2B4A1268B2F1FF3F0AD02A4982
:1051E0000A6801320A6013F0080F48D0244B0822E5
:1051F000DA617047CAB211F0010F02D021490A608A
:10520000F1E722490A60EEE713F0200F13D01E4A9F
:10521000126842B14FF0FF321C490A6019490A6016
:10522000194A00211160164A916941F0010191610A
:105230002021D161D7E713F0100F03D0104A1021BD
:10524000D161D0E713F0080FCDD00D4A0821D1610C
:10525000C9E710B40D4A14680B4801684A1C026083
:105260000B4A02EB8402515C054A916213F0080F6D
:1052700002D0034B0822DA615DF8044B7047704797
:105280000060004080000020241B00207C000020E3
:10529000C802002082B00A4B1A6C42F080521A6495
:1052A0001A6C02F080520092009A5A6C42F48042CA
:1052B0005A645B6C03F480430193019B02B0704716
:1052C000003802400649CB6823F4E0631B041B0C42
:1052D000000200F4E0600343024A1A43CA607047C8
:1052E00000ED00E00000FA0500B5174BDB68C3F3E2
:1052F0000223C3F1070CBCF1040F28BF4FF0040CCC
:1053000003F1040EBEF1060F14D9033B4FF0FF3E2C
:105310000EFA0CFC21EA0C0199400EFA03F322EA82
:1053200003031943002807DB0901C9B2074B1954CD
:105330005DF804FB0023E9E700F00F000901C9B2A2
:10534000034B1954F4E700BF00ED00E000E400E077
:1053500014ED00E0002807DB00F01F0240090123E4
:105360009340024A42F82030704700BF00E100E05D
:105370000138B0F1807F0BD24FF0E0235861054A2D
:10538000F02182F823100020986107221A617047EB
:105390000120704700ED00E070B4036A23F00103C0
:1053A0000362036A42688569124C2C400D682543EC
:1053B00023F002048B6823430F4C104EB04218BFF9
:1053C000A0420CBF0124002405D123F00803CE68BD
:1053D000334323F004032CB122F440724C6914438C
:1053E0008A692243426085614A684263036270BCF5
:1053F000704700BF8CFFFEFF000001400004014029
:1054000070B4036A23F480730362036A4268C56957
:10541000144C2C400E68264323F400738C6843EA36
:105420000423114C114DA84218BFA0420CBF012407
:10543000002406D123F40063CD6843EA052323F456
:1054400080633CB122F440524C6942EA04128C69F8
:1054500042EA04124260C6614A68C263036270BCD9
:10546000704700BF8CFFFEFF0000014000040140B8
:1054700070B4036A23F480530362036A4468C56905
:105480000D4A2A400D6842EA052223F400538D6834
:1054900043EA0533094E0A4DA84218BFB04204D171
:1054A00024F480444D6944EA85144460C2614A682A
:1054B0000264036270BC7047FF8CFFFE0000014075
:1054C0000004014070B4036A23F480330362036A6A
:1054D0004468426D0D4D15400A682A4323F4003399
:1054E0008D6843EA05430A4E0A4DA84218BFB042F0
:1054F00004D124F480344D6944EA052444604265B3
:105500004A688265036270BC704700BF8FFFFEFF70
:10551000000001400004014070B4036A23F48013CA
:105520000362036A4468456D0D4A2A400D6842EAE9
:10553000052223F400138D6843EA0553094E0A4DF2
:10554000A84218BFB04204D124F480244D6944EA33
:105550008524446042654A68C265036270BC704736
:10556000FF8FFFFE000001400004014010B4036AF9
:10557000046A24F001040462846924F0F00C4CEA0B
:10558000021223F00A030B43826103625DF8044BAD
:10559000704710B4046A24F0100404628469036A3A
:1055A00024F4704C4CEA023223F0A00343EA0113C6
:1055B000826103625DF8044B7047836823F07003D7
:1055C0000B4343F0070383607047000090F83D30C1
:1055D000DBB2012B35D1022380F83D3003681B4A32
:1055E000B3F1804F18BF93421DD0A2F57C42934285
:1055F00019D002F58062934215D002F58062934281
:1056000011D002F5784293420DD002F570529342C8
:1056100009D0A2F59432934205D01A6842F00102F3
:105620001A60002070479968094A0A40062A18BF84
:10563000B2F5803F07D01A6842F001021A600020DC
:105640007047012070470020704700BF00000140F4
:10565000070001007047000030B503683B4A9042E4
:1056600014BF4FF0000E4FF0010EB0F1804F14BF89
:1056700072464EF00102AAB9354CA04214BF002474
:105680000124344DA8420DD064B904F1804404F5DE
:105690008234A04214BF0024012405F50065A8420D
:1056A00000D01CB123F070034C682343002A33D18F
:1056B000274A904214BF00220122264CA0422BD040
:1056C00052BB02F1804202F58232904214BF0022A6
:1056D000012204F50064A0421ED0EAB91E4A90429D
:1056E00014BF0022012204F59A34A04214D09AB9C2
:1056F0001A4A904214BF0022012204F50064A0421D
:105700000AD04AB9164A904214BF00220122A4F5D9
:105710009634A04200D022B123F4407CCB6843EA07
:105720000C0323F080034A69134303608A68C26252
:105730000A6882620B4A904214BF73464EF001031E
:105740000BB10B6903630123436130BD00000140CD
:1057500000080040000400400044014000180040E0
:10576000002000400004014060B310B5044690F8EA
:105770003D3013B3022384F83D30214651F8040B29
:10578000FFF76AFF012384F8483084F83E3084F83C
:105790003F3084F8403084F8413084F8423084F857
:1057A000433084F8443084F8453084F8463084F837
:1057B000473084F83D30002010BD80F83C3002F0C6
:1057C00093FAD7E70120704760B310B5044690F80C
:1057D0003D3013B3022384F83D30214651F8040BC9
:1057E000FFF73AFF012384F8483084F83E3084F80C
:1057F0003F3084F8403084F8413084F8423084F8F7
:10580000433084F8443084F8453084F8463084F8D6
:10581000473084F83D30002010BD80F83C30FFF761
:1058200019FFD7E70120704770B4036A23F0100313
:105830000362036A42688569144C2C400D6844EA8F
:10584000052523F020038C6843EA0413104C114E05
:10585000B04218BFA0420CBF0124002406D123F09F
:105860008003CE6843EA061323F040033CB122F4E0
:1058700040624C6942EA84028C6942EA84024260D6
:1058800085614A688263036270BC7047FF8CFFFECB
:10589000000001400004014038B590F83C30012B75
:1058A00000F08C8004460D46012380F83C30142A19
:1058B0001ED8DFE802F00B1D1D1D211D1D1D351D0D
:1058C0001D1D481D1D1D5C1D1D1D6F000068FFF77F
:1058D00063FD2268936943F008039361226893692A
:1058E00023F0040393612268936929690B43936150
:1058F000002084F83C0038BD0068FFF795FF22685F
:10590000936943F4006393612268936923F480638D
:10591000936122689369296943EA01239361E7E768
:105920000068FFF76DFD2268D36943F00803D36177
:105930002268D36923F00403D3612268D3692969FB
:105940000B43D361D4E70068FFF792FD2268D36967
:1059500043F40063D3612268D36923F48063D36185
:105960002268D369296943EA0123D361C0E700684B
:10597000FFF7A8FD2268536D43F0080353652268C2
:10598000536D23F0040353652268536D29690B435B
:105990005365ADE70068FFF7BFFD2268536D43F420
:1059A000006353652268536D23F480635365226856
:1059B000536D296943EA0123536599E702209AE769
:1059C00010B4846824F47F4C42EA03220A4342EA7A
:1059D0000C0282605DF8044B7047000090F83C3088
:1059E000012B64D010B50446012380F83C3002231B
:1059F00080F83D30026890682E4B034093600B683E
:105A0000602B40D022D8402B47D00BD9502B0ED141
:105A1000CA6849682068FFF7A9FD50212068FFF790
:105A2000CCFD04E0202B0CD008D9302B09D0012369
:105A300084F83D30002084F83C0010BD0BB1102BE1
:105A4000F5D119462068FFF7B8FDF0E7702B0ED0AE
:105A5000B3F5005FEBD1CB684A6889682068FFF72F
:105A6000AFFF2268936843F480439360DFE7CB681D
:105A70004A6889682068FFF7A3FF2268936843F0AB
:105A800077039360D3E7CA6849682068FFF781FD10
:105A900060212068FFF791FDC9E7CA68496820685E
:105AA000FFF764FD40212068FFF787FDBFE7022074
:105AB000704700BF8800FEFF01F01F01012303FAB9
:105AC00001FC036A23EA0C030362036A02FA01F190
:105AD0000B4303627047000010B5044608460029D6
