:020000040800F2
:100000000000052085790008713800087338000861
:1000100075380008773800087938000800000000BB
:10002000000000000000000000000000F176000861
:100030007B3800080000000091770008F577000881
:10004000D5790008D5790008D5790008D579000858
:10005000D5790008D5790008D5790008D579000848
:10006000D5790008D5790008D5790008D579000838
:10007000D5790008D5790008D5790008D579000828
:10008000D5790008D5790008D5790008D579000818
:10009000D5790008D5790008D5790008D579000808
:1000A000D57900087D380008D5790008D579000891
:1000B000D5790008D5790008D5790008D5790008E8
:1000C000D5790008D5790008D5790008D5790008D8
:1000D000D5790008D5790008D5790008D5790008C8
:1000E000D5790008D5790008D5790008D5790008B8
:1000F000D5790008D5790008D5790008D5790008A8
:10010000D5790008D5790008D5790008D579000897
:10011000D5790008D5790008D5790008D579000887
:10012000D5790008D5790008D5790008D579000877
:10013000D5790008D5790008D5790008D579000867
:10014000D5790008D5790008D5790008D579000857
:10015000D5790008D5790008D5790008D579000847
:10016000D5790008D5790008D5790008D579000837
:10017000D5790008D5790008D5790008000000007D
:10018000D5790008D5790008D5790008D579000817
:10019000D5790008D5790008D5790008D579000807
:1001A000D5790008D5790008D5790008D5790008F7
:1001B000D5790008D5790008D5790008D5790008E7
:0801C000D5790008D57900088B
:1001D00010B5054C237833B9044B13B10448AFF381
:1001E00000800123237010BD780200200000000071
:1001F00094C0000808B5034B1BB103490348AFF393
:10020000008008BD000000007C02002094C00008AF
:10021000034613F8012B002AFBD1181A0138704746
:1002200001F0FF01102A2BDB10F0070F08D010F8A7
:10023000013B013A8B422DD010F0070F42B3F6D1AB
:10024000F0B441EA012141EA014122F007047FF0C4
:1002500000070023F0E80256083C85EA010586EA1B
:10026000010685FA47F5A3FA87F586FA47F6A5FA57
:1002700087F68EB9EED1F0BC01F0FF0102F0070263
:1002800032B110F8013B013A83EA010313B1F8D10E
:100290000020704701387047002D06BF35460338EF
:1002A000073815F0010F07D1013015F4807F02BF28
:1002B000013015F4C03F0130F0BC0138704700BF79
:1002C00081F0004102E000BF83F0004330B54FEA07
:1002D00041044FEA430594EA050F08BF90EA020F74
:1002E0001FBF54EA000C55EA020C7FEA645C7FEA07
:1002F000655C00F0E2804FEA5454D4EB5555B8BF2A
:100300006D420CDD2C4480EA020281EA030382EA9A
:10031000000083EA010180EA020281EA0303362D2C
:1003200088BF30BD11F0004F4FEA01314FF4801CFF
:100330004CEA113102D0404261EB410113F0004F11
:100340004FEA03334CEA133302D0524263EB4303C8
:1003500094EA050F00F0A780A4F10104D5F1200E66
:100360000DDB02FA0EFC22FA05F2801841F10001C1
:1003700003FA0EF2801843FA05F359410EE0A5F195
:1003800020050EF1200E012A03FA0EFC28BF4CF0C6
:10039000020C43FA05F3C01851EBE37101F000457C
:1003A00007D54FF0000EDCF1000C7EEB00006EEB89
:1003B0000101B1F5801F1BD3B1F5001F0CD3490813
:1003C0005FEA30004FEA3C0C04F101044FEA44526A
:1003D00012F5800F80F09A80BCF1004F08BF5FEAF1
:1003E000500C50F1000041EB045141EA050130BDD1
:1003F0005FEA4C0C404141EB0101013C28BFB1F5E3
:10040000801FE9D291F0000F04BF01460020B1FA2D
:1004100081F308BF2033A3F10B03B3F120020CDA00
:100420000C3208DD02F1140CC2F10C0201FA0CF0DE
:1004300021FA02F10CE002F11402D8BFC2F1200C43
:1004400001FA02F120FA0CFCDCBF41EA0C019040F9
:10045000E41AA2BF01EB0451294330BD6FEA040442
:100460001F3C1CDA0C340EDC04F11404C4F120022D
:1004700020FA04F001FA02F340EA030021FA04F33F
:1004800045EA030130BDC4F10C04C4F1200220FA96
:1004900002F001FA04F340EA0300294630BD21FAD4
:1004A00004F0294630BD94F0000F83F4801306BF9A
:1004B00081F480110134013D4EE77FEA645C18BF8E
:1004C0007FEA655C29D094EA050F08BF90EA020F25
:1004D00005D054EA000C04BF1946104630BD91EA1D
:1004E000030F1EBF0021002030BD5FEA545C05D120
:1004F0004000494128BF41F0004130BD14F580045F
:100500003CBF01F5801130BD01F0004545F0FE41D2
:1005100041F470014FF0000030BD7FEA645C1ABF07
:10052000194610467FEA655C1CBF0B46024650EA3E
:10053000013406BF52EA033591EA030F41F400216A
:1005400030BD00BF90F0000F04BF0021704730B5F0
:100550004FF4806404F132044FF000054FF00001C5
:1005600050E700BF90F0000F04BF0021704730B586
:100570004FF4806404F1320410F0004548BF40425B
:100580004FF000013EE700BF42004FEAE2014FEAB0
:1005900031014FEA02701FBF12F07F4393F07F4F8B
:1005A00081F06051704732F07F4208BF704793F08E
:1005B0007F4F04BF41F40021704730B54FF46074A1
:1005C00001F0004521F000411CE700BF50EA0102A4
:1005D00008BF704730B54FF000050AE050EA01024D
:1005E00008BF704730B511F0004502D5404261EBBD
:1005F00041014FF4806404F132045FEA915C3FF4FE
:10060000D8AE4FF003025FEADC0C18BF03325FEA9A
:10061000DC0C18BF033202EBDC02C2F1200300FA4B
:1006200003FC20FA02F001FA03FE40EA0E0021FA70
:1006300002F11444BDE600BF70B54FF0FF0C4CF45E
:10064000E06C1CEA11541DBF1CEA135594EA0C0F10
:1006500095EA0C0F00F0DEF82C4481EA030621EA4B
:100660004C5123EA4C5350EA013518BF52EA033586
:1006700041F4801143F4801338D0A0FB02CE4FF038
:100680000005E1FB02E506F00042E0FB03E54FF068
:100690000006E1FB03569CF0000F18BF4EF0010E60
:1006A000A4F1FF04B6F5007F64F5407404D25FEA5C
:1006B0004E0E6D4146EB060642EAC62141EA55510F
:1006C0004FEAC52040EA5E504FEACE2EB4F1FD0C51
:1006D00088BFBCF5E06F1ED8BEF1004F08BF5FEACF
:1006E000500E50F1000041EB045170BD06F0004681
:1006F00046EA010140EA020081EA0301B4EB5C042E
:10070000C2BFD4EB0C0541EA045170BD41F4801125
:100710004FF0000E013C00F3AB8014F1360FDEBF4A
:10072000002001F0004170BDC4F10004203C35DA26
:100730000C341BDC04F11404C4F1200500FA05F3A9
:1007400020FA04F001FA05F240EA020001F000424A
:1007500021F0004110EBD37021FA04F642EB0601C0
:100760005EEA430E08BF20EAD37070BDC4F10C04EA
:10077000C4F1200500FA04F320FA05F001FA04F2AE
:1007800040EA020001F0004110EBD37041F100019A
:100790005EEA430E08BF20EAD37070BDC4F12005A5
:1007A00000FA05F24EEA020E20FA04F301FA05F20D
:1007B00043EA020321FA04F001F0004121FA04F2B5
:1007C00020EA020000EBD3705EEA430E08BF20EA85
:1007D000D37070BD94F0000F0FD101F000464000BF
:1007E00041EB010111F4801F08BF013CF7D041EA41
:1007F000060195F0000F18BF704703F00046520045
:1008000043EB030313F4801F08BF013DF7D043EA15
:100810000603704794EA0C0F0CEA135518BF95EACB
:100820000C0F0CD050EA410618BF52EA4306D1D152
:1008300081EA030101F000414FF0000070BD50EA71
:10084000410606BF1046194652EA430619D094EAFB
:100850000C0F02D150EA013613D195EA0C0F05D1E5
:1008600052EA03361CBF104619460AD181EA030139
:1008700001F0004141F0FE4141F470014FF00000F1
:1008800070BD41F0FE4141F4780170BD70B54FF08C
:10089000FF0C4CF4E06C1CEA11541DBF1CEA13550C
:1008A00094EA0C0F95EA0C0F00F0A7F8A4EB0504EE
:1008B00081EA030E52EA03354FEA013100F08880E5
:1008C0004FEA03334FF0805545EA131343EA1263AE
:1008D0004FEA022245EA111545EA10654FEA002663
:1008E0000EF000419D4208BF964244F1FD0404F51C
:1008F000407402D25B084FEA3202B61A65EB030578
:100900005B084FEA32024FF480104FF4002CB6EB34
:10091000020E75EB030E22BFB61A754640EA0C00B4
:100920005B084FEA3202B6EB020E75EB030E22BFF4
:10093000B61A754640EA5C005B084FEA3202B6EB35
:10094000020E75EB030E22BFB61A754640EA9C00F4
:100950005B084FEA3202B6EB020E75EB030E22BFC4
:10096000B61A754640EADC0055EA060E18D04FEA82
:10097000051545EA16754FEA06164FEAC30343EA22
:1009800052734FEAC2025FEA1C1CC0D111F4801FEF
:100990000BD141EA00014FF000004FF0004CB6E7E8
:1009A00011F4801F04BF01430020B4F1FD0C88BF87
:1009B000BCF5E06F3FF6AFAEB5EB030C04BFB6EB92
:1009C000020C5FEA500C50F1000041EB045170BD85
:1009D0000EF0004E4EEA113114EB5C04C2BFD4EBB2
:1009E0000C0541EA045170BD41F480114FF0000E36
:1009F000013C90E645EA060E8DE60CEA135594EAB2
:100A00000C0F08BF95EA0C0F3FF43BAF94EA0C0FB4
:100A10000AD150EA01347FF434AF95EA0C0F7FF429
:100A200025AF104619462CE795EA0C0F06D152EA7D
:100A300003353FF4FDAE1046194622E750EA410661
:100A400018BF52EA43067FF4C5AE50EA41047FF472
:100A50000DAF52EA43057FF4EBAE12E74FF0FF3CD7
:100A600006E000BF4FF0010C02E000BF4FF0010CA8
:100A70004DF804CD4FEA410C7FEA6C5C4FEA430C21
:100A800018BF7FEA6C5C1BD001B050EA410C0CBF70
:100A900052EA430C91EA030F02BF90EA020F0020D2
:100AA000704710F1000F91EA030F58BF994208BF39
:100AB00090422CBFD8176FEAE37040F001007047F6
:100AC0004FEA410C7FEA6C5C02D150EA013C07D14D
:100AD0004FEA430C7FEA6C5CD6D152EA033CD3D098
:100AE0005DF8040B704700BF8446104662468C4692
:100AF0001946634600E000BF01B5FFF7B7FF0028C5
:100B000048BF10F1000F01BD4DF808EDFFF7F4FFED
:100B10000CBF012000205DF808FB00BF4DF808ED78
:100B2000FFF7EAFF34BF012000205DF808FB00BF9B
:100B30004DF808EDFFF7E0FF94BF012000205DF8BD
:100B400008FB00BF4DF808EDFFF7CEFF94BF012072
:100B500000205DF808FB00BF4DF808EDFFF7C4FF6B
:100B600034BF012000205DF808FB00BF4FEA410CB4
:100B70007FEA6C5C02D150EA013C0AD14FEA430C97
:100B80007FEA6C5C02D152EA033C02D14FF00000D4
:100B900070474FF0010070474FEA410212F5001212
:100BA00015D211D56FF47873B3EB625212D94FEAB4
:100BB000C12343F0004343EA505311F0004F23FA9E
:100BC00002F018BF404270474FF00000704750EAF3
:100BD000013005D111F0004008BF6FF000407047B0
:100BE0004FF00000704700BF4FEA4102B2F1E0430E
:100BF00024BFB3F5001CDCF1FE5C0DD901F0004C04
:100C00004FEAC0024CEA5070B2F1004F40EB830053
:100C100008BF20F00100704711F0804F21D113F17F
:100C20003872BCBF01F00040704741F480114FEAB8
:100C30005252C2F11802C2F1200C10FA0CF320FA41
:100C400002F018BF40F001004FEAC1234FEAD3235E
:100C500003FA0CFC40EA0C0023FA02F34FEA4303C8
:100C6000CCE77FEA625307D150EA01331EBF4FF051
:100C7000FE4040F44000704701F0004040F0FE406C
:100C800040F40000704700BF53B94AB9002908BFBB
:100C900000281CBF4FF0FF314FF0FF3000F074B957
:100CA000ADF1080C6DE904CE00F006F8DDF804E0C3
:100CB000DDE9022304B070472DE9F047089D0446A2
:100CC0008E46002B4DD18A42944669D9B2FA82F2FF
:100CD00052B101FA02F3C2F1200120FA01F10CFA3B
:100CE00002FC41EA030E94404FEA1C48210CBEFB73
:100CF000F8F61FFA8CF708FB16E341EA034306FBFC
:100D000007F199420AD91CEB030306F1FF3080F08A
:100D10001F81994240F21C81023E63445B1AA4B2D7
:100D2000B3FBF8F008FB103344EA034400FB07F779
:100D3000A7420AD91CEB040400F1FF3380F00A81BA
:100D4000A74240F207816444023840EA0640E41BAF
:100D500000261DB1D4400023C5E900433146BDE85B
:100D6000F0878B4209D9002D00F0EF800026C5E9FD
:100D7000000130463146BDE8F087B3FA83F6002E15
:100D80004AD18B4202D3824200F2F980841A61EB8D
:100D9000030301209E46002DE0D0C5E9004EDDE7AB
:100DA00002B9FFDEB2FA82F2002A40F09280A1EB93
:100DB0000C014FEA1C471FFA8CFE0126200CB1FBE8
:100DC000F7F307FB131140EA01410EFB03F08842E1
:100DD00008D91CEB010103F1FF3802D2884200F26E
:100DE000CB804346091AA4B2B1FBF7F007FB101100
:100DF00044EA01440EFB00FEA64508D91CEB04049E
:100E000000F1FF3102D2A64500F2BB800846A4EBF8
:100E10000E0440EA03409CE7C6F12007B34022FAE3
:100E200007FC4CEA030C20FA07F401FA06F31C4312
:100E3000F9404FEA1C4900FA06F3B1FBF9F8200C1F
:100E40001FFA8CFE09FB181140EA014108FB0EF065
:100E5000884202FA06F20BD91CEB010108F1FF3AB5
:100E600080F08880884240F28580A8F102086144C1
:100E7000091AA4B2B1FBF9F009FB101144EA0141CF
:100E800000FB0EFE8E4508D91CEB010100F1FF347A
:100E90006CD28E456AD90238614440EA0840A0FB12
:100EA0000294A1EB0E01A142C846A64656D353D0E8
:100EB0005DB1B3EB080261EB0E0101FA07F722FA0C
:100EC00006F3F1401F43C5E9007100263146BDE835
:100ED000F087C2F12003D8400CFA02FC21FA03F398
:100EE000914001434FEA1C471FFA8CFEB3FBF7F019
:100EF00007FB10360B0C43EA064300FB0EF69E423E
:100F000004FA02F408D91CEB030300F1FF382FD2D6
:100F10009E422DD9023863449B1B89B2B3FBF7F67E
:100F200007FB163341EA034106FB0EF38B4208D957
:100F30001CEB010106F1FF3816D28B4214D9023E98
:100F40006144C91A46EA004638E72E46284605E7B6
:100F50000646E3E61846F8E64B45A9D2B9EB020887
:100F600064EB0C0E0138A3E74646EAE7204694E717
:100F70004046D1E7D0467BE7023B614432E730464A
:100F800009E76444023842E7704700BF00000000F0
:100F90002DE9F84F2DED068B8246B0EE408A0D46C6
:100FA000B0EE60AA006F081AFFF7CCFAE4A3D3E909
:100FB0000023FFF76BFCFFF717FE0446CAF87C001E
:100FC000CAF87050DAF85000FFF7DEFA06460F460E
:100FD000DAED168A78EE887A17EE900AFFF7D4FADF
:100FE0000022D14BFFF728FB804689462046FFF7B9
:100FF000CBFA04460D4602460B4640464946FFF7EB
:101000001BFB80468946DAF874B05846FFF7BCFAF5
:1010100041EC190B42464B4630463946FFF756F92C
:10102000B0EE491AF0EE691A41EC100B09F0F4FB2E
:10103000B0EE409AF0EE609A8BF00040FFF7A4FA11
:1010400041EC110BB0EE490AF0EE690A09F0BCFB65
:1010500051EC100BFFF7C8FDCAF8500078EE687A23
:1010600017EE900AFFF790FA06460F46ACA3D3E9B5
:10107000002320462946FFF729F902460B46304651
:101080003946FFF703FCFFF7AFFDCAF85C00CAED75
:10109000158A8AED168ADAF8806016F0100F29D0CA
:1010A000DAED267ADAED198A38EE687A67EE877A11
:1010B000CAED177A9AED187A77EE877A17EE900ACA
:1010C000FFF762FA0022984BFFF7B6FA02460B468A
:1010D00020462946FFF7B0FA04460D4618EE900A5E
:1010E000FFF752FA22462B46FFF7F0F8FFF77CFD98
:1010F000CAF8640016F0080F19D1DAF8803013F03E
:10110000010F03D0F0EEC87A28EE278A13F0020F01
:101110004ED0DFED867AB4EEE7AAF1EE10FA0FD8E2
:101120009AED000ADAED057A9AED0AAA46E09AED00
:10113000170A0AF1840000F048F98AED170ADCE783
:10114000DFED7B7AB4EEE7AAF1EE10FA06D89AED5D
:10115000010ADAED067A9AED0BAA2FE0DFED757A37
:10116000B4EEE7AAF1EE10FA06D89AED020ADAED2B
:10117000077A9AED0CAA21E0DFED6F7AB4EEE7AAC8
:10118000F1EE10FA06D89AED030ADAED087A9AED34
:101190000DAA13E0DFED697AB4EEE7AAF1EE10FADA
:1011A00079D89AED040ADAED097A9AED0EAA05E0EB
:1011B0009AED000ADAED057A9AED0AAA13F0040F07
:1011C00074D028EE008AF0EEC8AADAED178A68EE2D
:1011D000A77AF0EEE77A17EE900AFFF7D5F941EC1F
:1011E000190B1AEE900AFFF7CFF9B0EE491AF0EE9C
:1011F000691A41EC100B09F00FFB55EC104B002263
:10120000002310EE100A2946FFF7A6FC20B1F5EEE8
:10121000C08AF1EE10FA45D420462946FFF7E4FCD7
:1012200007EE900A9AED140A20EE0A0A38EE008AB8
:1012300038EE278ADAF878402046FFF7A5F941EC26
:10124000190B18EE100AFFF79FF9B0EE491AF0EEED
:10125000691A41EC100B09F0DFFAB0EE408AF0EEAB
:10126000608A84F00040FFF78FF941EC110BB0EE7B
:10127000480AF0EE680A09F0A7FA51EC100BFFF7E4
:10128000B3FCCAF868009AED1A0A8AED1B0ABDEC95
:10129000068BBDE8F88FB7EE00AAF0EE4A7AB0EE02
:1012A0004A0A8BE705F100431D46B5E728EE008AA0
:1012B0009AED140A20EE0A0A38EE008A9AED177A9F
:1012C00067EE277A38EE278ADAF878402046FFF76B
:1012D0005BF941EC190B18EE100AFFF755F9B0EE67
:1012E000491AF0EE691A41EC100B09F095FAB0EECC
:1012F000408AF0EE608A84F00040FFF745F941EC47
:10130000110BB0EE480AF0EE680A09F05DFA51ECF4
:10131000100BFFF769FCCAF86800B4E7AFF3008070
:10132000956479E17FFDA53D0000E03F000070423B
:1013300000008C420000A0420000B4420000C842FD
:101340000000000080842E4101670023036543658F
:1013500083654366C3667047002310E000EB830C8F
:101360008CED000A03F1040C00EB8C0CCCED010AAF
:1013700003F10A0C00EB8C0C8CED001A0133042BEA
:10138000ECDDC0ED261A002343660366C3660167E1
:10139000C0ED1E2AC0F8802080ED1D2A7047F0B5F0
:1013A00083B004460D4616461F460421681C06F00D
:1013B00013FB20610123019300903B463246A9B202
:1013C00020460AF049FD03B0F0BD00B585B08DEDB3
:1013D000010A012303AA01A90AF04EFD9DED030AAB
:1013E00005B05DF804FB38B504460D46416080ED5C
:1013F000041AC0ED051AC0ED020A80ED030A4FF091
:101400007E5383610023836243620362C36183630B
:1014100043630363C3620421284606F0DDFA2060BB
:101420000022E2631346A9B204F144000AF0C4F8B2
:1014300004F12C0304F11802012104F158000AF010
:1014400015FE38BD0000000010B5044610EE100A6D
:10145000FFF79AF82EA3D3E90023FFF7EDF8FFF783
:10146000C3FB05EE100AD4ED057A77EEA77A67EE96
:10147000857A25EE056A77EE867A94ED027AF7EEA4
:10148000004AC4EE875AD4ED046A84EEA67A36EE9A
:10149000877A27EE057A27EEA54A24EE254AF1EE53
:1014A000004A34EE244A37EE077A27EE257A77EEA3
:1014B000246A26EE255A25EE255A76EE856AC4EE74
:1014C000263AC4ED063A77EEA77A67EEA57A67EE7C
:1014D000A57AB2EE004A77EEC47A87EEA63A84ED9A
:1014E000073AC4ED083A36EE066A26EE256A26EE7D
:1014F000256A36EE446AC6EE267AC4ED097A34EEE1
:10150000C77A35EE075AC5EE267AC4ED0A7A10BDC1
:10151000182D4454FB2119402DE9F04385B000AF4C
:10152000044687ED010AC36B4268934225DA0268DC
:10153000591CC16302EB830383ED000AE26B63680D
:101540009A421CD097ED010A1437BD46BDE8F083DE
:10155000226802EB8301013302EB830212680A6006
:101560006268511E9942F3DC23686FF040411144D8
:1015700003EB81037A681A60E0E70023F0E76E4628
:10158000A6EBC3039D466D46002308E0226802EBEC
:101590008302116805EB8302116001339BB262681C
:1015A0009342F3DB294604F144000AF005FA4FF0B8
:1015B00001081FE008F1FF3905EB8909D9ED007A30
:1015C00027EEA77A05EB8803D3ED007A67EEA77ABA
:1015D00077EE277A17EE900AFEF7D6FF41EC100B54
:1015E00009F0AAF951EC100BFFF7FEFAC9F8000058
:1015F00008F102086368B8EB430FDBDB002210E060
:10160000F7EE007A05EB820191ED007A27EE277A5A
:1016100007EE903AF8EEE77AC7EE276AC1ED006A66
:1016200002326368B2EB430F04DA002AE8DDF0EE21
:10163000007AE7E794ED037A07EE903AB8EEE76AAE
:1016400027EE067AD4ED026AC7EE267AFDEEE77A37
:1016500017EE902A52009FED190AB0EE407A00E092
:101660000232991C914213DB05EB8201D1ED007A25
:10167000F4EEC77AF1EE10FAF2DD07EE102AB8EEBA
:10168000C77A27EE267A87EE060AB0EE677AE7E792
:101690002046FFF7D9FE012307F10C02391D04F1A2
:1016A00058000AF01DFA236861686FF040420A444E
:1016B00003EB8203FA681A60B54643E700000000B6
:1016C000F6EE007A60EE277A10EE103A074AA2EBA7
:1016D000630307EE103A67EE277A67EE277AB7EED4
:1016E000080A30EE670A27EE000A7047DF59375FB5
:1016F000F8B52DED068BF0EE408AB0EE609AB0EEB4
:10170000418AF0EE61AAB0EE42AAF0EE629AF5EEDE
:10171000401AF1EE10FA14BF01230023B5EE402A5F
:10172000F1EE10FA18BF43F001032BB9F5EE402A91
:10173000F1EE10FA00F0A7806AEEAA7A2AEE0A0A01
:1017400077EE807A29EEA90A37EE800AFFF7B8FF14
:101750006AEE80AA2AEE00AA69EE809A974890ED78
:10176000002A974BD3ED007A22EE272A954AD2ED34
:10177000007A954991ED007A67EE877A32EE672A12
:10178000D2ED001AD0ED007A61EEA71AD1ED007A01
:1017900093ED007A67EE877A71EEA71AD2ED007AA0
:1017A00092ED007A67EE877AB6EE007A77EEC77A26
:1017B00093ED007AD3ED006A27EE267A77EE877AEA
:1017C0006AEE276A29EEA17A36EEC77A69EE829A26
:1017D0006AEEA77A79EEE79A6AEEA1AA2AEE02AA41
:1017E0003AEECAAA794BD3ED007AF5EEC07AF1EE63
:1017F00010FA40F3DB80D3ED006A66EE876A9FED56
:10180000746A66EE866A7349D1ED007A77EEA66A4D
:10181000C1ED006AD3ED006A66EEA96A66EE866ADB
:101820006D4AD2ED007A77EEA66AC2ED006AD3ED7A
:10183000007A67EE8A7A67EE867A684BD3ED006AA3
:1018400076EEA77AC3ED007AD1ED007A78EEA78A1A
:10185000D2ED007A39EE279AD3ED007A38EE278A56
:101860005F4BD3ED007A27EE877A78EE878AD3ED47
:10187000007A67EEA99A39EE299AD3ED00AA2AEEEA
:101880008AAA38EE0A8ADFED577A68EEA78A29EE2F
:10189000279A28EE271A4B4FD7ED006A474E96ED50
:1018A000007A494D95ED000A67EE687A29EE006AE4
:1018B00077EEC67A424C94ED006A26EE016A77EE26
:1018C000C67A97ED006A76EE277AC7ED007A68EE61
:1018D000A67A21EE006A77EE867A94ED006A26EE0B
:1018E000096A77EEC67A96ED006A76EE277AC6ED3B
:1018F000007A69EE267A21EE076A77EEC67A94EDD1
:10190000006A26EE286A77EE867A95ED006A76EE12
:10191000277AC5ED007A21EE261A29EE079A31EED4
:10192000091A68EE808A31EE681AD4ED007A31EE39
:10193000271A84ED001AD7ED007A97ED000A67EEBA
:10194000807A96ED000A96ED007A20EE070A77EE8F
:10195000807A95ED000A95ED007A20EE070A77EE81
:10196000807A94ED000A94ED007A20EE070A37EEB3
:10197000800AFFF7A5FED7ED007A67EE807AC7ED03
:10198000007AD6ED007A67EE807AC6ED007AD5ED62
:10199000007A67EE807AC5ED007AD4ED007A27EE02
:1019A000800A84ED000ABDEC068BF8BD0023094ACD
:1019B0001360094A1360094A136051E7A00200202E
:1019C000A802002000000020A4020020AC02002099
:1019D0006F12033B94020020980200209C0200201A
:1019E000040000206F12833AF0B52DED108B87B004
:1019F000F0EE409AB0EE60AAB0EE418AF0EE618A55
:101A0000F0EE42BAB0EE62CAB0EE439AF0EE63AACC
:101A1000B0EE44BAB5EE403AF1EE10FA0CBF012335
:101A20000023F5EE403AF1EE10FA03F0010318BF7F
:101A300000232BB1B5EE404AF1EE10FA00F00E8211
:101A4000B4EE6A9AF1EE10FA80F10882B4EE4BBA65
:101A5000F1EE10FA80F10282F5EE408AF1EE10FA12
:101A600014BF01230023F5EE40BAF1EE10FA18BFBF
:101A700043F001032BB9B5EE40CAF1EE10FA00F0C5
:101A8000598168EEA87A2BEEAB0A77EE807A2CEEBD
:101A90000C0A37EE800AFFF713FE68EE806ACDED80
:101AA000026A6BEE805ACDED035A2CEE005A8DED92
:101AB000045A69EE097A2AEEAA0A77EE807A2BEEAA
:101AC0000B0A37EE800AFFF7FBFD29EE009A6AEE5B
:101AD00080AA6BEE008AED4B93ED007AD3ED007A8D
:101AE00067EE277ACDED057AD3ED00EAE849D1ED2E
:101AF000007A6EEEA7EA93ED00FAE64AD2ED007A9C
:101B00002FEE27FA93ED007AE34BD3ED007A67EEE0
:101B1000277A91ED00CA91ED007A2CEE07CAD1ED3B
:101B2000006A92ED007A66EE876AD1ED00BA93ED15
:101B3000007A6BEE87BA92ED00EA92ED007A2EEE13
:101B400007EA92ED00BA93ED007A2BEE07BAD3EDD7
:101B500000DA93ED007A6DEE87DAF6EE00FA7FEEAA
:101B6000CECA7CEEEDCA2CEE897A36EEE7DA2DEE9F
:101B70002A6A37EE067A3FEE2B6A8DED016A26EE71
:101B8000286A37EE067A37EE077A77EEA67A67EE9E
:101B9000897A3FEECCCA7CEE6D6A66EEAA6A77EE71
:101BA000A67A7BEE6E6A66EEA86A77EEA67A77EE84
:101BB000A77A27EE077A67EEA77A37EE277A17EE2D
:101BC000100AFEF7E1FC41EC100B08F0B5FE51ECF9
:101BD000100BFFF709F807EE100A7BEECFBA6BEE99
:101BE000897A3EEE8BBA6BEE2A6A77EEA67A3CEEE5
:101BF0004ECA2CEE28EA77EE8E7A77EEA77ADDEDE4
:101C0000054A74EEEFFA7FEEADDA6CEE87CA6BEE42
:101C1000A76A7CEEA6CA2DEE07DA6BEE276A3DEEC8
:101C200026DA9DED016A26EE077A6CEE277A77EECA
:101C3000277ADDED035A65EEAD6A9DED045A2BEE71
:101C4000057A76EEC76A2AEEA77A28EE8D6A37EE15
:101C5000467A36EE877A6BEE852ADDED026A66EE0D
:101C6000ADDA72EEEDDA68EEAC8A69EE277A78EEDC
:101C7000E78A7DEEA88A2BEE26BA6BEEA5BA3BEE7C
:101C80006BBA29EE0D9A6AEEACAA39EE6A9A3BEE6F
:101C900009BA824BD3ED007AF5EEC07AF1EE10FA74
:101CA00040F3EB80D3ED006A66EE876A9FED7C6AB5
:101CB00066EE866A7B49D1ED007A77EEA66AC1EDC1
:101CC000006AD3ED006A66EEA86A66EE866A764A16
:101CD000D2ED007A77EEA66AC2ED006AD3ED007A03
:101CE00067EE8B7A67EE867A704BD3ED006A76EEFC
:101CF000A77AC3ED007AD1ED007A79EEA79AD2EDFA
:101D0000007A3AEE27AAD3ED007A38EE278A684B9C
:101D1000D3ED007A67EE877A79EEA79AD3ED007A51
:101D200067EEA88A3AEE28AA93ED009A29EE0BBA3C
:101D300038EE0B8A9FED5F1A69EE819A2AEE01AAAE
:101D400028EE018A514F97ED001A514ED6ED000A48
:101D5000504D95ED000A60EEE97A2AEE007A77EEB2
:101D6000C77A4D4C94ED007A27EE087A77EEC77A61
:101D700097ED007A77EE277AC7ED007A69EE817ADF
:101D800028EE007A77EE877A94ED007A27EE0A7AC9
:101D900077EEC77A96ED007A77EE277AC6ED007A6D
:101DA0006AEE017A28EE207A77EEC77A94ED007A0F
:101DB00027EE297A77EE877A95ED007A77EE277A03
:101DC000C5ED007A28EE018A2AEE20AA38EE0A8AAA
:101DD00069EE809A38EE698AD4ED009A38EE298A45
:101DE00084ED008AD7ED007A97ED000A67EE807ADD
:101DF00096ED000A96ED007A20EE070A77EE807ADB
:101E000095ED000A95ED007A20EE070A77EE807ACC
:101E100094ED000A94ED007A20EE070A37EE800A6E
:101E2000FFF74EFCD7ED007A67EE807AC7ED007AB7
:101E3000D6ED007A67EE807AC6ED007AD5ED007AAD
:101E400067EE807AC5ED007AD4ED007A27EE800A3D
:101E500084ED000A07B0BDEC108BF0BDF0EE4C2A0B
:101E6000B0EE6B2AF0EE681AB0EE481AF0EE4A0AAD
:101E7000B0EE690AFFF73CFCECE70023094A136067
:101E8000094A1360094A136041E700BF00000020BF
:101E9000A0020020A4020020A8020020AC02002022
:101EA0006F12033B94020020980200209C02002045
:101EB000040000206F12833A2DE9F0412DED048BD0
:101EC0000446DFF87081D8ED007A564D95ED007A22
:101ED00067EE877A544E96ED007A544FD7ED006A3C
:101EE00027EE267A77EE877A37EEA78AD5ED007A45
:101EF00095ED007A67EE877A96ED007AD6ED006A66
:101F000027EE267A77EE877A77EEA77AF7EE008AC1
:101F100078EEE77A17EE900AFEF736FB41EC190BE4
:101F200018EE100AFEF730FBB0EE491AF0EE691A0F
:101F300041EC100B08F0FEFC51EC100BFEF754FEC8
:101F40002060D8ED007A96ED007A67EE877A97EDFB
:101F5000007AD5ED006A27EE267A77EEC77A77EE1B
:101F6000A77AB0EEE77AB4EEE87AF1EE10FA4BDB3E
:101F7000F5EEC07AF1EE10FA44D42D4B63602D4B90
:101F8000D3ED007A294B93ED007A67EE877A254AE4
:101F900092ED007A244AD2ED006A27EE267A77EE97
:101FA000877A37EEA78AD2ED007A92ED007A67EE53
:101FB000877A93ED007AD3ED006A27EE267A77EEE2
:101FC000877A77EEA77AB7EE007A77EE677A17EE20
:101FD000900AFEF7D9FA41EC190B18EE100AFEF739
:101FE000D3FAB0EE491AF0EE691A41EC100B08F082
:101FF000A1FC51EC100BFEF7F7FDA060BDEC048BCB
:10200000BDE8F0810C4BB9E717EE900AFEF7BCFA79
:1020100041EC100B08F052FC51EC100BFEF7E4FD04
:102020006060ACE7A0020020A4020020A80200200B
:10203000DB0FC93F00000020DB0FC9BF08B501F06E
:1020400077FB00F041FF00F01DFC08BD9FED010A89
:10205000704700BF00000000704700000000000053
:102060002DE9F84F2DED048BF0EE408AB0EE608A3A
:10207000B4EEE00AF1EE10FA3EDD30EE609A19EEB1
:10208000100AFEF781FA82468B4618EE900AFEF798
:102090007BFA06460F4602460B462FA1D1E9000106
:1020A000FEF712F98046894618EE100AFEF76CFA20
:1020B00004460D4602460B4640464946FEF706F9E1
:1020C00002460B4650465946FEF746FD70B122A324
:1020D000D3E9002330463946FEF7F6F822462B4670
:1020E000FEF7F2F8FEF780FD09EE100AB0EE490A9D
:1020F000BDEC048BBDE8F88F70EEC07A17EE900A45
:10210000FEF742FA06460F4618EE100AFEF73CFAB2
:1021100002460B4610A1D1E90001FEF7D5F80446AE
:102120000D4618EE900AFEF72FFA22462B46FEF7D0
:10213000CDF804460D4602460B4630463946FEF7BA
:102140000BFD30B120462946FEF74EFD09EE100A80
:10215000CCE738EEC89AC9E7182D4454FB21194042
:10216000D0ED007A30EE670AB0EEC07AB4EEE07AD5
:10217000F1EE10FA10DBF5EEC00AF1EE10FA04DD14
:10218000B5EEC00AF1EE10FA10D4F5EEC00AF1EE89
:1021900010FA06D4B0EE600A37EE800A80ED000A2D
:1021A0007047B5EEC00AF1EE10FA02DDB1EE600A3A
:1021B000F2E7B0EE600AEFE708B50FE02D4C2168BA
:1021C0002D48FFF7C1F821682C48FFF7BDF82168BA
:1021D0002B48FFF7B9F8022005F0DAF8294BD3EDC8
:1021E000000A294B93ED000AFFF73AFF9FED278A7B
:1021F000204CF0EE480A21681F48FEF7C9FE244E25
:1022000086ED000A234BD3ED000A234B93ED000A21
:10221000FFF726FFF0EE480A21681848FEF7B8FEDF
:102220001E4D85ED000A1E4BD3ED000A1D4B93EDAC
:10223000000AFFF715FFF0EE480A21681048FEF784
:10224000A7FEB1EE400A184C84ED000A96ED000A94
:102250008220FFF701FF95ED000A8420FFF7FCFEC6
:1022600094ED000A8620FFF7F7FE104B1B78002B39
:10227000A4D1B0E70D85000888030020E402002007
:102280005C070020D40D002028040020000000007E
:1022900078050020D00D002084030020D404002005
:1022A000E40D0020FC0700201C060020B0020020E6
:1022B00008B511E000232360336029684348FFF725
:1022C00043F829684248FFF73FF829684148FFF77B
:1022D0003BF80A2005F05CF83F4C404D404B93ED35
:1022E000000AD4ED000A2968B1EE400A3748FEF72B
:1022F0004FFE3C4B83ED000A3B4B93ED000AD4EDBF
:10230000000A2968B1EE400A3148FEF741FE374B1A
:1023100083ED000A5220FFF799FEB0EE408A5E205E
:10232000FFF794FEF0EE400A314EB0EE480A304618
:10233000FFF716FF96ED000A2E4BD3ED007ADFED86
:102340002E0A296830EE670A2248FEF721FEB0EE19
:10235000408A4620FFF77AFE38EE000A274B83EDCD
:10236000000ADFED270A2046FFF7FAFE2268254B18
:102370001A604820FFF76AFE9FED238A234BD3EDB6
:10238000007AF0EE480A30EE270A2148FFF7E8FE0F
:102390004A20FFF75BFE1F4BD3ED007AF0EE480AB0
:1023A00030EE270A1C48FFF7DBFE4C20FFF74EFEFD
:1023B0001A4BD3ED007A30EE270A194B83ED000A51
:1023C000184B1B78002B7FF475AF82E720060020A6
:1023D000C006002000080020B40200200D8500087F
:1023E000DC0D0020D8020020E00D0020E0020020DB
:1023F0009C080020E80D002000000000BC02002026
:10240000CDCC4C3EB80200208FC2753C2404002085
:10241000280400208003002084030020F807002007
:10242000FC070020B00200202DE9F04F2DED088BB5
:1024300085B0F0EE40AA6A4B93ED00BA8DED00BA7C
:10244000684B1B680193684B1B680293674B1B68C2
:1024500003934FF0000AB7EE008A60E004AB03EB91
:102460008A0353ED048A38EEAAAADFED617A3AEEC8
:1024700067AAF1EE687A77EEEA7A17EE900AFEF72D
:1024800083F841EC190B1AEE100AFEF77DF8B0EE56
:10249000491AF0EE691A41EC100B08F095F99FED1E
:1024A0004C1B08F091F951EC100BFEF79DFB834695
:1024B00018EE900AFEF768F804460D46F0EEE87A4A
:1024C00017EE900AFEF760F806460F465846FEF7EC
:1024D0005BF802460B4630463946FDF7F5FE3EA353
:1024E000D3E90023FDF7F2FE02460B4620462946BB
:1024F000FEF7CCF9804621F0004918EE100AFEF7ED
:1025000043F849EC118B41EC100B08F05DF951ECEC
:10251000100BFEF769FB08EE100A0AF1010ABAF186
:10252000030F9BDDCBEE087A77EEAA7A17EE900ABE
:10253000FEF72AF841EC100B08F0FEF951EC100BF5
:10254000FEF752FB264B1860264C94ED007AC7EE3E
:10255000087A77EEAA7A17EE900AFEF715F841ECA2
:10256000100B08F0E9F951EC100BFEF73DFB206071
:102570001D4C94ED007AC7EE087A77EEAA7A17EE32
:10258000900AFEF701F841EC100B08F0D5F951EC78
:10259000100BFEF729FB2060144C94ED007AC7EE77
:1025A000087A77EEAA7A17EE900AFDF7EDFF41EC74
:1025B000100B08F0C1F951EC100BFEF715FB206071
:1025C00005B0BDEC088BBDE8F08F00BFAFF3008015
:1025D000000000000000000048AFBC9AF2D77A3E2D
:1025E000C0020020C4020020C8020020CC0200204B
:1025F00000401C460000000080B517E0C4ED008AD2
:10260000C5ED008AC6ED008AC7ED008A864C2168B8
:102610008648FEF799FE21688548FEF795FE2168F9
:102620008448FEF791FE012004F0B2FE824B93ED48
:10263000007A824BD3ED007A9FED77AB77EE677A25
:1026400017EE900AFDF7A0FFB0EE4A1AF0EE6A1AF4
:1026500041EC100B08F0E0F89FED719BB0EE491AC9
:10266000F0EE691A08F0B0F851EC100BFEF7BCFA66
:1026700008EE100A724B1860724B93ED007A724BA1
:10268000D3ED007A77EE677A17EE900AFDF77CFFBC
:10269000B0EE4A1AF0EE6A1A41EC100B08F0BCF8E2
:1026A000B0EE491AF0EE691A08F08EF851EC100BF2
:1026B000FEF79AFA654D2860654B93ED007A654BFD
:1026C000D3ED007A77EE677A17EE900AFDF75CFF9C
:1026D000B0EE4A1AF0EE6A1A41EC100B08F09CF8C2
:1026E000B0EE491AF0EE691A08F06EF851EC100BD2
:1026F000FEF77AFADFF88491C9F80000DFED568A18
:10270000494CDFF82881F0EE680A2168B0EE480AEB
:102710004046FEF73DFC514E86ED000A444FF0EE78
:10272000680A216895ED000A3846FEF731FC4C4DE9
:1027300085ED000AF0EE680A216899ED000A3D482F
:10274000FEF726FC474C84ED000A98ED170A882016
:10275000FFF782FC97ED170A8A20FFF77DFC96EDC4
:10276000000A3A20FFF778FC95ED000A3C20FFF7BD
:1027700073FC94ED000A3E20FFF76EFCDFF8008149
:1027800098ED000A4420FFF767FC96ED006AD5ED4E
:10279000007A36EE277AD4ED006A37EE267A324F89
:1027A00087ED007A36EE677A37EE667A2F4E86ED41
:1027B000007AB1EE467A37EE677A36EE877A2C4D9C
:1027C00085ED007A77EEC67A77EEE67A294CC4ED8D
:1027D000007A98ED000A20EE000AFFF725FE97ED3B
:1027E000000A8C20FFF738FC96ED000A8E20FFF7D8
:1027F00033FC95ED000A9020FFF72EFC94ED000AC3
:102800009220FFF729FC1C4B1B78002B7FF4F6AEBF
:1028100009E700BFAFF3008000000000000059404E
:1028200000000000000059C00D850008D8040020F9
:10283000340400207C05002078050020240D0020B1
:1028400074050020D4040020280D0020D0040020AE
:102850001C060020300D002000000000D4020020E3
:10286000D0020020DC020020C0020020C4020020B0
:10287000C8020020CC020020B00200201806002070
:10288000B802002010B52DED048BDFED678A9FEDB7
:10289000678A0022F2EE0E2AB0EE682AF7EE001ADE
:1028A0001146B0EE481AF0EE480AB0EE480A604809
:1028B000FEF752FD9FED5F9A0022F0EE492AB0EE3E
:1028C000682AF7EE001A1146B0EE481AF0EE480AF0
:1028D000B0EE480A5848FEF73FFD0022F0EE492AC4
:1028E000B0EE682AF7EE001A1146B0EE481AF0EE84
:1028F000480AB0EE480A5148FEF72EFD9FED509A67
:10290000DFED509ADFED508A504C0022F0EE492A5C
:10291000B0EE692AF0EE681A2168B0EE481AF0EEBF
:10292000480AB0EE480A4A48FEF716FD0022F0EECB
:10293000492AB0EE692AF0EE681A2168B0EE481A0A
:10294000F0EE480AB0EE480A4248FEF705FD0022C4
:10295000F0EE492AB0EE692AF0EE681A2168B0EE6E
:10296000481AF0EE480AB0EE480A3B48FEF7F4FC7D
:10297000DFED3A9A0022F0EE692AB0EE492AF0EE35
:10298000681A2168B0EE481AF0EE480AB0EE480A1C
:102990003348FEF7E1FC0022F0EE692AB0EE492A46
:1029A000F0EE681A2168B0EE481AF0EE480AB0EE70
:1029B000480A2C48FEF7D0FC0022F0EE692AB0EE5F
:1029C000492AF0EE681A2168B0EE481AF0EE480A7B
:1029D000B0EE480A2448FEF7BFFCBFEE000A6220B2
:1029E000FFF73AFBBFEE000A6420FFF735FBB0EEBD
:1029F000680A9A20FFF730FB1C4A00211C4804F0AB
:102A00005BFC1C4B18601C4A00211C4804F054FC61
:102A10001B4B18601B4A00211B4804F04DFC1B4B4C
:102A20001860BDEC048B10BD0050C34700000000CF
:102A300000080020EC51B83D20060020C006002010
:102A40000000A042C3F5483F000048420D85000841
:102A500088030020E40200205C07002000803B4542
:102A6000D8040020340400207C05002004C10008A4
:102A7000F925000830040020E0C00008B921000852
:102A80002C04002028C10008B1220008BC06002048
:102A900008B5224C204600F005FC94ED000A2048C1
:102AA000FEF793FC1F4E86ED000A94ED010A1E48C6
:102AB000FEF78BFC1D4D85ED000A94ED020A1C48C3
:102AC000FEF783FC1B4C84ED000A96ED000A1A48C1
:102AD000FEF722FD86ED000A95ED000A1748FEF785
:102AE0001BFD85ED000A94ED000A1548FEF714FD64
:102AF00084ED000A96ED000A7420FFF7ADFA95ED1B
:102B0000000A7620FFF7A8FA94ED000A7820FFF774
:102B1000A3FA012004F03CFCBBE700BF400D0020FD
:102B2000340C0020A4080020480C0020A808002035
:102B30005C0C0020AC080020B00800201409002024
:102B40007809002008B5404D284600F001FC95EDBD
:102B5000070A3E48FEF739FC3D4E86ED000A95ED2A
:102B6000080A3C48FEF731FC3B4C84ED000A95ED29
:102B7000090A3A48FEF729FC394D85ED000A96ED21
:102B8000000A3848FEF721FC86ED000A94ED000AA1
:102B90003548FEF71AFC84ED000A95ED000A33482B
:102BA000FEF713FC85ED000A96ED000A3048FEF7AB
:102BB000B3FC86ED000A94ED000A2E48FEF7ACFC4B
:102BC00084ED000A95ED000A2B48FEF7A5FC85ED83
:102BD000000A96ED000A2948FEF79EFC86ED000AE1
:102BE00094ED000A2648FEF797FC84ED000A95ED67
:102BF000000A2448FEF790FCF0EE407A85ED000ACA
:102C0000D6ED006AB1EE047A86EE870A86ED000AF8
:102C100094ED006AC6EE076AC4ED006AC7EE876AE3
:102C2000C5ED006A7C20FFF717FA94ED000A7E20BC
:102C3000FFF712FA95ED000A8020FFF70DFA012048
:102C400004F0A6FB7FE700BF400D0020700C0020C1
:102C5000240D0020980C0020280D0020C00C00201E
:102C6000300D0020840C0020AC0C0020D40C00207F
:102C7000DC090020A40A00206C0B0020400A002080
:102C8000080B0020D00B002008B5084C204600F0AF
:102C9000ABFB626B064B1A60A26B064B1A60E26BD1
:102CA000054B1A60642004F073FBEEE7400D002032
:102CB000380D00203C0D0020CC0D002000B585B063
:102CC0006F4B93ED000ADFED6F7A20EE270A6E4B13
:102CD000D3ED000A60EEA70A6C4B93ED001A21EECB
:102CE000271ADFED6B7A6B4B93ED004A6A4BD3EDFD
:102CF000003A6A4B93ED003A694BD3ED002A694BD9
:102D000093ED002A684BD3ED001A81EE271AC0EE2E
:102D1000A70A80EE270AFEF767FE01A8FFF7CCF8A6
:102D2000624E96ED00BA624B1C682046FDF72CFC03
:102D300041EC190BDDED017A77EECB7A17EE900AB4
:102D4000FDF722FC41EC110BB0EE490AF0EE690AE6
:102D500007F062FDB0EE40AAF0EE60AA84F00040F9
:102D6000FDF712FC41EC180B41EC110BB0EE4A0AD6
:102D7000F0EE6A0A07F028FD55EC104B1BEE100A26
:102D8000FDF702FC22462B46FDF7A0FAFDF72CFFCB
:102D90000AEE100A3060474DD5ED00AADDED027A4B
:102DA00077EEEA7A17EE900AFDF7EEFB41EC110B95
:102DB000B0EE490AF0EE690A07F02EFDB0EE481AAF
:102DC000F0EE681A07F000FD59EC108B1AEE900A2D
:102DD000FDF7DAFB42464B46FDF778FAFDF704FFB4
:102DE0002860354CD4ED00AADDED037A77EEEA7A5F
:102DF00017EE900AFDF7C8FB41EC110BB0EE490A43
:102E0000F0EE690A07F008FDB0EE481AF0EE681A15
:102E100007F0DAFC59EC108B1AEE900AFDF7B4FBC0
:102E200042464B46FDF752FAFDF7DEFE2060B0EE5B
:102E30004A0A2248FEF7C9FA86ED000A95ED000A13
:102E40001F48FEF7C2FA85ED000A94ED000A1D48FE
:102E5000FEF7BBFA84ED000A96ED000A2E20FFF77C
:102E6000FBF895ED000A3020FFF7F6F894ED000A24
:102E70003220FFF7F1F8022004F08AFA20E700BFC1
:102E8000240D0020DB0F4940280D0020300D0020CC
:102E90000000B443CC0D0020380D00203C0D002074
:102EA000AC080020A8080020A4080020D40D0020B1
:102EB00060000020D00D0020E40D0020FC0C00205C
:102EC000E80C0020100D00202DE9F0472DED028BBD
:102ED000DFF870A2504600F07DF9724E724D734CCF
:102EE00033462A4621687248FEF759FA33462A4685
:102EF00021687048FEF753FA33462A4621686E4827
:102F0000FEF74DFADFF84092DFF840826B4F4B46F8
:102F1000424639686A48FEF742FA4B4642463968EB
:102F20006848FEF73CFA4B46424639686648FEF769
:102F300036FA9FED668ADFED668AF2EE041AB7EE86
:102F4000001AF0EE480AB0EE680A40216148FEF728
:102F50004AFAF2EE041AB7EE001AF0EE480AB0EEA2
:102F6000680A40215C48FEF73EFAF2EE041AB7EE1A
:102F7000001AF0EE480AB0EE680A40215748FEF702
:102F800032FAF1EE041AB7EE001AF0EE480AB0EE8B
:102F9000680A40215248FEF726FAF1EE041AB7EE0D
:102FA000001AF0EE480AB0EE680A40214D48FEF7DC
:102FB0001AFAF1EE041AB7EE001AF0EE480AB0EE73
:102FC000680A40214848FEF70EFA33462A4621682F
:102FD0004648FEF7E4F933462A4621684448FEF79E
:102FE000DEF933462A4621684248FEF7D8F9DFED7C
:102FF000428AF2EE041AB7EE001AF0EE480AB0EE7A
:10300000680A40213D48FEF7EEF9F2EE041AB7EEE9
:10301000001AF0EE480AB0EE680A40213848FEF780
:10302000E2F9F2EE041AB7EE001AF0EE480AB0EE3A
:10303000680A40213348FEF7D6F933462A4621680C
:103040003148FEF7ACF933462A4621682F48FEF78F
:10305000A6F933462A4621682D48FEF7A0F95046C6
:1030600000F006FB2B4A00212B4804F025F92B4BDE
:1030700018602B4A00212B4804F01EF92A4B1860D7
:103080002A4A00212A4804F017F92A4B18602A4AD4
:1030900000212A4804F010F9294B1860BDEC028B7E
:1030A000BDE8F08734000020080000202C0000203C
:1030B000700C0020980C0020C00C00203000002074
:1030C000840C0020AC0C0020D40C002000007A44BA
:1030D00000004842DC090020A40A00206C0B0020FC
:1030E000400A0020080B0020D00B0020340C0020E8
:1030F000480C00205C0C002000002042B00800209A
:103100001409002078090020FC0C0020E80C0020A5
:10311000100D002074C10008912A0008A0080020AA
:1031200098C10008452B00082C0D0020BCC10008E8
:10313000892C0008340D0020E0C10008BD2C0008D7
:10314000D80D0020400D002048000020180000206D
:103150002DE9F04184B0044616461D468DF80F1047
:103160000C4F4FF06408CDF8008001230DF10F02E1
:1031700000FA03F1384601F025FF6100CDF8008028
:1031800033462A4641F00101384601F0D9FF04B028
:10319000BDE8F0810C0E002070B584B08DF80F10E2
:1031A0008DF80E2044000A4D6426009601230DF18F
:1031B0000F022146284601F005FF009601230DF17C
:1031C0000E022146284601F0FDFE04B070BD00BF8E
:1031D0000C0E002010B5044606221A216820FFF7C5
:1031E000DBFF1B2211466820FFF7D6FF10221C21AF
:1031F0006820FFF7D1FF04221D216820FFF7CCFFD4
:10320000022237216820FFF7C7FF16220A210C206F
:10321000FFF7C2FF4FF07E5363652365E364A3614C
:1032200010BD000010B582B004466B460622432153
:103230006820FFF78DFF9DF800309DF8012042EADD
:103240000322524212B2144B1A809DF802109DF8CC
:10325000033043EA01235B421BB210490B809DF807
:1032600004009DF8051041EA002109B20C480180D4
:1032700007EE902AF8EEE77AC4ED197A07EE903A55
:10328000F8EEE77AC4ED1A7A07EE901AF8EEE77ACC
:10329000C4ED1B7A02B010BDF20D0020F40D002029
:1032A000F60D002010B582B004466B4606223B2185
:1032B0006820FFF74DFF9DF800209DF8013043EA9C
:1032C00002235B421BB21F4A13809DF802109DF837
:1032D000032042EA01221C48524202809DF8041059
:1032E0009DF8052042EA012218490A8094ED037AEC
:1032F00007EE903AF8EEE77A77EE877A94ED067A61
:10330000C7EE876AC4ED006AD4ED046AB0F90030F4
:1033100007EE903AF8EEE77A77EEA67AC7EE876A7C
:10332000C4ED016AD4ED056AB1F9003007EE903AB8
:10333000F8EEE77A77EEA67AC7EE876AC4ED026AFE
:1033400002B010BDEC0D0020EE0D0020F00D0020AD
:1033500010B582B004466B46062243216820FFF771
:10336000F7FE9DF800309DF8012042EA0322524208
:1033700012B21A4B1A809DF802109DF8033043EAEE
:1033800001235B421BB216490B809DF804009DF897
:10339000051041EA002109B21248018094ED0A7A31
:1033A00007EE902AF8EEE77A77EE877AC4ED077A8F
:1033B00094ED0B7A07EE903AF8EEE77A77EE877A9B
:1033C000C4ED087A94ED0C7A07EE901AF8EEE77ADD
:1033D00077EE877AC4ED097A02B010BDF20D0020B5
:1033E000F40D0020F60D002010B582B004466B46A7
:1033F000072203210C20FFF7ABFE9DF803309DF858
:10340000021041EA0321494209B2214B19809DF87B
:1034100001309DF8002042EA0322524212B21D4BB5
:103420001A809DF805009DF8043043EA00235B42B2
:103430001BB21948038094ED107A07EE901AF8EE4B
:10344000E77A77EEC77AD4ED136A87EEA67A84ED31
:103450000D7A94ED117A07EE902AF8EEE77A77EE7E
:10346000C77AD4ED146A87EEA67A84ED0E7A94EDCD
:10347000127A07EE903AF8EEE77A77EEC77AD4ED53
:10348000156A87EEA67A84ED0F7A02B010BD00BFF0
:10349000F80D0020FA0D0020FC0D0020F0B52DEDF8
:1034A000088B87B004460E46B0EE40BA174600239C
:1034B00003930493059300930193029300250CE07A
:1034C000616E0391A26E0492E36E059300910192E6
:1034D0000293022001F0C2FB0135B54274DA2046A6
:1034E000FFF7A0FE002DEBD0606EFDF74DF841EC2C
:1034F0001A0B0398FDF748F8B0EE4A1AF0EE6A1A74
:1035000041EC100B07F060F951EC100BFDF76CFB70
:103510000390A06EFDF738F841EC190B0498FDF705
:1035200033F8B0EE491AF0EE691A41EC100B07F0CF
:103530004BF951EC100BFDF757FB0490E06EFDF7D3
:1035400023F841EC180B0598FDF71EF8B0EE481A69
:10355000F0EE681A41EC100B07F036F951EC100B45
:10356000FDF742FB05900098FDF70EF8B0EE4A1A01
:10357000F0EE6A1A41EC100B07F04EF951EC100B0B
:10358000FDF732FB00900198FCF7FEFFB0EE491A00
:10359000F0EE691A41EC100B07F03EF951EC100BFC
:1035A000FDF722FB01900298FCF7EEFFB0EE481AFF
:1035B000F0EE681A41EC100B07F02EF951EC100BED
:1035C000FDF712FB029084E79DED037ADDED006AC2
:1035D00037EE666ADFED237A7BEE277AB4EEE76A90
:1035E000F1EE10FA36D59DED046ADDED015A36EEA6
:1035F000655ADFED1D7A7BEE277AB4EEE75AF1EEDD
:1036000010FA2CD59DED055ADDED024A75EE647A6F
:103610009FED164A3BEE04BAF4EECB7AF1EE10FAC7
:1036200001D4002017E09FB177EE267AB6EE007A3B
:1036300067EEC77AC4ED0A7A76EE257A67EEC77A26
:10364000C4ED0B7A75EE247A67EEC77AC4ED0C7A76
:10365000012000E0002007B0BDEC088BF0BD002089
:10366000F9E700BF00005C430000C8430000BE4310
:1036700010B504469FED0B0A0420FEF7EDFC012275
:103680009FED080AC8212046FFF708FF0028F6D062
:103690009FED050A0420FEF7DFFC0221034801F03C
:1036A00077FA10BD000000000000C8420010024080
:1036B00008B50221034801F06BFA4FF47A7003F069
:1036C00067FEF6E70010024080B584B0124B186820
:1036D000FCF75AFF06460F46104C114B1868FCF7D2
:1036E00053FFCDE902010F4B1868FCF74DFFCDE900
:1036F000000132463B460C49204604F0E7FE2046D6
:10370000FCF786FD642382B22146084802F08BF85C
:103710000A2003F03DFED9E7240D002064000020BC
:10372000300D0020280D002004C20008580E002093
:1037300008B5074A0021074803F0BEFD064B186094
:10374000064A0021064803F0B7FD064B186008BD85
:1037500028C20008B1360008000E00204CC2000844
:10376000C9360008040E002008B50268034B9A42CF
:1037700000D008BD01F060FAFBE700BF0000014087
:1037800072B6FEE710B5B4B03022002128A804F0CC
:1037900065F9002423942494259426942794842264
:1037A000214602A804F05AF9264B1A6C42F08052C6
:1037B0001A641B6C03F080530093009B224B1A6821
:1037C00042F440421A601B6803F440430193019B9A
:1037D0000223289301222B9210222C922E932F94B5
:1037E00008223092C82231923293339328A800F0F5
:1037F0009BFAF8B901F0D6F9F0B90F23239302230D
:103800002493002325934FF4A05326934FF4805321
:103810002793062123A800F0F3FC78B944F2400373
:103820000293002313931B9302A800F0E3FD38B921
:1038300034B010BDFFF7A4FFFFF7A2FFFFF7A0FF12
:10384000FFF79EFF003802400070004008B501F00D
:10385000E7F9FFF797FF02F0A5F802F03FF902F051
:10386000DBF803F0E7FC02F08BF903F001FDFEE763
:10387000FEE7FEE7FEE7FEE7FEE7704708B5024811
:1038800000F0C8F808BD00BFDC0E002000B583B012
:103890000D4B1A6C42F080521A641A6C02F080527E
:1038A0000092009A5A6C42F480425A645B6C03F4B2
:1038B00080430193019B00220F216FF0010000F073
:1038C00017F803B05DF804FB003802400649CB68E6
:1038D00023F4E0631B041B0C000200F4E0600343CC
:1038E000024A1A43CA60704700ED00E00000FA0582
:1038F00000B5174BDB68C3F30223C3F1070CBCF11F
:10390000040F28BF4FF0040C03F1040EBEF1060FA4
:1039100014D9033B4FF0FF3E0EFA0CFC21EA0C01D8
:1039200099400EFA03F322EA03031943002807DB48
:103930000901C9B2074B19545DF804FB0023E9E7FC
:1039400000F00F000901C9B2034B1954F4E700BF9E
:1039500000ED00E000E400E014ED00E0002807DBEB
:1039600000F01F02400901239340024A42F8203030
:10397000704700BF00E100E07047000090F83D3064
:10398000DBB2012B3AD1022380F83D300268D368C4
:1039900043F00103D36003681A4AB3F1804F18BFA4
:1039A00093421DD0A2F57C42934219D002F5806269
:1039B000934215D002F58062934211D002F578420D
:1039C00093420DD002F57052934209D0A2F5943281
:1039D000934205D01A6842F001021A600020704735
:1039E0009968094A0A40062A18BFB2F5803F07D0F5
:1039F0001A6842F001021A600020704701207047E7
:103A00000020704700000140070001007047704728
:103A10007047704710B5044603681A6912F0020F28
:103A200011D0DA6812F0020F0DD06FF002021A61A5
:103A30000123037703689B6913F0030F79D0FFF725
:103A4000E6FF0023237723681A6912F0040F12D0CF
:103A5000DA6812F0040F0ED06FF004021A6102232C
:103A6000237723689B6913F4407F68D02046FFF7D3
:103A7000CEFF0023237723681A6912F0080F12D0B3
:103A8000DA6812F0080F0ED06FF008021A610423F2
:103A900023772368DB6913F0030F57D02046FFF725
:103AA000B6FF0023237723681A6912F0100F12D093
:103AB000DA6812F0100F0ED06FF010021A610823AE
:103AC00023772368DB6913F4407F46D02046FFF755
:103AD0009EFF0023237723681A6912F0010F03D099
:103AE000DA6812F0010F3FD123681A6912F0800FD3
:103AF00003D0DA6812F0800F3DD123681A6912F4FE
:103B0000807F03D0DA6812F0800F3BD123681A69F6
:103B100012F0400F03D0DA6812F0400F39D1236859
:103B20001A6912F0200F03D0DA6812F0200F37D193
:103B300010BDFFF76BFF2046FFF76AFF81E72046C5
:103B4000FFF764FF2046FFF763FF92E72046FFF789
:103B50005DFF2046FFF75CFFA3E72046FFF756FF17
:103B60002046FFF755FFB4E76FF001021A612046C7
:103B7000FFF7FAFDB8E76FF080021A61204600F007
:103B8000D0F8BAE76FF480721A61204600F0CAF8E4
:103B9000BCE76FF040021A612046FFF73AFFBEE72C
:103BA0006FF020021A61204600F0BAF8C0E700006A
:103BB00030B503683B4A904214BF4FF0000E4FF0FF
:103BC000010EB0F1804F14BF72464EF00102AAB947
:103BD000354CA04214BF00240124344DA8420DD01E
:103BE00064B904F1804404F58234A04214BF002477
:103BF000012405F50065A84200D01CB123F0700334
:103C00004C682343002A33D1274A904214BF002234
:103C10000122264CA0422BD052BB02F1804202F579
:103C20008232904214BF0022012204F50064A042B7
:103C30001ED0EAB91E4A904214BF0022012204F5A8
:103C40009A34A04214D09AB91A4A904214BF002262
:103C5000012204F50064A0420AD04AB9164A9042F3
:103C600014BF00220122A4F59634A04200D022B154
:103C700023F4407CCB6843EA0C0323F080034A69B9
:103C8000134303608A68C2620A6882620B4A9042E8
:103C900014BF73464EF001030BB10B69036301239C
:103CA000436130BD000001400008004000040040B6
:103CB0000044014000180040002000400004014082
:103CC00060B310B5044690F83D3013B3022384F876
:103CD0003D30214651F8040BFFF76AFF012384F8B9
:103CE000483084F83E3084F83F3084F8403084F81F
:103CF000413084F8423084F8433084F8443084F80A
:103D0000453084F8463084F8473084F83D30002050
:103D100010BD80F83C30FFF72FFED7E70120704739
:103D20007047704770470000002800F0FF8170B5B1
:103D300082B00446036813F0010F29D0954B9B68AD
:103D400003F00C03042B1AD0924B9B6803F00C0376
:103D5000082B0FD06368B3F5803F40D0002B54D1BF
:103D60008C4B1A6822F480321A601A6822F480227E
:103D70001A6039E0874B5B6813F4800FEAD0854BFB
:103D80001B6813F4003F03D06368002B00F0D08160
:103D9000236813F0020F74D07E4B9B6813F00C0F56
:103DA0005ED07C4B9B6803F00C03082B53D0E36878
:103DB000002B00F08980774A136843F001031360F9
:103DC00000F046FF0546734B1B6813F0020F72D1DB
:103DD00000F03EFF401B0228F5D90320ADE16D4AFB
:103DE000136843F48033136063682BB300F030FF33
:103DF0000546684B1B6813F4003FC9D100F028FF4B
:103E0000401B6428F5D9032097E1B3F5A02F09D012
:103E1000604B1A6822F480321A601A6822F48022F9
:103E20001A60E1E75B4B1A6842F480221A601A6854
:103E300042F480321A60D7E700F00AFF0546554B7E
:103E40001B6813F4003FA3D000F002FF401B64285E
:103E5000F5D9032071E14F4B5B6813F4800FA6D1B5
:103E60004C4B1B6813F0020F03D0E368012B40F0AA
:103E70006181484A136823F0F803216943EAC103CA
:103E80001360236813F0080F46D0636983B3414A77
:103E9000536F43F00103536700F0DAFE05463D4BD4
:103EA0005B6F13F0020F37D100F0D2FE401B0228E7
:103EB000F5D9032041E1374A136823F0F80321695B
:103EC00043EAC1031360DCE7324A136823F00103BD
:103ED000136000F0BDFE05462E4B1B6813F0020F69
:103EE000CFD000F0B5FE401B0228F5D9032024E115
:103EF000284A536F23F00103536700F0A9FE0546DB
:103F0000244B5B6F13F0020F06D000F0A1FE401BA4
:103F10000228F5D9032010E1236813F0040F7DD0A7
:103F20001C4B1B6C13F0805F1ED11A4B1A6C42F0B5
:103F300080521A641B6C03F080530193019B01258E
:103F4000154B1B6813F4807F10D0A368012B25D07C
:103F5000002B3BD10F4B1A6F22F001021A671A6F28
:103F600022F004021A671EE00025E9E70A4A1368F6
:103F700043F48073136000F06BFE0646064B1B682B
:103F800013F4807FE1D100F063FE801B6428F5D933
:103F90000320D2E000380240007000406E4A136FE8
:103FA00043F001031367A36833B300F051FE0646E4
:103FB000694B1B6F13F0020F2FD100F049FE801BDD
:103FC00041F288339842F3D90320B6E0052B09D09B
:103FD000614B1A6F22F001021A671A6F22F0040275
:103FE0001A67E0E75C4B1A6F42F004021A671A6F17
:103FF00042F001021A67D6E700F02AFE0646564B49
:104000001B6F13F0020F08D000F022FE801B41F25C
:1040100088339842F3D903208FE0FDB9A369002BC0
:1040200000F08A804C4A926802F00C02082A58D0AC
:10403000022B19D0484A136823F08073136000F0F4
:1040400007FE0446444B1B6813F0007F47D000F086
:10405000FFFD001B0228F5D903206EE03E4A136CD9
:1040600023F080531364D9E73B4A136823F080732D
:10407000136000F0EDFD0546374B1B6813F0007F21
:1040800006D000F0E5FD401B0228F5D9032054E0DE
:10409000E369226A1343626A43EA8213A26A5208FE
:1040A000013A43EA0243E26A43EA026343F00053FF
:1040B000294A5360136843F08073136000F0C8FD11
:1040C0000446254B1B6813F0007F06D100F0C0FDAD
:1040D000001B0228F5D903202FE000202DE000204E
:1040E0002BE01D4A5268012B29D002F48003E169BC
:1040F0008B4226D102F03F03216A8B4223D1616AB1
:1041000047F6C0731340B3EB811F1ED102F4403158
:10411000A36A5B08013BB1EB034F18D102F0706258
:10412000E36AB2EB036F14D1002006E00120704770
:10413000012002E0012000E0002002B070BD01205B
:10414000FBE70120F9E70120F7E70120F5E701206F
:10415000F3E70120F1E700BF0038024008B5254B26
:104160009B6803F00C03042B3FD0082B3FD1214B5D
:104170005A6802F03F025B6813F4800F12D01D4BA7
:104180005968C1F388111C480023A1FB0001FCF70A
:104190007BFD184B5B68C3F3014301335B00B0FB4D
:1041A000F3F025E0134B5968C1F3881C4FEA4C111A
:1041B000B1EB0C006EEB0E0E4FEA8E1343EA9063E8
:1041C0008101091A63EB0E03DB0043EA5173C90056
:1041D00011EB0C0C43F10003990200234FEA8C20F1
:1041E00041EA9C51FCF750FDD3E7034800E0034847
:1041F00008BD00BF0038024040787D010024F40073
:10420000002800F0A08070B50D460446524B1B6894
:1042100003F00F038B420BD24F4A136823F00F03B6
:104220000B431360136803F00F038B4240F08D8043
:10423000236813F0020F17D013F0040F04D0474A7D
:10424000936843F4E0539360236813F0080F04D09D
:10425000424A936843F460439360404A936823F072
:10426000F003A1680B439360236813F0010F31D072
:104270006368012B20D0022B25D0384A126812F037
:10428000020F64D035498A6822F0030213438B6021
:1042900000F0DEFC0646314B9B6803F00C036268BD
:1042A000B3EB820F16D000F0D3FC801B41F28833B1
:1042B0009842F0D9032045E0284A126812F4003FE2
:1042C000E0D101203EE0254A126812F0007FD9D1EA
:1042D000012037E0204B1B6803F00F03AB420AD9E3
:1042E0001D4A136823F00F032B431360136803F078
:1042F0000F03AB422DD1236813F0040F06D0174AE9
:10430000936823F4E053E1680B439360236813F050
:10431000080F07D0114A936823F46043216943EAE8
:10432000C1039360FFF71AFF0C4B9B68C3F30313A1
:104330000B4AD35CD8400B4B18600B4B186801F04C
:1043400023FC002070BD012070470120FAE7012006
:10435000F8E70120F6E700BF003C024000380240C9
:1043600070C200089C00002098000020014B1868D3
:10437000704700BF9C00002008B5FFF7F7FF044B13
:104380009B68C3F38223034AD35CD84008BD00BFB7
:104390000038024080C2000808B5FFF7E7FF044B71
:1043A0009B68C3F34233034AD35CD84008BD00BFC7
:1043B0000038024080C200080F2303600B4B9A684C
:1043C00002F0030242609A6802F0F00282609A688A
:1043D00002F4E052C2609B68DB0803F4E05303611F
:1043E000034B1B6803F00F030B607047003802405B
:1043F000003C0240F0B583B00446066816F00106A2
:104400000DD0A74B9A6822F400029A609A68416B1B
:104410000A439A60436B002B00F03981002625681F
:1044200015F4002511D09E4AD2F88C3023F44013A5
:10443000E16B0B43C2F88C30E36BB3F5801F00F0E7
:104440002881002B00F027810025236813F4801FAA
:104450000FD0934AD2F88C3023F44003216C0B43E5
:10446000C2F88C30236CB3F5800F00F0168103B9CD
:104470000125236813F0807F00D0012613F0200F60
:1044800040F01081236813F0100F0CD0844BD3F848
:104490008C2022F08072C3F88C20D3F88C20A16B82
:1044A0000A43C3F88C20236813F4804F08D07C4A59
:1044B000D2F8903023F44033616E0B43C2F8903051
:1044C000236813F4004F08D0754AD2F8903023F4D3
:1044D0004023A16E0B43C2F89030236813F4803F51
:1044E00008D06F4AD2F8903023F44013E16E0B43AA
:1044F000C2F89030236813F4003F08D0684AD2F81D
:10450000903023F44003216F0B43C2F890302368AE
:1045100013F0400F08D0624AD2F8903023F0030322
:10452000616C0B43C2F89030236813F0800F08D001
:104530005B4AD2F8903023F00C03A16C0B43C2F815
:104540009030236813F4807F08D0554AD2F8903019
:1045500023F03003E16C0B43C2F89030236813F46E
:10456000007F08D04E4AD2F8903023F0C003216D6E
:104570000B43C2F89030236813F4806F08D0484A88
:10458000D2F8903023F44073616D0B43C2F8903041
:10459000236813F4006F08D0414AD2F8903023F416
:1045A0004063A16D0B43C2F89030236813F4805F21
:1045B00008D03B4AD2F8903023F44053E16D0B43CE
:1045C000C2F89030236813F4005F08D0344AD2F860
:1045D000903023F44043216E0B43C2F8903023689F
:1045E00013F4800F08D02E4AD2F8903023F0806365
:1045F000A16F0B43C2F89030236813F4001F0DD055
:10460000274AD2F8903023F00063E16F0B43C2F8E1
:104610009030E36FB3F1006F00F0AA80236813F0CD
:10462000080F00D0012513F4802F08D01C4AD2F8BF
:10463000903023F04073616F0B43C2F890302368D1
:1046400013F4000F09D0164AD2F8903023F08053AB
:10465000D4F880100B43C2F8903026B9236813F0C9
:10466000007F00F005810E4A136823F08063136019
:1046700000F0EEFA06460A4B1B6813F0006F79D083
:1046800000F0E6FA801B6428F5D90320F3E0012648
:10469000C5E60126D5E60125D7E60126E7E600BFF7
:1046A000003802407F4B1A6C42F080521A641B6C37
:1046B00003F080530193019B7B4A136843F480739A
:1046C000136000F0C5FA0746774B1B6813F4807F30
:1046D00006D100F0BDFAC01B6428F5D90320CAE05A
:1046E000704B1B6F13F4407315D0226B02F44072B1
:1046F0009A4210D06B4B1A6F22F44072196F41F43A
:1047000080311967196F21F4803119671A671B6F9F
:1047100013F0010F12D1236B03F44072B2F5407F06
:104720001DD0604A936823F4F81393605D490B6FC2
:10473000226BC2F30B0213430B67A3E600F088FA67
:104740000746584B1B6F13F0020FE4D100F080FABC
:10475000C01B41F288339842F3D903208BE05148C3
:10476000826822F4F812514919400A438260DDE759
:10477000012553E7236813F0010F13D0636B8BB946
:10478000484AD2F88430D2F88410606803F4403389
:1047900043EA801301F070610B43A16843EA01739F
:1047A000C2F88430236813F4002F03D0E26BB2F513
:1047B000801F06D013F4801F1ED0236CB3F5800F2A
:1047C0001AD1384AD2F88430D2F88410606803F4E1
:1047D000403343EA8013E06843EA006301F0E041BC
:1047E0000B43C2F88430D2F88C3023F01F03616A87
:1047F00001390B43C2F88C30236813F0807F11D04D
:10480000284AD2F88400D2F88410666823691B0411
:1048100043EA861300F07060034301F0E0410B436C
:10482000C2F88430236813F0007F0DD062682369DA
:104830001B0443EA8213E26843EA0263A26843EA84
:104840000273184AC2F88430164A136843F0806332
:10485000136000F0FDF90646124B1B6813F0006F61
:1048600006D100F0F5F9801B6428F5D9032002E099
:10487000012D02D0002003B0F0BD0A4A136823F0D6
:104880008053136000F0E4F90546064B1B6813F0F3
:10489000005F0DD000F0DCF9401B6428F5D903203F
:1048A000E9E700BF0038024000700040FFFCFF0F46
:1048B000236813F4002F01D0E26B22B113F4801FA0
:1048C0001DD0236CDBB9354AD2F88830D2F8881075
:1048D000606903F4403343EA8013A06943EA00634C
:1048E00001F0E0410B43C2F88830D2F88C3023F459
:1048F000F853A16A013943EA0123C2F88C302368D6
:1049000013F4001F03D0E36FB3F1006F31D02368BD
:1049100013F0080F19D0214AD2F88810D2F8883045
:10492000606903F4403343EA801301F070610B4384
:10493000E16943EA0173C2F88830D2F88C3023F47D
:104940004033E16A0B43C2F88C30144A136843F0D9
:104950008053136000F07CF90446104B1B6813F081
:10496000005F19D100F074F9001B6428F5D9032009
:1049700081E70A4AD2F88800D2F888106569236A6C
:104980001B0443EA851300F07060034301F0E0412B
:104990000B43C2F88830BAE700206CE700380240C9
:1049A00000230F2B00F2E480F0B583B03AE0092237
:1049B00000E00022AA40324302346E4D45F8242024
:1049C0006D4A14686FEA0C0224EA0C054E6816F46E
:1049D000803F01D04CEA0405674C2560646802EA18
:1049E00004054E6816F4003F01D04CEA0405624C01
:1049F0006560A46802EA04054E6816F4801F01D0C1
:104A00004CEA04055C4CA560E46822404D6815F44E
:104A1000001F01D04CEA0402574CE26001330F2B17
:104A200000F2A48001229A400C6804EA020C32EAE7
:104A30000404F3D14C68651E112C18BF012D01D957
:104A4000122C12D185685E000324B44025EA0405C7
:104A5000CC68B4402C438460456825EA02054C6864
:104A6000C4F300129A402A434260C5684FEA430EDD
:104A7000032404FA0EF4E24325EA04058C6804FAE0
:104A80000EF42C43C4604C68122C18BF022C0FD1BA
:104A9000DD08083550F8257003F00704A6000F2440
:104AA000B44027EA04070C69B4403C4340F8254071
:104AB000046814404A6802F0030202FA0EF222432C
:104AC00002604A6812F0805FA8D02C4A546C44F40B
:104AD00080445464526C02F480420192019A9C0812
:104AE000A51C244A52F8256003F0030295000F220A
:104AF000AA4026EA0206224A90423FF45AAF02F543
:104B00008062904222D002F58062904220D002F56D
:104B1000806290421ED002F5806290421CD002F565
:104B2000806290421AD002F58062904218D002F55D
:104B30008062904216D002F58062904214D002F555
:104B4000806290423FF433AF0A2233E7012231E71B
:104B500002222FE703222DE704222BE7052229E773
:104B6000062227E7072225E7082223E703B0F0BD46
:104B7000704700BF00380140003C0140003802404F
:104B8000000002400AB181617047090481617047E9
:104B9000436901EA030221EA030141EA024181611A
:104BA0007047000010B582B01B4B1A6C42F0805267
:104BB0001A641B6C03F080530193019B174A13681E
:104BC00043F48033136000F043F80446134B5B68F2
:104BD00013F4803F08D100F03BF8001BB0F57A7F5A
:104BE000F4D9032002B010BD0C4A136843F400331B
:104BF000136000F02DF80446084B5B6813F4003F87
:104C000007D100F025F8001BB0F57A7FF4D9032016
:104C1000E8E70020E6E700BF0038024000700040EF
:104C200008B50320FEF752FE002000F0ADFFFEF7AE
:104C30002DFE002008BD0000034A1168034B1B78BD
:104C40000B441360704700BF080E00209600002040
:104C5000014B1868704700BF080E002038B50446A5
:104C6000FFF7F6FF0546B4F1FF3F02D0044B1B7877
:104C70001C44FFF7EDFF401BA042FAD338BD00BF34
:104C80009600002003689A6912F0020F01D00022FA
:104C90009A6203689A6912F0010F03D19A6942F08F
:104CA00001029A61704730B4029D046860684FEA5F
:104CB000555C0CF4806C4CF07F7C4CF4583C4CF40C
:104CC0007F7C4CF0030C20EA0C00C1F3090141EA9F
:104CD0000241194329430143616030BC7047F8B574
:104CE00005460E46174603689B6913F0100F01D165
:104CF0000020F8BD2B689C6914F0200F17D1B6F185
:104D0000FF3FF7D0FFF7A4FFC01BB04201D8002E31
:104D1000F0D16B6C43F020036B64202385F84130A5
:104D2000002385F8423085F840300120E1E7102269
:104D3000DA612B682024DC612846FFF7A3FF2A688C
:104D4000536823F0FF7323F48B3323F4FF7323F0B2
:104D5000010353606B6C43F004036B6485F84140BE
:104D6000002385F8423085F840300120C1E770B556
:104D700004460D46164623689B6913F0020F1DD1A9
:104D8000324629462046FFF7AAFFC8B9B5F1FF3FD2
:104D9000F1D0FFF75DFF801BA84201D8002DEAD1BA
:104DA000636C43F020036364202384F841300023C4
:104DB00084F8423084F84030012000E0002070BDCB
:104DC0000120FCE72DE9F0410646884617461D46BE
:104DD0003468A46938EA04030CBF4FF0010C4FF0AB
:104DE000000CBC4518D1B5F1FF3FF1D0FFF730FF03
:104DF000069BC01AA84201D8002DE9D1736C43F07C
:104E000020037364202386F84130002386F8423063
:104E100086F84030012000E00020BDE8F08170B548
:104E200005460C4616462B689B6913F0200F1AD1D5
:104E3000324621462846FFF752FFB0B9FFF708FF78
:104E4000801BA04201D8002CEDD16B6C43F02003F5
:104E50006B64202385F84130002385F8423085F8C3
:104E60004030012070BD0020FCE70120FAE770B55A
:104E700004460D46164623689B6913F0040F3ED185
:104E8000324629462046FFF72AFF0146002838D13E
:104E900023689A6912F0200F13D1FFF7D9FE801B07
:104EA000A84201D8002DE6D1636C43F0200363646F
:104EB000202384F84130002384F840300121084643
:104EC00070BD9A6912F0040F02D0228D002AF6D12B
:104ED0002022DA6121684B6823F0FF7323F48B33BF
:104EE00023F4FF7323F001034B600023636484F811
:104EF000412084F8423084F840300121DFE700216E
:104F0000DDE70121DBE70000002857D010B504469B
:104F100090F84130002B41D0242384F8413022689E
:104F2000136823F0010313606368226823F0706341
:104F300013612268936823F400439360E368012BB4
:104F400031D0A368226843F404439360E368022BE2
:104F50002FD0226851681A4B0B4353602268D368E4
:104F600023F40043D360236962691343A169226873
:104F700043EA0123D360E369216A22680B4313608B
:104F80002268136843F0010313600020606420234B
:104F900084F84130206384F8420010BD80F840302E
:104FA00000F066FDB8E7A368226843F4004393600D
:104FB000CCE723684FF400625A60CAE701207047CB
:104FC000008000022DE9F04782B00F460A9E90F85B
:104FD0004110C9B2202940F0A3800446904699466A
:104FE00090F84030012B00F09F804FF0010A80F8CC
:104FF00040A0FFF72DFE05460090192352464FF4BE
:1050000000412046FFF7DEFE002840F08F8021237C
:1050100084F84130102384F8423000236364C4F8DC
:105020002480A4F82A906363638D9BB2FF2B0AD976
:10503000FF222285414B00934FF080733946204672
:10504000FFF731FE18E0628D92B222853B4B009350
:105050004FF00073D2B239462046FFF724FE0BE032
:10506000628D92B22285002300934FF00073D2B27A
:1050700039462046FFF717FE638D9BB2002B33D0D5
:105080002A4631462046FFF772FE002850D1626A58
:10509000236812789A62636A01336362638D9BB2FC
:1050A000013B9BB26385238D013B9BB22385628DBF
:1050B00092B2002AE0D0002BDED1009533460022C8
:1050C00080212046FFF77EFEA0BB638D9BB2FF2BA5
:1050D000C6D9FF222285002300934FF08073394602
:1050E0002046FFF7E0FDC7E72A4631462046FFF796
:1050F00096FE08BB23682022DA6121684B6823F002
:10510000FF7323F48B3323F4FF7323F001034B600D
:1051100084F84120002384F8423084F8403000E0D5
:10512000022002B0BDE8F0870220FAE70120F8E78C
:105130000120F6E70120F4E70120F2E700200080DB
:105140002DE9F04782B00F460A9E90F84110C9B28F
:10515000202940F0A28004469046994690F84030BD
:10516000012B00F09E804FF0010A80F840A0FFF76D
:105170006FFD05460090192352464FF4004120462A
:10518000FFF720FE002840F08E80222384F8413073
:10519000102384F8423000236364C4F82480A4F808
:1051A0002A906363638D9BB2FF2B0AD9FF2222856D
:1051B000414B00934FF0807339462046FFF773FD53
:1051C00018E0628D92B222853B4B00934FF0007342
:1051D000D2B239462046FFF766FD0BE0628D92B2EF
:1051E0002285002300934FF00073D2B23946204647
:1051F000FFF759FD638D9BB2002B32D02A46314612
:105200002046FFF734FE00284FD123685A6A636AAC
:105210001A70636A01336362228D013A92B2228569
:10522000638D9BB2013B9BB26385638D9BB2002B68
:10523000E0D0002ADED10095334680212046FFF7DA
:10524000C1FDA0BB638D9BB2FF2BC7D9FF22228576
:10525000002300934FF0807339462046FFF723FD6B
:10526000C8E72A4631462046FFF7D9FD08BB236828
:105270002022DA6121684B6823F0FF7323F48B331B
:1052800023F4FF7323F001034B6084F841200023D3
:1052900084F8423084F8403000E0022002B0BDE8DB
:1052A000F0870220FAE70120F8E70120F6E7012065
:1052B000F4E70120F2E700BF0024008090F84130BD
:1052C000DBB2202B24D190F84030012B22D00123D7
:1052D00080F84030242380F841300268136823F0BE
:1052E000010313600268136823F48053136002689B
:1052F0001368194311600268136843F001031360D7
:10530000202380F84130002380F840301846704751
:10531000022070470220704790F84130DBB2202B0A
:1053200022D190F84030012B20D0012380F840306A
:10533000242380F841300268136823F001031360CE
:105340000268136823F4706343EA01211160026864
:10535000136843F001031360202380F841300023D9
:1053600080F840301846704702207047022070478E
:10537000034AD2F8883043F47003C2F8883070478B
:1053800000ED00E010B504468368026913434269EA
:105390001343C269134301680868934A02401343E8
:1053A0000B602268536823F44053E1680B43536059
:1053B000A269236A1A4321688B6823F4306313437C
:1053C0008B602368894A934219D0894A934229D035
:1053D000884A93423ED0884A934262D0874A934299
:1053E00071D0874A934200F08380864A934200F04E
:1053F0009480854A934200F0A58010233AE0834BC5
:10540000D3F8903003F00303032B09D8DFE803F04F
:105410000204AE0601232DE004232BE0082329E03B
:10542000102327E0794BD3F8903003F00C030C2BBA
:105430000ED8DFE803F0070D0D0D090D0D0D9D0DC4
:105440000D0D0B00002315E0042313E0082311E0E9
:1054500010230FE06D4BD3F8903003F03003202B76
:1054600000F0888019D8002B00F08680102B40F0C7
:1054700085800423E069B0F5004F00F0AB80082B75
:1054800000F20C81DFE813F0E800FB00E6000A01FF
:10549000FE000A010A010A010101302B70D1082324
:1054A000E8E75A4BD3F8903003F0C003802B69D063
:1054B00005D8002B68D0402B68D10423DAE7C02B35
:1054C00066D10823D6E7514BD3F8903003F44073EC
:1054D000B3F5007F5ED006D8002B5DD0B3F5807F9A
:1054E0005CD10423C6E7B3F5407F59D10823C1E757
:1054F000464BD3F8903003F44063B3F5006F51D0BE
:1055000006D8002B50D0B3F5806F4FD10423B1E7FC
:10551000B3F5406F4CD10823ACE73C4BD3F8903047
:1055200003F44053B3F5005F44D006D8002B43D0BA
:10553000B3F5805F42D104239CE7B3F5405F3FD1D0
:10554000082397E7314BD3F8903003F44043B3F589
:10555000004F37D005D8BBB3B3F5804F36D1042305
:1055600088E7B3F5404F33D1082383E7022381E76F
:1055700002237FE702237DE700237BE7102379E7FF
:10558000102377E7022375E7002373E7102371E701
:1055900010236FE702236DE700236BE7102369E711
:1055A000102367E7022365E7012363E7102361E720
:1055B00010235FE702235DE700235BE7102359E731
:1055C000102357E7022355E7002353E7102351E741
:1055D00010234FE7082B5BD8DFE803F01A343A5A60
:1055E000375A5A5A1E0000BFF369FFEF00100140FE
:1055F0000044004000480040004C00400050004083
:105600000014014000780040007C00400038024057
:10561000FEF7B2FE00283DD06268530803EB40005D
:10562000B0FBF2F080B2A0F110024FF6EF739A4295
:1056300032D820F00F03C0F3420018432368D8602B
:10564000002030E0FEF7A8FEE4E7FEF787FDE1E783
:105650001748E1E7164802E0FEF78EFE00B36368E4
:1056600000EB5300B0FBF3F080B2A0F110024FF654
:10567000EF739A4216D82368D860002013E0FEF733
:105680008BFEEBE7FEF76AFDE8E74FF40040E6E744
:10569000012008E0002006E0012004E0012002E0F3
:1056A000002000E0012000236366A36610BD00BF58
:1056B0000024F400436A13F0010F06D00268536817
:1056C00023F40033816A0B435360436A13F0020FE3
:1056D00006D00268536823F48033C16A0B435360D9
:1056E000436A13F0040F06D00268536823F4802342
:1056F000016B0B435360436A13F0080F06D0026836
:10570000536823F40043416B0B435360436A13F027
:10571000100F06D00268936823F48053816B0B430B
:105720009360436A13F0200F06D00268936823F455
:105730000053C16B0B439360436A13F0400F0AD0D0
:105740000268536823F48013016C0B435360036CAD
:10575000B3F5801F0BD0436A13F0800F06D00268A8
:10576000536823F40023816C0B4353607047026835
:10577000536823F4C003416C0B435360EBE72DE9FE
:10578000F84305460F4616469946DDF820802C68FA
:10579000E46937EA04030CBF4FF0010C4FF0000C32
:1057A000B4453DD1B8F1FF3FF1D0FFF751FAA0EB7E
:1057B0000900404522D8B8F1000F1FD02B681A68A5
:1057C00012F0040FE3D0DA6912F4006FDFD04FF467
:1057D00000621A622A68136823F4D07313602A687F
:1057E000936823F0010393602023AB67EB67C5F850
:1057F0008030002385F87430032012E02A68136893
:1058000023F4D07313602A68936823F00103936034
:105810002023AB67EB67002385F87430032000E09A
:105820000020BDE8F8832DE9F04182B01E46836F69
:10583000202B56D104460D469046002A18BF002959
:1058400053D090F87430012B51D0012380F874307C
:105850000023C0F8803021238367FFF7F9F907465A
:10586000A4F85080A4F85280A368B3F5805F05D0F7
:105870004FF00008002384F8743012E0236913B15C
:105880004FF00008F6E7A8460025F3E715F8012BCE
:1058900023689A62B4F8522092B2013A92B2A4F804
:1058A0005220B4F852309BB283B100963B4600229E
:1058B00080212046FFF763FFD8B9002DE6D138F8E4
:1058C000023B2268C3F308039362E3E700963B467A
:1058D000002240212046FFF752FF60B92023A36732
:1058E00000E0022002B0BDE8F0810120FAE70220CA
:1058F000F8E70320F6E70320F4E710B582B004468A
:105900000023C0F88030FFF7A3F923681B6813F069
:10591000080F08D12023A367E3670020206684F8DE
:10592000740002B010BD6FF07E4300930346002266
:105930004FF400112046FFF722FF0028EAD0032091
:10594000EFE768B310B50446836F03B32423A3675E
:105950002268136823F0010313602046FFF712FD4D
:10596000012813D0636ABBB92268536823F49043BB
:1059700053602268936823F02A03936022681368B7
:1059800043F0010313602046FFF7B7FF10BD80F816
:10599000743000F0BFF8D9E72046FFF78BFEE3E74D
:1059A0000120704730B589B0002403940494059415
:1059B00006940794164B1A6B42F001021A631A6B95
:1059C00002F001020092009A1A6B42F002021A637E
:1059D0001A6B02F002020192019A1A6B42F0100255
:1059E0001A631B6B03F010030293029B094D2246BE
:1059F00002212846FFF7C6F80223039301230493EC
:105A00000594069403A92846FEF7CAFF09B030BDE5
:105A1000003802400010024008B51248124B0360E3
:105A2000124B4360002383600122C2600361436123
:105A30008361C3610362FFF767FA50B90021094827
:105A4000FFF73CFC40B900210648FFF765FC30B980
:105A500008BDFDF795FEF1E7FDF792FEF3E7FDF7D0
:105A60008FFEF5E70C0E002000540040591940004D
:105A700010B588B00023039304930593069307930E
:105A80000268134B9A4201D008B010BD114C236B31
:105A900043F002032363236B03F002030193019B92
:105AA000C023039312230493012305930323069336
:105AB0000423079303A90848FEF772FF236C43F4FD
:105AC00000132364236C03F400130293029BDBE7AF
:105AD00000540040003802400004024008B50B4862
