:020000040800F2
:100000000000052035580008791600087B16000806
:100010007D1600087F160008811600080000000009
:10002000000000000000000000000000A1550008D2
:10003000831600080000000041560008A55600087D
:10004000855800088558000885580008855800081C
:10005000855800088558000885580008855800080C
:1000600085580008855800088558000885580008FC
:1000700085580008855800088558000885580008EC
:1000800085580008855800088558000885580008DC
:1000900085580008855800088558000885580008CC
:1000A00085580008851600088558000885580008FE
:1000B00085580008855800088558000885580008AC
:1000C000855800088558000885580008855800089C
:1000D000855800088558000885580008855800088C
:1000E000855800088558000885580008855800087C
:1000F000855800088558000885580008855800086C
:10010000855800088558000885580008855800085B
:10011000855800088558000885580008855800084B
:10012000855800088558000885580008855800083B
:10013000855800088558000885580008855800082B
:10014000855800088558000885580008855800081B
:10015000855800088558000885580008855800080B
:1001600085580008855800088558000885580008FB
:1001700085580008855800088558000800000000D0
:1001800085580008855800088558000885580008DB
:1001900085580008855800088558000885580008CB
:1001A00085580008855800088558000885580008BB
:1001B00085580008855800088558000885580008AB
:0801C00085580008855800086D
:1001D00010B5054C237833B9044B13B10448AFF381
:1001E00000800123237010BD3802002000000000B1
:1001F000CC89000808B5034B1BB103490348AFF392
:10020000008008BD000000003C020020CC890008EE
:10021000034613F8012B002AFBD1181A0138704746
:1002200001F0FF01102A2BDB10F0070F08D010F8A7
:10023000013B013A8B422DD010F0070F42B3F6D1AB
:10024000F0B441EA012141EA014122F007047FF0C4
:1002500000070023F0E80256083C85EA010586EA1B
:10026000010685FA47F5A3FA87F586FA47F6A5FA57
:1002700087F68EB9EED1F0BC01F0FF0102F0070263
:1002800032B110F8013B013A83EA010313B1F8D10E
:100290000020704701387047002D06BF35460338EF
:1002A000073815F0010F07D1013015F4807F02BF28
:1002B000013015F4C03F0130F0BC0138704700BF79
:1002C00081F0004102E000BF83F0004330B54FEA07
:1002D00041044FEA430594EA050F08BF90EA020F74
:1002E0001FBF54EA000C55EA020C7FEA645C7FEA07
:1002F000655C00F0E2804FEA5454D4EB5555B8BF2A
:100300006D420CDD2C4480EA020281EA030382EA9A
:10031000000083EA010180EA020281EA0303362D2C
:1003200088BF30BD11F0004F4FEA01314FF4801CFF
:100330004CEA113102D0404261EB410113F0004F11
:100340004FEA03334CEA133302D0524263EB4303C8
:1003500094EA050F00F0A780A4F10104D5F1200E66
:100360000DDB02FA0EFC22FA05F2801841F10001C1
:1003700003FA0EF2801843FA05F359410EE0A5F195
:1003800020050EF1200E012A03FA0EFC28BF4CF0C6
:10039000020C43FA05F3C01851EBE37101F000457C
:1003A00007D54FF0000EDCF1000C7EEB00006EEB89
:1003B0000101B1F5801F1BD3B1F5001F0CD3490813
:1003C0005FEA30004FEA3C0C04F101044FEA44526A
:1003D00012F5800F80F09A80BCF1004F08BF5FEAF1
:1003E000500C50F1000041EB045141EA050130BDD1
:1003F0005FEA4C0C404141EB0101013C28BFB1F5E3
:10040000801FE9D291F0000F04BF01460020B1FA2D
:1004100081F308BF2033A3F10B03B3F120020CDA00
:100420000C3208DD02F1140CC2F10C0201FA0CF0DE
:1004300021FA02F10CE002F11402D8BFC2F1200C43
:1004400001FA02F120FA0CFCDCBF41EA0C019040F9
:10045000E41AA2BF01EB0451294330BD6FEA040442
:100460001F3C1CDA0C340EDC04F11404C4F120022D
:1004700020FA04F001FA02F340EA030021FA04F33F
:1004800045EA030130BDC4F10C04C4F1200220FA96
:1004900002F001FA04F340EA0300294630BD21FAD4
:1004A00004F0294630BD94F0000F83F4801306BF9A
:1004B00081F480110134013D4EE77FEA645C18BF8E
:1004C0007FEA655C29D094EA050F08BF90EA020F25
:1004D00005D054EA000C04BF1946104630BD91EA1D
:1004E000030F1EBF0021002030BD5FEA545C05D120
:1004F0004000494128BF41F0004130BD14F580045F
:100500003CBF01F5801130BD01F0004545F0FE41D2
:1005100041F470014FF0000030BD7FEA645C1ABF07
:10052000194610467FEA655C1CBF0B46024650EA3E
:10053000013406BF52EA033591EA030F41F400216A
:1005400030BD00BF90F0000F04BF0021704730B5F0
:100550004FF4806404F132044FF000054FF00001C5
:1005600050E700BF90F0000F04BF0021704730B586
:100570004FF4806404F1320410F0004548BF40425B
:100580004FF000013EE700BF42004FEAE2014FEAB0
:1005900031014FEA02701FBF12F07F4393F07F4F8B
:1005A00081F06051704732F07F4208BF704793F08E
:1005B0007F4F04BF41F40021704730B54FF46074A1
:1005C00001F0004521F000411CE700BF50EA0102A4
:1005D00008BF704730B54FF000050AE050EA01024D
:1005E00008BF704730B511F0004502D5404261EBBD
:1005F00041014FF4806404F132045FEA915C3FF4FE
:10060000D8AE4FF003025FEADC0C18BF03325FEA9A
:10061000DC0C18BF033202EBDC02C2F1200300FA4B
:1006200003FC20FA02F001FA03FE40EA0E0021FA70
:1006300002F11444BDE600BF70B54FF0FF0C4CF45E
:10064000E06C1CEA11541DBF1CEA135594EA0C0F10
:1006500095EA0C0F00F0DEF82C4481EA030621EA4B
:100660004C5123EA4C5350EA013518BF52EA033586
:1006700041F4801143F4801338D0A0FB02CE4FF038
:100680000005E1FB02E506F00042E0FB03E54FF068
:100690000006E1FB03569CF0000F18BF4EF0010E60
:1006A000A4F1FF04B6F5007F64F5407404D25FEA5C
:1006B0004E0E6D4146EB060642EAC62141EA55510F
:1006C0004FEAC52040EA5E504FEACE2EB4F1FD0C51
:1006D00088BFBCF5E06F1ED8BEF1004F08BF5FEACF
:1006E000500E50F1000041EB045170BD06F0004681
:1006F00046EA010140EA020081EA0301B4EB5C042E
:10070000C2BFD4EB0C0541EA045170BD41F4801125
:100710004FF0000E013C00F3AB8014F1360FDEBF4A
:10072000002001F0004170BDC4F10004203C35DA26
:100730000C341BDC04F11404C4F1200500FA05F3A9
:1007400020FA04F001FA05F240EA020001F000424A
:1007500021F0004110EBD37021FA04F642EB0601C0
:100760005EEA430E08BF20EAD37070BDC4F10C04EA
:10077000C4F1200500FA04F320FA05F001FA04F2AE
:1007800040EA020001F0004110EBD37041F100019A
:100790005EEA430E08BF20EAD37070BDC4F12005A5
:1007A00000FA05F24EEA020E20FA04F301FA05F20D
:1007B00043EA020321FA04F001F0004121FA04F2B5
:1007C00020EA020000EBD3705EEA430E08BF20EA85
:1007D000D37070BD94F0000F0FD101F000464000BF
:1007E00041EB010111F4801F08BF013CF7D041EA41
:1007F000060195F0000F18BF704703F00046520045
:1008000043EB030313F4801F08BF013DF7D043EA15
:100810000603704794EA0C0F0CEA135518BF95EACB
:100820000C0F0CD050EA410618BF52EA4306D1D152
:1008300081EA030101F000414FF0000070BD50EA71
:10084000410606BF1046194652EA430619D094EAFB
:100850000C0F02D150EA013613D195EA0C0F05D1E5
:1008600052EA03361CBF104619460AD181EA030139
:1008700001F0004141F0FE4141F470014FF00000F1
:1008800070BD41F0FE4141F4780170BD70B54FF08C
:10089000FF0C4CF4E06C1CEA11541DBF1CEA13550C
:1008A00094EA0C0F95EA0C0F00F0A7F8A4EB0504EE
:1008B00081EA030E52EA03354FEA013100F08880E5
:1008C0004FEA03334FF0805545EA131343EA1263AE
:1008D0004FEA022245EA111545EA10654FEA002663
:1008E0000EF000419D4208BF964244F1FD0404F51C
:1008F000407402D25B084FEA3202B61A65EB030578
:100900005B084FEA32024FF480104FF4002CB6EB34
:10091000020E75EB030E22BFB61A754640EA0C00B4
:100920005B084FEA3202B6EB020E75EB030E22BFF4
:10093000B61A754640EA5C005B084FEA3202B6EB35
:10094000020E75EB030E22BFB61A754640EA9C00F4
:100950005B084FEA3202B6EB020E75EB030E22BFC4
:10096000B61A754640EADC0055EA060E18D04FEA82
:10097000051545EA16754FEA06164FEAC30343EA22
:1009800052734FEAC2025FEA1C1CC0D111F4801FEF
:100990000BD141EA00014FF000004FF0004CB6E7E8
:1009A00011F4801F04BF01430020B4F1FD0C88BF87
:1009B000BCF5E06F3FF6AFAEB5EB030C04BFB6EB92
:1009C000020C5FEA500C50F1000041EB045170BD85
:1009D0000EF0004E4EEA113114EB5C04C2BFD4EBB2
:1009E0000C0541EA045170BD41F480114FF0000E36
:1009F000013C90E645EA060E8DE60CEA135594EAB2
:100A00000C0F08BF95EA0C0F3FF43BAF94EA0C0FB4
:100A10000AD150EA01347FF434AF95EA0C0F7FF429
:100A200025AF104619462CE795EA0C0F06D152EA7D
:100A300003353FF4FDAE1046194622E750EA410661
:100A400018BF52EA43067FF4C5AE50EA41047FF472
:100A50000DAF52EA43057FF4EBAE12E74FF0FF3CD7
:100A600006E000BF4FF0010C02E000BF4FF0010CA8
:100A70004DF804CD4FEA410C7FEA6C5C4FEA430C21
:100A800018BF7FEA6C5C1BD001B050EA410C0CBF70
:100A900052EA430C91EA030F02BF90EA020F0020D2
:100AA000704710F1000F91EA030F58BF994208BF39
:100AB00090422CBFD8176FEAE37040F001007047F6
:100AC0004FEA410C7FEA6C5C02D150EA013C07D14D
:100AD0004FEA430C7FEA6C5CD6D152EA033CD3D098
:100AE0005DF8040B704700BF8446104662468C4692
:100AF0001946634600E000BF01B5FFF7B7FF0028C5
:100B000048BF10F1000F01BD4DF808EDFFF7F4FFED
:100B10000CBF012000205DF808FB00BF4DF808ED78
:100B2000FFF7EAFF34BF012000205DF808FB00BF9B
:100B30004DF808EDFFF7E0FF94BF012000205DF8BD
:100B400008FB00BF4DF808EDFFF7CEFF94BF012072
:100B500000205DF808FB00BF4DF808EDFFF7C4FF6B
:100B600034BF012000205DF808FB00BF4FEA410CB4
:100B70007FEA6C5C02D150EA013C0AD14FEA430C97
:100B80007FEA6C5C02D152EA033C02D14FF00000D4
:100B900070474FF0010070474FEA410212F5001212
:100BA00015D211D56FF47873B3EB625212D94FEAB4
:100BB000C12343F0004343EA505311F0004F23FA9E
:100BC00002F018BF404270474FF00000704750EAF3
:100BD000013005D111F0004008BF6FF000407047B0
:100BE0004FF00000704700BF4FEA4102B2F1E0430E
:100BF00024BFB3F5001CDCF1FE5C0DD901F0004C04
:100C00004FEAC0024CEA5070B2F1004F40EB830053
:100C100008BF20F00100704711F0804F21D113F17F
:100C20003872BCBF01F00040704741F480114FEAB8
:100C30005252C2F11802C2F1200C10FA0CF320FA41
:100C400002F018BF40F001004FEAC1234FEAD3235E
:100C500003FA0CFC40EA0C0023FA02F34FEA4303C8
:100C6000CCE77FEA625307D150EA01331EBF4FF051
:100C7000FE4040F44000704701F0004040F0FE406C
:100C800040F40000704700BF53B94AB9002908BFBB
:100C900000281CBF4FF0FF314FF0FF3000F074B957
:100CA000ADF1080C6DE904CE00F006F8DDF804E0C3
:100CB000DDE9022304B070472DE9F047089D0446A2
:100CC0008E46002B4DD18A42944669D9B2FA82F2FF
:100CD00052B101FA02F3C2F1200120FA01F10CFA3B
:100CE00002FC41EA030E94404FEA1C48210CBEFB73
:100CF000F8F61FFA8CF708FB16E341EA034306FBFC
:100D000007F199420AD91CEB030306F1FF3080F08A
:100D10001F81994240F21C81023E63445B1AA4B2D7
:100D2000B3FBF8F008FB103344EA034400FB07F779
:100D3000A7420AD91CEB040400F1FF3380F00A81BA
:100D4000A74240F207816444023840EA0640E41BAF
:100D500000261DB1D4400023C5E900433146BDE85B
:100D6000F0878B4209D9002D00F0EF800026C5E9FD
:100D7000000130463146BDE8F087B3FA83F6002E15
:100D80004AD18B4202D3824200F2F980841A61EB8D
:100D9000030301209E46002DE0D0C5E9004EDDE7AB
:100DA00002B9FFDEB2FA82F2002A40F09280A1EB93
:100DB0000C014FEA1C471FFA8CFE0126200CB1FBE8
:100DC000F7F307FB131140EA01410EFB03F08842E1
:100DD00008D91CEB010103F1FF3802D2884200F26E
:100DE000CB804346091AA4B2B1FBF7F007FB101100
:100DF00044EA01440EFB00FEA64508D91CEB04049E
:100E000000F1FF3102D2A64500F2BB800846A4EBF8
:100E10000E0440EA03409CE7C6F12007B34022FAE3
:100E200007FC4CEA030C20FA07F401FA06F31C4312
:100E3000F9404FEA1C4900FA06F3B1FBF9F8200C1F
:100E40001FFA8CFE09FB181140EA014108FB0EF065
:100E5000884202FA06F20BD91CEB010108F1FF3AB5
:100E600080F08880884240F28580A8F102086144C1
:100E7000091AA4B2B1FBF9F009FB101144EA0141CF
:100E800000FB0EFE8E4508D91CEB010100F1FF347A
:100E90006CD28E456AD90238614440EA0840A0FB12
:100EA0000294A1EB0E01A142C846A64656D353D0E8
:100EB0005DB1B3EB080261EB0E0101FA07F722FA0C
:100EC00006F3F1401F43C5E9007100263146BDE835
:100ED000F087C2F12003D8400CFA02FC21FA03F398
:100EE000914001434FEA1C471FFA8CFEB3FBF7F019
:100EF00007FB10360B0C43EA064300FB0EF69E423E
:100F000004FA02F408D91CEB030300F1FF382FD2D6
:100F10009E422DD9023863449B1B89B2B3FBF7F67E
:100F200007FB163341EA034106FB0EF38B4208D957
:100F30001CEB010106F1FF3816D28B4214D9023E98
:100F40006144C91A46EA004638E72E46284605E7B6
:100F50000646E3E61846F8E64B45A9D2B9EB020887
:100F600064EB0C0E0138A3E74646EAE7204694E717
:100F70004046D1E7D0467BE7023B614432E730464A
:100F800009E76444023842E7704700BFF0B583B018
:100F900004460D4616461F460421284604F074FCFC
:100FA00020610123019300903B463246A9B22046BE
:100FB00007F002FC03B0F0BD00B585B08DED010A6D
:100FC000012303AA01A907F007FC9DED030A05B060
:100FD0005DF804FB08B500F0ABFA00F041F808BD7D
:100FE0007047000008B5194C204600F00BF994ED4D
:100FF000070A1748FFF7E0FFF0EE407A154B83ED44
:10100000000AB1EE047A87EE870A83ED000A124DDA
:10101000D5ED006AC6EE877AC5ED007A0F4CD4EDA7
:10102000006AC6EE877AC4ED007A7C20FFF7D8FF0D
:1010300095ED000A7E20FFF7D3FF94ED000A802093
:10104000FFF7CEFF012004F0FDF8CCE77802002086
:1010500054020020680200206C020020740200206C
:1010600010B50B4C204600F065F80A4B0A4A0B49B4
:1010700009680B48FFF78AFF204600F0F9F9094A92
:101080000021094804F072F8084B186010BD00BF39
:101090007802002014000020000000201000002032
:1010A00054020020108A0008E50F0008700200209A
:1010B0002DE9F04184B0044616461D468DF80F1008
:1010C0000C4F4FF06408CDF8008001230DF10F02A2
:1010D00000FA03F1384601F079FE6100CDF8008096
:1010E00033462A4641F00101384601F02DFF04B095
:1010F000BDE8F0811803002070B584B08DF80F10A2
:101100008DF80E2044000A4D6426009601230DF14F
:101110000F022146284601F059FE009601230DF1E9
:101120000E022146284601F051FE04B070BD00BFFA
:101130001803002010B5044606221A216820FFF784
:10114000DBFF1B2211466820FFF7D6FF10221C216F
:101150006820FFF7D1FF04221D216820FFF7CCFF94
:10116000022237216820FFF7C7FF16220A210C2030
:10117000FFF7C2FF4FF07E5363652365E364A3610D
:1011800010BD000010B582B004466B460622432114
:101190006820FFF78DFF9DF800309DF8012042EA9E
:1011A0000322524212B2144B1A809DF802109DF88D
:1011B000033043EA01235B421BB210490B809DF8C8
:1011C00004009DF8051041EA002109B20C48018095
:1011D00007EE902AF8EEE77AC4ED197A07EE903A16
:1011E000F8EEE77AC4ED1A7A07EE901AF8EEE77A8D
:1011F000C4ED1B7A02B010BD0403002006030020DA
:101200000803002010B582B004466B460622432135
:101210006820FFF74DFF9DF800309DF8012042EA5D
:101220000322524212B21A4B1A809DF802109DF806
:10123000033043EA01235B421BB216490B809DF841
:1012400004009DF8051041EA002109B2124801800E
:1012500094ED0A7A07EE902AF8EEE77A77EE877A2D
:10126000C4ED077A94ED0B7A07EE903AF8EEE77A40
:1012700077EE877AC4ED087A94ED0C7A07EE901A2F
:10128000F8EEE77A77EE877AC4ED097A02B010BDFE
:10129000040300200603002008030020F0B52DED14
:1012A000088B87B004460E46B0EE40BA17460023BE
:1012B00003930493059300930193029300250CE09C
:1012C000616E0391A26E0492E36E05930091019208
:1012D0000293022001F0C6FB0135B54274DA2046C4
:1012E000FFF750FF002DEBD0606EFFF74DF941EC9A
:1012F0001A0B0398FFF748F9B0EE4A1AF0EE6A1A93
:1013000041EC100B07F08EF951EC100BFFF76CFC61
:101310000390A06EFFF738F941EC190B0498FFF722
:1013200033F9B0EE491AF0EE691A41EC100B07F0F0
:1013300079F951EC100BFFF757FC0490E06EFFF7C2
:1013400023F941EC180B0598FFF71EF9B0EE481A87
:10135000F0EE681A41EC100B07F064F951EC100B39
:10136000FFF742FC05900098FFF70EF9B0EE4A1A1D
:10137000F0EE6A1A41EC100B07F07CF951EC100BFF
:10138000FFF732FC00900198FFF7FEF8B0EE491A23
:10139000F0EE691A41EC100B07F06CF951EC100BF0
:1013A000FFF722FC01900298FFF7EEF8B0EE481A22
:1013B000F0EE681A41EC100B07F05CF951EC100BE1
:1013C000FFF712FC029084E79DED037ADDED006AE1
:1013D00037EE666ADFED237A7BEE277AB4EEE76AB2
:1013E000F1EE10FA36D59DED046ADDED015A36EEC8
:1013F000655ADFED1D7A7BEE277AB4EEE75AF1EEFF
:1014000010FA2CD59DED055ADDED024A75EE647A91
:101410009FED164A3BEE04BAF4EECB7AF1EE10FAE9
:1014200001D4002017E09FB177EE267AB6EE007A5D
:1014300067EEC77AC4ED0A7A76EE257A67EEC77A48
:10144000C4ED0B7A75EE247A67EEC77AC4ED0C7A98
:10145000012000E0002007B0BDEC088BF0BD0020AB
:10146000F9E700BF00005C430000C8430000BE4332
:1014700010B504469FED0B0A0420FFF7B1FD0122D1
:101480009FED080AC8212046FFF708FF0028F6D084
:101490009FED050A0420FFF7A3FD0221034801F098
:1014A0007BFA10BD000000000000C842001002409E
:1014B00008B50221034801F06FFA4FF47A7003F087
:1014C000C1FEF6E70010024080B582B0134B93EDE9
:1014D000077AF1EE047AC7EE277A17EE900AFFF743
:1014E00053F806460F460E4C0E4B1868FFF74CF8A3
:1014F000CDE9000132463B460B49204604F03EFF51
:101500002046FEF785FE642382B22146074802F09A
:101510008EF80A2003F096FED8E700BF780200207C
:101520002800002068020020348A0008B003002050
:1015300008B5074A0021074803F018FE064B18605B
:10154000064A0021064803F011FE064B186008BD4C
:10155000588A0008B11400080C0300207C8A000897
:10156000C91400081003002008B50268034B9A4212
:1015700000D008BD01F064FAFBE700BF00000140A5
:1015800072B6FEE710B5B4B03022002128A804F0EE
:10159000BDF900242394249425942694279484222E
:1015A000214602A804F0B2F9264B1A6C42F0805290
:1015B0001A641B6C03F080530093009B224B1A6843
:1015C00042F440421A601B6803F440430193019BBC
:1015D0000223289301222B9210222C922E932F94D7
:1015E00008223092C82231923293339328A800F017
:1015F0009FFAF8B901F0DAF9F0B90F232393022327
:101600002493002325934FF4A05326934FF4805343
:101610002793062123A800F0F7FC78B90B4B02931F
:10162000002314931B931E9302A800F0E7FD38B922
:1016300034B010BDFFF7A4FFFFF7A2FFFFF7A0FF34
:10164000FFF79EFF0038024000700040804002001B
:1016500008B501F0E9F9FFF795FF02F0A7F802F0ED
:10166000DFF802F009F902F095F903F03DFD02F010
:10167000E1F903F057FDFEE7FEE7FEE7FEE7FEE7D0
:10168000FEE7704708B5024800F0C8F808BD00BF83
:101690003404002000B583B00D4B1A6C42F0805228
:1016A0001A641A6C02F080520092009A5A6C42F44A
:1016B00080425A645B6C03F480430193019B0022D7
:1016C0000F216FF0010000F017F803B05DF804FB84
:1016D000003802400649CB6823F4E0631B041B0C6E
:1016E000000200F4E0600343024A1A43CA607047F4
:1016F00000ED00E00000FA0500B5174BDB68C3F30E
:101700000223C3F1070CBCF1040F28BF4FF0040CF7
:1017100003F1040EBEF1060F14D9033B4FF0FF3E58
:101720000EFA0CFC21EA0C0199400EFA03F322EAAE
:1017300003031943002807DB0901C9B2074B1954F9
:101740005DF804FB0023E9E700F00F000901C9B2CE
:10175000034B1954F4E700BF00ED00E000E400E0A3
:1017600014ED00E0002807DB00F01F024009012310
:101770009340024A42F82030704700BF00E100E089
:101780007047000090F83D30DBB2012B3AD10223C4
:1017900080F83D300268D36843F00103D3600368EA
:1017A0001A4AB3F1804F18BF93421DD0A2F57C4274
:1017B000934219D002F58062934215D002F58062FF
:1017C000934211D002F5784293420DD002F5705247
:1017D000934209D0A2F59432934205D01A6842F0A0
:1017E00001021A60002070479968094A0A40062AD7
:1017F00018BFB2F5803F07D01A6842F001021A60A4
:101800000020704701207047002070470000014011
:1018100007000100704770477047704710B50446D5
:1018200003681A6912F0020F11D0DA6812F0020F81
:101830000DD06FF002021A610123037703689B69E0
:1018400013F0030F79D0FFF7E6FF00232377236817
:101850001A6912F0040F12D0DA6812F0040F0ED0D9
:101860006FF004021A610223237723689B6913F443
:10187000407F68D02046FFF7CEFF00232377236800
:101880001A6912F0080F12D0DA6812F0080F0ED0A1
:101890006FF008021A61042323772368DB6913F0D1
:1018A000030F57D02046FFF7B6FF002323772368A6
:1018B0001A6912F0100F12D0DA6812F0100F0ED061
:1018C0006FF010021A61082323772368DB6913F491
:1018D000407F46D02046FFF79EFF002323772368F2
:1018E0001A6912F0010F03D0DA6812F0010F3FD12C
:1018F00023681A6912F0800F03D0DA6812F0800FA3
:101900003DD123681A6912F4807F03D0DA6812F09F
:10191000800F3BD123681A6912F0400F03D0DA68B8
:1019200012F0400F39D123681A6912F0200F03D04A
:10193000DA6812F0200F37D110BDFFF76BFF204699
:10194000FFF76AFF81E72046FFF764FF2046FFF7B5
:1019500063FF92E72046FFF75DFF2046FFF75CFF3D
:10196000A3E72046FFF756FF2046FFF755FFB4E7F1
:101970006FF001021A612046FFF7F6FDB8E76FF03D
:1019800080021A61204600F0D0F8BAE76FF4807246
:101990001A61204600F0CAF8BCE76FF040021A61F5
:1019A0002046FFF73AFFBEE76FF020021A6120469B
:1019B00000F0BAF8C0E7000030B503683B4A904237
:1019C00014BF4FF0000E4FF0010EB0F1804F14BF66
:1019D00072464EF00102AAB9354CA04214BF002451
:1019E0000124344DA8420DD064B904F1804404F5BB
:1019F0008234A04214BF0024012405F50065A842EA
:101A000000D01CB123F070034C682343002A33D16B
:101A1000274A904214BF00220122264CA0422BD01C
:101A200052BB02F1804202F58232904214BF002282
:101A3000012204F50064A0421ED0EAB91E4A904279
:101A400014BF0022012204F59A34A04214D09AB99E
:101A50001A4A904214BF0022012204F50064A042F9
:101A60000AD04AB9164A904214BF00220122A4F5B6
:101A70009634A04200D022B123F4407CCB6843EAE4
:101A80000C0323F080034A69134303608A68C2622F
:101A90000A6882620B4A904214BF73464EF00103FB
:101AA0000BB10B6903630123436130BD00000140AA
:101AB00000080040000400400044014000180040BD
:101AC000002000400004014060B310B5044690F8C7
:101AD0003D3013B3022384F83D30214651F8040B06
:101AE000FFF76AFF012384F8483084F83E3084F819
:101AF0003F3084F8403084F8413084F8423084F834
:101B0000433084F8443084F8453084F8463084F813
:101B1000473084F83D30002010BD80F83C30FFF79E
:101B20002FFED7E7012070477047704770470000CD
:101B3000002800F0FF8170B582B00446036813F0FE
:101B4000010F29D0954B9B6803F00C03042B1AD08E
:101B5000924B9B6803F00C03082B0FD06368B3F51E
:101B6000803F40D0002B54D18C4B1A6822F4803235
:101B70001A601A6822F480221A6039E0874B5B6889
:101B800013F4800FEAD0854B1B6813F4003F03D099
:101B90006368002B00F0D081236813F0020F74D02B
:101BA0007E4B9B6813F00C0F5ED07C4B9B6803F060
:101BB0000C03082B53D0E368002B00F08980774A90
:101BC000136843F00103136000F046FF0546734BB2
:101BD0001B6813F0020F72D100F03EFF401B022879
:101BE000F5D90320ADE16D4A136843F480331360E7
:101BF00063682BB300F030FF0546684B1B6813F495
:101C0000003FC9D100F028FF401B6428F5D903200C
:101C100097E1B3F5A02F09D0604B1A6822F4803207
:101C20001A601A6822F480221A60E1E75B4B1A6896
:101C300042F480221A601A6842F480321A60D7E7B0
:101C400000F00AFF0546554B1B6813F4003FA3D074
:101C500000F002FF401B6428F5D9032071E14F4BCF
:101C60005B6813F4800FA6D14C4B1B6813F0020F76
:101C700003D0E368012B40F06181484A136823F0E8
:101C8000F803216943EAC1031360236813F0080FC6
:101C900046D0636983B3414A536F43F001035367EE
:101CA00000F0DAFE05463D4B5B6F13F0020F37D1B3
:101CB00000F0D2FE401B0228F5D9032041E1374A4B
:101CC000136823F0F803216943EAC1031360DCE7DA
:101CD000324A136823F00103136000F0BDFE05468D
:101CE0002E4B1B6813F0020FCFD000F0B5FE401B47
:101CF0000228F5D9032024E1284A536F23F0010379
:101D0000536700F0A9FE0546244B5B6F13F0020FEA
:101D100006D000F0A1FE401B0228F5D9032010E1F7
:101D2000236813F0040F7DD01C4B1B6C13F0805FF5
:101D30001ED11A4B1A6C42F080521A641B6C03F0CD
:101D400080530193019B0125154B1B6813F4807F81
:101D500010D0A368012B25D0002B3BD10F4B1A6F5D
:101D600022F001021A671A6F22F004021A671EE0BD
:101D70000025E9E70A4A136843F48073136000F012
:101D80006BFE0646064B1B6813F4807FE1D100F022
:101D900063FE801B6428F5D90320D2E0003802409E
:101DA000007000406E4A136F43F001031367A3688D
:101DB00033B300F051FE0646694B1B6F13F0020F60
:101DC0002FD100F049FE801B41F288339842F3D9AD
:101DD0000320B6E0052B09D0614B1A6F22F00102F7
:101DE0001A671A6F22F004021A67E0E75C4B1A6F59
:101DF00042F004021A671A6F42F001021A67D6E72E
:101E000000F02AFE0646564B1B6F13F0020F08D057
:101E100000F022FE801B41F288339842F3D9032060
:101E20008FE0FDB9A369002B00F08A804C4A9268CC
:101E300002F00C02082A58D0022B19D0484A136825
:101E400023F08073136000F007FE0446444B1B68C8
:101E500013F0007F47D000F0FFFD001B0228F5D9EA
:101E600003206EE03E4A136C23F080531364D9E7DD
:101E70003B4A136823F08073136000F0EDFD0546C4
:101E8000374B1B6813F0007F06D000F0E5FD401BC8
:101E90000228F5D9032054E0E369226A1343626AF9
:101EA00043EA8213A26A5208013A43EA0243E26A11
:101EB00043EA026343F00053294A5360136843F036
:101EC0008073136000F0C8FD0446254B1B6813F0B7
:101ED000007F06D100F0C0FD001B0228F5D90320C9
:101EE0002FE000202DE000202BE01D4A5268012B3E
:101EF00029D002F48003E1698B4226D102F03F032E
:101F0000216A8B4223D1616A47F6C0731340B3EB59
:101F1000811F1ED102F44031A36A5B08013BB1EB83
:101F2000034F18D102F07062E36AB2EB036F14D171
:101F3000002006E001207047012002E0012000E0BF
:101F4000002002B070BD0120FBE70120F9E701206D
:101F5000F7E70120F5E70120F3E70120F1E700BFF3
:101F60000038024008B5254B9B6803F00C03042B96
:101F70003FD0082B3FD1214B5A6802F03F025B68EB
:101F800013F4800F12D01D4B5968C1F388111C48FF
:101F90000023A1FB0001FEF777FE184B5B68C3F33B
:101FA000014301335B00B0FBF3F025E0134B5968AC
:101FB000C1F3881C4FEA4C11B1EB0C006EEB0E0E16
:101FC0004FEA8E1343EA90638101091A63EB0E0313
:101FD000DB0043EA5173C90011EB0C0C43F1000321
:101FE000990200234FEA8C2041EA9C51FEF74CFEF7
:101FF000D3E7034800E0034808BD00BF00380240B3
:1020000040787D010024F400002800F0A08070B525
:102010000D460446524B1B6803F00F038B420BD254
:102020004F4A136823F00F030B431360136803F048
:102030000F038B4240F08D80236813F0020F17D0FE
:1020400013F0040F04D0474A936843F4E0539360BD
:10205000236813F0080F04D0424A936843F46043A6
:102060009360404A936823F0F003A1680B439360A8
:10207000236813F0010F31D06368012B20D0022BAD
:1020800025D0384A126812F0020F64D035498A68A8
:1020900022F0030213438B6000F0DEFC0646314B56
:1020A0009B6803F00C036268B3EB820F16D000F05C
:1020B000D3FC801B41F288339842F0D9032045E0DD
:1020C000284A126812F4003FE0D101203EE0254A80
:1020D000126812F0007FD9D1012037E0204B1B6835
:1020E00003F00F03AB420AD91D4A136823F00F0314
:1020F0002B431360136803F00F03AB422DD1236809
:1021000013F0040F06D0174A936823F4E053E168F4
:102110000B439360236813F0080F07D0114A9368AC
:1021200023F46043216943EAC1039360FFF71AFF78
:102130000C4B9B68C3F303130B4AD35CD8400B4B87
:1021400018600B4B186801F079FC002070BD01206D
:1021500070470120FAE70120F8E70120F6E700BF09
:10216000003C024000380240A08A000860000020C5
:102170005C000020014B1868704700BF6000002021
:1021800008B5FFF7F7FF044B9B68C3F38223034AAC
:10219000D35CD84008BD00BF00380240B08A0008B8
:1021A00008B5FFF7E7FF044B9B68C3F34233034ACC
:1021B000D35CD84008BD00BF00380240B08A000898
:1021C0000F2303600B4B9A6802F0030242609A6887
:1021D00002F0F00282609A6802F4E052C2609B68EA
:1021E000DB0803F4E0530361034B1B6803F00F03A8
:1021F0000B60704700380240003C0240F0B583B0ED
:102200000446066816F001060DD0A74B9A6822F422
:1022100000029A609A68416B0A439A60436B002BF4
:1022200000F039810026256815F4002511D09E4A5A
:10223000D2F88C3023F44013E16B0B43C2F88C309E
:10224000E36BB3F5801F00F02881002B00F027819D
:102250000025236813F4801F0FD0934AD2F88C30E6
:1022600023F44003216C0B43C2F88C30236CB3F58C
:10227000800F00F0168103B90125236813F0807FD9
:1022800000D0012613F0200F40F01081236813F0D6
:10229000100F0CD0844BD3F88C2022F08072C3F83E
:1022A0008C20D3F88C20A16B0A43C3F88C202368C0
:1022B00013F4804F08D07C4AD2F8903023F4403396
:1022C000616E0B43C2F89030236813F4004F08D0BE
:1022D000754AD2F8903023F44023A16E0B43C2F824
:1022E0009030236813F4803F08D06F4AD2F89030C2
:1022F00023F44013E16E0B43C2F89030236813F4CB
:10230000003F08D0684AD2F8903023F44003216F90
:102310000B43C2F89030236813F0400F08D0624A94
:10232000D2F8903023F00303616C0B43C2F8903075
:10233000236813F0800F08D05B4AD2F8903023F066
:102340000C03A16C0B43C2F89030236813F4807F18
:1023500008D0554AD2F8903023F03003E16C0B439B
:10236000C2F89030236813F4007F08D04E4AD2F8A8
:10237000903023F0C003216D0B43C2F890302368E6
:1023800013F4806F08D0484AD2F8903023F4407399
:10239000616D0B43C2F89030236813F4006F08D0CE
:1023A000414AD2F8903023F44063A16D0B43C2F848
:1023B0009030236813F4805F08D03B4AD2F8903005
:1023C00023F44053E16D0B43C2F89030236813F4BB
:1023D000005F08D0344AD2F8903023F44043216E95
:1023E0000B43C2F89030236813F4800F08D02E4AB4
:1023F000D2F8903023F08063A16F0B43C2F8903085
:10240000236813F4001F0DD0274AD2F8903023F030
:102410000063E16F0B43C2F89030E36FB3F1006FDC
:1024200000F0AA80236813F0080F00D0012513F4F0
:10243000802F08D01C4AD2F8903023F04073616F8F
:102440000B43C2F89030236813F4000F09D0164AEA
:10245000D2F8903023F08053D4F880100B43C2F8A8
:10246000903026B9236813F0007F00F005810E4AF2
:10247000136823F08063136000F0EEFA06460A4BFF
:102480001B6813F0006F79D000F0E6FA801B642817
:10249000F5D90320F3E00126C5E60126D5E601259E
:1024A000D7E60126E7E600BF003802407F4B1A6CF2
:1024B00042F080521A641B6C03F080530193019B1D
:1024C0007B4A136843F48073136000F0C5FA074633
:1024D000774B1B6813F4807F06D100F0BDFAC01B58
:1024E0006428F5D90320CAE0704B1B6F13F44073C6
:1024F00015D0226B02F440729A4210D06B4B1A6FC7
:1025000022F44072196F41F480311967196F21F478
:10251000803119671A671B6F13F0010F12D1236BFB
:1025200003F44072B2F5407F1DD0604A936823F4F3
:10253000F81393605D490B6F226BC2F30B021343D8
:102540000B67A3E600F088FA0746584B1B6F13F0A1
:10255000020FE4D100F080FAC01B41F288339842A8
:10256000F3D903208BE05148826822F4F8125149D4
:1025700019400A438260DDE7012553E7236813F021
:10258000010F13D0636B8BB9484AD2F88430D2F86C
:102590008410606803F4403343EA801301F07061F3
:1025A0000B43A16843EA0173C2F88430236813F433
:1025B000002F03D0E26BB2F5801F06D013F4801F0A
:1025C0001ED0236CB3F5800F1AD1384AD2F884306C
:1025D000D2F88410606803F4403343EA8013E06863
:1025E00043EA006301F0E0410B43C2F88430D2F8C3
:1025F0008C3023F01F03616A01390B43C2F88C3021
:10260000236813F0807F11D0284AD2F88400D2F8D2
:102610008410666823691B0443EA861300F0706027
:10262000034301F0E0410B43C2F88430236813F008
:10263000007F0DD0626823691B0443EA8213E268BD
:1026400043EA0263A26843EA0273184AC2F884307C
:10265000164A136843F08063136000F0FDF90646E4
:10266000124B1B6813F0006F06D100F0F5F9801BC8
:102670006428F5D9032002E0012D02D0002003B028
:10268000F0BD0A4A136823F08053136000F0E4F9A8
:102690000546064B1B6813F0005F0DD000F0DCF917
:1026A000401B6428F5D90320E9E700BF0038024049
:1026B00000700040FFFCFF0F236813F4002F01D0CF
:1026C000E26B22B113F4801F1DD0236CDBB9354AB5
:1026D000D2F88830D2F88810606903F4403343EAB6
:1026E0008013A06943EA006301F0E0410B43C2F8A4
:1026F0008830D2F88C3023F4F853A16A013943EAC8
:102700000123C2F88C30236813F4001F03D0E36F59
:10271000B3F1006F31D0236813F0080F19D0214AAC
:10272000D2F88810D2F88830606903F4403343EA65
:10273000801301F070610B43E16943EA0173C2F851
:102740008830D2F88C3023F44033E16A0B43C2F86E
:102750008C30144A136843F08053136000F07CF906
:102760000446104B1B6813F0005F19D100F074F998
:10277000001B6428F5D9032081E70A4AD2F88800B3
:10278000D2F888106569236A1B0443EA851300F0B8
:102790007060034301F0E0410B43C2F88830BAE7B0
:1027A00000206CE70038024000230F2B00F2E48089
:1027B000F0B583B03AE0092200E00022AA4032439B
:1027C00002346E4D45F824206D4A14686FEA0C02FD
:1027D00024EA0C054E6816F4803F01D04CEA04054B
:1027E000674C2560646802EA04054E6816F4003FF1
:1027F00001D04CEA0405624C6560A46802EA040555
:102800004E6816F4801F01D04CEA04055C4CA560AC
:10281000E46822404D6815F4001F01D04CEA040220
:10282000574CE26001330F2B00F2A48001229A4042
:102830000C6804EA020C32EA0404F3D14C68651E09
:10284000112C18BF012D01D9122C12D185685E0000
:102850000324B44025EA0405CC68B4402C438460CA
:10286000456825EA02054C68C4F300129A402A43E1
:102870004260C5684FEA430E032404FA0EF4E243B3
:1028800025EA04058C6804FA0EF42C43C4604C68F5
:10289000122C18BF022C0FD1DD08083550F8257016
:1028A00003F00704A6000F24B44027EA04070C69CC
:1028B000B4403C4340F82540046814404A6802F0A4
:1028C000030202FA0EF2224302604A6812F0805FAD
:1028D000A8D02C4A546C44F480445464526C02F4E2
:1028E00080420192019A9C08A51C244A52F8256056
:1028F00003F0030295000F22AA4026EA0206224AAC
:1029000090423FF45AAF02F58062904222D002F525
:102910008062904220D002F5806290421ED002F583
:10292000806290421CD002F5806290421AD002F57B
:102930008062904218D002F58062904216D002F573
:102940008062904214D002F5806290423FF433AF2F
:102950000A2233E7012231E702222FE703222DE783
:1029600004222BE7052229E7062227E7072225E78D
:10297000082223E703B0F0BD704700BF00380140D4
:10298000003C014000380240000002400AB1816171
:102990007047090481617047436901EA030221EA33
:1029A000030141EA024181617047000010B582B025
:1029B0001B4B1A6C42F080521A641B6C03F080535C
:1029C0000193019B174A136843F48033136000F0AE
:1029D00043F80446134B5B6813F4803F08D100F0C2
:1029E0003BF8001BB0F57A7FF4D9032002B010BD8C
:1029F0000C4A136843F40033136000F02DF80446CA
:102A0000084B5B6813F4003F07D100F025F8001B6A
:102A1000B0F57A7FF4D90320E8E70020E6E700BFAD
:102A2000003802400070004008B50320FEF752FE57
:102A3000002001F003F8FEF72DFE002008BD000085
:102A4000034A1168034B1B780B441360704700BFA7
:102A5000140300205A000020014B1868704700BF83
:102A60001403002038B50446FFF7F6FF0546B4F11D
:102A7000FF3F02D0044B1B781C44FFF7EDFF401BC7
:102A8000A042FAD338BD00BF5A00002003689A69FB
:102A900012F0020F01D000229A6203689A6912F0C4
:102AA000010F03D19A6942F001029A61704730B474
:102AB000029D046860684FEA555C0CF4806C4CF031
:102AC0007F7C4CF4583C4CF47F7C4CF0030C20EAA7
:102AD0000C00C1F3090141EA0241194329430143B2
:102AE000616030BC7047F8B505460E46174603686E
:102AF0009B6913F0100F01D10020F8BD2B689C6971
:102B000014F0200F17D1B6F1FF3FF7D0FFF7A4FF65
:102B1000C01BB04201D8002EF0D16B6C43F02003F3
:102B20006B64202385F84130002385F8423085F816
:102B300040300120E1E71022DA612B682024DC61BB
:102B40002846FFF7A3FF2A68536823F0FF7323F496
:102B50008B3323F4FF7323F0010353606B6C43F05A
:102B600004036B6485F84140002385F8423085F802
:102B700040300120C1E770B504460D461646236873
:102B80009B6913F0020F1DD1324629462046FFF7FC
:102B9000AAFFC8B9B5F1FF3FF1D0FFF75DFF801B79
:102BA000A84201D8002DEAD1636C43F0200363648E
:102BB000202384F84130002384F8423084F84030E8
:102BC000012000E0002070BD0120FCE72DE9F0416C
:102BD0000646884617461D463468A46938EA040349
:102BE0000CBF4FF0010C4FF0000CBC4518D1B5F1F3
:102BF000FF3FF1D0FFF730FF069BC01AA84201D873
:102C0000002DE9D1736C43F020037364202386F810
:102C10004130002386F8423086F84030012000E041
:102C20000020BDE8F08170B505460C4616462B68BD
:102C30009B6913F0200F1AD1324621462846FFF730
:102C400052FFB0B9FFF708FF801BA04201D8002C4B
:102C5000EDD16B6C43F020036B64202385F8413089
:102C6000002385F8423085F84030012070BD0020F7
:102C7000FCE70120FAE770B504460D4616462368C6
:102C80009B6913F0040F3ED1324629462046FFF7D8
:102C90002AFF0146002838D123689A6912F0200FD4
:102CA00013D1FFF7D9FE801BA84201D8002DE6D131
:102CB000636C43F020036364202384F841300023D5
:102CC00084F840300121084670BD9A6912F0040F63
:102CD00002D0228D002AF6D12022DA6121684B68C9
:102CE00023F0FF7323F48B3323F4FF7323F00103EA
:102CF0004B600023636484F8412084F8423084F8F8
:102D000040300121DFE70021DDE70121DBE70000A2
:102D1000002857D010B5044690F84130002B41D020
:102D2000242384F841302268136823F001031360E0
:102D30006368226823F0706313612268936823F448
:102D400000439360E368012B31D0A368226843F409
:102D500004439360E368022B2FD0226851681A4B1A
:102D60000B4353602268D36823F40043D360236984
:102D700062691343A169226843EA0123D360E369CE
:102D8000216A22680B4313602268136843F0010331
:102D9000136000206064202384F84130206384F8AD
:102DA000420010BD80F8403000F094FDB8E7A36801
:102DB000226843F400439360CCE723684FF4006239
:102DC0005A60CAE701207047008000022DE9F047F1
:102DD00082B00F460A9E90F84110C9B2202940F0F7
:102DE000A38004469046994690F84030012B00F0AD
:102DF0009F804FF0010A80F840A0FFF72DFE0546A6
:102E00000090192352464FF400412046FFF7DEFEA2
:102E1000002840F08F80212384F84130102384F86B
:102E2000423000236364C4F82480A4F82A906363CA
:102E3000638D9BB2FF2B0AD9FF222285414B009361
:102E40004FF0807339462046FFF731FE18E0628D5F
:102E500092B222853B4B00934FF00073D2B23946B9
:102E60002046FFF724FE0BE0628D92B222850023FC
:102E700000934FF00073D2B239462046FFF717FE99
:102E8000638D9BB2002B33D02A4631462046FFF794
:102E900072FE002850D1626A236812789A62636ACF
:102EA00001336362638D9BB2013B9BB26385238DCB
:102EB000013B9BB22385628D92B2002AE0D0002BA9
:102EC000DED100953346002280212046FFF77EFEAA
:102ED000A0BB638D9BB2FF2BC6D9FF2222850023A6
:102EE00000934FF0807339462046FFF7E0FDC7E7B7
:102EF0002A4631462046FFF796FE08BB236820226B
:102F0000DA6121684B6823F0FF7323F48B3323F4D9
:102F1000FF7323F001034B6084F84120002384F801
:102F2000423084F8403000E0022002B0BDE8F08773
:102F30000220FAE70120F8E70120F6E70120F4E794
:102F40000120F2E7002000802DE9F04782B00F4613
:102F50000A9E90F84110C9B2202940F0A280044690
:102F60009046994690F84030012B00F09E804FF03B
:102F7000010A80F840A0FFF76FFD05460090192375
:102F800052464FF400412046FFF720FE002840F053
:102F90008E80222384F84130102384F842300023AD
:102FA0006364C4F82480A4F82A906363638D9BB2A1
:102FB000FF2B0AD9FF222285414B00934FF08073EB
:102FC00039462046FFF773FD18E0628D92B22285E4
:102FD0003B4B00934FF00073D2B239462046FFF7C7
:102FE00066FD0BE0628D92B22285002300934FF0C4
:102FF0000073D2B239462046FFF759FD638D9BB26C
:10300000002B32D02A4631462046FFF734FE0028F6
:103010004FD123685A6A636A1A70636A0133636224
:10302000228D013A92B22285638D9BB2013B9BB205
:103030006385638D9BB2002BE0D0002ADED1009522
:10304000334680212046FFF7C1FDA0BB638D9BB2B4
:10305000FF2BC7D9FF222285002300934FF08073F6
:1030600039462046FFF723FDC8E72A463146204669
:10307000FFF7D9FD08BB23682022DA6121684B687D
:1030800023F0FF7323F48B3323F4FF7323F0010346
:103090004B6084F84120002384F8423084F84030AB
:1030A00000E0022002B0BDE8F0870220FAE701202C
:1030B000F8E70120F6E70120F4E70120F2E700BF7E
:1030C0000024008090F84130DBB2202B24D190F80E
:1030D0004030012B22D0012380F84030242380F897
:1030E00041300268136823F001031360026813681B
:1030F00023F4805313600268136819431160026857
:10310000136843F001031360202380F8413000234B
:1031100080F8403018467047022070470220704700
:1031200090F84130DBB2202B22D190F84030012BB7
:1031300020D0012380F84030242380F841300268F9
:10314000136823F0010313600268136823F47063AB
:1031500043EA012111600268136843F00103136020
:10316000202380F84130002380F840301846704713
:103170000220704702207047034AD2F8883043F497
:103180007003C2F88830704700ED00E010B50446C7
:1031900083680269134342691343C2691343016898
:1031A0000868934A024013430B602268536823F473
:1031B0004053E1680B435360A269236A1A432168B4
:1031C0008B6823F4306313438B602368894A9342EE
:1031D00019D0894A934229D0884A93423ED0884ADE
:1031E000934262D0874A934271D0874A934200F05B
:1031F0008380864A934200F09480854A934200F08F
:10320000A58010233AE0834BD3F8903003F00303FA
:10321000032B09D8DFE803F00204AE0601232DE0FA
:1032200004232BE0082329E0102327E0794BD3F86F
:10323000903003F00C030C2B0ED8DFE803F0070DE1
:103240000D0D090D0D0D9D0D0D0D0B00002315E04D
:10325000042313E0082311E010230FE06D4BD3F893
:10326000903003F03003202B00F0888019D8002B19
:1032700000F08680102B40F085800423E069B0F5D3
:10328000004F00F0AB80082B00F20C81DFE813F058
:10329000E800FB00E6000A01FE000A010A010A013B
:1032A0000101302B70D10823E8E75A4BD3F8903056
:1032B00003F0C003802B69D005D8002B68D0402BC9
:1032C00068D10423DAE7C02B66D10823D6E7514B37
:1032D000D3F8903003F44073B3F5007F5ED006D886
:1032E000002B5DD0B3F5807F5CD10423C6E7B3F536
:1032F000407F59D10823C1E7464BD3F8903003F4FF
:103300004063B3F5006F51D006D8002B50D0B3F511
:10331000806F4FD10423B1E7B3F5406F4CD1082340
:10332000ACE73C4BD3F8903003F44053B3F5005F67
:1033300044D006D8002B43D0B3F5805F42D104239C
:103340009CE7B3F5405F3FD1082397E7314BD3F8B3
:10335000903003F44043B3F5004F37D005D8BBB3EA
:10336000B3F5804F36D1042388E7B3F5404F33D10E
:10337000082383E7022381E702237FE702237DE717
:1033800000237BE7102379E7102377E7022375E713
:10339000002373E7102371E710236FE702236DE723
:1033A00000236BE7102369E7102367E7022365E733
:1033B000012363E7102361E710235FE702235DE742
:1033C00000235BE7102359E7102357E7022355E753
:1033D000002353E7102351E710234FE7082B5BD856
:1033E000DFE803F01A343A5A375A5A5A1E0000BF1F
:1033F000F369FFEF00100140004400400048004026
:10340000004C004000500040001401400078004093
:10341000007C004000380240FEF7B2FE00283DD09C
:103420006268530803EB4000B0FBF2F080B2A0F1F9
:1034300010024FF6EF739A4232D820F00F03C0F318
:10344000420018432368D860002030E0FEF7A8FE51
:10345000E4E7FEF787FDE1E71748E1E7164802E0F9
:10346000FEF78EFE00B3636800EB5300B0FBF3F091
:1034700080B2A0F110024FF6EF739A4216D823687B
:10348000D860002013E0FEF78BFEEBE7FEF76AFD45
:10349000E8E74FF40040E6E7012008E0002006E0FE
:1034A000012004E0012002E0002000E001200023D0
:1034B0006366A36610BD00BF0024F400436A13F0E6
:1034C000010F06D00268536823F40033816A0B436E
:1034D0005360436A13F0020F06D00268536823F466
:1034E0008033C16A0B435360436A13F0040F06D064
:1034F0000268536823F48023016B0B435360436AD3
:1035000013F0080F06D00268536823F40043416BA0
:103510000B435360436A13F0100F06D002689368A0
:1035200023F48053816B0B439360436A13F0200FA5
:1035300006D00268936823F40053C16B0B43936079
:10354000436A13F0400F0AD00268536823F48013D3
:10355000016C0B435360036CB3F5801F0BD0436ABF
:1035600013F0800F06D00268536823F40023816CA7
:103570000B43536070470268536823F4C003416CE7
:103580000B435360EBE72DE9F84305460F4616461B
:103590009946DDF820802C68E46937EA04030CBF03
:1035A0004FF0010C4FF0000CB4453DD1B8F1FF3F96
:1035B000F1D0FFF751FAA0EB0900404522D8B8F14D
:1035C000000F1FD02B681A6812F0040FE3D0DA69DD
:1035D00012F4006FDFD04FF400621A622A68136899
:1035E00023F4D07313602A68936823F00103936077
:1035F0002023AB67EB67C5F88030002385F8743073
:10360000032012E02A68136823F4D07313602A6839
:10361000936823F0010393602023AB67EB670023DB
:1036200085F87430032000E00020BDE8F8832DE920
:10363000F04182B01E46836F202B56D104460D46C2
:103640009046002A18BF002953D090F87430012BFF
:1036500051D0012380F874300023C0F8803021233A
:103660008367FFF7F9F90746A4F85080A4F8528061
:10367000A368B3F5805F05D04FF00008002384F8FD
:10368000743012E0236913B14FF00008F6E7A84642
:103690000025F3E715F8012B23689A62B4F852204D
:1036A00092B2013A92B2A4F85220B4F852309BB2CE
:1036B00083B100963B46002280212046FFF763FF3E
:1036C000D8B9002DE6D138F8023B2268C3F30803CD
:1036D0009362E3E700963B46002240212046FFF735
:1036E00052FF60B92023A36700E0022002B0BDE8CA
:1036F000F0810120FAE70220F8E70320F6E7032033
:10370000F4E710B582B004460023C0F88030FFF71C
:10371000A3F923681B6813F0080F08D12023A367BF
:10372000E3670020206684F8740002B010BD6FF0DB
:103730007E430093034600224FF400112046FFF71A
:1037400022FF0028EAD00320EFE768B310B5044653
:10375000836F03B32423A3672268136823F0010354
:1037600013602046FFF712FD012813D0636ABBB92E
:103770002268536823F4904353602268936823F0CF
:103780002A0393602268136843F001031360204604
:10379000FFF7B7FF10BD80F8743000F017F9D9E7D4
:1037A0002046FFF78BFEE3E70120704730B589B074
:1037B000002403940494059406940794164B1A6B02
:1037C00042F008021A631A6B02F008020092009A93
:1037D0001A6B42F002021A631A6B02F002020192A3
:1037E000019A1A6B42F010021A631B6B03F010036C
:1037F0000293029B094D224602212846FFF7C6F894
:1038000002230393012304930594069403A92846F5
:10381000FEF7CAFF09B030BD003802400010024078
:1038200008B51248124B0360124B436000238360BB
:103830000122C260036143618361C3610362FFF7D8
:1038400067FA50B900210948FFF73CFC40B9002154
:103850000648FFF765FC30B908BDFDF791FEF1E7BA
:10386000FDF78EFEF3E7FDF78BFEF5E7180300206A
:10387000005400405919400008B51348134B036029
:10388000134B4360C02383600123C36000230361A3
:1038900043618361C3610362FFF73AFA50B90021C3
:1038A0000948FFF70FFC40B900210748FFF738FC33
:1038B00030B908BDFDF764FEF1E7FDF761FEF3E7FF
:1038C000FDF75EFEF5E700BF6403002000600040E6
:1038D0005919400010B58AB0002305930693079349
:1038E000089309930368264A934204D0254A9342D9
:1038F00023D00AB010BD244C236B43F00203236392
:10390000236B03F002030193019BC0230593122351
:10391000069301230793032308930423099305A91E
:103920001A48FEF741FF236C43F400132364236C11
:1039300003F400130293029BDBE7134C236B43F069
:1039400008032363236B03F008030393039B4FF4E3
:1039500040530593122306930123079303230893EF
:103960000423099305A90A48FEF71EFF236C43F0C0
:1039700080732364236C03F080730493049BB8E783
:103980000054004000600040003802400004024043
:10399000000C024008B50B480B4B03604FF4E133B9
:1039A000436000238360C36003610C224261836132
:1039B000C36103624362FFF7C8FE00B908BDFDF7AB
:1039C000DFFDFBE7B00300200044004000B589B0F4
:1039D0000023039304930593069307930268134B04
:1039E0009A4202D009B05DF804FB03F5FA331A6C71
:1039F00042F400321A641A6C02F400320192019A05
:103A00001A6B42F008021A631B6B03F0080302935F
:103A1000029B60230393022304930323069307234B
:103A2000079303A90248FEF7BFFEDBE7004400400E
:103A3000000C024008B5FDF7CDFA08BD00B589B00D
:103A4000014600221920FDF757FE1920FDF78AFED6
:103A5000154B5A6C42F001025A645B6C03F001038F
:103A60000193019B02A903A8FEF7AAFBFEF798FBAE
:103A700043000E48A0FB03239B0C013B0C480D4A5E
:103A8000026040F2E732C26043600023036183605A
:103A9000FEF71AF818B1012009B05DF804FB0448DC
:103AA000FDF770FEF8E700BF0038024083DE1B43DD
:103AB000340400200000014000F1080343604FF08F
:103AC000FF328260C36003610023036070470023FC
:103AD0000361704743684B609A688A6051609960DF
:103AE0000861036801330360704730B40D68B5F1B5
:103AF000FF3F11D000F108031C465B681A68AA4218
:103B0000FAD963684B6099608C60616008610368F2
:103B10000133036030BC70470469F2E70369416810
:103B200082688A60416851605A68824206D00022E9
:103B300002611A68013A1A601868704782685A6010
:103B4000F5E710B5044601F03DFDA26BE36B9A4228
:103B500004D0002401F05CFD204610BD0124F9E7EB
:103B600010B5044601F02EFDA36B23B9012401F02A
:103B70004FFD204610BD0024F9E770B504461546F8
:103B8000866B026C5AB903681BB100200136A6632C
:103B900070BD806801F020F80023A360F6E76DB9DE
:103BA000406801F0A5FE226C636813446360A2685C
:103BB000934219D3236863602846E7E7C06801F0A1
:103BC00097FE226C5142E3689B1AE360226893429D
:103BD00002D2A3680B44E360022D01D00020D5E798
:103BE00026B1013E0020D1E72846CFE70020CDE7EF
:103BF0000346026C6AB110B50846D9681144D96011
:103C00009C68A14201D31968D960D96801F070FE9F
:103C100010BD704738B5054601F0D4FC95F8454015
:103C200064B201E0013C64B2002C0ADD6B6A43B16E
:103C300005F1240000F020FF0028F3D000F0B6FFCB
:103C4000F0E7FF2385F8453001F0E2FC01F0BAFC13
:103C500095F8444064B201E0013C64B2002C0ADDF6
:103C60002B6943B105F1100000F006FF0028F3D0E6
:103C700000F09CFFF0E7FF2385F8443001F0C8FC1A
:103C800038BD38B5E0B10D46044601F09BFC236811
:103C9000E26B216C01FB0230A0600020A063636036
:103CA000013A02FB0133E360FF2384F8443084F8D7
:103CB00045300DBB236973B901F0AAFC012038BD62
:103CC0004FF0500372B683F31188BFF36F8FBFF3C9
:103CD0004F8F62B6FEE704F1100000F0CDFE002821
:103CE000EAD04FF0E0234FF08052C3F8042DBFF329
:103CF0004F8FBFF36F8FDFE704F11000FFF7DCFE9B
:103D000004F12400FFF7D8FED6E738B51D46049C21
:103D10000B4649B92460E063236401212046FFF784
:103D2000B0FF84F84C5038BD2260F4E750B94FF032
:103D3000500372B683F31188BFF36F8FBFF34F8FB9
:103D400062B6FEE710B584B01C4693B10B1E18BFD7
:103D50000123002A08BF43F00103ABB94FF0500321
:103D600072B683F31188BFF36F8FBFF34F8F62B6C4
:103D7000FEE74FF0500372B683F31188BFF36F8FE5
:103D8000BFF34F8F62B6FEE7B1FA81F35B09002AF9
:103D900018BF43F0010353B94FF0500372B683F3D9
:103DA0001188BFF36F8FBFF34F8F62B6FEE75023CA
:103DB0000393039B502B0AD04FF0500372B683F34A
:103DC0001188BFF36F8FBFF34F8F62B6FEE7039B7F
:103DD000012384F8463000949DF81830FFF795FFD2
:103DE000204604B010BDF0B585B0019298B10F46E1
:103DF0001D460446D1B1022D26D1E36B012B23D001
:103E00004FF0500372B683F31188BFF36F8FBFF387
:103E10004F8F62B6FEE74FF0500372B683F31188FE
:103E2000BFF36F8FBFF34F8F62B6FEE7036C002BBB
:103E3000E1D04FF0500372B683F31188BFF36F8F58
:103E4000BFF34F8F62B6FEE700F0B6FE064668B9D4
:103E5000019B002B4AD04FF0500372B683F31188B8
:103E6000BFF36F8FBFF34F8F62B6FEE700263DE0D2
:103E70002A4639462046FFF780FE636A7BB948B17F
:103E80004FF0E0234FF08052C3F8042DBFF34F8F63
:103E9000BFF36F8F01F0BCFB012005B0F0BD04F152
:103EA000240000F0E9FD0028F4D04FF0E0234FF0AB
:103EB0008052C3F8042DBFF34F8FBFF36F8FE9E734
:103EC00001F0A6FB0020E8E702A800F01DFE012695
:103ED00019E0002384F8443021E0002384F84530C1
:103EE00023E02046FFF796FE00F09CFC01F06AFB01
:103EF000A26BE36B9A42BBD3022DB9D0019B002B7E
:103F0000DED0002EE0D001F083FB00F0EFFB01F0EB
:103F100059FB94F8442052B2B2F1FF3FD9D094F843
:103F2000452052B2B2F1FF3FD7D001F071FB01A999
:103F300002A800F0F5FDD8B92046FFF702FE0028E0
:103F4000CFD0019904F1100000F05EFD2046FFF78C
:103F500061FE00F067FC0028C8D14FF0E0234FF06D
:103F60008052C3F8042DBFF34F8FBFF36F8FBDE7AF
:103F70002046FFF74FFE00F055FC00208DE72DE9AD
:103F8000F843A0B10F4616461C460546D1B1022C97
:103F900026D1EB6B012B23D04FF0500372B683F385
:103FA0001188BFF36F8FBFF34F8F62B6FEE74FF0FC
:103FB000500372B683F31188BFF36F8FBFF34F8F37
:103FC00062B6FEE7036C002BE1D04FF0500372B6EF
:103FD00083F31188BFF36F8FBFF34F8F62B6FEE795
:103FE00001F0F6FBEFF311894FF0500372B683F343
:103FF0001188BFF36F8FBFF34F8F62B6AA6BEB6B65
:104000009A4206D3022C04D0002089F31188BDE81F
:10401000F88395F845804FFA88F8224639462846B5
:10402000FFF7ABFDB8F1FF3F06D008F101035BB22B
:1040300085F845300120E8E76B6A0BB90120E4E719
:1040400005F1240000F018FD18B126B10120306000
:10405000DBE70120D9E70120D7E7F0B585B0019271
:10406000A0B10F460446E1B100F0A6FD064630BB04
:10407000019B002B64D04FF0500372B683F311887C
:10408000BFF36F8FBFF34F8F62B6FEE74FF0500361
:1040900072B683F31188BFF36F8FBFF34F8F62B691
:1040A000FEE7036C002BDFD04FF0500372B683F3B2
:1040B0001188BFF36F8FBFF34F8F62B6FEE7002604
:1040C0003EE039462046FFF793FD013DA563236995
:1040D00023B901F09DFA012005B0F0BD04F11000F4
:1040E00000F0CAFC0028F4D04FF0E0234FF08052DB
:1040F000C3F8042DBFF34F8FBFF36F8FE9E701F0D3
:1041000087FA0020E8E702A800F0FEFC012621E083
:10411000002384F8443029E0002384F845302BE064
:104120002046FFF777FD00F07DFB09E02046FFF712
:1041300071FD00F077FB2046FFF712FD00283FD10C
:1041400001F040FAA56B002DBBD1019B002BD6D00E
:10415000002ED8D001F05CFA00F0C8FA01F032FA73
:1041600094F844305BB2B3F1FF3FD1D094F84530BE
:104170005BB2B3F1FF3FCFD001F04AFA01A902A828
:1041800000F0CEFC0028D1D12046FFF7E9FC002842
:10419000C6D0019904F1240000F036FC2046FFF758
:1041A00039FD00F03FFB0028CAD14FF0E0234FF06B
:1041B0008052C3F8042DBFF34F8FBFF36F8FBFE75B
:1041C000002089E70023072B0CD8074A52F8332038
:1041D0000AB10133F7E7044A42F8331002EBC30394
:1041E00058607047704700BF8004002070B50446D7
:1041F0000D46164601F0E6F994F844305BB2B3F18F
:10420000FF3F0DD094F845305BB2B3F1FF3F0BD0C8
:1042100001F0FEF9A36B5BB12046FFF7FBFC70BD1C
:10422000002384F84430EDE7002384F84530EFE7BD
:104230003246294604F1240000F000FCECE70000BF
:10424000084B1B681B6823B9074B4FF0FF321A60FD
:104250007047044B1B68DB68DB685A68024B1A60C6
:10426000704700BFC4040020700900202DE9F0470A
:1042700080460D4617469946089EDDF824A00A9C04
:104280009200A521206B01F041FB236B6FF04042AF
:104290003A4403EB820727F00707B5B34FF0000C51
:1042A000BCF10F0F0BD815F80C2004EB0C0383F8AE
:1042B000342015F80C3013B10CF1010CF0E7002399
:1042C00084F84330372E00D93726E662E6640025AD
:1042D0002565201DFFF7FBFB04F11800FFF7F7FB36
:1042E0002461C6F13806A6616462656584F8585099
:1042F0004A464146384601F039F92060BAF1000FCC
:1043000001D0CAF80040BDE8F087002384F83430BB
:10431000D8E7000038B5002407E004EB84029300DE
:104320000E481844FFF7C8FB0134372CF5D90C4D63
:104330002846FFF7C1FB0B4C2046FFF7BDFB0A48A0
:10434000FFF7BAFB0948FFF7B7FB0948FFF7B4FBD3
:10435000084B1D60084B1C6038BD00BFCC0400201A
:10436000440900205809002078090020A4090020F1
:1043700090090020C4040020C804002010B50446A1
:1043800001F020F9224A136801331360214B1B68A6
:104390005BB1214B1B686BB91E4B1B68DA6AE36A81
:1043A0009A4207D81B4B1C6004E01A4B1C60136830
:1043B000012B29D0194A1368013313606364E06A42
:1043C000174B1B68984201D9154B186000EB800011
:1043D000211D144B03EB8000FFF77CFB01F018F963
:1043E0000D4B1B687BB10B4B1B68DA6AE36A9A4280
:1043F00009D24FF0E0234FF08052C3F8042DBFF3F1
:104400004F8FBFF36F8F10BDFFF784FFD2E700BF60
:104410002C090020C00400208C0900203C09002049
:1044200040090020CC04002010B5044690F8593013
:1044300073B1012B13D0022B10D04FF0500372B682
:1044400083F31188BFF36F8FBFF34F8F62B6FEE720
:10445000006B01F00DF8204601F00AF810BD01F0E4
:1044600007F8FBE70F4B1B68D3B110B501F0AAF8B2
:104470000D4BDB68DC68201DFFF750FB0B4A13680F
:10448000013B1360074A1368013B136001F0C0F859
:104490002046FFF7C9FF034B1B68002BE6D110BD78
:1044A000704700BF30090020A40900202C0900201B
:1044B00008B5FFF7D7FF074B1B68012BF9D94FF061
:1044C000E0234FF08052C3F8042DBFF34F8FBFF3AA
:1044D0006F8FEEE7CC04002070B504460D46194BF3
:1044E0001E68194B18680430FFF718FBB4F1FF3F42
:1044F00014BF00230123002D08BF00236BB93444EF
:10450000114B1B685C60A6420ED9104B18680E4B0D
:1045100019680431FFF7E9FA70BD0B4B19680431D3
:104520000B48FFF7D7FAF7E70A4B1868064B1968EC
:104530000431FFF7DAFA084B1B68A342ECD9064BAB
:104540001C60E9E7B8090020C0040020C80400206E
:1045500090090020C40400207009002030B587B005
:104560000B9C8CB10C9DD5B15C250495049D5C2DF4
:1045700020D04FF0500372B683F31188BFF36F8FD2
:10458000BFF34F8F62B6FEE74FF0500372B683F36E
:104590001188BFF36F8FBFF34F8F62B6FEE74FF006
:1045A000500372B683F31188BFF36F8FBFF34F8F41
:1045B00062B6FEE7049D0C9D2C63022485F85940E9
:1045C00000240394029505AC01940A9C0094FFF723
:1045D0004DFE0C98FFF7D2FE059807B030BD2DE9CF
:1045E000F04385B00746884614461E46900000F00A
:1045F000C3FE00B381465C2000F0BEFE0546B0B1AC
:10460000C0F83090E5B1002385F859300393029546
:104610000D9B01930C9B009333462246414638463E
:10462000FFF724FE2846FFF7A9FE012005E04846D3
:1046300000F01EFFE6E74FF0FF3005B0BDE8F08365
:104640004FF0FF30F9E7000010B588B00024059462
:10465000069407AA06A905A800F012FE059B02937E
:10466000069B019300942346079A1A491A48FFF7BC
:1046700075FF1A4B186040B100F06AFB012806D0A4
:10468000B0F1FF3F1AD008B010BD0020F6E74FF0A0
:10469000500372B683F31188BFF36F8FBFF34F8F50
:1046A00062B60F4B4FF0FF321A600E4B01221A60B8
:1046B0000D4B00221A6001F021F8E4E74FF050039F
:1046C00072B683F31188BFF36F8FBFF34F8F62B65B
:1046D000FEE700BFB88A0008B14400086C0900205A
:1046E000700900208C090020B8090020024A1368D4
:1046F00001331360704700BF38090020014B186870
:10470000704700BFB8090020F8B53B4B1B68002B71
:1047100066D13A4B1D6801351D60D5B9384B1B6811
:104720001B6853B14FF0500372B683F31188BFF387
:104730006F8FBFF34F8F62B6FEE7314A1168314B7E
:10474000186810601960304A136801331360FFF76E
:1047500077FD2E4B1B68AB4238D900272C4B1B68CA
:10476000DB6A03EB83039A002A4B9B58012B3CD94D
:1047700001273AE00127224B1B681B6843B3204BFB
:104780001B68DB68DC6863689D4226D3261D3046C3
:10479000FFF7C4F9A36A1BB104F11800FFF7BEF9D3
:1047A000E36A1D4A1268934201D91B4A136003EB66
:1047B00083039A00314617481044FFF78BF9E26AE9
:1047C000134B1B68DB6A9A42D4D2D4E70027D2E7A6
:1047D0000E4B4FF0FF321A60C0E70C4A1360BDE782
:1047E0000E4A13680133136000270D4B1B6803B199
:1047F00001273846F8BD00BF38090020B80900205D
:10480000C4040020C804002074090020700900209E
:10481000C0040020CC0400204009002034090020FE
:10482000BC09002038B5364B1B6853B94FF0500314
:1048300072B683F31188BFF36F8FBFF34F8F62B6E9
:10484000FEE700F0BFFE2E4B1A68013A1A601B68A3
:10485000002B4FD12B4B1B680BB900244BE00024DD
:10486000294B1B681BB3284BDB68DC6804F118007C
:10487000FFF754F9251D2846FFF750F9E06A234B4E
:104880001B68984201D9214B186000EB8000294633
:104890001F4B03EB8000FFF71DF9E26A1D4B1B68FD
:1048A000DB6A9A42DCD31C4B01221A60D8E70CB1B8
:1048B000FFF7C6FC194B1C6884B9174B1C68D4B1B0
:1048C0004FF0E0234FF08052C3F8042DBFF34F8F19
:1048D000BFF36F8F01240EE0013C07D0FFF714FFF8
:1048E0000028F9D00C4B01221A60F5E70B4B00228F
:1048F0001A60E2E7002400F08BFE204638BD00BFBE
:10490000380900202C0900207809002040090020E7
:10491000CC040020C0040020BC0900203409002081
:1049200010B5B8B10446114B1B6853B14FF050039A
:1049300072B683F31188BFF36F8FBFF34F8F62B6E8
:10494000FEE7FFF7D3FE00212046FFF7C5FDFFF786
:1049500069FF48B94FF0E0234FF08052C3F8042DAF
:10496000BFF34F8FBFF36F8F10BD00BF380900201A
:10497000204B1B681BB1204B01221A6070471E4B55
:1049800000221A601D4B1B6803EB83018A001C493F
:104990008A586AB90BB1013BF6E74FF0500372B683
:1049A00083F31188BFF36F8FBFF34F8F62B6FEE7BB
:1049B00003EB830082000A4450684068506003EBB8
:1049C000830C4FEA8C020832114488420BD003EB6F
:1049D000830291000A4A0A445268D168094A116068
:1049E000064A13607047406862469100044A0A44D0
:1049F0005060ECE738090020BC0900204009002085
:104A0000CC040020C004002058B110B50C460A4A5E
:104A100011681831FFF769F801212046FFF75CFDA6
:104A200010BD4FF0500372B683F31188BFF36F8F40
:104A3000BFF34F8F62B6FEE7C004002038B570B1F7
:104A40000D4614460B4A11681831FFF743F80CB1B4
:104A50004FF0FF3521462846FFF73EFD38BD4FF0A9
:104A6000500372B683F31188BFF36F8FBFF34F8F7C
:104A700062B6FEE7C004002038B5C368DC6824B322
:104A800004F118052846FFF749F8194B1B683BBB92
:104A9000251D2846FFF742F8E06A164B1B6898422E
:104AA00001D9144B186000EB80002946124B03EB30
:104AB0008000FFF70FF8E26A104B1B68DB6A9A422E
:104AC00013D901200E4B186038BD4FF0500372B659
:104AD00083F31188BFF36F8FBFF34F8F62B6FEE78A
:104AE00029460848FEF7F6FFE5E70020ECE700BF9F
:104AF0003809002040090020CC040020C004002018
:104B0000BC09002078090020034B1B680360034B9D
:104B10001B684360704700BF74090020B80900207B
:104B2000F8B5C8B10C46054609B300F04BFD1D4B66
:104B300019686B68C81A2268B2F1FF3F2AD01A4E72
:104B400036682F68B74201D08B4228D9824219D8E3
:104B50000023236001241EE04FF0500372B683F35C
:104B60001188BFF36F8FBFF34F8F62B6FEE74FF030
:104B7000500372B683F31188BFF36F8FBFF34F8F6B
:104B800062B6FEE75B1A134423602846FFF7BCFFBA
:104B9000002400E0002400F03BFD2046F8BD012485
:104BA000F9E700BFB809002074090020014B012279
:104BB0001A607047BC090020054B1B6833B1054BD8
:104BC0001B680BB10020704702207047012070471E
:104BD0008C0900203809002000283FD038B5044651
:104BE000204B1B6883420AD04FF0500372B683F308
:104BF0001188BFF36F8FBFF34F8F62B6FEE7036D6F
:104C000053B94FF0500372B683F31188BFF36F8F1F
:104C1000BFF34F8F62B6FEE7013B0365C16AC26C0A
:104C200091421DD00BB1002038BD051D2846FEF76E
:104C300075FFE06CE062C0F13803A3610A4B1B68AA
:104C4000984201D9084B186000EB80002946074BB9
:104C500003EB8000FEF73EFF0120E5E700207047F0
:104C60000020E1E7C004002040090020CC0400201F
:104C7000064B1A6813682BB90123036023B9D36864
:104C8000186870470023F8E700207047C00900202B
:104C900008B54160006191420CD8D21A83699A42EA
:104CA00001D3012008BD011D0B4B1868FEF71DFF45
:104CB0000020F7E79A422CBF00220122994238BF18
:104CC00000220AB10120EDE7011D044B1868FEF730
:104CD0000CFF0020E6E700BFC4090020C009002047
:104CE00030B583B000F06EFC114B1B681BB100F0B7
:104CF0008FFC03B030BD0F4D2846FEF7DDFE0E4C95
:104D00002046FEF7D9FE0D4B1D600D4B1C600023A5
:104D100000930C4B0C4A10210A20FFF707F8044BB4
:104D200018600028E3D00949FFF74CFADFE700BF1D
:104D3000E40A0020680A00207C0A0020C009002044
:104D4000C4090020940A0020C8090020C08A000875
:104D500010B588B0FFF7C4FF134B1B68CBB100241C
:104D60000594069407AA06A905A800F095FA059BE4
:104D70000293069B0193022300932346079A0B4953
:104D80000B48FFF7EBFB0B4B186010B1012008B08C
:104D900010BD4FF0500372B683F31188BFF36F8FCD
:104DA000BFF34F8F62B6FEE7E40A0020C88A00080E
:104DB000D1500008E80A0020B8B19C4603461948C3
:104DC000006868B300B585B000910192029305298F
:104DD0001EDCFFF7F1FE022812D000231A466946B6
:104DE00010480068FEF7FFFF17E04FF0500372B65F
:104DF00083F31188BFF36F8FBFF34F8F62B6FEE767
:104E00000023069A694607480068FEF7ECFF04E0B5
:104E1000002362466946FFF7B2F805B05DF804FB6F
:104E200000207047E40A002070B582B01C4B1B685C
:104E30001A6872B3DB681E68DC68251D2846FEF719
:104E40006DFE236A2046984794F8283013F0040F2B
:104E5000ECD0A36933449E4207D2636024612946A3
:104E60000F4B1868FEF741FEE0E7002100910B466A
:104E700032462046FFF7A0FF0028D7D14FF050035D
:104E800072B683F31188BFF36F8FBFF34F8F62B693
:104E9000FEE7044A106802490860136002B070BD62
:104EA000C0090020C409002038B50546FFF726FCDC
:104EB0000446074B1B68834205D800232B60044B34
:104EC0001C60204638BDFFF7AFFF01232B60F6E7DB
:104ED000900A002070B582B006460D461849096850
:104EE000C968CC68201DFEF719FE94F828C01CF094
:104EF000040F08D12CF0010C84F828C0236A204646
:104F0000984702B070BDA16933462A463144204615
:104F1000FFF7BEFE0028F1D0002100910B4632467B
:104F20002046FFF749FF0028E8D14FF0500372B642
:104F300083F31188BFF36F8FBFF34F8F62B6FEE725
:104F4000C009002070B582B006460C46FFF7CEFBC4
:104F500001A8FFF7A9FF019B3BBB0546B04228BF54
:104F6000002C19D024B1134A12681268DAB901244E
:104F70002246711B104B1868FFF738F9FFF752FCF7
:104F8000A8B94FF0E0234FF08052C3F8042DBFF3CF
:104F90004F8FBFF36F8F0AE0FFF744FC294630467E
:104FA000FFF798FF03E01C46E2E7FFF73BFC02B087
:104FB00070BD00BFC4090020E40A002010B588B00D
:104FC00002E0049B002B0FDA002204A93F4B186873
:104FD000FFF743F8002877D0049B002BF1DA0799FC
:104FE0000698059B9847ECE7069C636913B1201D62
:104FF000FEF794FD03A8FFF757FF049B092BE3D8A6
:10500000DFE803F00505053239540505323994F817
:10501000283043F0010384F82830059BA16902463B
:1050200019442046FFF734FE0028CDD0236A2046DD
:10503000984794F8283013F0040FC5D0A2690021D6
:1050400000910B46059802442046FFF7B5FE002864
:10505000BAD14FF0500372B683F31188BFF36F8F4C
:10506000BFF34F8F62B6FEE794F8283023F00103B8
:1050700084F82830A8E794F8283043F0010384F836
:1050800028300599A16131B103460246014420460A
:10509000FFF7FEFD98E74FF0500372B683F31188D7
:1050A000BFF36F8FBFF34F8F62B6FEE794F82830DF
:1050B00013F0020F04D023F0010384F8283083E7B3
:1050C000204600F0D5F97FE708B010BDE40A0020C3
:1050D00000B583B001A8FFF7CBFD0199FFF732FFC0
:1050E000FFF76CFFF6E70000EFF305837BB9EFF302
:1050F000108313B9EFF311831BB1094B1B68022B0B
:1051000008D0074B186840B901221A6070476FF049
:10511000050070476FF0050070474FF0FF30704793
:10512000480D002008B5EFF30583A3B9EFF3108312
:1051300013B9EFF311831BB10B4B1B68022B0DD07E
:10514000094B1B68012B0CD1074B02221A60FFF799
:105150007BFA002008BD6FF00500FBE76FF005004B
:10516000F8E74FF0FF30F5E7480D0020F0B587B0C5
:1051700000240594EFF30584002C38D1EFF310835D
:1051800013B9EFF311831BB12D4B1B68022B2ED0EB
:1051900068B322B31568936903B918235C1E372CD2
:1051A00049D8546814F0010F47D156696EB14FEADF
:1051B000960C94682CB1D7685B2F02D9176907B198
:1051C000C6B92CB14FF0FF340EE04FF0800CF0E781
:1051D000D4688CB9146994B14FF0FF3404E01546DB
:1051E000002418234FF0800C012C0AD0ACB1059894
:1051F00007B0F0BD0124F7E74FF0FF34F4E70024D7
:10520000F2E7146992680292019400930B46624699
:105210002946FFF7A3F90590E9E705AA0192009353
:105220000B461FFA8CF22946FFF7D9F90128DED088
:1052300000230593DBE70020DAE70020D8E700BF72
:10524000480D002008B5EFF3058383B9EFF3108311
:1052500013B9EFF311831BB1084B1B68022B09D064
:1052600008B9002008BDFFF75BFB0020FAE76FF0EC
:105270000500F7E76FF00500F4E700BF480D0020D8
:10528000034B0360034B0B6080231360704700BF28
:10529000EC0C0020EC0A0020034B0360034B0B6076
:1052A0004FF48073136070474C1100204C0D0020A8
:1052B000124A12F0070F1ED0D11D21F00701C1F5CF
:1052C000705313440A460E480260002141601344A3
:1052D000083B23F007030B48036059601960991AD3
:1052E00051601360084B1960084B1960084B4FF070
:1052F00000421A6070474FF47053E4E7AC1100208D
:10530000B84D0020A8110020B44D0020B04D002061
:10531000AC4D0020164B1A461B688342FBD35168E4
:1053200002EB010C844509D0416800EB010C634598
:1053300009D00360904219D0106070474068014462
:1053400051601046F0E710B40A4C2468A3420BD019
:105350005B681944416013681B680360904200D089
:1053600010605DF8044B70470460F7E7704700BFBA
:10537000B84D0020A811002070B50546FFF7B6F91A
:10538000364B1B68A3B1364B1B681D424CD135B15F
:10539000083515F0070F02D025F007050835002D58
:1053A00044D0304B1B68AB4251D32F4A146804E001
:1053B000FFF77EFFE7E722461C466368AB4202D256
:1053C0002368002BF7D1254B1B68A34241D01668F8
:1053D00008362368136063685B1B102B12D96019B1
:1053E00010F0070F0AD04FF0500372B683F3118804
:1053F000BFF36F8FBFF34F8F62B6FEE74360656008
:10540000FFF788FF626817490B689B1A0B60174902
:1054100009688B4201D215490B60114B1B6813437D
:1054200063600023236002E0002600E00026FFF70F
:10543000F9F916F0070F0ED04FF0500372B683F350
:105440001188BFF36F8FBFF34F8F62B6FEE7002660
:10545000EDE70026EBE7304670BD00BFA811002045
:10546000AC4D0020B04D0020B84D0020B44D0020C0
:10547000002834D038B50446A0F1080550F8043CA3
:10548000174A126813420AD14FF0500372B683F3E1
:105490001188BFF36F8FBFF34F8F62B6FEE750F8EE
:1054A000081C51B14FF0500372B683F31188BFF35B
:1054B0006F8FBFF34F8F62B6FEE723EA020340F817
:1054C000043CFFF713F954F8041C064A13680B4414
:1054D00013602846FFF71EFFFFF7A4F938BD704799
:1054E000AC4D0020B04D002082B0002301930F4B43
:1054F0001B68B3F1FF3F0AD04FF0500372B683F33D
:105500001188BFF36F8FBFF34F8F62B6FEE74FF086
:10551000500372B683F31188BFF36F8FBFF34F8FC1
:1055200062B6019B002BFCD002B0704764000020E3
:1055300008480068006880F308884FF0000080F396
:10554000148862B661B6BFF34F8FBFF36F8F00DF71
:1055500000BF000008ED00E0DFF80C00016841F436
:10556000700101607047000088ED00E04FF080732B
:1055700040F8043C21F0010140F8081C054B40F8BC
:105580000C3C40F8202C6FF0020340F8243C4438D7
:10559000704700BFE9540008000000000000000050
:1055A000074B19680868B0E8F04F80F30988BFF32B
:1055B0006F8F4FF0000080F311887047AFF30080C9
:1055C000C00400204FF0500372B683F31188BFF37C
:1055D0006F8FBFF34F8F62B60C4A136801331360AD
:1055E000012B00D070474FF0E023D3F8043D13F0B7
:1055F000FF0FF7D04FF0500372B683F31188BFF35B
:105600006F8FBFF34F8F62B6FEE700BF64000020CC
:105610000A4B1B6853B94FF0500372B683F31188DD
:10562000BFF36F8FBFF34F8F62B6FEE7013B034AB4
:1056300013600BB983F31188704700BF640000202A
:10564000EFF30980BFF36F8F154B1A681EF0100F30
:1056500008BF20ED108A20E9F04F10602DE9090005
:105660004FF0500072B680F31188BFF34F8FBFF335
:105670006F8F62B6FFF77CF94FF0000080F311885E
:1056800009BC19680868B0E8F04F1EF0100F08BF99
:10569000B0EC108A80F30988BFF36F8F704700BFAA
:1056A000C004002008B54FF0500372B683F3118890
:1056B000BFF36F8FBFF34F8F62B6FFF725F828B1A6
:1056C0004FF0E0234FF08052C3F8042D002383F302
:1056D000118808BD4FF0E022002313619361054B50
:1056E0001B680549A1FB03139B09013B5361072379
:1056F0001361704760000020D34D621030B583B055
:105700002F4B1A78D2B20192FF221A701B78DBB2AB
:105710008DF803309DF8033003F05003294A1370CD
:10572000294B07221A6009E0274A1368013B1360DE
:105730009DF803305B00DBB28DF803309DF8033039
:1057400013F0800FF0D1204B1B68032B0AD04FF0D1
:10575000500372B683F31188BFF36F8FBFF34F8F7F
:1057600062B6FEE71B02184A136003F4E06313609D
:10577000019BDBB2124A13704FF0E024D4F8203DB5
:1057800043F47003C4F8203DD4F8203D43F0704347
:10579000C4F8203DFFF79EFF00250C4B1D60FFF76E
:1057A000DBFED4F8343F43F04043C4F8343FFFF706
:1057B000BFFEFFF7DDF8FFF797FE284603B030BDC8
:1057C00000E400E0C04D0020C44D00206400002033
:1057D000EFF305830F2B11D9134A9B5CDBB2134AFD
:1057E00012789A420AD94FF0500372B683F31188A7
:1057F000BFF36F8FBFF34F8F62B6FEE74FF0E0232A
:10580000D3F80C3D03F4E063094A126893420AD9C5
:105810004FF0500372B683F31188BFF36F8FBFF35D
:105820004F8F62B6FEE77047F0E300E0C04D002006
:10583000C44D0020DFF834D00D480E490E4A002335
:1058400002E0D458C4500433C4188C42F9D30B4A34
:105850000B4C002301E013600432A242FBD3FDF79E
:105860008BFC00F019F8FBF7F3FE704700000520F1
:105870000000002038020020FC8E000838020020C2
:10588000DC4D0020FEE70000024B0A460146186886
:1058900000F044B86800002070B50D4D0D4C641B3D
:1058A000A4100026A64209D10B4D0C4C03F08EF833
:1058B000641BA4100026A64205D170BD55F8043B18
:1058C00098470136EEE755F8043B98470136F2E772
:1058D000F48E0008F48E0008F48E0008F88E00089C
:1058E000024B0146186800F075B800BF6800002040
:1058F0000A44914200F1FF3300D1704710B511F80E
:10590000014B03F8014F9142F9D110BD0244034607
:10591000934200D1704703F8011BF9E713B54A43DE
:105920001146019200F056F8044618B1019A002180
:10593000FFF7ECFF204602B010BD000037B500298C
:1059400044D051F8043C0190002BA1F10404B8BFED
:10595000E41801F0B3FB1E4A0198136833B9636081
:10596000146003B0BDE8304001F0AEBBA34208D9DB
:10597000256861198B4201BF19685B68491921606C
:10598000EDE71A465B680BB1A342FAD911685518C6
:10599000A5420BD1246821445418A3421160E0D1E0
:1059A0001C685B68536021441160DAE702D90C235C
:1059B0000360D6E7256861198B4204BF19685B68EC
:1059C000636004BF491921605460CAE703B030BD69
:1059D000C84D0020F8B5CD1C25F0030508350C2D69
:1059E00038BF0C25002D064601DBA94203D90C2344
:1059F00033600020F8BD01F061FB21490A681446BC
:105A00009CB9204F3B6823B92146304600F0A6FCE4
:105A100038602946304600F0A1FC431C23D10C23FA
:105A20003360304601F050FBE3E723685B1B17D47B
:105A30000B2B03D923601C44256004E06368A24259
:105A40000CBF0B605360304601F03EFB04F10B00CD
:105A5000231D20F00700C21ACCD01B1AA350C9E79F
:105A600022466468CCE7C41C24F00304A042E3D0BF
:105A7000211A304600F072FC0130DDD1CFE700BFC3
:105A8000C84D0020CC4D00202DE9FF4755EC104BB0
:105A9000002D0E4619462B46BBBF05F100431D469F
:105AA00000232D230B700D9BDDF830A0914623F0D1
:105AB0002008BCBF22461446B8F1460F05D0B8F105
:105AC000450F00D10136022100E0032103AB019311
:105AD00002AB009345EC104B5346324600F0FCFC01
