:020000040800F2
:100000000000052095650008BD100008BF1000081D
:10001000C1100008C3100008C5100008000000004F
:1000200000000000000000000000000081600008E7
:10003000C710000800000000216100088561000869
:10004000E5650008E5650008E5650008E565000868
:10005000E5650008E5650008E5650008E565000858
:10006000E5650008E5650008E5650008E565000848
:10007000E5650008E5650008E5650008E565000838
:10008000E5650008E5650008E5650008E565000828
:10009000E5650008E5650008E5650008E565000818
:1000A000E5650008C9100008E5650008E565000879
:1000B000E5650008E5650008E5650008E5650008F8
:1000C000E5650008E5650008E5650008E5650008E8
:1000D000E5650008E5650008E5650008E5650008D8
:1000E000E5650008E5650008E5650008E5650008C8
:1000F000E5650008E5650008E5650008E5650008B8
:10010000E5650008E5650008E5650008E5650008A7
:10011000E5650008E5650008E5650008E565000897
:10012000E5650008E5650008E5650008E565000887
:10013000E5650008E5650008E5650008E565000877
:10014000E5650008E5650008E5650008E565000867
:10015000E5650008E5650008E5650008E565000857
:10016000E5650008E5650008E5650008E565000847
:10017000E5650008E5650008E56500080000000089
:10018000E5650008E5650008E5650008E565000827
:10019000E5650008E5650008E5650008E565000817
:1001A000E5650008E5650008E5650008E565000807
:1001B000E5650008E5650008E565000811440008EC
:0801C000E5650008E565000893
:1001D00010B5054C237833B9044B13B10448AFF381
:1001E00000800123237010BDE0010020000000000A
:1001F0001494000808B5034B1BB103490348AFF33F
:10020000008008BD00000000E401002014940008F4
:10021000034613F8012B002AFBD1181A0138704746
:1002200001F0FF01102A2BDB10F0070F08D010F8A7
:10023000013B013A8B422DD010F0070F42B3F6D1AB
:10024000F0B441EA012141EA014122F007047FF0C4
:1002500000070023F0E80256083C85EA010586EA1B
:10026000010685FA47F5A3FA87F586FA47F6A5FA57
:1002700087F68EB9EED1F0BC01F0FF0102F0070263
:1002800032B110F8013B013A83EA010313B1F8D10E
:100290000020704701387047002D06BF35460338EF
:1002A000073815F0010F07D1013015F4807F02BF28
:1002B000013015F4C03F0130F0BC0138704700BF79
:1002C00081F0004102E000BF83F0004330B54FEA07
:1002D00041044FEA430594EA050F08BF90EA020F74
:1002E0001FBF54EA000C55EA020C7FEA645C7FEA07
:1002F000655C00F0E2804FEA5454D4EB5555B8BF2A
:100300006D420CDD2C4480EA020281EA030382EA9A
:10031000000083EA010180EA020281EA0303362D2C
:1003200088BF30BD11F0004F4FEA01314FF4801CFF
:100330004CEA113102D0404261EB410113F0004F11
:100340004FEA03334CEA133302D0524263EB4303C8
:1003500094EA050F00F0A780A4F10104D5F1200E66
:100360000DDB02FA0EFC22FA05F2801841F10001C1
:1003700003FA0EF2801843FA05F359410EE0A5F195
:1003800020050EF1200E012A03FA0EFC28BF4CF0C6
:10039000020C43FA05F3C01851EBE37101F000457C
:1003A00007D54FF0000EDCF1000C7EEB00006EEB89
:1003B0000101B1F5801F1BD3B1F5001F0CD3490813
:1003C0005FEA30004FEA3C0C04F101044FEA44526A
:1003D00012F5800F80F09A80BCF1004F08BF5FEAF1
:1003E000500C50F1000041EB045141EA050130BDD1
:1003F0005FEA4C0C404141EB0101013C28BFB1F5E3
:10040000801FE9D291F0000F04BF01460020B1FA2D
:1004100081F308BF2033A3F10B03B3F120020CDA00
:100420000C3208DD02F1140CC2F10C0201FA0CF0DE
:1004300021FA02F10CE002F11402D8BFC2F1200C43
:1004400001FA02F120FA0CFCDCBF41EA0C019040F9
:10045000E41AA2BF01EB0451294330BD6FEA040442
:100460001F3C1CDA0C340EDC04F11404C4F120022D
:1004700020FA04F001FA02F340EA030021FA04F33F
:1004800045EA030130BDC4F10C04C4F1200220FA96
:1004900002F001FA04F340EA0300294630BD21FAD4
:1004A00004F0294630BD94F0000F83F4801306BF9A
:1004B00081F480110134013D4EE77FEA645C18BF8E
:1004C0007FEA655C29D094EA050F08BF90EA020F25
:1004D00005D054EA000C04BF1946104630BD91EA1D
:1004E000030F1EBF0021002030BD5FEA545C05D120
:1004F0004000494128BF41F0004130BD14F580045F
:100500003CBF01F5801130BD01F0004545F0FE41D2
:1005100041F470014FF0000030BD7FEA645C1ABF07
:10052000194610467FEA655C1CBF0B46024650EA3E
:10053000013406BF52EA033591EA030F41F400216A
:1005400030BD00BF90F0000F04BF0021704730B5F0
:100550004FF4806404F132044FF000054FF00001C5
:1005600050E700BF90F0000F04BF0021704730B586
:100570004FF4806404F1320410F0004548BF40425B
:100580004FF000013EE700BF42004FEAE2014FEAB0
:1005900031014FEA02701FBF12F07F4393F07F4F8B
:1005A00081F06051704732F07F4208BF704793F08E
:1005B0007F4F04BF41F40021704730B54FF46074A1
:1005C00001F0004521F000411CE700BF50EA0102A4
:1005D00008BF704730B54FF000050AE050EA01024D
:1005E00008BF704730B511F0004502D5404261EBBD
:1005F00041014FF4806404F132045FEA915C3FF4FE
:10060000D8AE4FF003025FEADC0C18BF03325FEA9A
:10061000DC0C18BF033202EBDC02C2F1200300FA4B
:1006200003FC20FA02F001FA03FE40EA0E0021FA70
:1006300002F11444BDE600BF70B54FF0FF0C4CF45E
:10064000E06C1CEA11541DBF1CEA135594EA0C0F10
:1006500095EA0C0F00F0DEF82C4481EA030621EA4B
:100660004C5123EA4C5350EA013518BF52EA033586
:1006700041F4801143F4801338D0A0FB02CE4FF038
:100680000005E1FB02E506F00042E0FB03E54FF068
:100690000006E1FB03569CF0000F18BF4EF0010E60
:1006A000A4F1FF04B6F5007F64F5407404D25FEA5C
:1006B0004E0E6D4146EB060642EAC62141EA55510F
:1006C0004FEAC52040EA5E504FEACE2EB4F1FD0C51
:1006D00088BFBCF5E06F1ED8BEF1004F08BF5FEACF
:1006E000500E50F1000041EB045170BD06F0004681
:1006F00046EA010140EA020081EA0301B4EB5C042E
:10070000C2BFD4EB0C0541EA045170BD41F4801125
:100710004FF0000E013C00F3AB8014F1360FDEBF4A
:10072000002001F0004170BDC4F10004203C35DA26
:100730000C341BDC04F11404C4F1200500FA05F3A9
:1007400020FA04F001FA05F240EA020001F000424A
:1007500021F0004110EBD37021FA04F642EB0601C0
:100760005EEA430E08BF20EAD37070BDC4F10C04EA
:10077000C4F1200500FA04F320FA05F001FA04F2AE
:1007800040EA020001F0004110EBD37041F100019A
:100790005EEA430E08BF20EAD37070BDC4F12005A5
:1007A00000FA05F24EEA020E20FA04F301FA05F20D
:1007B00043EA020321FA04F001F0004121FA04F2B5
:1007C00020EA020000EBD3705EEA430E08BF20EA85
:1007D000D37070BD94F0000F0FD101F000464000BF
:1007E00041EB010111F4801F08BF013CF7D041EA41
:1007F000060195F0000F18BF704703F00046520045
:1008000043EB030313F4801F08BF013DF7D043EA15
:100810000603704794EA0C0F0CEA135518BF95EACB
:100820000C0F0CD050EA410618BF52EA4306D1D152
:1008300081EA030101F000414FF0000070BD50EA71
:10084000410606BF1046194652EA430619D094EAFB
:100850000C0F02D150EA013613D195EA0C0F05D1E5
:1008600052EA03361CBF104619460AD181EA030139
:1008700001F0004141F0FE4141F470014FF00000F1
:1008800070BD41F0FE4141F4780170BD70B54FF08C
:10089000FF0C4CF4E06C1CEA11541DBF1CEA13550C
:1008A00094EA0C0F95EA0C0F00F0A7F8A4EB0504EE
:1008B00081EA030E52EA03354FEA013100F08880E5
:1008C0004FEA03334FF0805545EA131343EA1263AE
:1008D0004FEA022245EA111545EA10654FEA002663
:1008E0000EF000419D4208BF964244F1FD0404F51C
:1008F000407402D25B084FEA3202B61A65EB030578
:100900005B084FEA32024FF480104FF4002CB6EB34
:10091000020E75EB030E22BFB61A754640EA0C00B4
:100920005B084FEA3202B6EB020E75EB030E22BFF4
:10093000B61A754640EA5C005B084FEA3202B6EB35
:10094000020E75EB030E22BFB61A754640EA9C00F4
:100950005B084FEA3202B6EB020E75EB030E22BFC4
:10096000B61A754640EADC0055EA060E18D04FEA82
:10097000051545EA16754FEA06164FEAC30343EA22
:1009800052734FEAC2025FEA1C1CC0D111F4801FEF
:100990000BD141EA00014FF000004FF0004CB6E7E8
:1009A00011F4801F04BF01430020B4F1FD0C88BF87
:1009B000BCF5E06F3FF6AFAEB5EB030C04BFB6EB92
:1009C000020C5FEA500C50F1000041EB045170BD85
:1009D0000EF0004E4EEA113114EB5C04C2BFD4EBB2
:1009E0000C0541EA045170BD41F480114FF0000E36
:1009F000013C90E645EA060E8DE60CEA135594EAB2
:100A00000C0F08BF95EA0C0F3FF43BAF94EA0C0FB4
:100A10000AD150EA01347FF434AF95EA0C0F7FF429
:100A200025AF104619462CE795EA0C0F06D152EA7D
:100A300003353FF4FDAE1046194622E750EA410661
:100A400018BF52EA43067FF4C5AE50EA41047FF472
:100A50000DAF52EA43057FF4EBAE12E74FF0FF3CD7
:100A600006E000BF4FF0010C02E000BF4FF0010CA8
:100A70004DF804CD4FEA410C7FEA6C5C4FEA430C21
:100A800018BF7FEA6C5C1BD001B050EA410C0CBF70
:100A900052EA430C91EA030F02BF90EA020F0020D2
:100AA000704710F1000F91EA030F58BF994208BF39
:100AB00090422CBFD8176FEAE37040F001007047F6
:100AC0004FEA410C7FEA6C5C02D150EA013C07D14D
:100AD0004FEA430C7FEA6C5CD6D152EA033CD3D098
:100AE0005DF8040B704700BF8446104662468C4692
:100AF0001946634600E000BF01B5FFF7B7FF0028C5
:100B000048BF10F1000F01BD4DF808EDFFF7F4FFED
:100B10000CBF012000205DF808FB00BF4DF808ED78
:100B2000FFF7EAFF34BF012000205DF808FB00BF9B
:100B30004DF808EDFFF7E0FF94BF012000205DF8BD
:100B400008FB00BF4DF808EDFFF7CEFF94BF012072
:100B500000205DF808FB00BF4DF808EDFFF7C4FF6B
:100B600034BF012000205DF808FB00BF4FEA410CB4
:100B70007FEA6C5C02D150EA013C0AD14FEA430C97
:100B80007FEA6C5C02D152EA033C02D14FF00000D4
:100B900070474FF0010070474FEA410212F5001212
:100BA00015D211D56FF47873B3EB625212D94FEAB4
:100BB000C12343F0004343EA505311F0004F23FA9E
:100BC00002F018BF404270474FF00000704750EAF3
:100BD000013005D111F0004008BF6FF000407047B0
:100BE0004FF00000704700BF53B94AB9002908BF51
:100BF00000281CBF4FF0FF314FF0FF3000F074B9F8
:100C0000ADF1080C6DE904CE00F006F8DDF804E063
:100C1000DDE9022304B070472DE9F047089D044642
:100C20008E46002B4DD18A42944669D9B2FA82F29F
:100C300052B101FA02F3C2F1200120FA01F10CFADB
:100C400002FC41EA030E94404FEA1C48210CBEFB13
:100C5000F8F61FFA8CF708FB16E341EA034306FB9C
:100C600007F199420AD91CEB030306F1FF3080F02B
:100C70001F81994240F21C81023E63445B1AA4B278
:100C8000B3FBF8F008FB103344EA034400FB07F71A
:100C9000A7420AD91CEB040400F1FF3380F00A815B
:100CA000A74240F207816444023840EA0640E41B50
:100CB00000261DB1D4400023C5E900433146BDE8FC
:100CC000F0878B4209D9002D00F0EF800026C5E99E
:100CD000000130463146BDE8F087B3FA83F6002EB6
:100CE0004AD18B4202D3824200F2F980841A61EB2E
:100CF000030301209E46002DE0D0C5E9004EDDE74C
:100D000002B9FFDEB2FA82F2002A40F09280A1EB33
:100D10000C014FEA1C471FFA8CFE0126200CB1FB88
:100D2000F7F307FB131140EA01410EFB03F0884281
:100D300008D91CEB010103F1FF3802D2884200F20E
:100D4000CB804346091AA4B2B1FBF7F007FB1011A0
:100D500044EA01440EFB00FEA64508D91CEB04043E
:100D600000F1FF3102D2A64500F2BB800846A4EB99
:100D70000E0440EA03409CE7C6F12007B34022FA84
:100D800007FC4CEA030C20FA07F401FA06F31C43B3
:100D9000F9404FEA1C4900FA06F3B1FBF9F8200CC0
:100DA0001FFA8CFE09FB181140EA014108FB0EF006
:100DB000884202FA06F20BD91CEB010108F1FF3A56
:100DC00080F08880884240F28580A8F10208614462
:100DD000091AA4B2B1FBF9F009FB101144EA014170
:100DE00000FB0EFE8E4508D91CEB010100F1FF341B
:100DF0006CD28E456AD90238614440EA0840A0FBB3
:100E00000294A1EB0E01A142C846A64656D353D088
:100E10005DB1B3EB080261EB0E0101FA07F722FAAC
:100E200006F3F1401F43C5E9007100263146BDE8D5
:100E3000F087C2F12003D8400CFA02FC21FA03F338
:100E4000914001434FEA1C471FFA8CFEB3FBF7F0B9
:100E500007FB10360B0C43EA064300FB0EF69E42DE
:100E600004FA02F408D91CEB030300F1FF382FD277
:100E70009E422DD9023863449B1B89B2B3FBF7F61F
:100E800007FB163341EA034106FB0EF38B4208D9F8
:100E90001CEB010106F1FF3816D28B4214D9023E39
:100EA0006144C91A46EA004638E72E46284605E757
:100EB0000646E3E61846F8E64B45A9D2B9EB020828
:100EC00064EB0C0E0138A3E74646EAE7204694E7B8
:100ED0004046D1E7D0467BE7023B614432E73046EB
:100EE00009E76444023842E7704700BF08B500F0E4
:100EF00027F808BD08B50A4B1B6846F2A8125A63CA
:100F000043F2D4029A63074B1B6844F62062DA630B
:100F100042F210721A644FF47A7004F005FFEAE7A7
:100F2000E04C00202C4D002008B50221034801F0C0
:100F3000EDFD4FF47A7004F0F7FEF6E70010024082
:100F400010B5104C0021204600F0B0FD04212046D1
:100F500000F0ACFD0C4C0821204600F0A7FD0C2150
:100F6000204600F0A3FD094A0021094804F070FE64
:100F7000084B1860084A0021084804F069FE084B35
:100F8000186010BDE04C00202C4D0020509400084B
:100F9000290F0008FC01002074940008F50E0008D9
:100FA0000002002008B50268034B9A4200D008BD39
:100FB00001F016FEFBE700BF0000014072B6FEE73D
:100FC00010B5B4B03022002128A805F047FB00245A
:100FD000239424942594269427948422214602A8BD
:100FE00005F03CFB264B1A6C42F080521A641B6CD5
:100FF00003F080530093009B224B1A6842F4404256
:101000001A601B6803F440430193019B0223289359
:1010100001222B9210222C922E932F940822309290
:10102000C82231923293339328A800F03BFEF8B9DE
:1010300001F08CFDF0B90F232393022324930023A6
:1010400025934FF4A05326934FF480532793062102
:1010500023A801F093F878B90B4B02930023149363
:101060001B931E9302A801F083F938B934B010BD68
:10107000FFF7A4FFFFF7A2FFFFF7A0FFFFF79EFF18
:1010800000380240007000408040020008B501F0C6
:101090009BFDFFF795FF03F0B3F803F0F5F803F0BD
:1010A0001FF903F0E9F905F0B3F905F011FA04F0BE
:1010B0008DFD03F031FA04F0A7FDFEE7FEE7FEE741
:1010C000FEE7FEE7FEE7704708B5024800F0E1F9E9
:1010D00008BD00BF4C03002000B583B00D4B1A6C57
:1010E00042F080521A641A6C02F080520092009A08
:1010F0005A6C42F480425A645B6C03F4804301935F
:10110000019B00220F216FF0010000F017F803B0DF
:101110005DF804FB003802400649CB6823F4E06325
:101120001B041B0C000200F4E0600343024A1A4354
:10113000CA60704700ED00E00000FA0500B5174BEB
:10114000DB68C3F30223C3F1070CBCF1040F28BF13
:101150004FF0040C03F1040EBEF1060F14D9033B4B
:101160004FF0FF3E0EFA0CFC21EA0C0199400EFAFA
:1011700003F322EA03031943002807DB0901C9B27C
:10118000074B19545DF804FB0023E9E700F00F005A
:101190000901C9B2034B1954F4E700BF00ED00E0A8
:1011A00000E400E014ED00E0002807DB00F01F027F
:1011B000400901239340024A42F82030704700BFA3
:1011C00000E100E070B4036A23F001030362036AE4
:1011D00042688569124C2C400D68254323F00204B7
:1011E0008B6823430F4C104EB04218BFA0420CBF77
:1011F0000124002405D123F00803CE68334323F0F3
:1012000004032CB122F440724C6914438A692243CE
:10121000426085614A684263036270BC704700BFE8
:101220008CFFFEFF000001400004014070B4036A1F
:1012300023F480730362036A4268C569144C2C402E
:101240000E68264323F400738C6843EA0423114C90
:10125000114DA84218BFA0420CBF0124002406D1A2
:1012600023F40063CD6843EA052323F480633CB193
:1012700022F440524C6942EA04128C6942EA041298
:101280004260C6614A68C263036270BC704700BFB7
:101290008CFFFEFF000001400004014070B4036AAF
:1012A00023F480530362036A4468C5690D4A2A40E7
:1012B0000D6842EA052223F400538D6843EA0533A2
:1012C000094E0A4DA84218BFB04204D124F480440C
:1012D0004D6944EA85144460C2614A68026403624D
:1012E00070BC7047FF8CFFFE00000140000401400D
:1012F00070B4036A23F480330362036A4468426D66
:101300000D4D15400A682A4323F400338D6843EAE3
:1013100005430A4E0A4DA84218BFB04204D124F436
:1013200080344D6944EA0524446042654A68826518
:10133000036270BC704700BF8FFFFEFF00000140DA
:101340000004014070B4036A23F480130362036A4B
:101350004468456D0D4A2A400D6842EA052223F48F
:1013600000138D6843EA0553094E0A4DA84218BF81
:10137000B04204D124F480244D6944EA85244460B9
:1013800042654A68C265036270BC7047FF8FFFFE0A
:10139000000001400004014010B4036A046A24F014
:1013A00001040462846924F0F00C4CEA021223F078
:1013B0000A030B43826103625DF8044B704710B46B
:1013C000046A24F0100404628469036A24F4704CF3
:1013D0004CEA023223F0A00343EA01138261036264
:1013E0005DF8044B7047836823F070030B4343F0B0
:1013F000070383607047000090F83D30DBB2012B9B
:101400003AD1022380F83D300268D36843F00103EB
:10141000D36003681A4AB3F1804F18BF93421DD0BE
:10142000A2F57C42934219D002F58062934215D016
:1014300002F58062934211D002F5784293420DD0BA
:1014400002F57052934209D0A2F59432934205D02E
:101450001A6842F001021A60002070479968094A30
:101460000A40062A18BFB2F5803F07D01A6842F03A
:1014700001021A6000207047012070470020704769
:101480000000014007000100704770477047704737
:10149000704710B5044603681A6912F0020F11D0A4
:1014A000DA6812F0020F0DD06FF002021A61012308
:1014B000037703689B6913F0030F79D0FFF7E6FF0A
:1014C0000023237723681A6912F0040F12D0DA6818
:1014D00012F0040F0ED06FF004021A61022323777A
:1014E00023689B6913F4407F68D02046FFF7CEFF46
:1014F0000023237723681A6912F0080F12D0DA68E4
:1015000012F0080F0ED06FF008021A61042323773F
:101510002368DB6913F0030F57D02046FFF7B6FFAF
:101520000023237723681A6912F0100F12D0DA68AB
:1015300012F0100F0ED06FF010021A6108232377FB
:101540002368DB6913F4407F46D02046FFF79EFFF7
:101550000023237723681A6912F0010F03D0DA6899
:1015600012F0010F3FD123681A6912F0800F03D0E7
:10157000DA6812F0800F3DD123681A6912F4807F77
:1015800003D0DA6812F0800F3BD123681A6912F099
:10159000400F03D0DA6812F0400F39D123681A697E
:1015A00012F0200F03D0DA6812F0200F37D110BDEF
:1015B000FFF76BFF2046FFF76AFF81E72046FFF742
:1015C00064FF2046FFF763FF92E72046FFF75DFFC9
:1015D0002046FFF75CFFA3E72046FFF756FF2046B3
:1015E000FFF755FFB4E76FF001021A612046FFF7DD
:1015F000D9FCB8E76FF080021A61204600F04FFB7B
:10160000BAE76FF480721A61204600F049FBBCE72C
:101610006FF040021A612046FFF73AFFBEE76FF015
:1016200020021A61204600F039FBC0E730B503689C
:101630003B4A904214BF4FF0000E4FF0010EB0F144
:10164000804F14BF72464EF00102AAB9354CA04239
:1016500014BF00240124344DA8420DD064B904F114
:10166000804404F58234A04214BF0024012405F50F
:101670000065A84200D01CB123F070034C682343DE
:10168000002A33D1274A904214BF00220122264C5F
:10169000A0422BD052BB02F1804202F5823290422E
:1016A00014BF0022012204F50064A0421ED0EAB952
:1016B0001E4A904214BF0022012204F59A34A0422F
:1016C00014D09AB91A4A904214BF0022012204F59C
:1016D0000064A0420AD04AB9164A904214BF0022C0
:1016E0000122A4F59634A04200D022B123F4407C1C
:1016F000CB6843EA0C0323F080034A691343036079
:101700008A68C2620A6882620B4A904214BF7346BA
:101710004EF001030BB10B6903630123436130BD3C
:101720000000014000080040000400400044014067
:1017300000180040002000400004014060B310B5D4
:10174000044690F83D3013B3022384F83D3021461F
:1017500051F8040BFFF76AFF012384F8483084F83E
:101760003E3084F83F3084F8403084F8413084F8CB
:10177000423084F8433084F8443084F8453084F8AB
:10178000463084F8473084F83D30002010BD80F8A2
:101790003C3004F0BFFDD7E70120704760B310B5BF
:1017A000044690F83D3013B3022384F83D302146BF
:1017B00051F8040BFFF73AFF012384F8483084F80E
:1017C0003E3084F83F3084F8403084F8413084F86B
:1017D000423084F8433084F8443084F8453084F84B
:1017E000463084F8473084F83D30002010BD80F842
:1017F0003C30FFF749FED7E70120704770B4036A19
:1018000023F010030362036A42688569144C2C407C
:101810000D6844EA052523F020038C6843EA04138D
:10182000104C114EB04218BFA0420CBF012400243E
:1018300006D123F08003CE6843EA061323F0400369
:101840003CB122F440624C6942EA84028C6942EA6B
:101850008402426085614A688263036270BC70479B
:10186000FF8CFFFE000001400004014038B590F8F5
:101870003C30012B00F08C8004460D46012380F89B
:101880003C30142A1ED8DFE802F00B1D1D1D211D5F
:101890001D1D351D1D1D481D1D1D5C1D1D1D6F00C1
:1018A0000068FFF78FFC2268936943F00803936197
:1018B0002268936923F0040393612268936929697C
:1018C0000B439361002084F83C0038BD0068FFF7AB
:1018D00095FF2268936943F40063936122689369DA
:1018E00023F48063936122689369296943EA0123A1
:1018F0009361E7E70068FFF799FC2268D36943F03A
:101900000803D3612268D36923F00403D3612268FA
:10191000D36929690B43D361D4E70068FFF7BEFCA4
:101920002268D36943F40063D3612268D36923F446
:101930008063D3612268D369296943EA0123D361B3
:10194000C0E70068FFF7D4FC2268536D43F008033A
:1019500053652268536D23F0040353652268536D69
:1019600029690B435365ADE70068FFF7EBFC22687C
:10197000536D43F4006353652268536D23F4806311
:1019800053652268536D296943EA0123536599E73A
:1019900002209AE710B4846824F47F4C42EA0322C0
:1019A0000A4342EA0C0282605DF8044B7047000073
:1019B00090F83C30012B64D010B50446012380F828
:1019C0003C30022380F83D30026890682E4B034083
:1019D00093600B68602B40D022D8402B47D00BD9A6
:1019E000502B0ED1CA6849682068FFF7D5FC5021FA
:1019F0002068FFF7F8FC04E0202B0CD008D9302B2E
:101A000009D0012384F83D30002084F83C0010BD4B
:101A10000BB1102BF5D119462068FFF7E4FCF0E775
:101A2000702B0ED0B3F5005FEBD1CB684A688968A4
:101A30002068FFF7AFFF2268936843F48043936008
:101A4000DFE7CB684A6889682068FFF7A3FF226850
:101A5000936843F077039360D3E7CA6849682068C6
:101A6000FFF7ADFC60212068FFF7BDFCC9E7CA683D
:101A700049682068FFF790FC40212068FFF7B3FC1D
:101A8000BFE70220704700BF8800FEFF01F01F0182
:101A9000012303FA01FC036A23EA0C030362036ACD
:101AA00002FA01F10B4303627047000010B50446CF
:101AB0000846002942D194F83E30DBB2013B18BF02
:101AC0000123002B40F08F80002862D1022384F88C
:101AD0003E30012201462068FFF7D8FF23684449C1
:101AE000444A934218BF8B4203D15A6C42F40042DD
:101AF0005A6423683E4AB3F1804F18BF934264D0C2
:101B0000A2F57C42934260D002F5806293425CD0A1
:101B100002F58062934258D002F57842934254D045
:101B200002F57052934250D0A2F5943293424CD0B9
:101B30001A6842F001021A60002055E004290CD016
:101B4000082911D00C2916D010291BD094F8433045
:101B5000DBB2013B18BF0123B3E794F83F30DBB29F
:101B6000013B18BF0123ACE794F84030DBB2013BE6
:101B700018BF0123A5E794F84130DBB2013B18BF41
:101B800001239EE794F84230DBB2013B18BF0123EA
:101B900097E7042809D008280BD00C280DD010286E
:101BA0000FD0022384F8433093E7022384F83F30B8
:101BB0008FE7022384F840308BE7022384F841301A
:101BC00087E7022384F8423083E799680A4A0A408B
:101BD000062A18BFB2F5803F07D01A6842F001020A
:101BE0001A60002000E0012010BD0020FCE700BFCB
:101BF00000000140000401400700010090F83C3063
:101C0000012B45D070B4012380F83C30022380F8CA
:101C10003D3003685A689C681E4E1F4DAB4218BF8A
:101C2000B34203D122F470024D682A4322F07002BD
:101C30000D682A435A600368164AB3F1804F18BFF3
:101C4000934217D0A2F57C42934213D002F58062F2
:101C500093420FD002F5806293420BD002F5784296
:101C6000934207D002F57052934203D0A2F594320A
:101C7000934204D124F080048A6814439C600123B9
:101C800080F83D30002380F83C30184670BC704727
:101C90000220704700000140000401407047704777
:101CA00070470000002800F0FF8170B582B0044644
:101CB000036813F0010F29D0954B9B6803F00C03C8
:101CC000042B1AD0924B9B6803F00C03082B0FD007
:101CD0006368B3F5803F40D0002B54D18C4B1A6819
:101CE00022F480321A601A6822F480221A6039E0E5
:101CF000874B5B6813F4800FEAD0854B1B6813F4A5
:101D0000003F03D06368002B00F0D081236813F0FC
:101D1000020F74D07E4B9B6813F00C0F5ED07C4B8F
:101D20009B6803F00C03082B53D0E368002B00F0F2
:101D30008980774A136843F00103136000F05CFF69
:101D40000546734B1B6813F0020F72D100F054FF6D
:101D5000401B0228F5D90320ADE16D4A136843F416
:101D60008033136063682BB300F046FF0546684B71
:101D70001B6813F4003FC9D100F03EFF401B6428EC
:101D8000F5D9032097E1B3F5A02F09D0604B1A686D
:101D900022F480321A601A6822F480221A60E1E785
:101DA0005B4B1A6842F480221A601A6842F480324F
:101DB0001A60D7E700F020FF0546554B1B6813F467
:101DC000003FA3D000F018FF401B6428F5D9032082
:101DD00071E14F4B5B6813F4800FA6D14C4B1B682D
:101DE00013F0020F03D0E368012B40F06181484AF1
:101DF000136823F0F803216943EAC10313602368E1
:101E000013F0080F46D0636983B3414A536F43F020
:101E10000103536700F0F0FE05463D4B5B6F13F086
:101E2000020F37D100F0E8FE401B0228F5D903204D
:101E300041E1374A136823F0F803216943EAC103FB
:101E40001360DCE7324A136823F00103136000F0EB
:101E5000D3FE05462E4B1B6813F0020FCFD000F0C7
:101E6000CBFE401B0228F5D9032024E1284A536FFA
:101E700023F00103536700F0BFFE0546244B5B6F60
:101E800013F0020F06D000F0B7FE401B0228F5D970
:101E9000032010E1236813F0040F7DD01C4B1B6C52
:101EA00013F0805F1ED11A4B1A6C42F080521A64F4
:101EB0001B6C03F080530193019B0125154B1B689C
:101EC00013F4807F10D0A368012B25D0002B3BD1C9
:101ED0000F4B1A6F22F001021A671A6F22F00402E8
:101EE0001A671EE00025E9E70A4A136843F4807385
:101EF000136000F081FE0646064B1B6813F4807FDA
:101F0000E1D100F079FE801B6428F5D90320D2E0EE
:101F100000380240007000406E4A136F43F0010326
:101F20001367A36833B300F067FE0646694B1B6F67
:101F300013F0020F2FD100F05FFE801B41F28833B7
:101F40009842F3D90320B6E0052B09D0614B1A6FF4
:101F500022F001021A671A6F22F004021A67E0E702
:101F60005C4B1A6F42F004021A671A6F42F00102CA
:101F70001A67D6E700F040FE0646564B1B6F13F07B
:101F8000020F08D000F038FE801B41F288339842DF
:101F9000F3D903208FE0FDB9A369002B00F08A80FC
:101FA0004C4A926802F00C02082A58D0022B19D031
:101FB000484A136823F08073136000F01DFE044646
:101FC000444B1B6813F0007F47D000F015FE001B48
:101FD0000228F5D903206EE03E4A136C23F08053AB
:101FE0001364D9E73B4A136823F08073136000F051
:101FF00003FE0546374B1B6813F0007F06D000F048
:10200000FBFD401B0228F5D9032054E0E369226A56
:102010001343626A43EA8213A26A5208013A43EA0E
:102020000243E26A43EA026343F00053294A5360E1
:10203000136843F08073136000F0DEFD0446254B07
:102040001B6813F0007F06D100F0D6FD001B0228AC
:10205000F5D903202FE000202DE000202BE01D4AC1
:102060005268012B29D002F48003E1698B4226D10A
:1020700002F03F03216A8B4223D1616A47F6C073A5
:102080001340B3EB811F1ED102F44031A36A5B08F9
:10209000013BB1EB034F18D102F07062E36AB2EB7F
:1020A000036F14D1002006E001207047012002E0F8
:1020B000012000E0002002B070BD0120FBE70120FC
:1020C000F9E70120F7E70120F5E70120F3E7012018
:1020D000F1E700BF0038024008B5254B9B6803F0CC
:1020E0000C03042B3FD0082B3FD1214B5A6802F040
:1020F0003F025B6813F4800F12D01D4B5968C1F387
:1021000088111C480023A1FB0001FEF76DFD184B50
:102110005B68C3F3014301335B00B0FBF3F025E0E0
:10212000134B5968C1F3881C4FEA4C11B1EB0C00FA
:102130006EEB0E0E4FEA8E1343EA90638101091A8B
:1021400063EB0E03DB0043EA5173C90011EB0C0C87
:1021500043F10003990200234FEA8C2041EA9C518D
:10216000FEF742FDD3E7034800E0034808BD00BF87
:102170000038024040787D010024F400002800F07F
:10218000A08070B50D460446524B1B6803F00F0348
:102190008B420BD24F4A136823F00F030B4313609B
:1021A000136803F00F038B4240F08D80236813F017
:1021B000020F17D013F0040F04D0474A936843F47A
:1021C000E0539360236813F0080F04D0424A9368E9
:1021D00043F460439360404A936823F0F003A1689E
:1021E0000B439360236813F0010F31D06368012B18
:1021F00020D0022B25D0384A126812F0020F64D08A
:1022000035498A6822F0030213438B6000F0F4FC26
:102210000646314B9B6803F00C036268B3EB820FF8
:1022200016D000F0E9FC801B41F288339842F0D9C7
:10223000032045E0284A126812F4003FE0D1012053
:102240003EE0254A126812F0007FD9D1012037E024
:10225000204B1B6803F00F03AB420AD91D4A1368D9
:1022600023F00F032B431360136803F00F03AB42FB
:102270002DD1236813F0040F06D0174A936823F476
:10228000E053E1680B439360236813F0080F07D015
:10229000114A936823F46043216943EAC1039360C0
:1022A000FFF71AFF0C4B9B68C3F303130B4AD35C75
:1022B000D8400B4B18600B4B186802F031F9002026
:1022C00070BD012070470120FAE70120F8E70120E6
:1022D000F6E700BF003C0240003802409894000836
:1022E0000800002004000020014B1868704700BF60
:1022F0000800002008B5FFF7F7FF044B9B68C3F305
:102300008223034AD35CD84008BD00BF0038024096
:10231000A894000808B5FFF7E7FF044B9B68C3F3D8
:102320004233034AD35CD84008BD00BF00380240A6
:10233000A89400080F2303600B4B9A6802F0030275
:1023400042609A6802F0F00282609A6802F4E052F9
:10235000C2609B68DB0803F4E0530361034B1B6816
:1023600003F00F030B60704700380240003C02404E
:10237000F0B583B00446066816F001060DD0A74BF1
:102380009A6822F400029A609A68416B0A439A6044
:10239000436B002B00F039810026256815F40025D9
:1023A00011D09E4AD2F88C3023F44013E16B0B43DA
:1023B000C2F88C30E36BB3F5801F00F02881002B4E
:1023C00000F027810025236813F4801F0FD0934A63
:1023D000D2F88C3023F44003216C0B43C2F88C30CC
:1023E000236CB3F5800F00F0168103B90125236833
:1023F00013F0807F00D0012613F0200F40F01081F1
:10240000236813F0100F0CD0844BD3F88C2022F0EB
:102410008072C3F88C20D3F88C20A16B0A43C3F8D8
:102420008C20236813F4804F08D07C4AD2F8903077
:1024300023F44033616E0B43C2F89030236813F4E9
:10244000004F08D0754AD2F8903023F44023A16E93
:102450000B43C2F89030236813F4803F08D06F4AD2
:10246000D2F8903023F44013E16E0B43C2F8903061
:10247000236813F4003F08D0684AD2F8903023F460
:102480004003216F0B43C2F89030236813F0400FD4
:1024900008D0624AD2F8903023F00303616C0B43FA
:1024A000C2F89030236813F0800F08D05B4AD2F84E
:1024B000903023F00C03A16C0B43C2F890302368DA
:1024C00013F4807F08D0554AD2F8903023F03003BF
:1024D000E16C0B43C2F89030236813F4007F08D0FE
:1024E0004E4AD2F8903023F0C003216D0B43C2F85E
:1024F0009030236813F4806F08D0484AD2F89030A7
:1025000023F44073616D0B43C2F89030236813F4D9
:10251000006F08D0414AD2F8903023F44063A16D97
:102520000B43C2F89030236813F4805F08D03B4A15
:10253000D2F8903023F44053E16D0B43C2F8903051
:10254000236813F4005F08D0344AD2F8903023F4A3
:102550004043216E0B43C2F89030236813F4800F80
:1025600008D02E4AD2F8903023F08063A16F0B433D
:10257000C2F89030236813F4001F0DD0274AD2F818
:10258000903023F00063E16F0B43C2F89030E36FAB
:10259000B3F1006F00F0AA80236813F0080F00D099
:1025A000012513F4802F08D01C4AD2F8903023F074
:1025B0004073616F0B43C2F89030236813F4000F2F
:1025C00009D0164AD2F8903023F08053D4F8801006
:1025D0000B43C2F8903026B9236813F0007F00F057
:1025E00005810E4A136823F08063136000F004FB3A
:1025F00006460A4B1B6813F0006F79D000F0FCFA16
:10260000801B6428F5D90320F3E00126C5E60126E6
:10261000D5E60125D7E60126E7E600BF00380240EF
:102620007F4B1A6C42F080521A641B6C03F080538B
:102630000193019B7B4A136843F48073136000F09D
:10264000DBFA0746774B1B6813F4807F06D100F056
:10265000D3FAC01B6428F5D90320CAE0704B1B6F66
:1026600013F4407315D0226B02F440729A4210D0DA
:102670006B4B1A6F22F44072196F41F48031196765
:10268000196F21F4803119671A671B6F13F0010F5E
:1026900012D1236B03F44072B2F5407F1DD0604A23
:1026A000936823F4F81393605D490B6F226BC2F3B8
:1026B0000B0213430B67A3E600F09EFA0746584B44
:1026C0001B6F13F0020FE4D100F096FAC01B41F229
:1026D00088339842F3D903208BE05148826822F472
:1026E000F812514919400A438260DDE7012553E79A
:1026F000236813F0010F13D0636B8BB9484AD2F8EB
:102700008430D2F88410606803F4403343EA8013C5
:1027100001F070610B43A16843EA0173C2F8843091
:10272000236813F4002F03D0E26BB2F5801F06D0AC
:1027300013F4801F1ED0236CB3F5800F1AD1384AD2
:10274000D2F88430D2F88410606803F4403343EA4E
:102750008013E06843EA006301F0E0410B43C2F8F4
:102760008430D2F88C3023F01F03616A01390B43A7
:10277000C2F88C30236813F0807F11D0284AD2F839
:102780008400D2F88410666823691B0443EA861328
:1027900000F07060034301F0E0410B43C2F8843065
:1027A000236813F0007F0DD0626823691B0443EA9D
:1027B0008213E26843EA0263A26843EA0273184A9A
:1027C000C2F88430164A136843F08063136000F047
:1027D00013FA0646124B1B6813F0006F06D100F087
:1027E0000BFA801B6428F5D9032002E0012D02D0EA
:1027F000002003B0F0BD0A4A136823F08053136031
:1028000000F0FAF90546064B1B6813F0005F0DD087
:1028100000F0F2F9401B6428F5D90320E9E700BF76
:102820000038024000700040FFFCFF0F236813F4E3
:10283000002F01D0E26B22B113F4801F1DD0236C56
:10284000DBB9354AD2F88830D2F88810606903F4D1
:10285000403343EA8013A06943EA006301F0E0419A
:102860000B43C2F88830D2F88C3023F4F853A16AB5
:10287000013943EA0123C2F88C30236813F4001FA6
:1028800003D0E36FB3F1006F31D0236813F0080F6A
:1028900019D0214AD2F88810D2F88830606903F440
:1028A000403343EA801301F070610B43E16943EA6E
:1028B0000173C2F88830D2F88C3023F44033E16AD7
:1028C0000B43C2F88C30144A136843F080531360F2
:1028D00000F092F90446104B1B6813F0005F19D109
:1028E00000F08AF9001B6428F5D9032081E70A4A21
:1028F000D2F88800D2F888106569236A1B0443EA7D
:10290000851300F07060034301F0E0410B43C2F80F
:102910008830BAE700206CE70038024000230F2B14
:1029200000F2E480F0B583B03AE0092200E0002232
:10293000AA40324302346E4D45F824206D4A146893
:102940006FEA0C0224EA0C054E6816F4803F01D0B1
:102950004CEA0405674C2560646802EA04054E6889
:1029600016F4003F01D04CEA0405624C6560A4688F
:1029700002EA04054E6816F4801F01D04CEA0405F3
:102980005C4CA560E46822404D6815F4001F01D03E
:102990004CEA0402574CE26001330F2B00F2A48092
:1029A00001229A400C6804EA020C32EA0404F3D1D2
:1029B0004C68651E112C18BF012D01D9122C12D1A3
:1029C00085685E000324B44025EA0405CC68B44061
:1029D0002C438460456825EA02054C68C4F3001264
:1029E0009A402A434260C5684FEA430E032404FA22
:1029F0000EF4E24325EA04058C6804FA0EF42C4335
:102A0000C4604C68122C18BF022C0FD1DD080835A9
:102A100050F8257003F00704A6000F24B44027EAFD
:102A200004070C69B4403C4340F825400468144056
:102A30004A6802F0030202FA0EF2224302604A6878
:102A400012F0805FA8D02C4A546C44F48044546443
:102A5000526C02F480420192019A9C08A51C244AFF
:102A600052F8256003F0030295000F22AA4026EADF
:102A70000206224A90423FF45AAF02F58062904229
:102A800022D002F58062904220D002F5806290420E
:102A90001ED002F5806290421CD002F58062904206
:102AA0001AD002F58062904218D002F580629042FE
:102AB00016D002F58062904214D002F580629042F6
:102AC0003FF433AF0A2233E7012231E702222FE736
:102AD00003222DE704222BE7052229E7062227E718
:102AE000072225E7082223E703B0F0BD704700BFA7
:102AF00000380140003C0140003802400000024024
:102B00000AB181617047090481617047436901EA34
:102B1000030221EA030141EA02418161704790F812
:102B20003530DBB2022B03D0802343650120704790
:102B3000052380F835300268136823F00103136021
:102B40000020704790F835007047000010B582B043
:102B50001B4B1A6C42F080521A641B6C03F08053BA
:102B60000193019B174A136843F48033136000F00C
:102B700043F80446134B5B6813F4803F08D100F020
:102B80003BF8001BB0F57A7FF4D9032002B010BDEA
:102B90000C4A136843F40033136000F02DF8044628
:102BA000084B5B6813F4003F07D100F025F8001BC9
:102BB000B0F57A7FF4D90320E8E70020E6E700BF0C
:102BC000003802400070004008B50320FEF7A4FA68
:102BD000002001F0A5FCFEF77FFA002008BD0000F0
:102BE000034A1168034B1B780B441360704700BF06
:102BF0000402002000000020014B1868704700BF4D
:102C00000402002003689A6912F0020F01D000222A
:102C10009A6203689A6912F0010F03D19A6942F02F
:102C200001029A61704730B4029D046860684FEAFF
:102C3000555C0CF4806C4CF07F7C4CF4583C4CF4AC
:102C40007F7C4CF0030C20EA0C00C1F3090141EA3F
:102C50000241194329430143616030BC70470000C1
:102C6000436B1A4A934215D0194A934212D011F479
:102C7000004F29D1002311F0010F01D043F0F203DE
:102C800011F0020F01D043F0F40320290CD143F0DE
:102C9000200309E011F4004F0BD1002310290AD0C2
:102CA00020290BD040290CD001680A6813430B601F
:102CB0007047B823F2E743F09003F1E743F0600375
:102CC000F0E743F04003EFE7B823D4E7BD3900084D
:102CD0009738000811F0010F09D090F8413003F047
:102CE0002803282B01D0F22302E0422300E0002336
:102CF00011F0020F09D043F0440C90F8412002F08B
:102D00002802282A10D043F0F40311F4004F0DD10B
:102D100010290ED020290FD0402910D001680A6850
:102D200022EA03030B6070476346EEE743F0B80303
:102D3000EEE743F09003EDE743F02003ECE743F0C8
:102D40004003EBE7F8B505460E46174603689B6956
:102D500013F0100F01D10020F8BD2B689C6914F00E
:102D6000200F17D1B6F1FF3FF7D0FFF745FFC01B8B
:102D7000B04201D8002EF0D16B6C43F020036B649D
:102D8000202385F84130002385F8423085F8403013
:102D90000120E1E71022DA612B682024DC6128465B
:102DA000FFF730FF2A68536823F0FF7323F48B3357
:102DB00023F4FF7323F0010353606B6C43F00403AF
:102DC0006B6485F84140002385F8423085F8403037
:102DD0000120C1E72DE9F0410646884617461D4609
:102DE0003468A46938EA04030CBF4FF0010C4FF0BB
:102DF000000CBC4518D1B5F1FF3FF1D0FFF7FCFE48
:102E0000069BC01AA84201D8002DE9D1736C43F08B
:102E100020037364202386F84130002386F8423073
:102E200086F84030012000E00020BDE8F08170B558
:102E300005460C4616462B689B6913F0200F1AD1E5
:102E4000324621462846FFF77DFFB0B9FFF7D4FE92
:102E5000801BA04201D8002CEDD16B6C43F0200305
:102E60006B64202385F84130002385F8423085F8D3
:102E70004030012070BD0020FCE70120FAE770B56A
:102E800004460D46164623689B6913F0040F3ED195
:102E9000324629462046FFF755FF0146002838D123
:102EA00023689A6912F0200F13D1FFF7A5FE801B4B
:102EB000A84201D8002DE6D1636C43F0200363647F
:102EC000202384F84130002384F840300121084653
:102ED00070BD9A6912F0040F02D0228D002AF6D13B
:102EE0002022DA6121684B6823F0FF7323F48B33CF
:102EF00023F4FF7323F001034B600023636484F821
:102F0000412084F8423084F840300121DFE700217D
:102F1000DDE70121DBE70000002857D010B50446AB
:102F200090F84130002B41D0242384F841302268AE
:102F3000136823F0010313606368226823F0706351
:102F400013612268936823F400439360E368012BC4
:102F500031D0A368226843F404439360E368022BF2
:102F60002FD0226851681A4B0B4353602268D368F4
:102F700023F40043D360236962691343A169226883
:102F800043EA0123D360E369216A22680B4313609B
:102F90002268136843F0010313600020606420235B
:102FA00084F84130206384F8420010BD80F840303E
:102FB00001F0C6F9B8E7A368226843F400439360C0
:102FC000CCE723684FF400625A60CAE701207047DB
:102FD000008000022DE9F04182B01D4690F841309A
:102FE000DBB2202B40F0AA8004460F469046002A10
:102FF00018BF002929D090F84030012B00F0A280A2
:10300000012380F84030FFF7F7FD0646222384F8BD
:103010004130202384F84230002262646762A4F8C1
:103020002A80626321684B6823F400434B60009060
:103030002B4608212046FFF7CDFE58B12268536881
:1030400043F400435360012079E04FF4007343647C
:10305000012074E023680822DA6100962B460122E1
:103060004FF480312046FFF7B5FED8B9638D9BB28F
:10307000002B35D0324629462046FFF700FFC0B965
:1030800023685A6A636A1A70636A01336362B4F828
:103090002AC01FFA8CFC0CF1FF3C1FFA8CFCA4F830
:1030A0002AC0E3E72268536843F4004353600120D9
:1030B00045E02268536843F40043536023689A69EB
:1030C00012F0040F0AD05A6A636A1A70636A0133F5
:1030D0006362638D9BB2013B9BB2638501202EE04E
:1030E000324629462046FFF7A2FE30B122685368D7
:1030F00043F400435360012021E023682022DA6179
:1031000000962B4601224FF400412046FFF762FE55
:1031100030B12268536843F40043536001200EE04D
:103120002268536843F400435360202384F84130FD
:10313000002384F8423084F8403000E0022002B0DE
:10314000BDE8F0810220FAE708B590F84130DBB223
:10315000202B01D0022008BD282380F84130044BE9
:1031600043634FF40041FFF77BFD0020F3E700BF0E
:103170001936000808B5036899691A68436B03B1EA
:10318000984708BD7047704738B50446002380F85B
:10319000423090F84130DBB2212B0FD0202380F851
:1031A000413012230363002545630221FFF792FD9E
:1031B00084F840502046FFF7E6FF38BD202380F812
:1031C000413011230363002545630121FFF782FD90
:1031D00084F840502046FFF7D5FFEEE77047704770
:1031E00010B5044603681A68002180F8421012F4F2
:1031F000804F0ED01A6822F480421A6094F8413051
:10320000DBB2292B0DD094F84130DBB22A2B18D039
:1032100010BD12F4004FF1D01A6822F400421A6077
:10322000ECE7282384F84130212323630121204641
:10323000FFF750FD002384F840302046FFF7CEFF13
:10324000E6E7282384F84130222323630221204625
:10325000FFF740FD002384F840302046FFF7BFFF12
:10326000D6E77047F8B5044690F8413003F02803DC
:10327000282B06D003680822DA61002380F840304A
:10328000F8BD03689E69C6F300469A69120C02F005
:10329000FE059A68C2F30902DF6807F0FE07C168FD
:1032A000022922D185EAD21515F0060F10D1816CC2
:1032B00001318164816C0229E2D1002181640820FE
:1032C000D86184F8401031462046FFF7CAFFD7E79F
:1032D0004FF40041FFF7FEFC002384F840303A46EB
:1032E00031462046FFF7BDFFCAE74FF40041FFF724
:1032F000F1FC002384F840302A4631462046FFF78F
:10330000B0FFBDE77047000010B50446174BC3621D
:1033100000230363202280F8412080F84230436379
:1033200011F0040F13D003685A6A436A1A70436A93
:1033300001334362038D53B1013B0385438D9BB23F
:10334000013B9BB24385436C43F00403436448F262
:1033500003012046FFF7BEFC23681022DA61002338
:1033600084F840302046FFF7CDFF10BD0000FFFF7E
:10337000704770477047704708B590F84130DBB22E
:10338000602B06D00023036380F84030FFF7F2FF84
:1033900008BD202380F841300023036380F84030CB
:1033A000FFF7E9FFF4E7000010B5044690F841305C
:1033B000002084F842003B4AE2626085626C0A4366
:1033C0006264283BDBB2022B2DD803212046FFF795
:1033D00081FC282384F84130334B6363236BA26B59
:1033E000002A34D0212B18BF112B30D123681A6842
:1033F00012F4804F03D01A6822F480421A60A06B46
:10340000FFF7A0FB01281ED0A36B284A1A650023F2
:1034100084F84030A06BFFF782FB002840D0A06BFF
:10342000036D98473CE048F203012046FFF752FC49
:1034300094F84130DBB2602B02D0202384F8413075
:1034400000236363CAE72046FFF796FF28E0E26B9C
:103450001AB3222B18BF122B1FD123681A6812F43B
:10346000004F03D01A6822F400421A60E06BFFF7A5
:1034700069FB01280DD0E36B0C4A1A65002384F820
:103480004030E06BFFF74BFB50B1E06B036D9847AA
:1034900006E02046FFF770FF02E02046FFF76CFFD2
:1034A00010BD00BF0000FFFF19360008FF3A0008FA
:1034B00070B504460D460268166890F84130DBB2DC
:1034C0002021D161292B18BF212B5BD02A2B18BFBB
:1034D000222B5ED02268536843F400435360226875
:1034E000536823F0FF7323F48B3323F4FF7323F02B
:1034F000010353602046FFF785FB16F4804F4FD041
:103500002268136823F480431360A36B1BB11B680C
:103510005B689BB2638515F0040F11D025F004059C
:1035200023685A6A636A1A70636A01336362238D7F
:1035300033B1013B2385638D9BB2013B9BB2638515
:10354000638D9BB21BB1636C43F00403636400237F
:1035500084F842306363636C002B31D1E36A13F566
:10356000803F3BD194F84130DBB2222B46D0202360
:1035700084F841300023236384F840302046FFF76D
:103580002DFE3AE048F20101FFF7A4FB212323635B
:10359000A0E748F20201FFF79DFB2223236399E78E
:1035A00016F4004FB7D02268136823F40043136069
:1035B000E36B002BAFD01B685B689BB26385AAE707
:1035C000616C2046FFF7F0FE94F84130DBB2282B07
:1035D00013D129462046FFF797FE0EE02046FFF75D
:1035E000FFFD0C4BE362202384F84130002323636A
:1035F00084F840302046FFF785FE70BD202384F814
:1036000041300023236384F840302046FFF7E7FD74
:10361000F3E700BF0000FFFFF8B5C76A90F840303D
:10362000012B00F09F8004460D461646012380F8CA
:10363000403011F0200F02D012F0200F19D115F0F8
:10364000100F3FD016F0100F3CD0638D9BB243BBE0
:1036500094F84130DBB2282B0ED094F84130DBB225
:10366000292B11D023681022DA61002084F8400051
:10367000F8BDFFF71DFFE2E7B7F1007FEDD1294666
:103680002046FFF741FEF0E717F5803FEAD02368B8
:103690001022DA612046FFF7B5FA2046FFF7A0FDB9
:1036A000E3E723681022DA61636C43F00403636488
:1036B000B7F1807F18BF002FD7D1616C2046FFF78C
:1036C00073FED2E715F0040F1FD016F0040F1CD0C4
:1036D000638D9BB273B123685A6A636A1A70636A16
:1036E00001336362238D013B2385638D9BB2013BD4
:1036F0009BB26385638D9BB2002BB6D117F5803FDB
:10370000B3D02046FFF76CFDAFE715F0080F02D0ED
:1037100016F0080F18D115F0020FA6D016F0020F00
:10372000A3D0638D9BB2A3B1626A236812789A62B8
:10373000636A01336362638D9BB2013B9BB2638515
:10374000238D013B238590E729462046FFF78AFD1C
:103750008BE7002F18BFB7F1807F86D12046FFF797
:103760003FFD82E7022083E730B583B004460D4673
:1037700003682022DA6190F84130DBB2212B33D08C
:1037800090F84130DBB2222B34D02268536823F00A
:10379000FF7323F48B3323F4FF7323F0010353608F
:1037A00000236363A3F58033E36215F0100F06D0A6
:1037B00023681022DA61636C43F00403636494F8B5
:1037C0004130DBB2602B1BD02046FFF71BFA626C46
:1037D00094F84130DBB2602B00D0D2B1616C20464E
:1037E000FFF7E2FD03B030BD0121FFF773FA1123AB
:1037F0002363CAE70221FFF76DFA12232363C4E7AC
:1038000015F0040FE0D023685B6ADBB20193019BE3
:10381000DAE794F84130DBB2212B17D094F841302D
:10382000DBB2222BDED1202384F841300023236336
:1038300094F84230DBB2402B24D0002384F842308D
:1038400084F840302046FFF79EFCCBE7202384F825
:1038500041300023236394F84230DBB2402B08D080
:10386000002384F8423084F840302046FFF78AFC79
:10387000B8E7002384F8423084F840302046FFF750
:1038800077FDAFE7002384F8423084F840302046CB
:10389000FFF76FFDA6E7F8B5C76A90F84030012B37
:1038A00000F08A8004460D461646012380F8403019
:1038B00011F0200F02D012F0200F17D115F0100FC9
:1038C0006BD016F0100F68D0C6F3803216F4804F1C
:1038D00002D116F4004F5CD0E36B53B116F4004FE5
:1038E00009D01B685B6843B3002105E0FFF7E0FDEA
:1038F000E4E7002100E00021A36B1BB112B11B68BB
:103900005B68E3B1D9B923681022DA61636C43F0D4
:103910000403636494F84130DBB2B7F1807F18BFD1
:10392000002F40D1292B18BF212B2BD1212323631A
:10393000616C2046FFF738FD35E00121DCE794F8A3
:103940004130DBB2282B08D094F84130DBB2292B70
:103950000BD023681022DA6125E0B7F1007FF3D1A4
:1039600029462046FFF7D0FC1DE017F5803FF0D038
:1039700023681022DA612046FFF744F92046FFF75A
:103980002FFC10E02A2B18BF222BD1D12223236336
:10399000CEE723681022DA6105E015F0080F02D0A7
:1039A00016F0080F03D1002084F84000F8BD294626
:1039B0002046FFF757FCF6E70220F7E790F8403083
:1039C000012B00F09A8010B582B00446012380F8E4
:1039D000403011F0100F02D012F0100F32D111F060
:1039E000800F60D012F0400F5DD02268136823F082
:1039F00040031360638D9BB2002B46D02368596847
:103A0000C1F30901638D9BB2FF2B2DD9FF232385C1
:103A10004FF080730022009294F828202046FFF790
:103A200002F9638D9BB2228D9B1A9BB2638594F839
:103A30004130DBB2222B22D02268136843F480434A
:103A400013600CE003681022DA61436C43F0040356
:103A500043642021FFF704F92046FFF7D3F8002044
:103A600084F8400002B010BD638D2385E36A13F52E
:103A7000803F01D0E36ACDE74FF00073CAE72268C8
:103A8000136843F400431360E9E723685B6813F0AD
:103A9000007F03D12046FFF777FBE0E74021204677
:103AA000FFF782FCDBE711F0400F1CD012F0400F53
:103AB00019D0638D9BB28BB923685A6812F0007FCE
:103AC000CDD1E26A12F5803F04D15A6842F48042B7
:103AD0005A60C4E72046FFF757FBC0E74021204665
:103AE000FFF762FCBBE711F0200FB8D012F0200FF7
:103AF000B5D02046FFF738FEB1E70220704708B581
:103B0000806B836B0BB100221A65C36B0BB1002273
:103B10001A65FFF731FC08BD90F84130DBB2202B6D
:103B200024D190F84030012B22D0012380F840307E
:103B3000242380F841300268136823F001031360E6
:103B40000268136823F480531360026813681943F2
:103B500011600268136843F001031360202380F8AA
:103B60004130002380F840301846704702207047EB
:103B70000220704790F84130DBB2202B22D190F820
:103B80004030012B20D0012380F84030242380F8DE
:103B900041300268136823F0010313600268136860
:103BA00023F4706343EA012111600268136843F053
:103BB00001031360202380F84130002380F8403057
:103BC000184670470220704702207047034AD2F817
:103BD000883043F47003C2F88830704700ED00E08D
:103BE00010B5044683680269134342691343C269EE
:103BF000134301680868934A024013430B6022682C
:103C0000536823F44053E1680B435360A269236A6D
:103C10001A4321688B6823F4306313438B60236855
:103C2000894A934219D0894A934229D0884A9342BB
:103C30003ED0884A934262D0874A934271D0874AE5
:103C4000934200F08380864A934200F09480854A34
:103C5000934200F0A58010233AE0834BD3F89030D4
:103C600003F00303032B09D8DFE803F00204AE06D8
:103C700001232DE004232BE0082329E0102327E073
:103C8000794BD3F8903003F00C030C2B0ED8DFE8FF
:103C900003F0070D0D0D090D0D0D9D0D0D0D0B0004
:103CA000002315E0042313E0082311E010230FE0A4
:103CB0006D4BD3F8903003F03003202B00F0888058
:103CC00019D8002B00F08680102B40F0858004234B
:103CD000E069B0F5004F00F0AB80082B00F20C81DA
:103CE000DFE813F0E800FB00E6000A01FE000A012D
:103CF0000A010A010101302B70D10823E8E75A4B71
:103D0000D3F8903003F0C003802B69D005D8002B86
:103D100068D0402B68D10423DAE7C02B66D1082392
:103D2000D6E7514BD3F8903003F44073B3F5007FDE
:103D30005ED006D8002B5DD0B3F5807F5CD1042324
:103D4000C6E7B3F5407F59D10823C1E7464BD3F806
:103D5000903003F44063B3F5006F51D006D8002BC8
:103D600050D0B3F5806F4FD10423B1E7B3F5406F66
:103D70004CD10823ACE73C4BD3F8903003F44053CC
:103D8000B3F5005F44D006D8002B43D0B3F5805F75
:103D900042D104239CE7B3F5405F3FD1082397E766
:103DA000314BD3F8903003F44043B3F5004F37D094
:103DB00005D8BBB3B3F5804F36D1042388E7B3F5FC
:103DC000404F33D1082383E7022381E702237FE7B3
:103DD00002237DE700237BE7102379E7102377E7B1
:103DE000022375E7002373E7102371E710236FE7C1
:103DF00002236DE700236BE7102369E7102367E7D1
:103E0000022365E7012363E7102361E710235FE7DF
:103E100002235DE700235BE7102359E7102357E7F0
:103E2000022355E7002353E7102351E710234FE700
:103E3000082B5BD8DFE803F01A343A5A375A5A5A3B
:103E40001E0000BFF369FFEF001001400044004076
:103E500000480040004C0040005000400014014069
:103E600000780040007C004000380240FEF742FA33
:103E700000283DD06268530803EB4000B0FBF2F02D
:103E800080B2A0F110024FF6EF739A4232D820F0C0
:103E90000F03C0F3420018432368D860002030E0CD
:103EA000FEF738FAE4E7FEF717F9E1E71748E1E72C
:103EB000164802E0FEF71EFA00B3636800EB5300F9
:103EC000B0FBF3F080B2A0F110024FF6EF739A420C
:103ED00016D82368D860002013E0FEF71BFAEBE742
:103EE000FEF7FAF8E8E74FF40040E6E7012008E0C3
:103EF000002006E0012004E0012002E0002000E0B4
:103F0000012000236366A36610BD00BF0024F400F7
:103F1000436A13F0010F06D00268536823F400339C
:103F2000816A0B435360436A13F0020F06D00268A4
:103F3000536823F48033C16A0B435360436A13F020
:103F4000040F06D00268536823F48023016B0B43EF
:103F50005360436A13F0080F06D00268536823F4D5
:103F60000043416B0B435360436A13F0100F06D0BC
:103F70000268936823F48053816B0B439360436A18
:103F800013F0200F06D00268936823F40053C16B2E
:103F90000B439360436A13F0400F0AD002685368E2
:103FA00023F48013016C0B435360036CB3F5801F43
:103FB0000BD0436A13F0800F06D00268536823F4D5
:103FC0000023816C0B43536070470268536823F4ED
:103FD000C003416C0B435360EBE72DE9F843054602
:103FE0000F4616469946DDF820802C68E46937EACA
:103FF00004030CBF4FF0010C4FF0000CB4453DD151
:10400000B8F1FF3FF1D0FEF7F7FDA0EB0900404506
:1040100022D8B8F1000F1FD02B681A6812F0040FD5
:10402000E3D0DA6912F4006FDFD04FF400621A6255
:104030002A68136823F4D07313602A68936823F006
:10404000010393602023AB67EB67C5F88030002342
:1040500085F87430032012E02A68136823F4D073C3
:1040600013602A68936823F0010393602023AB67F1
:10407000EB67002385F87430032000E00020BDE8E2
:10408000F8832DE9F04182B01E46836F202B56D174
:1040900004460D469046002A18BF002953D090F8D8
:1040A0007430012B51D0012380F874300023C0F804
:1040B000803021238367FEF79FFD0746A4F85080D8
:1040C000A4F85280A368B3F5805F05D04FF00008D4
:1040D000002384F8743012E0236913B14FF0000814
:1040E000F6E7A8460025F3E715F8012B23689A6246
:1040F000B4F8522092B2013A92B2A4F85220B4F825
:1041000052309BB283B100963B460022802120466C
:10411000FFF763FFD8B9002DE6D138F8023B2268DB
:10412000C3F308039362E3E700963B460022402175
:104130002046FFF752FF60B92023A36700E002206A
:1041400002B0BDE8F0810120FAE70220F8E7032081
:10415000F6E70320F4E710B582B004460023C0F868
:104160008030FEF749FD23681B6813F0080F08D163
:104170002023A367E3670020206684F8740002B060
:1041800010BD6FF07E430093034600224FF40011F0
:104190002046FFF722FF0028EAD00320EFE768B3AC
:1041A00010B50446836F03B32423A3672268136802
:1041B00023F0010313602046FFF712FD012813D0FE
:1041C000636ABBB92268536823F490435360226842
:1041D000936823F02A0393602268136843F0010375
:1041E00013602046FFF7B7FF10BD80F8743000F071
:1041F0005FF9D9E72046FFF78BFEE3E70120704720
:1042000030B58BB000240594069407940894099463
:104210001B4B1A6B42F008021A631A6B02F0080279
:104220000192019A1A6B42F004021A631A6B02F0AF
:1042300004020292029A1A6B42F002021A631A6B8B
:1042400002F002020392039A1A6B42F010021A6300
:104250001B6B03F010030493049B0A4D22460221BA
:104260002846FEF74DFC022305930123069307948D
:10427000089405A92846FEF751FB0BB030BD00BFDE
:10428000003802400010024008B51248124B03608B
:10429000124B4360002383600122C26003614361CB
:1042A0008361C3610362FEF737FE50B900210948FC
:1042B000FFF732FC40B900210648FFF75BFC30B93C
:1042C00008BDFCF77BFEF1E7FCF778FEF3E7FCF7AF
:1042D00075FEF5E7300200200054004059194000F7
:1042E00008B51448144B0360144B4360C02383602B
:1042F0000123C3600023036143618361C3610362DF
:10430000FEF70AFE68B900210A48FFF705FC58B914
:1043100000210848FFF72EFC48B90648FEF714FFB5
:1043200008BDFCF74BFEEEE7FCF748FEF0E7FCF7B4
:1043300045FEF2E77C020020006000405919400071
:1043400010B58AB000230593069307930893099349
:1043500003682A4A934204D0294A934223D00AB0E0
:1043600010BD284C236B43F002032363236B03F03F
:1043700002030193019BC02305931223069301239B
:104380000793032308930423099305A91E48FEF706
:10439000C5FA236C43F400132364236C03F4001365
:1043A0000293029BDBE7174C236B43F00803236364
:1043B000236B03F008030393039B4FF440530593CF
:1043C00012230693012307930323089304230993DD
:1043D00005A90E48FEF7A2FA236C43F0807323640C
:1043E000236C03F080730493049B002205215F205B
:1043F000FCF7A4FE5F20FCF7D7FEB0E700540040B6
:10440000006000400038024000040240000C0240FE
:1044100010B582B0134C2046FEF7ACFE4FF47A7311
:1044200001220DF107012046FEF7D4FD90B90E4C94
:104430009DF807200D49204602F048FE2046FBF774
:10444000E7FE4FF47A7382B221460948FFF719FE5E
:1044500002B010BD6423072206490548FFF711FE8C
:10446000F6E700BF7C02002008020020B09400089C
:10447000C8020020B894000808B50B480B4B036035
:104480004FF4E133436000238360C36003610C2277
:1044900042618361C36103624362FFF780FE00B93A
:1044A00008BDFCF78BFDFBE7C8020020004400407C
:1044B00000B589B0002303930493059306930793F3
:1044C0000268134B9A4202D009B05DF804FB03F571
:1044D000FA331A6C42F400321A641A6C02F4003295
:1044E0000192019A1A6B42F008021A631B6B03F0E7
:1044F00008030293029B6023039302230493032384
:1045000006930723079303A90248FEF707FADBE7A0
:1045100000440040000C024008B5FCF7E7FC08BD71
:1045200000B589B0014600221920FCF707FE1920CA
:10453000FCF73AFE154B5A6C42F001025A645B6C70
:1045400003F001030193019B02A903A8FDF7F2FE0A
:10455000FDF7E0FE43000E48A0FB03239B0C013B4C
:104560000C480D4A026040F2E732C260436000230B
:1045700003618360FDF7E2F818B1012009B05DF82E
:1045800004FB0448FCF738FFF8E700BF003802409E
:1045900083DE1B434C0300200000014000F10803B0
:1045A00043604FF0FF328260C36003610023036009
:1045B000704700230361704743684B609A688A60C4
:1045C000516099600861036801330360704730B43B
:1045D0000D68B5F1FF3F11D000F108031C465B6880
:1045E0001A68AA42FAD963684B6099608C6061606E
:1045F000086103680133036030BC70470469F2E767
:104600000369416882688A60416851605A688242E1
:1046100006D0002202611A68013A1A6018687047D1
:1046200082685A60F5E710B5044601F03BFDA26BC5
:10463000E36B9A4204D0002401F05AFD204610BDDD
:104640000124F9E710B5044601F02CFDA36B23B952
:10465000012401F04DFD204610BD0024F9E770B59E
:1046600004461546866B026C5AB903681BB10020DC
:104670000136A66370BD806801F020F80023A360B6
:10468000F6E76DB9406801F0DBFF226C6368134404
:104690006360A268934219D3236863602846E7E702
:1046A000C06801F0CDFF226C5142E3689B1AE360C1
:1046B0002268934202D2A3680B44E360022D01D02A
:1046C0000020D5E726B1013E0020D1E72846CFE7FC
:1046D0000020CDE70346026C6AB110B50846D968E0
:1046E0001144D9609C68A14201D31968D960D96886
:1046F00001F0A6FF10BD704738B5054601F0D2FCA9
:1047000095F8454064B201E0013C64B2002C0ADD3A
:104710006B6A43B105F1240000F020FF0028F3D0BC
:1047200000F0B6FFF0E7FF2385F8453001F0E0FC2C
:1047300001F0B8FC95F8444064B201E0013C64B279
:10474000002C0ADD2B6943B105F1100000F006FFD3
:104750000028F3D000F09CFFF0E7FF2385F84430F9
:1047600001F0C6FC38BD38B5E0B10D46044601F095
:1047700099FC2368E26B216C01FB0230A0600020F1
:10478000A0636360013A02FB0133E360FF2384F816
:10479000443084F845300DBB236973B901F0A8FC9F
:1047A000012038BD4FF0500372B683F31188BFF378
:1047B0006F8FBFF34F8F62B6FEE704F1100000F079
:1047C000CDFE0028EAD04FF0E0234FF08052C3F82E
:1047D000042DBFF34F8FBFF36F8FDFE704F110009D
:1047E000FFF7DCFE04F12400FFF7D8FED6E738B56A
:1047F0001D46049C0B4649B92460E06323640121F3
:104800002046FFF7B0FF84F84C5038BD2260F4E733
:1048100050B94FF0500372B683F31188BFF36F8F16
:10482000BFF34F8F62B6FEE710B584B01C4693B15C
:104830000B1E18BF0123002A08BF43F00103ABB9C8
:104840004FF0500372B683F31188BFF36F8FBFF33D
:104850004F8F62B6FEE74FF0500372B683F31188B4
:10486000BFF36F8FBFF34F8F62B6FEE7B1FA81F3EC
:104870005B09002A18BF43F0010353B94FF05003FE
:1048800072B683F31188BFF36F8FBFF34F8F62B699
:10489000FEE750230393039B502B0AD04FF05003A5
:1048A00072B683F31188BFF36F8FBFF34F8F62B679
:1048B000FEE7039B012384F8463000949DF81830EE
:1048C000FFF795FF204604B010BDF0B585B001920A
:1048D00098B10F461D460446D1B1022D26D1E36B97
:1048E000012B23D04FF0500372B683F31188BFF32E
:1048F0006F8FBFF34F8F62B6FEE74FF0500372B673
:1049000083F31188BFF36F8FBFF34F8F62B6FEE75B
:10491000036C002BE1D04FF0500372B683F3118883
:10492000BFF36F8FBFF34F8F62B6FEE700F0B6FEA6
:10493000064668B9019B002B4AD04FF0500372B66F
:1049400083F31188BFF36F8FBFF34F8F62B6FEE71B
:1049500000263DE02A4639462046FFF780FE636A7E
:104960007BB948B14FF0E0234FF08052C3F8042DDB
:10497000BFF34F8FBFF36F8F01F0BAFB012005B07B
:10498000F0BD04F1240000F0E9FD0028F4D04FF060
:10499000E0234FF08052C3F8042DBFF34F8FBFF3D5
:1049A0006F8FE9E701F0A4FB0020E8E702A800F020
:1049B0001DFE012619E0002384F8443021E0002385
:1049C00084F8453023E02046FFF796FE00F09CFC7B
:1049D00001F068FBA26BE36B9A42BBD3022DB9D006
:1049E000019B002BDED0002EE0D001F081FB00F017
:1049F000EFFB01F057FB94F8442052B2B2F1FF3FB5
:104A0000D9D094F8452052B2B2F1FF3FD7D001F08F
:104A10006FFB01A902A800F0F5FDD8B92046FFF709
:104A200002FE0028CFD0019904F1100000F05EFDD5
:104A30002046FFF761FE00F067FC0028C8D14FF068
:104A4000E0234FF08052C3F8042DBFF34F8FBFF324
:104A50006F8FBDE72046FFF74FFE00F055FC0020AA
:104A60008DE72DE9F843A0B10F4616461C460546D2
:104A7000D1B1022C26D1EB6B012B23D04FF0500388
:104A800072B683F31188BFF36F8FBFF34F8F62B697
:104A9000FEE74FF0500372B683F31188BFF36F8FB8
:104AA000BFF34F8F62B6FEE7036C002BE1D04FF0EF
:104AB000500372B683F31188BFF36F8FBFF34F8F2C
:104AC00062B6FEE701F0F4FBEFF311894FF05003FB
:104AD00072B683F31188BFF36F8FBFF34F8F62B647
:104AE000AA6BEB6B9A4206D3022C04D0002089F308
:104AF0001188BDE8F88395F845804FFA88F822467A
:104B000039462846FFF7ABFDB8F1FF3F06D008F164
:104B100001035BB285F845300120E8E76B6A0BB909
:104B20000120E4E705F1240000F018FD18B126B1DA
:104B300001203060DBE70120D9E70120D7E7F0B59D
:104B400085B00192A0B10F460446E1B100F0A6FD88
:104B5000064630BB019B002B64D04FF0500372B669
:104B600083F31188BFF36F8FBFF34F8F62B6FEE7F9
:104B70004FF0500372B683F31188BFF36F8FBFF30A
:104B80004F8F62B6FEE7036C002BDFD04FF050036F
:104B900072B683F31188BFF36F8FBFF34F8F62B686
:104BA000FEE700263EE039462046FFF793FD013D33
:104BB000A563236923B901F09BFA012005B0F0BD7C
:104BC00004F1100000F0CAFC0028F4D04FF0E023FC
:104BD0004FF08052C3F8042DBFF34F8FBFF36F8F98
:104BE000E9E701F085FA0020E8E702A800F0FEFC02
:104BF000012621E0002384F8443029E0002384F8D2
:104C000045302BE02046FFF777FD00F07DFB09E003
:104C10002046FFF771FD00F077FB2046FFF712FDFD
:104C200000283FD101F03EFAA56B002DBBD1019BBE
:104C3000002BD6D0002ED8D001F05AFA00F0C8FAD6
:104C400001F030FA94F844305BB2B3F1FF3FD1D0B9
:104C500094F845305BB2B3F1FF3FCFD001F048FA92
:104C600001A902A800F0CEFC0028D1D12046FFF710
:104C7000E9FC0028C6D0019904F1240000F036FCBC
:104C80002046FFF739FD00F03FFB0028CAD14FF066
:104C9000E0234FF08052C3F8042DBFF34F8FBFF3D2
:104CA0006F8FBFE7002089E70023072B0CD8074A46
:104CB00052F833200AB10133F7E7044A42F83310BF
:104CC00002EBC30358607047704700BF9803002091
:104CD00070B504460D46164601F0E4F994F84430E8
:104CE0005BB2B3F1FF3F0DD094F845305BB2B3F146
:104CF000FF3F0BD001F0FCF9A36B5BB12046FFF73F
:104D0000FBFC70BD002384F84430EDE7002384F8F9
:104D10004530EFE73246294604F1240000F000FC5C
:104D2000ECE70000084B1B681B6823B9074B4FF0EA
:104D3000FF321A607047044B1B68DB68DB685A68F7
:104D4000024B1A60704700BFDC0300208808002077
:104D50002DE9F04780460D4617469946089EDDF836
:104D600024A00A9C9200A521206B01F077FC236B04
:104D70006FF040423A4403EB820727F00707B5B3D0
:104D80004FF0000CBCF10F0F0BD815F80C2004EB02
:104D90000C0383F8342015F80C3013B10CF1010C1E
:104DA000F0E7002384F84330372E00D93726E66237
:104DB000E66400252565201DFFF7FBFB04F11800C4
:104DC000FFF7F7FB2461C6F13806A66164626565EA
:104DD00084F858504A464146384601F039F9206077
:104DE000BAF1000F01D0CAF80040BDE8F0870023F7
:104DF00084F83430D8E7000038B5002407E004EB2D
:104E0000840293000E481844FFF7C8FB0134372C86
:104E1000F5D90C4D2846FFF7C1FB0B4C2046FFF798
:104E2000BDFB0A48FFF7BAFB0948FFF7B7FB094883
:104E3000FFF7B4FB084B1D60084B1C6038BD00BF7A
:104E4000E40300205C080020700800209008002087
:104E5000BC080020A8080020DC030020E00300209C
:104E600010B5044601F01EF9224A1368013313609D
:104E7000214B1B685BB1214B1B686BB91E4B1B6838
:104E8000DA6AE36A9A4207D81B4B1C6004E01A4BAB
:104E90001C601368012B29D0194A13680133136071
:104EA0006364E06A174B1B68984201D9154B186080
:104EB00000EB8000211D144B03EB8000FFF77CFB0F
:104EC00001F016F90D4B1B687BB10B4B1B68DA6ABE
:104ED000E36A9A4209D24FF0E0234FF08052C3F8C0
:104EE000042DBFF34F8FBFF36F8F10BDFFF784FF0B
:104EF000D2E700BF44080020D8030020A408002007
:104F00005408002058080020E403002010B504468F
:104F100090F8593073B1012B13D0022B10D04FF001
:104F2000500372B683F31188BFF36F8FBFF34F8FB7
:104F300062B6FEE7006B01F00DF8204601F00AF8BA
:104F400010BD01F007F8FBE70F4B1B68D3B110B59C
:104F500001F0A8F80D4BDB68DC68201DFFF750FB63
:104F60000B4A1368013B1360074A1368013B136047
:104F700001F0BEF82046FFF7C9FF034B1B68002B6A
:104F8000E6D110BD704700BF48080020BC080020D3
:104F90004408002008B5FFF7D7FF074B1B68012B1B
:104FA000F9D94FF0E0234FF08052C3F8042DBFF33E
:104FB0004F8FBFF36F8FEEE7E403002070B5044618
:104FC0000D46194B1E68194B18680430FFF718FB83
:104FD000B4F1FF3F14BF00230123002D08BF0023BD
:104FE0006BB93444114B1B685C60A6420ED9104B60
:104FF00018680E4B19680431FFF7E9FA70BD0B4BC6
:10500000196804310B48FFF7D7FAF7E70A4B18681D
:10501000064B19680431FFF7DAFA084B1B68A34204
:10502000ECD9064B1C60E9E7D0080020D80300202B
:10503000E0030020A8080020DC03002088080020EE
:1050400030B587B00B9C8CB10C9DD5B15C25049517
:10505000049D5C2D20D04FF0500372B683F311886D
:10506000BFF36F8FBFF34F8F62B6FEE74FF0500371
:1050700072B683F31188BFF36F8FBFF34F8F62B6A1
:10508000FEE74FF0500372B683F31188BFF36F8FC2
:10509000BFF34F8F62B6FEE7049D0C9D2C63022484
:1050A00085F8594000240394029505AC01940A9CAC
:1050B0000094FFF74DFE0C98FFF7D2FE059807B05D
:1050C00030BD2DE9F04385B00746884614461E469C
:1050D000900000F0C3FE00B381465C2000F0BEFEED
:1050E0000546B0B1C0F83090E5B1002385F85930DD
:1050F000039302950D9B01930C9B0093334622462C
:1051000041463846FFF724FE2846FFF7A9FE012056
:1051100005E0484600F01EFFE6E74FF0FF3005B01F
:10512000BDE8F0834FF0FF30F9E7000010B588B01C
:1051300000240594069407AA06A905A800F012FE0B
:10514000059B0293069B019300942346079A1A49F4
:105150001A48FFF775FF1A4B186040B100F06AFB60
:10516000012806D0B0F1FF3F1AD008B010BD0020D2
:10517000F6E74FF0500372B683F31188BFF36F8FD9
:10518000BFF34F8F62B60F4B4FF0FF321A600E4BDA
:1051900001221A600D4B00221A6001F01FF8E4E7AB
:1051A0004FF0500372B683F31188BFF36F8FBFF3D4
:1051B0004F8F62B6FEE700BFC0940008954F00080D
:1051C0008408002088080020A4080020D0080020BF
:1051D000024A136801331360704700BF5008002073
:1051E000014B1868704700BFD0080020F8B53B4B52
:1051F0001B68002B66D13A4B1D6801351D60D5B97F
:10520000384B1B681B6853B14FF0500372B683F3E1
:105210001188BFF36F8FBFF34F8F62B6FEE7314A3D
:105220001168314B186810601960304A13680133F7
:105230001360FFF777FD2E4B1B68AB4238D9002770
:105240002C4B1B68DB6A03EB83039A002A4B9B58A9
:10525000012B3CD901273AE00127224B1B681B6830
:1052600043B3204B1B68DB68DC6863689D4226D330
:10527000261D3046FFF7C4F9A36A1BB104F11800DC
:10528000FFF7BEF9E36A1D4A1268934201D91B4A2F
:10529000136003EB83039A00314617481044FFF76D
:1052A0008BF9E26A134B1B68DB6A9A42D4D2D4E7CB
:1052B0000027D2E70E4B4FF0FF321A60C0E70C4ACE
:1052C0001360BDE70E4A13680133136000270D4BCE
:1052D0001B6803B101273846F8BD00BF5008002005
:1052E000D0080020DC030020E00300208C08002010
:1052F00088080020D8030020E4030020580800207C
:105300004C080020D408002038B5364B1B6853B930
:105310004FF0500372B683F31188BFF36F8FBFF362
:105320004F8F62B6FEE700F0BDFE2E4B1A68013AC1
:105330001A601B68002B4FD12B4B1B680BB9002444
:105340004BE00024294B1B681BB3284BDB68DC684F
:1053500004F11800FFF754F9251D2846FFF750F90E
:10536000E06A234B1B68984201D9214B186000EB7F
:10537000800029461F4B03EB8000FFF71DF9E26A0E
:105380001D4B1B68DB6A9A42DCD31C4B01221A605E
:10539000D8E70CB1FFF7C6FC194B1C6884B9174B52
:1053A0001C68D4B14FF0E0234FF08052C3F8042DB5
:1053B000BFF34F8FBFF36F8F01240EE0013C07D086
:1053C000FFF714FF0028F9D00C4B01221A60F5E713
:1053D0000B4B00221A60E2E7002400F089FE204611
:1053E00038BD00BF5008002044080020900800206D
:1053F00058080020E4030020D8030020D40800202F
:105400004C08002010B5B8B10446114B1B6853B1CD
:105410004FF0500372B683F31188BFF36F8FBFF361
:105420004F8F62B6FEE7FFF7D3FE00212046FFF75D
:10543000C5FDFFF769FF48B94FF0E0234FF08052F8
:10544000C3F8042DBFF34F8FBFF36F8F10BD00BFA4
:1054500050080020204B1B681BB1204B01221A6012
:1054600070471E4B00221A601D4B1B6803EB830123
:105470008A001C498A586AB90BB1013BF6E74FF024
:10548000500372B683F31188BFF36F8FBFF34F8F52
:1054900062B6FEE703EB830082000A44506840686E
:1054A000506003EB830C4FEA8C02083211448842AF
:1054B0000BD003EB830291000A4A0A445268D16878
:1054C000094A1160064A13607047406862469100BD
:1054D000044A0A445060ECE750080020D408002039
:1054E00058080020E4030020D803002058B110B56C
:1054F0000C460A4A11681831FFF769F80121204665
:10550000FFF75CFD10BD4FF0500372B683F31188B6
:10551000BFF36F8FBFF34F8F62B6FEE7D803002053
:1055200038B570B10D4614460B4A11681831FFF7B3
:1055300043F80CB14FF0FF3521462846FFF73EFDFA
:1055400038BD4FF0500372B683F31188BFF36F8FED
:10555000BFF34F8F62B6FEE7D803002038B5C368AB
:10556000DC6824B304F118052846FFF749F8194B05
:105570001B683BBB251D2846FFF742F8E06A164B27
:105580001B68984201D9144B186000EB8000294633
:10559000124B03EB8000FFF70FF8E26A104B1B6819
:1055A000DB6A9A4213D901200E4B186038BD4FF0C8
:1055B000500372B683F31188BFF36F8FBFF34F8F21
:1055C00062B6FEE729460848FEF7F6FFE5E7002049
:1055D000ECE700BF5008002058080020E40300203A
:1055E000D8030020D408002090080020034B1B683B
:1055F0000360034B1B684360704700BF8C080020AA
:10560000D0080020F8B5C8B10C46054609B300F033
:1056100049FD1D4B19686B68C81A2268B2F1FF3F3B
:105620002AD01A4E36682F68B74201D08B4228D94B
:10563000824219D80023236001241EE04FF050035A
:1056400072B683F31188BFF36F8FBFF34F8F62B6CB
:10565000FEE74FF0500372B683F31188BFF36F8FEC
:10566000BFF34F8F62B6FEE75B1A134423602846F0
:10567000FFF7BCFF002400E0002400F039FD2046C5
:10568000F8BD0124F9E700BFD00800208C080020F5
:10569000014B01221A607047D4080020054B1B689B
:1056A00033B1054B1B680BB10020704702207047D7
:1056B00001207047A40800205008002000283FD097
:1056C00038B50446204B1B6883420AD04FF0500384
:1056D00072B683F31188BFF36F8FBFF34F8F62B63B
:1056E000FEE7036D53B94FF0500372B683F3118890
:1056F000BFF36F8FBFF34F8F62B6FEE7013B0365C9
:10570000C16AC26C91421DD00BB1002038BD051D8D
:105710002846FEF775FFE06CE062C0F13803A36134
:105720000A4B1B68984201D9084B186000EB8000B7
:105730002946074B03EB8000FEF73EFF0120E5E71B
:10574000002070470020E1E7D8030020580800201F
:10575000E4030020064B1A6813682BB90123036089
:1057600023B9D368186870470023F8E70020704712
:10577000D808002008B54160006191420CD8D21AC7
:1057800083699A4201D3012008BD011D0B4B1868A3
:10579000FEF71DFF0020F7E79A422CBF00220122EE
:1057A000994238BF00220AB10120EDE7011D044BE8
:1057B0001868FEF70CFF0020E6E700BFDC080020B9
:1057C000D808002030B583B000F06CFC114B1B688A
:1057D0001BB100F08DFC03B030BD0F4D2846FEF725
:1057E000DDFE0E4C2046FEF7D9FE0D4B1D600D4B25
:1057F0001C60002300930C4B0C4A10210A20FFF779
:1058000007F8044B18600028E3D00949FFF74CFA69
:10581000DFE700BFFC090020800900209409002078
:10582000D8080020DC080020AC090020E008002097
:10583000C894000810B588B0FFF7C4FF134B1B686D
:10584000CBB100240594069407AA06A905A800F088
:1058500095FA059B0293069B01930223009323462E
:10586000079A0B490B48FFF7EBFB0B4B186010B185
:10587000012008B010BD4FF0500372B683F31188B9
:10588000BFF36F8FBFF34F8F62B6FEE7FC090020B6
:10589000D0940008B55B0008000A0020B8B19C460F
:1058A00003461948006868B300B585B000910192BD
:1058B000029305291EDCFFF7F1FE022812D0002317
:1058C0001A46694610480068FEF7FFFF17E04FF0E0
:1058D000500372B683F31188BFF36F8FBFF34F8FFE
:1058E00062B6FEE70023069A694607480068FEF79D
:1058F000ECFF04E0002362466946FFF7B2F805B00A
:105900005DF804FB00207047FC09002070B582B0F0
:105910001C4B1B681A6872B3DB681E68DC68251DA7
:105920002846FEF76DFE236A2046984794F82830F3
:1059300013F0040FECD0A36933449E4207D2636096
:10594000246129460F4B1868FEF741FEE0E700216D
:1059500000910B4632462046FFF7A0FF0028D7D122
:105960004FF0500372B683F31188BFF36F8FBFF30C
:105970004F8F62B6FEE7044A106802490860136060
:1059800002B070BDD8080020DC08002038B50546FC
:10599000FFF726FC0446074B1B68834205D800230B
:1059A0002B60044B1C60204638BDFFF7AFFF01237E
:1059B0002B60F6E7A809002070B582B006460D46B8
:1059C00018490968C968CC68201DFEF719FE94F8CB
:1059D00028C01CF0040F08D12CF0010C84F828C05A
:1059E000236A2046984702B070BDA16933462A4613
:1059F00031442046FFF7BEFE0028F1D0002100917F
:105A00000B4632462046FFF749FF0028E8D14FF009
:105A1000500372B683F31188BFF36F8FBFF34F8FBC
:105A200062B6FEE7D808002070B582B006460C4684
:105A3000FFF7CEFB01A8FFF7A9FF019B3BBB054683
:105A4000B04228BF002C19D024B1134A1268126842
:105A5000DAB901242246711B104B1868FFF738F998
:105A6000FFF752FCA8B94FF0E0234FF08052C3F883
:105A7000042DBFF34F8FBFF36F8F0AE0FFF744FC95
:105A800029463046FFF798FF03E01C46E2E7FFF7A0
:105A90003BFC02B070BD00BFDC080020FC09002008
:105AA00010B588B002E0049B002B0FDA002204A995
:105AB0003F4B1868FFF743F8002877D0049B002B72
:105AC000F1DA07990698059B9847ECE7069C63690D
:105AD00013B1201DFEF794FD03A8FFF757FF049BA9
