:020000040800F2
:1000000000000520C11F000853070008550700081D
:1000100057070008590700085B07000800000000A8
:100020000000000000000000000000005D07000864
:100030005F07000800000000610700086307000870
:1000400011200008112000081120000811200008CC
:1000500011200008112000081120000811200008BC
:1000600011200008112000081120000811200008AC
:10007000112000081120000811200008112000089C
:10008000112000081120000811200008112000088C
:10009000112000081120000811200008112000087C
:1000A000112000081120000811200008112000086C
:1000B000112000081120000811200008112000085C
:1000C000112000081120000811200008112000084C
:1000D000112000081120000811200008112000083C
:1000E000112000081120000811200008112000082C
:1000F000112000081120000811200008112000081C
:10010000112000081120000811200008112000080B
:1001100011200008112000081120000811200008FB
:1001200011200008112000081120000811200008EB
:1001300011200008112000081120000811200008DB
:1001400011200008112000081120000811200008CB
:1001500011200008112000081120000811200008BB
:1001600011200008112000081120000811200008AB
:1001700011200008112000081120000800000000D4
:10018000112000081120000811200008112000088B
:10019000112000081120000811200008112000087B
:1001A000112000081120000811200008112000086B
:1001B000112000081120000811200008112000085B
:0801C0001120000811200008C5
:1001C80010B5054C237833B9044B13B10448AFF389
:1001D80000800123237010BD0C00002000000000E7
:1001E8006C20000808B5034B1BB103490348AFF363
:1001F800008008BD00000000100000206C200008EE
:10020800034613F8012B002AFBD1181A013870474E
:1002180053B94AB9002908BF00281CBF4FF0FF3165
:100228004FF0FF3000F074B9ADF1080C6DE904CE61
:1002380000F006F8DDF804E0DDE9022304B07047B9
:100248002DE9F047089D04468E46002B4DD18A4281
:10025800944669D9B2FA82F252B101FA02F3C2F1B4
:10026800200120FA01F10CFA02FC41EA030E944045
:100278004FEA1C48210CBEFBF8F61FFA8CF708FB66
:1002880016E341EA034306FB07F199420AD91CEB3E
:10029800030306F1FF3080F01F81994240F21C8170
:1002A800023E63445B1AA4B2B3FBF8F008FB1033B8
:1002B80044EA034400FB07F7A7420AD91CEB0404ED
:1002C80000F1FF3380F00A81A74240F207816444BD
:1002D800023840EA0640E41B00261DB1D440002342
:1002E800C5E900433146BDE8F0878B4209D9002DA6
:1002F80000F0EF800026C5E9000130463146BDE830
:10030800F087B3FA83F6002E4AD18B4202D3824299
:1003180000F2F980841A61EB030301209E46002D48
:10032800E0D0C5E9004EDDE702B9FFDEB2FA82F29D
:10033800002A40F09280A1EB0C014FEA1C471FFAFB
:100348008CFE0126200CB1FBF7F307FB131140EAE2
:1003580001410EFB03F0884208D91CEB010103F1AF
:10036800FF3802D2884200F2CB804346091AA4B271
:10037800B1FBF7F007FB101144EA01440EFB00FE45
:10038800A64508D91CEB040400F1FF3102D2A645AA
:1003980000F2BB800846A4EB0E0440EA03409CE749
:1003A800C6F12007B34022FA07FC4CEA030C20FAF6
:1003B80007F401FA06F31C43F9404FEA1C4900FA16
:1003C80006F3B1FBF9F8200C1FFA8CFE09FB181193
:1003D80040EA014108FB0EF0884202FA06F20BD906
:1003E8001CEB010108F1FF3A80F08880884240F256
:1003F8008580A8F102086144091AA4B2B1FBF9F09A
:1004080009FB101144EA014100FB0EFE8E4508D994
:100418001CEB010100F1FF346CD28E456AD9023819
:10042800614440EA0840A0FB0294A1EB0E01A142FE
:10043800C846A64656D353D05DB1B3EB080261EB6C
:100448000E0101FA07F722FA06F3F1401F43C5E946
:10045800007100263146BDE8F087C2F12003D8407C
:100468000CFA02FC21FA03F3914001434FEA1C47BE
:100478001FFA8CFEB3FBF7F007FB10360B0C43EAB0
:10048800064300FB0EF69E4204FA02F408D91CEB60
:10049800030300F1FF382FD29E422DD9023863445E
:1004A8009B1B89B2B3FBF7F607FB163341EA0341FE
:1004B80006FB0EF38B4208D91CEB010106F1FF384D
:1004C80016D28B4214D9023E6144C91A46EA004644
:1004D80038E72E46284605E70646E3E61846F8E6D6
:1004E8004B45A9D2B9EB020864EB0C0E0138A3E71F
:1004F8004646EAE7204694E74046D1E7D0467BE700
:10050800023B614432E7304609E76444023842E777
:10051800704700BF401A704700B58FB001AC144D4A
:100528000FCD0FC42B682370212200210DF1150077
:1005380001F090FD02210F4801F00AF9FA2108465E
:1005480000F001F904464FF4FA714FF47A70FFF79E
:10055800E1FF204401F04AF901A8FFF751FE4FF4EA
:100568007A7382B201A9044801F067FCE2E700BF90
:1005780084200008001002407400002030B589B0C3
:10058800002403940494059406940794164B1A6B5C
:1005980042F001021A631A6B02F001020092009AFB
:1005A8001A6B42F002021A631A6B02F002020192FD
:1005B800019A1A6B42F010021A631B6B03F01003C6
:1005C8000293029B094D22460221284601F0BAF8FF
:1005D80002230393012304930594069403A9284650
:1005E80000F0BEFF09B030BD0038024000100240E4
:1005F80072B6FEE708B50B480B4B03604FF4E133C6
:10060800436000238360C36003610C2242618361FD
:10061800C3610362436201F09EFC00B908BDFFF7A5
:10062800E7FF00BF740000200010014008B5114822
:10063800114B0360114B4360002383600122C260A9
:10064800036143618361C361036201F0E3F850B958
:100658000021084801F03CF938B90021054801F0AB
:1006680065F920B908BDFFF7C3FFFFF7C1FFFFF722
:10067800BFFF00BF28000020005400401A061000E9
:1006880010B5B4B03022002128A801F0E3FC002402
:10069800239424942594269427948422214602A8FE
:1006A80001F0D8FC1E4B1A6C42F080521A641B6C85
:1006B80003F080530093009B1A4A136823F44043C5
:1006C80043F480431360136803F440430193019B90
:1006D8000223289301232B9310232C932E9428A8CC
:1006E80000F020F9B0B90F2323930021249125911C
:1006F8002691279123A800F081FB68B944F24003B2
:100708000293002313931B9302A800F053FC28B90B
:1007180034B010BDFFF76CFFFFF76AFFFFF768FF03
:10072800003802400070004008B501F041F8FFF7BA
:10073800A7FFFFF723FFFFF75DFFFFF777FFFFF73F
:10074800EBFE002008BD08447047FEE7FEE7FEE721
:10075800FEE7FEE770477047704708B501F034F8C8
:1007680008BD000082B00A4B1A6C42F080521A642D
:100778001A6C02F080520092009A5A6C42F480423D
:100788005A645B6C03F480430193019B02B0704789
:100798000038024010B588B00023039304930593F2
:1007A800069307930268134B9A4201D008B010BD14
:1007B800114C236B43F002032363236B03F0020302
:1007C8000193019BC02303931223049301230593F0
:1007D800032306930423079303A9084800F0C0FEE7
:1007E800236C43F400132364236C03F40013029373
:1007F800029BDBE70054004000380240000402403E
:1008080000B589B0002303930493059306930793D7
:10081800026803F1804303F588339A4202D009B095
:100828005DF804FB03F594335A6C42F010025A64E5
:100838005A6C02F010020192019A1A6B42F00102FE
:100848001A631B6B03F001030293029B4FF4C0630E
:10085800039302230493032306930723079303A90F
:10086800014800F07DFEDAE7000002400649CB6847
:1008780023F4E0631B041B0C000200F4E060034354
:10088800024A1A43CA60704700ED00E00000FA050A
:1008980000B5174BDB68C3F30223C3F1070CBCF1A7
:1008A800040F28BF4FF0040C03F1040EBEF1060F2D
:1008B80014D9033B4FF0FF3E0EFA0CFC21EA0C0161
:1008C80099400EFA03F322EA03031943002807DBD1
:1008D8000901C9B2074B19545DF804FB0023E9E785
:1008E80000F00F000901C9B2034B1954F4E700BF27
:1008F80000ED00E000E400E014ED00E00138B0F1A4
:10090800807F0BD24FF0E0235861054AF02182F82E
:1009180023100020986107221A6170470120704750
:1009280000ED00E0002800F0FF8170B582B00446B9
:10093800036813F0010F29D0954B9B6803F00C0353
:10094800042B1AD0924B9B6803F00C03082B0FD092
:100958006368B3F5803F40D0002B54D18C4B1A68A4
:1009680022F480321A601A6822F480221A6039E070
:10097800874B5B6813F4800FEAD0854B1B6813F430
:10098800003F03D06368002B00F0D081236813F088
:10099800020F74D07E4B9B6813F00C0F5ED07C4B1B
:1009A8009B6803F00C03082B53D0E368002B00F07E
:1009B8008980774A136843F00103136000F010FF41
:1009C8000546734B1B6813F0020F72D100F008FF45
:1009D800401B0228F5D90320ADE16D4A136843F4A2
:1009E8008033136063682BB300F0FAFE0546684B4A
:1009F8001B6813F4003FC9D100F0F2FE401B6428C5
:100A0800F5D9032097E1B3F5A02F09D0604B1A68F8
:100A180022F480321A601A6822F480221A60E1E710
:100A28005B4B1A6842F480221A601A6842F48032DA
:100A38001A60D7E700F0D4FE0546554B1B6813F43F
:100A4800003FA3D000F0CCFE401B6428F5D903205A
:100A580071E14F4B5B6813F4800FA6D14C4B1B68B8
:100A680013F0020F03D0E368012B40F06181484A7C
:100A7800136823F0F803216943EAC103136023686C
:100A880013F0080F46D0636983B3414A536F43F0AC
:100A98000103536700F0A4FE05463D4B5B6F13F05E
:100AA800020F37D100F09CFE401B0228F5D9032025
:100AB80041E1374A136823F0F803216943EAC10387
:100AC8001360DCE7324A136823F00103136000F077
:100AD80087FE05462E4B1B6813F0020FCFD000F09F
:100AE8007FFE401B0228F5D9032024E1284A536FD2
:100AF80023F00103536700F073FE0546244B5B6F38
:100B080013F0020F06D000F06BFE401B0228F5D947
:100B1800032010E1236813F0040F7DD01C4B1B6CDD
:100B280013F0805F1ED11A4B1A6C42F080521A647F
:100B38001B6C03F080530193019B0125154B1B6827
:100B480013F4807F10D0A368012B25D0002B3BD154
:100B58000F4B1A6F22F001021A671A6F22F0040273
:100B68001A671EE00025E9E70A4A136843F4807310
:100B7800136000F035FE0646064B1B6813F4807FB1
:100B8800E1D100F02DFE801B6428F5D90320D2E0C6
:100B980000380240007000406E4A136F43F00103B2
:100BA8001367A36833B300F01BFE0646694B1B6F3F
:100BB80013F0020F2FD100F013FE801B41F288338F
:100BC8009842F3D90320B6E0052B09D0614B1A6F80
:100BD80022F001021A671A6F22F004021A67E0E78E
:100BE8005C4B1A6F42F004021A671A6F42F0010256
:100BF8001A67D6E700F0F4FD0646564B1B6F13F054
:100C0800020F08D000F0ECFD801B41F288339842B7
:100C1800F3D903208FE0FDB9A369002B00F08A8087
:100C28004C4A926802F00C02082A58D0022B19D0BC
:100C3800484A136823F08073136000F0D1FD04461E
:100C4800444B1B6813F0007F47D000F0C9FD001B20
:100C58000228F5D903206EE03E4A136C23F0805336
:100C68001364D9E73B4A136823F08073136000F0DC
:100C7800B7FD0546374B1B6813F0007F06D000F020
:100C8800AFFD401B0228F5D9032054E0E369226A2E
:100C98001343626A43EA8213A26A5208013A43EA9A
:100CA8000243E26A43EA026343F00053294A53606D
:100CB800136843F08073136000F092FD0446254BDF
:100CC8001B6813F0007F06D100F08AFD001B022884
:100CD800F5D903202FE000202DE000202BE01D4A4D
:100CE8005268012B29D002F48003E1698B4226D196
:100CF80002F03F03216A8B4223D1616A47F6C07331
:100D08001340B3EB811F1ED102F44031A36A5B0884
:100D1800013BB1EB034F18D102F07062E36AB2EB0A
:100D2800036F14D1002006E001207047012002E083
:100D3800012000E0002002B070BD0120FBE7012087
:100D4800F9E70120F7E70120F5E70120F3E70120A3
:100D5800F1E700BF0038024008B5254B9B6803F057
:100D68000C03042B3FD0082B3FD1214B5A6802F0CB
:100D78003F025B6813F4800F12D01D4B5968C1F312
:100D880088111C480023A1FB0001FFF741FA184B0A
:100D98005B68C3F3014301335B00B0FBF3F025E06C
:100DA800134B5968C1F3881C4FEA4C11B1EB0C0086
:100DB8006EEB0E0E4FEA8E1343EA90638101091A17
:100DC80063EB0E03DB0043EA5173C90011EB0C0C13
:100DD80043F10003990200234FEA8C2041EA9C5119
:100DE800FFF716FAD3E7034800E0034808BD00BF41
:100DF8000038024040787D010024F400002800F00B
:100E0800A08070B50D460446524B1B6803F00F03D3
:100E18008B420BD24F4A136823F00F030B43136026
:100E2800136803F00F038B4240F08D80236813F0A2
:100E3800020F17D013F0040F04D0474A936843F405
:100E4800E0539360236813F0080F04D0424A936874
:100E580043F460439360404A936823F0F003A16829
:100E68000B439360236813F0010F31D06368012BA3
:100E780020D0022B25D0384A126812F0020F64D015
:100E880035498A6822F0030213438B6000F0A8FCFE
:100E98000646314B9B6803F00C036268B3EB820F84
:100EA80016D000F09DFC801B41F288339842F0D99F
:100EB800032045E0284A126812F4003FE0D10120DF
:100EC8003EE0254A126812F0007FD9D1012037E0B0
:100ED800204B1B6803F00F03AB420AD91D4A136865
:100EE80023F00F032B431360136803F00F03AB4287
:100EF8002DD1236813F0040F06D0174A936823F402
:100F0800E053E1680B439360236813F0080F07D0A0
:100F1800114A936823F46043216943EAC10393604B
:100F2800FFF71AFF0C4B9B68C3F303130B4AD35C00
:100F3800D8400B4B18600B4B186800F013FC0020CE
:100F480070BD012070470120FAE70120F8E7012071
:100F5800F6E700BF003C024000380240B820000815
:100F68000800002004000020014B1868704700BFEB
:100F78000800002008B5FFF7F7FF044B9B68C3F390
:100F88008223034AD35CD84008BD00BF0038024022
:100F9800C820000808B5FFF7E7FF044B9B68C3F3B8
:100FA8004233034AD35CD84008BD00BF0038024032
:100FB800C8200008F0B583B00446066816F001069C
:100FC8000DD0A74B9A6822F400029A609A68416B88
:100FD8000A439A60436B002B00F03981002625688C
:100FE80015F4002511D09E4AD2F88C3023F4401312
:100FF800E16B0B43C2F88C30E36BB3F5801F00F054
:101008002881002B00F027810025236813F4801F16
:101018000FD0934AD2F88C3023F44003216C0B4351
:10102800C2F88C30236CB3F5800F00F0168103B939
:101038000125236813F0807F00D0012613F0200FCC
:1010480040F01081236813F0100F0CD0844BD3F8B4
:101058008C2022F08072C3F88C20D3F88C20A16BEE
:101068000A43C3F88C20236813F4804F08D07C4AC5
:10107800D2F8903023F44033616E0B43C2F89030BD
:10108800236813F4004F08D0754AD2F8903023F43F
:101098004023A16E0B43C2F89030236813F4803FBD
:1010A80008D06F4AD2F8903023F44013E16E0B4316
:1010B800C2F89030236813F4003F08D0684AD2F889
:1010C800903023F44003216F0B43C2F8903023681B
:1010D80013F0400F08D0624AD2F8903023F003038F
:1010E800616C0B43C2F89030236813F0800F08D06E
:1010F8005B4AD2F8903023F00C03A16C0B43C2F882
:101108009030236813F4807F08D0554AD2F8903085
:1011180023F03003E16C0B43C2F89030236813F4DA
:10112800007F08D04E4AD2F8903023F0C003216DDA
:101138000B43C2F89030236813F4806F08D0484AF4
:10114800D2F8903023F44073616D0B43C2F89030AD
:10115800236813F4006F08D0414AD2F8903023F482
:101168004063A16D0B43C2F89030236813F4805F8D
:1011780008D03B4AD2F8903023F44053E16D0B433A
:10118800C2F89030236813F4005F08D0344AD2F8CC
:10119800903023F44043216E0B43C2F8903023680B
:1011A80013F4800F08D02E4AD2F8903023F08063D1
:1011B800A16F0B43C2F89030236813F4001F0DD0C1
:1011C800274AD2F8903023F00063E16F0B43C2F84E
:1011D8009030E36FB3F1006F00F0AA80236813F03A
:1011E800080F00D0012513F4802F08D01C4AD2F82C
:1011F800903023F04073616F0B43C2F8903023683E
:1012080013F4000F09D0164AD2F8903023F0805317
:10121800D4F880100B43C2F8903026B9236813F035
:10122800007F00F005810E4A136823F08063136085
:1012380000F0D6FA06460A4B1B6813F0006F79D007
:1012480000F0CEFA801B6428F5D90320F3E00126CC
:10125800C5E60126D5E60125D7E60126E7E600BF63
:10126800003802407F4B1A6C42F080521A641B6CA3
:1012780003F080530193019B7B4A136843F4807306
:10128800136000F0ADFA0746774B1B6813F4807FB4
:1012980006D100F0A5FAC01B6428F5D90320CAE0DE
:1012A800704B1B6F13F4407315D0226B02F440721D
:1012B8009A4210D06B4B1A6F22F44072196F41F4A6
:1012C80080311967196F21F4803119671A671B6F0C
:1012D80013F0010F12D1236B03F44072B2F5407F73
:1012E8001DD0604A936823F4F81393605D490B6F2F
:1012F800226BC2F30B0213430B67A3E600F070FAEC
:101308000746584B1B6F13F0020FE4D100F068FA40
:10131800C01B41F288339842F3D903208BE051482F
:10132800826822F4F812514919400A438260DDE7C5
:10133800012553E7236813F0010F13D0636B8BB9B2
:10134800484AD2F88430D2F88410606803F44033F5
:1013580043EA801301F070610B43A16843EA01730B
:10136800C2F88430236813F4002F03D0E26BB2F57F
:10137800801F06D013F4801F1ED0236CB3F5800F96
:101388001AD1384AD2F88430D2F88410606803F44D
:10139800403343EA8013E06843EA006301F0E04128
:1013A8000B43C2F88430D2F88C3023F01F03616AF3
:1013B80001390B43C2F88C30236813F0807F11D0B9
:1013C800284AD2F88400D2F88410666823691B047E
:1013D80043EA861300F07060034301F0E0410B43D9
:1013E800C2F88430236813F0007F0DD06268236947
:1013F8001B0443EA8213E26843EA0263A26843EAF1
:101408000273184AC2F88430164A136843F080639E
:10141800136000F0E5F90646124B1B6813F0006FE5
:1014280006D100F0DDF9801B6428F5D9032002E01D
:10143800012D02D0002003B0F0BD0A4A136823F042
:101448008053136000F0CCF90546064B1B6813F077
:10145800005F0DD000F0C4F9401B6428F5D90320C3
:10146800E9E700BF0038024000700040FFFCFF0FB2
:10147800236813F4002F01D0E26B22B113F4801F0C
:101488001DD0236CDBB9354AD2F88830D2F88810E1
:10149800606903F4403343EA8013A06943EA0063B8
:1014A80001F0E0410B43C2F88830D2F88C3023F4C5
:1014B800F853A16A013943EA0123C2F88C30236842
:1014C80013F4001F03D0E36FB3F1006F31D023682A
:1014D80013F0080F19D0214AD2F88810D2F88830B2
:1014E800606903F4403343EA801301F070610B43F1
:1014F800E16943EA0173C2F88830D2F88C3023F4EA
:101508004033E16A0B43C2F88C30144A136843F045
:101518008053136000F064F90446104B1B6813F005
:10152800005F19D100F05CF9001B6428F5D903208D
:1015380081E70A4AD2F88800D2F888106569236AD8
:101548001B0443EA851300F07060034301F0E04197
:101558000B43C2F88830BAE700206CE70038024035
:1015680000230F2B00F2E480F0B583B03AE00922A3
:1015780000E00022AA40324302346E4D45F8242090
:101588006D4A14686FEA0C0224EA0C054E6816F4DA
:10159800803F01D04CEA0405674C2560646802EA84
:1015A80004054E6816F4003F01D04CEA0405624C6D
:1015B8006560A46802EA04054E6816F4801F01D02D
:1015C8004CEA04055C4CA560E46822404D6815F4BB
:1015D800001F01D04CEA0402574CE26001330F2B84
:1015E80000F2A48001229A400C6804EA020C32EA54
:1015F8000404F3D14C68651E112C18BF012D01D9C4
:10160800122C12D185685E000324B44025EA040533
:10161800CC68B4402C438460456825EA02054C68D0
:10162800C4F300129A402A434260C5684FEA430E49
:10163800032404FA0EF4E24325EA04058C6804FA4C
:101648000EF42C43C4604C68122C18BF022C0FD126
:10165800DD08083550F8257003F00704A6000F24AC
:10166800B44027EA04070C69B4403C4340F82540DD
:10167800046814404A6802F0030202FA0EF2224398
:1016880002604A6812F0805FA8D02C4A546C44F477
:1016980080445464526C02F480420192019A9C087E
:1016A800A51C244A52F8256003F0030295000F2276
:1016B800AA4026EA0206224A90423FF45AAF02F5AF
:1016C8008062904222D002F58062904220D002F5DA
:1016D800806290421ED002F5806290421CD002F5D2
:1016E800806290421AD002F58062904218D002F5CA
:1016F8008062904216D002F58062904214D002F5C2
:10170800806290423FF433AF0A2233E7012231E787
:1017180002222FE703222DE704222BE7052229E7DF
:10172800062227E7072225E7082223E703B0F0BDB2
:10173800704700BF00380140003C014000380240BB
:10174800000002400AB18161704709048161704755
:10175800436901EA030221EA030141EA0241816186
:101768007047000010B504460E4B18784FF47A7392
:10177800B3FBF0F30C4A1068B0FBF3F0FFF7BEF8C8
:1017880068B90F2C01D901200AE0002221464FF048
:10179800FF30FFF77DF8054B1C60002000E00120BA
:1017A80010BD00BF00000020080000200400002039
:1017B80008B50320FFF75AF80020FFF7D3FFFEF71C
:1017C800D1FF002008BD0000034A1168034B1B78B5
:1017D8000B441360704700BFF80000200000002091
:1017E800014B1868704700BFF800002038B5044660
:1017F800FFF7F6FF0546B4F1FF3F02D0044B1B7814
:101808001C44FFF7EDFF401BA042FAD338BD00BFD0
:1018180000000020002857D010B5044690F8413049
:10182800002B41D0242384F841302268136823F028
:10183800010313606368226823F0706313612268F0
:10184800936823F400439360E368012B31D0A368C5
:10185800226843F404439360E368022B2FD0226884
:1018680051681A4B0B4353602268D36823F4004332
:10187800D360236962691343A169226843EA01239B
:10188800D360E369216A22680B43136022681368F6
:1018980043F00103136000206064202384F8413082
:1018A800206384F8420010BD80F84030FEF772FFD4
:1018B800B8E7A368226843F400439360CCE7236841
:1018C8004FF400625A60CAE70120704700800002A6
:1018D80090F84130DBB2202B24D190F84030012B16
:1018E80022D0012380F84030242380F84130026858
:1018F800136823F0010313600268136823F480530C
:10190800136002681368194311600268136843F092
:1019180001031360202380F84130002380F8403011
:1019280018467047022070470220704790F84130EF
:10193800DBB2202B22D190F84030012B20D001239C
:1019480080F84030242380F841300268136823F07F
:10195800010313600268136823F4706343EA0121EA
:1019680011600268136843F001031360202380F8B4
:101978004130002380F840301846704702207047F5
:1019880002207047034AD2F8883043F47003C2F843
:101998008830704700ED00E010B50446836802699E
:1019A800134342691343C269134301680868934AA1
:1019B800024013430B602268536823F44053E168E4
:1019C8000B435360A269236A1A4321688B6823F486
:1019D800306313438B602368894A934219D0894A3C
:1019E800934229D0884A93423ED0884A934262D093
:1019F800874A934271D0874A934200F08380864A8F
:101A0800934200F09480854A934200F0A580102309
:101A18003AE0834BD3F8903003F00303032B09D843
:101A2800DFE803F00204AE0601232DE004232BE0D7
:101A3800082329E0102327E0794BD3F8903003F0EE
:101A48000C030C2B0ED8DFE803F0070D0D0D090D64
:101A58000D0D9D0D0D0D0B00002315E0042313E063
:101A6800082311E010230FE06D4BD3F8903003F0FA
:101A78003003202B00F0888019D8002B00F08680D6
:101A8800102B40F085800423E069B0F5004F00F08A
:101A9800AB80082B00F20C81DFE813F0E800FB00B4
:101AA800E6000A01FE000A010A010A010101302BC1
:101AB80070D10823E8E75A4BD3F8903003F0C003FD
:101AC800802B69D005D8002B68D0402B68D104231F
:101AD800DAE7C02B66D10823D6E7514BD3F890300C
:101AE80003F44073B3F5007F5ED006D8002B5DD0B9
:101AF800B3F5807F5CD10423C6E7B3F5407F59D1A5
:101B08000823C1E7464BD3F8903003F44063B3F59C
:101B1800006F51D006D8002B50D0B3F5806F4FD14D
:101B28000423B1E7B3F5406F4CD10823ACE73C4B35
:101B3800D3F8903003F44053B3F5005F44D006D88F
:101B4800002B43D0B3F5805F42D104239CE7B3F563
:101B5800405F3FD1082397E7314BD3F8903003F427
:101B68004043B3F5004F37D005D8BBB3B3F5804F2A
:101B780036D1042388E7B3F5404F33D1082383E7F0
:101B8800022381E702237FE702237DE700237BE727
:101B9800102379E7102377E7022375E7002373E71B
:101BA800102371E710236FE702236DE700236BE72B
:101BB800102369E7102367E7022365E7012363E73A
:101BC800102361E710235FE702235DE700235BE74B
:101BD800102359E7102357E7022355E7002353E75B
:101BE800102351E710234FE7082B5BD8DFE803F0F9
:101BF8001A343A5A375A5A5A1E0000BFF369FFEF8F
:101C0800001001400044004000480040004C0040E3
:101C1800005000400014014000780040007C004063
:101C280000380240FFF7A6F900283DD06268530843
:101C380003EB4000B0FBF2F080B2A0F110024FF6C7
:101C4800EF739A4232D820F00F03C0F342001843D2
:101C58002368D860002030E0FFF79CF9E4E7FFF73D
:101C68007BF8E1E71748E1E7164802E0FFF782F959
:101C780000B3636800EB5300B0FBF3F080B2A0F14F
:101C880010024FF6EF739A4216D82368D8600020E6
:101C980013E0FFF77FF9EBE7FFF75EF8E8E74FF4AB
:101CA8000040E6E7012008E0002006E0012004E00B
:101CB800012002E0002000E0012000236366A36603
:101CC80010BD00BF0024F400436A13F0010F06D0D2
:101CD8000268536823F40033816A0B435360436AF4
:101CE80013F0020F06D00268536823F48033C16AE8
:101CF8000B435360436A13F0040F06D0026853681D
:101D080023F48023016B0B435360436A13F0080FDD
:101D180006D00268536823F40043416B0B435360B9
:101D2800436A13F0100F06D00268936823F48053B7
:101D3800816B0B439360436A13F0200F06D002684F
:101D4800936823F40053C16B0B439360436A13F009
:101D5800400F0AD00268536823F48013016C0B43C8
:101D68005360036CB3F5801F0BD0436A13F0800FE8
:101D780006D00268536823F40023816C0B43536038
:101D880070470268536823F4C003416C0B435360E7
:101D9800EBE72DE9F84305460F4616469946DDF868
:101DA80020802C68E46937EA04030CBF4FF0010C6B
:101DB8004FF0000CB4453DD1B8F1FF3FF1D0FFF72B
:101DC8000FFDA0EB0900404522D8B8F1000F1FD045
:101DD8002B681A6812F0040FE3D0DA6912F4006F66
:101DE800DFD04FF400621A622A68136823F4D073B4
:101DF80013602A68936823F0010393602023AB677C
:101E0800EB67C5F88030002385F87430032012E0B2
:101E18002A68136823F4D07313602A68936823F040
:101E2800010393602023AB67EB67002385F87430C8
:101E3800032000E00020BDE8F8832DE9F04182B0DE
:101E48001E46836F202B56D104460D469046002A25
:101E580018BF002953D090F87430012B51D00123BA
:101E680080F874300023C0F8803021238367FFF79F
:101E7800B7FC0746A4F85080A4F85280A368B3F5CD
:101E8800805F05D04FF00008002384F8743012E01A
:101E9800236913B14FF00008F6E7A8460025F3E7D9
:101EA80015F8012B23689A62B4F8522092B2013ACD
:101EB80092B2A4F85220B4F852309BB283B1009683
:101EC8003B46002280212046FFF763FFD8B9002D4A
:101ED800E6D138F8023B2268C3F308039362E3E7CC
:101EE80000963B46002240212046FFF752FF60B98A
:101EF8002023A36700E0022002B0BDE8F0810120A2
:101F0800FAE70220F8E70320F6E70320F4E710B524
:101F180082B004460023C0F88030FFF761FC2368D4
:101F28001B6813F0080F08D12023A367E36700207C
:101F3800206684F8740002B010BD6FF07E430093F1
:101F4800034600224FF400112046FFF722FF002825
:101F5800EAD00320EFE768B310B50446836F03B3F4
:101F68002423A3672268136823F001031360204623
:101F7800FFF712FD012813D0636ABBB922685368C2
:101F880023F4904353602268936823F02A039360F4
:101F98002268136843F0010313602046FFF7B7FF78
:101FA80010BD80F87430FEF72BFCD9E72046FFF708
:101FB8008BFEE3E701207047DFF834D00D480E4967
:101FC8000E4A002302E0D458C4500433C4188C428B
:101FD800F9D30B4A0B4C002301E013600432A242F0
:101FE800FBD3FFF7CFFC00F011F8FEF79DFB70471D
:101FF80000000520000000200C000020E020000860
:102008000C000020FC000020FEE7000070B50D4D1C
:102018000D4C641BA4100026A64209D10B4D0C4C94
:1020280000F020F8641BA4100026A64205D170BD5C
:1020380055F8043B98470136EEE755F8043B9847B6
:102048000136F2E7D8200008D8200008D820000878
:10205800DC20000802440346934200D1704703F88D
:10206800011BF9E7F8B500BFF8BC08BC9E467047ED
:0C207800F8B500BFF8BC08BC9E467047DD
:1020840048656C6C6F2064726F67756921210D0A55
:10209400000000000000000000000000000000003C
:1020A400000000000000000000000000000000002C
:1020B4000000000000000000000000000102030412
:0C20C400060708090000000001020304E8
:0820D00078E1FF7F0100000030
:0420D800ED0100080E
:0420DC00C90100082E
:0C20E00001000000100000000024F400CB
:0400000508001FC10F
:00000001FF
